{"contracts/agent.sol":{"Agent":{"abi":[{"inputs":[{"internalType":"string","name":"_domain","type":"string"},{"internalType":"address","name":"_sponsor","type":"address"}],"stateMutability":"nonpayable","type":"constructor"},{"anonymous":false,"inputs":[{"indexed":true,"internalType":"address","name":"approver","type":"address"},{"indexed":true,"internalType":"address","name":"requestor","type":"address"},{"indexed":false,"internalType":"string","name":"fileName","type":"string"},{"indexed":false,"internalType":"bool","name":"approved","type":"bool"},{"indexed":false,"internalType":"uint256","name":"timestamp","type":"uint256"}],"name":"ApprovalHandled","type":"event"},{"anonymous":false,"inputs":[{"indexed":true,"internalType":"address","name":"approver","type":"address"},{"indexed":true,"internalType":"address","name":"requestor","type":"address"},{"indexed":false,"internalType":"string","name":"fileName","type":"string"},{"indexed":false,"internalType":"string","name":"fileHash","type":"string"},{"indexed":false,"internalType":"uint256","name":"timestamp","type":"uint256"}],"name":"ApprovalRequested","type":"event"},{"anonymous":false,"inputs":[{"indexed":true,"internalType":"string","name":"key","type":"string"},{"indexed":false,"internalType":"bool","name":"isPublic","type":"bool"},{"indexed":false,"internalType":"uint256","name":"timestamp","type":"uint256"}],"name":"AttributeSet","type":"event"},{"anonymous":false,"inputs":[{"indexed":true,"internalType":"address","name":"owner","type":"address"},{"indexed":false,"internalType":"string","name":"publicKey","type":"string"},{"indexed":false,"internalType":"string","name":"data","type":"string"},{"indexed":false,"internalType":"uint256","name":"timestamp","type":"uint256"}],"name":"DataWritten","type":"event"},{"anonymous":false,"inputs":[{"indexed":true,"internalType":"address","name":"from","type":"address"},{"indexed":true,"internalType":"address","name":"to","type":"address"},{"indexed":false,"internalType":"string","name":"ipfsHash","type":"string"},{"indexed":false,"internalType":"string","name":"domain","type":"string"},{"indexed":false,"internalType":"uint256","name":"timestamp","type":"uint256"}],"name":"MessageSent","type":"event"},{"anonymous":false,"inputs":[{"indexed":true,"internalType":"address","name":"previousOwner","type":"address"},{"indexed":true,"internalType":"address","name":"newOwner","type":"address"},{"indexed":false,"internalType":"uint256","name":"timestamp","type":"uint256"}],"name":"OwnershipTransferred","type":"event"},{"anonymous":false,"inputs":[{"indexed":true,"internalType":"address","name":"from","type":"address"},{"indexed":true,"internalType":"address","name":"board","type":"address"},{"indexed":false,"internalType":"string","name":"ipfsHash","type":"string"},{"indexed":false,"internalType":"string","name":"domain","type":"string"},{"indexed":false,"internalType":"enum Agent.Visibility","name":"visibility","type":"uint8"},{"indexed":false,"internalType":"uint256","name":"timestamp","type":"uint256"}],"name":"PostCreated","type":"event"},{"anonymous":false,"inputs":[{"indexed":true,"internalType":"address","name":"owner","type":"address"},{"indexed":false,"internalType":"string","name":"listName","type":"string"},{"indexed":true,"internalType":"address","name":"addr","type":"address"},{"indexed":false,"internalType":"string","name":"action","type":"string"},{"indexed":false,"internalType":"uint256","name":"timestamp","type":"uint256"}],"name":"WhitelistModified","type":"event"},{"inputs":[],"name":"VERSION","outputs":[{"internalType":"string","name":"","type":"string"}],"stateMutability":"view","type":"function"},{"inputs":[{"internalType":"address","name":"admin","type":"address"}],"name":"addAdministrator","outputs":[],"stateMutability":"nonpayable","type":"function"},{"inputs":[{"internalType":"string","name":"listName","type":"string"},{"internalType":"address","name":"addressToAdd","type":"address"},{"internalType":"string","name":"name","type":"string"},{"internalType":"uint8","name":"role","type":"uint8"},{"internalType":"string","name":"meta","type":"string"}],"name":"addToWhitelist","outputs":[],"stateMutability":"nonpayable","type":"function"},{"inputs":[{"internalType":"address","name":"approverAddress","type":"address"},{"internalType":"string","name":"fileName","type":"string"},{"internalType":"string","name":"fileHash","type":"string"},{"internalType":"string","name":"requestDomain","type":"string"}],"name":"createApproval","outputs":[],"stateMutability":"nonpayable","type":"function"},{"inputs":[{"internalType":"address","name":"board","type":"address"},{"internalType":"string","name":"publicKey","type":"string"},{"internalType":"string","name":"data","type":"string"},{"internalType":"string","name":"postDomain","type":"string"},{"internalType":"string","name":"ipfsHash","type":"string"},{"internalType":"enum Agent.Visibility","name":"visibility","type":"uint8"}],"name":"createPost","outputs":[],"stateMutability":"nonpayable","type":"function"},{"inputs":[{"internalType":"string","name":"key","type":"string"}],"name":"deletePrivateAttribute","outputs":[],"stateMutability":"nonpayable","type":"function"},{"inputs":[{"internalType":"string","name":"key","type":"string"}],"name":"deletePublicAttribute","outputs":[],"stateMutability":"nonpayable","type":"function"},{"inputs":[],"name":"domain","outputs":[{"internalType":"string","name":"","type":"string"}],"stateMutability":"view","type":"function"},{"inputs":[{"internalType":"address","name":"approverAddress","type":"address"}],"name":"getAllApprovalsForApprover","outputs":[{"components":[{"internalType":"address","name":"requestor","type":"address"},{"internalType":"bool","name":"approved","type":"bool"},{"internalType":"string","name":"fileName","type":"string"},{"internalType":"string","name":"fileHash","type":"string"},{"internalType":"uint256","name":"processedAt","type":"uint256"},{"internalType":"bool","name":"exists","type":"bool"}],"internalType":"struct Agent.ApprovalWithRequestor[]","name":"","type":"tuple[]"}],"stateMutability":"view","type":"function"},{"inputs":[{"internalType":"address","name":"requestorAddress","type":"address"}],"name":"getAllApprovalsForRequestor","outputs":[{"components":[{"internalType":"address","name":"requestor","type":"address"},{"internalType":"bool","name":"approved","type":"bool"},{"internalType":"string","name":"fileName","type":"string"},{"internalType":"string","name":"fileHash","type":"string"},{"internalType":"uint256","name":"processedAt","type":"uint256"},{"internalType":"bool","name":"exists","type":"bool"}],"internalType":"struct Agent.ApprovalWithRequestor[]","name":"","type":"tuple[]"}],"stateMutability":"view","type":"function"},{"inputs":[{"internalType":"address","name":"approverAddress","type":"address"},{"internalType":"address","name":"requestorAddress","type":"address"}],"name":"getApprovalsByAddress","outputs":[{"components":[{"internalType":"bool","name":"approved","type":"bool"},{"internalType":"string","name":"fileName","type":"string"},{"internalType":"string","name":"fileHash","type":"string"},{"internalType":"uint256","name":"processedAt","type":"uint256"},{"internalType":"bool","name":"exists","type":"bool"}],"internalType":"struct Agent.ApprovalRequest[]","name":"","type":"tuple[]"}],"stateMutability":"view","type":"function"},{"inputs":[{"internalType":"address","name":"otherParty","type":"address"}],"name":"getConversation","outputs":[{"components":[{"internalType":"address","name":"from","type":"address"},{"internalType":"address","name":"to","type":"address"},{"internalType":"string","name":"data","type":"string"},{"internalType":"string","name":"publicKey","type":"string"},{"internalType":"string","name":"domain","type":"string"},{"internalType":"string","name":"ipfsHash","type":"string"},{"internalType":"enum Agent.Visibility","name":"visibility","type":"uint8"},{"internalType":"uint256","name":"timestamp","type":"uint256"}],"internalType":"struct Agent.RivetItem[]","name":"","type":"tuple[]"}],"stateMutability":"view","type":"function"},{"inputs":[{"internalType":"address","name":"addr1","type":"address"},{"internalType":"address","name":"addr2","type":"address"}],"name":"getConversationId","outputs":[{"internalType":"bytes32","name":"","type":"bytes32"}],"stateMutability":"pure","type":"function"},{"inputs":[{"internalType":"address","name":"wallet","type":"address"}],"name":"getListNames","outputs":[{"internalType":"string[]","name":"","type":"string[]"}],"stateMutability":"view","type":"function"},{"inputs":[],"name":"getMessageCount","outputs":[{"internalType":"uint256","name":"","type":"uint256"}],"stateMutability":"view","type":"function"},{"inputs":[{"internalType":"address","name":"board","type":"address"}],"name":"getPosts","outputs":[{"components":[{"internalType":"address","name":"from","type":"address"},{"internalType":"address","name":"to","type":"address"},{"internalType":"string","name":"data","type":"string"},{"internalType":"string","name":"publicKey","type":"string"},{"internalType":"string","name":"domain","type":"string"},{"internalType":"string","name":"ipfsHash","type":"string"},{"internalType":"enum Agent.Visibility","name":"visibility","type":"uint8"},{"internalType":"uint256","name":"timestamp","type":"uint256"}],"internalType":"struct Agent.RivetItem[]","name":"","type":"tuple[]"}],"stateMutability":"view","type":"function"},{"inputs":[{"internalType":"address","name":"board","type":"address"},{"internalType":"uint256","name":"offset","type":"uint256"},{"internalType":"uint256","name":"limit","type":"uint256"}],"name":"getPostsPaginated","outputs":[{"components":[{"internalType":"address","name":"from","type":"address"},{"internalType":"address","name":"to","type":"address"},{"internalType":"string","name":"data","type":"string"},{"internalType":"string","name":"publicKey","type":"string"},{"internalType":"string","name":"domain","type":"string"},{"internalType":"string","name":"ipfsHash","type":"string"},{"internalType":"enum Agent.Visibility","name":"visibility","type":"uint8"},{"internalType":"uint256","name":"timestamp","type":"uint256"}],"internalType":"struct Agent.RivetItem[]","name":"","type":"tuple[]"}],"stateMutability":"view","type":"function"},{"inputs":[{"internalType":"string","name":"key","type":"string"}],"name":"getPrivateAttribute","outputs":[{"internalType":"string","name":"","type":"string"}],"stateMutability":"view","type":"function"},{"inputs":[],"name":"getPrivateAttributeKeys","outputs":[{"internalType":"string[]","name":"","type":"string[]"}],"stateMutability":"view","type":"function"},{"inputs":[{"internalType":"string","name":"key","type":"string"}],"name":"getPublicAttribute","outputs":[{"internalType":"string","name":"","type":"string"}],"stateMutability":"view","type":"function"},{"inputs":[],"name":"getPublicAttributeKeys","outputs":[{"internalType":"string[]","name":"","type":"string[]"}],"stateMutability":"view","type":"function"},{"inputs":[{"internalType":"address","name":"addr","type":"address"}],"name":"getPublicKeys","outputs":[{"internalType":"string[]","name":"","type":"string[]"}],"stateMutability":"view","type":"function"},{"inputs":[],"name":"getUserConversationIds","outputs":[{"internalType":"bytes32[]","name":"","type":"bytes32[]"}],"stateMutability":"view","type":"function"},{"inputs":[{"internalType":"address","name":"wallet","type":"address"},{"internalType":"string","name":"listName","type":"string"}],"name":"getWhitelist","outputs":[{"components":[{"internalType":"address","name":"addr","type":"address"},{"internalType":"string","name":"name","type":"string"},{"internalType":"uint8","name":"role","type":"uint8"},{"internalType":"string","name":"meta","type":"string"}],"internalType":"struct Agent.WhitelistEntry[]","name":"","type":"tuple[]"}],"stateMutability":"view","type":"function"},{"inputs":[{"internalType":"address","name":"wallet","type":"address"},{"internalType":"string","name":"listName","type":"string"},{"internalType":"address","name":"addressToCheck","type":"address"}],"name":"getWhitelistEntry","outputs":[{"components":[{"internalType":"address","name":"addr","type":"address"},{"internalType":"string","name":"name","type":"string"},{"internalType":"uint8","name":"role","type":"uint8"},{"internalType":"string","name":"meta","type":"string"}],"internalType":"struct Agent.WhitelistEntry","name":"","type":"tuple"}],"stateMutability":"view","type":"function"},{"inputs":[{"internalType":"address","name":"requestorAddress","type":"address"},{"internalType":"string","name":"fileName","type":"string"},{"internalType":"bool","name":"approved","type":"bool"}],"name":"handleApproval","outputs":[],"stateMutability":"nonpayable","type":"function"},{"inputs":[{"internalType":"address","name":"addr","type":"address"}],"name":"isAdministrator","outputs":[{"internalType":"bool","name":"","type":"bool"}],"stateMutability":"view","type":"function"},{"inputs":[{"internalType":"address","name":"wallet","type":"address"},{"internalType":"string","name":"listName","type":"string"},{"internalType":"address","name":"addressToCheck","type":"address"}],"name":"isWhitelisted","outputs":[{"internalType":"bool","name":"","type":"bool"}],"stateMutability":"view","type":"function"},{"inputs":[{"internalType":"string","name":"","type":"string"}],"name":"publicAttributes","outputs":[{"internalType":"string","name":"","type":"string"}],"stateMutability":"view","type":"function"},{"inputs":[],"name":"read","outputs":[{"internalType":"string[]","name":"","type":"string[]"}],"stateMutability":"view","type":"function"},{"inputs":[{"internalType":"address","name":"admin","type":"address"}],"name":"removeAdministrator","outputs":[],"stateMutability":"nonpayable","type":"function"},{"inputs":[{"internalType":"string","name":"listName","type":"string"},{"internalType":"address","name":"addressToRemove","type":"address"}],"name":"removeFromWhitelist","outputs":[],"stateMutability":"nonpayable","type":"function"},{"inputs":[{"internalType":"address","name":"to","type":"address"},{"internalType":"string","name":"publicKey","type":"string"},{"internalType":"string","name":"data","type":"string"},{"internalType":"string","name":"messageDomain","type":"string"},{"internalType":"string","name":"ipfsHash","type":"string"}],"name":"sendMessage","outputs":[],"stateMutability":"nonpayable","type":"function"},{"inputs":[{"internalType":"string","name":"key","type":"string"},{"internalType":"string","name":"value","type":"string"}],"name":"setPrivateAttribute","outputs":[],"stateMutability":"nonpayable","type":"function"},{"inputs":[{"internalType":"string","name":"key","type":"string"},{"internalType":"string","name":"value","type":"string"}],"name":"setPublicAttribute","outputs":[],"stateMutability":"nonpayable","type":"function"},{"inputs":[],"name":"sponsor","outputs":[{"internalType":"address","name":"","type":"address"}],"stateMutability":"view","type":"function"},{"inputs":[{"internalType":"address","name":"newOwner","type":"address"}],"name":"transferOwnership","outputs":[],"stateMutability":"nonpayable","type":"function"},{"inputs":[{"internalType":"string","name":"listName","type":"string"},{"internalType":"address","name":"addressToUpdate","type":"address"},{"internalType":"string","name":"name","type":"string"},{"internalType":"uint8","name":"role","type":"uint8"},{"internalType":"string","name":"meta","type":"string"}],"name":"updateWhitelistEntry","outputs":[],"stateMutability":"nonpayable","type":"function"},{"inputs":[{"internalType":"string","name":"publicKey","type":"string"},{"internalType":"string","name":"data","type":"string"}],"name":"write","outputs":[],"stateMutability":"nonpayable","type":"function"}],"evm":{"bytecode":{"linkReferences":{},"object":"60a060405234801561001057600080fd5b506040516172ac3803806172ac83398101604081905261002f9161012c565b60008251116100855760405162461bcd60e51b815260206004820152601660248201527f446f6d61696e2063616e6e6f7420626520656d7074790000000000000000000060448201526064015b60405180910390fd5b6001600160a01b0381166100db5760405162461bcd60e51b815260206004820152601e60248201527f53706f6e736f722063616e6e6f74206265207a65726f20616464726573730000604482015260640161007c565b60006100e78382610292565b506001600160a01b031660805250610350565b634e487b7160e01b600052604160045260246000fd5b80516001600160a01b038116811461012757600080fd5b919050565b6000806040838503121561013f57600080fd5b82516001600160401b0381111561015557600080fd5b8301601f8101851361016657600080fd5b80516001600160401b0381111561017f5761017f6100fa565b604051601f8201601f19908116603f011681016001600160401b03811182821017156101ad576101ad6100fa565b6040528181528282016020018710156101c557600080fd5b60005b828110156101e4576020818501810151838301820152016101c8565b5060006020838301015280945050505061020060208401610110565b90509250929050565b600181811c9082168061021d57607f821691505b60208210810361023d57634e487b7160e01b600052602260045260246000fd5b50919050565b601f82111561028d57806000526020600020601f840160051c8101602085101561026a5750805b601f840160051c820191505b8181101561028a5760008155600101610276565b50505b505050565b81516001600160401b038111156102ab576102ab6100fa565b6102bf816102b98454610209565b84610243565b6020601f8211600181146102f357600083156102db5750848201515b600019600385901b1c1916600184901b17845561028a565b600084815260208120601f198516915b828110156103235787850151825560209485019460019092019101610303565b50848210156103415786840151600019600387901b60f8161c191681555b50505050600190811b01905550565b608051616f026103aa600039600081816103f9015281816107cb0152818161121401528181611b2801528181612f9601528181613360015281816134e901528181613cfc0152818161468f015261478f0152616f026000f3fe608060405234801561001057600080fd5b506004361061023d5760003560e01c80637657e2931161013b578063be758306116100b8578063ca239d4b1161007c578063ca239d4b14610548578063f2fde38b1461055b578063f6ee44cb1461056e578063fd098d2f14610581578063ffa1ad741461059457600080fd5b8063be758306146104e5578063c25cfe8a146104fa578063c2fb26a61461050d578063c565b77214610515578063c99911761461053557600080fd5b8063956f0f8f116100ff578063956f0f8f146104795780639d2c2c771461048c578063aa2285a51461049f578063b33a0af1146104b2578063bae067b3146104d257600080fd5b80637657e293146103e157806377c93662146103f45780637f344c1614610433578063898c2d7b146104465780638f033c851461045957600080fd5b80634194f5aa116101c957806357de26a41161018d57806357de26a41461039857806357fca407146103a05780635eaf27f1146103a85780635fcbb7d6146103bb57806368fa8134146103ce57600080fd5b80634194f5aa1461032c57806343b63fd51461034c578063482055211461035f5780634caf9d0b1461037257806353dacec61461038557600080fd5b80631b204716116102105780631b204716146102a55780631e7c0197146102c5578063294c9921146102d85780632a6d9034146102ed578063319339161461030d57600080fd5b80630308761b146102425780630a2eb301146102575780630e26b22d1461027f57806310ae73dd14610292575b600080fd5b610255610250366004615f8e565b6105b8565b005b61026a610265366004615fdb565b6107c7565b60405190151581526020015b60405180910390f35b61025561028d366004616005565b610827565b6102556102a03660046160e1565b610a3d565b6102b86102b3366004616147565b610d26565b60405161027691906161c1565b6102556102d336600461626f565b610efd565b6102e0611207565b60405161027691906162d6565b6103006102fb366004615fdb565b611386565b6040516102769190616367565b336000908152600260205260409020545b604051908152602001610276565b61033f61033a366004616469565b611777565b604051610276919061651c565b6102e061035a366004615fdb565b611a2e565b61025561036d36600461652f565b611b1d565b610300610380366004615fdb565b611ccc565b61030061039336600461656b565b61214d565b6102e0612774565b6102e0612b28565b6102556103b636600461659e565b612bf8565b6102e06103c9366004615fdb565b612ea7565b6102556103dc366004615fdb565b612f8b565b6102556103ef366004616659565b613033565b61041b7f000000000000000000000000000000000000000000000000000000000000000081565b6040516001600160a01b039091168152602001610276565b61025561044136600461652f565b613355565b61025561045436600461626f565b6134de565b61046c61046736600461652f565b6136ba565b604051610276919061670d565b61026a610487366004616469565b61376a565b61025561049a366004616720565b6139a5565b6102556104ad36600461626f565b613cf1565b6104c56104c03660046167c2565b613ec5565b60405161027691906167f9565b61046c6104e036600461652f565b61409b565b6104ed614140565b6040516102769190616852565b61031e610508366004616147565b6141a1565b61046c614217565b610528610523366004615fdb565b614224565b604051610276919061688a565b610255610543366004615fdb565b614684565b61046c61055636600461652f565b614782565b610255610569366004615fdb565b61483a565b61052861057c366004615fdb565b6155a6565b61025561058f36600461659e565b6159fc565b61046c604051806040016040528060058152602001640332e302e360dc1b81525081565b60008251116105e25760405162461bcd60e51b81526004016105d99061693e565b60405180910390fd5b3360009081526005602052604080822090516105ff908590616975565b9081526020016040518091039020905060005b81548110156107c157826001600160a01b031682828154811061063757610637616991565b60009182526020909120600490910201546001600160a01b0316036107b95781548290610666906001906169bd565b8154811061067657610676616991565b906000526020600020906004020182828154811061069657610696616991565b60009182526020909120825460049092020180546001600160a01b0319166001600160a01b039092169190911781556001808201906106d790840182616a56565b50600282810154908201805460ff191660ff90921691909117905560038082019061070490840182616a56565b509050508180548061071857610718616b35565b60008281526020812060046000199093019283020180546001600160a01b0319168155906107496001830182615c76565b60028201805460ff19169055610763600383016000615c76565b50509055826001600160a01b0316336001600160a01b03167fb66dabb959d5f3bdb53a39aa58d0975b39199c9b188ad8bb09a1b37bb7bf597986426040516107ac929190616b4b565b60405180910390a36107c1565b600101610612565b50505050565b60007f00000000000000000000000000000000000000000000000000000000000000006001600160a01b0316826001600160a01b0316148061082157506001600160a01b0382166000908152600e602052604090205460ff165b92915050565b60008251116108745760405162461bcd60e51b81526020600482015260196024820152784950465320686173682063616e6e6f7420626520656d70747960381b60448201526064016105d9565b6001600160a01b0386166000908152600260209081526040808320815161010081018352338152928301939093528101869052606081018790526080810185905260a0810184905260c081018360018111156108d2576108d261632f565b815242602091820152825460018082018555600094855293829020835160089092020180546001600160a01b03199081166001600160a01b03938416178255928401519481018054909316949091169390931790556040810151909190600282019061093e9082616b8d565b50606082015160038201906109539082616b8d565b50608082015160048201906109689082616b8d565b5060a0820151600582019061097d9082616b8d565b5060c082015160068201805460ff1916600183818111156109a0576109a061632f565b021790555060e091909101516007909101558451156109e457336000908152600360209081526040822080546001810182559083529120016109e28682616b8d565b505b856001600160a01b0316336001600160a01b03167ff8978169ef1306ac0c49b6b67c280d605663d299eb03a25d6c691f3648d7b35084868542604051610a2d9493929190616c43565b60405180910390a3505050505050565b6001600160a01b038316610a935760405162461bcd60e51b815260206004820181905260248201527f526571756573746f722063616e6e6f74206265207a65726f206164647265737360448201526064016105d9565b6000825111610ae05760405162461bcd60e51b815260206004820152601960248201527846696c65206e616d652063616e6e6f7420626520656d70747960381b60448201526064016105d9565b3360009081526007602090815260408083206001600160a01b038716845290915290208054610b515760405162461bcd60e51b815260206004820152601f60248201527f4e6f2072657175657374732066726f6d207468697320726571756573746f720060448201526064016105d9565b6000805b8254811015610cb857828181548110610b7057610b70616991565b9060005260206000209060050201600301546000148015610bce57508480519060200120838281548110610ba657610ba6616991565b9060005260206000209060050201600101604051610bc49190616c87565b6040518091039020145b15610cb05783838281548110610be657610be6616991565b906000526020600020906005020160000160006101000a81548160ff02191690831515021790555042838281548110610c2157610c21616991565b906000526020600020906005020160030181905550856001600160a01b0316336001600160a01b03167f532cb0591b34f8b7dd491dae5df420200e7d868e0eac7eae638ea5d4ce9dffcc858481548110610c7d57610c7d616991565b90600052602060002090600502016001018742604051610c9f93929190616d7f565b60405180910390a360019150610cb8565b600101610b55565b5080610d1f5760405162461bcd60e51b815260206004820152603060248201527f4e6f20756e70726f636573736564207265717565737420666f756e642077697460448201526f6820746869732066696c65206e616d6560801b60648201526084016105d9565b5050505050565b6001600160a01b0380831660009081526007602090815260408083209385168352928152828220805484518184028101840190955280855260609493919290919084015b82821015610ef15760008481526020908190206040805160a0810190915260058502909101805460ff16151582526001810180549293919291840191610daf906169d0565b80601f0160208091040260200160405190810160405280929190818152602001828054610ddb906169d0565b8015610e285780601f10610dfd57610100808354040283529160200191610e28565b820191906000526020600020905b815481529060010190602001808311610e0b57829003601f168201915b50505050508152602001600282018054610e41906169d0565b80601f0160208091040260200160405190810160405280929190818152602001828054610e6d906169d0565b8015610eba5780601f10610e8f57610100808354040283529160200191610eba565b820191906000526020600020905b815481529060010190602001808311610e9d57829003601f168201915b5050509183525050600382015460208083019190915260049092015460ff1615156040909101529082526001929092019101610d6a565b50505050905092915050565b6000825111610f4e5760405162461bcd60e51b815260206004820152601a60248201527f5075626c6963206b65792063616e6e6f7420626520656d70747900000000000060448201526064016105d9565b6000815111610f965760405162461bcd60e51b8152602060048201526014602482015273446174612063616e6e6f7420626520656d70747960601b60448201526064016105d9565b33600090815260036020908152604082208054600181018255908352912001610fbf8382616b8d565b503360008181526002602090815260408083208151610100810183529485528483018490528151928301825283835290840191909152606083018590528154909291608083019161100f906169d0565b80601f016020809104026020016040519081016040528092919081815260200182805461103b906169d0565b80156110885780601f1061105d57610100808354040283529160200191611088565b820191906000526020600020905b81548152906001019060200180831161106b57829003601f168201915b5050509183525050602081018490526040016000815242602091820152825460018082018555600094855293829020835160089092020180546001600160a01b03199081166001600160a01b0393841617825592840151948101805490931694909116939093179055604081015190919060028201906111089082616b8d565b506060820151600382019061111d9082616b8d565b50608082015160048201906111329082616b8d565b5060a082015160058201906111479082616b8d565b5060c082015160068201805460ff19166001838181111561116a5761116a61632f565b021790555060e082015181600701555050336001600160a01b03167fc5d820f5092964c33342d79084a41f152b1071ffc9965eb19b078805775f4ae48383426040516111b893929190616da4565b60405180910390a2604051339081907ff8978169ef1306ac0c49b6b67c280d605663d299eb03a25d6c691f3648d7b350906111fb90859060009081904290616dda565b60405180910390a35050565b6060336001600160a01b037f000000000000000000000000000000000000000000000000000000000000000016148061124f5750336000908152600e602052604090205460ff165b6112af5760405162461bcd60e51b815260206004820152603e6024820152600080516020616ead83398151915260448201527f616e2072656164207072697661746520617474726962757465206b657973000060648201526084016105d9565b600d805480602002602001604051908101604052809291908181526020016000905b8282101561137d5783829060005260206000200180546112f0906169d0565b80601f016020809104026020016040519081016040528092919081815260200182805461131c906169d0565b80156113695780601f1061133e57610100808354040283529160200191611369565b820191906000526020600020905b81548152906001019060200180831161134c57829003601f168201915b5050505050815260200190600101906112d1565b50505050905090565b60606001600160a01b0382166113e95760405162461bcd60e51b815260206004820152602260248201527f4f746865722070617274792063616e6e6f74206265207a65726f206164647265604482015261737360f01b60648201526084016105d9565b336001600160a01b0383160361144f5760405162461bcd60e51b815260206004820152602560248201527f43616e6e6f742067657420636f6e766572736174696f6e207769746820796f756044820152643939b2b63360d91b60648201526084016105d9565b600061145b33846141a1565b905060016000828152602001908152602001600020805480602002602001604051908101604052809291908181526020016000905b8282101561176b57600084815260209081902060408051610100810182526008860290920180546001600160a01b03908116845260018201541693830193909352600283018054929392918401916114e7906169d0565b80601f0160208091040260200160405190810160405280929190818152602001828054611513906169d0565b80156115605780601f1061153557610100808354040283529160200191611560565b820191906000526020600020905b81548152906001019060200180831161154357829003601f168201915b50505050508152602001600382018054611579906169d0565b80601f01602080910402602001604051908101604052809291908181526020018280546115a5906169d0565b80156115f25780601f106115c7576101008083540402835291602001916115f2565b820191906000526020600020905b8154815290600101906020018083116115d557829003601f168201915b5050505050815260200160048201805461160b906169d0565b80601f0160208091040260200160405190810160405280929190818152602001828054611637906169d0565b80156116845780601f1061165957610100808354040283529160200191611684565b820191906000526020600020905b81548152906001019060200180831161166757829003601f168201915b5050505050815260200160058201805461169d906169d0565b80601f01602080910402602001604051908101604052809291908181526020018280546116c9906169d0565b80156117165780601f106116eb57610100808354040283529160200191611716565b820191906000526020600020905b8154815290600101906020018083116116f957829003601f168201915b5050509183525050600682015460209091019060ff16600181111561173d5761173d61632f565b600181111561174e5761174e61632f565b815260200160078201548152505081526020019060010190611490565b50505050915050919050565b60408051608081018252600080825260606020830181905292820152818101919091526001600160a01b03841660009081526005602052604080822090516117c0908690616975565b9081526020016040518091039020805480602002602001604051908101604052809291908181526020016000905b8282101561196b57600084815260209081902060408051608081019091526004850290910180546001600160a01b031682526001810180549293919291840191611837906169d0565b80601f0160208091040260200160405190810160405280929190818152602001828054611863906169d0565b80156118b05780601f10611885576101008083540402835291602001916118b0565b820191906000526020600020905b81548152906001019060200180831161189357829003601f168201915b5050509183525050600282015460ff1660208201526003820180546040909201916118da906169d0565b80601f0160208091040260200160405190810160405280929190818152602001828054611906906169d0565b80156119535780601f1061192857610100808354040283529160200191611953565b820191906000526020600020905b81548152906001019060200180831161193657829003601f168201915b505050505081525050815260200190600101906117ee565b50505050905060005b81518110156119de57836001600160a01b031682828151811061199957611999616991565b6020026020010151600001516001600160a01b0316036119d6578181815181106119c5576119c5616991565b602002602001015192505050611a27565b600101611974565b5060405162461bcd60e51b815260206004820152601860248201527f41646472657373206e6f7420696e2077686974656c697374000000000000000060448201526064016105d9565b9392505050565b6001600160a01b0381166000908152600660209081526040808320805482518185028101850190935280835260609492939192909184015b82821015611b12578382906000526020600020018054611a85906169d0565b80601f0160208091040260200160405190810160405280929190818152602001828054611ab1906169d0565b8015611afe5780601f10611ad357610100808354040283529160200191611afe565b820191906000526020600020905b815481529060010190602001808311611ae157829003601f168201915b505050505081526020019060010190611a66565b505050509050919050565b336001600160a01b037f0000000000000000000000000000000000000000000000000000000000000000161480611b635750336000908152600e602052604090205460ff165b611bc35760405162461bcd60e51b815260206004820152603c6024820152600080516020616ead83398151915260448201527f616e2064656c657465207072697661746520617474726962757465730000000060648201526084016105d9565b600b81604051611bd39190616975565b90815260200160405180910390206000611bed9190615c76565b60005b600d54811015611cc8578180519060200120600d8281548110611c1557611c15616991565b90600052602060002001604051611c2c9190616c87565b604051809103902003611cc057600d8054611c49906001906169bd565b81548110611c5957611c59616991565b90600052602060002001600d8281548110611c7657611c76616991565b906000526020600020019081611c8c9190616a56565b50600d805480611c9e57611c9e616b35565b600190038181906000526020600020016000611cba9190615c76565b90555050565b600101611bf0565b5050565b6001600160a01b0381166000908152600260209081526040808320805482518185028101850190935280835260609493849084015b82821015611fdc57600084815260209081902060408051610100810182526008860290920180546001600160a01b0390811684526001820154169383019390935260028301805492939291840191611d58906169d0565b80601f0160208091040260200160405190810160405280929190818152602001828054611d84906169d0565b8015611dd15780601f10611da657610100808354040283529160200191611dd1565b820191906000526020600020905b815481529060010190602001808311611db457829003601f168201915b50505050508152602001600382018054611dea906169d0565b80601f0160208091040260200160405190810160405280929190818152602001828054611e16906169d0565b8015611e635780601f10611e3857610100808354040283529160200191611e63565b820191906000526020600020905b815481529060010190602001808311611e4657829003601f168201915b50505050508152602001600482018054611e7c906169d0565b80601f0160208091040260200160405190810160405280929190818152602001828054611ea8906169d0565b8015611ef55780601f10611eca57610100808354040283529160200191611ef5565b820191906000526020600020905b815481529060010190602001808311611ed857829003601f168201915b50505050508152602001600582018054611f0e906169d0565b80601f0160208091040260200160405190810160405280929190818152602001828054611f3a906169d0565b8015611f875780601f10611f5c57610100808354040283529160200191611f87565b820191906000526020600020905b815481529060010190602001808311611f6a57829003601f168201915b5050509183525050600682015460209091019060ff166001811115611fae57611fae61632f565b6001811115611fbf57611fbf61632f565b815260200160078201548152505081526020019060010190611d01565b505050509050826001600160a01b0316336001600160a01b0316036120015792915050565b6000805b825181101561205a57600083828151811061202257612022616991565b602002602001015160c00151600181111561203f5761203f61632f565b03612052578161204e81616dff565b9250505b600101612005565b506000816001600160401b0381111561207557612075615ecf565b6040519080825280602002602001820160405280156120ae57816020015b61209b615cb3565b8152602001906001900390816120935790505b5090506000805b84518110156121425760008582815181106120d2576120d2616991565b602002602001015160c0015160018111156120ef576120ef61632f565b0361213a5784818151811061210657612106616991565b602002602001015183838151811061212057612120616991565b6020026020010181905250818061213690616dff565b9250505b6001016120b5565b509095945050505050565b6001600160a01b0383166000908152600260209081526040808320805482518185028101850190935280835260609493849084015b8282101561245d57600084815260209081902060408051610100810182526008860290920180546001600160a01b03908116845260018201541693830193909352600283018054929392918401916121d9906169d0565b80601f0160208091040260200160405190810160405280929190818152602001828054612205906169d0565b80156122525780601f1061222757610100808354040283529160200191612252565b820191906000526020600020905b81548152906001019060200180831161223557829003601f168201915b5050505050815260200160038201805461226b906169d0565b80601f0160208091040260200160405190810160405280929190818152602001828054612297906169d0565b80156122e45780601f106122b9576101008083540402835291602001916122e4565b820191906000526020600020905b8154815290600101906020018083116122c757829003601f168201915b505050505081526020016004820180546122fd906169d0565b80601f0160208091040260200160405190810160405280929190818152602001828054612329906169d0565b80156123765780601f1061234b57610100808354040283529160200191612376565b820191906000526020600020905b81548152906001019060200180831161235957829003601f168201915b5050505050815260200160058201805461238f906169d0565b80601f01602080910402602001604051908101604052809291908181526020018280546123bb906169d0565b80156124085780601f106123dd57610100808354040283529160200191612408565b820191906000526020600020905b8154815290600101906020018083116123eb57829003601f168201915b5050509183525050600682015460209091019060ff16600181111561242f5761242f61632f565b60018111156124405761244061632f565b815260200160078201548152505081526020019060010190612182565b505050509050846001600160a01b0316336001600160a01b03160361259757805184106124be5760408051600080825260208201909252906124b5565b6124a2615cb3565b81526020019060019003908161249a5790505b50915050611a27565b60006124ca8486616e18565b905081518111156124d9575080515b60006124e586836169bd565b6001600160401b038111156124fc576124fc615ecf565b60405190808252806020026020018201604052801561253557816020015b612522615cb3565b81526020019060019003908161251a5790505b509050855b8281101561258c5783818151811061255457612554616991565b602002602001015182888361256991906169bd565b8151811061257957612579616991565b602090810291909101015260010161253a565b509250611a27915050565b6000805b82518110156125f05760008382815181106125b8576125b8616991565b602002602001015160c0015160018111156125d5576125d561632f565b036125e857816125e481616dff565b9250505b60010161259b565b50808510612633576040805160008082526020820190925290612629565b612616615cb3565b81526020019060019003908161260e5790505b5092505050611a27565b838161263f8288616e18565b11156126525761264f86836169bd565b90505b6000816001600160401b0381111561266c5761266c615ecf565b6040519080825280602002602001820160405280156126a557816020015b612692615cb3565b81526020019060019003908161268a5790505b50905060008060005b8651811080156126bd57508482105b156127655760008782815181106126d6576126d6616991565b602002602001015160c0015160018111156126f3576126f361632f565b03612753578983106127455786818151811061271157612711616991565b602002602001015184838151811061272b5761272b616991565b6020026020010181905250818061274190616dff565b9250505b8261274f81616dff565b9350505b8061275d81616dff565b9150506126ae565b50919998505050505050505050565b336000908152600260209081526040808320805482518185028101850190935280835260609493849084015b82821015612a7b57600084815260209081902060408051610100810182526008860290920180546001600160a01b03908116845260018201541693830193909352600283018054929392918401916127f7906169d0565b80601f0160208091040260200160405190810160405280929190818152602001828054612823906169d0565b80156128705780601f1061284557610100808354040283529160200191612870565b820191906000526020600020905b81548152906001019060200180831161285357829003601f168201915b50505050508152602001600382018054612889906169d0565b80601f01602080910402602001604051908101604052809291908181526020018280546128b5906169d0565b80156129025780601f106128d757610100808354040283529160200191612902565b820191906000526020600020905b8154815290600101906020018083116128e557829003601f168201915b5050505050815260200160048201805461291b906169d0565b80601f0160208091040260200160405190810160405280929190818152602001828054612947906169d0565b80156129945780601f1061296957610100808354040283529160200191612994565b820191906000526020600020905b81548152906001019060200180831161297757829003601f168201915b505050505081526020016005820180546129ad906169d0565b80601f01602080910402602001604051908101604052809291908181526020018280546129d9906169d0565b8015612a265780601f106129fb57610100808354040283529160200191612a26565b820191906000526020600020905b815481529060010190602001808311612a0957829003601f168201915b5050509183525050600682015460209091019060ff166001811115612a4d57612a4d61632f565b6001811115612a5e57612a5e61632f565b8152602001600782015481525050815260200190600101906127a0565b505050509050600081516001600160401b03811115612a9c57612a9c615ecf565b604051908082528060200260200182016040528015612acf57816020015b6060815260200190600190039081612aba5790505b50905060005b8251811015612b2157828181518110612af057612af0616991565b602002602001015160a00151828281518110612b0e57612b0e616991565b6020908102919091010152600101612ad5565b5092915050565b6060600c805480602002602001604051908101604052809291908181526020016000905b8282101561137d578382906000526020600020018054612b6b906169d0565b80601f0160208091040260200160405190810160405280929190818152602001828054612b97906169d0565b8015612be45780601f10612bb957610100808354040283529160200191612be4565b820191906000526020600020905b815481529060010190602001808311612bc757829003601f168201915b505050505081526020019060010190612b4c565b6000855111612c195760405162461bcd60e51b81526004016105d99061693e565b60048260ff16111580612c2f57508160ff1660ff145b612c945760405162461bcd60e51b815260206004820152603060248201527f496e76616c696420726f6c653a206d75737420626520302d34206f722032353560448201526f20286b656570206578697374696e672960801b60648201526084016105d9565b336000908152600560205260408082209051612cb1908890616975565b9081526020016040518091039020905060005b8154811015612e9e57856001600160a01b0316828281548110612ce957612ce9616991565b60009182526020909120600490910201546001600160a01b031603612e965760408051808201909152600581526304b4545560dc1b6020918201528551908601207fb0837273b2da8502395a7160f0bf01f6f8b7a45d6441089eea6b5d9f33b8399114612d825784828281548110612d6357612d63616991565b90600052602060002090600402016001019081612d809190616b8d565b505b8360ff1660ff14612dca5783828281548110612da057612da0616991565b906000526020600020906004020160020160006101000a81548160ff021916908360ff1602179055505b60408051808201909152600581526304b4545560dc1b6020918201528351908401207fb0837273b2da8502395a7160f0bf01f6f8b7a45d6441089eea6b5d9f33b8399114612e445782828281548110612e2557612e25616991565b90600052602060002090600402016003019081612e429190616b8d565b505b856001600160a01b0316336001600160a01b03167fb66dabb959d5f3bdb53a39aa58d0975b39199c9b188ad8bb09a1b37bb7bf59798942604051612e89929190616e2b565b60405180910390a3612e9e565b600101612cc4565b50505050505050565b6001600160a01b0381166000908152600360209081526040808320805482518185028101850190935280835260609492939192909184015b82821015611b12578382906000526020600020018054612efe906169d0565b80601f0160208091040260200160405190810160405280929190818152602001828054612f2a906169d0565b8015612f775780601f10612f4c57610100808354040283529160200191612f77565b820191906000526020600020905b815481529060010190602001808311612f5a57829003601f168201915b505050505081526020019060010190612edf565b336001600160a01b037f000000000000000000000000000000000000000000000000000000000000000016146130125760405162461bcd60e51b815260206004820152602660248201527f4f6e6c792073706f6e736f722063616e2072656d6f76652061646d696e6973746044820152657261746f727360d01b60648201526084016105d9565b6001600160a01b03166000908152600e60205260409020805460ff19169055565b6001600160a01b0385166130895760405162461bcd60e51b815260206004820181905260248201527f526563697069656e742063616e6e6f74206265207a65726f206164647265737360448201526064016105d9565b336001600160a01b038616036130e15760405162461bcd60e51b815260206004820152601760248201527f43616e6e6f74206d65737361676520796f757273656c6600000000000000000060448201526064016105d9565b600081511161312e5760405162461bcd60e51b81526020600482015260196024820152784950465320686173682063616e6e6f7420626520656d70747960381b60448201526064016105d9565b600061313a33876141a1565b6000818152600160205260408120549192500361319557336000908152600460209081526040808320805460018181018355918552838520018590556001600160a01b038a1684529083208054918201815583529120018190555b60016000828152602001908152602001600020604051806101000160405280336001600160a01b03168152602001886001600160a01b031681526020018681526020018781526020018581526020018481526020016001808111156131fc576131fc61632f565b815242602091820152825460018082018555600094855293829020835160089092020180546001600160a01b03199081166001600160a01b0393841617825592840151948101805490931694909116939093179055604081015190919060028201906132689082616b8d565b506060820151600382019061327d9082616b8d565b50608082015160048201906132929082616b8d565b5060a082015160058201906132a79082616b8d565b5060c082015160068201805460ff1916600183818111156132ca576132ca61632f565b021790555060e0919091015160079091015584511561330e573360009081526003602090815260408220805460018101825590835291200161330c8682616b8d565b505b856001600160a01b0316336001600160a01b03167fb6e5bea89e5044d66ff49940ba0401db7bec08daacadb6d06705264874a40fea848642604051610a2d93929190616da4565b336001600160a01b037f000000000000000000000000000000000000000000000000000000000000000016148061339b5750336000908152600e602052604090205460ff165b6133fb5760405162461bcd60e51b815260206004820152603b6024820152600080516020616ead83398151915260448201527f616e2064656c657465207075626c69632061747472696275746573000000000060648201526084016105d9565b600a8160405161340b9190616975565b908152602001604051809103902060006134259190615c76565b60005b600c54811015611cc8578180519060200120600c828154811061344d5761344d616991565b906000526020600020016040516134649190616c87565b6040518091039020036134d657600c8054613481906001906169bd565b8154811061349157613491616991565b90600052602060002001600c82815481106134ae576134ae616991565b9060005260206000200190816134c49190616a56565b50600c805480611c9e57611c9e616b35565b600101613428565b336001600160a01b037f00000000000000000000000000000000000000000000000000000000000000001614806135245750336000908152600e602052604090205460ff165b6135845760405162461bcd60e51b81526020600482015260386024820152600080516020616ead83398151915260448201527f616e20736574207075626c69632061747472696275746573000000000000000060648201526084016105d9565b60008251116135cb5760405162461bcd60e51b81526020600482015260136024820152724b65792063616e6e6f7420626520656d70747960681b60448201526064016105d9565b600a826040516135db9190616975565b908152602001604051809103902080546135f4906169d0565b905060000361363b57600c80546001810182556000919091527fdf6966c971051c3d54ec59162606531493a51404a002842f56009d7e5cf4a8c7016136398382616b8d565b505b80600a8360405161364c9190616975565b908152602001604051809103902090816136669190616b8d565b50816040516136759190616975565b6040805191829003822060018352426020840152917f590120a97fea9eae0ab7f73633c407e0d9f528198b43f5aded24fc164146674491015b60405180910390a25050565b6060600a826040516136cc9190616975565b908152602001604051809103902080546136e5906169d0565b80601f0160208091040260200160405190810160405280929190818152602001828054613711906169d0565b801561375e5780601f106137335761010080835404028352916020019161375e565b820191906000526020600020905b81548152906001019060200180831161374157829003601f168201915b50505050509050919050565b6001600160a01b0383166000908152600560205260408082209051829190613793908690616975565b9081526020016040518091039020805480602002602001604051908101604052809291908181526020016000905b8282101561393e57600084815260209081902060408051608081019091526004850290910180546001600160a01b03168252600181018054929391929184019161380a906169d0565b80601f0160208091040260200160405190810160405280929190818152602001828054613836906169d0565b80156138835780601f1061385857610100808354040283529160200191613883565b820191906000526020600020905b81548152906001019060200180831161386657829003601f168201915b5050509183525050600282015460ff1660208201526003820180546040909201916138ad906169d0565b80601f01602080910402602001604051908101604052809291908181526020018280546138d9906169d0565b80156139265780601f106138fb57610100808354040283529160200191613926565b820191906000526020600020905b81548152906001019060200180831161390957829003601f168201915b505050505081525050815260200190600101906137c1565b50505050905060005b815181101561399957836001600160a01b031682828151811061396c5761396c616991565b6020026020010151600001516001600160a01b03160361399157600192505050611a27565b600101613947565b50600095945050505050565b6001600160a01b0384166139fb5760405162461bcd60e51b815260206004820152601f60248201527f417070726f7665722063616e6e6f74206265207a65726f20616464726573730060448201526064016105d9565b6000835111613a485760405162461bcd60e51b815260206004820152601960248201527846696c65206e616d652063616e6e6f7420626520656d70747960381b60448201526064016105d9565b6000825111613a995760405162461bcd60e51b815260206004820152601960248201527f46696c6520686173682063616e6e6f7420626520656d7074790000000000000060448201526064016105d9565b6001600160a01b0384166000908152600860205260408120815b8154811015613b0357336001600160a01b0316828281548110613ad857613ad8616991565b6000918252602090912001546001600160a01b031603613afb5760019250613b03565b600101613ab3565b5081613b42576001600160a01b03861660009081526008602090815260408220805460018101825590835291200180546001600160a01b031916331790555b336000908152600960205260408120815b8154811015613ba357886001600160a01b0316828281548110613b7857613b78616991565b6000918252602090912001546001600160a01b031603613b9b5760019250613ba3565b600101613b53565b5081613be2573360009081526009602090815260408220805460018101825590835291200180546001600160a01b0319166001600160a01b038a161790555b6040805160a081018252600080825260208083018b81528385018b9052606084018390526001608085018190526001600160a01b038e16845260078352858420338552835294832080548087018255908452919092208351600590920201805460ff191691151591909117815590519192839290820190613c639082616b8d565b5060408201516002820190613c789082616b8d565b50606082015160038201556080909101516004909101805460ff191691151591909117905560405133906001600160a01b038b16907f77b5f9c2d9c3bd8746beb63af36552109a2f92f947920ba0994acb2deb3e3b8b90613cde908c908c904290616da4565b60405180910390a3505050505050505050565b336001600160a01b037f0000000000000000000000000000000000000000000000000000000000000000161480613d375750336000908152600e602052604090205460ff165b613d975760405162461bcd60e51b81526020600482015260396024820152600080516020616ead83398151915260448201527f616e20736574207072697661746520617474726962757465730000000000000060648201526084016105d9565b6000825111613dde5760405162461bcd60e51b81526020600482015260136024820152724b65792063616e6e6f7420626520656d70747960681b60448201526064016105d9565b600b82604051613dee9190616975565b90815260200160405180910390208054613e07906169d0565b9050600003613e4e57600d80546001810182556000919091527fd7b6990105719101dabeb77144f2a3385c8033acd3af97e9423a695e81ad1eb501613e4c8382616b8d565b505b80600b83604051613e5f9190616975565b90815260200160405180910390209081613e799190616b8d565b5081604051613e889190616975565b6040805191829003822060008352426020840152917f590120a97fea9eae0ab7f73633c407e0d9f528198b43f5aded24fc164146674491016136ae565b6001600160a01b03821660009081526005602052604090819020905160609190613ef0908490616975565b9081526020016040518091039020805480602002602001604051908101604052809291908181526020016000905b82821015610ef157600084815260209081902060408051608081019091526004850290910180546001600160a01b031682526001810180549293919291840191613f67906169d0565b80601f0160208091040260200160405190810160405280929190818152602001828054613f93906169d0565b8015613fe05780601f10613fb557610100808354040283529160200191613fe0565b820191906000526020600020905b815481529060010190602001808311613fc357829003601f168201915b5050509183525050600282015460ff16602082015260038201805460409092019161400a906169d0565b80601f0160208091040260200160405190810160405280929190818152602001828054614036906169d0565b80156140835780601f1061405857610100808354040283529160200191614083565b820191906000526020600020905b81548152906001019060200180831161406657829003601f168201915b50505050508152505081526020019060010190613f1e565b8051602081830181018051600a82529282019190930120915280546140bf906169d0565b80601f01602080910402602001604051908101604052809291908181526020018280546140eb906169d0565b80156141385780601f1061410d57610100808354040283529160200191614138565b820191906000526020600020905b81548152906001019060200180831161411b57829003601f168201915b505050505081565b3360009081526004602090815260409182902080548351818402810184019094528084526060939283018282801561419757602002820191906000526020600020905b815481526020019060010190808311614183575b5050505050905090565b6000806000836001600160a01b0316856001600160a01b0316106141c65783856141c9565b84845b6040516bffffffffffffffffffffffff19606084811b8216602084015283901b1660348201529193509150604801604051602081830303815290604052805190602001209250505092915050565b600080546140bf906169d0565b6001600160a01b038116600090815260096020908152604080832080548251818502810185019093528083526060949383018282801561428d57602002820191906000526020600020905b81546001600160a01b0316815260019091019060200180831161426f575b505050505090506000805b825181101561431b57600760008483815181106142b7576142b7616991565b60200260200101516001600160a01b03166001600160a01b031681526020019081526020016000206000866001600160a01b03166001600160a01b0316815260200190815260200160002080549050826143119190616e18565b9150600101614298565b506000816001600160401b0381111561433657614336615ecf565b60405190808252806020026020018201604052801561436f57816020015b61435c615d1b565b8152602001906001900390816143545790505b5090506000805b845181101561214257600085828151811061439357614393616991565b6020908102919091018101516001600160a01b038082166000908152600784526040808220928d1682529184528181208054835181870281018701909452808452939550909391929091849084015b828210156145695760008481526020908190206040805160a0810190915260058502909101805460ff16151582526001810180549293919291840191614427906169d0565b80601f0160208091040260200160405190810160405280929190818152602001828054614453906169d0565b80156144a05780601f10614475576101008083540402835291602001916144a0565b820191906000526020600020905b81548152906001019060200180831161448357829003601f168201915b505050505081526020016002820180546144b9906169d0565b80601f01602080910402602001604051908101604052809291908181526020018280546144e5906169d0565b80156145325780601f1061450757610100808354040283529160200191614532565b820191906000526020600020905b81548152906001019060200180831161451557829003601f168201915b5050509183525050600382015460208083019190915260049092015460ff16151560409091015290825260019290920191016143e2565b50505050905060005b8151811015614679576040518060c00160405280846001600160a01b031681526020018383815181106145a7576145a7616991565b602002602001015160000151151581526020018383815181106145cc576145cc616991565b60200260200101516020015181526020018383815181106145ef576145ef616991565b602002602001015160400151815260200183838151811061461257614612616991565b602002602001015160600151815260200183838151811061463557614635616991565b602002602001015160800151151581525086868151811061465857614658616991565b6020026020010181905250848061466e90616dff565b955050600101614572565b505050600101614376565b336001600160a01b037f000000000000000000000000000000000000000000000000000000000000000016146147085760405162461bcd60e51b815260206004820152602360248201527f4f6e6c792073706f6e736f722063616e206164642061646d696e6973747261746044820152626f727360e81b60648201526084016105d9565b6001600160a01b03811661475e5760405162461bcd60e51b815260206004820152601c60248201527f41646d696e2063616e6e6f74206265207a65726f20616464726573730000000060448201526064016105d9565b6001600160a01b03166000908152600e60205260409020805460ff19166001179055565b6060336001600160a01b037f00000000000000000000000000000000000000000000000000000000000000001614806147ca5750336000908152600e602052604090205460ff165b61482a5760405162461bcd60e51b815260206004820152603a6024820152600080516020616ead83398151915260448201527f616e20726561642070726976617465206174747269627574657300000000000060648201526084016105d9565b600b826040516136cc9190616975565b6001600160a01b0381166148905760405162461bcd60e51b815260206004820181905260248201527f4e6577206f776e65722063616e6e6f74206265207a65726f206164647265737360448201526064016105d9565b336001600160a01b038216036148e85760405162461bcd60e51b815260206004820152601760248201527f43616e6e6f74207472616e7366657220746f2073656c6600000000000000000060448201526064016105d9565b3360009081526002602052604090205415158061491357503360009081526004602052604090205415155b6149555760405162461bcd60e51b81526020600482015260136024820152722737903230ba30903a37903a3930b739b332b960691b60448201526064016105d9565b336000908152600260205260408120905b8154811015614dee5760026000846001600160a01b03166001600160a01b03168152602001908152602001600020604051806101000160405280856001600160a01b031681526020018484815481106149c1576149c1616991565b6000918252602091829020600160089092020101546001600160a01b0316825285549101908590859081106149f8576149f8616991565b90600052602060002090600802016002018054614a14906169d0565b80601f0160208091040260200160405190810160405280929190818152602001828054614a40906169d0565b8015614a8d5780601f10614a6257610100808354040283529160200191614a8d565b820191906000526020600020905b815481529060010190602001808311614a7057829003601f168201915b50505050508152602001848481548110614aa957614aa9616991565b90600052602060002090600802016003018054614ac5906169d0565b80601f0160208091040260200160405190810160405280929190818152602001828054614af1906169d0565b8015614b3e5780601f10614b1357610100808354040283529160200191614b3e565b820191906000526020600020905b815481529060010190602001808311614b2157829003601f168201915b50505050508152602001848481548110614b5a57614b5a616991565b90600052602060002090600802016004018054614b76906169d0565b80601f0160208091040260200160405190810160405280929190818152602001828054614ba2906169d0565b8015614bef5780601f10614bc457610100808354040283529160200191614bef565b820191906000526020600020905b815481529060010190602001808311614bd257829003601f168201915b50505050508152602001848481548110614c0b57614c0b616991565b90600052602060002090600802016005018054614c27906169d0565b80601f0160208091040260200160405190810160405280929190818152602001828054614c53906169d0565b8015614ca05780601f10614c7557610100808354040283529160200191614ca0565b820191906000526020600020905b815481529060010190602001808311614c8357829003601f168201915b50505050508152602001848481548110614cbc57614cbc616991565b600091825260209091206006600890920201015460ff166001811115614ce457614ce461632f565b8152602001848481548110614cfb57614cfb616991565b6000918252602080832060089283020160070154909352845460018082018755958352918390208451929091020180546001600160a01b03199081166001600160a01b039384161782559284015194810180549093169490911693909317905560408101519091906002820190614d729082616b8d565b5060608201516003820190614d879082616b8d565b5060808201516004820190614d9c9082616b8d565b5060a08201516005820190614db19082616b8d565b5060c082015160068201805460ff191660018381811115614dd457614dd461632f565b021790555060e09190910151600790910155600101614966565b50336000908152600360205260408120905b8154811015614e64576001600160a01b03841660009081526003602052604090208254839083908110614e3557614e35616991565b600091825260208083208454600181018655948452922090920191614e5b910182616a56565b50600101614e00565b50336000908152600460205260408120905b8154811015614f35576000828281548110614e9357614e93616991565b60009182526020808320909101546001600160a01b0389168352600490915260408220909250815b8154811015614ef85783828281548110614ed757614ed7616991565b906000526020600020015403614ef05760019250614ef8565b600101614ebb565b5081614f2a576001600160a01b0388166000908152600460209081526040822080546001810182559083529120018390555b505050600101614e76565b5033600090815260096020908152604080832080548251818502810185019093528083529192909190830182828015614f9757602002820191906000526020600020905b81546001600160a01b03168152600190910190602001808311614f79575b5050505050905060005b81518110156154fe576000828281518110614fbe57614fbe616991565b6020908102919091018101516001600160a01b0381166000908152600783526040808220338352845280822080548251818702810187019093528083529395509193909290849084015b8282101561518f5760008481526020908190206040805160a0810190915260058502909101805460ff1615158252600181018054929391929184019161504d906169d0565b80601f0160208091040260200160405190810160405280929190818152602001828054615079906169d0565b80156150c65780601f1061509b576101008083540402835291602001916150c6565b820191906000526020600020905b8154815290600101906020018083116150a957829003601f168201915b505050505081526020016002820180546150df906169d0565b80601f016020809104026020016040519081016040528092919081815260200182805461510b906169d0565b80156151585780601f1061512d57610100808354040283529160200191615158565b820191906000526020600020905b81548152906001019060200180831161513b57829003601f168201915b5050509183525050600382015460208083019190915260049092015460ff1615156040909101529082526001929092019101615008565b50505050905060005b8151811015615264576001600160a01b038084166000908152600760209081526040808320938d1683529290522082518390839081106151da576151da616991565b6020908102919091018101518254600180820185556000948552938390208251600590920201805460ff19169115159190911781559181015190928201906152229082616b8d565b50604082015160028201906152379082616b8d565b50606082015160038201556080909101516004909101805460ff1916911515919091179055600101615198565b506001600160a01b038216600090815260086020526040812090805b82548110156152cc578a6001600160a01b03168382815481106152a5576152a5616991565b6000918252602090912001546001600160a01b0316036152c457600191505b600101615280565b5060005b82548110156153cc57336001600160a01b03168382815481106152f5576152f5616991565b6000918252602090912001546001600160a01b0316036153c4578254839061531f906001906169bd565b8154811061532f5761532f616991565b9060005260206000200160009054906101000a90046001600160a01b031683828154811061535f5761535f616991565b9060005260206000200160006101000a8154816001600160a01b0302191690836001600160a01b031602179055508280548061539d5761539d616b35565b600082815260209020810160001990810180546001600160a01b03191690550190556153cc565b6001016152d0565b5080615411576001600160a01b0384811660009081526008602090815260408220805460018101825590835291200180546001600160a01b031916918c169190911790555b6001600160a01b038a166000908152600960205260408120815b815481101561547b57866001600160a01b031682828154811061545057615450616991565b6000918252602090912001546001600160a01b031603615473576001925061547b565b60010161542b565b50816154c0576001600160a01b038c811660009081526009602090815260408220805460018101825590835291200180546001600160a01b0319169188169190911790555b6001600160a01b038616600090815260076020908152604080832033845290915281206154ec91615d5e565b505060019094019350614fa192505050565b5033600090815260026020526040812061551791615d7f565b33600090815260036020526040812061552f91615da0565b33600090815260046020526040812061554791615dbe565b33600090815260096020526040812061555f91615dbe565b6040514281526001600160a01b0386169033907fc13a1166d81cd3b0b352a367aebab95f3a6f6bc695fdab8e9a9d335239c3861b9060200160405180910390a35050505050565b6001600160a01b038116600090815260086020908152604080832080548251818502810185019093528083526060949383018282801561560f57602002820191906000526020600020905b81546001600160a01b031681526001909101906020018083116155f1575b505050505090506000805b8251811015615693576001600160a01b0385166000908152600760205260408120845190919085908490811061565257615652616991565b60200260200101516001600160a01b03166001600160a01b0316815260200190815260200160002080549050826156899190616e18565b915060010161561a565b506000816001600160401b038111156156ae576156ae615ecf565b6040519080825280602002602001820160405280156156e757816020015b6156d4615d1b565b8152602001906001900390816156cc5790505b5090506000805b845181101561214257600085828151811061570b5761570b616991565b6020908102919091018101516001600160a01b03808b16600090815260078452604080822092841682529184528181208054835181870281018701909452808452939550909391929091849084015b828210156158e15760008481526020908190206040805160a0810190915260058502909101805460ff1615158252600181018054929391929184019161579f906169d0565b80601f01602080910402602001604051908101604052809291908181526020018280546157cb906169d0565b80156158185780601f106157ed57610100808354040283529160200191615818565b820191906000526020600020905b8154815290600101906020018083116157fb57829003601f168201915b50505050508152602001600282018054615831906169d0565b80601f016020809104026020016040519081016040528092919081815260200182805461585d906169d0565b80156158aa5780601f1061587f576101008083540402835291602001916158aa565b820191906000526020600020905b81548152906001019060200180831161588d57829003601f168201915b5050509183525050600382015460208083019190915260049092015460ff161515604090910152908252600192909201910161575a565b50505050905060005b81518110156159f1576040518060c00160405280846001600160a01b0316815260200183838151811061591f5761591f616991565b6020026020010151600001511515815260200183838151811061594457615944616991565b602002602001015160200151815260200183838151811061596757615967616991565b602002602001015160400151815260200183838151811061598a5761598a616991565b60200260200101516060015181526020018383815181106159ad576159ad616991565b60200260200101516080015115158152508686815181106159d0576159d0616991565b602002602001018190525084806159e690616dff565b9550506001016158ea565b5050506001016156ee565b6000855111615a1d5760405162461bcd60e51b81526004016105d99061693e565b6001600160a01b038416615a6c5760405162461bcd60e51b8152602060048201526016602482015275416464726573732063616e6e6f74206265207a65726f60501b60448201526064016105d9565b60048260ff16111580615a8257508160ff1660ff145b615adf5760405162461bcd60e51b815260206004820152602860248201527f496e76616c696420726f6c653a206d75737420626520302d34206f72203235356044820152672028756e7365742960c01b60648201526084016105d9565b33600090815260056020526040908190209051615afd908790616975565b90815260405190819003602001902054600003615b3f5733600090815260066020908152604082208054600181018255908352912001615b3d8682616b8d565b505b60006040518060800160405280866001600160a01b031681526020018581526020018460ff1660ff14615b725784615b75565b60005b60ff16815260209081018490523360009081526005909152604090819020905191925090615ba4908890616975565b90815260405160209181900382019020805460018082018355600092835291839020845160049092020180546001600160a01b0319166001600160a01b0390921691909117815591830151839291820190615bff9082616b8d565b50604082015160028201805460ff191660ff90921691909117905560608201516003820190615c2e9082616b8d565b505050846001600160a01b0316336001600160a01b03167fb66dabb959d5f3bdb53a39aa58d0975b39199c9b188ad8bb09a1b37bb7bf59798842604051610a2d929190616e6d565b508054615c82906169d0565b6000825580601f10615c92575050565b601f016020900490600052602060002090810190615cb09190615dd8565b50565b60405180610100016040528060006001600160a01b0316815260200160006001600160a01b031681526020016060815260200160608152602001606081526020016060815260200160006001811115615d0e57615d0e61632f565b8152602001600081525090565b6040518060c0016040528060006001600160a01b031681526020016000151581526020016060815260200160608152602001600081526020016000151581525090565b5080546000825560050290600052602060002090810190615cb09190615df1565b5080546000825560080290600052602060002090810190615cb09190615e3a565b5080546000825590600052602060002090810190615cb09190615eb2565b5080546000825590600052602060002090810190615cb091905b5b80821115615ded5760008155600101615dd9565b5090565b80821115615ded57805460ff191681556000615e106001830182615c76565b615e1e600283016000615c76565b506000600382015560048101805460ff19169055600501615df1565b80821115615ded5780546001600160a01b0319908116825560018201805490911690556000615e6c6002830182615c76565b615e7a600383016000615c76565b615e88600483016000615c76565b615e96600583016000615c76565b5060068101805460ff1916905560006007820155600801615e3a565b80821115615ded576000615ec68282615c76565b50600101615eb2565b634e487b7160e01b600052604160045260246000fd5b600082601f830112615ef657600080fd5b81356001600160401b03811115615f0f57615f0f615ecf565b604051601f8201601f19908116603f011681016001600160401b0381118282101715615f3d57615f3d615ecf565b604052818152838201602001851015615f5557600080fd5b816020850160208301376000918101602001919091529392505050565b80356001600160a01b0381168114615f8957600080fd5b919050565b60008060408385031215615fa157600080fd5b82356001600160401b03811115615fb757600080fd5b615fc385828601615ee5565b925050615fd260208401615f72565b90509250929050565b600060208284031215615fed57600080fd5b611a2782615f72565b803560028110615f8957600080fd5b60008060008060008060c0878903121561601e57600080fd5b61602787615f72565b955060208701356001600160401b0381111561604257600080fd5b61604e89828a01615ee5565b95505060408701356001600160401b0381111561606a57600080fd5b61607689828a01615ee5565b94505060608701356001600160401b0381111561609257600080fd5b61609e89828a01615ee5565b93505060808701356001600160401b038111156160ba57600080fd5b6160c689828a01615ee5565b9250506160d560a08801615ff6565b90509295509295509295565b6000806000606084860312156160f657600080fd5b6160ff84615f72565b925060208401356001600160401b0381111561611a57600080fd5b61612686828701615ee5565b9250506040840135801515811461613c57600080fd5b809150509250925092565b6000806040838503121561615a57600080fd5b61616383615f72565b9150615fd260208401615f72565b60005b8381101561618c578181015183820152602001616174565b50506000910152565b600081518084526161ad816020860160208601616171565b601f01601f19169290920160200192915050565b6000602082016020835280845180835260408501915060408160051b86010192506020860160005b8281101561626357603f198786030184528151805115158652602081015160a0602088015261621b60a0880182616195565b9050604082015187820360408901526162348282616195565b606084810151908a015260809384015115159390980192909252505060209384019391909101906001016161e9565b50929695505050505050565b6000806040838503121561628257600080fd5b82356001600160401b0381111561629857600080fd5b6162a485828601615ee5565b92505060208301356001600160401b038111156162c057600080fd5b6162cc85828601615ee5565b9150509250929050565b6000602082016020835280845180835260408501915060408160051b86010192506020860160005b8281101561626357603f1987860301845261631a858351616195565b945060209384019391909101906001016162fe565b634e487b7160e01b600052602160045260246000fd5b6002811061636357634e487b7160e01b600052602160045260246000fd5b9052565b6000602082016020835280845180835260408501915060408160051b86010192506020860160005b8281101561626357868503603f19018452815180516001600160a01b0316865260208101516163c960208801826001600160a01b03169052565b50604081015161010060408801526163e5610100880182616195565b9050606082015187820360608901526163fe8282616195565b915050608082015187820360808901526164188282616195565b91505060a082015187820360a08901526164328282616195565b91505060c082015161644760c0890182616345565b5060e0918201519690910195909552602093840193919091019060010161638f565b60008060006060848603121561647e57600080fd5b61648784615f72565b925060208401356001600160401b038111156164a257600080fd5b6164ae86828701615ee5565b9250506164bd60408501615f72565b90509250925092565b60018060a01b03815116825260006020820151608060208501526164ed6080850182616195565b905060ff6040840151166040850152606083015184820360608601526165138282616195565b95945050505050565b602081526000611a2760208301846164c6565b60006020828403121561654157600080fd5b81356001600160401b0381111561655757600080fd5b61656384828501615ee5565b949350505050565b60008060006060848603121561658057600080fd5b61658984615f72565b95602085013595506040909401359392505050565b600080600080600060a086880312156165b657600080fd5b85356001600160401b038111156165cc57600080fd5b6165d888828901615ee5565b9550506165e760208701615f72565b935060408601356001600160401b0381111561660257600080fd5b61660e88828901615ee5565b935050606086013560ff8116811461662557600080fd5b915060808601356001600160401b0381111561664057600080fd5b61664c88828901615ee5565b9150509295509295909350565b600080600080600060a0868803121561667157600080fd5b61667a86615f72565b945060208601356001600160401b0381111561669557600080fd5b6166a188828901615ee5565b94505060408601356001600160401b038111156166bd57600080fd5b6166c988828901615ee5565b93505060608601356001600160401b038111156166e557600080fd5b6166f188828901615ee5565b92505060808601356001600160401b0381111561664057600080fd5b602081526000611a276020830184616195565b6000806000806080858703121561673657600080fd5b61673f85615f72565b935060208501356001600160401b0381111561675a57600080fd5b61676687828801615ee5565b93505060408501356001600160401b0381111561678257600080fd5b61678e87828801615ee5565b92505060608501356001600160401b038111156167aa57600080fd5b6167b687828801615ee5565b91505092959194509250565b600080604083850312156167d557600080fd5b6167de83615f72565b915060208301356001600160401b038111156162c057600080fd5b6000602082016020835280845180835260408501915060408160051b86010192506020860160005b8281101561626357603f1987860301845261683d8583516164c6565b94506020938401939190910190600101616821565b602080825282518282018190526000918401906040840190835b8181101561214257835183526020938401939092019160010161686c565b6000602082016020835280845180835260408501915060408160051b86010192506020860160005b8281101561626357603f19878603018452815160018060a01b038151168652602081015115156020870152604081015160c060408801526168f660c0880182616195565b90506060820151878203606089015261690f8282616195565b608084810151908a015260a09384015115159390980192909252505060209384019391909101906001016168b2565b60208082526019908201527f4c697374206e616d652063616e6e6f7420626520656d70747900000000000000604082015260600190565b60008251616987818460208701616171565b9190910192915050565b634e487b7160e01b600052603260045260246000fd5b634e487b7160e01b600052601160045260246000fd5b81810381811115610821576108216169a7565b600181811c908216806169e457607f821691505b602082108103616a0457634e487b7160e01b600052602260045260246000fd5b50919050565b601f821115616a5157806000526020600020601f840160051c81016020851015616a315750805b601f840160051c820191505b81811015610d1f5760008155600101616a3d565b505050565b818103616a61575050565b616a6b82546169d0565b6001600160401b03811115616a8257616a82615ecf565b616a9681616a9084546169d0565b84616a0a565b6000601f821160018114616acd5760008315616ab25750848201545b600184901b600019600386901b1c198216175b855550610d1f565b600085815260209020601f19841690600086815260209020845b83811015616b075782860154825560019586019590910190602001616ae7565b5085831015616b255781850154600019600388901b60f8161c191681555b5050505050600190811b01905550565b634e487b7160e01b600052603160045260246000fd5b606081526000616b5e6060830185616195565b8281036020840152600681526572656d6f766560d01b6020820152604081019150508260408301529392505050565b81516001600160401b03811115616ba657616ba6615ecf565b616bb481616a9084546169d0565b6020601f821160018114616be65760008315616ab2575081850151600184901b600019600386901b1c19821617616ac5565b600084815260208120601f198516915b82811015616c165787850151825560209485019460019092019101616bf6565b5084821015616c345786840151600019600387901b60f8161c191681555b50505050600190811b01905550565b608081526000616c566080830187616195565b8281036020840152616c688187616195565b915050616c786040830185616345565b82606083015295945050505050565b6000808354616c95816169d0565b600182168015616cac5760018114616cc157616cf1565b60ff1983168652811515820286019350616cf1565b86600052602060002060005b83811015616ce957815488820152600190910190602001616ccd565b505081860193505b509195945050505050565b60008154616d09816169d0565b808552600182168015616d235760018114616d3f57616d76565b60ff1983166020870152602082151560051b8701019350616d76565b84600052602060002060005b83811015616d6d5781546020828a010152600182019150602081019050616d4b565b87016020019450505b50505092915050565b606081526000616d926060830186616cfc565b93151560208301525060400152919050565b606081526000616db76060830186616195565b8281036020840152616dc98186616195565b915050826040830152949350505050565b608081526000616ded6080830187616195565b8281036020840152616c688187616cfc565b600060018201616e1157616e116169a7565b5060010190565b80820180821115610821576108216169a7565b606081526000616e3e6060830185616195565b8281036020840152600681526575706461746560d01b6020820152604081019150508260408301529392505050565b606081526000616e806060830185616195565b8281036020840152600381526218591960ea1b602082015260408101915050826040830152939250505056fe4f6e6c792073706f6e736f72206f722061646d696e6973747261746f72732063a2646970667358221220b7454ac8da0fc689e277f1dc659a0f28dd6ab90968afeabae88465e20afec81464736f6c634300081b0033","opcodes":"PUSH1 0xA0 PUSH1 0x40 MSTORE CALLVALUE DUP1 ISZERO PUSH2 0x10 JUMPI PUSH1 0x0 DUP1 REVERT JUMPDEST POP PUSH1 0x40 MLOAD PUSH2 0x72AC CODESIZE SUB DUP1 PUSH2 0x72AC DUP4 CODECOPY DUP2 ADD PUSH1 0x40 DUP2 SWAP1 MSTORE PUSH2 0x2F SWAP2 PUSH2 0x12C JUMP JUMPDEST PUSH1 0x0 DUP3 MLOAD GT PUSH2 0x85 JUMPI PUSH1 0x40 MLOAD PUSH3 0x461BCD PUSH1 0xE5 SHL DUP2 MSTORE PUSH1 0x20 PUSH1 0x4 DUP3 ADD MSTORE PUSH1 0x16 PUSH1 0x24 DUP3 ADD MSTORE PUSH32 0x446F6D61696E2063616E6E6F7420626520656D70747900000000000000000000 PUSH1 0x44 DUP3 ADD MSTORE PUSH1 0x64 ADD JUMPDEST PUSH1 0x40 MLOAD DUP1 SWAP2 SUB SWAP1 REVERT JUMPDEST PUSH1 0x1 PUSH1 0x1 PUSH1 0xA0 SHL SUB DUP2 AND PUSH2 0xDB JUMPI PUSH1 0x40 MLOAD PUSH3 0x461BCD PUSH1 0xE5 SHL DUP2 MSTORE PUSH1 0x20 PUSH1 0x4 DUP3 ADD MSTORE PUSH1 0x1E PUSH1 0x24 DUP3 ADD MSTORE PUSH32 0x53706F6E736F722063616E6E6F74206265207A65726F20616464726573730000 PUSH1 0x44 DUP3 ADD MSTORE PUSH1 0x64 ADD PUSH2 0x7C JUMP JUMPDEST PUSH1 0x0 PUSH2 0xE7 DUP4 DUP3 PUSH2 0x292 JUMP JUMPDEST POP PUSH1 0x1 PUSH1 0x1 PUSH1 0xA0 SHL SUB AND PUSH1 0x80 MSTORE POP PUSH2 0x350 JUMP JUMPDEST PUSH4 0x4E487B71 PUSH1 0xE0 SHL PUSH1 0x0 MSTORE PUSH1 0x41 PUSH1 0x4 MSTORE PUSH1 0x24 PUSH1 0x0 REVERT JUMPDEST DUP1 MLOAD PUSH1 0x1 PUSH1 0x1 PUSH1 0xA0 SHL SUB DUP2 AND DUP2 EQ PUSH2 0x127 JUMPI PUSH1 0x0 DUP1 REVERT JUMPDEST SWAP2 SWAP1 POP JUMP JUMPDEST PUSH1 0x0 DUP1 PUSH1 0x40 DUP4 DUP6 SUB SLT ISZERO PUSH2 0x13F JUMPI PUSH1 0x0 DUP1 REVERT JUMPDEST DUP3 MLOAD PUSH1 0x1 PUSH1 0x1 PUSH1 0x40 SHL SUB DUP2 GT ISZERO PUSH2 0x155 JUMPI PUSH1 0x0 DUP1 REVERT JUMPDEST DUP4 ADD PUSH1 0x1F DUP2 ADD DUP6 SGT PUSH2 0x166 JUMPI PUSH1 0x0 DUP1 REVERT JUMPDEST DUP1 MLOAD PUSH1 0x1 PUSH1 0x1 PUSH1 0x40 SHL SUB DUP2 GT ISZERO PUSH2 0x17F JUMPI PUSH2 0x17F PUSH2 0xFA JUMP JUMPDEST PUSH1 0x40 MLOAD PUSH1 0x1F DUP3 ADD PUSH1 0x1F NOT SWAP1 DUP2 AND PUSH1 0x3F ADD AND DUP2 ADD PUSH1 0x1 PUSH1 0x1 PUSH1 0x40 SHL SUB DUP2 GT DUP3 DUP3 LT OR ISZERO PUSH2 0x1AD JUMPI PUSH2 0x1AD PUSH2 0xFA JUMP JUMPDEST PUSH1 0x40 MSTORE DUP2 DUP2 MSTORE DUP3 DUP3 ADD PUSH1 0x20 ADD DUP8 LT ISZERO PUSH2 0x1C5 JUMPI PUSH1 0x0 DUP1 REVERT JUMPDEST PUSH1 0x0 JUMPDEST DUP3 DUP2 LT ISZERO PUSH2 0x1E4 JUMPI PUSH1 0x20 DUP2 DUP6 ADD DUP2 ADD MLOAD DUP4 DUP4 ADD DUP3 ADD MSTORE ADD PUSH2 0x1C8 JUMP JUMPDEST POP PUSH1 0x0 PUSH1 0x20 DUP4 DUP4 ADD ADD MSTORE DUP1 SWAP5 POP POP POP POP PUSH2 0x200 PUSH1 0x20 DUP5 ADD PUSH2 0x110 JUMP JUMPDEST SWAP1 POP SWAP3 POP SWAP3 SWAP1 POP JUMP JUMPDEST PUSH1 0x1 DUP2 DUP2 SHR SWAP1 DUP3 AND DUP1 PUSH2 0x21D JUMPI PUSH1 0x7F DUP3 AND SWAP2 POP JUMPDEST PUSH1 0x20 DUP3 LT DUP2 SUB PUSH2 0x23D JUMPI PUSH4 0x4E487B71 PUSH1 0xE0 SHL PUSH1 0x0 MSTORE PUSH1 0x22 PUSH1 0x4 MSTORE PUSH1 0x24 PUSH1 0x0 REVERT JUMPDEST POP SWAP2 SWAP1 POP JUMP JUMPDEST PUSH1 0x1F DUP3 GT ISZERO PUSH2 0x28D JUMPI DUP1 PUSH1 0x0 MSTORE PUSH1 0x20 PUSH1 0x0 KECCAK256 PUSH1 0x1F DUP5 ADD PUSH1 0x5 SHR DUP2 ADD PUSH1 0x20 DUP6 LT ISZERO PUSH2 0x26A JUMPI POP DUP1 JUMPDEST PUSH1 0x1F DUP5 ADD PUSH1 0x5 SHR DUP3 ADD SWAP2 POP JUMPDEST DUP2 DUP2 LT ISZERO PUSH2 0x28A JUMPI PUSH1 0x0 DUP2 SSTORE PUSH1 0x1 ADD PUSH2 0x276 JUMP JUMPDEST POP POP JUMPDEST POP POP POP JUMP JUMPDEST DUP2 MLOAD PUSH1 0x1 PUSH1 0x1 PUSH1 0x40 SHL SUB DUP2 GT ISZERO PUSH2 0x2AB JUMPI PUSH2 0x2AB PUSH2 0xFA JUMP JUMPDEST PUSH2 0x2BF DUP2 PUSH2 0x2B9 DUP5 SLOAD PUSH2 0x209 JUMP JUMPDEST DUP5 PUSH2 0x243 JUMP JUMPDEST PUSH1 0x20 PUSH1 0x1F DUP3 GT PUSH1 0x1 DUP2 EQ PUSH2 0x2F3 JUMPI PUSH1 0x0 DUP4 ISZERO PUSH2 0x2DB JUMPI POP DUP5 DUP3 ADD MLOAD JUMPDEST PUSH1 0x0 NOT PUSH1 0x3 DUP6 SWAP1 SHL SHR NOT AND PUSH1 0x1 DUP5 SWAP1 SHL OR DUP5 SSTORE PUSH2 0x28A JUMP JUMPDEST PUSH1 0x0 DUP5 DUP2 MSTORE PUSH1 0x20 DUP2 KECCAK256 PUSH1 0x1F NOT DUP6 AND SWAP2 JUMPDEST DUP3 DUP2 LT ISZERO PUSH2 0x323 JUMPI DUP8 DUP6 ADD MLOAD DUP3 SSTORE PUSH1 0x20 SWAP5 DUP6 ADD SWAP5 PUSH1 0x1 SWAP1 SWAP3 ADD SWAP2 ADD PUSH2 0x303 JUMP JUMPDEST POP DUP5 DUP3 LT ISZERO PUSH2 0x341 JUMPI DUP7 DUP5 ADD MLOAD PUSH1 0x0 NOT PUSH1 0x3 DUP8 SWAP1 SHL PUSH1 0xF8 AND SHR NOT AND DUP2 SSTORE JUMPDEST POP POP POP POP PUSH1 0x1 SWAP1 DUP2 SHL ADD SWAP1 SSTORE POP JUMP JUMPDEST PUSH1 0x80 MLOAD PUSH2 0x6F02 PUSH2 0x3AA PUSH1 0x0 CODECOPY PUSH1 0x0 DUP2 DUP2 PUSH2 0x3F9 ADD MSTORE DUP2 DUP2 PUSH2 0x7CB ADD MSTORE DUP2 DUP2 PUSH2 0x1214 ADD MSTORE DUP2 DUP2 PUSH2 0x1B28 ADD MSTORE DUP2 DUP2 PUSH2 0x2F96 ADD MSTORE DUP2 DUP2 PUSH2 0x3360 ADD MSTORE DUP2 DUP2 PUSH2 0x34E9 ADD MSTORE DUP2 DUP2 PUSH2 0x3CFC ADD MSTORE DUP2 DUP2 PUSH2 0x468F ADD MSTORE PUSH2 0x478F ADD MSTORE PUSH2 0x6F02 PUSH1 0x0 RETURN INVALID PUSH1 0x80 PUSH1 0x40 MSTORE CALLVALUE DUP1 ISZERO PUSH2 0x10 JUMPI PUSH1 0x0 DUP1 REVERT JUMPDEST POP PUSH1 0x4 CALLDATASIZE LT PUSH2 0x23D JUMPI PUSH1 0x0 CALLDATALOAD PUSH1 0xE0 SHR DUP1 PUSH4 0x7657E293 GT PUSH2 0x13B JUMPI DUP1 PUSH4 0xBE758306 GT PUSH2 0xB8 JUMPI DUP1 PUSH4 0xCA239D4B GT PUSH2 0x7C JUMPI DUP1 PUSH4 0xCA239D4B EQ PUSH2 0x548 JUMPI DUP1 PUSH4 0xF2FDE38B EQ PUSH2 0x55B JUMPI DUP1 PUSH4 0xF6EE44CB EQ PUSH2 0x56E JUMPI DUP1 PUSH4 0xFD098D2F EQ PUSH2 0x581 JUMPI DUP1 PUSH4 0xFFA1AD74 EQ PUSH2 0x594 JUMPI PUSH1 0x0 DUP1 REVERT JUMPDEST DUP1 PUSH4 0xBE758306 EQ PUSH2 0x4E5 JUMPI DUP1 PUSH4 0xC25CFE8A EQ PUSH2 0x4FA JUMPI DUP1 PUSH4 0xC2FB26A6 EQ PUSH2 0x50D JUMPI DUP1 PUSH4 0xC565B772 EQ PUSH2 0x515 JUMPI DUP1 PUSH4 0xC9991176 EQ PUSH2 0x535 JUMPI PUSH1 0x0 DUP1 REVERT JUMPDEST DUP1 PUSH4 0x956F0F8F GT PUSH2 0xFF JUMPI DUP1 PUSH4 0x956F0F8F EQ PUSH2 0x479 JUMPI DUP1 PUSH4 0x9D2C2C77 EQ PUSH2 0x48C JUMPI DUP1 PUSH4 0xAA2285A5 EQ PUSH2 0x49F JUMPI DUP1 PUSH4 0xB33A0AF1 EQ PUSH2 0x4B2 JUMPI DUP1 PUSH4 0xBAE067B3 EQ PUSH2 0x4D2 JUMPI PUSH1 0x0 DUP1 REVERT JUMPDEST DUP1 PUSH4 0x7657E293 EQ PUSH2 0x3E1 JUMPI DUP1 PUSH4 0x77C93662 EQ PUSH2 0x3F4 JUMPI DUP1 PUSH4 0x7F344C16 EQ PUSH2 0x433 JUMPI DUP1 PUSH4 0x898C2D7B EQ PUSH2 0x446 JUMPI DUP1 PUSH4 0x8F033C85 EQ PUSH2 0x459 JUMPI PUSH1 0x0 DUP1 REVERT JUMPDEST DUP1 PUSH4 0x4194F5AA GT PUSH2 0x1C9 JUMPI DUP1 PUSH4 0x57DE26A4 GT PUSH2 0x18D JUMPI DUP1 PUSH4 0x57DE26A4 EQ PUSH2 0x398 JUMPI DUP1 PUSH4 0x57FCA407 EQ PUSH2 0x3A0 JUMPI DUP1 PUSH4 0x5EAF27F1 EQ PUSH2 0x3A8 JUMPI DUP1 PUSH4 0x5FCBB7D6 EQ PUSH2 0x3BB JUMPI DUP1 PUSH4 0x68FA8134 EQ PUSH2 0x3CE JUMPI PUSH1 0x0 DUP1 REVERT JUMPDEST DUP1 PUSH4 0x4194F5AA EQ PUSH2 0x32C JUMPI DUP1 PUSH4 0x43B63FD5 EQ PUSH2 0x34C JUMPI DUP1 PUSH4 0x48205521 EQ PUSH2 0x35F JUMPI DUP1 PUSH4 0x4CAF9D0B EQ PUSH2 0x372 JUMPI DUP1 PUSH4 0x53DACEC6 EQ PUSH2 0x385 JUMPI PUSH1 0x0 DUP1 REVERT JUMPDEST DUP1 PUSH4 0x1B204716 GT PUSH2 0x210 JUMPI DUP1 PUSH4 0x1B204716 EQ PUSH2 0x2A5 JUMPI DUP1 PUSH4 0x1E7C0197 EQ PUSH2 0x2C5 JUMPI DUP1 PUSH4 0x294C9921 EQ PUSH2 0x2D8 JUMPI DUP1 PUSH4 0x2A6D9034 EQ PUSH2 0x2ED JUMPI DUP1 PUSH4 0x31933916 EQ PUSH2 0x30D JUMPI PUSH1 0x0 DUP1 REVERT JUMPDEST DUP1 PUSH4 0x308761B EQ PUSH2 0x242 JUMPI DUP1 PUSH4 0xA2EB301 EQ PUSH2 0x257 JUMPI DUP1 PUSH4 0xE26B22D EQ PUSH2 0x27F JUMPI DUP1 PUSH4 0x10AE73DD EQ PUSH2 0x292 JUMPI JUMPDEST PUSH1 0x0 DUP1 REVERT JUMPDEST PUSH2 0x255 PUSH2 0x250 CALLDATASIZE PUSH1 0x4 PUSH2 0x5F8E JUMP JUMPDEST PUSH2 0x5B8 JUMP JUMPDEST STOP JUMPDEST PUSH2 0x26A PUSH2 0x265 CALLDATASIZE PUSH1 0x4 PUSH2 0x5FDB JUMP JUMPDEST PUSH2 0x7C7 JUMP JUMPDEST PUSH1 0x40 MLOAD SWAP1 ISZERO ISZERO DUP2 MSTORE PUSH1 0x20 ADD JUMPDEST PUSH1 0x40 MLOAD DUP1 SWAP2 SUB SWAP1 RETURN JUMPDEST PUSH2 0x255 PUSH2 0x28D CALLDATASIZE PUSH1 0x4 PUSH2 0x6005 JUMP JUMPDEST PUSH2 0x827 JUMP JUMPDEST PUSH2 0x255 PUSH2 0x2A0 CALLDATASIZE PUSH1 0x4 PUSH2 0x60E1 JUMP JUMPDEST PUSH2 0xA3D JUMP JUMPDEST PUSH2 0x2B8 PUSH2 0x2B3 CALLDATASIZE PUSH1 0x4 PUSH2 0x6147 JUMP JUMPDEST PUSH2 0xD26 JUMP JUMPDEST PUSH1 0x40 MLOAD PUSH2 0x276 SWAP2 SWAP1 PUSH2 0x61C1 JUMP JUMPDEST PUSH2 0x255 PUSH2 0x2D3 CALLDATASIZE PUSH1 0x4 PUSH2 0x626F JUMP JUMPDEST PUSH2 0xEFD JUMP JUMPDEST PUSH2 0x2E0 PUSH2 0x1207 JUMP JUMPDEST PUSH1 0x40 MLOAD PUSH2 0x276 SWAP2 SWAP1 PUSH2 0x62D6 JUMP JUMPDEST PUSH2 0x300 PUSH2 0x2FB CALLDATASIZE PUSH1 0x4 PUSH2 0x5FDB JUMP JUMPDEST PUSH2 0x1386 JUMP JUMPDEST PUSH1 0x40 MLOAD PUSH2 0x276 SWAP2 SWAP1 PUSH2 0x6367 JUMP JUMPDEST CALLER PUSH1 0x0 SWAP1 DUP2 MSTORE PUSH1 0x2 PUSH1 0x20 MSTORE PUSH1 0x40 SWAP1 KECCAK256 SLOAD JUMPDEST PUSH1 0x40 MLOAD SWAP1 DUP2 MSTORE PUSH1 0x20 ADD PUSH2 0x276 JUMP JUMPDEST PUSH2 0x33F PUSH2 0x33A CALLDATASIZE PUSH1 0x4 PUSH2 0x6469 JUMP JUMPDEST PUSH2 0x1777 JUMP JUMPDEST PUSH1 0x40 MLOAD PUSH2 0x276 SWAP2 SWAP1 PUSH2 0x651C JUMP JUMPDEST PUSH2 0x2E0 PUSH2 0x35A CALLDATASIZE PUSH1 0x4 PUSH2 0x5FDB JUMP JUMPDEST PUSH2 0x1A2E JUMP JUMPDEST PUSH2 0x255 PUSH2 0x36D CALLDATASIZE PUSH1 0x4 PUSH2 0x652F JUMP JUMPDEST PUSH2 0x1B1D JUMP JUMPDEST PUSH2 0x300 PUSH2 0x380 CALLDATASIZE PUSH1 0x4 PUSH2 0x5FDB JUMP JUMPDEST PUSH2 0x1CCC JUMP JUMPDEST PUSH2 0x300 PUSH2 0x393 CALLDATASIZE PUSH1 0x4 PUSH2 0x656B JUMP JUMPDEST PUSH2 0x214D JUMP JUMPDEST PUSH2 0x2E0 PUSH2 0x2774 JUMP JUMPDEST PUSH2 0x2E0 PUSH2 0x2B28 JUMP JUMPDEST PUSH2 0x255 PUSH2 0x3B6 CALLDATASIZE PUSH1 0x4 PUSH2 0x659E JUMP JUMPDEST PUSH2 0x2BF8 JUMP JUMPDEST PUSH2 0x2E0 PUSH2 0x3C9 CALLDATASIZE PUSH1 0x4 PUSH2 0x5FDB JUMP JUMPDEST PUSH2 0x2EA7 JUMP JUMPDEST PUSH2 0x255 PUSH2 0x3DC CALLDATASIZE PUSH1 0x4 PUSH2 0x5FDB JUMP JUMPDEST PUSH2 0x2F8B JUMP JUMPDEST PUSH2 0x255 PUSH2 0x3EF CALLDATASIZE PUSH1 0x4 PUSH2 0x6659 JUMP JUMPDEST PUSH2 0x3033 JUMP JUMPDEST PUSH2 0x41B PUSH32 0x0 DUP2 JUMP JUMPDEST PUSH1 0x40 MLOAD PUSH1 0x1 PUSH1 0x1 PUSH1 0xA0 SHL SUB SWAP1 SWAP2 AND DUP2 MSTORE PUSH1 0x20 ADD PUSH2 0x276 JUMP JUMPDEST PUSH2 0x255 PUSH2 0x441 CALLDATASIZE PUSH1 0x4 PUSH2 0x652F JUMP JUMPDEST PUSH2 0x3355 JUMP JUMPDEST PUSH2 0x255 PUSH2 0x454 CALLDATASIZE PUSH1 0x4 PUSH2 0x626F JUMP JUMPDEST PUSH2 0x34DE JUMP JUMPDEST PUSH2 0x46C PUSH2 0x467 CALLDATASIZE PUSH1 0x4 PUSH2 0x652F JUMP JUMPDEST PUSH2 0x36BA JUMP JUMPDEST PUSH1 0x40 MLOAD PUSH2 0x276 SWAP2 SWAP1 PUSH2 0x670D JUMP JUMPDEST PUSH2 0x26A PUSH2 0x487 CALLDATASIZE PUSH1 0x4 PUSH2 0x6469 JUMP JUMPDEST PUSH2 0x376A JUMP JUMPDEST PUSH2 0x255 PUSH2 0x49A CALLDATASIZE PUSH1 0x4 PUSH2 0x6720 JUMP JUMPDEST PUSH2 0x39A5 JUMP JUMPDEST PUSH2 0x255 PUSH2 0x4AD CALLDATASIZE PUSH1 0x4 PUSH2 0x626F JUMP JUMPDEST PUSH2 0x3CF1 JUMP JUMPDEST PUSH2 0x4C5 PUSH2 0x4C0 CALLDATASIZE PUSH1 0x4 PUSH2 0x67C2 JUMP JUMPDEST PUSH2 0x3EC5 JUMP JUMPDEST PUSH1 0x40 MLOAD PUSH2 0x276 SWAP2 SWAP1 PUSH2 0x67F9 JUMP JUMPDEST PUSH2 0x46C PUSH2 0x4E0 CALLDATASIZE PUSH1 0x4 PUSH2 0x652F JUMP JUMPDEST PUSH2 0x409B JUMP JUMPDEST PUSH2 0x4ED PUSH2 0x4140 JUMP JUMPDEST PUSH1 0x40 MLOAD PUSH2 0x276 SWAP2 SWAP1 PUSH2 0x6852 JUMP JUMPDEST PUSH2 0x31E PUSH2 0x508 CALLDATASIZE PUSH1 0x4 PUSH2 0x6147 JUMP JUMPDEST PUSH2 0x41A1 JUMP JUMPDEST PUSH2 0x46C PUSH2 0x4217 JUMP JUMPDEST PUSH2 0x528 PUSH2 0x523 CALLDATASIZE PUSH1 0x4 PUSH2 0x5FDB JUMP JUMPDEST PUSH2 0x4224 JUMP JUMPDEST PUSH1 0x40 MLOAD PUSH2 0x276 SWAP2 SWAP1 PUSH2 0x688A JUMP JUMPDEST PUSH2 0x255 PUSH2 0x543 CALLDATASIZE PUSH1 0x4 PUSH2 0x5FDB JUMP JUMPDEST PUSH2 0x4684 JUMP JUMPDEST PUSH2 0x46C PUSH2 0x556 CALLDATASIZE PUSH1 0x4 PUSH2 0x652F JUMP JUMPDEST PUSH2 0x4782 JUMP JUMPDEST PUSH2 0x255 PUSH2 0x569 CALLDATASIZE PUSH1 0x4 PUSH2 0x5FDB JUMP JUMPDEST PUSH2 0x483A JUMP JUMPDEST PUSH2 0x528 PUSH2 0x57C CALLDATASIZE PUSH1 0x4 PUSH2 0x5FDB JUMP JUMPDEST PUSH2 0x55A6 JUMP JUMPDEST PUSH2 0x255 PUSH2 0x58F CALLDATASIZE PUSH1 0x4 PUSH2 0x659E JUMP JUMPDEST PUSH2 0x59FC JUMP JUMPDEST PUSH2 0x46C PUSH1 0x40 MLOAD DUP1 PUSH1 0x40 ADD PUSH1 0x40 MSTORE DUP1 PUSH1 0x5 DUP2 MSTORE PUSH1 0x20 ADD PUSH5 0x332E302E3 PUSH1 0xDC SHL DUP2 MSTORE POP DUP2 JUMP JUMPDEST PUSH1 0x0 DUP3 MLOAD GT PUSH2 0x5E2 JUMPI PUSH1 0x40 MLOAD PUSH3 0x461BCD PUSH1 0xE5 SHL DUP2 MSTORE PUSH1 0x4 ADD PUSH2 0x5D9 SWAP1 PUSH2 0x693E JUMP JUMPDEST PUSH1 0x40 MLOAD DUP1 SWAP2 SUB SWAP1 REVERT JUMPDEST CALLER PUSH1 0x0 SWAP1 DUP2 MSTORE PUSH1 0x5 PUSH1 0x20 MSTORE PUSH1 0x40 DUP1 DUP3 KECCAK256 SWAP1 MLOAD PUSH2 0x5FF SWAP1 DUP6 SWAP1 PUSH2 0x6975 JUMP JUMPDEST SWAP1 DUP2 MSTORE PUSH1 0x20 ADD PUSH1 0x40 MLOAD DUP1 SWAP2 SUB SWAP1 KECCAK256 SWAP1 POP PUSH1 0x0 JUMPDEST DUP2 SLOAD DUP2 LT ISZERO PUSH2 0x7C1 JUMPI DUP3 PUSH1 0x1 PUSH1 0x1 PUSH1 0xA0 SHL SUB AND DUP3 DUP3 DUP2 SLOAD DUP2 LT PUSH2 0x637 JUMPI PUSH2 0x637 PUSH2 0x6991 JUMP JUMPDEST PUSH1 0x0 SWAP2 DUP3 MSTORE PUSH1 0x20 SWAP1 SWAP2 KECCAK256 PUSH1 0x4 SWAP1 SWAP2 MUL ADD SLOAD PUSH1 0x1 PUSH1 0x1 PUSH1 0xA0 SHL SUB AND SUB PUSH2 0x7B9 JUMPI DUP2 SLOAD DUP3 SWAP1 PUSH2 0x666 SWAP1 PUSH1 0x1 SWAP1 PUSH2 0x69BD JUMP JUMPDEST DUP2 SLOAD DUP2 LT PUSH2 0x676 JUMPI PUSH2 0x676 PUSH2 0x6991 JUMP JUMPDEST SWAP1 PUSH1 0x0 MSTORE PUSH1 0x20 PUSH1 0x0 KECCAK256 SWAP1 PUSH1 0x4 MUL ADD DUP3 DUP3 DUP2 SLOAD DUP2 LT PUSH2 0x696 JUMPI PUSH2 0x696 PUSH2 0x6991 JUMP JUMPDEST PUSH1 0x0 SWAP2 DUP3 MSTORE PUSH1 0x20 SWAP1 SWAP2 KECCAK256 DUP3 SLOAD PUSH1 0x4 SWAP1 SWAP3 MUL ADD DUP1 SLOAD PUSH1 0x1 PUSH1 0x1 PUSH1 0xA0 SHL SUB NOT AND PUSH1 0x1 PUSH1 0x1 PUSH1 0xA0 SHL SUB SWAP1 SWAP3 AND SWAP2 SWAP1 SWAP2 OR DUP2 SSTORE PUSH1 0x1 DUP1 DUP3 ADD SWAP1 PUSH2 0x6D7 SWAP1 DUP5 ADD DUP3 PUSH2 0x6A56 JUMP JUMPDEST POP PUSH1 0x2 DUP3 DUP2 ADD SLOAD SWAP1 DUP3 ADD DUP1 SLOAD PUSH1 0xFF NOT AND PUSH1 0xFF SWAP1 SWAP3 AND SWAP2 SWAP1 SWAP2 OR SWAP1 SSTORE PUSH1 0x3 DUP1 DUP3 ADD SWAP1 PUSH2 0x704 SWAP1 DUP5 ADD DUP3 PUSH2 0x6A56 JUMP JUMPDEST POP SWAP1 POP POP DUP2 DUP1 SLOAD DUP1 PUSH2 0x718 JUMPI PUSH2 0x718 PUSH2 0x6B35 JUMP JUMPDEST PUSH1 0x0 DUP3 DUP2 MSTORE PUSH1 0x20 DUP2 KECCAK256 PUSH1 0x4 PUSH1 0x0 NOT SWAP1 SWAP4 ADD SWAP3 DUP4 MUL ADD DUP1 SLOAD PUSH1 0x1 PUSH1 0x1 PUSH1 0xA0 SHL SUB NOT AND DUP2 SSTORE SWAP1 PUSH2 0x749 PUSH1 0x1 DUP4 ADD DUP3 PUSH2 0x5C76 JUMP JUMPDEST PUSH1 0x2 DUP3 ADD DUP1 SLOAD PUSH1 0xFF NOT AND SWAP1 SSTORE PUSH2 0x763 PUSH1 0x3 DUP4 ADD PUSH1 0x0 PUSH2 0x5C76 JUMP JUMPDEST POP POP SWAP1 SSTORE DUP3 PUSH1 0x1 PUSH1 0x1 PUSH1 0xA0 SHL SUB AND CALLER PUSH1 0x1 PUSH1 0x1 PUSH1 0xA0 SHL SUB AND PUSH32 0xB66DABB959D5F3BDB53A39AA58D0975B39199C9B188AD8BB09A1B37BB7BF5979 DUP7 TIMESTAMP PUSH1 0x40 MLOAD PUSH2 0x7AC SWAP3 SWAP2 SWAP1 PUSH2 0x6B4B JUMP JUMPDEST PUSH1 0x40 MLOAD DUP1 SWAP2 SUB SWAP1 LOG3 PUSH2 0x7C1 JUMP JUMPDEST PUSH1 0x1 ADD PUSH2 0x612 JUMP JUMPDEST POP POP POP POP JUMP JUMPDEST PUSH1 0x0 PUSH32 0x0 PUSH1 0x1 PUSH1 0x1 PUSH1 0xA0 SHL SUB AND DUP3 PUSH1 0x1 PUSH1 0x1 PUSH1 0xA0 SHL SUB AND EQ DUP1 PUSH2 0x821 JUMPI POP PUSH1 0x1 PUSH1 0x1 PUSH1 0xA0 SHL SUB DUP3 AND PUSH1 0x0 SWAP1 DUP2 MSTORE PUSH1 0xE PUSH1 0x20 MSTORE PUSH1 0x40 SWAP1 KECCAK256 SLOAD PUSH1 0xFF AND JUMPDEST SWAP3 SWAP2 POP POP JUMP JUMPDEST PUSH1 0x0 DUP3 MLOAD GT PUSH2 0x874 JUMPI PUSH1 0x40 MLOAD PUSH3 0x461BCD PUSH1 0xE5 SHL DUP2 MSTORE PUSH1 0x20 PUSH1 0x4 DUP3 ADD MSTORE PUSH1 0x19 PUSH1 0x24 DUP3 ADD MSTORE PUSH25 0x4950465320686173682063616E6E6F7420626520656D707479 PUSH1 0x38 SHL PUSH1 0x44 DUP3 ADD MSTORE PUSH1 0x64 ADD PUSH2 0x5D9 JUMP JUMPDEST PUSH1 0x1 PUSH1 0x1 PUSH1 0xA0 SHL SUB DUP7 AND PUSH1 0x0 SWAP1 DUP2 MSTORE PUSH1 0x2 PUSH1 0x20 SWAP1 DUP2 MSTORE PUSH1 0x40 DUP1 DUP4 KECCAK256 DUP2 MLOAD PUSH2 0x100 DUP2 ADD DUP4 MSTORE CALLER DUP2 MSTORE SWAP3 DUP4 ADD SWAP4 SWAP1 SWAP4 MSTORE DUP2 ADD DUP7 SWAP1 MSTORE PUSH1 0x60 DUP2 ADD DUP8 SWAP1 MSTORE PUSH1 0x80 DUP2 ADD DUP6 SWAP1 MSTORE PUSH1 0xA0 DUP2 ADD DUP5 SWAP1 MSTORE PUSH1 0xC0 DUP2 ADD DUP4 PUSH1 0x1 DUP2 GT ISZERO PUSH2 0x8D2 JUMPI PUSH2 0x8D2 PUSH2 0x632F JUMP JUMPDEST DUP2 MSTORE TIMESTAMP PUSH1 0x20 SWAP2 DUP3 ADD MSTORE DUP3 SLOAD PUSH1 0x1 DUP1 DUP3 ADD DUP6 SSTORE PUSH1 0x0 SWAP5 DUP6 MSTORE SWAP4 DUP3 SWAP1 KECCAK256 DUP4 MLOAD PUSH1 0x8 SWAP1 SWAP3 MUL ADD DUP1 SLOAD PUSH1 0x1 PUSH1 0x1 PUSH1 0xA0 SHL SUB NOT SWAP1 DUP2 AND PUSH1 0x1 PUSH1 0x1 PUSH1 0xA0 SHL SUB SWAP4 DUP5 AND OR DUP3 SSTORE SWAP3 DUP5 ADD MLOAD SWAP5 DUP2 ADD DUP1 SLOAD SWAP1 SWAP4 AND SWAP5 SWAP1 SWAP2 AND SWAP4 SWAP1 SWAP4 OR SWAP1 SSTORE PUSH1 0x40 DUP2 ADD MLOAD SWAP1 SWAP2 SWAP1 PUSH1 0x2 DUP3 ADD SWAP1 PUSH2 0x93E SWAP1 DUP3 PUSH2 0x6B8D JUMP JUMPDEST POP PUSH1 0x60 DUP3 ADD MLOAD PUSH1 0x3 DUP3 ADD SWAP1 PUSH2 0x953 SWAP1 DUP3 PUSH2 0x6B8D JUMP JUMPDEST POP PUSH1 0x80 DUP3 ADD MLOAD PUSH1 0x4 DUP3 ADD SWAP1 PUSH2 0x968 SWAP1 DUP3 PUSH2 0x6B8D JUMP JUMPDEST POP PUSH1 0xA0 DUP3 ADD MLOAD PUSH1 0x5 DUP3 ADD SWAP1 PUSH2 0x97D SWAP1 DUP3 PUSH2 0x6B8D JUMP JUMPDEST POP PUSH1 0xC0 DUP3 ADD MLOAD PUSH1 0x6 DUP3 ADD DUP1 SLOAD PUSH1 0xFF NOT AND PUSH1 0x1 DUP4 DUP2 DUP2 GT ISZERO PUSH2 0x9A0 JUMPI PUSH2 0x9A0 PUSH2 0x632F JUMP JUMPDEST MUL OR SWAP1 SSTORE POP PUSH1 0xE0 SWAP2 SWAP1 SWAP2 ADD MLOAD PUSH1 0x7 SWAP1 SWAP2 ADD SSTORE DUP5 MLOAD ISZERO PUSH2 0x9E4 JUMPI CALLER PUSH1 0x0 SWAP1 DUP2 MSTORE PUSH1 0x3 PUSH1 0x20 SWAP1 DUP2 MSTORE PUSH1 0x40 DUP3 KECCAK256 DUP1 SLOAD PUSH1 0x1 DUP2 ADD DUP3 SSTORE SWAP1 DUP4 MSTORE SWAP2 KECCAK256 ADD PUSH2 0x9E2 DUP7 DUP3 PUSH2 0x6B8D JUMP JUMPDEST POP JUMPDEST DUP6 PUSH1 0x1 PUSH1 0x1 PUSH1 0xA0 SHL SUB AND CALLER PUSH1 0x1 PUSH1 0x1 PUSH1 0xA0 SHL SUB AND PUSH32 0xF8978169EF1306AC0C49B6B67C280D605663D299EB03A25D6C691F3648D7B350 DUP5 DUP7 DUP6 TIMESTAMP PUSH1 0x40 MLOAD PUSH2 0xA2D SWAP5 SWAP4 SWAP3 SWAP2 SWAP1 PUSH2 0x6C43 JUMP JUMPDEST PUSH1 0x40 MLOAD DUP1 SWAP2 SUB SWAP1 LOG3 POP POP POP POP POP POP JUMP JUMPDEST PUSH1 0x1 PUSH1 0x1 PUSH1 0xA0 SHL SUB DUP4 AND PUSH2 0xA93 JUMPI PUSH1 0x40 MLOAD PUSH3 0x461BCD PUSH1 0xE5 SHL DUP2 MSTORE PUSH1 0x20 PUSH1 0x4 DUP3 ADD DUP2 SWAP1 MSTORE PUSH1 0x24 DUP3 ADD MSTORE PUSH32 0x526571756573746F722063616E6E6F74206265207A65726F2061646472657373 PUSH1 0x44 DUP3 ADD MSTORE PUSH1 0x64 ADD PUSH2 0x5D9 JUMP JUMPDEST PUSH1 0x0 DUP3 MLOAD GT PUSH2 0xAE0 JUMPI PUSH1 0x40 MLOAD PUSH3 0x461BCD PUSH1 0xE5 SHL DUP2 MSTORE PUSH1 0x20 PUSH1 0x4 DUP3 ADD MSTORE PUSH1 0x19 PUSH1 0x24 DUP3 ADD MSTORE PUSH25 0x46696C65206E616D652063616E6E6F7420626520656D707479 PUSH1 0x38 SHL PUSH1 0x44 DUP3 ADD MSTORE PUSH1 0x64 ADD PUSH2 0x5D9 JUMP JUMPDEST CALLER PUSH1 0x0 SWAP1 DUP2 MSTORE PUSH1 0x7 PUSH1 0x20 SWAP1 DUP2 MSTORE PUSH1 0x40 DUP1 DUP4 KECCAK256 PUSH1 0x1 PUSH1 0x1 PUSH1 0xA0 SHL SUB DUP8 AND DUP5 MSTORE SWAP1 SWAP2 MSTORE SWAP1 KECCAK256 DUP1 SLOAD PUSH2 0xB51 JUMPI PUSH1 0x40 MLOAD PUSH3 0x461BCD PUSH1 0xE5 SHL DUP2 MSTORE PUSH1 0x20 PUSH1 0x4 DUP3 ADD MSTORE PUSH1 0x1F PUSH1 0x24 DUP3 ADD MSTORE PUSH32 0x4E6F2072657175657374732066726F6D207468697320726571756573746F7200 PUSH1 0x44 DUP3 ADD MSTORE PUSH1 0x64 ADD PUSH2 0x5D9 JUMP JUMPDEST PUSH1 0x0 DUP1 JUMPDEST DUP3 SLOAD DUP2 LT ISZERO PUSH2 0xCB8 JUMPI DUP3 DUP2 DUP2 SLOAD DUP2 LT PUSH2 0xB70 JUMPI PUSH2 0xB70 PUSH2 0x6991 JUMP JUMPDEST SWAP1 PUSH1 0x0 MSTORE PUSH1 0x20 PUSH1 0x0 KECCAK256 SWAP1 PUSH1 0x5 MUL ADD PUSH1 0x3 ADD SLOAD PUSH1 0x0 EQ DUP1 ISZERO PUSH2 0xBCE JUMPI POP DUP5 DUP1 MLOAD SWAP1 PUSH1 0x20 ADD KECCAK256 DUP4 DUP3 DUP2 SLOAD DUP2 LT PUSH2 0xBA6 JUMPI PUSH2 0xBA6 PUSH2 0x6991 JUMP JUMPDEST SWAP1 PUSH1 0x0 MSTORE PUSH1 0x20 PUSH1 0x0 KECCAK256 SWAP1 PUSH1 0x5 MUL ADD PUSH1 0x1 ADD PUSH1 0x40 MLOAD PUSH2 0xBC4 SWAP2 SWAP1 PUSH2 0x6C87 JUMP JUMPDEST PUSH1 0x40 MLOAD DUP1 SWAP2 SUB SWAP1 KECCAK256 EQ JUMPDEST ISZERO PUSH2 0xCB0 JUMPI DUP4 DUP4 DUP3 DUP2 SLOAD DUP2 LT PUSH2 0xBE6 JUMPI PUSH2 0xBE6 PUSH2 0x6991 JUMP JUMPDEST SWAP1 PUSH1 0x0 MSTORE PUSH1 0x20 PUSH1 0x0 KECCAK256 SWAP1 PUSH1 0x5 MUL ADD PUSH1 0x0 ADD PUSH1 0x0 PUSH2 0x100 EXP DUP2 SLOAD DUP2 PUSH1 0xFF MUL NOT AND SWAP1 DUP4 ISZERO ISZERO MUL OR SWAP1 SSTORE POP TIMESTAMP DUP4 DUP3 DUP2 SLOAD DUP2 LT PUSH2 0xC21 JUMPI PUSH2 0xC21 PUSH2 0x6991 JUMP JUMPDEST SWAP1 PUSH1 0x0 MSTORE PUSH1 0x20 PUSH1 0x0 KECCAK256 SWAP1 PUSH1 0x5 MUL ADD PUSH1 0x3 ADD DUP2 SWAP1 SSTORE POP DUP6 PUSH1 0x1 PUSH1 0x1 PUSH1 0xA0 SHL SUB AND CALLER PUSH1 0x1 PUSH1 0x1 PUSH1 0xA0 SHL SUB AND PUSH32 0x532CB0591B34F8B7DD491DAE5DF420200E7D868E0EAC7EAE638EA5D4CE9DFFCC DUP6 DUP5 DUP2 SLOAD DUP2 LT PUSH2 0xC7D JUMPI PUSH2 0xC7D PUSH2 0x6991 JUMP JUMPDEST SWAP1 PUSH1 0x0 MSTORE PUSH1 0x20 PUSH1 0x0 KECCAK256 SWAP1 PUSH1 0x5 MUL ADD PUSH1 0x1 ADD DUP8 TIMESTAMP PUSH1 0x40 MLOAD PUSH2 0xC9F SWAP4 SWAP3 SWAP2 SWAP1 PUSH2 0x6D7F JUMP JUMPDEST PUSH1 0x40 MLOAD DUP1 SWAP2 SUB SWAP1 LOG3 PUSH1 0x1 SWAP2 POP PUSH2 0xCB8 JUMP JUMPDEST PUSH1 0x1 ADD PUSH2 0xB55 JUMP JUMPDEST POP DUP1 PUSH2 0xD1F JUMPI PUSH1 0x40 MLOAD PUSH3 0x461BCD PUSH1 0xE5 SHL DUP2 MSTORE PUSH1 0x20 PUSH1 0x4 DUP3 ADD MSTORE PUSH1 0x30 PUSH1 0x24 DUP3 ADD MSTORE PUSH32 0x4E6F20756E70726F636573736564207265717565737420666F756E6420776974 PUSH1 0x44 DUP3 ADD MSTORE PUSH16 0x6820746869732066696C65206E616D65 PUSH1 0x80 SHL PUSH1 0x64 DUP3 ADD MSTORE PUSH1 0x84 ADD PUSH2 0x5D9 JUMP JUMPDEST POP POP POP POP POP JUMP JUMPDEST PUSH1 0x1 PUSH1 0x1 PUSH1 0xA0 SHL SUB DUP1 DUP4 AND PUSH1 0x0 SWAP1 DUP2 MSTORE PUSH1 0x7 PUSH1 0x20 SWAP1 DUP2 MSTORE PUSH1 0x40 DUP1 DUP4 KECCAK256 SWAP4 DUP6 AND DUP4 MSTORE SWAP3 DUP2 MSTORE DUP3 DUP3 KECCAK256 DUP1 SLOAD DUP5 MLOAD DUP2 DUP5 MUL DUP2 ADD DUP5 ADD SWAP1 SWAP6 MSTORE DUP1 DUP6 MSTORE PUSH1 0x60 SWAP5 SWAP4 SWAP2 SWAP3 SWAP1 SWAP2 SWAP1 DUP5 ADD JUMPDEST DUP3 DUP3 LT ISZERO PUSH2 0xEF1 JUMPI PUSH1 0x0 DUP5 DUP2 MSTORE PUSH1 0x20 SWAP1 DUP2 SWAP1 KECCAK256 PUSH1 0x40 DUP1 MLOAD PUSH1 0xA0 DUP2 ADD SWAP1 SWAP2 MSTORE PUSH1 0x5 DUP6 MUL SWAP1 SWAP2 ADD DUP1 SLOAD PUSH1 0xFF AND ISZERO ISZERO DUP3 MSTORE PUSH1 0x1 DUP2 ADD DUP1 SLOAD SWAP3 SWAP4 SWAP2 SWAP3 SWAP2 DUP5 ADD SWAP2 PUSH2 0xDAF SWAP1 PUSH2 0x69D0 JUMP JUMPDEST DUP1 PUSH1 0x1F ADD PUSH1 0x20 DUP1 SWAP2 DIV MUL PUSH1 0x20 ADD PUSH1 0x40 MLOAD SWAP1 DUP2 ADD PUSH1 0x40 MSTORE DUP1 SWAP3 SWAP2 SWAP1 DUP2 DUP2 MSTORE PUSH1 0x20 ADD DUP3 DUP1 SLOAD PUSH2 0xDDB SWAP1 PUSH2 0x69D0 JUMP JUMPDEST DUP1 ISZERO PUSH2 0xE28 JUMPI DUP1 PUSH1 0x1F LT PUSH2 0xDFD JUMPI PUSH2 0x100 DUP1 DUP4 SLOAD DIV MUL DUP4 MSTORE SWAP2 PUSH1 0x20 ADD SWAP2 PUSH2 0xE28 JUMP JUMPDEST DUP3 ADD SWAP2 SWAP1 PUSH1 0x0 MSTORE PUSH1 0x20 PUSH1 0x0 KECCAK256 SWAP1 JUMPDEST DUP2 SLOAD DUP2 MSTORE SWAP1 PUSH1 0x1 ADD SWAP1 PUSH1 0x20 ADD DUP1 DUP4 GT PUSH2 0xE0B JUMPI DUP3 SWAP1 SUB PUSH1 0x1F AND DUP3 ADD SWAP2 JUMPDEST POP POP POP POP POP DUP2 MSTORE PUSH1 0x20 ADD PUSH1 0x2 DUP3 ADD DUP1 SLOAD PUSH2 0xE41 SWAP1 PUSH2 0x69D0 JUMP JUMPDEST DUP1 PUSH1 0x1F ADD PUSH1 0x20 DUP1 SWAP2 DIV MUL PUSH1 0x20 ADD PUSH1 0x40 MLOAD SWAP1 DUP2 ADD PUSH1 0x40 MSTORE DUP1 SWAP3 SWAP2 SWAP1 DUP2 DUP2 MSTORE PUSH1 0x20 ADD DUP3 DUP1 SLOAD PUSH2 0xE6D SWAP1 PUSH2 0x69D0 JUMP JUMPDEST DUP1 ISZERO PUSH2 0xEBA JUMPI DUP1 PUSH1 0x1F LT PUSH2 0xE8F JUMPI PUSH2 0x100 DUP1 DUP4 SLOAD DIV MUL DUP4 MSTORE SWAP2 PUSH1 0x20 ADD SWAP2 PUSH2 0xEBA JUMP JUMPDEST DUP3 ADD SWAP2 SWAP1 PUSH1 0x0 MSTORE PUSH1 0x20 PUSH1 0x0 KECCAK256 SWAP1 JUMPDEST DUP2 SLOAD DUP2 MSTORE SWAP1 PUSH1 0x1 ADD SWAP1 PUSH1 0x20 ADD DUP1 DUP4 GT PUSH2 0xE9D JUMPI DUP3 SWAP1 SUB PUSH1 0x1F AND DUP3 ADD SWAP2 JUMPDEST POP POP POP SWAP2 DUP4 MSTORE POP POP PUSH1 0x3 DUP3 ADD SLOAD PUSH1 0x20 DUP1 DUP4 ADD SWAP2 SWAP1 SWAP2 MSTORE PUSH1 0x4 SWAP1 SWAP3 ADD SLOAD PUSH1 0xFF AND ISZERO ISZERO PUSH1 0x40 SWAP1 SWAP2 ADD MSTORE SWAP1 DUP3 MSTORE PUSH1 0x1 SWAP3 SWAP1 SWAP3 ADD SWAP2 ADD PUSH2 0xD6A JUMP JUMPDEST POP POP POP POP SWAP1 POP SWAP3 SWAP2 POP POP JUMP JUMPDEST PUSH1 0x0 DUP3 MLOAD GT PUSH2 0xF4E JUMPI PUSH1 0x40 MLOAD PUSH3 0x461BCD PUSH1 0xE5 SHL DUP2 MSTORE PUSH1 0x20 PUSH1 0x4 DUP3 ADD MSTORE PUSH1 0x1A PUSH1 0x24 DUP3 ADD MSTORE PUSH32 0x5075626C6963206B65792063616E6E6F7420626520656D707479000000000000 PUSH1 0x44 DUP3 ADD MSTORE PUSH1 0x64 ADD PUSH2 0x5D9 JUMP JUMPDEST PUSH1 0x0 DUP2 MLOAD GT PUSH2 0xF96 JUMPI PUSH1 0x40 MLOAD PUSH3 0x461BCD PUSH1 0xE5 SHL DUP2 MSTORE PUSH1 0x20 PUSH1 0x4 DUP3 ADD MSTORE PUSH1 0x14 PUSH1 0x24 DUP3 ADD MSTORE PUSH20 0x446174612063616E6E6F7420626520656D707479 PUSH1 0x60 SHL PUSH1 0x44 DUP3 ADD MSTORE PUSH1 0x64 ADD PUSH2 0x5D9 JUMP JUMPDEST CALLER PUSH1 0x0 SWAP1 DUP2 MSTORE PUSH1 0x3 PUSH1 0x20 SWAP1 DUP2 MSTORE PUSH1 0x40 DUP3 KECCAK256 DUP1 SLOAD PUSH1 0x1 DUP2 ADD DUP3 SSTORE SWAP1 DUP4 MSTORE SWAP2 KECCAK256 ADD PUSH2 0xFBF DUP4 DUP3 PUSH2 0x6B8D JUMP JUMPDEST POP CALLER PUSH1 0x0 DUP2 DUP2 MSTORE PUSH1 0x2 PUSH1 0x20 SWAP1 DUP2 MSTORE PUSH1 0x40 DUP1 DUP4 KECCAK256 DUP2 MLOAD PUSH2 0x100 DUP2 ADD DUP4 MSTORE SWAP5 DUP6 MSTORE DUP5 DUP4 ADD DUP5 SWAP1 MSTORE DUP2 MLOAD SWAP3 DUP4 ADD DUP3 MSTORE DUP4 DUP4 MSTORE SWAP1 DUP5 ADD SWAP2 SWAP1 SWAP2 MSTORE PUSH1 0x60 DUP4 ADD DUP6 SWAP1 MSTORE DUP2 SLOAD SWAP1 SWAP3 SWAP2 PUSH1 0x80 DUP4 ADD SWAP2 PUSH2 0x100F SWAP1 PUSH2 0x69D0 JUMP JUMPDEST DUP1 PUSH1 0x1F ADD PUSH1 0x20 DUP1 SWAP2 DIV MUL PUSH1 0x20 ADD PUSH1 0x40 MLOAD SWAP1 DUP2 ADD PUSH1 0x40 MSTORE DUP1 SWAP3 SWAP2 SWAP1 DUP2 DUP2 MSTORE PUSH1 0x20 ADD DUP3 DUP1 SLOAD PUSH2 0x103B SWAP1 PUSH2 0x69D0 JUMP JUMPDEST DUP1 ISZERO PUSH2 0x1088 JUMPI DUP1 PUSH1 0x1F LT PUSH2 0x105D JUMPI PUSH2 0x100 DUP1 DUP4 SLOAD DIV MUL DUP4 MSTORE SWAP2 PUSH1 0x20 ADD SWAP2 PUSH2 0x1088 JUMP JUMPDEST DUP3 ADD SWAP2 SWAP1 PUSH1 0x0 MSTORE PUSH1 0x20 PUSH1 0x0 KECCAK256 SWAP1 JUMPDEST DUP2 SLOAD DUP2 MSTORE SWAP1 PUSH1 0x1 ADD SWAP1 PUSH1 0x20 ADD DUP1 DUP4 GT PUSH2 0x106B JUMPI DUP3 SWAP1 SUB PUSH1 0x1F AND DUP3 ADD SWAP2 JUMPDEST POP POP POP SWAP2 DUP4 MSTORE POP POP PUSH1 0x20 DUP2 ADD DUP5 SWAP1 MSTORE PUSH1 0x40 ADD PUSH1 0x0 DUP2 MSTORE TIMESTAMP PUSH1 0x20 SWAP2 DUP3 ADD MSTORE DUP3 SLOAD PUSH1 0x1 DUP1 DUP3 ADD DUP6 SSTORE PUSH1 0x0 SWAP5 DUP6 MSTORE SWAP4 DUP3 SWAP1 KECCAK256 DUP4 MLOAD PUSH1 0x8 SWAP1 SWAP3 MUL ADD DUP1 SLOAD PUSH1 0x1 PUSH1 0x1 PUSH1 0xA0 SHL SUB NOT SWAP1 DUP2 AND PUSH1 0x1 PUSH1 0x1 PUSH1 0xA0 SHL SUB SWAP4 DUP5 AND OR DUP3 SSTORE SWAP3 DUP5 ADD MLOAD SWAP5 DUP2 ADD DUP1 SLOAD SWAP1 SWAP4 AND SWAP5 SWAP1 SWAP2 AND SWAP4 SWAP1 SWAP4 OR SWAP1 SSTORE PUSH1 0x40 DUP2 ADD MLOAD SWAP1 SWAP2 SWAP1 PUSH1 0x2 DUP3 ADD SWAP1 PUSH2 0x1108 SWAP1 DUP3 PUSH2 0x6B8D JUMP JUMPDEST POP PUSH1 0x60 DUP3 ADD MLOAD PUSH1 0x3 DUP3 ADD SWAP1 PUSH2 0x111D SWAP1 DUP3 PUSH2 0x6B8D JUMP JUMPDEST POP PUSH1 0x80 DUP3 ADD MLOAD PUSH1 0x4 DUP3 ADD SWAP1 PUSH2 0x1132 SWAP1 DUP3 PUSH2 0x6B8D JUMP JUMPDEST POP PUSH1 0xA0 DUP3 ADD MLOAD PUSH1 0x5 DUP3 ADD SWAP1 PUSH2 0x1147 SWAP1 DUP3 PUSH2 0x6B8D JUMP JUMPDEST POP PUSH1 0xC0 DUP3 ADD MLOAD PUSH1 0x6 DUP3 ADD DUP1 SLOAD PUSH1 0xFF NOT AND PUSH1 0x1 DUP4 DUP2 DUP2 GT ISZERO PUSH2 0x116A JUMPI PUSH2 0x116A PUSH2 0x632F JUMP JUMPDEST MUL OR SWAP1 SSTORE POP PUSH1 0xE0 DUP3 ADD MLOAD DUP2 PUSH1 0x7 ADD SSTORE POP POP CALLER PUSH1 0x1 PUSH1 0x1 PUSH1 0xA0 SHL SUB AND PUSH32 0xC5D820F5092964C33342D79084A41F152B1071FFC9965EB19B078805775F4AE4 DUP4 DUP4 TIMESTAMP PUSH1 0x40 MLOAD PUSH2 0x11B8 SWAP4 SWAP3 SWAP2 SWAP1 PUSH2 0x6DA4 JUMP JUMPDEST PUSH1 0x40 MLOAD DUP1 SWAP2 SUB SWAP1 LOG2 PUSH1 0x40 MLOAD CALLER SWAP1 DUP2 SWAP1 PUSH32 0xF8978169EF1306AC0C49B6B67C280D605663D299EB03A25D6C691F3648D7B350 SWAP1 PUSH2 0x11FB SWAP1 DUP6 SWAP1 PUSH1 0x0 SWAP1 DUP2 SWAP1 TIMESTAMP SWAP1 PUSH2 0x6DDA JUMP JUMPDEST PUSH1 0x40 MLOAD DUP1 SWAP2 SUB SWAP1 LOG3 POP POP JUMP JUMPDEST PUSH1 0x60 CALLER PUSH1 0x1 PUSH1 0x1 PUSH1 0xA0 SHL SUB PUSH32 0x0 AND EQ DUP1 PUSH2 0x124F JUMPI POP CALLER PUSH1 0x0 SWAP1 DUP2 MSTORE PUSH1 0xE PUSH1 0x20 MSTORE PUSH1 0x40 SWAP1 KECCAK256 SLOAD PUSH1 0xFF AND JUMPDEST PUSH2 0x12AF JUMPI PUSH1 0x40 MLOAD PUSH3 0x461BCD PUSH1 0xE5 SHL DUP2 MSTORE PUSH1 0x20 PUSH1 0x4 DUP3 ADD MSTORE PUSH1 0x3E PUSH1 0x24 DUP3 ADD MSTORE PUSH1 0x0 DUP1 MLOAD PUSH1 0x20 PUSH2 0x6EAD DUP4 CODECOPY DUP2 MLOAD SWAP2 MSTORE PUSH1 0x44 DUP3 ADD MSTORE PUSH32 0x616E2072656164207072697661746520617474726962757465206B6579730000 PUSH1 0x64 DUP3 ADD MSTORE PUSH1 0x84 ADD PUSH2 0x5D9 JUMP JUMPDEST PUSH1 0xD DUP1 SLOAD DUP1 PUSH1 0x20 MUL PUSH1 0x20 ADD PUSH1 0x40 MLOAD SWAP1 DUP2 ADD PUSH1 0x40 MSTORE DUP1 SWAP3 SWAP2 SWAP1 DUP2 DUP2 MSTORE PUSH1 0x20 ADD PUSH1 0x0 SWAP1 JUMPDEST DUP3 DUP3 LT ISZERO PUSH2 0x137D JUMPI DUP4 DUP3 SWAP1 PUSH1 0x0 MSTORE PUSH1 0x20 PUSH1 0x0 KECCAK256 ADD DUP1 SLOAD PUSH2 0x12F0 SWAP1 PUSH2 0x69D0 JUMP JUMPDEST DUP1 PUSH1 0x1F ADD PUSH1 0x20 DUP1 SWAP2 DIV MUL PUSH1 0x20 ADD PUSH1 0x40 MLOAD SWAP1 DUP2 ADD PUSH1 0x40 MSTORE DUP1 SWAP3 SWAP2 SWAP1 DUP2 DUP2 MSTORE PUSH1 0x20 ADD DUP3 DUP1 SLOAD PUSH2 0x131C SWAP1 PUSH2 0x69D0 JUMP JUMPDEST DUP1 ISZERO PUSH2 0x1369 JUMPI DUP1 PUSH1 0x1F LT PUSH2 0x133E JUMPI PUSH2 0x100 DUP1 DUP4 SLOAD DIV MUL DUP4 MSTORE SWAP2 PUSH1 0x20 ADD SWAP2 PUSH2 0x1369 JUMP JUMPDEST DUP3 ADD SWAP2 SWAP1 PUSH1 0x0 MSTORE PUSH1 0x20 PUSH1 0x0 KECCAK256 SWAP1 JUMPDEST DUP2 SLOAD DUP2 MSTORE SWAP1 PUSH1 0x1 ADD SWAP1 PUSH1 0x20 ADD DUP1 DUP4 GT PUSH2 0x134C JUMPI DUP3 SWAP1 SUB PUSH1 0x1F AND DUP3 ADD SWAP2 JUMPDEST POP POP POP POP POP DUP2 MSTORE PUSH1 0x20 ADD SWAP1 PUSH1 0x1 ADD SWAP1 PUSH2 0x12D1 JUMP JUMPDEST POP POP POP POP SWAP1 POP SWAP1 JUMP JUMPDEST PUSH1 0x60 PUSH1 0x1 PUSH1 0x1 PUSH1 0xA0 SHL SUB DUP3 AND PUSH2 0x13E9 JUMPI PUSH1 0x40 MLOAD PUSH3 0x461BCD PUSH1 0xE5 SHL DUP2 MSTORE PUSH1 0x20 PUSH1 0x4 DUP3 ADD MSTORE PUSH1 0x22 PUSH1 0x24 DUP3 ADD MSTORE PUSH32 0x4F746865722070617274792063616E6E6F74206265207A65726F206164647265 PUSH1 0x44 DUP3 ADD MSTORE PUSH2 0x7373 PUSH1 0xF0 SHL PUSH1 0x64 DUP3 ADD MSTORE PUSH1 0x84 ADD PUSH2 0x5D9 JUMP JUMPDEST CALLER PUSH1 0x1 PUSH1 0x1 PUSH1 0xA0 SHL SUB DUP4 AND SUB PUSH2 0x144F JUMPI PUSH1 0x40 MLOAD PUSH3 0x461BCD PUSH1 0xE5 SHL DUP2 MSTORE PUSH1 0x20 PUSH1 0x4 DUP3 ADD MSTORE PUSH1 0x25 PUSH1 0x24 DUP3 ADD MSTORE PUSH32 0x43616E6E6F742067657420636F6E766572736174696F6E207769746820796F75 PUSH1 0x44 DUP3 ADD MSTORE PUSH5 0x3939B2B633 PUSH1 0xD9 SHL PUSH1 0x64 DUP3 ADD MSTORE PUSH1 0x84 ADD PUSH2 0x5D9 JUMP JUMPDEST PUSH1 0x0 PUSH2 0x145B CALLER DUP5 PUSH2 0x41A1 JUMP JUMPDEST SWAP1 POP PUSH1 0x1 PUSH1 0x0 DUP3 DUP2 MSTORE PUSH1 0x20 ADD SWAP1 DUP2 MSTORE PUSH1 0x20 ADD PUSH1 0x0 KECCAK256 DUP1 SLOAD DUP1 PUSH1 0x20 MUL PUSH1 0x20 ADD PUSH1 0x40 MLOAD SWAP1 DUP2 ADD PUSH1 0x40 MSTORE DUP1 SWAP3 SWAP2 SWAP1 DUP2 DUP2 MSTORE PUSH1 0x20 ADD PUSH1 0x0 SWAP1 JUMPDEST DUP3 DUP3 LT ISZERO PUSH2 0x176B JUMPI PUSH1 0x0 DUP5 DUP2 MSTORE PUSH1 0x20 SWAP1 DUP2 SWAP1 KECCAK256 PUSH1 0x40 DUP1 MLOAD PUSH2 0x100 DUP2 ADD DUP3 MSTORE PUSH1 0x8 DUP7 MUL SWAP1 SWAP3 ADD DUP1 SLOAD PUSH1 0x1 PUSH1 0x1 PUSH1 0xA0 SHL SUB SWAP1 DUP2 AND DUP5 MSTORE PUSH1 0x1 DUP3 ADD SLOAD AND SWAP4 DUP4 ADD SWAP4 SWAP1 SWAP4 MSTORE PUSH1 0x2 DUP4 ADD DUP1 SLOAD SWAP3 SWAP4 SWAP3 SWAP2 DUP5 ADD SWAP2 PUSH2 0x14E7 SWAP1 PUSH2 0x69D0 JUMP JUMPDEST DUP1 PUSH1 0x1F ADD PUSH1 0x20 DUP1 SWAP2 DIV MUL PUSH1 0x20 ADD PUSH1 0x40 MLOAD SWAP1 DUP2 ADD PUSH1 0x40 MSTORE DUP1 SWAP3 SWAP2 SWAP1 DUP2 DUP2 MSTORE PUSH1 0x20 ADD DUP3 DUP1 SLOAD PUSH2 0x1513 SWAP1 PUSH2 0x69D0 JUMP JUMPDEST DUP1 ISZERO PUSH2 0x1560 JUMPI DUP1 PUSH1 0x1F LT PUSH2 0x1535 JUMPI PUSH2 0x100 DUP1 DUP4 SLOAD DIV MUL DUP4 MSTORE SWAP2 PUSH1 0x20 ADD SWAP2 PUSH2 0x1560 JUMP JUMPDEST DUP3 ADD SWAP2 SWAP1 PUSH1 0x0 MSTORE PUSH1 0x20 PUSH1 0x0 KECCAK256 SWAP1 JUMPDEST DUP2 SLOAD DUP2 MSTORE SWAP1 PUSH1 0x1 ADD SWAP1 PUSH1 0x20 ADD DUP1 DUP4 GT PUSH2 0x1543 JUMPI DUP3 SWAP1 SUB PUSH1 0x1F AND DUP3 ADD SWAP2 JUMPDEST POP POP POP POP POP DUP2 MSTORE PUSH1 0x20 ADD PUSH1 0x3 DUP3 ADD DUP1 SLOAD PUSH2 0x1579 SWAP1 PUSH2 0x69D0 JUMP JUMPDEST DUP1 PUSH1 0x1F ADD PUSH1 0x20 DUP1 SWAP2 DIV MUL PUSH1 0x20 ADD PUSH1 0x40 MLOAD SWAP1 DUP2 ADD PUSH1 0x40 MSTORE DUP1 SWAP3 SWAP2 SWAP1 DUP2 DUP2 MSTORE PUSH1 0x20 ADD DUP3 DUP1 SLOAD PUSH2 0x15A5 SWAP1 PUSH2 0x69D0 JUMP JUMPDEST DUP1 ISZERO PUSH2 0x15F2 JUMPI DUP1 PUSH1 0x1F LT PUSH2 0x15C7 JUMPI PUSH2 0x100 DUP1 DUP4 SLOAD DIV MUL DUP4 MSTORE SWAP2 PUSH1 0x20 ADD SWAP2 PUSH2 0x15F2 JUMP JUMPDEST DUP3 ADD SWAP2 SWAP1 PUSH1 0x0 MSTORE PUSH1 0x20 PUSH1 0x0 KECCAK256 SWAP1 JUMPDEST DUP2 SLOAD DUP2 MSTORE SWAP1 PUSH1 0x1 ADD SWAP1 PUSH1 0x20 ADD DUP1 DUP4 GT PUSH2 0x15D5 JUMPI DUP3 SWAP1 SUB PUSH1 0x1F AND DUP3 ADD SWAP2 JUMPDEST POP POP POP POP POP DUP2 MSTORE PUSH1 0x20 ADD PUSH1 0x4 DUP3 ADD DUP1 SLOAD PUSH2 0x160B SWAP1 PUSH2 0x69D0 JUMP JUMPDEST DUP1 PUSH1 0x1F ADD PUSH1 0x20 DUP1 SWAP2 DIV MUL PUSH1 0x20 ADD PUSH1 0x40 MLOAD SWAP1 DUP2 ADD PUSH1 0x40 MSTORE DUP1 SWAP3 SWAP2 SWAP1 DUP2 DUP2 MSTORE PUSH1 0x20 ADD DUP3 DUP1 SLOAD PUSH2 0x1637 SWAP1 PUSH2 0x69D0 JUMP JUMPDEST DUP1 ISZERO PUSH2 0x1684 JUMPI DUP1 PUSH1 0x1F LT PUSH2 0x1659 JUMPI PUSH2 0x100 DUP1 DUP4 SLOAD DIV MUL DUP4 MSTORE SWAP2 PUSH1 0x20 ADD SWAP2 PUSH2 0x1684 JUMP JUMPDEST DUP3 ADD SWAP2 SWAP1 PUSH1 0x0 MSTORE PUSH1 0x20 PUSH1 0x0 KECCAK256 SWAP1 JUMPDEST DUP2 SLOAD DUP2 MSTORE SWAP1 PUSH1 0x1 ADD SWAP1 PUSH1 0x20 ADD DUP1 DUP4 GT PUSH2 0x1667 JUMPI DUP3 SWAP1 SUB PUSH1 0x1F AND DUP3 ADD SWAP2 JUMPDEST POP POP POP POP POP DUP2 MSTORE PUSH1 0x20 ADD PUSH1 0x5 DUP3 ADD DUP1 SLOAD PUSH2 0x169D SWAP1 PUSH2 0x69D0 JUMP JUMPDEST DUP1 PUSH1 0x1F ADD PUSH1 0x20 DUP1 SWAP2 DIV MUL PUSH1 0x20 ADD PUSH1 0x40 MLOAD SWAP1 DUP2 ADD PUSH1 0x40 MSTORE DUP1 SWAP3 SWAP2 SWAP1 DUP2 DUP2 MSTORE PUSH1 0x20 ADD DUP3 DUP1 SLOAD PUSH2 0x16C9 SWAP1 PUSH2 0x69D0 JUMP JUMPDEST DUP1 ISZERO PUSH2 0x1716 JUMPI DUP1 PUSH1 0x1F LT PUSH2 0x16EB JUMPI PUSH2 0x100 DUP1 DUP4 SLOAD DIV MUL DUP4 MSTORE SWAP2 PUSH1 0x20 ADD SWAP2 PUSH2 0x1716 JUMP JUMPDEST DUP3 ADD SWAP2 SWAP1 PUSH1 0x0 MSTORE PUSH1 0x20 PUSH1 0x0 KECCAK256 SWAP1 JUMPDEST DUP2 SLOAD DUP2 MSTORE SWAP1 PUSH1 0x1 ADD SWAP1 PUSH1 0x20 ADD DUP1 DUP4 GT PUSH2 0x16F9 JUMPI DUP3 SWAP1 SUB PUSH1 0x1F AND DUP3 ADD SWAP2 JUMPDEST POP POP POP SWAP2 DUP4 MSTORE POP POP PUSH1 0x6 DUP3 ADD SLOAD PUSH1 0x20 SWAP1 SWAP2 ADD SWAP1 PUSH1 0xFF AND PUSH1 0x1 DUP2 GT ISZERO PUSH2 0x173D JUMPI PUSH2 0x173D PUSH2 0x632F JUMP JUMPDEST PUSH1 0x1 DUP2 GT ISZERO PUSH2 0x174E JUMPI PUSH2 0x174E PUSH2 0x632F JUMP JUMPDEST DUP2 MSTORE PUSH1 0x20 ADD PUSH1 0x7 DUP3 ADD SLOAD DUP2 MSTORE POP POP DUP2 MSTORE PUSH1 0x20 ADD SWAP1 PUSH1 0x1 ADD SWAP1 PUSH2 0x1490 JUMP JUMPDEST POP POP POP POP SWAP2 POP POP SWAP2 SWAP1 POP JUMP JUMPDEST PUSH1 0x40 DUP1 MLOAD PUSH1 0x80 DUP2 ADD DUP3 MSTORE PUSH1 0x0 DUP1 DUP3 MSTORE PUSH1 0x60 PUSH1 0x20 DUP4 ADD DUP2 SWAP1 MSTORE SWAP3 DUP3 ADD MSTORE DUP2 DUP2 ADD SWAP2 SWAP1 SWAP2 MSTORE PUSH1 0x1 PUSH1 0x1 PUSH1 0xA0 SHL SUB DUP5 AND PUSH1 0x0 SWAP1 DUP2 MSTORE PUSH1 0x5 PUSH1 0x20 MSTORE PUSH1 0x40 DUP1 DUP3 KECCAK256 SWAP1 MLOAD PUSH2 0x17C0 SWAP1 DUP7 SWAP1 PUSH2 0x6975 JUMP JUMPDEST SWAP1 DUP2 MSTORE PUSH1 0x20 ADD PUSH1 0x40 MLOAD DUP1 SWAP2 SUB SWAP1 KECCAK256 DUP1 SLOAD DUP1 PUSH1 0x20 MUL PUSH1 0x20 ADD PUSH1 0x40 MLOAD SWAP1 DUP2 ADD PUSH1 0x40 MSTORE DUP1 SWAP3 SWAP2 SWAP1 DUP2 DUP2 MSTORE PUSH1 0x20 ADD PUSH1 0x0 SWAP1 JUMPDEST DUP3 DUP3 LT ISZERO PUSH2 0x196B JUMPI PUSH1 0x0 DUP5 DUP2 MSTORE PUSH1 0x20 SWAP1 DUP2 SWAP1 KECCAK256 PUSH1 0x40 DUP1 MLOAD PUSH1 0x80 DUP2 ADD SWAP1 SWAP2 MSTORE PUSH1 0x4 DUP6 MUL SWAP1 SWAP2 ADD DUP1 SLOAD PUSH1 0x1 PUSH1 0x1 PUSH1 0xA0 SHL SUB AND DUP3 MSTORE PUSH1 0x1 DUP2 ADD DUP1 SLOAD SWAP3 SWAP4 SWAP2 SWAP3 SWAP2 DUP5 ADD SWAP2 PUSH2 0x1837 SWAP1 PUSH2 0x69D0 JUMP JUMPDEST DUP1 PUSH1 0x1F ADD PUSH1 0x20 DUP1 SWAP2 DIV MUL PUSH1 0x20 ADD PUSH1 0x40 MLOAD SWAP1 DUP2 ADD PUSH1 0x40 MSTORE DUP1 SWAP3 SWAP2 SWAP1 DUP2 DUP2 MSTORE PUSH1 0x20 ADD DUP3 DUP1 SLOAD PUSH2 0x1863 SWAP1 PUSH2 0x69D0 JUMP JUMPDEST DUP1 ISZERO PUSH2 0x18B0 JUMPI DUP1 PUSH1 0x1F LT PUSH2 0x1885 JUMPI PUSH2 0x100 DUP1 DUP4 SLOAD DIV MUL DUP4 MSTORE SWAP2 PUSH1 0x20 ADD SWAP2 PUSH2 0x18B0 JUMP JUMPDEST DUP3 ADD SWAP2 SWAP1 PUSH1 0x0 MSTORE PUSH1 0x20 PUSH1 0x0 KECCAK256 SWAP1 JUMPDEST DUP2 SLOAD DUP2 MSTORE SWAP1 PUSH1 0x1 ADD SWAP1 PUSH1 0x20 ADD DUP1 DUP4 GT PUSH2 0x1893 JUMPI DUP3 SWAP1 SUB PUSH1 0x1F AND DUP3 ADD SWAP2 JUMPDEST POP POP POP SWAP2 DUP4 MSTORE POP POP PUSH1 0x2 DUP3 ADD SLOAD PUSH1 0xFF AND PUSH1 0x20 DUP3 ADD MSTORE PUSH1 0x3 DUP3 ADD DUP1 SLOAD PUSH1 0x40 SWAP1 SWAP3 ADD SWAP2 PUSH2 0x18DA SWAP1 PUSH2 0x69D0 JUMP JUMPDEST DUP1 PUSH1 0x1F ADD PUSH1 0x20 DUP1 SWAP2 DIV MUL PUSH1 0x20 ADD PUSH1 0x40 MLOAD SWAP1 DUP2 ADD PUSH1 0x40 MSTORE DUP1 SWAP3 SWAP2 SWAP1 DUP2 DUP2 MSTORE PUSH1 0x20 ADD DUP3 DUP1 SLOAD PUSH2 0x1906 SWAP1 PUSH2 0x69D0 JUMP JUMPDEST DUP1 ISZERO PUSH2 0x1953 JUMPI DUP1 PUSH1 0x1F LT PUSH2 0x1928 JUMPI PUSH2 0x100 DUP1 DUP4 SLOAD DIV MUL DUP4 MSTORE SWAP2 PUSH1 0x20 ADD SWAP2 PUSH2 0x1953 JUMP JUMPDEST DUP3 ADD SWAP2 SWAP1 PUSH1 0x0 MSTORE PUSH1 0x20 PUSH1 0x0 KECCAK256 SWAP1 JUMPDEST DUP2 SLOAD DUP2 MSTORE SWAP1 PUSH1 0x1 ADD SWAP1 PUSH1 0x20 ADD DUP1 DUP4 GT PUSH2 0x1936 JUMPI DUP3 SWAP1 SUB PUSH1 0x1F AND DUP3 ADD SWAP2 JUMPDEST POP POP POP POP POP DUP2 MSTORE POP POP DUP2 MSTORE PUSH1 0x20 ADD SWAP1 PUSH1 0x1 ADD SWAP1 PUSH2 0x17EE JUMP JUMPDEST POP POP POP POP SWAP1 POP PUSH1 0x0 JUMPDEST DUP2 MLOAD DUP2 LT ISZERO PUSH2 0x19DE JUMPI DUP4 PUSH1 0x1 PUSH1 0x1 PUSH1 0xA0 SHL SUB AND DUP3 DUP3 DUP2 MLOAD DUP2 LT PUSH2 0x1999 JUMPI PUSH2 0x1999 PUSH2 0x6991 JUMP JUMPDEST PUSH1 0x20 MUL PUSH1 0x20 ADD ADD MLOAD PUSH1 0x0 ADD MLOAD PUSH1 0x1 PUSH1 0x1 PUSH1 0xA0 SHL SUB AND SUB PUSH2 0x19D6 JUMPI DUP2 DUP2 DUP2 MLOAD DUP2 LT PUSH2 0x19C5 JUMPI PUSH2 0x19C5 PUSH2 0x6991 JUMP JUMPDEST PUSH1 0x20 MUL PUSH1 0x20 ADD ADD MLOAD SWAP3 POP POP POP PUSH2 0x1A27 JUMP JUMPDEST PUSH1 0x1 ADD PUSH2 0x1974 JUMP JUMPDEST POP PUSH1 0x40 MLOAD PUSH3 0x461BCD PUSH1 0xE5 SHL DUP2 MSTORE PUSH1 0x20 PUSH1 0x4 DUP3 ADD MSTORE PUSH1 0x18 PUSH1 0x24 DUP3 ADD MSTORE PUSH32 0x41646472657373206E6F7420696E2077686974656C6973740000000000000000 PUSH1 0x44 DUP3 ADD MSTORE PUSH1 0x64 ADD PUSH2 0x5D9 JUMP JUMPDEST SWAP4 SWAP3 POP POP POP JUMP JUMPDEST PUSH1 0x1 PUSH1 0x1 PUSH1 0xA0 SHL SUB DUP2 AND PUSH1 0x0 SWAP1 DUP2 MSTORE PUSH1 0x6 PUSH1 0x20 SWAP1 DUP2 MSTORE PUSH1 0x40 DUP1 DUP4 KECCAK256 DUP1 SLOAD DUP3 MLOAD DUP2 DUP6 MUL DUP2 ADD DUP6 ADD SWAP1 SWAP4 MSTORE DUP1 DUP4 MSTORE PUSH1 0x60 SWAP5 SWAP3 SWAP4 SWAP2 SWAP3 SWAP1 SWAP2 DUP5 ADD JUMPDEST DUP3 DUP3 LT ISZERO PUSH2 0x1B12 JUMPI DUP4 DUP3 SWAP1 PUSH1 0x0 MSTORE PUSH1 0x20 PUSH1 0x0 KECCAK256 ADD DUP1 SLOAD PUSH2 0x1A85 SWAP1 PUSH2 0x69D0 JUMP JUMPDEST DUP1 PUSH1 0x1F ADD PUSH1 0x20 DUP1 SWAP2 DIV MUL PUSH1 0x20 ADD PUSH1 0x40 MLOAD SWAP1 DUP2 ADD PUSH1 0x40 MSTORE DUP1 SWAP3 SWAP2 SWAP1 DUP2 DUP2 MSTORE PUSH1 0x20 ADD DUP3 DUP1 SLOAD PUSH2 0x1AB1 SWAP1 PUSH2 0x69D0 JUMP JUMPDEST DUP1 ISZERO PUSH2 0x1AFE JUMPI DUP1 PUSH1 0x1F LT PUSH2 0x1AD3 JUMPI PUSH2 0x100 DUP1 DUP4 SLOAD DIV MUL DUP4 MSTORE SWAP2 PUSH1 0x20 ADD SWAP2 PUSH2 0x1AFE JUMP JUMPDEST DUP3 ADD SWAP2 SWAP1 PUSH1 0x0 MSTORE PUSH1 0x20 PUSH1 0x0 KECCAK256 SWAP1 JUMPDEST DUP2 SLOAD DUP2 MSTORE SWAP1 PUSH1 0x1 ADD SWAP1 PUSH1 0x20 ADD DUP1 DUP4 GT PUSH2 0x1AE1 JUMPI DUP3 SWAP1 SUB PUSH1 0x1F AND DUP3 ADD SWAP2 JUMPDEST POP POP POP POP POP DUP2 MSTORE PUSH1 0x20 ADD SWAP1 PUSH1 0x1 ADD SWAP1 PUSH2 0x1A66 JUMP JUMPDEST POP POP POP POP SWAP1 POP SWAP2 SWAP1 POP JUMP JUMPDEST CALLER PUSH1 0x1 PUSH1 0x1 PUSH1 0xA0 SHL SUB PUSH32 0x0 AND EQ DUP1 PUSH2 0x1B63 JUMPI POP CALLER PUSH1 0x0 SWAP1 DUP2 MSTORE PUSH1 0xE PUSH1 0x20 MSTORE PUSH1 0x40 SWAP1 KECCAK256 SLOAD PUSH1 0xFF AND JUMPDEST PUSH2 0x1BC3 JUMPI PUSH1 0x40 MLOAD PUSH3 0x461BCD PUSH1 0xE5 SHL DUP2 MSTORE PUSH1 0x20 PUSH1 0x4 DUP3 ADD MSTORE PUSH1 0x3C PUSH1 0x24 DUP3 ADD MSTORE PUSH1 0x0 DUP1 MLOAD PUSH1 0x20 PUSH2 0x6EAD DUP4 CODECOPY DUP2 MLOAD SWAP2 MSTORE PUSH1 0x44 DUP3 ADD MSTORE PUSH32 0x616E2064656C6574652070726976617465206174747269627574657300000000 PUSH1 0x64 DUP3 ADD MSTORE PUSH1 0x84 ADD PUSH2 0x5D9 JUMP JUMPDEST PUSH1 0xB DUP2 PUSH1 0x40 MLOAD PUSH2 0x1BD3 SWAP2 SWAP1 PUSH2 0x6975 JUMP JUMPDEST SWAP1 DUP2 MSTORE PUSH1 0x20 ADD PUSH1 0x40 MLOAD DUP1 SWAP2 SUB SWAP1 KECCAK256 PUSH1 0x0 PUSH2 0x1BED SWAP2 SWAP1 PUSH2 0x5C76 JUMP JUMPDEST PUSH1 0x0 JUMPDEST PUSH1 0xD SLOAD DUP2 LT ISZERO PUSH2 0x1CC8 JUMPI DUP2 DUP1 MLOAD SWAP1 PUSH1 0x20 ADD KECCAK256 PUSH1 0xD DUP3 DUP2 SLOAD DUP2 LT PUSH2 0x1C15 JUMPI PUSH2 0x1C15 PUSH2 0x6991 JUMP JUMPDEST SWAP1 PUSH1 0x0 MSTORE PUSH1 0x20 PUSH1 0x0 KECCAK256 ADD PUSH1 0x40 MLOAD PUSH2 0x1C2C SWAP2 SWAP1 PUSH2 0x6C87 JUMP JUMPDEST PUSH1 0x40 MLOAD DUP1 SWAP2 SUB SWAP1 KECCAK256 SUB PUSH2 0x1CC0 JUMPI PUSH1 0xD DUP1 SLOAD PUSH2 0x1C49 SWAP1 PUSH1 0x1 SWAP1 PUSH2 0x69BD JUMP JUMPDEST DUP2 SLOAD DUP2 LT PUSH2 0x1C59 JUMPI PUSH2 0x1C59 PUSH2 0x6991 JUMP JUMPDEST SWAP1 PUSH1 0x0 MSTORE PUSH1 0x20 PUSH1 0x0 KECCAK256 ADD PUSH1 0xD DUP3 DUP2 SLOAD DUP2 LT PUSH2 0x1C76 JUMPI PUSH2 0x1C76 PUSH2 0x6991 JUMP JUMPDEST SWAP1 PUSH1 0x0 MSTORE PUSH1 0x20 PUSH1 0x0 KECCAK256 ADD SWAP1 DUP2 PUSH2 0x1C8C SWAP2 SWAP1 PUSH2 0x6A56 JUMP JUMPDEST POP PUSH1 0xD DUP1 SLOAD DUP1 PUSH2 0x1C9E JUMPI PUSH2 0x1C9E PUSH2 0x6B35 JUMP JUMPDEST PUSH1 0x1 SWAP1 SUB DUP2 DUP2 SWAP1 PUSH1 0x0 MSTORE PUSH1 0x20 PUSH1 0x0 KECCAK256 ADD PUSH1 0x0 PUSH2 0x1CBA SWAP2 SWAP1 PUSH2 0x5C76 JUMP JUMPDEST SWAP1 SSTORE POP POP JUMP JUMPDEST PUSH1 0x1 ADD PUSH2 0x1BF0 JUMP JUMPDEST POP POP JUMP JUMPDEST PUSH1 0x1 PUSH1 0x1 PUSH1 0xA0 SHL SUB DUP2 AND PUSH1 0x0 SWAP1 DUP2 MSTORE PUSH1 0x2 PUSH1 0x20 SWAP1 DUP2 MSTORE PUSH1 0x40 DUP1 DUP4 KECCAK256 DUP1 SLOAD DUP3 MLOAD DUP2 DUP6 MUL DUP2 ADD DUP6 ADD SWAP1 SWAP4 MSTORE DUP1 DUP4 MSTORE PUSH1 0x60 SWAP5 SWAP4 DUP5 SWAP1 DUP5 ADD JUMPDEST DUP3 DUP3 LT ISZERO PUSH2 0x1FDC JUMPI PUSH1 0x0 DUP5 DUP2 MSTORE PUSH1 0x20 SWAP1 DUP2 SWAP1 KECCAK256 PUSH1 0x40 DUP1 MLOAD PUSH2 0x100 DUP2 ADD DUP3 MSTORE PUSH1 0x8 DUP7 MUL SWAP1 SWAP3 ADD DUP1 SLOAD PUSH1 0x1 PUSH1 0x1 PUSH1 0xA0 SHL SUB SWAP1 DUP2 AND DUP5 MSTORE PUSH1 0x1 DUP3 ADD SLOAD AND SWAP4 DUP4 ADD SWAP4 SWAP1 SWAP4 MSTORE PUSH1 0x2 DUP4 ADD DUP1 SLOAD SWAP3 SWAP4 SWAP3 SWAP2 DUP5 ADD SWAP2 PUSH2 0x1D58 SWAP1 PUSH2 0x69D0 JUMP JUMPDEST DUP1 PUSH1 0x1F ADD PUSH1 0x20 DUP1 SWAP2 DIV MUL PUSH1 0x20 ADD PUSH1 0x40 MLOAD SWAP1 DUP2 ADD PUSH1 0x40 MSTORE DUP1 SWAP3 SWAP2 SWAP1 DUP2 DUP2 MSTORE PUSH1 0x20 ADD DUP3 DUP1 SLOAD PUSH2 0x1D84 SWAP1 PUSH2 0x69D0 JUMP JUMPDEST DUP1 ISZERO PUSH2 0x1DD1 JUMPI DUP1 PUSH1 0x1F LT PUSH2 0x1DA6 JUMPI PUSH2 0x100 DUP1 DUP4 SLOAD DIV MUL DUP4 MSTORE SWAP2 PUSH1 0x20 ADD SWAP2 PUSH2 0x1DD1 JUMP JUMPDEST DUP3 ADD SWAP2 SWAP1 PUSH1 0x0 MSTORE PUSH1 0x20 PUSH1 0x0 KECCAK256 SWAP1 JUMPDEST DUP2 SLOAD DUP2 MSTORE SWAP1 PUSH1 0x1 ADD SWAP1 PUSH1 0x20 ADD DUP1 DUP4 GT PUSH2 0x1DB4 JUMPI DUP3 SWAP1 SUB PUSH1 0x1F AND DUP3 ADD SWAP2 JUMPDEST POP POP POP POP POP DUP2 MSTORE PUSH1 0x20 ADD PUSH1 0x3 DUP3 ADD DUP1 SLOAD PUSH2 0x1DEA SWAP1 PUSH2 0x69D0 JUMP JUMPDEST DUP1 PUSH1 0x1F ADD PUSH1 0x20 DUP1 SWAP2 DIV MUL PUSH1 0x20 ADD PUSH1 0x40 MLOAD SWAP1 DUP2 ADD PUSH1 0x40 MSTORE DUP1 SWAP3 SWAP2 SWAP1 DUP2 DUP2 MSTORE PUSH1 0x20 ADD DUP3 DUP1 SLOAD PUSH2 0x1E16 SWAP1 PUSH2 0x69D0 JUMP JUMPDEST DUP1 ISZERO PUSH2 0x1E63 JUMPI DUP1 PUSH1 0x1F LT PUSH2 0x1E38 JUMPI PUSH2 0x100 DUP1 DUP4 SLOAD DIV MUL DUP4 MSTORE SWAP2 PUSH1 0x20 ADD SWAP2 PUSH2 0x1E63 JUMP JUMPDEST DUP3 ADD SWAP2 SWAP1 PUSH1 0x0 MSTORE PUSH1 0x20 PUSH1 0x0 KECCAK256 SWAP1 JUMPDEST DUP2 SLOAD DUP2 MSTORE SWAP1 PUSH1 0x1 ADD SWAP1 PUSH1 0x20 ADD DUP1 DUP4 GT PUSH2 0x1E46 JUMPI DUP3 SWAP1 SUB PUSH1 0x1F AND DUP3 ADD SWAP2 JUMPDEST POP POP POP POP POP DUP2 MSTORE PUSH1 0x20 ADD PUSH1 0x4 DUP3 ADD DUP1 SLOAD PUSH2 0x1E7C SWAP1 PUSH2 0x69D0 JUMP JUMPDEST DUP1 PUSH1 0x1F ADD PUSH1 0x20 DUP1 SWAP2 DIV MUL PUSH1 0x20 ADD PUSH1 0x40 MLOAD SWAP1 DUP2 ADD PUSH1 0x40 MSTORE DUP1 SWAP3 SWAP2 SWAP1 DUP2 DUP2 MSTORE PUSH1 0x20 ADD DUP3 DUP1 SLOAD PUSH2 0x1EA8 SWAP1 PUSH2 0x69D0 JUMP JUMPDEST DUP1 ISZERO PUSH2 0x1EF5 JUMPI DUP1 PUSH1 0x1F LT PUSH2 0x1ECA JUMPI PUSH2 0x100 DUP1 DUP4 SLOAD DIV MUL DUP4 MSTORE SWAP2 PUSH1 0x20 ADD SWAP2 PUSH2 0x1EF5 JUMP JUMPDEST DUP3 ADD SWAP2 SWAP1 PUSH1 0x0 MSTORE PUSH1 0x20 PUSH1 0x0 KECCAK256 SWAP1 JUMPDEST DUP2 SLOAD DUP2 MSTORE SWAP1 PUSH1 0x1 ADD SWAP1 PUSH1 0x20 ADD DUP1 DUP4 GT PUSH2 0x1ED8 JUMPI DUP3 SWAP1 SUB PUSH1 0x1F AND DUP3 ADD SWAP2 JUMPDEST POP POP POP POP POP DUP2 MSTORE PUSH1 0x20 ADD PUSH1 0x5 DUP3 ADD DUP1 SLOAD PUSH2 0x1F0E SWAP1 PUSH2 0x69D0 JUMP JUMPDEST DUP1 PUSH1 0x1F ADD PUSH1 0x20 DUP1 SWAP2 DIV MUL PUSH1 0x20 ADD PUSH1 0x40 MLOAD SWAP1 DUP2 ADD PUSH1 0x40 MSTORE DUP1 SWAP3 SWAP2 SWAP1 DUP2 DUP2 MSTORE PUSH1 0x20 ADD DUP3 DUP1 SLOAD PUSH2 0x1F3A SWAP1 PUSH2 0x69D0 JUMP JUMPDEST DUP1 ISZERO PUSH2 0x1F87 JUMPI DUP1 PUSH1 0x1F LT PUSH2 0x1F5C JUMPI PUSH2 0x100 DUP1 DUP4 SLOAD DIV MUL DUP4 MSTORE SWAP2 PUSH1 0x20 ADD SWAP2 PUSH2 0x1F87 JUMP JUMPDEST DUP3 ADD SWAP2 SWAP1 PUSH1 0x0 MSTORE PUSH1 0x20 PUSH1 0x0 KECCAK256 SWAP1 JUMPDEST DUP2 SLOAD DUP2 MSTORE SWAP1 PUSH1 0x1 ADD SWAP1 PUSH1 0x20 ADD DUP1 DUP4 GT PUSH2 0x1F6A JUMPI DUP3 SWAP1 SUB PUSH1 0x1F AND DUP3 ADD SWAP2 JUMPDEST POP POP POP SWAP2 DUP4 MSTORE POP POP PUSH1 0x6 DUP3 ADD SLOAD PUSH1 0x20 SWAP1 SWAP2 ADD SWAP1 PUSH1 0xFF AND PUSH1 0x1 DUP2 GT ISZERO PUSH2 0x1FAE JUMPI PUSH2 0x1FAE PUSH2 0x632F JUMP JUMPDEST PUSH1 0x1 DUP2 GT ISZERO PUSH2 0x1FBF JUMPI PUSH2 0x1FBF PUSH2 0x632F JUMP JUMPDEST DUP2 MSTORE PUSH1 0x20 ADD PUSH1 0x7 DUP3 ADD SLOAD DUP2 MSTORE POP POP DUP2 MSTORE PUSH1 0x20 ADD SWAP1 PUSH1 0x1 ADD SWAP1 PUSH2 0x1D01 JUMP JUMPDEST POP POP POP POP SWAP1 POP DUP3 PUSH1 0x1 PUSH1 0x1 PUSH1 0xA0 SHL SUB AND CALLER PUSH1 0x1 PUSH1 0x1 PUSH1 0xA0 SHL SUB AND SUB PUSH2 0x2001 JUMPI SWAP3 SWAP2 POP POP JUMP JUMPDEST PUSH1 0x0 DUP1 JUMPDEST DUP3 MLOAD DUP2 LT ISZERO PUSH2 0x205A JUMPI PUSH1 0x0 DUP4 DUP3 DUP2 MLOAD DUP2 LT PUSH2 0x2022 JUMPI PUSH2 0x2022 PUSH2 0x6991 JUMP JUMPDEST PUSH1 0x20 MUL PUSH1 0x20 ADD ADD MLOAD PUSH1 0xC0 ADD MLOAD PUSH1 0x1 DUP2 GT ISZERO PUSH2 0x203F JUMPI PUSH2 0x203F PUSH2 0x632F JUMP JUMPDEST SUB PUSH2 0x2052 JUMPI DUP2 PUSH2 0x204E DUP2 PUSH2 0x6DFF JUMP JUMPDEST SWAP3 POP POP JUMPDEST PUSH1 0x1 ADD PUSH2 0x2005 JUMP JUMPDEST POP PUSH1 0x0 DUP2 PUSH1 0x1 PUSH1 0x1 PUSH1 0x40 SHL SUB DUP2 GT ISZERO PUSH2 0x2075 JUMPI PUSH2 0x2075 PUSH2 0x5ECF JUMP JUMPDEST PUSH1 0x40 MLOAD SWAP1 DUP1 DUP3 MSTORE DUP1 PUSH1 0x20 MUL PUSH1 0x20 ADD DUP3 ADD PUSH1 0x40 MSTORE DUP1 ISZERO PUSH2 0x20AE JUMPI DUP2 PUSH1 0x20 ADD JUMPDEST PUSH2 0x209B PUSH2 0x5CB3 JUMP JUMPDEST DUP2 MSTORE PUSH1 0x20 ADD SWAP1 PUSH1 0x1 SWAP1 SUB SWAP1 DUP2 PUSH2 0x2093 JUMPI SWAP1 POP JUMPDEST POP SWAP1 POP PUSH1 0x0 DUP1 JUMPDEST DUP5 MLOAD DUP2 LT ISZERO PUSH2 0x2142 JUMPI PUSH1 0x0 DUP6 DUP3 DUP2 MLOAD DUP2 LT PUSH2 0x20D2 JUMPI PUSH2 0x20D2 PUSH2 0x6991 JUMP JUMPDEST PUSH1 0x20 MUL PUSH1 0x20 ADD ADD MLOAD PUSH1 0xC0 ADD MLOAD PUSH1 0x1 DUP2 GT ISZERO PUSH2 0x20EF JUMPI PUSH2 0x20EF PUSH2 0x632F JUMP JUMPDEST SUB PUSH2 0x213A JUMPI DUP5 DUP2 DUP2 MLOAD DUP2 LT PUSH2 0x2106 JUMPI PUSH2 0x2106 PUSH2 0x6991 JUMP JUMPDEST PUSH1 0x20 MUL PUSH1 0x20 ADD ADD MLOAD DUP4 DUP4 DUP2 MLOAD DUP2 LT PUSH2 0x2120 JUMPI PUSH2 0x2120 PUSH2 0x6991 JUMP JUMPDEST PUSH1 0x20 MUL PUSH1 0x20 ADD ADD DUP2 SWAP1 MSTORE POP DUP2 DUP1 PUSH2 0x2136 SWAP1 PUSH2 0x6DFF JUMP JUMPDEST SWAP3 POP POP JUMPDEST PUSH1 0x1 ADD PUSH2 0x20B5 JUMP JUMPDEST POP SWAP1 SWAP6 SWAP5 POP POP POP POP POP JUMP JUMPDEST PUSH1 0x1 PUSH1 0x1 PUSH1 0xA0 SHL SUB DUP4 AND PUSH1 0x0 SWAP1 DUP2 MSTORE PUSH1 0x2 PUSH1 0x20 SWAP1 DUP2 MSTORE PUSH1 0x40 DUP1 DUP4 KECCAK256 DUP1 SLOAD DUP3 MLOAD DUP2 DUP6 MUL DUP2 ADD DUP6 ADD SWAP1 SWAP4 MSTORE DUP1 DUP4 MSTORE PUSH1 0x60 SWAP5 SWAP4 DUP5 SWAP1 DUP5 ADD JUMPDEST DUP3 DUP3 LT ISZERO PUSH2 0x245D JUMPI PUSH1 0x0 DUP5 DUP2 MSTORE PUSH1 0x20 SWAP1 DUP2 SWAP1 KECCAK256 PUSH1 0x40 DUP1 MLOAD PUSH2 0x100 DUP2 ADD DUP3 MSTORE PUSH1 0x8 DUP7 MUL SWAP1 SWAP3 ADD DUP1 SLOAD PUSH1 0x1 PUSH1 0x1 PUSH1 0xA0 SHL SUB SWAP1 DUP2 AND DUP5 MSTORE PUSH1 0x1 DUP3 ADD SLOAD AND SWAP4 DUP4 ADD SWAP4 SWAP1 SWAP4 MSTORE PUSH1 0x2 DUP4 ADD DUP1 SLOAD SWAP3 SWAP4 SWAP3 SWAP2 DUP5 ADD SWAP2 PUSH2 0x21D9 SWAP1 PUSH2 0x69D0 JUMP JUMPDEST DUP1 PUSH1 0x1F ADD PUSH1 0x20 DUP1 SWAP2 DIV MUL PUSH1 0x20 ADD PUSH1 0x40 MLOAD SWAP1 DUP2 ADD PUSH1 0x40 MSTORE DUP1 SWAP3 SWAP2 SWAP1 DUP2 DUP2 MSTORE PUSH1 0x20 ADD DUP3 DUP1 SLOAD PUSH2 0x2205 SWAP1 PUSH2 0x69D0 JUMP JUMPDEST DUP1 ISZERO PUSH2 0x2252 JUMPI DUP1 PUSH1 0x1F LT PUSH2 0x2227 JUMPI PUSH2 0x100 DUP1 DUP4 SLOAD DIV MUL DUP4 MSTORE SWAP2 PUSH1 0x20 ADD SWAP2 PUSH2 0x2252 JUMP JUMPDEST DUP3 ADD SWAP2 SWAP1 PUSH1 0x0 MSTORE PUSH1 0x20 PUSH1 0x0 KECCAK256 SWAP1 JUMPDEST DUP2 SLOAD DUP2 MSTORE SWAP1 PUSH1 0x1 ADD SWAP1 PUSH1 0x20 ADD DUP1 DUP4 GT PUSH2 0x2235 JUMPI DUP3 SWAP1 SUB PUSH1 0x1F AND DUP3 ADD SWAP2 JUMPDEST POP POP POP POP POP DUP2 MSTORE PUSH1 0x20 ADD PUSH1 0x3 DUP3 ADD DUP1 SLOAD PUSH2 0x226B SWAP1 PUSH2 0x69D0 JUMP JUMPDEST DUP1 PUSH1 0x1F ADD PUSH1 0x20 DUP1 SWAP2 DIV MUL PUSH1 0x20 ADD PUSH1 0x40 MLOAD SWAP1 DUP2 ADD PUSH1 0x40 MSTORE DUP1 SWAP3 SWAP2 SWAP1 DUP2 DUP2 MSTORE PUSH1 0x20 ADD DUP3 DUP1 SLOAD PUSH2 0x2297 SWAP1 PUSH2 0x69D0 JUMP JUMPDEST DUP1 ISZERO PUSH2 0x22E4 JUMPI DUP1 PUSH1 0x1F LT PUSH2 0x22B9 JUMPI PUSH2 0x100 DUP1 DUP4 SLOAD DIV MUL DUP4 MSTORE SWAP2 PUSH1 0x20 ADD SWAP2 PUSH2 0x22E4 JUMP JUMPDEST DUP3 ADD SWAP2 SWAP1 PUSH1 0x0 MSTORE PUSH1 0x20 PUSH1 0x0 KECCAK256 SWAP1 JUMPDEST DUP2 SLOAD DUP2 MSTORE SWAP1 PUSH1 0x1 ADD SWAP1 PUSH1 0x20 ADD DUP1 DUP4 GT PUSH2 0x22C7 JUMPI DUP3 SWAP1 SUB PUSH1 0x1F AND DUP3 ADD SWAP2 JUMPDEST POP POP POP POP POP DUP2 MSTORE PUSH1 0x20 ADD PUSH1 0x4 DUP3 ADD DUP1 SLOAD PUSH2 0x22FD SWAP1 PUSH2 0x69D0 JUMP JUMPDEST DUP1 PUSH1 0x1F ADD PUSH1 0x20 DUP1 SWAP2 DIV MUL PUSH1 0x20 ADD PUSH1 0x40 MLOAD SWAP1 DUP2 ADD PUSH1 0x40 MSTORE DUP1 SWAP3 SWAP2 SWAP1 DUP2 DUP2 MSTORE PUSH1 0x20 ADD DUP3 DUP1 SLOAD PUSH2 0x2329 SWAP1 PUSH2 0x69D0 JUMP JUMPDEST DUP1 ISZERO PUSH2 0x2376 JUMPI DUP1 PUSH1 0x1F LT PUSH2 0x234B JUMPI PUSH2 0x100 DUP1 DUP4 SLOAD DIV MUL DUP4 MSTORE SWAP2 PUSH1 0x20 ADD SWAP2 PUSH2 0x2376 JUMP JUMPDEST DUP3 ADD SWAP2 SWAP1 PUSH1 0x0 MSTORE PUSH1 0x20 PUSH1 0x0 KECCAK256 SWAP1 JUMPDEST DUP2 SLOAD DUP2 MSTORE SWAP1 PUSH1 0x1 ADD SWAP1 PUSH1 0x20 ADD DUP1 DUP4 GT PUSH2 0x2359 JUMPI DUP3 SWAP1 SUB PUSH1 0x1F AND DUP3 ADD SWAP2 JUMPDEST POP POP POP POP POP DUP2 MSTORE PUSH1 0x20 ADD PUSH1 0x5 DUP3 ADD DUP1 SLOAD PUSH2 0x238F SWAP1 PUSH2 0x69D0 JUMP JUMPDEST DUP1 PUSH1 0x1F ADD PUSH1 0x20 DUP1 SWAP2 DIV MUL PUSH1 0x20 ADD PUSH1 0x40 MLOAD SWAP1 DUP2 ADD PUSH1 0x40 MSTORE DUP1 SWAP3 SWAP2 SWAP1 DUP2 DUP2 MSTORE PUSH1 0x20 ADD DUP3 DUP1 SLOAD PUSH2 0x23BB SWAP1 PUSH2 0x69D0 JUMP JUMPDEST DUP1 ISZERO PUSH2 0x2408 JUMPI DUP1 PUSH1 0x1F LT PUSH2 0x23DD JUMPI PUSH2 0x100 DUP1 DUP4 SLOAD DIV MUL DUP4 MSTORE SWAP2 PUSH1 0x20 ADD SWAP2 PUSH2 0x2408 JUMP JUMPDEST DUP3 ADD SWAP2 SWAP1 PUSH1 0x0 MSTORE PUSH1 0x20 PUSH1 0x0 KECCAK256 SWAP1 JUMPDEST DUP2 SLOAD DUP2 MSTORE SWAP1 PUSH1 0x1 ADD SWAP1 PUSH1 0x20 ADD DUP1 DUP4 GT PUSH2 0x23EB JUMPI DUP3 SWAP1 SUB PUSH1 0x1F AND DUP3 ADD SWAP2 JUMPDEST POP POP POP SWAP2 DUP4 MSTORE POP POP PUSH1 0x6 DUP3 ADD SLOAD PUSH1 0x20 SWAP1 SWAP2 ADD SWAP1 PUSH1 0xFF AND PUSH1 0x1 DUP2 GT ISZERO PUSH2 0x242F JUMPI PUSH2 0x242F PUSH2 0x632F JUMP JUMPDEST PUSH1 0x1 DUP2 GT ISZERO PUSH2 0x2440 JUMPI PUSH2 0x2440 PUSH2 0x632F JUMP JUMPDEST DUP2 MSTORE PUSH1 0x20 ADD PUSH1 0x7 DUP3 ADD SLOAD DUP2 MSTORE POP POP DUP2 MSTORE PUSH1 0x20 ADD SWAP1 PUSH1 0x1 ADD SWAP1 PUSH2 0x2182 JUMP JUMPDEST POP POP POP POP SWAP1 POP DUP5 PUSH1 0x1 PUSH1 0x1 PUSH1 0xA0 SHL SUB AND CALLER PUSH1 0x1 PUSH1 0x1 PUSH1 0xA0 SHL SUB AND SUB PUSH2 0x2597 JUMPI DUP1 MLOAD DUP5 LT PUSH2 0x24BE JUMPI PUSH1 0x40 DUP1 MLOAD PUSH1 0x0 DUP1 DUP3 MSTORE PUSH1 0x20 DUP3 ADD SWAP1 SWAP3 MSTORE SWAP1 PUSH2 0x24B5 JUMP JUMPDEST PUSH2 0x24A2 PUSH2 0x5CB3 JUMP JUMPDEST DUP2 MSTORE PUSH1 0x20 ADD SWAP1 PUSH1 0x1 SWAP1 SUB SWAP1 DUP2 PUSH2 0x249A JUMPI SWAP1 POP JUMPDEST POP SWAP2 POP POP PUSH2 0x1A27 JUMP JUMPDEST PUSH1 0x0 PUSH2 0x24CA DUP5 DUP7 PUSH2 0x6E18 JUMP JUMPDEST SWAP1 POP DUP2 MLOAD DUP2 GT ISZERO PUSH2 0x24D9 JUMPI POP DUP1 MLOAD JUMPDEST PUSH1 0x0 PUSH2 0x24E5 DUP7 DUP4 PUSH2 0x69BD JUMP JUMPDEST PUSH1 0x1 PUSH1 0x1 PUSH1 0x40 SHL SUB DUP2 GT ISZERO PUSH2 0x24FC JUMPI PUSH2 0x24FC PUSH2 0x5ECF JUMP JUMPDEST PUSH1 0x40 MLOAD SWAP1 DUP1 DUP3 MSTORE DUP1 PUSH1 0x20 MUL PUSH1 0x20 ADD DUP3 ADD PUSH1 0x40 MSTORE DUP1 ISZERO PUSH2 0x2535 JUMPI DUP2 PUSH1 0x20 ADD JUMPDEST PUSH2 0x2522 PUSH2 0x5CB3 JUMP JUMPDEST DUP2 MSTORE PUSH1 0x20 ADD SWAP1 PUSH1 0x1 SWAP1 SUB SWAP1 DUP2 PUSH2 0x251A JUMPI SWAP1 POP JUMPDEST POP SWAP1 POP DUP6 JUMPDEST DUP3 DUP2 LT ISZERO PUSH2 0x258C JUMPI DUP4 DUP2 DUP2 MLOAD DUP2 LT PUSH2 0x2554 JUMPI PUSH2 0x2554 PUSH2 0x6991 JUMP JUMPDEST PUSH1 0x20 MUL PUSH1 0x20 ADD ADD MLOAD DUP3 DUP9 DUP4 PUSH2 0x2569 SWAP2 SWAP1 PUSH2 0x69BD JUMP JUMPDEST DUP2 MLOAD DUP2 LT PUSH2 0x2579 JUMPI PUSH2 0x2579 PUSH2 0x6991 JUMP JUMPDEST PUSH1 0x20 SWAP1 DUP2 MUL SWAP2 SWAP1 SWAP2 ADD ADD MSTORE PUSH1 0x1 ADD PUSH2 0x253A JUMP JUMPDEST POP SWAP3 POP PUSH2 0x1A27 SWAP2 POP POP JUMP JUMPDEST PUSH1 0x0 DUP1 JUMPDEST DUP3 MLOAD DUP2 LT ISZERO PUSH2 0x25F0 JUMPI PUSH1 0x0 DUP4 DUP3 DUP2 MLOAD DUP2 LT PUSH2 0x25B8 JUMPI PUSH2 0x25B8 PUSH2 0x6991 JUMP JUMPDEST PUSH1 0x20 MUL PUSH1 0x20 ADD ADD MLOAD PUSH1 0xC0 ADD MLOAD PUSH1 0x1 DUP2 GT ISZERO PUSH2 0x25D5 JUMPI PUSH2 0x25D5 PUSH2 0x632F JUMP JUMPDEST SUB PUSH2 0x25E8 JUMPI DUP2 PUSH2 0x25E4 DUP2 PUSH2 0x6DFF JUMP JUMPDEST SWAP3 POP POP JUMPDEST PUSH1 0x1 ADD PUSH2 0x259B JUMP JUMPDEST POP DUP1 DUP6 LT PUSH2 0x2633 JUMPI PUSH1 0x40 DUP1 MLOAD PUSH1 0x0 DUP1 DUP3 MSTORE PUSH1 0x20 DUP3 ADD SWAP1 SWAP3 MSTORE SWAP1 PUSH2 0x2629 JUMP JUMPDEST PUSH2 0x2616 PUSH2 0x5CB3 JUMP JUMPDEST DUP2 MSTORE PUSH1 0x20 ADD SWAP1 PUSH1 0x1 SWAP1 SUB SWAP1 DUP2 PUSH2 0x260E JUMPI SWAP1 POP JUMPDEST POP SWAP3 POP POP POP PUSH2 0x1A27 JUMP JUMPDEST DUP4 DUP2 PUSH2 0x263F DUP3 DUP9 PUSH2 0x6E18 JUMP JUMPDEST GT ISZERO PUSH2 0x2652 JUMPI PUSH2 0x264F DUP7 DUP4 PUSH2 0x69BD JUMP JUMPDEST SWAP1 POP JUMPDEST PUSH1 0x0 DUP2 PUSH1 0x1 PUSH1 0x1 PUSH1 0x40 SHL SUB DUP2 GT ISZERO PUSH2 0x266C JUMPI PUSH2 0x266C PUSH2 0x5ECF JUMP JUMPDEST PUSH1 0x40 MLOAD SWAP1 DUP1 DUP3 MSTORE DUP1 PUSH1 0x20 MUL PUSH1 0x20 ADD DUP3 ADD PUSH1 0x40 MSTORE DUP1 ISZERO PUSH2 0x26A5 JUMPI DUP2 PUSH1 0x20 ADD JUMPDEST PUSH2 0x2692 PUSH2 0x5CB3 JUMP JUMPDEST DUP2 MSTORE PUSH1 0x20 ADD SWAP1 PUSH1 0x1 SWAP1 SUB SWAP1 DUP2 PUSH2 0x268A JUMPI SWAP1 POP JUMPDEST POP SWAP1 POP PUSH1 0x0 DUP1 PUSH1 0x0 JUMPDEST DUP7 MLOAD DUP2 LT DUP1 ISZERO PUSH2 0x26BD JUMPI POP DUP5 DUP3 LT JUMPDEST ISZERO PUSH2 0x2765 JUMPI PUSH1 0x0 DUP8 DUP3 DUP2 MLOAD DUP2 LT PUSH2 0x26D6 JUMPI PUSH2 0x26D6 PUSH2 0x6991 JUMP JUMPDEST PUSH1 0x20 MUL PUSH1 0x20 ADD ADD MLOAD PUSH1 0xC0 ADD MLOAD PUSH1 0x1 DUP2 GT ISZERO PUSH2 0x26F3 JUMPI PUSH2 0x26F3 PUSH2 0x632F JUMP JUMPDEST SUB PUSH2 0x2753 JUMPI DUP10 DUP4 LT PUSH2 0x2745 JUMPI DUP7 DUP2 DUP2 MLOAD DUP2 LT PUSH2 0x2711 JUMPI PUSH2 0x2711 PUSH2 0x6991 JUMP JUMPDEST PUSH1 0x20 MUL PUSH1 0x20 ADD ADD MLOAD DUP5 DUP4 DUP2 MLOAD DUP2 LT PUSH2 0x272B JUMPI PUSH2 0x272B PUSH2 0x6991 JUMP JUMPDEST PUSH1 0x20 MUL PUSH1 0x20 ADD ADD DUP2 SWAP1 MSTORE POP DUP2 DUP1 PUSH2 0x2741 SWAP1 PUSH2 0x6DFF JUMP JUMPDEST SWAP3 POP POP JUMPDEST DUP3 PUSH2 0x274F DUP2 PUSH2 0x6DFF JUMP JUMPDEST SWAP4 POP POP JUMPDEST DUP1 PUSH2 0x275D DUP2 PUSH2 0x6DFF JUMP JUMPDEST SWAP2 POP POP PUSH2 0x26AE JUMP JUMPDEST POP SWAP2 SWAP10 SWAP9 POP POP POP POP POP POP POP POP POP JUMP JUMPDEST CALLER PUSH1 0x0 SWAP1 DUP2 MSTORE PUSH1 0x2 PUSH1 0x20 SWAP1 DUP2 MSTORE PUSH1 0x40 DUP1 DUP4 KECCAK256 DUP1 SLOAD DUP3 MLOAD DUP2 DUP6 MUL DUP2 ADD DUP6 ADD SWAP1 SWAP4 MSTORE DUP1 DUP4 MSTORE PUSH1 0x60 SWAP5 SWAP4 DUP5 SWAP1 DUP5 ADD JUMPDEST DUP3 DUP3 LT ISZERO PUSH2 0x2A7B JUMPI PUSH1 0x0 DUP5 DUP2 MSTORE PUSH1 0x20 SWAP1 DUP2 SWAP1 KECCAK256 PUSH1 0x40 DUP1 MLOAD PUSH2 0x100 DUP2 ADD DUP3 MSTORE PUSH1 0x8 DUP7 MUL SWAP1 SWAP3 ADD DUP1 SLOAD PUSH1 0x1 PUSH1 0x1 PUSH1 0xA0 SHL SUB SWAP1 DUP2 AND DUP5 MSTORE PUSH1 0x1 DUP3 ADD SLOAD AND SWAP4 DUP4 ADD SWAP4 SWAP1 SWAP4 MSTORE PUSH1 0x2 DUP4 ADD DUP1 SLOAD SWAP3 SWAP4 SWAP3 SWAP2 DUP5 ADD SWAP2 PUSH2 0x27F7 SWAP1 PUSH2 0x69D0 JUMP JUMPDEST DUP1 PUSH1 0x1F ADD PUSH1 0x20 DUP1 SWAP2 DIV MUL PUSH1 0x20 ADD PUSH1 0x40 MLOAD SWAP1 DUP2 ADD PUSH1 0x40 MSTORE DUP1 SWAP3 SWAP2 SWAP1 DUP2 DUP2 MSTORE PUSH1 0x20 ADD DUP3 DUP1 SLOAD PUSH2 0x2823 SWAP1 PUSH2 0x69D0 JUMP JUMPDEST DUP1 ISZERO PUSH2 0x2870 JUMPI DUP1 PUSH1 0x1F LT PUSH2 0x2845 JUMPI PUSH2 0x100 DUP1 DUP4 SLOAD DIV MUL DUP4 MSTORE SWAP2 PUSH1 0x20 ADD SWAP2 PUSH2 0x2870 JUMP JUMPDEST DUP3 ADD SWAP2 SWAP1 PUSH1 0x0 MSTORE PUSH1 0x20 PUSH1 0x0 KECCAK256 SWAP1 JUMPDEST DUP2 SLOAD DUP2 MSTORE SWAP1 PUSH1 0x1 ADD SWAP1 PUSH1 0x20 ADD DUP1 DUP4 GT PUSH2 0x2853 JUMPI DUP3 SWAP1 SUB PUSH1 0x1F AND DUP3 ADD SWAP2 JUMPDEST POP POP POP POP POP DUP2 MSTORE PUSH1 0x20 ADD PUSH1 0x3 DUP3 ADD DUP1 SLOAD PUSH2 0x2889 SWAP1 PUSH2 0x69D0 JUMP JUMPDEST DUP1 PUSH1 0x1F ADD PUSH1 0x20 DUP1 SWAP2 DIV MUL PUSH1 0x20 ADD PUSH1 0x40 MLOAD SWAP1 DUP2 ADD PUSH1 0x40 MSTORE DUP1 SWAP3 SWAP2 SWAP1 DUP2 DUP2 MSTORE PUSH1 0x20 ADD DUP3 DUP1 SLOAD PUSH2 0x28B5 SWAP1 PUSH2 0x69D0 JUMP JUMPDEST DUP1 ISZERO PUSH2 0x2902 JUMPI DUP1 PUSH1 0x1F LT PUSH2 0x28D7 JUMPI PUSH2 0x100 DUP1 DUP4 SLOAD DIV MUL DUP4 MSTORE SWAP2 PUSH1 0x20 ADD SWAP2 PUSH2 0x2902 JUMP JUMPDEST DUP3 ADD SWAP2 SWAP1 PUSH1 0x0 MSTORE PUSH1 0x20 PUSH1 0x0 KECCAK256 SWAP1 JUMPDEST DUP2 SLOAD DUP2 MSTORE SWAP1 PUSH1 0x1 ADD SWAP1 PUSH1 0x20 ADD DUP1 DUP4 GT PUSH2 0x28E5 JUMPI DUP3 SWAP1 SUB PUSH1 0x1F AND DUP3 ADD SWAP2 JUMPDEST POP POP POP POP POP DUP2 MSTORE PUSH1 0x20 ADD PUSH1 0x4 DUP3 ADD DUP1 SLOAD PUSH2 0x291B SWAP1 PUSH2 0x69D0 JUMP JUMPDEST DUP1 PUSH1 0x1F ADD PUSH1 0x20 DUP1 SWAP2 DIV MUL PUSH1 0x20 ADD PUSH1 0x40 MLOAD SWAP1 DUP2 ADD PUSH1 0x40 MSTORE DUP1 SWAP3 SWAP2 SWAP1 DUP2 DUP2 MSTORE PUSH1 0x20 ADD DUP3 DUP1 SLOAD PUSH2 0x2947 SWAP1 PUSH2 0x69D0 JUMP JUMPDEST DUP1 ISZERO PUSH2 0x2994 JUMPI DUP1 PUSH1 0x1F LT PUSH2 0x2969 JUMPI PUSH2 0x100 DUP1 DUP4 SLOAD DIV MUL DUP4 MSTORE SWAP2 PUSH1 0x20 ADD SWAP2 PUSH2 0x2994 JUMP JUMPDEST DUP3 ADD SWAP2 SWAP1 PUSH1 0x0 MSTORE PUSH1 0x20 PUSH1 0x0 KECCAK256 SWAP1 JUMPDEST DUP2 SLOAD DUP2 MSTORE SWAP1 PUSH1 0x1 ADD SWAP1 PUSH1 0x20 ADD DUP1 DUP4 GT PUSH2 0x2977 JUMPI DUP3 SWAP1 SUB PUSH1 0x1F AND DUP3 ADD SWAP2 JUMPDEST POP POP POP POP POP DUP2 MSTORE PUSH1 0x20 ADD PUSH1 0x5 DUP3 ADD DUP1 SLOAD PUSH2 0x29AD SWAP1 PUSH2 0x69D0 JUMP JUMPDEST DUP1 PUSH1 0x1F ADD PUSH1 0x20 DUP1 SWAP2 DIV MUL PUSH1 0x20 ADD PUSH1 0x40 MLOAD SWAP1 DUP2 ADD PUSH1 0x40 MSTORE DUP1 SWAP3 SWAP2 SWAP1 DUP2 DUP2 MSTORE PUSH1 0x20 ADD DUP3 DUP1 SLOAD PUSH2 0x29D9 SWAP1 PUSH2 0x69D0 JUMP JUMPDEST DUP1 ISZERO PUSH2 0x2A26 JUMPI DUP1 PUSH1 0x1F LT PUSH2 0x29FB JUMPI PUSH2 0x100 DUP1 DUP4 SLOAD DIV MUL DUP4 MSTORE SWAP2 PUSH1 0x20 ADD SWAP2 PUSH2 0x2A26 JUMP JUMPDEST DUP3 ADD SWAP2 SWAP1 PUSH1 0x0 MSTORE PUSH1 0x20 PUSH1 0x0 KECCAK256 SWAP1 JUMPDEST DUP2 SLOAD DUP2 MSTORE SWAP1 PUSH1 0x1 ADD SWAP1 PUSH1 0x20 ADD DUP1 DUP4 GT PUSH2 0x2A09 JUMPI DUP3 SWAP1 SUB PUSH1 0x1F AND DUP3 ADD SWAP2 JUMPDEST POP POP POP SWAP2 DUP4 MSTORE POP POP PUSH1 0x6 DUP3 ADD SLOAD PUSH1 0x20 SWAP1 SWAP2 ADD SWAP1 PUSH1 0xFF AND PUSH1 0x1 DUP2 GT ISZERO PUSH2 0x2A4D JUMPI PUSH2 0x2A4D PUSH2 0x632F JUMP JUMPDEST PUSH1 0x1 DUP2 GT ISZERO PUSH2 0x2A5E JUMPI PUSH2 0x2A5E PUSH2 0x632F JUMP JUMPDEST DUP2 MSTORE PUSH1 0x20 ADD PUSH1 0x7 DUP3 ADD SLOAD DUP2 MSTORE POP POP DUP2 MSTORE PUSH1 0x20 ADD SWAP1 PUSH1 0x1 ADD SWAP1 PUSH2 0x27A0 JUMP JUMPDEST POP POP POP POP SWAP1 POP PUSH1 0x0 DUP2 MLOAD PUSH1 0x1 PUSH1 0x1 PUSH1 0x40 SHL SUB DUP2 GT ISZERO PUSH2 0x2A9C JUMPI PUSH2 0x2A9C PUSH2 0x5ECF JUMP JUMPDEST PUSH1 0x40 MLOAD SWAP1 DUP1 DUP3 MSTORE DUP1 PUSH1 0x20 MUL PUSH1 0x20 ADD DUP3 ADD PUSH1 0x40 MSTORE DUP1 ISZERO PUSH2 0x2ACF JUMPI DUP2 PUSH1 0x20 ADD JUMPDEST PUSH1 0x60 DUP2 MSTORE PUSH1 0x20 ADD SWAP1 PUSH1 0x1 SWAP1 SUB SWAP1 DUP2 PUSH2 0x2ABA JUMPI SWAP1 POP JUMPDEST POP SWAP1 POP PUSH1 0x0 JUMPDEST DUP3 MLOAD DUP2 LT ISZERO PUSH2 0x2B21 JUMPI DUP3 DUP2 DUP2 MLOAD DUP2 LT PUSH2 0x2AF0 JUMPI PUSH2 0x2AF0 PUSH2 0x6991 JUMP JUMPDEST PUSH1 0x20 MUL PUSH1 0x20 ADD ADD MLOAD PUSH1 0xA0 ADD MLOAD DUP3 DUP3 DUP2 MLOAD DUP2 LT PUSH2 0x2B0E JUMPI PUSH2 0x2B0E PUSH2 0x6991 JUMP JUMPDEST PUSH1 0x20 SWAP1 DUP2 MUL SWAP2 SWAP1 SWAP2 ADD ADD MSTORE PUSH1 0x1 ADD PUSH2 0x2AD5 JUMP JUMPDEST POP SWAP3 SWAP2 POP POP JUMP JUMPDEST PUSH1 0x60 PUSH1 0xC DUP1 SLOAD DUP1 PUSH1 0x20 MUL PUSH1 0x20 ADD PUSH1 0x40 MLOAD SWAP1 DUP2 ADD PUSH1 0x40 MSTORE DUP1 SWAP3 SWAP2 SWAP1 DUP2 DUP2 MSTORE PUSH1 0x20 ADD PUSH1 0x0 SWAP1 JUMPDEST DUP3 DUP3 LT ISZERO PUSH2 0x137D JUMPI DUP4 DUP3 SWAP1 PUSH1 0x0 MSTORE PUSH1 0x20 PUSH1 0x0 KECCAK256 ADD DUP1 SLOAD PUSH2 0x2B6B SWAP1 PUSH2 0x69D0 JUMP JUMPDEST DUP1 PUSH1 0x1F ADD PUSH1 0x20 DUP1 SWAP2 DIV MUL PUSH1 0x20 ADD PUSH1 0x40 MLOAD SWAP1 DUP2 ADD PUSH1 0x40 MSTORE DUP1 SWAP3 SWAP2 SWAP1 DUP2 DUP2 MSTORE PUSH1 0x20 ADD DUP3 DUP1 SLOAD PUSH2 0x2B97 SWAP1 PUSH2 0x69D0 JUMP JUMPDEST DUP1 ISZERO PUSH2 0x2BE4 JUMPI DUP1 PUSH1 0x1F LT PUSH2 0x2BB9 JUMPI PUSH2 0x100 DUP1 DUP4 SLOAD DIV MUL DUP4 MSTORE SWAP2 PUSH1 0x20 ADD SWAP2 PUSH2 0x2BE4 JUMP JUMPDEST DUP3 ADD SWAP2 SWAP1 PUSH1 0x0 MSTORE PUSH1 0x20 PUSH1 0x0 KECCAK256 SWAP1 JUMPDEST DUP2 SLOAD DUP2 MSTORE SWAP1 PUSH1 0x1 ADD SWAP1 PUSH1 0x20 ADD DUP1 DUP4 GT PUSH2 0x2BC7 JUMPI DUP3 SWAP1 SUB PUSH1 0x1F AND DUP3 ADD SWAP2 JUMPDEST POP POP POP POP POP DUP2 MSTORE PUSH1 0x20 ADD SWAP1 PUSH1 0x1 ADD SWAP1 PUSH2 0x2B4C JUMP JUMPDEST PUSH1 0x0 DUP6 MLOAD GT PUSH2 0x2C19 JUMPI PUSH1 0x40 MLOAD PUSH3 0x461BCD PUSH1 0xE5 SHL DUP2 MSTORE PUSH1 0x4 ADD PUSH2 0x5D9 SWAP1 PUSH2 0x693E JUMP JUMPDEST PUSH1 0x4 DUP3 PUSH1 0xFF AND GT ISZERO DUP1 PUSH2 0x2C2F JUMPI POP DUP2 PUSH1 0xFF AND PUSH1 0xFF EQ JUMPDEST PUSH2 0x2C94 JUMPI PUSH1 0x40 MLOAD PUSH3 0x461BCD PUSH1 0xE5 SHL DUP2 MSTORE PUSH1 0x20 PUSH1 0x4 DUP3 ADD MSTORE PUSH1 0x30 PUSH1 0x24 DUP3 ADD MSTORE PUSH32 0x496E76616C696420726F6C653A206D75737420626520302D34206F7220323535 PUSH1 0x44 DUP3 ADD MSTORE PUSH16 0x20286B656570206578697374696E6729 PUSH1 0x80 SHL PUSH1 0x64 DUP3 ADD MSTORE PUSH1 0x84 ADD PUSH2 0x5D9 JUMP JUMPDEST CALLER PUSH1 0x0 SWAP1 DUP2 MSTORE PUSH1 0x5 PUSH1 0x20 MSTORE PUSH1 0x40 DUP1 DUP3 KECCAK256 SWAP1 MLOAD PUSH2 0x2CB1 SWAP1 DUP9 SWAP1 PUSH2 0x6975 JUMP JUMPDEST SWAP1 DUP2 MSTORE PUSH1 0x20 ADD PUSH1 0x40 MLOAD DUP1 SWAP2 SUB SWAP1 KECCAK256 SWAP1 POP PUSH1 0x0 JUMPDEST DUP2 SLOAD DUP2 LT ISZERO PUSH2 0x2E9E JUMPI DUP6 PUSH1 0x1 PUSH1 0x1 PUSH1 0xA0 SHL SUB AND DUP3 DUP3 DUP2 SLOAD DUP2 LT PUSH2 0x2CE9 JUMPI PUSH2 0x2CE9 PUSH2 0x6991 JUMP JUMPDEST PUSH1 0x0 SWAP2 DUP3 MSTORE PUSH1 0x20 SWAP1 SWAP2 KECCAK256 PUSH1 0x4 SWAP1 SWAP2 MUL ADD SLOAD PUSH1 0x1 PUSH1 0x1 PUSH1 0xA0 SHL SUB AND SUB PUSH2 0x2E96 JUMPI PUSH1 0x40 DUP1 MLOAD DUP1 DUP3 ADD SWAP1 SWAP2 MSTORE PUSH1 0x5 DUP2 MSTORE PUSH4 0x4B45455 PUSH1 0xDC SHL PUSH1 0x20 SWAP2 DUP3 ADD MSTORE DUP6 MLOAD SWAP1 DUP7 ADD KECCAK256 PUSH32 0xB0837273B2DA8502395A7160F0BF01F6F8B7A45D6441089EEA6B5D9F33B83991 EQ PUSH2 0x2D82 JUMPI DUP5 DUP3 DUP3 DUP2 SLOAD DUP2 LT PUSH2 0x2D63 JUMPI PUSH2 0x2D63 PUSH2 0x6991 JUMP JUMPDEST SWAP1 PUSH1 0x0 MSTORE PUSH1 0x20 PUSH1 0x0 KECCAK256 SWAP1 PUSH1 0x4 MUL ADD PUSH1 0x1 ADD SWAP1 DUP2 PUSH2 0x2D80 SWAP2 SWAP1 PUSH2 0x6B8D JUMP JUMPDEST POP JUMPDEST DUP4 PUSH1 0xFF AND PUSH1 0xFF EQ PUSH2 0x2DCA JUMPI DUP4 DUP3 DUP3 DUP2 SLOAD DUP2 LT PUSH2 0x2DA0 JUMPI PUSH2 0x2DA0 PUSH2 0x6991 JUMP JUMPDEST SWAP1 PUSH1 0x0 MSTORE PUSH1 0x20 PUSH1 0x0 KECCAK256 SWAP1 PUSH1 0x4 MUL ADD PUSH1 0x2 ADD PUSH1 0x0 PUSH2 0x100 EXP DUP2 SLOAD DUP2 PUSH1 0xFF MUL NOT AND SWAP1 DUP4 PUSH1 0xFF AND MUL OR SWAP1 SSTORE POP JUMPDEST PUSH1 0x40 DUP1 MLOAD DUP1 DUP3 ADD SWAP1 SWAP2 MSTORE PUSH1 0x5 DUP2 MSTORE PUSH4 0x4B45455 PUSH1 0xDC SHL PUSH1 0x20 SWAP2 DUP3 ADD MSTORE DUP4 MLOAD SWAP1 DUP5 ADD KECCAK256 PUSH32 0xB0837273B2DA8502395A7160F0BF01F6F8B7A45D6441089EEA6B5D9F33B83991 EQ PUSH2 0x2E44 JUMPI DUP3 DUP3 DUP3 DUP2 SLOAD DUP2 LT PUSH2 0x2E25 JUMPI PUSH2 0x2E25 PUSH2 0x6991 JUMP JUMPDEST SWAP1 PUSH1 0x0 MSTORE PUSH1 0x20 PUSH1 0x0 KECCAK256 SWAP1 PUSH1 0x4 MUL ADD PUSH1 0x3 ADD SWAP1 DUP2 PUSH2 0x2E42 SWAP2 SWAP1 PUSH2 0x6B8D JUMP JUMPDEST POP JUMPDEST DUP6 PUSH1 0x1 PUSH1 0x1 PUSH1 0xA0 SHL SUB AND CALLER PUSH1 0x1 PUSH1 0x1 PUSH1 0xA0 SHL SUB AND PUSH32 0xB66DABB959D5F3BDB53A39AA58D0975B39199C9B188AD8BB09A1B37BB7BF5979 DUP10 TIMESTAMP PUSH1 0x40 MLOAD PUSH2 0x2E89 SWAP3 SWAP2 SWAP1 PUSH2 0x6E2B JUMP JUMPDEST PUSH1 0x40 MLOAD DUP1 SWAP2 SUB SWAP1 LOG3 PUSH2 0x2E9E JUMP JUMPDEST PUSH1 0x1 ADD PUSH2 0x2CC4 JUMP JUMPDEST POP POP POP POP POP POP POP JUMP JUMPDEST PUSH1 0x1 PUSH1 0x1 PUSH1 0xA0 SHL SUB DUP2 AND PUSH1 0x0 SWAP1 DUP2 MSTORE PUSH1 0x3 PUSH1 0x20 SWAP1 DUP2 MSTORE PUSH1 0x40 DUP1 DUP4 KECCAK256 DUP1 SLOAD DUP3 MLOAD DUP2 DUP6 MUL DUP2 ADD DUP6 ADD SWAP1 SWAP4 MSTORE DUP1 DUP4 MSTORE PUSH1 0x60 SWAP5 SWAP3 SWAP4 SWAP2 SWAP3 SWAP1 SWAP2 DUP5 ADD JUMPDEST DUP3 DUP3 LT ISZERO PUSH2 0x1B12 JUMPI DUP4 DUP3 SWAP1 PUSH1 0x0 MSTORE PUSH1 0x20 PUSH1 0x0 KECCAK256 ADD DUP1 SLOAD PUSH2 0x2EFE SWAP1 PUSH2 0x69D0 JUMP JUMPDEST DUP1 PUSH1 0x1F ADD PUSH1 0x20 DUP1 SWAP2 DIV MUL PUSH1 0x20 ADD PUSH1 0x40 MLOAD SWAP1 DUP2 ADD PUSH1 0x40 MSTORE DUP1 SWAP3 SWAP2 SWAP1 DUP2 DUP2 MSTORE PUSH1 0x20 ADD DUP3 DUP1 SLOAD PUSH2 0x2F2A SWAP1 PUSH2 0x69D0 JUMP JUMPDEST DUP1 ISZERO PUSH2 0x2F77 JUMPI DUP1 PUSH1 0x1F LT PUSH2 0x2F4C JUMPI PUSH2 0x100 DUP1 DUP4 SLOAD DIV MUL DUP4 MSTORE SWAP2 PUSH1 0x20 ADD SWAP2 PUSH2 0x2F77 JUMP JUMPDEST DUP3 ADD SWAP2 SWAP1 PUSH1 0x0 MSTORE PUSH1 0x20 PUSH1 0x0 KECCAK256 SWAP1 JUMPDEST DUP2 SLOAD DUP2 MSTORE SWAP1 PUSH1 0x1 ADD SWAP1 PUSH1 0x20 ADD DUP1 DUP4 GT PUSH2 0x2F5A JUMPI DUP3 SWAP1 SUB PUSH1 0x1F AND DUP3 ADD SWAP2 JUMPDEST POP POP POP POP POP DUP2 MSTORE PUSH1 0x20 ADD SWAP1 PUSH1 0x1 ADD SWAP1 PUSH2 0x2EDF JUMP JUMPDEST CALLER PUSH1 0x1 PUSH1 0x1 PUSH1 0xA0 SHL SUB PUSH32 0x0 AND EQ PUSH2 0x3012 JUMPI PUSH1 0x40 MLOAD PUSH3 0x461BCD PUSH1 0xE5 SHL DUP2 MSTORE PUSH1 0x20 PUSH1 0x4 DUP3 ADD MSTORE PUSH1 0x26 PUSH1 0x24 DUP3 ADD MSTORE PUSH32 0x4F6E6C792073706F6E736F722063616E2072656D6F76652061646D696E697374 PUSH1 0x44 DUP3 ADD MSTORE PUSH6 0x7261746F7273 PUSH1 0xD0 SHL PUSH1 0x64 DUP3 ADD MSTORE PUSH1 0x84 ADD PUSH2 0x5D9 JUMP JUMPDEST PUSH1 0x1 PUSH1 0x1 PUSH1 0xA0 SHL SUB AND PUSH1 0x0 SWAP1 DUP2 MSTORE PUSH1 0xE PUSH1 0x20 MSTORE PUSH1 0x40 SWAP1 KECCAK256 DUP1 SLOAD PUSH1 0xFF NOT AND SWAP1 SSTORE JUMP JUMPDEST PUSH1 0x1 PUSH1 0x1 PUSH1 0xA0 SHL SUB DUP6 AND PUSH2 0x3089 JUMPI PUSH1 0x40 MLOAD PUSH3 0x461BCD PUSH1 0xE5 SHL DUP2 MSTORE PUSH1 0x20 PUSH1 0x4 DUP3 ADD DUP2 SWAP1 MSTORE PUSH1 0x24 DUP3 ADD MSTORE PUSH32 0x526563697069656E742063616E6E6F74206265207A65726F2061646472657373 PUSH1 0x44 DUP3 ADD MSTORE PUSH1 0x64 ADD PUSH2 0x5D9 JUMP JUMPDEST CALLER PUSH1 0x1 PUSH1 0x1 PUSH1 0xA0 SHL SUB DUP7 AND SUB PUSH2 0x30E1 JUMPI PUSH1 0x40 MLOAD PUSH3 0x461BCD PUSH1 0xE5 SHL DUP2 MSTORE PUSH1 0x20 PUSH1 0x4 DUP3 ADD MSTORE PUSH1 0x17 PUSH1 0x24 DUP3 ADD MSTORE PUSH32 0x43616E6E6F74206D65737361676520796F757273656C66000000000000000000 PUSH1 0x44 DUP3 ADD MSTORE PUSH1 0x64 ADD PUSH2 0x5D9 JUMP JUMPDEST PUSH1 0x0 DUP2 MLOAD GT PUSH2 0x312E JUMPI PUSH1 0x40 MLOAD PUSH3 0x461BCD PUSH1 0xE5 SHL DUP2 MSTORE PUSH1 0x20 PUSH1 0x4 DUP3 ADD MSTORE PUSH1 0x19 PUSH1 0x24 DUP3 ADD MSTORE PUSH25 0x4950465320686173682063616E6E6F7420626520656D707479 PUSH1 0x38 SHL PUSH1 0x44 DUP3 ADD MSTORE PUSH1 0x64 ADD PUSH2 0x5D9 JUMP JUMPDEST PUSH1 0x0 PUSH2 0x313A CALLER DUP8 PUSH2 0x41A1 JUMP JUMPDEST PUSH1 0x0 DUP2 DUP2 MSTORE PUSH1 0x1 PUSH1 0x20 MSTORE PUSH1 0x40 DUP2 KECCAK256 SLOAD SWAP2 SWAP3 POP SUB PUSH2 0x3195 JUMPI CALLER PUSH1 0x0 SWAP1 DUP2 MSTORE PUSH1 0x4 PUSH1 0x20 SWAP1 DUP2 MSTORE PUSH1 0x40 DUP1 DUP4 KECCAK256 DUP1 SLOAD PUSH1 0x1 DUP2 DUP2 ADD DUP4 SSTORE SWAP2 DUP6 MSTORE DUP4 DUP6 KECCAK256 ADD DUP6 SWAP1 SSTORE PUSH1 0x1 PUSH1 0x1 PUSH1 0xA0 SHL SUB DUP11 AND DUP5 MSTORE SWAP1 DUP4 KECCAK256 DUP1 SLOAD SWAP2 DUP3 ADD DUP2 SSTORE DUP4 MSTORE SWAP2 KECCAK256 ADD DUP2 SWAP1 SSTORE JUMPDEST PUSH1 0x1 PUSH1 0x0 DUP3 DUP2 MSTORE PUSH1 0x20 ADD SWAP1 DUP2 MSTORE PUSH1 0x20 ADD PUSH1 0x0 KECCAK256 PUSH1 0x40 MLOAD DUP1 PUSH2 0x100 ADD PUSH1 0x40 MSTORE DUP1 CALLER PUSH1 0x1 PUSH1 0x1 PUSH1 0xA0 SHL SUB AND DUP2 MSTORE PUSH1 0x20 ADD DUP9 PUSH1 0x1 PUSH1 0x1 PUSH1 0xA0 SHL SUB AND DUP2 MSTORE PUSH1 0x20 ADD DUP7 DUP2 MSTORE PUSH1 0x20 ADD DUP8 DUP2 MSTORE PUSH1 0x20 ADD DUP6 DUP2 MSTORE PUSH1 0x20 ADD DUP5 DUP2 MSTORE PUSH1 0x20 ADD PUSH1 0x1 DUP1 DUP2 GT ISZERO PUSH2 0x31FC JUMPI PUSH2 0x31FC PUSH2 0x632F JUMP JUMPDEST DUP2 MSTORE TIMESTAMP PUSH1 0x20 SWAP2 DUP3 ADD MSTORE DUP3 SLOAD PUSH1 0x1 DUP1 DUP3 ADD DUP6 SSTORE PUSH1 0x0 SWAP5 DUP6 MSTORE SWAP4 DUP3 SWAP1 KECCAK256 DUP4 MLOAD PUSH1 0x8 SWAP1 SWAP3 MUL ADD DUP1 SLOAD PUSH1 0x1 PUSH1 0x1 PUSH1 0xA0 SHL SUB NOT SWAP1 DUP2 AND PUSH1 0x1 PUSH1 0x1 PUSH1 0xA0 SHL SUB SWAP4 DUP5 AND OR DUP3 SSTORE SWAP3 DUP5 ADD MLOAD SWAP5 DUP2 ADD DUP1 SLOAD SWAP1 SWAP4 AND SWAP5 SWAP1 SWAP2 AND SWAP4 SWAP1 SWAP4 OR SWAP1 SSTORE PUSH1 0x40 DUP2 ADD MLOAD SWAP1 SWAP2 SWAP1 PUSH1 0x2 DUP3 ADD SWAP1 PUSH2 0x3268 SWAP1 DUP3 PUSH2 0x6B8D JUMP JUMPDEST POP PUSH1 0x60 DUP3 ADD MLOAD PUSH1 0x3 DUP3 ADD SWAP1 PUSH2 0x327D SWAP1 DUP3 PUSH2 0x6B8D JUMP JUMPDEST POP PUSH1 0x80 DUP3 ADD MLOAD PUSH1 0x4 DUP3 ADD SWAP1 PUSH2 0x3292 SWAP1 DUP3 PUSH2 0x6B8D JUMP JUMPDEST POP PUSH1 0xA0 DUP3 ADD MLOAD PUSH1 0x5 DUP3 ADD SWAP1 PUSH2 0x32A7 SWAP1 DUP3 PUSH2 0x6B8D JUMP JUMPDEST POP PUSH1 0xC0 DUP3 ADD MLOAD PUSH1 0x6 DUP3 ADD DUP1 SLOAD PUSH1 0xFF NOT AND PUSH1 0x1 DUP4 DUP2 DUP2 GT ISZERO PUSH2 0x32CA JUMPI PUSH2 0x32CA PUSH2 0x632F JUMP JUMPDEST MUL OR SWAP1 SSTORE POP PUSH1 0xE0 SWAP2 SWAP1 SWAP2 ADD MLOAD PUSH1 0x7 SWAP1 SWAP2 ADD SSTORE DUP5 MLOAD ISZERO PUSH2 0x330E JUMPI CALLER PUSH1 0x0 SWAP1 DUP2 MSTORE PUSH1 0x3 PUSH1 0x20 SWAP1 DUP2 MSTORE PUSH1 0x40 DUP3 KECCAK256 DUP1 SLOAD PUSH1 0x1 DUP2 ADD DUP3 SSTORE SWAP1 DUP4 MSTORE SWAP2 KECCAK256 ADD PUSH2 0x330C DUP7 DUP3 PUSH2 0x6B8D JUMP JUMPDEST POP JUMPDEST DUP6 PUSH1 0x1 PUSH1 0x1 PUSH1 0xA0 SHL SUB AND CALLER PUSH1 0x1 PUSH1 0x1 PUSH1 0xA0 SHL SUB AND PUSH32 0xB6E5BEA89E5044D66FF49940BA0401DB7BEC08DAACADB6D06705264874A40FEA DUP5 DUP7 TIMESTAMP PUSH1 0x40 MLOAD PUSH2 0xA2D SWAP4 SWAP3 SWAP2 SWAP1 PUSH2 0x6DA4 JUMP JUMPDEST CALLER PUSH1 0x1 PUSH1 0x1 PUSH1 0xA0 SHL SUB PUSH32 0x0 AND EQ DUP1 PUSH2 0x339B JUMPI POP CALLER PUSH1 0x0 SWAP1 DUP2 MSTORE PUSH1 0xE PUSH1 0x20 MSTORE PUSH1 0x40 SWAP1 KECCAK256 SLOAD PUSH1 0xFF AND JUMPDEST PUSH2 0x33FB JUMPI PUSH1 0x40 MLOAD PUSH3 0x461BCD PUSH1 0xE5 SHL DUP2 MSTORE PUSH1 0x20 PUSH1 0x4 DUP3 ADD MSTORE PUSH1 0x3B PUSH1 0x24 DUP3 ADD MSTORE PUSH1 0x0 DUP1 MLOAD PUSH1 0x20 PUSH2 0x6EAD DUP4 CODECOPY DUP2 MLOAD SWAP2 MSTORE PUSH1 0x44 DUP3 ADD MSTORE PUSH32 0x616E2064656C657465207075626C696320617474726962757465730000000000 PUSH1 0x64 DUP3 ADD MSTORE PUSH1 0x84 ADD PUSH2 0x5D9 JUMP JUMPDEST PUSH1 0xA DUP2 PUSH1 0x40 MLOAD PUSH2 0x340B SWAP2 SWAP1 PUSH2 0x6975 JUMP JUMPDEST SWAP1 DUP2 MSTORE PUSH1 0x20 ADD PUSH1 0x40 MLOAD DUP1 SWAP2 SUB SWAP1 KECCAK256 PUSH1 0x0 PUSH2 0x3425 SWAP2 SWAP1 PUSH2 0x5C76 JUMP JUMPDEST PUSH1 0x0 JUMPDEST PUSH1 0xC SLOAD DUP2 LT ISZERO PUSH2 0x1CC8 JUMPI DUP2 DUP1 MLOAD SWAP1 PUSH1 0x20 ADD KECCAK256 PUSH1 0xC DUP3 DUP2 SLOAD DUP2 LT PUSH2 0x344D JUMPI PUSH2 0x344D PUSH2 0x6991 JUMP JUMPDEST SWAP1 PUSH1 0x0 MSTORE PUSH1 0x20 PUSH1 0x0 KECCAK256 ADD PUSH1 0x40 MLOAD PUSH2 0x3464 SWAP2 SWAP1 PUSH2 0x6C87 JUMP JUMPDEST PUSH1 0x40 MLOAD DUP1 SWAP2 SUB SWAP1 KECCAK256 SUB PUSH2 0x34D6 JUMPI PUSH1 0xC DUP1 SLOAD PUSH2 0x3481 SWAP1 PUSH1 0x1 SWAP1 PUSH2 0x69BD JUMP JUMPDEST DUP2 SLOAD DUP2 LT PUSH2 0x3491 JUMPI PUSH2 0x3491 PUSH2 0x6991 JUMP JUMPDEST SWAP1 PUSH1 0x0 MSTORE PUSH1 0x20 PUSH1 0x0 KECCAK256 ADD PUSH1 0xC DUP3 DUP2 SLOAD DUP2 LT PUSH2 0x34AE JUMPI PUSH2 0x34AE PUSH2 0x6991 JUMP JUMPDEST SWAP1 PUSH1 0x0 MSTORE PUSH1 0x20 PUSH1 0x0 KECCAK256 ADD SWAP1 DUP2 PUSH2 0x34C4 SWAP2 SWAP1 PUSH2 0x6A56 JUMP JUMPDEST POP PUSH1 0xC DUP1 SLOAD DUP1 PUSH2 0x1C9E JUMPI PUSH2 0x1C9E PUSH2 0x6B35 JUMP JUMPDEST PUSH1 0x1 ADD PUSH2 0x3428 JUMP JUMPDEST CALLER PUSH1 0x1 PUSH1 0x1 PUSH1 0xA0 SHL SUB PUSH32 0x0 AND EQ DUP1 PUSH2 0x3524 JUMPI POP CALLER PUSH1 0x0 SWAP1 DUP2 MSTORE PUSH1 0xE PUSH1 0x20 MSTORE PUSH1 0x40 SWAP1 KECCAK256 SLOAD PUSH1 0xFF AND JUMPDEST PUSH2 0x3584 JUMPI PUSH1 0x40 MLOAD PUSH3 0x461BCD PUSH1 0xE5 SHL DUP2 MSTORE PUSH1 0x20 PUSH1 0x4 DUP3 ADD MSTORE PUSH1 0x38 PUSH1 0x24 DUP3 ADD MSTORE PUSH1 0x0 DUP1 MLOAD PUSH1 0x20 PUSH2 0x6EAD DUP4 CODECOPY DUP2 MLOAD SWAP2 MSTORE PUSH1 0x44 DUP3 ADD MSTORE PUSH32 0x616E20736574207075626C696320617474726962757465730000000000000000 PUSH1 0x64 DUP3 ADD MSTORE PUSH1 0x84 ADD PUSH2 0x5D9 JUMP JUMPDEST PUSH1 0x0 DUP3 MLOAD GT PUSH2 0x35CB JUMPI PUSH1 0x40 MLOAD PUSH3 0x461BCD PUSH1 0xE5 SHL DUP2 MSTORE PUSH1 0x20 PUSH1 0x4 DUP3 ADD MSTORE PUSH1 0x13 PUSH1 0x24 DUP3 ADD MSTORE PUSH19 0x4B65792063616E6E6F7420626520656D707479 PUSH1 0x68 SHL PUSH1 0x44 DUP3 ADD MSTORE PUSH1 0x64 ADD PUSH2 0x5D9 JUMP JUMPDEST PUSH1 0xA DUP3 PUSH1 0x40 MLOAD PUSH2 0x35DB SWAP2 SWAP1 PUSH2 0x6975 JUMP JUMPDEST SWAP1 DUP2 MSTORE PUSH1 0x20 ADD PUSH1 0x40 MLOAD DUP1 SWAP2 SUB SWAP1 KECCAK256 DUP1 SLOAD PUSH2 0x35F4 SWAP1 PUSH2 0x69D0 JUMP JUMPDEST SWAP1 POP PUSH1 0x0 SUB PUSH2 0x363B JUMPI PUSH1 0xC DUP1 SLOAD PUSH1 0x1 DUP2 ADD DUP3 SSTORE PUSH1 0x0 SWAP2 SWAP1 SWAP2 MSTORE PUSH32 0xDF6966C971051C3D54EC59162606531493A51404A002842F56009D7E5CF4A8C7 ADD PUSH2 0x3639 DUP4 DUP3 PUSH2 0x6B8D JUMP JUMPDEST POP JUMPDEST DUP1 PUSH1 0xA DUP4 PUSH1 0x40 MLOAD PUSH2 0x364C SWAP2 SWAP1 PUSH2 0x6975 JUMP JUMPDEST SWAP1 DUP2 MSTORE PUSH1 0x20 ADD PUSH1 0x40 MLOAD DUP1 SWAP2 SUB SWAP1 KECCAK256 SWAP1 DUP2 PUSH2 0x3666 SWAP2 SWAP1 PUSH2 0x6B8D JUMP JUMPDEST POP DUP2 PUSH1 0x40 MLOAD PUSH2 0x3675 SWAP2 SWAP1 PUSH2 0x6975 JUMP JUMPDEST PUSH1 0x40 DUP1 MLOAD SWAP2 DUP3 SWAP1 SUB DUP3 KECCAK256 PUSH1 0x1 DUP4 MSTORE TIMESTAMP PUSH1 0x20 DUP5 ADD MSTORE SWAP2 PUSH32 0x590120A97FEA9EAE0AB7F73633C407E0D9F528198B43F5ADED24FC1641466744 SWAP2 ADD JUMPDEST PUSH1 0x40 MLOAD DUP1 SWAP2 SUB SWAP1 LOG2 POP POP JUMP JUMPDEST PUSH1 0x60 PUSH1 0xA DUP3 PUSH1 0x40 MLOAD PUSH2 0x36CC SWAP2 SWAP1 PUSH2 0x6975 JUMP JUMPDEST SWAP1 DUP2 MSTORE PUSH1 0x20 ADD PUSH1 0x40 MLOAD DUP1 SWAP2 SUB SWAP1 KECCAK256 DUP1 SLOAD PUSH2 0x36E5 SWAP1 PUSH2 0x69D0 JUMP JUMPDEST DUP1 PUSH1 0x1F ADD PUSH1 0x20 DUP1 SWAP2 DIV MUL PUSH1 0x20 ADD PUSH1 0x40 MLOAD SWAP1 DUP2 ADD PUSH1 0x40 MSTORE DUP1 SWAP3 SWAP2 SWAP1 DUP2 DUP2 MSTORE PUSH1 0x20 ADD DUP3 DUP1 SLOAD PUSH2 0x3711 SWAP1 PUSH2 0x69D0 JUMP JUMPDEST DUP1 ISZERO PUSH2 0x375E JUMPI DUP1 PUSH1 0x1F LT PUSH2 0x3733 JUMPI PUSH2 0x100 DUP1 DUP4 SLOAD DIV MUL DUP4 MSTORE SWAP2 PUSH1 0x20 ADD SWAP2 PUSH2 0x375E JUMP JUMPDEST DUP3 ADD SWAP2 SWAP1 PUSH1 0x0 MSTORE PUSH1 0x20 PUSH1 0x0 KECCAK256 SWAP1 JUMPDEST DUP2 SLOAD DUP2 MSTORE SWAP1 PUSH1 0x1 ADD SWAP1 PUSH1 0x20 ADD DUP1 DUP4 GT PUSH2 0x3741 JUMPI DUP3 SWAP1 SUB PUSH1 0x1F AND DUP3 ADD SWAP2 JUMPDEST POP POP POP POP POP SWAP1 POP SWAP2 SWAP1 POP JUMP JUMPDEST PUSH1 0x1 PUSH1 0x1 PUSH1 0xA0 SHL SUB DUP4 AND PUSH1 0x0 SWAP1 DUP2 MSTORE PUSH1 0x5 PUSH1 0x20 MSTORE PUSH1 0x40 DUP1 DUP3 KECCAK256 SWAP1 MLOAD DUP3 SWAP2 SWAP1 PUSH2 0x3793 SWAP1 DUP7 SWAP1 PUSH2 0x6975 JUMP JUMPDEST SWAP1 DUP2 MSTORE PUSH1 0x20 ADD PUSH1 0x40 MLOAD DUP1 SWAP2 SUB SWAP1 KECCAK256 DUP1 SLOAD DUP1 PUSH1 0x20 MUL PUSH1 0x20 ADD PUSH1 0x40 MLOAD SWAP1 DUP2 ADD PUSH1 0x40 MSTORE DUP1 SWAP3 SWAP2 SWAP1 DUP2 DUP2 MSTORE PUSH1 0x20 ADD PUSH1 0x0 SWAP1 JUMPDEST DUP3 DUP3 LT ISZERO PUSH2 0x393E JUMPI PUSH1 0x0 DUP5 DUP2 MSTORE PUSH1 0x20 SWAP1 DUP2 SWAP1 KECCAK256 PUSH1 0x40 DUP1 MLOAD PUSH1 0x80 DUP2 ADD SWAP1 SWAP2 MSTORE PUSH1 0x4 DUP6 MUL SWAP1 SWAP2 ADD DUP1 SLOAD PUSH1 0x1 PUSH1 0x1 PUSH1 0xA0 SHL SUB AND DUP3 MSTORE PUSH1 0x1 DUP2 ADD DUP1 SLOAD SWAP3 SWAP4 SWAP2 SWAP3 SWAP2 DUP5 ADD SWAP2 PUSH2 0x380A SWAP1 PUSH2 0x69D0 JUMP JUMPDEST DUP1 PUSH1 0x1F ADD PUSH1 0x20 DUP1 SWAP2 DIV MUL PUSH1 0x20 ADD PUSH1 0x40 MLOAD SWAP1 DUP2 ADD PUSH1 0x40 MSTORE DUP1 SWAP3 SWAP2 SWAP1 DUP2 DUP2 MSTORE PUSH1 0x20 ADD DUP3 DUP1 SLOAD PUSH2 0x3836 SWAP1 PUSH2 0x69D0 JUMP JUMPDEST DUP1 ISZERO PUSH2 0x3883 JUMPI DUP1 PUSH1 0x1F LT PUSH2 0x3858 JUMPI PUSH2 0x100 DUP1 DUP4 SLOAD DIV MUL DUP4 MSTORE SWAP2 PUSH1 0x20 ADD SWAP2 PUSH2 0x3883 JUMP JUMPDEST DUP3 ADD SWAP2 SWAP1 PUSH1 0x0 MSTORE PUSH1 0x20 PUSH1 0x0 KECCAK256 SWAP1 JUMPDEST DUP2 SLOAD DUP2 MSTORE SWAP1 PUSH1 0x1 ADD SWAP1 PUSH1 0x20 ADD DUP1 DUP4 GT PUSH2 0x3866 JUMPI DUP3 SWAP1 SUB PUSH1 0x1F AND DUP3 ADD SWAP2 JUMPDEST POP POP POP SWAP2 DUP4 MSTORE POP POP PUSH1 0x2 DUP3 ADD SLOAD PUSH1 0xFF AND PUSH1 0x20 DUP3 ADD MSTORE PUSH1 0x3 DUP3 ADD DUP1 SLOAD PUSH1 0x40 SWAP1 SWAP3 ADD SWAP2 PUSH2 0x38AD SWAP1 PUSH2 0x69D0 JUMP JUMPDEST DUP1 PUSH1 0x1F ADD PUSH1 0x20 DUP1 SWAP2 DIV MUL PUSH1 0x20 ADD PUSH1 0x40 MLOAD SWAP1 DUP2 ADD PUSH1 0x40 MSTORE DUP1 SWAP3 SWAP2 SWAP1 DUP2 DUP2 MSTORE PUSH1 0x20 ADD DUP3 DUP1 SLOAD PUSH2 0x38D9 SWAP1 PUSH2 0x69D0 JUMP JUMPDEST DUP1 ISZERO PUSH2 0x3926 JUMPI DUP1 PUSH1 0x1F LT PUSH2 0x38FB JUMPI PUSH2 0x100 DUP1 DUP4 SLOAD DIV MUL DUP4 MSTORE SWAP2 PUSH1 0x20 ADD SWAP2 PUSH2 0x3926 JUMP JUMPDEST DUP3 ADD SWAP2 SWAP1 PUSH1 0x0 MSTORE PUSH1 0x20 PUSH1 0x0 KECCAK256 SWAP1 JUMPDEST DUP2 SLOAD DUP2 MSTORE SWAP1 PUSH1 0x1 ADD SWAP1 PUSH1 0x20 ADD DUP1 DUP4 GT PUSH2 0x3909 JUMPI DUP3 SWAP1 SUB PUSH1 0x1F AND DUP3 ADD SWAP2 JUMPDEST POP POP POP POP POP DUP2 MSTORE POP POP DUP2 MSTORE PUSH1 0x20 ADD SWAP1 PUSH1 0x1 ADD SWAP1 PUSH2 0x37C1 JUMP JUMPDEST POP POP POP POP SWAP1 POP PUSH1 0x0 JUMPDEST DUP2 MLOAD DUP2 LT ISZERO PUSH2 0x3999 JUMPI DUP4 PUSH1 0x1 PUSH1 0x1 PUSH1 0xA0 SHL SUB AND DUP3 DUP3 DUP2 MLOAD DUP2 LT PUSH2 0x396C JUMPI PUSH2 0x396C PUSH2 0x6991 JUMP JUMPDEST PUSH1 0x20 MUL PUSH1 0x20 ADD ADD MLOAD PUSH1 0x0 ADD MLOAD PUSH1 0x1 PUSH1 0x1 PUSH1 0xA0 SHL SUB AND SUB PUSH2 0x3991 JUMPI PUSH1 0x1 SWAP3 POP POP POP PUSH2 0x1A27 JUMP JUMPDEST PUSH1 0x1 ADD PUSH2 0x3947 JUMP JUMPDEST POP PUSH1 0x0 SWAP6 SWAP5 POP POP POP POP POP JUMP JUMPDEST PUSH1 0x1 PUSH1 0x1 PUSH1 0xA0 SHL SUB DUP5 AND PUSH2 0x39FB JUMPI PUSH1 0x40 MLOAD PUSH3 0x461BCD PUSH1 0xE5 SHL DUP2 MSTORE PUSH1 0x20 PUSH1 0x4 DUP3 ADD MSTORE PUSH1 0x1F PUSH1 0x24 DUP3 ADD MSTORE PUSH32 0x417070726F7665722063616E6E6F74206265207A65726F206164647265737300 PUSH1 0x44 DUP3 ADD MSTORE PUSH1 0x64 ADD PUSH2 0x5D9 JUMP JUMPDEST PUSH1 0x0 DUP4 MLOAD GT PUSH2 0x3A48 JUMPI PUSH1 0x40 MLOAD PUSH3 0x461BCD PUSH1 0xE5 SHL DUP2 MSTORE PUSH1 0x20 PUSH1 0x4 DUP3 ADD MSTORE PUSH1 0x19 PUSH1 0x24 DUP3 ADD MSTORE PUSH25 0x46696C65206E616D652063616E6E6F7420626520656D707479 PUSH1 0x38 SHL PUSH1 0x44 DUP3 ADD MSTORE PUSH1 0x64 ADD PUSH2 0x5D9 JUMP JUMPDEST PUSH1 0x0 DUP3 MLOAD GT PUSH2 0x3A99 JUMPI PUSH1 0x40 MLOAD PUSH3 0x461BCD PUSH1 0xE5 SHL DUP2 MSTORE PUSH1 0x20 PUSH1 0x4 DUP3 ADD MSTORE PUSH1 0x19 PUSH1 0x24 DUP3 ADD MSTORE PUSH32 0x46696C6520686173682063616E6E6F7420626520656D70747900000000000000 PUSH1 0x44 DUP3 ADD MSTORE PUSH1 0x64 ADD PUSH2 0x5D9 JUMP JUMPDEST PUSH1 0x1 PUSH1 0x1 PUSH1 0xA0 SHL SUB DUP5 AND PUSH1 0x0 SWAP1 DUP2 MSTORE PUSH1 0x8 PUSH1 0x20 MSTORE PUSH1 0x40 DUP2 KECCAK256 DUP2 JUMPDEST DUP2 SLOAD DUP2 LT ISZERO PUSH2 0x3B03 JUMPI CALLER PUSH1 0x1 PUSH1 0x1 PUSH1 0xA0 SHL SUB AND DUP3 DUP3 DUP2 SLOAD DUP2 LT PUSH2 0x3AD8 JUMPI PUSH2 0x3AD8 PUSH2 0x6991 JUMP JUMPDEST PUSH1 0x0 SWAP2 DUP3 MSTORE PUSH1 0x20 SWAP1 SWAP2 KECCAK256 ADD SLOAD PUSH1 0x1 PUSH1 0x1 PUSH1 0xA0 SHL SUB AND SUB PUSH2 0x3AFB JUMPI PUSH1 0x1 SWAP3 POP PUSH2 0x3B03 JUMP JUMPDEST PUSH1 0x1 ADD PUSH2 0x3AB3 JUMP JUMPDEST POP DUP2 PUSH2 0x3B42 JUMPI PUSH1 0x1 PUSH1 0x1 PUSH1 0xA0 SHL SUB DUP7 AND PUSH1 0x0 SWAP1 DUP2 MSTORE PUSH1 0x8 PUSH1 0x20 SWAP1 DUP2 MSTORE PUSH1 0x40 DUP3 KECCAK256 DUP1 SLOAD PUSH1 0x1 DUP2 ADD DUP3 SSTORE SWAP1 DUP4 MSTORE SWAP2 KECCAK256 ADD DUP1 SLOAD PUSH1 0x1 PUSH1 0x1 PUSH1 0xA0 SHL SUB NOT AND CALLER OR SWAP1 SSTORE JUMPDEST CALLER PUSH1 0x0 SWAP1 DUP2 MSTORE PUSH1 0x9 PUSH1 0x20 MSTORE PUSH1 0x40 DUP2 KECCAK256 DUP2 JUMPDEST DUP2 SLOAD DUP2 LT ISZERO PUSH2 0x3BA3 JUMPI DUP9 PUSH1 0x1 PUSH1 0x1 PUSH1 0xA0 SHL SUB AND DUP3 DUP3 DUP2 SLOAD DUP2 LT PUSH2 0x3B78 JUMPI PUSH2 0x3B78 PUSH2 0x6991 JUMP JUMPDEST PUSH1 0x0 SWAP2 DUP3 MSTORE PUSH1 0x20 SWAP1 SWAP2 KECCAK256 ADD SLOAD PUSH1 0x1 PUSH1 0x1 PUSH1 0xA0 SHL SUB AND SUB PUSH2 0x3B9B JUMPI PUSH1 0x1 SWAP3 POP PUSH2 0x3BA3 JUMP JUMPDEST PUSH1 0x1 ADD PUSH2 0x3B53 JUMP JUMPDEST POP DUP2 PUSH2 0x3BE2 JUMPI CALLER PUSH1 0x0 SWAP1 DUP2 MSTORE PUSH1 0x9 PUSH1 0x20 SWAP1 DUP2 MSTORE PUSH1 0x40 DUP3 KECCAK256 DUP1 SLOAD PUSH1 0x1 DUP2 ADD DUP3 SSTORE SWAP1 DUP4 MSTORE SWAP2 KECCAK256 ADD DUP1 SLOAD PUSH1 0x1 PUSH1 0x1 PUSH1 0xA0 SHL SUB NOT AND PUSH1 0x1 PUSH1 0x1 PUSH1 0xA0 SHL SUB DUP11 AND OR SWAP1 SSTORE JUMPDEST PUSH1 0x40 DUP1 MLOAD PUSH1 0xA0 DUP2 ADD DUP3 MSTORE PUSH1 0x0 DUP1 DUP3 MSTORE PUSH1 0x20 DUP1 DUP4 ADD DUP12 DUP2 MSTORE DUP4 DUP6 ADD DUP12 SWAP1 MSTORE PUSH1 0x60 DUP5 ADD DUP4 SWAP1 MSTORE PUSH1 0x1 PUSH1 0x80 DUP6 ADD DUP2 SWAP1 MSTORE PUSH1 0x1 PUSH1 0x1 PUSH1 0xA0 SHL SUB DUP15 AND DUP5 MSTORE PUSH1 0x7 DUP4 MSTORE DUP6 DUP5 KECCAK256 CALLER DUP6 MSTORE DUP4 MSTORE SWAP5 DUP4 KECCAK256 DUP1 SLOAD DUP1 DUP8 ADD DUP3 SSTORE SWAP1 DUP5 MSTORE SWAP2 SWAP1 SWAP3 KECCAK256 DUP4 MLOAD PUSH1 0x5 SWAP1 SWAP3 MUL ADD DUP1 SLOAD PUSH1 0xFF NOT AND SWAP2 ISZERO ISZERO SWAP2 SWAP1 SWAP2 OR DUP2 SSTORE SWAP1 MLOAD SWAP2 SWAP3 DUP4 SWAP3 SWAP1 DUP3 ADD SWAP1 PUSH2 0x3C63 SWAP1 DUP3 PUSH2 0x6B8D JUMP JUMPDEST POP PUSH1 0x40 DUP3 ADD MLOAD PUSH1 0x2 DUP3 ADD SWAP1 PUSH2 0x3C78 SWAP1 DUP3 PUSH2 0x6B8D JUMP JUMPDEST POP PUSH1 0x60 DUP3 ADD MLOAD PUSH1 0x3 DUP3 ADD SSTORE PUSH1 0x80 SWAP1 SWAP2 ADD MLOAD PUSH1 0x4 SWAP1 SWAP2 ADD DUP1 SLOAD PUSH1 0xFF NOT AND SWAP2 ISZERO ISZERO SWAP2 SWAP1 SWAP2 OR SWAP1 SSTORE PUSH1 0x40 MLOAD CALLER SWAP1 PUSH1 0x1 PUSH1 0x1 PUSH1 0xA0 SHL SUB DUP12 AND SWAP1 PUSH32 0x77B5F9C2D9C3BD8746BEB63AF36552109A2F92F947920BA0994ACB2DEB3E3B8B SWAP1 PUSH2 0x3CDE SWAP1 DUP13 SWAP1 DUP13 SWAP1 TIMESTAMP SWAP1 PUSH2 0x6DA4 JUMP JUMPDEST PUSH1 0x40 MLOAD DUP1 SWAP2 SUB SWAP1 LOG3 POP POP POP POP POP POP POP POP POP JUMP JUMPDEST CALLER PUSH1 0x1 PUSH1 0x1 PUSH1 0xA0 SHL SUB PUSH32 0x0 AND EQ DUP1 PUSH2 0x3D37 JUMPI POP CALLER PUSH1 0x0 SWAP1 DUP2 MSTORE PUSH1 0xE PUSH1 0x20 MSTORE PUSH1 0x40 SWAP1 KECCAK256 SLOAD PUSH1 0xFF AND JUMPDEST PUSH2 0x3D97 JUMPI PUSH1 0x40 MLOAD PUSH3 0x461BCD PUSH1 0xE5 SHL DUP2 MSTORE PUSH1 0x20 PUSH1 0x4 DUP3 ADD MSTORE PUSH1 0x39 PUSH1 0x24 DUP3 ADD MSTORE PUSH1 0x0 DUP1 MLOAD PUSH1 0x20 PUSH2 0x6EAD DUP4 CODECOPY DUP2 MLOAD SWAP2 MSTORE PUSH1 0x44 DUP3 ADD MSTORE PUSH32 0x616E207365742070726976617465206174747269627574657300000000000000 PUSH1 0x64 DUP3 ADD MSTORE PUSH1 0x84 ADD PUSH2 0x5D9 JUMP JUMPDEST PUSH1 0x0 DUP3 MLOAD GT PUSH2 0x3DDE JUMPI PUSH1 0x40 MLOAD PUSH3 0x461BCD PUSH1 0xE5 SHL DUP2 MSTORE PUSH1 0x20 PUSH1 0x4 DUP3 ADD MSTORE PUSH1 0x13 PUSH1 0x24 DUP3 ADD MSTORE PUSH19 0x4B65792063616E6E6F7420626520656D707479 PUSH1 0x68 SHL PUSH1 0x44 DUP3 ADD MSTORE PUSH1 0x64 ADD PUSH2 0x5D9 JUMP JUMPDEST PUSH1 0xB DUP3 PUSH1 0x40 MLOAD PUSH2 0x3DEE SWAP2 SWAP1 PUSH2 0x6975 JUMP JUMPDEST SWAP1 DUP2 MSTORE PUSH1 0x20 ADD PUSH1 0x40 MLOAD DUP1 SWAP2 SUB SWAP1 KECCAK256 DUP1 SLOAD PUSH2 0x3E07 SWAP1 PUSH2 0x69D0 JUMP JUMPDEST SWAP1 POP PUSH1 0x0 SUB PUSH2 0x3E4E JUMPI PUSH1 0xD DUP1 SLOAD PUSH1 0x1 DUP2 ADD DUP3 SSTORE PUSH1 0x0 SWAP2 SWAP1 SWAP2 MSTORE PUSH32 0xD7B6990105719101DABEB77144F2A3385C8033ACD3AF97E9423A695E81AD1EB5 ADD PUSH2 0x3E4C DUP4 DUP3 PUSH2 0x6B8D JUMP JUMPDEST POP JUMPDEST DUP1 PUSH1 0xB DUP4 PUSH1 0x40 MLOAD PUSH2 0x3E5F SWAP2 SWAP1 PUSH2 0x6975 JUMP JUMPDEST SWAP1 DUP2 MSTORE PUSH1 0x20 ADD PUSH1 0x40 MLOAD DUP1 SWAP2 SUB SWAP1 KECCAK256 SWAP1 DUP2 PUSH2 0x3E79 SWAP2 SWAP1 PUSH2 0x6B8D JUMP JUMPDEST POP DUP2 PUSH1 0x40 MLOAD PUSH2 0x3E88 SWAP2 SWAP1 PUSH2 0x6975 JUMP JUMPDEST PUSH1 0x40 DUP1 MLOAD SWAP2 DUP3 SWAP1 SUB DUP3 KECCAK256 PUSH1 0x0 DUP4 MSTORE TIMESTAMP PUSH1 0x20 DUP5 ADD MSTORE SWAP2 PUSH32 0x590120A97FEA9EAE0AB7F73633C407E0D9F528198B43F5ADED24FC1641466744 SWAP2 ADD PUSH2 0x36AE JUMP JUMPDEST PUSH1 0x1 PUSH1 0x1 PUSH1 0xA0 SHL SUB DUP3 AND PUSH1 0x0 SWAP1 DUP2 MSTORE PUSH1 0x5 PUSH1 0x20 MSTORE PUSH1 0x40 SWAP1 DUP2 SWAP1 KECCAK256 SWAP1 MLOAD PUSH1 0x60 SWAP2 SWAP1 PUSH2 0x3EF0 SWAP1 DUP5 SWAP1 PUSH2 0x6975 JUMP JUMPDEST SWAP1 DUP2 MSTORE PUSH1 0x20 ADD PUSH1 0x40 MLOAD DUP1 SWAP2 SUB SWAP1 KECCAK256 DUP1 SLOAD DUP1 PUSH1 0x20 MUL PUSH1 0x20 ADD PUSH1 0x40 MLOAD SWAP1 DUP2 ADD PUSH1 0x40 MSTORE DUP1 SWAP3 SWAP2 SWAP1 DUP2 DUP2 MSTORE PUSH1 0x20 ADD PUSH1 0x0 SWAP1 JUMPDEST DUP3 DUP3 LT ISZERO PUSH2 0xEF1 JUMPI PUSH1 0x0 DUP5 DUP2 MSTORE PUSH1 0x20 SWAP1 DUP2 SWAP1 KECCAK256 PUSH1 0x40 DUP1 MLOAD PUSH1 0x80 DUP2 ADD SWAP1 SWAP2 MSTORE PUSH1 0x4 DUP6 MUL SWAP1 SWAP2 ADD DUP1 SLOAD PUSH1 0x1 PUSH1 0x1 PUSH1 0xA0 SHL SUB AND DUP3 MSTORE PUSH1 0x1 DUP2 ADD DUP1 SLOAD SWAP3 SWAP4 SWAP2 SWAP3 SWAP2 DUP5 ADD SWAP2 PUSH2 0x3F67 SWAP1 PUSH2 0x69D0 JUMP JUMPDEST DUP1 PUSH1 0x1F ADD PUSH1 0x20 DUP1 SWAP2 DIV MUL PUSH1 0x20 ADD PUSH1 0x40 MLOAD SWAP1 DUP2 ADD PUSH1 0x40 MSTORE DUP1 SWAP3 SWAP2 SWAP1 DUP2 DUP2 MSTORE PUSH1 0x20 ADD DUP3 DUP1 SLOAD PUSH2 0x3F93 SWAP1 PUSH2 0x69D0 JUMP JUMPDEST DUP1 ISZERO PUSH2 0x3FE0 JUMPI DUP1 PUSH1 0x1F LT PUSH2 0x3FB5 JUMPI PUSH2 0x100 DUP1 DUP4 SLOAD DIV MUL DUP4 MSTORE SWAP2 PUSH1 0x20 ADD SWAP2 PUSH2 0x3FE0 JUMP JUMPDEST DUP3 ADD SWAP2 SWAP1 PUSH1 0x0 MSTORE PUSH1 0x20 PUSH1 0x0 KECCAK256 SWAP1 JUMPDEST DUP2 SLOAD DUP2 MSTORE SWAP1 PUSH1 0x1 ADD SWAP1 PUSH1 0x20 ADD DUP1 DUP4 GT PUSH2 0x3FC3 JUMPI DUP3 SWAP1 SUB PUSH1 0x1F AND DUP3 ADD SWAP2 JUMPDEST POP POP POP SWAP2 DUP4 MSTORE POP POP PUSH1 0x2 DUP3 ADD SLOAD PUSH1 0xFF AND PUSH1 0x20 DUP3 ADD MSTORE PUSH1 0x3 DUP3 ADD DUP1 SLOAD PUSH1 0x40 SWAP1 SWAP3 ADD SWAP2 PUSH2 0x400A SWAP1 PUSH2 0x69D0 JUMP JUMPDEST DUP1 PUSH1 0x1F ADD PUSH1 0x20 DUP1 SWAP2 DIV MUL PUSH1 0x20 ADD PUSH1 0x40 MLOAD SWAP1 DUP2 ADD PUSH1 0x40 MSTORE DUP1 SWAP3 SWAP2 SWAP1 DUP2 DUP2 MSTORE PUSH1 0x20 ADD DUP3 DUP1 SLOAD PUSH2 0x4036 SWAP1 PUSH2 0x69D0 JUMP JUMPDEST DUP1 ISZERO PUSH2 0x4083 JUMPI DUP1 PUSH1 0x1F LT PUSH2 0x4058 JUMPI PUSH2 0x100 DUP1 DUP4 SLOAD DIV MUL DUP4 MSTORE SWAP2 PUSH1 0x20 ADD SWAP2 PUSH2 0x4083 JUMP JUMPDEST DUP3 ADD SWAP2 SWAP1 PUSH1 0x0 MSTORE PUSH1 0x20 PUSH1 0x0 KECCAK256 SWAP1 JUMPDEST DUP2 SLOAD DUP2 MSTORE SWAP1 PUSH1 0x1 ADD SWAP1 PUSH1 0x20 ADD DUP1 DUP4 GT PUSH2 0x4066 JUMPI DUP3 SWAP1 SUB PUSH1 0x1F AND DUP3 ADD SWAP2 JUMPDEST POP POP POP POP POP DUP2 MSTORE POP POP DUP2 MSTORE PUSH1 0x20 ADD SWAP1 PUSH1 0x1 ADD SWAP1 PUSH2 0x3F1E JUMP JUMPDEST DUP1 MLOAD PUSH1 0x20 DUP2 DUP4 ADD DUP2 ADD DUP1 MLOAD PUSH1 0xA DUP3 MSTORE SWAP3 DUP3 ADD SWAP2 SWAP1 SWAP4 ADD KECCAK256 SWAP2 MSTORE DUP1 SLOAD PUSH2 0x40BF SWAP1 PUSH2 0x69D0 JUMP JUMPDEST DUP1 PUSH1 0x1F ADD PUSH1 0x20 DUP1 SWAP2 DIV MUL PUSH1 0x20 ADD PUSH1 0x40 MLOAD SWAP1 DUP2 ADD PUSH1 0x40 MSTORE DUP1 SWAP3 SWAP2 SWAP1 DUP2 DUP2 MSTORE PUSH1 0x20 ADD DUP3 DUP1 SLOAD PUSH2 0x40EB SWAP1 PUSH2 0x69D0 JUMP JUMPDEST DUP1 ISZERO PUSH2 0x4138 JUMPI DUP1 PUSH1 0x1F LT PUSH2 0x410D JUMPI PUSH2 0x100 DUP1 DUP4 SLOAD DIV MUL DUP4 MSTORE SWAP2 PUSH1 0x20 ADD SWAP2 PUSH2 0x4138 JUMP JUMPDEST DUP3 ADD SWAP2 SWAP1 PUSH1 0x0 MSTORE PUSH1 0x20 PUSH1 0x0 KECCAK256 SWAP1 JUMPDEST DUP2 SLOAD DUP2 MSTORE SWAP1 PUSH1 0x1 ADD SWAP1 PUSH1 0x20 ADD DUP1 DUP4 GT PUSH2 0x411B JUMPI DUP3 SWAP1 SUB PUSH1 0x1F AND DUP3 ADD SWAP2 JUMPDEST POP POP POP POP POP DUP2 JUMP JUMPDEST CALLER PUSH1 0x0 SWAP1 DUP2 MSTORE PUSH1 0x4 PUSH1 0x20 SWAP1 DUP2 MSTORE PUSH1 0x40 SWAP2 DUP3 SWAP1 KECCAK256 DUP1 SLOAD DUP4 MLOAD DUP2 DUP5 MUL DUP2 ADD DUP5 ADD SWAP1 SWAP5 MSTORE DUP1 DUP5 MSTORE PUSH1 0x60 SWAP4 SWAP3 DUP4 ADD DUP3 DUP3 DUP1 ISZERO PUSH2 0x4197 JUMPI PUSH1 0x20 MUL DUP3 ADD SWAP2 SWAP1 PUSH1 0x0 MSTORE PUSH1 0x20 PUSH1 0x0 KECCAK256 SWAP1 JUMPDEST DUP2 SLOAD DUP2 MSTORE PUSH1 0x20 ADD SWAP1 PUSH1 0x1 ADD SWAP1 DUP1 DUP4 GT PUSH2 0x4183 JUMPI JUMPDEST POP POP POP POP POP SWAP1 POP SWAP1 JUMP JUMPDEST PUSH1 0x0 DUP1 PUSH1 0x0 DUP4 PUSH1 0x1 PUSH1 0x1 PUSH1 0xA0 SHL SUB AND DUP6 PUSH1 0x1 PUSH1 0x1 PUSH1 0xA0 SHL SUB AND LT PUSH2 0x41C6 JUMPI DUP4 DUP6 PUSH2 0x41C9 JUMP JUMPDEST DUP5 DUP5 JUMPDEST PUSH1 0x40 MLOAD PUSH12 0xFFFFFFFFFFFFFFFFFFFFFFFF NOT PUSH1 0x60 DUP5 DUP2 SHL DUP3 AND PUSH1 0x20 DUP5 ADD MSTORE DUP4 SWAP1 SHL AND PUSH1 0x34 DUP3 ADD MSTORE SWAP2 SWAP4 POP SWAP2 POP PUSH1 0x48 ADD PUSH1 0x40 MLOAD PUSH1 0x20 DUP2 DUP4 SUB SUB DUP2 MSTORE SWAP1 PUSH1 0x40 MSTORE DUP1 MLOAD SWAP1 PUSH1 0x20 ADD KECCAK256 SWAP3 POP POP POP SWAP3 SWAP2 POP POP JUMP JUMPDEST PUSH1 0x0 DUP1 SLOAD PUSH2 0x40BF SWAP1 PUSH2 0x69D0 JUMP JUMPDEST PUSH1 0x1 PUSH1 0x1 PUSH1 0xA0 SHL SUB DUP2 AND PUSH1 0x0 SWAP1 DUP2 MSTORE PUSH1 0x9 PUSH1 0x20 SWAP1 DUP2 MSTORE PUSH1 0x40 DUP1 DUP4 KECCAK256 DUP1 SLOAD DUP3 MLOAD DUP2 DUP6 MUL DUP2 ADD DUP6 ADD SWAP1 SWAP4 MSTORE DUP1 DUP4 MSTORE PUSH1 0x60 SWAP5 SWAP4 DUP4 ADD DUP3 DUP3 DUP1 ISZERO PUSH2 0x428D JUMPI PUSH1 0x20 MUL DUP3 ADD SWAP2 SWAP1 PUSH1 0x0 MSTORE PUSH1 0x20 PUSH1 0x0 KECCAK256 SWAP1 JUMPDEST DUP2 SLOAD PUSH1 0x1 PUSH1 0x1 PUSH1 0xA0 SHL SUB AND DUP2 MSTORE PUSH1 0x1 SWAP1 SWAP2 ADD SWAP1 PUSH1 0x20 ADD DUP1 DUP4 GT PUSH2 0x426F JUMPI JUMPDEST POP POP POP POP POP SWAP1 POP PUSH1 0x0 DUP1 JUMPDEST DUP3 MLOAD DUP2 LT ISZERO PUSH2 0x431B JUMPI PUSH1 0x7 PUSH1 0x0 DUP5 DUP4 DUP2 MLOAD DUP2 LT PUSH2 0x42B7 JUMPI PUSH2 0x42B7 PUSH2 0x6991 JUMP JUMPDEST PUSH1 0x20 MUL PUSH1 0x20 ADD ADD MLOAD PUSH1 0x1 PUSH1 0x1 PUSH1 0xA0 SHL SUB AND PUSH1 0x1 PUSH1 0x1 PUSH1 0xA0 SHL SUB AND DUP2 MSTORE PUSH1 0x20 ADD SWAP1 DUP2 MSTORE PUSH1 0x20 ADD PUSH1 0x0 KECCAK256 PUSH1 0x0 DUP7 PUSH1 0x1 PUSH1 0x1 PUSH1 0xA0 SHL SUB AND PUSH1 0x1 PUSH1 0x1 PUSH1 0xA0 SHL SUB AND DUP2 MSTORE PUSH1 0x20 ADD SWAP1 DUP2 MSTORE PUSH1 0x20 ADD PUSH1 0x0 KECCAK256 DUP1 SLOAD SWAP1 POP DUP3 PUSH2 0x4311 SWAP2 SWAP1 PUSH2 0x6E18 JUMP JUMPDEST SWAP2 POP PUSH1 0x1 ADD PUSH2 0x4298 JUMP JUMPDEST POP PUSH1 0x0 DUP2 PUSH1 0x1 PUSH1 0x1 PUSH1 0x40 SHL SUB DUP2 GT ISZERO PUSH2 0x4336 JUMPI PUSH2 0x4336 PUSH2 0x5ECF JUMP JUMPDEST PUSH1 0x40 MLOAD SWAP1 DUP1 DUP3 MSTORE DUP1 PUSH1 0x20 MUL PUSH1 0x20 ADD DUP3 ADD PUSH1 0x40 MSTORE DUP1 ISZERO PUSH2 0x436F JUMPI DUP2 PUSH1 0x20 ADD JUMPDEST PUSH2 0x435C PUSH2 0x5D1B JUMP JUMPDEST DUP2 MSTORE PUSH1 0x20 ADD SWAP1 PUSH1 0x1 SWAP1 SUB SWAP1 DUP2 PUSH2 0x4354 JUMPI SWAP1 POP JUMPDEST POP SWAP1 POP PUSH1 0x0 DUP1 JUMPDEST DUP5 MLOAD DUP2 LT ISZERO PUSH2 0x2142 JUMPI PUSH1 0x0 DUP6 DUP3 DUP2 MLOAD DUP2 LT PUSH2 0x4393 JUMPI PUSH2 0x4393 PUSH2 0x6991 JUMP JUMPDEST PUSH1 0x20 SWAP1 DUP2 MUL SWAP2 SWAP1 SWAP2 ADD DUP2 ADD MLOAD PUSH1 0x1 PUSH1 0x1 PUSH1 0xA0 SHL SUB DUP1 DUP3 AND PUSH1 0x0 SWAP1 DUP2 MSTORE PUSH1 0x7 DUP5 MSTORE PUSH1 0x40 DUP1 DUP3 KECCAK256 SWAP3 DUP14 AND DUP3 MSTORE SWAP2 DUP5 MSTORE DUP2 DUP2 KECCAK256 DUP1 SLOAD DUP4 MLOAD DUP2 DUP8 MUL DUP2 ADD DUP8 ADD SWAP1 SWAP5 MSTORE DUP1 DUP5 MSTORE SWAP4 SWAP6 POP SWAP1 SWAP4 SWAP2 SWAP3 SWAP1 SWAP2 DUP5 SWAP1 DUP5 ADD JUMPDEST DUP3 DUP3 LT ISZERO PUSH2 0x4569 JUMPI PUSH1 0x0 DUP5 DUP2 MSTORE PUSH1 0x20 SWAP1 DUP2 SWAP1 KECCAK256 PUSH1 0x40 DUP1 MLOAD PUSH1 0xA0 DUP2 ADD SWAP1 SWAP2 MSTORE PUSH1 0x5 DUP6 MUL SWAP1 SWAP2 ADD DUP1 SLOAD PUSH1 0xFF AND ISZERO ISZERO DUP3 MSTORE PUSH1 0x1 DUP2 ADD DUP1 SLOAD SWAP3 SWAP4 SWAP2 SWAP3 SWAP2 DUP5 ADD SWAP2 PUSH2 0x4427 SWAP1 PUSH2 0x69D0 JUMP JUMPDEST DUP1 PUSH1 0x1F ADD PUSH1 0x20 DUP1 SWAP2 DIV MUL PUSH1 0x20 ADD PUSH1 0x40 MLOAD SWAP1 DUP2 ADD PUSH1 0x40 MSTORE DUP1 SWAP3 SWAP2 SWAP1 DUP2 DUP2 MSTORE PUSH1 0x20 ADD DUP3 DUP1 SLOAD PUSH2 0x4453 SWAP1 PUSH2 0x69D0 JUMP JUMPDEST DUP1 ISZERO PUSH2 0x44A0 JUMPI DUP1 PUSH1 0x1F LT PUSH2 0x4475 JUMPI PUSH2 0x100 DUP1 DUP4 SLOAD DIV MUL DUP4 MSTORE SWAP2 PUSH1 0x20 ADD SWAP2 PUSH2 0x44A0 JUMP JUMPDEST DUP3 ADD SWAP2 SWAP1 PUSH1 0x0 MSTORE PUSH1 0x20 PUSH1 0x0 KECCAK256 SWAP1 JUMPDEST DUP2 SLOAD DUP2 MSTORE SWAP1 PUSH1 0x1 ADD SWAP1 PUSH1 0x20 ADD DUP1 DUP4 GT PUSH2 0x4483 JUMPI DUP3 SWAP1 SUB PUSH1 0x1F AND DUP3 ADD SWAP2 JUMPDEST POP POP POP POP POP DUP2 MSTORE PUSH1 0x20 ADD PUSH1 0x2 DUP3 ADD DUP1 SLOAD PUSH2 0x44B9 SWAP1 PUSH2 0x69D0 JUMP JUMPDEST DUP1 PUSH1 0x1F ADD PUSH1 0x20 DUP1 SWAP2 DIV MUL PUSH1 0x20 ADD PUSH1 0x40 MLOAD SWAP1 DUP2 ADD PUSH1 0x40 MSTORE DUP1 SWAP3 SWAP2 SWAP1 DUP2 DUP2 MSTORE PUSH1 0x20 ADD DUP3 DUP1 SLOAD PUSH2 0x44E5 SWAP1 PUSH2 0x69D0 JUMP JUMPDEST DUP1 ISZERO PUSH2 0x4532 JUMPI DUP1 PUSH1 0x1F LT PUSH2 0x4507 JUMPI PUSH2 0x100 DUP1 DUP4 SLOAD DIV MUL DUP4 MSTORE SWAP2 PUSH1 0x20 ADD SWAP2 PUSH2 0x4532 JUMP JUMPDEST DUP3 ADD SWAP2 SWAP1 PUSH1 0x0 MSTORE PUSH1 0x20 PUSH1 0x0 KECCAK256 SWAP1 JUMPDEST DUP2 SLOAD DUP2 MSTORE SWAP1 PUSH1 0x1 ADD SWAP1 PUSH1 0x20 ADD DUP1 DUP4 GT PUSH2 0x4515 JUMPI DUP3 SWAP1 SUB PUSH1 0x1F AND DUP3 ADD SWAP2 JUMPDEST POP POP POP SWAP2 DUP4 MSTORE POP POP PUSH1 0x3 DUP3 ADD SLOAD PUSH1 0x20 DUP1 DUP4 ADD SWAP2 SWAP1 SWAP2 MSTORE PUSH1 0x4 SWAP1 SWAP3 ADD SLOAD PUSH1 0xFF AND ISZERO ISZERO PUSH1 0x40 SWAP1 SWAP2 ADD MSTORE SWAP1 DUP3 MSTORE PUSH1 0x1 SWAP3 SWAP1 SWAP3 ADD SWAP2 ADD PUSH2 0x43E2 JUMP JUMPDEST POP POP POP POP SWAP1 POP PUSH1 0x0 JUMPDEST DUP2 MLOAD DUP2 LT ISZERO PUSH2 0x4679 JUMPI PUSH1 0x40 MLOAD DUP1 PUSH1 0xC0 ADD PUSH1 0x40 MSTORE DUP1 DUP5 PUSH1 0x1 PUSH1 0x1 PUSH1 0xA0 SHL SUB AND DUP2 MSTORE PUSH1 0x20 ADD DUP4 DUP4 DUP2 MLOAD DUP2 LT PUSH2 0x45A7 JUMPI PUSH2 0x45A7 PUSH2 0x6991 JUMP JUMPDEST PUSH1 0x20 MUL PUSH1 0x20 ADD ADD MLOAD PUSH1 0x0 ADD MLOAD ISZERO ISZERO DUP2 MSTORE PUSH1 0x20 ADD DUP4 DUP4 DUP2 MLOAD DUP2 LT PUSH2 0x45CC JUMPI PUSH2 0x45CC PUSH2 0x6991 JUMP JUMPDEST PUSH1 0x20 MUL PUSH1 0x20 ADD ADD MLOAD PUSH1 0x20 ADD MLOAD DUP2 MSTORE PUSH1 0x20 ADD DUP4 DUP4 DUP2 MLOAD DUP2 LT PUSH2 0x45EF JUMPI PUSH2 0x45EF PUSH2 0x6991 JUMP JUMPDEST PUSH1 0x20 MUL PUSH1 0x20 ADD ADD MLOAD PUSH1 0x40 ADD MLOAD DUP2 MSTORE PUSH1 0x20 ADD DUP4 DUP4 DUP2 MLOAD DUP2 LT PUSH2 0x4612 JUMPI PUSH2 0x4612 PUSH2 0x6991 JUMP JUMPDEST PUSH1 0x20 MUL PUSH1 0x20 ADD ADD MLOAD PUSH1 0x60 ADD MLOAD DUP2 MSTORE PUSH1 0x20 ADD DUP4 DUP4 DUP2 MLOAD DUP2 LT PUSH2 0x4635 JUMPI PUSH2 0x4635 PUSH2 0x6991 JUMP JUMPDEST PUSH1 0x20 MUL PUSH1 0x20 ADD ADD MLOAD PUSH1 0x80 ADD MLOAD ISZERO ISZERO DUP2 MSTORE POP DUP7 DUP7 DUP2 MLOAD DUP2 LT PUSH2 0x4658 JUMPI PUSH2 0x4658 PUSH2 0x6991 JUMP JUMPDEST PUSH1 0x20 MUL PUSH1 0x20 ADD ADD DUP2 SWAP1 MSTORE POP DUP5 DUP1 PUSH2 0x466E SWAP1 PUSH2 0x6DFF JUMP JUMPDEST SWAP6 POP POP PUSH1 0x1 ADD PUSH2 0x4572 JUMP JUMPDEST POP POP POP PUSH1 0x1 ADD PUSH2 0x4376 JUMP JUMPDEST CALLER PUSH1 0x1 PUSH1 0x1 PUSH1 0xA0 SHL SUB PUSH32 0x0 AND EQ PUSH2 0x4708 JUMPI PUSH1 0x40 MLOAD PUSH3 0x461BCD PUSH1 0xE5 SHL DUP2 MSTORE PUSH1 0x20 PUSH1 0x4 DUP3 ADD MSTORE PUSH1 0x23 PUSH1 0x24 DUP3 ADD MSTORE PUSH32 0x4F6E6C792073706F6E736F722063616E206164642061646D696E697374726174 PUSH1 0x44 DUP3 ADD MSTORE PUSH3 0x6F7273 PUSH1 0xE8 SHL PUSH1 0x64 DUP3 ADD MSTORE PUSH1 0x84 ADD PUSH2 0x5D9 JUMP JUMPDEST PUSH1 0x1 PUSH1 0x1 PUSH1 0xA0 SHL SUB DUP2 AND PUSH2 0x475E JUMPI PUSH1 0x40 MLOAD PUSH3 0x461BCD PUSH1 0xE5 SHL DUP2 MSTORE PUSH1 0x20 PUSH1 0x4 DUP3 ADD MSTORE PUSH1 0x1C PUSH1 0x24 DUP3 ADD MSTORE PUSH32 0x41646D696E2063616E6E6F74206265207A65726F206164647265737300000000 PUSH1 0x44 DUP3 ADD MSTORE PUSH1 0x64 ADD PUSH2 0x5D9 JUMP JUMPDEST PUSH1 0x1 PUSH1 0x1 PUSH1 0xA0 SHL SUB AND PUSH1 0x0 SWAP1 DUP2 MSTORE PUSH1 0xE PUSH1 0x20 MSTORE PUSH1 0x40 SWAP1 KECCAK256 DUP1 SLOAD PUSH1 0xFF NOT AND PUSH1 0x1 OR SWAP1 SSTORE JUMP JUMPDEST PUSH1 0x60 CALLER PUSH1 0x1 PUSH1 0x1 PUSH1 0xA0 SHL SUB PUSH32 0x0 AND EQ DUP1 PUSH2 0x47CA JUMPI POP CALLER PUSH1 0x0 SWAP1 DUP2 MSTORE PUSH1 0xE PUSH1 0x20 MSTORE PUSH1 0x40 SWAP1 KECCAK256 SLOAD PUSH1 0xFF AND JUMPDEST PUSH2 0x482A JUMPI PUSH1 0x40 MLOAD PUSH3 0x461BCD PUSH1 0xE5 SHL DUP2 MSTORE PUSH1 0x20 PUSH1 0x4 DUP3 ADD MSTORE PUSH1 0x3A PUSH1 0x24 DUP3 ADD MSTORE PUSH1 0x0 DUP1 MLOAD PUSH1 0x20 PUSH2 0x6EAD DUP4 CODECOPY DUP2 MLOAD SWAP2 MSTORE PUSH1 0x44 DUP3 ADD MSTORE PUSH32 0x616E207265616420707269766174652061747472696275746573000000000000 PUSH1 0x64 DUP3 ADD MSTORE PUSH1 0x84 ADD PUSH2 0x5D9 JUMP JUMPDEST PUSH1 0xB DUP3 PUSH1 0x40 MLOAD PUSH2 0x36CC SWAP2 SWAP1 PUSH2 0x6975 JUMP JUMPDEST PUSH1 0x1 PUSH1 0x1 PUSH1 0xA0 SHL SUB DUP2 AND PUSH2 0x4890 JUMPI PUSH1 0x40 MLOAD PUSH3 0x461BCD PUSH1 0xE5 SHL DUP2 MSTORE PUSH1 0x20 PUSH1 0x4 DUP3 ADD DUP2 SWAP1 MSTORE PUSH1 0x24 DUP3 ADD MSTORE PUSH32 0x4E6577206F776E65722063616E6E6F74206265207A65726F2061646472657373 PUSH1 0x44 DUP3 ADD MSTORE PUSH1 0x64 ADD PUSH2 0x5D9 JUMP JUMPDEST CALLER PUSH1 0x1 PUSH1 0x1 PUSH1 0xA0 SHL SUB DUP3 AND SUB PUSH2 0x48E8 JUMPI PUSH1 0x40 MLOAD PUSH3 0x461BCD PUSH1 0xE5 SHL DUP2 MSTORE PUSH1 0x20 PUSH1 0x4 DUP3 ADD MSTORE PUSH1 0x17 PUSH1 0x24 DUP3 ADD MSTORE PUSH32 0x43616E6E6F74207472616E7366657220746F2073656C66000000000000000000 PUSH1 0x44 DUP3 ADD MSTORE PUSH1 0x64 ADD PUSH2 0x5D9 JUMP JUMPDEST CALLER PUSH1 0x0 SWAP1 DUP2 MSTORE PUSH1 0x2 PUSH1 0x20 MSTORE PUSH1 0x40 SWAP1 KECCAK256 SLOAD ISZERO ISZERO DUP1 PUSH2 0x4913 JUMPI POP CALLER PUSH1 0x0 SWAP1 DUP2 MSTORE PUSH1 0x4 PUSH1 0x20 MSTORE PUSH1 0x40 SWAP1 KECCAK256 SLOAD ISZERO ISZERO JUMPDEST PUSH2 0x4955 JUMPI PUSH1 0x40 MLOAD PUSH3 0x461BCD PUSH1 0xE5 SHL DUP2 MSTORE PUSH1 0x20 PUSH1 0x4 DUP3 ADD MSTORE PUSH1 0x13 PUSH1 0x24 DUP3 ADD MSTORE PUSH19 0x2737903230BA30903A37903A3930B739B332B9 PUSH1 0x69 SHL PUSH1 0x44 DUP3 ADD MSTORE PUSH1 0x64 ADD PUSH2 0x5D9 JUMP JUMPDEST CALLER PUSH1 0x0 SWAP1 DUP2 MSTORE PUSH1 0x2 PUSH1 0x20 MSTORE PUSH1 0x40 DUP2 KECCAK256 SWAP1 JUMPDEST DUP2 SLOAD DUP2 LT ISZERO PUSH2 0x4DEE JUMPI PUSH1 0x2 PUSH1 0x0 DUP5 PUSH1 0x1 PUSH1 0x1 PUSH1 0xA0 SHL SUB AND PUSH1 0x1 PUSH1 0x1 PUSH1 0xA0 SHL SUB AND DUP2 MSTORE PUSH1 0x20 ADD SWAP1 DUP2 MSTORE PUSH1 0x20 ADD PUSH1 0x0 KECCAK256 PUSH1 0x40 MLOAD DUP1 PUSH2 0x100 ADD PUSH1 0x40 MSTORE DUP1 DUP6 PUSH1 0x1 PUSH1 0x1 PUSH1 0xA0 SHL SUB AND DUP2 MSTORE PUSH1 0x20 ADD DUP5 DUP5 DUP2 SLOAD DUP2 LT PUSH2 0x49C1 JUMPI PUSH2 0x49C1 PUSH2 0x6991 JUMP JUMPDEST PUSH1 0x0 SWAP2 DUP3 MSTORE PUSH1 0x20 SWAP2 DUP3 SWAP1 KECCAK256 PUSH1 0x1 PUSH1 0x8 SWAP1 SWAP3 MUL ADD ADD SLOAD PUSH1 0x1 PUSH1 0x1 PUSH1 0xA0 SHL SUB AND DUP3 MSTORE DUP6 SLOAD SWAP2 ADD SWAP1 DUP6 SWAP1 DUP6 SWAP1 DUP2 LT PUSH2 0x49F8 JUMPI PUSH2 0x49F8 PUSH2 0x6991 JUMP JUMPDEST SWAP1 PUSH1 0x0 MSTORE PUSH1 0x20 PUSH1 0x0 KECCAK256 SWAP1 PUSH1 0x8 MUL ADD PUSH1 0x2 ADD DUP1 SLOAD PUSH2 0x4A14 SWAP1 PUSH2 0x69D0 JUMP JUMPDEST DUP1 PUSH1 0x1F ADD PUSH1 0x20 DUP1 SWAP2 DIV MUL PUSH1 0x20 ADD PUSH1 0x40 MLOAD SWAP1 DUP2 ADD PUSH1 0x40 MSTORE DUP1 SWAP3 SWAP2 SWAP1 DUP2 DUP2 MSTORE PUSH1 0x20 ADD DUP3 DUP1 SLOAD PUSH2 0x4A40 SWAP1 PUSH2 0x69D0 JUMP JUMPDEST DUP1 ISZERO PUSH2 0x4A8D JUMPI DUP1 PUSH1 0x1F LT PUSH2 0x4A62 JUMPI PUSH2 0x100 DUP1 DUP4 SLOAD DIV MUL DUP4 MSTORE SWAP2 PUSH1 0x20 ADD SWAP2 PUSH2 0x4A8D JUMP JUMPDEST DUP3 ADD SWAP2 SWAP1 PUSH1 0x0 MSTORE PUSH1 0x20 PUSH1 0x0 KECCAK256 SWAP1 JUMPDEST DUP2 SLOAD DUP2 MSTORE SWAP1 PUSH1 0x1 ADD SWAP1 PUSH1 0x20 ADD DUP1 DUP4 GT PUSH2 0x4A70 JUMPI DUP3 SWAP1 SUB PUSH1 0x1F AND DUP3 ADD SWAP2 JUMPDEST POP POP POP POP POP DUP2 MSTORE PUSH1 0x20 ADD DUP5 DUP5 DUP2 SLOAD DUP2 LT PUSH2 0x4AA9 JUMPI PUSH2 0x4AA9 PUSH2 0x6991 JUMP JUMPDEST SWAP1 PUSH1 0x0 MSTORE PUSH1 0x20 PUSH1 0x0 KECCAK256 SWAP1 PUSH1 0x8 MUL ADD PUSH1 0x3 ADD DUP1 SLOAD PUSH2 0x4AC5 SWAP1 PUSH2 0x69D0 JUMP JUMPDEST DUP1 PUSH1 0x1F ADD PUSH1 0x20 DUP1 SWAP2 DIV MUL PUSH1 0x20 ADD PUSH1 0x40 MLOAD SWAP1 DUP2 ADD PUSH1 0x40 MSTORE DUP1 SWAP3 SWAP2 SWAP1 DUP2 DUP2 MSTORE PUSH1 0x20 ADD DUP3 DUP1 SLOAD PUSH2 0x4AF1 SWAP1 PUSH2 0x69D0 JUMP JUMPDEST DUP1 ISZERO PUSH2 0x4B3E JUMPI DUP1 PUSH1 0x1F LT PUSH2 0x4B13 JUMPI PUSH2 0x100 DUP1 DUP4 SLOAD DIV MUL DUP4 MSTORE SWAP2 PUSH1 0x20 ADD SWAP2 PUSH2 0x4B3E JUMP JUMPDEST DUP3 ADD SWAP2 SWAP1 PUSH1 0x0 MSTORE PUSH1 0x20 PUSH1 0x0 KECCAK256 SWAP1 JUMPDEST DUP2 SLOAD DUP2 MSTORE SWAP1 PUSH1 0x1 ADD SWAP1 PUSH1 0x20 ADD DUP1 DUP4 GT PUSH2 0x4B21 JUMPI DUP3 SWAP1 SUB PUSH1 0x1F AND DUP3 ADD SWAP2 JUMPDEST POP POP POP POP POP DUP2 MSTORE PUSH1 0x20 ADD DUP5 DUP5 DUP2 SLOAD DUP2 LT PUSH2 0x4B5A JUMPI PUSH2 0x4B5A PUSH2 0x6991 JUMP JUMPDEST SWAP1 PUSH1 0x0 MSTORE PUSH1 0x20 PUSH1 0x0 KECCAK256 SWAP1 PUSH1 0x8 MUL ADD PUSH1 0x4 ADD DUP1 SLOAD PUSH2 0x4B76 SWAP1 PUSH2 0x69D0 JUMP JUMPDEST DUP1 PUSH1 0x1F ADD PUSH1 0x20 DUP1 SWAP2 DIV MUL PUSH1 0x20 ADD PUSH1 0x40 MLOAD SWAP1 DUP2 ADD PUSH1 0x40 MSTORE DUP1 SWAP3 SWAP2 SWAP1 DUP2 DUP2 MSTORE PUSH1 0x20 ADD DUP3 DUP1 SLOAD PUSH2 0x4BA2 SWAP1 PUSH2 0x69D0 JUMP JUMPDEST DUP1 ISZERO PUSH2 0x4BEF JUMPI DUP1 PUSH1 0x1F LT PUSH2 0x4BC4 JUMPI PUSH2 0x100 DUP1 DUP4 SLOAD DIV MUL DUP4 MSTORE SWAP2 PUSH1 0x20 ADD SWAP2 PUSH2 0x4BEF JUMP JUMPDEST DUP3 ADD SWAP2 SWAP1 PUSH1 0x0 MSTORE PUSH1 0x20 PUSH1 0x0 KECCAK256 SWAP1 JUMPDEST DUP2 SLOAD DUP2 MSTORE SWAP1 PUSH1 0x1 ADD SWAP1 PUSH1 0x20 ADD DUP1 DUP4 GT PUSH2 0x4BD2 JUMPI DUP3 SWAP1 SUB PUSH1 0x1F AND DUP3 ADD SWAP2 JUMPDEST POP POP POP POP POP DUP2 MSTORE PUSH1 0x20 ADD DUP5 DUP5 DUP2 SLOAD DUP2 LT PUSH2 0x4C0B JUMPI PUSH2 0x4C0B PUSH2 0x6991 JUMP JUMPDEST SWAP1 PUSH1 0x0 MSTORE PUSH1 0x20 PUSH1 0x0 KECCAK256 SWAP1 PUSH1 0x8 MUL ADD PUSH1 0x5 ADD DUP1 SLOAD PUSH2 0x4C27 SWAP1 PUSH2 0x69D0 JUMP JUMPDEST DUP1 PUSH1 0x1F ADD PUSH1 0x20 DUP1 SWAP2 DIV MUL PUSH1 0x20 ADD PUSH1 0x40 MLOAD SWAP1 DUP2 ADD PUSH1 0x40 MSTORE DUP1 SWAP3 SWAP2 SWAP1 DUP2 DUP2 MSTORE PUSH1 0x20 ADD DUP3 DUP1 SLOAD PUSH2 0x4C53 SWAP1 PUSH2 0x69D0 JUMP JUMPDEST DUP1 ISZERO PUSH2 0x4CA0 JUMPI DUP1 PUSH1 0x1F LT PUSH2 0x4C75 JUMPI PUSH2 0x100 DUP1 DUP4 SLOAD DIV MUL DUP4 MSTORE SWAP2 PUSH1 0x20 ADD SWAP2 PUSH2 0x4CA0 JUMP JUMPDEST DUP3 ADD SWAP2 SWAP1 PUSH1 0x0 MSTORE PUSH1 0x20 PUSH1 0x0 KECCAK256 SWAP1 JUMPDEST DUP2 SLOAD DUP2 MSTORE SWAP1 PUSH1 0x1 ADD SWAP1 PUSH1 0x20 ADD DUP1 DUP4 GT PUSH2 0x4C83 JUMPI DUP3 SWAP1 SUB PUSH1 0x1F AND DUP3 ADD SWAP2 JUMPDEST POP POP POP POP POP DUP2 MSTORE PUSH1 0x20 ADD DUP5 DUP5 DUP2 SLOAD DUP2 LT PUSH2 0x4CBC JUMPI PUSH2 0x4CBC PUSH2 0x6991 JUMP JUMPDEST PUSH1 0x0 SWAP2 DUP3 MSTORE PUSH1 0x20 SWAP1 SWAP2 KECCAK256 PUSH1 0x6 PUSH1 0x8 SWAP1 SWAP3 MUL ADD ADD SLOAD PUSH1 0xFF AND PUSH1 0x1 DUP2 GT ISZERO PUSH2 0x4CE4 JUMPI PUSH2 0x4CE4 PUSH2 0x632F JUMP JUMPDEST DUP2 MSTORE PUSH1 0x20 ADD DUP5 DUP5 DUP2 SLOAD DUP2 LT PUSH2 0x4CFB JUMPI PUSH2 0x4CFB PUSH2 0x6991 JUMP JUMPDEST PUSH1 0x0 SWAP2 DUP3 MSTORE PUSH1 0x20 DUP1 DUP4 KECCAK256 PUSH1 0x8 SWAP3 DUP4 MUL ADD PUSH1 0x7 ADD SLOAD SWAP1 SWAP4 MSTORE DUP5 SLOAD PUSH1 0x1 DUP1 DUP3 ADD DUP8 SSTORE SWAP6 DUP4 MSTORE SWAP2 DUP4 SWAP1 KECCAK256 DUP5 MLOAD SWAP3 SWAP1 SWAP2 MUL ADD DUP1 SLOAD PUSH1 0x1 PUSH1 0x1 PUSH1 0xA0 SHL SUB NOT SWAP1 DUP2 AND PUSH1 0x1 PUSH1 0x1 PUSH1 0xA0 SHL SUB SWAP4 DUP5 AND OR DUP3 SSTORE SWAP3 DUP5 ADD MLOAD SWAP5 DUP2 ADD DUP1 SLOAD SWAP1 SWAP4 AND SWAP5 SWAP1 SWAP2 AND SWAP4 SWAP1 SWAP4 OR SWAP1 SSTORE PUSH1 0x40 DUP2 ADD MLOAD SWAP1 SWAP2 SWAP1 PUSH1 0x2 DUP3 ADD SWAP1 PUSH2 0x4D72 SWAP1 DUP3 PUSH2 0x6B8D JUMP JUMPDEST POP PUSH1 0x60 DUP3 ADD MLOAD PUSH1 0x3 DUP3 ADD SWAP1 PUSH2 0x4D87 SWAP1 DUP3 PUSH2 0x6B8D JUMP JUMPDEST POP PUSH1 0x80 DUP3 ADD MLOAD PUSH1 0x4 DUP3 ADD SWAP1 PUSH2 0x4D9C SWAP1 DUP3 PUSH2 0x6B8D JUMP JUMPDEST POP PUSH1 0xA0 DUP3 ADD MLOAD PUSH1 0x5 DUP3 ADD SWAP1 PUSH2 0x4DB1 SWAP1 DUP3 PUSH2 0x6B8D JUMP JUMPDEST POP PUSH1 0xC0 DUP3 ADD MLOAD PUSH1 0x6 DUP3 ADD DUP1 SLOAD PUSH1 0xFF NOT AND PUSH1 0x1 DUP4 DUP2 DUP2 GT ISZERO PUSH2 0x4DD4 JUMPI PUSH2 0x4DD4 PUSH2 0x632F JUMP JUMPDEST MUL OR SWAP1 SSTORE POP PUSH1 0xE0 SWAP2 SWAP1 SWAP2 ADD MLOAD PUSH1 0x7 SWAP1 SWAP2 ADD SSTORE PUSH1 0x1 ADD PUSH2 0x4966 JUMP JUMPDEST POP CALLER PUSH1 0x0 SWAP1 DUP2 MSTORE PUSH1 0x3 PUSH1 0x20 MSTORE PUSH1 0x40 DUP2 KECCAK256 SWAP1 JUMPDEST DUP2 SLOAD DUP2 LT ISZERO PUSH2 0x4E64 JUMPI PUSH1 0x1 PUSH1 0x1 PUSH1 0xA0 SHL SUB DUP5 AND PUSH1 0x0 SWAP1 DUP2 MSTORE PUSH1 0x3 PUSH1 0x20 MSTORE PUSH1 0x40 SWAP1 KECCAK256 DUP3 SLOAD DUP4 SWAP1 DUP4 SWAP1 DUP2 LT PUSH2 0x4E35 JUMPI PUSH2 0x4E35 PUSH2 0x6991 JUMP JUMPDEST PUSH1 0x0 SWAP2 DUP3 MSTORE PUSH1 0x20 DUP1 DUP4 KECCAK256 DUP5 SLOAD PUSH1 0x1 DUP2 ADD DUP7 SSTORE SWAP5 DUP5 MSTORE SWAP3 KECCAK256 SWAP1 SWAP3 ADD SWAP2 PUSH2 0x4E5B SWAP2 ADD DUP3 PUSH2 0x6A56 JUMP JUMPDEST POP PUSH1 0x1 ADD PUSH2 0x4E00 JUMP JUMPDEST POP CALLER PUSH1 0x0 SWAP1 DUP2 MSTORE PUSH1 0x4 PUSH1 0x20 MSTORE PUSH1 0x40 DUP2 KECCAK256 SWAP1 JUMPDEST DUP2 SLOAD DUP2 LT ISZERO PUSH2 0x4F35 JUMPI PUSH1 0x0 DUP3 DUP3 DUP2 SLOAD DUP2 LT PUSH2 0x4E93 JUMPI PUSH2 0x4E93 PUSH2 0x6991 JUMP JUMPDEST PUSH1 0x0 SWAP2 DUP3 MSTORE PUSH1 0x20 DUP1 DUP4 KECCAK256 SWAP1 SWAP2 ADD SLOAD PUSH1 0x1 PUSH1 0x1 PUSH1 0xA0 SHL SUB DUP10 AND DUP4 MSTORE PUSH1 0x4 SWAP1 SWAP2 MSTORE PUSH1 0x40 DUP3 KECCAK256 SWAP1 SWAP3 POP DUP2 JUMPDEST DUP2 SLOAD DUP2 LT ISZERO PUSH2 0x4EF8 JUMPI DUP4 DUP3 DUP3 DUP2 SLOAD DUP2 LT PUSH2 0x4ED7 JUMPI PUSH2 0x4ED7 PUSH2 0x6991 JUMP JUMPDEST SWAP1 PUSH1 0x0 MSTORE PUSH1 0x20 PUSH1 0x0 KECCAK256 ADD SLOAD SUB PUSH2 0x4EF0 JUMPI PUSH1 0x1 SWAP3 POP PUSH2 0x4EF8 JUMP JUMPDEST PUSH1 0x1 ADD PUSH2 0x4EBB JUMP JUMPDEST POP DUP2 PUSH2 0x4F2A JUMPI PUSH1 0x1 PUSH1 0x1 PUSH1 0xA0 SHL SUB DUP9 AND PUSH1 0x0 SWAP1 DUP2 MSTORE PUSH1 0x4 PUSH1 0x20 SWAP1 DUP2 MSTORE PUSH1 0x40 DUP3 KECCAK256 DUP1 SLOAD PUSH1 0x1 DUP2 ADD DUP3 SSTORE SWAP1 DUP4 MSTORE SWAP2 KECCAK256 ADD DUP4 SWAP1 SSTORE JUMPDEST POP POP POP PUSH1 0x1 ADD PUSH2 0x4E76 JUMP JUMPDEST POP CALLER PUSH1 0x0 SWAP1 DUP2 MSTORE PUSH1 0x9 PUSH1 0x20 SWAP1 DUP2 MSTORE PUSH1 0x40 DUP1 DUP4 KECCAK256 DUP1 SLOAD DUP3 MLOAD DUP2 DUP6 MUL DUP2 ADD DUP6 ADD SWAP1 SWAP4 MSTORE DUP1 DUP4 MSTORE SWAP2 SWAP3 SWAP1 SWAP2 SWAP1 DUP4 ADD DUP3 DUP3 DUP1 ISZERO PUSH2 0x4F97 JUMPI PUSH1 0x20 MUL DUP3 ADD SWAP2 SWAP1 PUSH1 0x0 MSTORE PUSH1 0x20 PUSH1 0x0 KECCAK256 SWAP1 JUMPDEST DUP2 SLOAD PUSH1 0x1 PUSH1 0x1 PUSH1 0xA0 SHL SUB AND DUP2 MSTORE PUSH1 0x1 SWAP1 SWAP2 ADD SWAP1 PUSH1 0x20 ADD DUP1 DUP4 GT PUSH2 0x4F79 JUMPI JUMPDEST POP POP POP POP POP SWAP1 POP PUSH1 0x0 JUMPDEST DUP2 MLOAD DUP2 LT ISZERO PUSH2 0x54FE JUMPI PUSH1 0x0 DUP3 DUP3 DUP2 MLOAD DUP2 LT PUSH2 0x4FBE JUMPI PUSH2 0x4FBE PUSH2 0x6991 JUMP JUMPDEST PUSH1 0x20 SWAP1 DUP2 MUL SWAP2 SWAP1 SWAP2 ADD DUP2 ADD MLOAD PUSH1 0x1 PUSH1 0x1 PUSH1 0xA0 SHL SUB DUP2 AND PUSH1 0x0 SWAP1 DUP2 MSTORE PUSH1 0x7 DUP4 MSTORE PUSH1 0x40 DUP1 DUP3 KECCAK256 CALLER DUP4 MSTORE DUP5 MSTORE DUP1 DUP3 KECCAK256 DUP1 SLOAD DUP3 MLOAD DUP2 DUP8 MUL DUP2 ADD DUP8 ADD SWAP1 SWAP4 MSTORE DUP1 DUP4 MSTORE SWAP4 SWAP6 POP SWAP2 SWAP4 SWAP1 SWAP3 SWAP1 DUP5 SWAP1 DUP5 ADD JUMPDEST DUP3 DUP3 LT ISZERO PUSH2 0x518F JUMPI PUSH1 0x0 DUP5 DUP2 MSTORE PUSH1 0x20 SWAP1 DUP2 SWAP1 KECCAK256 PUSH1 0x40 DUP1 MLOAD PUSH1 0xA0 DUP2 ADD SWAP1 SWAP2 MSTORE PUSH1 0x5 DUP6 MUL SWAP1 SWAP2 ADD DUP1 SLOAD PUSH1 0xFF AND ISZERO ISZERO DUP3 MSTORE PUSH1 0x1 DUP2 ADD DUP1 SLOAD SWAP3 SWAP4 SWAP2 SWAP3 SWAP2 DUP5 ADD SWAP2 PUSH2 0x504D SWAP1 PUSH2 0x69D0 JUMP JUMPDEST DUP1 PUSH1 0x1F ADD PUSH1 0x20 DUP1 SWAP2 DIV MUL PUSH1 0x20 ADD PUSH1 0x40 MLOAD SWAP1 DUP2 ADD PUSH1 0x40 MSTORE DUP1 SWAP3 SWAP2 SWAP1 DUP2 DUP2 MSTORE PUSH1 0x20 ADD DUP3 DUP1 SLOAD PUSH2 0x5079 SWAP1 PUSH2 0x69D0 JUMP JUMPDEST DUP1 ISZERO PUSH2 0x50C6 JUMPI DUP1 PUSH1 0x1F LT PUSH2 0x509B JUMPI PUSH2 0x100 DUP1 DUP4 SLOAD DIV MUL DUP4 MSTORE SWAP2 PUSH1 0x20 ADD SWAP2 PUSH2 0x50C6 JUMP JUMPDEST DUP3 ADD SWAP2 SWAP1 PUSH1 0x0 MSTORE PUSH1 0x20 PUSH1 0x0 KECCAK256 SWAP1 JUMPDEST DUP2 SLOAD DUP2 MSTORE SWAP1 PUSH1 0x1 ADD SWAP1 PUSH1 0x20 ADD DUP1 DUP4 GT PUSH2 0x50A9 JUMPI DUP3 SWAP1 SUB PUSH1 0x1F AND DUP3 ADD SWAP2 JUMPDEST POP POP POP POP POP DUP2 MSTORE PUSH1 0x20 ADD PUSH1 0x2 DUP3 ADD DUP1 SLOAD PUSH2 0x50DF SWAP1 PUSH2 0x69D0 JUMP JUMPDEST DUP1 PUSH1 0x1F ADD PUSH1 0x20 DUP1 SWAP2 DIV MUL PUSH1 0x20 ADD PUSH1 0x40 MLOAD SWAP1 DUP2 ADD PUSH1 0x40 MSTORE DUP1 SWAP3 SWAP2 SWAP1 DUP2 DUP2 MSTORE PUSH1 0x20 ADD DUP3 DUP1 SLOAD PUSH2 0x510B SWAP1 PUSH2 0x69D0 JUMP JUMPDEST DUP1 ISZERO PUSH2 0x5158 JUMPI DUP1 PUSH1 0x1F LT PUSH2 0x512D JUMPI PUSH2 0x100 DUP1 DUP4 SLOAD DIV MUL DUP4 MSTORE SWAP2 PUSH1 0x20 ADD SWAP2 PUSH2 0x5158 JUMP JUMPDEST DUP3 ADD SWAP2 SWAP1 PUSH1 0x0 MSTORE PUSH1 0x20 PUSH1 0x0 KECCAK256 SWAP1 JUMPDEST DUP2 SLOAD DUP2 MSTORE SWAP1 PUSH1 0x1 ADD SWAP1 PUSH1 0x20 ADD DUP1 DUP4 GT PUSH2 0x513B JUMPI DUP3 SWAP1 SUB PUSH1 0x1F AND DUP3 ADD SWAP2 JUMPDEST POP POP POP SWAP2 DUP4 MSTORE POP POP PUSH1 0x3 DUP3 ADD SLOAD PUSH1 0x20 DUP1 DUP4 ADD SWAP2 SWAP1 SWAP2 MSTORE PUSH1 0x4 SWAP1 SWAP3 ADD SLOAD PUSH1 0xFF AND ISZERO ISZERO PUSH1 0x40 SWAP1 SWAP2 ADD MSTORE SWAP1 DUP3 MSTORE PUSH1 0x1 SWAP3 SWAP1 SWAP3 ADD SWAP2 ADD PUSH2 0x5008 JUMP JUMPDEST POP POP POP POP SWAP1 POP PUSH1 0x0 JUMPDEST DUP2 MLOAD DUP2 LT ISZERO PUSH2 0x5264 JUMPI PUSH1 0x1 PUSH1 0x1 PUSH1 0xA0 SHL SUB DUP1 DUP5 AND PUSH1 0x0 SWAP1 DUP2 MSTORE PUSH1 0x7 PUSH1 0x20 SWAP1 DUP2 MSTORE PUSH1 0x40 DUP1 DUP4 KECCAK256 SWAP4 DUP14 AND DUP4 MSTORE SWAP3 SWAP1 MSTORE KECCAK256 DUP3 MLOAD DUP4 SWAP1 DUP4 SWAP1 DUP2 LT PUSH2 0x51DA JUMPI PUSH2 0x51DA PUSH2 0x6991 JUMP JUMPDEST PUSH1 0x20 SWAP1 DUP2 MUL SWAP2 SWAP1 SWAP2 ADD DUP2 ADD MLOAD DUP3 SLOAD PUSH1 0x1 DUP1 DUP3 ADD DUP6 SSTORE PUSH1 0x0 SWAP5 DUP6 MSTORE SWAP4 DUP4 SWAP1 KECCAK256 DUP3 MLOAD PUSH1 0x5 SWAP1 SWAP3 MUL ADD DUP1 SLOAD PUSH1 0xFF NOT AND SWAP2 ISZERO ISZERO SWAP2 SWAP1 SWAP2 OR DUP2 SSTORE SWAP2 DUP2 ADD MLOAD SWAP1 SWAP3 DUP3 ADD SWAP1 PUSH2 0x5222 SWAP1 DUP3 PUSH2 0x6B8D JUMP JUMPDEST POP PUSH1 0x40 DUP3 ADD MLOAD PUSH1 0x2 DUP3 ADD SWAP1 PUSH2 0x5237 SWAP1 DUP3 PUSH2 0x6B8D JUMP JUMPDEST POP PUSH1 0x60 DUP3 ADD MLOAD PUSH1 0x3 DUP3 ADD SSTORE PUSH1 0x80 SWAP1 SWAP2 ADD MLOAD PUSH1 0x4 SWAP1 SWAP2 ADD DUP1 SLOAD PUSH1 0xFF NOT AND SWAP2 ISZERO ISZERO SWAP2 SWAP1 SWAP2 OR SWAP1 SSTORE PUSH1 0x1 ADD PUSH2 0x5198 JUMP JUMPDEST POP PUSH1 0x1 PUSH1 0x1 PUSH1 0xA0 SHL SUB DUP3 AND PUSH1 0x0 SWAP1 DUP2 MSTORE PUSH1 0x8 PUSH1 0x20 MSTORE PUSH1 0x40 DUP2 KECCAK256 SWAP1 DUP1 JUMPDEST DUP3 SLOAD DUP2 LT ISZERO PUSH2 0x52CC JUMPI DUP11 PUSH1 0x1 PUSH1 0x1 PUSH1 0xA0 SHL SUB AND DUP4 DUP3 DUP2 SLOAD DUP2 LT PUSH2 0x52A5 JUMPI PUSH2 0x52A5 PUSH2 0x6991 JUMP JUMPDEST PUSH1 0x0 SWAP2 DUP3 MSTORE PUSH1 0x20 SWAP1 SWAP2 KECCAK256 ADD SLOAD PUSH1 0x1 PUSH1 0x1 PUSH1 0xA0 SHL SUB AND SUB PUSH2 0x52C4 JUMPI PUSH1 0x1 SWAP2 POP JUMPDEST PUSH1 0x1 ADD PUSH2 0x5280 JUMP JUMPDEST POP PUSH1 0x0 JUMPDEST DUP3 SLOAD DUP2 LT ISZERO PUSH2 0x53CC JUMPI CALLER PUSH1 0x1 PUSH1 0x1 PUSH1 0xA0 SHL SUB AND DUP4 DUP3 DUP2 SLOAD DUP2 LT PUSH2 0x52F5 JUMPI PUSH2 0x52F5 PUSH2 0x6991 JUMP JUMPDEST PUSH1 0x0 SWAP2 DUP3 MSTORE PUSH1 0x20 SWAP1 SWAP2 KECCAK256 ADD SLOAD PUSH1 0x1 PUSH1 0x1 PUSH1 0xA0 SHL SUB AND SUB PUSH2 0x53C4 JUMPI DUP3 SLOAD DUP4 SWAP1 PUSH2 0x531F SWAP1 PUSH1 0x1 SWAP1 PUSH2 0x69BD JUMP JUMPDEST DUP2 SLOAD DUP2 LT PUSH2 0x532F JUMPI PUSH2 0x532F PUSH2 0x6991 JUMP JUMPDEST SWAP1 PUSH1 0x0 MSTORE PUSH1 0x20 PUSH1 0x0 KECCAK256 ADD PUSH1 0x0 SWAP1 SLOAD SWAP1 PUSH2 0x100 EXP SWAP1 DIV PUSH1 0x1 PUSH1 0x1 PUSH1 0xA0 SHL SUB AND DUP4 DUP3 DUP2 SLOAD DUP2 LT PUSH2 0x535F JUMPI PUSH2 0x535F PUSH2 0x6991 JUMP JUMPDEST SWAP1 PUSH1 0x0 MSTORE PUSH1 0x20 PUSH1 0x0 KECCAK256 ADD PUSH1 0x0 PUSH2 0x100 EXP DUP2 SLOAD DUP2 PUSH1 0x1 PUSH1 0x1 PUSH1 0xA0 SHL SUB MUL NOT AND SWAP1 DUP4 PUSH1 0x1 PUSH1 0x1 PUSH1 0xA0 SHL SUB AND MUL OR SWAP1 SSTORE POP DUP3 DUP1 SLOAD DUP1 PUSH2 0x539D JUMPI PUSH2 0x539D PUSH2 0x6B35 JUMP JUMPDEST PUSH1 0x0 DUP3 DUP2 MSTORE PUSH1 0x20 SWAP1 KECCAK256 DUP2 ADD PUSH1 0x0 NOT SWAP1 DUP2 ADD DUP1 SLOAD PUSH1 0x1 PUSH1 0x1 PUSH1 0xA0 SHL SUB NOT AND SWAP1 SSTORE ADD SWAP1 SSTORE PUSH2 0x53CC JUMP JUMPDEST PUSH1 0x1 ADD PUSH2 0x52D0 JUMP JUMPDEST POP DUP1 PUSH2 0x5411 JUMPI PUSH1 0x1 PUSH1 0x1 PUSH1 0xA0 SHL SUB DUP5 DUP2 AND PUSH1 0x0 SWAP1 DUP2 MSTORE PUSH1 0x8 PUSH1 0x20 SWAP1 DUP2 MSTORE PUSH1 0x40 DUP3 KECCAK256 DUP1 SLOAD PUSH1 0x1 DUP2 ADD DUP3 SSTORE SWAP1 DUP4 MSTORE SWAP2 KECCAK256 ADD DUP1 SLOAD PUSH1 0x1 PUSH1 0x1 PUSH1 0xA0 SHL SUB NOT AND SWAP2 DUP13 AND SWAP2 SWAP1 SWAP2 OR SWAP1 SSTORE JUMPDEST PUSH1 0x1 PUSH1 0x1 PUSH1 0xA0 SHL SUB DUP11 AND PUSH1 0x0 SWAP1 DUP2 MSTORE PUSH1 0x9 PUSH1 0x20 MSTORE PUSH1 0x40 DUP2 KECCAK256 DUP2 JUMPDEST DUP2 SLOAD DUP2 LT ISZERO PUSH2 0x547B JUMPI DUP7 PUSH1 0x1 PUSH1 0x1 PUSH1 0xA0 SHL SUB AND DUP3 DUP3 DUP2 SLOAD DUP2 LT PUSH2 0x5450 JUMPI PUSH2 0x5450 PUSH2 0x6991 JUMP JUMPDEST PUSH1 0x0 SWAP2 DUP3 MSTORE PUSH1 0x20 SWAP1 SWAP2 KECCAK256 ADD SLOAD PUSH1 0x1 PUSH1 0x1 PUSH1 0xA0 SHL SUB AND SUB PUSH2 0x5473 JUMPI PUSH1 0x1 SWAP3 POP PUSH2 0x547B JUMP JUMPDEST PUSH1 0x1 ADD PUSH2 0x542B JUMP JUMPDEST POP DUP2 PUSH2 0x54C0 JUMPI PUSH1 0x1 PUSH1 0x1 PUSH1 0xA0 SHL SUB DUP13 DUP2 AND PUSH1 0x0 SWAP1 DUP2 MSTORE PUSH1 0x9 PUSH1 0x20 SWAP1 DUP2 MSTORE PUSH1 0x40 DUP3 KECCAK256 DUP1 SLOAD PUSH1 0x1 DUP2 ADD DUP3 SSTORE SWAP1 DUP4 MSTORE SWAP2 KECCAK256 ADD DUP1 SLOAD PUSH1 0x1 PUSH1 0x1 PUSH1 0xA0 SHL SUB NOT AND SWAP2 DUP9 AND SWAP2 SWAP1 SWAP2 OR SWAP1 SSTORE JUMPDEST PUSH1 0x1 PUSH1 0x1 PUSH1 0xA0 SHL SUB DUP7 AND PUSH1 0x0 SWAP1 DUP2 MSTORE PUSH1 0x7 PUSH1 0x20 SWAP1 DUP2 MSTORE PUSH1 0x40 DUP1 DUP4 KECCAK256 CALLER DUP5 MSTORE SWAP1 SWAP2 MSTORE DUP2 KECCAK256 PUSH2 0x54EC SWAP2 PUSH2 0x5D5E JUMP JUMPDEST POP POP PUSH1 0x1 SWAP1 SWAP5 ADD SWAP4 POP PUSH2 0x4FA1 SWAP3 POP POP POP JUMP JUMPDEST POP CALLER PUSH1 0x0 SWAP1 DUP2 MSTORE PUSH1 0x2 PUSH1 0x20 MSTORE PUSH1 0x40 DUP2 KECCAK256 PUSH2 0x5517 SWAP2 PUSH2 0x5D7F JUMP JUMPDEST CALLER PUSH1 0x0 SWAP1 DUP2 MSTORE PUSH1 0x3 PUSH1 0x20 MSTORE PUSH1 0x40 DUP2 KECCAK256 PUSH2 0x552F SWAP2 PUSH2 0x5DA0 JUMP JUMPDEST CALLER PUSH1 0x0 SWAP1 DUP2 MSTORE PUSH1 0x4 PUSH1 0x20 MSTORE PUSH1 0x40 DUP2 KECCAK256 PUSH2 0x5547 SWAP2 PUSH2 0x5DBE JUMP JUMPDEST CALLER PUSH1 0x0 SWAP1 DUP2 MSTORE PUSH1 0x9 PUSH1 0x20 MSTORE PUSH1 0x40 DUP2 KECCAK256 PUSH2 0x555F SWAP2 PUSH2 0x5DBE JUMP JUMPDEST PUSH1 0x40 MLOAD TIMESTAMP DUP2 MSTORE PUSH1 0x1 PUSH1 0x1 PUSH1 0xA0 SHL SUB DUP7 AND SWAP1 CALLER SWAP1 PUSH32 0xC13A1166D81CD3B0B352A367AEBAB95F3A6F6BC695FDAB8E9A9D335239C3861B SWAP1 PUSH1 0x20 ADD PUSH1 0x40 MLOAD DUP1 SWAP2 SUB SWAP1 LOG3 POP POP POP POP POP JUMP JUMPDEST PUSH1 0x1 PUSH1 0x1 PUSH1 0xA0 SHL SUB DUP2 AND PUSH1 0x0 SWAP1 DUP2 MSTORE PUSH1 0x8 PUSH1 0x20 SWAP1 DUP2 MSTORE PUSH1 0x40 DUP1 DUP4 KECCAK256 DUP1 SLOAD DUP3 MLOAD DUP2 DUP6 MUL DUP2 ADD DUP6 ADD SWAP1 SWAP4 MSTORE DUP1 DUP4 MSTORE PUSH1 0x60 SWAP5 SWAP4 DUP4 ADD DUP3 DUP3 DUP1 ISZERO PUSH2 0x560F JUMPI PUSH1 0x20 MUL DUP3 ADD SWAP2 SWAP1 PUSH1 0x0 MSTORE PUSH1 0x20 PUSH1 0x0 KECCAK256 SWAP1 JUMPDEST DUP2 SLOAD PUSH1 0x1 PUSH1 0x1 PUSH1 0xA0 SHL SUB AND DUP2 MSTORE PUSH1 0x1 SWAP1 SWAP2 ADD SWAP1 PUSH1 0x20 ADD DUP1 DUP4 GT PUSH2 0x55F1 JUMPI JUMPDEST POP POP POP POP POP SWAP1 POP PUSH1 0x0 DUP1 JUMPDEST DUP3 MLOAD DUP2 LT ISZERO PUSH2 0x5693 JUMPI PUSH1 0x1 PUSH1 0x1 PUSH1 0xA0 SHL SUB DUP6 AND PUSH1 0x0 SWAP1 DUP2 MSTORE PUSH1 0x7 PUSH1 0x20 MSTORE PUSH1 0x40 DUP2 KECCAK256 DUP5 MLOAD SWAP1 SWAP2 SWAP1 DUP6 SWAP1 DUP5 SWAP1 DUP2 LT PUSH2 0x5652 JUMPI PUSH2 0x5652 PUSH2 0x6991 JUMP JUMPDEST PUSH1 0x20 MUL PUSH1 0x20 ADD ADD MLOAD PUSH1 0x1 PUSH1 0x1 PUSH1 0xA0 SHL SUB AND PUSH1 0x1 PUSH1 0x1 PUSH1 0xA0 SHL SUB AND DUP2 MSTORE PUSH1 0x20 ADD SWAP1 DUP2 MSTORE PUSH1 0x20 ADD PUSH1 0x0 KECCAK256 DUP1 SLOAD SWAP1 POP DUP3 PUSH2 0x5689 SWAP2 SWAP1 PUSH2 0x6E18 JUMP JUMPDEST SWAP2 POP PUSH1 0x1 ADD PUSH2 0x561A JUMP JUMPDEST POP PUSH1 0x0 DUP2 PUSH1 0x1 PUSH1 0x1 PUSH1 0x40 SHL SUB DUP2 GT ISZERO PUSH2 0x56AE JUMPI PUSH2 0x56AE PUSH2 0x5ECF JUMP JUMPDEST PUSH1 0x40 MLOAD SWAP1 DUP1 DUP3 MSTORE DUP1 PUSH1 0x20 MUL PUSH1 0x20 ADD DUP3 ADD PUSH1 0x40 MSTORE DUP1 ISZERO PUSH2 0x56E7 JUMPI DUP2 PUSH1 0x20 ADD JUMPDEST PUSH2 0x56D4 PUSH2 0x5D1B JUMP JUMPDEST DUP2 MSTORE PUSH1 0x20 ADD SWAP1 PUSH1 0x1 SWAP1 SUB SWAP1 DUP2 PUSH2 0x56CC JUMPI SWAP1 POP JUMPDEST POP SWAP1 POP PUSH1 0x0 DUP1 JUMPDEST DUP5 MLOAD DUP2 LT ISZERO PUSH2 0x2142 JUMPI PUSH1 0x0 DUP6 DUP3 DUP2 MLOAD DUP2 LT PUSH2 0x570B JUMPI PUSH2 0x570B PUSH2 0x6991 JUMP JUMPDEST PUSH1 0x20 SWAP1 DUP2 MUL SWAP2 SWAP1 SWAP2 ADD DUP2 ADD MLOAD PUSH1 0x1 PUSH1 0x1 PUSH1 0xA0 SHL SUB DUP1 DUP12 AND PUSH1 0x0 SWAP1 DUP2 MSTORE PUSH1 0x7 DUP5 MSTORE PUSH1 0x40 DUP1 DUP3 KECCAK256 SWAP3 DUP5 AND DUP3 MSTORE SWAP2 DUP5 MSTORE DUP2 DUP2 KECCAK256 DUP1 SLOAD DUP4 MLOAD DUP2 DUP8 MUL DUP2 ADD DUP8 ADD SWAP1 SWAP5 MSTORE DUP1 DUP5 MSTORE SWAP4 SWAP6 POP SWAP1 SWAP4 SWAP2 SWAP3 SWAP1 SWAP2 DUP5 SWAP1 DUP5 ADD JUMPDEST DUP3 DUP3 LT ISZERO PUSH2 0x58E1 JUMPI PUSH1 0x0 DUP5 DUP2 MSTORE PUSH1 0x20 SWAP1 DUP2 SWAP1 KECCAK256 PUSH1 0x40 DUP1 MLOAD PUSH1 0xA0 DUP2 ADD SWAP1 SWAP2 MSTORE PUSH1 0x5 DUP6 MUL SWAP1 SWAP2 ADD DUP1 SLOAD PUSH1 0xFF AND ISZERO ISZERO DUP3 MSTORE PUSH1 0x1 DUP2 ADD DUP1 SLOAD SWAP3 SWAP4 SWAP2 SWAP3 SWAP2 DUP5 ADD SWAP2 PUSH2 0x579F SWAP1 PUSH2 0x69D0 JUMP JUMPDEST DUP1 PUSH1 0x1F ADD PUSH1 0x20 DUP1 SWAP2 DIV MUL PUSH1 0x20 ADD PUSH1 0x40 MLOAD SWAP1 DUP2 ADD PUSH1 0x40 MSTORE DUP1 SWAP3 SWAP2 SWAP1 DUP2 DUP2 MSTORE PUSH1 0x20 ADD DUP3 DUP1 SLOAD PUSH2 0x57CB SWAP1 PUSH2 0x69D0 JUMP JUMPDEST DUP1 ISZERO PUSH2 0x5818 JUMPI DUP1 PUSH1 0x1F LT PUSH2 0x57ED JUMPI PUSH2 0x100 DUP1 DUP4 SLOAD DIV MUL DUP4 MSTORE SWAP2 PUSH1 0x20 ADD SWAP2 PUSH2 0x5818 JUMP JUMPDEST DUP3 ADD SWAP2 SWAP1 PUSH1 0x0 MSTORE PUSH1 0x20 PUSH1 0x0 KECCAK256 SWAP1 JUMPDEST DUP2 SLOAD DUP2 MSTORE SWAP1 PUSH1 0x1 ADD SWAP1 PUSH1 0x20 ADD DUP1 DUP4 GT PUSH2 0x57FB JUMPI DUP3 SWAP1 SUB PUSH1 0x1F AND DUP3 ADD SWAP2 JUMPDEST POP POP POP POP POP DUP2 MSTORE PUSH1 0x20 ADD PUSH1 0x2 DUP3 ADD DUP1 SLOAD PUSH2 0x5831 SWAP1 PUSH2 0x69D0 JUMP JUMPDEST DUP1 PUSH1 0x1F ADD PUSH1 0x20 DUP1 SWAP2 DIV MUL PUSH1 0x20 ADD PUSH1 0x40 MLOAD SWAP1 DUP2 ADD PUSH1 0x40 MSTORE DUP1 SWAP3 SWAP2 SWAP1 DUP2 DUP2 MSTORE PUSH1 0x20 ADD DUP3 DUP1 SLOAD PUSH2 0x585D SWAP1 PUSH2 0x69D0 JUMP JUMPDEST DUP1 ISZERO PUSH2 0x58AA JUMPI DUP1 PUSH1 0x1F LT PUSH2 0x587F JUMPI PUSH2 0x100 DUP1 DUP4 SLOAD DIV MUL DUP4 MSTORE SWAP2 PUSH1 0x20 ADD SWAP2 PUSH2 0x58AA JUMP JUMPDEST DUP3 ADD SWAP2 SWAP1 PUSH1 0x0 MSTORE PUSH1 0x20 PUSH1 0x0 KECCAK256 SWAP1 JUMPDEST DUP2 SLOAD DUP2 MSTORE SWAP1 PUSH1 0x1 ADD SWAP1 PUSH1 0x20 ADD DUP1 DUP4 GT PUSH2 0x588D JUMPI DUP3 SWAP1 SUB PUSH1 0x1F AND DUP3 ADD SWAP2 JUMPDEST POP POP POP SWAP2 DUP4 MSTORE POP POP PUSH1 0x3 DUP3 ADD SLOAD PUSH1 0x20 DUP1 DUP4 ADD SWAP2 SWAP1 SWAP2 MSTORE PUSH1 0x4 SWAP1 SWAP3 ADD SLOAD PUSH1 0xFF AND ISZERO ISZERO PUSH1 0x40 SWAP1 SWAP2 ADD MSTORE SWAP1 DUP3 MSTORE PUSH1 0x1 SWAP3 SWAP1 SWAP3 ADD SWAP2 ADD PUSH2 0x575A JUMP JUMPDEST POP POP POP POP SWAP1 POP PUSH1 0x0 JUMPDEST DUP2 MLOAD DUP2 LT ISZERO PUSH2 0x59F1 JUMPI PUSH1 0x40 MLOAD DUP1 PUSH1 0xC0 ADD PUSH1 0x40 MSTORE DUP1 DUP5 PUSH1 0x1 PUSH1 0x1 PUSH1 0xA0 SHL SUB AND DUP2 MSTORE PUSH1 0x20 ADD DUP4 DUP4 DUP2 MLOAD DUP2 LT PUSH2 0x591F JUMPI PUSH2 0x591F PUSH2 0x6991 JUMP JUMPDEST PUSH1 0x20 MUL PUSH1 0x20 ADD ADD MLOAD PUSH1 0x0 ADD MLOAD ISZERO ISZERO DUP2 MSTORE PUSH1 0x20 ADD DUP4 DUP4 DUP2 MLOAD DUP2 LT PUSH2 0x5944 JUMPI PUSH2 0x5944 PUSH2 0x6991 JUMP JUMPDEST PUSH1 0x20 MUL PUSH1 0x20 ADD ADD MLOAD PUSH1 0x20 ADD MLOAD DUP2 MSTORE PUSH1 0x20 ADD DUP4 DUP4 DUP2 MLOAD DUP2 LT PUSH2 0x5967 JUMPI PUSH2 0x5967 PUSH2 0x6991 JUMP JUMPDEST PUSH1 0x20 MUL PUSH1 0x20 ADD ADD MLOAD PUSH1 0x40 ADD MLOAD DUP2 MSTORE PUSH1 0x20 ADD DUP4 DUP4 DUP2 MLOAD DUP2 LT PUSH2 0x598A JUMPI PUSH2 0x598A PUSH2 0x6991 JUMP JUMPDEST PUSH1 0x20 MUL PUSH1 0x20 ADD ADD MLOAD PUSH1 0x60 ADD MLOAD DUP2 MSTORE PUSH1 0x20 ADD DUP4 DUP4 DUP2 MLOAD DUP2 LT PUSH2 0x59AD JUMPI PUSH2 0x59AD PUSH2 0x6991 JUMP JUMPDEST PUSH1 0x20 MUL PUSH1 0x20 ADD ADD MLOAD PUSH1 0x80 ADD MLOAD ISZERO ISZERO DUP2 MSTORE POP DUP7 DUP7 DUP2 MLOAD DUP2 LT PUSH2 0x59D0 JUMPI PUSH2 0x59D0 PUSH2 0x6991 JUMP JUMPDEST PUSH1 0x20 MUL PUSH1 0x20 ADD ADD DUP2 SWAP1 MSTORE POP DUP5 DUP1 PUSH2 0x59E6 SWAP1 PUSH2 0x6DFF JUMP JUMPDEST SWAP6 POP POP PUSH1 0x1 ADD PUSH2 0x58EA JUMP JUMPDEST POP POP POP PUSH1 0x1 ADD PUSH2 0x56EE JUMP JUMPDEST PUSH1 0x0 DUP6 MLOAD GT PUSH2 0x5A1D JUMPI PUSH1 0x40 MLOAD PUSH3 0x461BCD PUSH1 0xE5 SHL DUP2 MSTORE PUSH1 0x4 ADD PUSH2 0x5D9 SWAP1 PUSH2 0x693E JUMP JUMPDEST PUSH1 0x1 PUSH1 0x1 PUSH1 0xA0 SHL SUB DUP5 AND PUSH2 0x5A6C JUMPI PUSH1 0x40 MLOAD PUSH3 0x461BCD PUSH1 0xE5 SHL DUP2 MSTORE PUSH1 0x20 PUSH1 0x4 DUP3 ADD MSTORE PUSH1 0x16 PUSH1 0x24 DUP3 ADD MSTORE PUSH22 0x416464726573732063616E6E6F74206265207A65726F PUSH1 0x50 SHL PUSH1 0x44 DUP3 ADD MSTORE PUSH1 0x64 ADD PUSH2 0x5D9 JUMP JUMPDEST PUSH1 0x4 DUP3 PUSH1 0xFF AND GT ISZERO DUP1 PUSH2 0x5A82 JUMPI POP DUP2 PUSH1 0xFF AND PUSH1 0xFF EQ JUMPDEST PUSH2 0x5ADF JUMPI PUSH1 0x40 MLOAD PUSH3 0x461BCD PUSH1 0xE5 SHL DUP2 MSTORE PUSH1 0x20 PUSH1 0x4 DUP3 ADD MSTORE PUSH1 0x28 PUSH1 0x24 DUP3 ADD MSTORE PUSH32 0x496E76616C696420726F6C653A206D75737420626520302D34206F7220323535 PUSH1 0x44 DUP3 ADD MSTORE PUSH8 0x2028756E73657429 PUSH1 0xC0 SHL PUSH1 0x64 DUP3 ADD MSTORE PUSH1 0x84 ADD PUSH2 0x5D9 JUMP JUMPDEST CALLER PUSH1 0x0 SWAP1 DUP2 MSTORE PUSH1 0x5 PUSH1 0x20 MSTORE PUSH1 0x40 SWAP1 DUP2 SWAP1 KECCAK256 SWAP1 MLOAD PUSH2 0x5AFD SWAP1 DUP8 SWAP1 PUSH2 0x6975 JUMP JUMPDEST SWAP1 DUP2 MSTORE PUSH1 0x40 MLOAD SWAP1 DUP2 SWAP1 SUB PUSH1 0x20 ADD SWAP1 KECCAK256 SLOAD PUSH1 0x0 SUB PUSH2 0x5B3F JUMPI CALLER PUSH1 0x0 SWAP1 DUP2 MSTORE PUSH1 0x6 PUSH1 0x20 SWAP1 DUP2 MSTORE PUSH1 0x40 DUP3 KECCAK256 DUP1 SLOAD PUSH1 0x1 DUP2 ADD DUP3 SSTORE SWAP1 DUP4 MSTORE SWAP2 KECCAK256 ADD PUSH2 0x5B3D DUP7 DUP3 PUSH2 0x6B8D JUMP JUMPDEST POP JUMPDEST PUSH1 0x0 PUSH1 0x40 MLOAD DUP1 PUSH1 0x80 ADD PUSH1 0x40 MSTORE DUP1 DUP7 PUSH1 0x1 PUSH1 0x1 PUSH1 0xA0 SHL SUB AND DUP2 MSTORE PUSH1 0x20 ADD DUP6 DUP2 MSTORE PUSH1 0x20 ADD DUP5 PUSH1 0xFF AND PUSH1 0xFF EQ PUSH2 0x5B72 JUMPI DUP5 PUSH2 0x5B75 JUMP JUMPDEST PUSH1 0x0 JUMPDEST PUSH1 0xFF AND DUP2 MSTORE PUSH1 0x20 SWAP1 DUP2 ADD DUP5 SWAP1 MSTORE CALLER PUSH1 0x0 SWAP1 DUP2 MSTORE PUSH1 0x5 SWAP1 SWAP2 MSTORE PUSH1 0x40 SWAP1 DUP2 SWAP1 KECCAK256 SWAP1 MLOAD SWAP2 SWAP3 POP SWAP1 PUSH2 0x5BA4 SWAP1 DUP9 SWAP1 PUSH2 0x6975 JUMP JUMPDEST SWAP1 DUP2 MSTORE PUSH1 0x40 MLOAD PUSH1 0x20 SWAP2 DUP2 SWAP1 SUB DUP3 ADD SWAP1 KECCAK256 DUP1 SLOAD PUSH1 0x1 DUP1 DUP3 ADD DUP4 SSTORE PUSH1 0x0 SWAP3 DUP4 MSTORE SWAP2 DUP4 SWAP1 KECCAK256 DUP5 MLOAD PUSH1 0x4 SWAP1 SWAP3 MUL ADD DUP1 SLOAD PUSH1 0x1 PUSH1 0x1 PUSH1 0xA0 SHL SUB NOT AND PUSH1 0x1 PUSH1 0x1 PUSH1 0xA0 SHL SUB SWAP1 SWAP3 AND SWAP2 SWAP1 SWAP2 OR DUP2 SSTORE SWAP2 DUP4 ADD MLOAD DUP4 SWAP3 SWAP2 DUP3 ADD SWAP1 PUSH2 0x5BFF SWAP1 DUP3 PUSH2 0x6B8D JUMP JUMPDEST POP PUSH1 0x40 DUP3 ADD MLOAD PUSH1 0x2 DUP3 ADD DUP1 SLOAD PUSH1 0xFF NOT AND PUSH1 0xFF SWAP1 SWAP3 AND SWAP2 SWAP1 SWAP2 OR SWAP1 SSTORE PUSH1 0x60 DUP3 ADD MLOAD PUSH1 0x3 DUP3 ADD SWAP1 PUSH2 0x5C2E SWAP1 DUP3 PUSH2 0x6B8D JUMP JUMPDEST POP POP POP DUP5 PUSH1 0x1 PUSH1 0x1 PUSH1 0xA0 SHL SUB AND CALLER PUSH1 0x1 PUSH1 0x1 PUSH1 0xA0 SHL SUB AND PUSH32 0xB66DABB959D5F3BDB53A39AA58D0975B39199C9B188AD8BB09A1B37BB7BF5979 DUP9 TIMESTAMP PUSH1 0x40 MLOAD PUSH2 0xA2D SWAP3 SWAP2 SWAP1 PUSH2 0x6E6D JUMP JUMPDEST POP DUP1 SLOAD PUSH2 0x5C82 SWAP1 PUSH2 0x69D0 JUMP JUMPDEST PUSH1 0x0 DUP3 SSTORE DUP1 PUSH1 0x1F LT PUSH2 0x5C92 JUMPI POP POP JUMP JUMPDEST PUSH1 0x1F ADD PUSH1 0x20 SWAP1 DIV SWAP1 PUSH1 0x0 MSTORE PUSH1 0x20 PUSH1 0x0 KECCAK256 SWAP1 DUP2 ADD SWAP1 PUSH2 0x5CB0 SWAP2 SWAP1 PUSH2 0x5DD8 JUMP JUMPDEST POP JUMP JUMPDEST PUSH1 0x40 MLOAD DUP1 PUSH2 0x100 ADD PUSH1 0x40 MSTORE DUP1 PUSH1 0x0 PUSH1 0x1 PUSH1 0x1 PUSH1 0xA0 SHL SUB AND DUP2 MSTORE PUSH1 0x20 ADD PUSH1 0x0 PUSH1 0x1 PUSH1 0x1 PUSH1 0xA0 SHL SUB AND DUP2 MSTORE PUSH1 0x20 ADD PUSH1 0x60 DUP2 MSTORE PUSH1 0x20 ADD PUSH1 0x60 DUP2 MSTORE PUSH1 0x20 ADD PUSH1 0x60 DUP2 MSTORE PUSH1 0x20 ADD PUSH1 0x60 DUP2 MSTORE PUSH1 0x20 ADD PUSH1 0x0 PUSH1 0x1 DUP2 GT ISZERO PUSH2 0x5D0E JUMPI PUSH2 0x5D0E PUSH2 0x632F JUMP JUMPDEST DUP2 MSTORE PUSH1 0x20 ADD PUSH1 0x0 DUP2 MSTORE POP SWAP1 JUMP JUMPDEST PUSH1 0x40 MLOAD DUP1 PUSH1 0xC0 ADD PUSH1 0x40 MSTORE DUP1 PUSH1 0x0 PUSH1 0x1 PUSH1 0x1 PUSH1 0xA0 SHL SUB AND DUP2 MSTORE PUSH1 0x20 ADD PUSH1 0x0 ISZERO ISZERO DUP2 MSTORE PUSH1 0x20 ADD PUSH1 0x60 DUP2 MSTORE PUSH1 0x20 ADD PUSH1 0x60 DUP2 MSTORE PUSH1 0x20 ADD PUSH1 0x0 DUP2 MSTORE PUSH1 0x20 ADD PUSH1 0x0 ISZERO ISZERO DUP2 MSTORE POP SWAP1 JUMP JUMPDEST POP DUP1 SLOAD PUSH1 0x0 DUP3 SSTORE PUSH1 0x5 MUL SWAP1 PUSH1 0x0 MSTORE PUSH1 0x20 PUSH1 0x0 KECCAK256 SWAP1 DUP2 ADD SWAP1 PUSH2 0x5CB0 SWAP2 SWAP1 PUSH2 0x5DF1 JUMP JUMPDEST POP DUP1 SLOAD PUSH1 0x0 DUP3 SSTORE PUSH1 0x8 MUL SWAP1 PUSH1 0x0 MSTORE PUSH1 0x20 PUSH1 0x0 KECCAK256 SWAP1 DUP2 ADD SWAP1 PUSH2 0x5CB0 SWAP2 SWAP1 PUSH2 0x5E3A JUMP JUMPDEST POP DUP1 SLOAD PUSH1 0x0 DUP3 SSTORE SWAP1 PUSH1 0x0 MSTORE PUSH1 0x20 PUSH1 0x0 KECCAK256 SWAP1 DUP2 ADD SWAP1 PUSH2 0x5CB0 SWAP2 SWAP1 PUSH2 0x5EB2 JUMP JUMPDEST POP DUP1 SLOAD PUSH1 0x0 DUP3 SSTORE SWAP1 PUSH1 0x0 MSTORE PUSH1 0x20 PUSH1 0x0 KECCAK256 SWAP1 DUP2 ADD SWAP1 PUSH2 0x5CB0 SWAP2 SWAP1 JUMPDEST JUMPDEST DUP1 DUP3 GT ISZERO PUSH2 0x5DED JUMPI PUSH1 0x0 DUP2 SSTORE PUSH1 0x1 ADD PUSH2 0x5DD9 JUMP JUMPDEST POP SWAP1 JUMP JUMPDEST DUP1 DUP3 GT ISZERO PUSH2 0x5DED JUMPI DUP1 SLOAD PUSH1 0xFF NOT AND DUP2 SSTORE PUSH1 0x0 PUSH2 0x5E10 PUSH1 0x1 DUP4 ADD DUP3 PUSH2 0x5C76 JUMP JUMPDEST PUSH2 0x5E1E PUSH1 0x2 DUP4 ADD PUSH1 0x0 PUSH2 0x5C76 JUMP JUMPDEST POP PUSH1 0x0 PUSH1 0x3 DUP3 ADD SSTORE PUSH1 0x4 DUP2 ADD DUP1 SLOAD PUSH1 0xFF NOT AND SWAP1 SSTORE PUSH1 0x5 ADD PUSH2 0x5DF1 JUMP JUMPDEST DUP1 DUP3 GT ISZERO PUSH2 0x5DED JUMPI DUP1 SLOAD PUSH1 0x1 PUSH1 0x1 PUSH1 0xA0 SHL SUB NOT SWAP1 DUP2 AND DUP3 SSTORE PUSH1 0x1 DUP3 ADD DUP1 SLOAD SWAP1 SWAP2 AND SWAP1 SSTORE PUSH1 0x0 PUSH2 0x5E6C PUSH1 0x2 DUP4 ADD DUP3 PUSH2 0x5C76 JUMP JUMPDEST PUSH2 0x5E7A PUSH1 0x3 DUP4 ADD PUSH1 0x0 PUSH2 0x5C76 JUMP JUMPDEST PUSH2 0x5E88 PUSH1 0x4 DUP4 ADD PUSH1 0x0 PUSH2 0x5C76 JUMP JUMPDEST PUSH2 0x5E96 PUSH1 0x5 DUP4 ADD PUSH1 0x0 PUSH2 0x5C76 JUMP JUMPDEST POP PUSH1 0x6 DUP2 ADD DUP1 SLOAD PUSH1 0xFF NOT AND SWAP1 SSTORE PUSH1 0x0 PUSH1 0x7 DUP3 ADD SSTORE PUSH1 0x8 ADD PUSH2 0x5E3A JUMP JUMPDEST DUP1 DUP3 GT ISZERO PUSH2 0x5DED JUMPI PUSH1 0x0 PUSH2 0x5EC6 DUP3 DUP3 PUSH2 0x5C76 JUMP JUMPDEST POP PUSH1 0x1 ADD PUSH2 0x5EB2 JUMP JUMPDEST PUSH4 0x4E487B71 PUSH1 0xE0 SHL PUSH1 0x0 MSTORE PUSH1 0x41 PUSH1 0x4 MSTORE PUSH1 0x24 PUSH1 0x0 REVERT JUMPDEST PUSH1 0x0 DUP3 PUSH1 0x1F DUP4 ADD SLT PUSH2 0x5EF6 JUMPI PUSH1 0x0 DUP1 REVERT JUMPDEST DUP2 CALLDATALOAD PUSH1 0x1 PUSH1 0x1 PUSH1 0x40 SHL SUB DUP2 GT ISZERO PUSH2 0x5F0F JUMPI PUSH2 0x5F0F PUSH2 0x5ECF JUMP JUMPDEST PUSH1 0x40 MLOAD PUSH1 0x1F DUP3 ADD PUSH1 0x1F NOT SWAP1 DUP2 AND PUSH1 0x3F ADD AND DUP2 ADD PUSH1 0x1 PUSH1 0x1 PUSH1 0x40 SHL SUB DUP2 GT DUP3 DUP3 LT OR ISZERO PUSH2 0x5F3D JUMPI PUSH2 0x5F3D PUSH2 0x5ECF JUMP JUMPDEST PUSH1 0x40 MSTORE DUP2 DUP2 MSTORE DUP4 DUP3 ADD PUSH1 0x20 ADD DUP6 LT ISZERO PUSH2 0x5F55 JUMPI PUSH1 0x0 DUP1 REVERT JUMPDEST DUP2 PUSH1 0x20 DUP6 ADD PUSH1 0x20 DUP4 ADD CALLDATACOPY PUSH1 0x0 SWAP2 DUP2 ADD PUSH1 0x20 ADD SWAP2 SWAP1 SWAP2 MSTORE SWAP4 SWAP3 POP POP POP JUMP JUMPDEST DUP1 CALLDATALOAD PUSH1 0x1 PUSH1 0x1 PUSH1 0xA0 SHL SUB DUP2 AND DUP2 EQ PUSH2 0x5F89 JUMPI PUSH1 0x0 DUP1 REVERT JUMPDEST SWAP2 SWAP1 POP JUMP JUMPDEST PUSH1 0x0 DUP1 PUSH1 0x40 DUP4 DUP6 SUB SLT ISZERO PUSH2 0x5FA1 JUMPI PUSH1 0x0 DUP1 REVERT JUMPDEST DUP3 CALLDATALOAD PUSH1 0x1 PUSH1 0x1 PUSH1 0x40 SHL SUB DUP2 GT ISZERO PUSH2 0x5FB7 JUMPI PUSH1 0x0 DUP1 REVERT JUMPDEST PUSH2 0x5FC3 DUP6 DUP3 DUP7 ADD PUSH2 0x5EE5 JUMP JUMPDEST SWAP3 POP POP PUSH2 0x5FD2 PUSH1 0x20 DUP5 ADD PUSH2 0x5F72 JUMP JUMPDEST SWAP1 POP SWAP3 POP SWAP3 SWAP1 POP JUMP JUMPDEST PUSH1 0x0 PUSH1 0x20 DUP3 DUP5 SUB SLT ISZERO PUSH2 0x5FED JUMPI PUSH1 0x0 DUP1 REVERT JUMPDEST PUSH2 0x1A27 DUP3 PUSH2 0x5F72 JUMP JUMPDEST DUP1 CALLDATALOAD PUSH1 0x2 DUP2 LT PUSH2 0x5F89 JUMPI PUSH1 0x0 DUP1 REVERT JUMPDEST PUSH1 0x0 DUP1 PUSH1 0x0 DUP1 PUSH1 0x0 DUP1 PUSH1 0xC0 DUP8 DUP10 SUB SLT ISZERO PUSH2 0x601E JUMPI PUSH1 0x0 DUP1 REVERT JUMPDEST PUSH2 0x6027 DUP8 PUSH2 0x5F72 JUMP JUMPDEST SWAP6 POP PUSH1 0x20 DUP8 ADD CALLDATALOAD PUSH1 0x1 PUSH1 0x1 PUSH1 0x40 SHL SUB DUP2 GT ISZERO PUSH2 0x6042 JUMPI PUSH1 0x0 DUP1 REVERT JUMPDEST PUSH2 0x604E DUP10 DUP3 DUP11 ADD PUSH2 0x5EE5 JUMP JUMPDEST SWAP6 POP POP PUSH1 0x40 DUP8 ADD CALLDATALOAD PUSH1 0x1 PUSH1 0x1 PUSH1 0x40 SHL SUB DUP2 GT ISZERO PUSH2 0x606A JUMPI PUSH1 0x0 DUP1 REVERT JUMPDEST PUSH2 0x6076 DUP10 DUP3 DUP11 ADD PUSH2 0x5EE5 JUMP JUMPDEST SWAP5 POP POP PUSH1 0x60 DUP8 ADD CALLDATALOAD PUSH1 0x1 PUSH1 0x1 PUSH1 0x40 SHL SUB DUP2 GT ISZERO PUSH2 0x6092 JUMPI PUSH1 0x0 DUP1 REVERT JUMPDEST PUSH2 0x609E DUP10 DUP3 DUP11 ADD PUSH2 0x5EE5 JUMP JUMPDEST SWAP4 POP POP PUSH1 0x80 DUP8 ADD CALLDATALOAD PUSH1 0x1 PUSH1 0x1 PUSH1 0x40 SHL SUB DUP2 GT ISZERO PUSH2 0x60BA JUMPI PUSH1 0x0 DUP1 REVERT JUMPDEST PUSH2 0x60C6 DUP10 DUP3 DUP11 ADD PUSH2 0x5EE5 JUMP JUMPDEST SWAP3 POP POP PUSH2 0x60D5 PUSH1 0xA0 DUP9 ADD PUSH2 0x5FF6 JUMP JUMPDEST SWAP1 POP SWAP3 SWAP6 POP SWAP3 SWAP6 POP SWAP3 SWAP6 JUMP JUMPDEST PUSH1 0x0 DUP1 PUSH1 0x0 PUSH1 0x60 DUP5 DUP7 SUB SLT ISZERO PUSH2 0x60F6 JUMPI PUSH1 0x0 DUP1 REVERT JUMPDEST PUSH2 0x60FF DUP5 PUSH2 0x5F72 JUMP JUMPDEST SWAP3 POP PUSH1 0x20 DUP5 ADD CALLDATALOAD PUSH1 0x1 PUSH1 0x1 PUSH1 0x40 SHL SUB DUP2 GT ISZERO PUSH2 0x611A JUMPI PUSH1 0x0 DUP1 REVERT JUMPDEST PUSH2 0x6126 DUP7 DUP3 DUP8 ADD PUSH2 0x5EE5 JUMP JUMPDEST SWAP3 POP POP PUSH1 0x40 DUP5 ADD CALLDATALOAD DUP1 ISZERO ISZERO DUP2 EQ PUSH2 0x613C JUMPI PUSH1 0x0 DUP1 REVERT JUMPDEST DUP1 SWAP2 POP POP SWAP3 POP SWAP3 POP SWAP3 JUMP JUMPDEST PUSH1 0x0 DUP1 PUSH1 0x40 DUP4 DUP6 SUB SLT ISZERO PUSH2 0x615A JUMPI PUSH1 0x0 DUP1 REVERT JUMPDEST PUSH2 0x6163 DUP4 PUSH2 0x5F72 JUMP JUMPDEST SWAP2 POP PUSH2 0x5FD2 PUSH1 0x20 DUP5 ADD PUSH2 0x5F72 JUMP JUMPDEST PUSH1 0x0 JUMPDEST DUP4 DUP2 LT ISZERO PUSH2 0x618C JUMPI DUP2 DUP2 ADD MLOAD DUP4 DUP3 ADD MSTORE PUSH1 0x20 ADD PUSH2 0x6174 JUMP JUMPDEST POP POP PUSH1 0x0 SWAP2 ADD MSTORE JUMP JUMPDEST PUSH1 0x0 DUP2 MLOAD DUP1 DUP5 MSTORE PUSH2 0x61AD DUP2 PUSH1 0x20 DUP7 ADD PUSH1 0x20 DUP7 ADD PUSH2 0x6171 JUMP JUMPDEST PUSH1 0x1F ADD PUSH1 0x1F NOT AND SWAP3 SWAP1 SWAP3 ADD PUSH1 0x20 ADD SWAP3 SWAP2 POP POP JUMP JUMPDEST PUSH1 0x0 PUSH1 0x20 DUP3 ADD PUSH1 0x20 DUP4 MSTORE DUP1 DUP5 MLOAD DUP1 DUP4 MSTORE PUSH1 0x40 DUP6 ADD SWAP2 POP PUSH1 0x40 DUP2 PUSH1 0x5 SHL DUP7 ADD ADD SWAP3 POP PUSH1 0x20 DUP7 ADD PUSH1 0x0 JUMPDEST DUP3 DUP2 LT ISZERO PUSH2 0x6263 JUMPI PUSH1 0x3F NOT DUP8 DUP7 SUB ADD DUP5 MSTORE DUP2 MLOAD DUP1 MLOAD ISZERO ISZERO DUP7 MSTORE PUSH1 0x20 DUP2 ADD MLOAD PUSH1 0xA0 PUSH1 0x20 DUP9 ADD MSTORE PUSH2 0x621B PUSH1 0xA0 DUP9 ADD DUP3 PUSH2 0x6195 JUMP JUMPDEST SWAP1 POP PUSH1 0x40 DUP3 ADD MLOAD DUP8 DUP3 SUB PUSH1 0x40 DUP10 ADD MSTORE PUSH2 0x6234 DUP3 DUP3 PUSH2 0x6195 JUMP JUMPDEST PUSH1 0x60 DUP5 DUP2 ADD MLOAD SWAP1 DUP11 ADD MSTORE PUSH1 0x80 SWAP4 DUP5 ADD MLOAD ISZERO ISZERO SWAP4 SWAP1 SWAP9 ADD SWAP3 SWAP1 SWAP3 MSTORE POP POP PUSH1 0x20 SWAP4 DUP5 ADD SWAP4 SWAP2 SWAP1 SWAP2 ADD SWAP1 PUSH1 0x1 ADD PUSH2 0x61E9 JUMP JUMPDEST POP SWAP3 SWAP7 SWAP6 POP POP POP POP POP POP JUMP JUMPDEST PUSH1 0x0 DUP1 PUSH1 0x40 DUP4 DUP6 SUB SLT ISZERO PUSH2 0x6282 JUMPI PUSH1 0x0 DUP1 REVERT JUMPDEST DUP3 CALLDATALOAD PUSH1 0x1 PUSH1 0x1 PUSH1 0x40 SHL SUB DUP2 GT ISZERO PUSH2 0x6298 JUMPI PUSH1 0x0 DUP1 REVERT JUMPDEST PUSH2 0x62A4 DUP6 DUP3 DUP7 ADD PUSH2 0x5EE5 JUMP JUMPDEST SWAP3 POP POP PUSH1 0x20 DUP4 ADD CALLDATALOAD PUSH1 0x1 PUSH1 0x1 PUSH1 0x40 SHL SUB DUP2 GT ISZERO PUSH2 0x62C0 JUMPI PUSH1 0x0 DUP1 REVERT JUMPDEST PUSH2 0x62CC DUP6 DUP3 DUP7 ADD PUSH2 0x5EE5 JUMP JUMPDEST SWAP2 POP POP SWAP3 POP SWAP3 SWAP1 POP JUMP JUMPDEST PUSH1 0x0 PUSH1 0x20 DUP3 ADD PUSH1 0x20 DUP4 MSTORE DUP1 DUP5 MLOAD DUP1 DUP4 MSTORE PUSH1 0x40 DUP6 ADD SWAP2 POP PUSH1 0x40 DUP2 PUSH1 0x5 SHL DUP7 ADD ADD SWAP3 POP PUSH1 0x20 DUP7 ADD PUSH1 0x0 JUMPDEST DUP3 DUP2 LT ISZERO PUSH2 0x6263 JUMPI PUSH1 0x3F NOT DUP8 DUP7 SUB ADD DUP5 MSTORE PUSH2 0x631A DUP6 DUP4 MLOAD PUSH2 0x6195 JUMP JUMPDEST SWAP5 POP PUSH1 0x20 SWAP4 DUP5 ADD SWAP4 SWAP2 SWAP1 SWAP2 ADD SWAP1 PUSH1 0x1 ADD PUSH2 0x62FE JUMP JUMPDEST PUSH4 0x4E487B71 PUSH1 0xE0 SHL PUSH1 0x0 MSTORE PUSH1 0x21 PUSH1 0x4 MSTORE PUSH1 0x24 PUSH1 0x0 REVERT JUMPDEST PUSH1 0x2 DUP2 LT PUSH2 0x6363 JUMPI PUSH4 0x4E487B71 PUSH1 0xE0 SHL PUSH1 0x0 MSTORE PUSH1 0x21 PUSH1 0x4 MSTORE PUSH1 0x24 PUSH1 0x0 REVERT JUMPDEST SWAP1 MSTORE JUMP JUMPDEST PUSH1 0x0 PUSH1 0x20 DUP3 ADD PUSH1 0x20 DUP4 MSTORE DUP1 DUP5 MLOAD DUP1 DUP4 MSTORE PUSH1 0x40 DUP6 ADD SWAP2 POP PUSH1 0x40 DUP2 PUSH1 0x5 SHL DUP7 ADD ADD SWAP3 POP PUSH1 0x20 DUP7 ADD PUSH1 0x0 JUMPDEST DUP3 DUP2 LT ISZERO PUSH2 0x6263 JUMPI DUP7 DUP6 SUB PUSH1 0x3F NOT ADD DUP5 MSTORE DUP2 MLOAD DUP1 MLOAD PUSH1 0x1 PUSH1 0x1 PUSH1 0xA0 SHL SUB AND DUP7 MSTORE PUSH1 0x20 DUP2 ADD MLOAD PUSH2 0x63C9 PUSH1 0x20 DUP9 ADD DUP3 PUSH1 0x1 PUSH1 0x1 PUSH1 0xA0 SHL SUB AND SWAP1 MSTORE JUMP JUMPDEST POP PUSH1 0x40 DUP2 ADD MLOAD PUSH2 0x100 PUSH1 0x40 DUP9 ADD MSTORE PUSH2 0x63E5 PUSH2 0x100 DUP9 ADD DUP3 PUSH2 0x6195 JUMP JUMPDEST SWAP1 POP PUSH1 0x60 DUP3 ADD MLOAD DUP8 DUP3 SUB PUSH1 0x60 DUP10 ADD MSTORE PUSH2 0x63FE DUP3 DUP3 PUSH2 0x6195 JUMP JUMPDEST SWAP2 POP POP PUSH1 0x80 DUP3 ADD MLOAD DUP8 DUP3 SUB PUSH1 0x80 DUP10 ADD MSTORE PUSH2 0x6418 DUP3 DUP3 PUSH2 0x6195 JUMP JUMPDEST SWAP2 POP POP PUSH1 0xA0 DUP3 ADD MLOAD DUP8 DUP3 SUB PUSH1 0xA0 DUP10 ADD MSTORE PUSH2 0x6432 DUP3 DUP3 PUSH2 0x6195 JUMP JUMPDEST SWAP2 POP POP PUSH1 0xC0 DUP3 ADD MLOAD PUSH2 0x6447 PUSH1 0xC0 DUP10 ADD DUP3 PUSH2 0x6345 JUMP JUMPDEST POP PUSH1 0xE0 SWAP2 DUP3 ADD MLOAD SWAP7 SWAP1 SWAP2 ADD SWAP6 SWAP1 SWAP6 MSTORE PUSH1 0x20 SWAP4 DUP5 ADD SWAP4 SWAP2 SWAP1 SWAP2 ADD SWAP1 PUSH1 0x1 ADD PUSH2 0x638F JUMP JUMPDEST PUSH1 0x0 DUP1 PUSH1 0x0 PUSH1 0x60 DUP5 DUP7 SUB SLT ISZERO PUSH2 0x647E JUMPI PUSH1 0x0 DUP1 REVERT JUMPDEST PUSH2 0x6487 DUP5 PUSH2 0x5F72 JUMP JUMPDEST SWAP3 POP PUSH1 0x20 DUP5 ADD CALLDATALOAD PUSH1 0x1 PUSH1 0x1 PUSH1 0x40 SHL SUB DUP2 GT ISZERO PUSH2 0x64A2 JUMPI PUSH1 0x0 DUP1 REVERT JUMPDEST PUSH2 0x64AE DUP7 DUP3 DUP8 ADD PUSH2 0x5EE5 JUMP JUMPDEST SWAP3 POP POP PUSH2 0x64BD PUSH1 0x40 DUP6 ADD PUSH2 0x5F72 JUMP JUMPDEST SWAP1 POP SWAP3 POP SWAP3 POP SWAP3 JUMP JUMPDEST PUSH1 0x1 DUP1 PUSH1 0xA0 SHL SUB DUP2 MLOAD AND DUP3 MSTORE PUSH1 0x0 PUSH1 0x20 DUP3 ADD MLOAD PUSH1 0x80 PUSH1 0x20 DUP6 ADD MSTORE PUSH2 0x64ED PUSH1 0x80 DUP6 ADD DUP3 PUSH2 0x6195 JUMP JUMPDEST SWAP1 POP PUSH1 0xFF PUSH1 0x40 DUP5 ADD MLOAD AND PUSH1 0x40 DUP6 ADD MSTORE PUSH1 0x60 DUP4 ADD MLOAD DUP5 DUP3 SUB PUSH1 0x60 DUP7 ADD MSTORE PUSH2 0x6513 DUP3 DUP3 PUSH2 0x6195 JUMP JUMPDEST SWAP6 SWAP5 POP POP POP POP POP JUMP JUMPDEST PUSH1 0x20 DUP2 MSTORE PUSH1 0x0 PUSH2 0x1A27 PUSH1 0x20 DUP4 ADD DUP5 PUSH2 0x64C6 JUMP JUMPDEST PUSH1 0x0 PUSH1 0x20 DUP3 DUP5 SUB SLT ISZERO PUSH2 0x6541 JUMPI PUSH1 0x0 DUP1 REVERT JUMPDEST DUP2 CALLDATALOAD PUSH1 0x1 PUSH1 0x1 PUSH1 0x40 SHL SUB DUP2 GT ISZERO PUSH2 0x6557 JUMPI PUSH1 0x0 DUP1 REVERT JUMPDEST PUSH2 0x6563 DUP5 DUP3 DUP6 ADD PUSH2 0x5EE5 JUMP JUMPDEST SWAP5 SWAP4 POP POP POP POP JUMP JUMPDEST PUSH1 0x0 DUP1 PUSH1 0x0 PUSH1 0x60 DUP5 DUP7 SUB SLT ISZERO PUSH2 0x6580 JUMPI PUSH1 0x0 DUP1 REVERT JUMPDEST PUSH2 0x6589 DUP5 PUSH2 0x5F72 JUMP JUMPDEST SWAP6 PUSH1 0x20 DUP6 ADD CALLDATALOAD SWAP6 POP PUSH1 0x40 SWAP1 SWAP5 ADD CALLDATALOAD SWAP4 SWAP3 POP POP POP JUMP JUMPDEST PUSH1 0x0 DUP1 PUSH1 0x0 DUP1 PUSH1 0x0 PUSH1 0xA0 DUP7 DUP9 SUB SLT ISZERO PUSH2 0x65B6 JUMPI PUSH1 0x0 DUP1 REVERT JUMPDEST DUP6 CALLDATALOAD PUSH1 0x1 PUSH1 0x1 PUSH1 0x40 SHL SUB DUP2 GT ISZERO PUSH2 0x65CC JUMPI PUSH1 0x0 DUP1 REVERT JUMPDEST PUSH2 0x65D8 DUP9 DUP3 DUP10 ADD PUSH2 0x5EE5 JUMP JUMPDEST SWAP6 POP POP PUSH2 0x65E7 PUSH1 0x20 DUP8 ADD PUSH2 0x5F72 JUMP JUMPDEST SWAP4 POP PUSH1 0x40 DUP7 ADD CALLDATALOAD PUSH1 0x1 PUSH1 0x1 PUSH1 0x40 SHL SUB DUP2 GT ISZERO PUSH2 0x6602 JUMPI PUSH1 0x0 DUP1 REVERT JUMPDEST PUSH2 0x660E DUP9 DUP3 DUP10 ADD PUSH2 0x5EE5 JUMP JUMPDEST SWAP4 POP POP PUSH1 0x60 DUP7 ADD CALLDATALOAD PUSH1 0xFF DUP2 AND DUP2 EQ PUSH2 0x6625 JUMPI PUSH1 0x0 DUP1 REVERT JUMPDEST SWAP2 POP PUSH1 0x80 DUP7 ADD CALLDATALOAD PUSH1 0x1 PUSH1 0x1 PUSH1 0x40 SHL SUB DUP2 GT ISZERO PUSH2 0x6640 JUMPI PUSH1 0x0 DUP1 REVERT JUMPDEST PUSH2 0x664C DUP9 DUP3 DUP10 ADD PUSH2 0x5EE5 JUMP JUMPDEST SWAP2 POP POP SWAP3 SWAP6 POP SWAP3 SWAP6 SWAP1 SWAP4 POP JUMP JUMPDEST PUSH1 0x0 DUP1 PUSH1 0x0 DUP1 PUSH1 0x0 PUSH1 0xA0 DUP7 DUP9 SUB SLT ISZERO PUSH2 0x6671 JUMPI PUSH1 0x0 DUP1 REVERT JUMPDEST PUSH2 0x667A DUP7 PUSH2 0x5F72 JUMP JUMPDEST SWAP5 POP PUSH1 0x20 DUP7 ADD CALLDATALOAD PUSH1 0x1 PUSH1 0x1 PUSH1 0x40 SHL SUB DUP2 GT ISZERO PUSH2 0x6695 JUMPI PUSH1 0x0 DUP1 REVERT JUMPDEST PUSH2 0x66A1 DUP9 DUP3 DUP10 ADD PUSH2 0x5EE5 JUMP JUMPDEST SWAP5 POP POP PUSH1 0x40 DUP7 ADD CALLDATALOAD PUSH1 0x1 PUSH1 0x1 PUSH1 0x40 SHL SUB DUP2 GT ISZERO PUSH2 0x66BD JUMPI PUSH1 0x0 DUP1 REVERT JUMPDEST PUSH2 0x66C9 DUP9 DUP3 DUP10 ADD PUSH2 0x5EE5 JUMP JUMPDEST SWAP4 POP POP PUSH1 0x60 DUP7 ADD CALLDATALOAD PUSH1 0x1 PUSH1 0x1 PUSH1 0x40 SHL SUB DUP2 GT ISZERO PUSH2 0x66E5 JUMPI PUSH1 0x0 DUP1 REVERT JUMPDEST PUSH2 0x66F1 DUP9 DUP3 DUP10 ADD PUSH2 0x5EE5 JUMP JUMPDEST SWAP3 POP POP PUSH1 0x80 DUP7 ADD CALLDATALOAD PUSH1 0x1 PUSH1 0x1 PUSH1 0x40 SHL SUB DUP2 GT ISZERO PUSH2 0x6640 JUMPI PUSH1 0x0 DUP1 REVERT JUMPDEST PUSH1 0x20 DUP2 MSTORE PUSH1 0x0 PUSH2 0x1A27 PUSH1 0x20 DUP4 ADD DUP5 PUSH2 0x6195 JUMP JUMPDEST PUSH1 0x0 DUP1 PUSH1 0x0 DUP1 PUSH1 0x80 DUP6 DUP8 SUB SLT ISZERO PUSH2 0x6736 JUMPI PUSH1 0x0 DUP1 REVERT JUMPDEST PUSH2 0x673F DUP6 PUSH2 0x5F72 JUMP JUMPDEST SWAP4 POP PUSH1 0x20 DUP6 ADD CALLDATALOAD PUSH1 0x1 PUSH1 0x1 PUSH1 0x40 SHL SUB DUP2 GT ISZERO PUSH2 0x675A JUMPI PUSH1 0x0 DUP1 REVERT JUMPDEST PUSH2 0x6766 DUP8 DUP3 DUP9 ADD PUSH2 0x5EE5 JUMP JUMPDEST SWAP4 POP POP PUSH1 0x40 DUP6 ADD CALLDATALOAD PUSH1 0x1 PUSH1 0x1 PUSH1 0x40 SHL SUB DUP2 GT ISZERO PUSH2 0x6782 JUMPI PUSH1 0x0 DUP1 REVERT JUMPDEST PUSH2 0x678E DUP8 DUP3 DUP9 ADD PUSH2 0x5EE5 JUMP JUMPDEST SWAP3 POP POP PUSH1 0x60 DUP6 ADD CALLDATALOAD PUSH1 0x1 PUSH1 0x1 PUSH1 0x40 SHL SUB DUP2 GT ISZERO PUSH2 0x67AA JUMPI PUSH1 0x0 DUP1 REVERT JUMPDEST PUSH2 0x67B6 DUP8 DUP3 DUP9 ADD PUSH2 0x5EE5 JUMP JUMPDEST SWAP2 POP POP SWAP3 SWAP6 SWAP2 SWAP5 POP SWAP3 POP JUMP JUMPDEST PUSH1 0x0 DUP1 PUSH1 0x40 DUP4 DUP6 SUB SLT ISZERO PUSH2 0x67D5 JUMPI PUSH1 0x0 DUP1 REVERT JUMPDEST PUSH2 0x67DE DUP4 PUSH2 0x5F72 JUMP JUMPDEST SWAP2 POP PUSH1 0x20 DUP4 ADD CALLDATALOAD PUSH1 0x1 PUSH1 0x1 PUSH1 0x40 SHL SUB DUP2 GT ISZERO PUSH2 0x62C0 JUMPI PUSH1 0x0 DUP1 REVERT JUMPDEST PUSH1 0x0 PUSH1 0x20 DUP3 ADD PUSH1 0x20 DUP4 MSTORE DUP1 DUP5 MLOAD DUP1 DUP4 MSTORE PUSH1 0x40 DUP6 ADD SWAP2 POP PUSH1 0x40 DUP2 PUSH1 0x5 SHL DUP7 ADD ADD SWAP3 POP PUSH1 0x20 DUP7 ADD PUSH1 0x0 JUMPDEST DUP3 DUP2 LT ISZERO PUSH2 0x6263 JUMPI PUSH1 0x3F NOT DUP8 DUP7 SUB ADD DUP5 MSTORE PUSH2 0x683D DUP6 DUP4 MLOAD PUSH2 0x64C6 JUMP JUMPDEST SWAP5 POP PUSH1 0x20 SWAP4 DUP5 ADD SWAP4 SWAP2 SWAP1 SWAP2 ADD SWAP1 PUSH1 0x1 ADD PUSH2 0x6821 JUMP JUMPDEST PUSH1 0x20 DUP1 DUP3 MSTORE DUP3 MLOAD DUP3 DUP3 ADD DUP2 SWAP1 MSTORE PUSH1 0x0 SWAP2 DUP5 ADD SWAP1 PUSH1 0x40 DUP5 ADD SWAP1 DUP4 JUMPDEST DUP2 DUP2 LT ISZERO PUSH2 0x2142 JUMPI DUP4 MLOAD DUP4 MSTORE PUSH1 0x20 SWAP4 DUP5 ADD SWAP4 SWAP1 SWAP3 ADD SWAP2 PUSH1 0x1 ADD PUSH2 0x686C JUMP JUMPDEST PUSH1 0x0 PUSH1 0x20 DUP3 ADD PUSH1 0x20 DUP4 MSTORE DUP1 DUP5 MLOAD DUP1 DUP4 MSTORE PUSH1 0x40 DUP6 ADD SWAP2 POP PUSH1 0x40 DUP2 PUSH1 0x5 SHL DUP7 ADD ADD SWAP3 POP PUSH1 0x20 DUP7 ADD PUSH1 0x0 JUMPDEST DUP3 DUP2 LT ISZERO PUSH2 0x6263 JUMPI PUSH1 0x3F NOT DUP8 DUP7 SUB ADD DUP5 MSTORE DUP2 MLOAD PUSH1 0x1 DUP1 PUSH1 0xA0 SHL SUB DUP2 MLOAD AND DUP7 MSTORE PUSH1 0x20 DUP2 ADD MLOAD ISZERO ISZERO PUSH1 0x20 DUP8 ADD MSTORE PUSH1 0x40 DUP2 ADD MLOAD PUSH1 0xC0 PUSH1 0x40 DUP9 ADD MSTORE PUSH2 0x68F6 PUSH1 0xC0 DUP9 ADD DUP3 PUSH2 0x6195 JUMP JUMPDEST SWAP1 POP PUSH1 0x60 DUP3 ADD MLOAD DUP8 DUP3 SUB PUSH1 0x60 DUP10 ADD MSTORE PUSH2 0x690F DUP3 DUP3 PUSH2 0x6195 JUMP JUMPDEST PUSH1 0x80 DUP5 DUP2 ADD MLOAD SWAP1 DUP11 ADD MSTORE PUSH1 0xA0 SWAP4 DUP5 ADD MLOAD ISZERO ISZERO SWAP4 SWAP1 SWAP9 ADD SWAP3 SWAP1 SWAP3 MSTORE POP POP PUSH1 0x20 SWAP4 DUP5 ADD SWAP4 SWAP2 SWAP1 SWAP2 ADD SWAP1 PUSH1 0x1 ADD PUSH2 0x68B2 JUMP JUMPDEST PUSH1 0x20 DUP1 DUP3 MSTORE PUSH1 0x19 SWAP1 DUP3 ADD MSTORE PUSH32 0x4C697374206E616D652063616E6E6F7420626520656D70747900000000000000 PUSH1 0x40 DUP3 ADD MSTORE PUSH1 0x60 ADD SWAP1 JUMP JUMPDEST PUSH1 0x0 DUP3 MLOAD PUSH2 0x6987 DUP2 DUP5 PUSH1 0x20 DUP8 ADD PUSH2 0x6171 JUMP JUMPDEST SWAP2 SWAP1 SWAP2 ADD SWAP3 SWAP2 POP POP JUMP JUMPDEST PUSH4 0x4E487B71 PUSH1 0xE0 SHL PUSH1 0x0 MSTORE PUSH1 0x32 PUSH1 0x4 MSTORE PUSH1 0x24 PUSH1 0x0 REVERT JUMPDEST PUSH4 0x4E487B71 PUSH1 0xE0 SHL PUSH1 0x0 MSTORE PUSH1 0x11 PUSH1 0x4 MSTORE PUSH1 0x24 PUSH1 0x0 REVERT JUMPDEST DUP2 DUP2 SUB DUP2 DUP2 GT ISZERO PUSH2 0x821 JUMPI PUSH2 0x821 PUSH2 0x69A7 JUMP JUMPDEST PUSH1 0x1 DUP2 DUP2 SHR SWAP1 DUP3 AND DUP1 PUSH2 0x69E4 JUMPI PUSH1 0x7F DUP3 AND SWAP2 POP JUMPDEST PUSH1 0x20 DUP3 LT DUP2 SUB PUSH2 0x6A04 JUMPI PUSH4 0x4E487B71 PUSH1 0xE0 SHL PUSH1 0x0 MSTORE PUSH1 0x22 PUSH1 0x4 MSTORE PUSH1 0x24 PUSH1 0x0 REVERT JUMPDEST POP SWAP2 SWAP1 POP JUMP JUMPDEST PUSH1 0x1F DUP3 GT ISZERO PUSH2 0x6A51 JUMPI DUP1 PUSH1 0x0 MSTORE PUSH1 0x20 PUSH1 0x0 KECCAK256 PUSH1 0x1F DUP5 ADD PUSH1 0x5 SHR DUP2 ADD PUSH1 0x20 DUP6 LT ISZERO PUSH2 0x6A31 JUMPI POP DUP1 JUMPDEST PUSH1 0x1F DUP5 ADD PUSH1 0x5 SHR DUP3 ADD SWAP2 POP JUMPDEST DUP2 DUP2 LT ISZERO PUSH2 0xD1F JUMPI PUSH1 0x0 DUP2 SSTORE PUSH1 0x1 ADD PUSH2 0x6A3D JUMP JUMPDEST POP POP POP JUMP JUMPDEST DUP2 DUP2 SUB PUSH2 0x6A61 JUMPI POP POP JUMP JUMPDEST PUSH2 0x6A6B DUP3 SLOAD PUSH2 0x69D0 JUMP JUMPDEST PUSH1 0x1 PUSH1 0x1 PUSH1 0x40 SHL SUB DUP2 GT ISZERO PUSH2 0x6A82 JUMPI PUSH2 0x6A82 PUSH2 0x5ECF JUMP JUMPDEST PUSH2 0x6A96 DUP2 PUSH2 0x6A90 DUP5 SLOAD PUSH2 0x69D0 JUMP JUMPDEST DUP5 PUSH2 0x6A0A JUMP JUMPDEST PUSH1 0x0 PUSH1 0x1F DUP3 GT PUSH1 0x1 DUP2 EQ PUSH2 0x6ACD JUMPI PUSH1 0x0 DUP4 ISZERO PUSH2 0x6AB2 JUMPI POP DUP5 DUP3 ADD SLOAD JUMPDEST PUSH1 0x1 DUP5 SWAP1 SHL PUSH1 0x0 NOT PUSH1 0x3 DUP7 SWAP1 SHL SHR NOT DUP3 AND OR JUMPDEST DUP6 SSTORE POP PUSH2 0xD1F JUMP JUMPDEST PUSH1 0x0 DUP6 DUP2 MSTORE PUSH1 0x20 SWAP1 KECCAK256 PUSH1 0x1F NOT DUP5 AND SWAP1 PUSH1 0x0 DUP7 DUP2 MSTORE PUSH1 0x20 SWAP1 KECCAK256 DUP5 JUMPDEST DUP4 DUP2 LT ISZERO PUSH2 0x6B07 JUMPI DUP3 DUP7 ADD SLOAD DUP3 SSTORE PUSH1 0x1 SWAP6 DUP7 ADD SWAP6 SWAP1 SWAP2 ADD SWAP1 PUSH1 0x20 ADD PUSH2 0x6AE7 JUMP JUMPDEST POP DUP6 DUP4 LT ISZERO PUSH2 0x6B25 JUMPI DUP2 DUP6 ADD SLOAD PUSH1 0x0 NOT PUSH1 0x3 DUP9 SWAP1 SHL PUSH1 0xF8 AND SHR NOT AND DUP2 SSTORE JUMPDEST POP POP POP POP POP PUSH1 0x1 SWAP1 DUP2 SHL ADD SWAP1 SSTORE POP JUMP JUMPDEST PUSH4 0x4E487B71 PUSH1 0xE0 SHL PUSH1 0x0 MSTORE PUSH1 0x31 PUSH1 0x4 MSTORE PUSH1 0x24 PUSH1 0x0 REVERT JUMPDEST PUSH1 0x60 DUP2 MSTORE PUSH1 0x0 PUSH2 0x6B5E PUSH1 0x60 DUP4 ADD DUP6 PUSH2 0x6195 JUMP JUMPDEST DUP3 DUP2 SUB PUSH1 0x20 DUP5 ADD MSTORE PUSH1 0x6 DUP2 MSTORE PUSH6 0x72656D6F7665 PUSH1 0xD0 SHL PUSH1 0x20 DUP3 ADD MSTORE PUSH1 0x40 DUP2 ADD SWAP2 POP POP DUP3 PUSH1 0x40 DUP4 ADD MSTORE SWAP4 SWAP3 POP POP POP JUMP JUMPDEST DUP2 MLOAD PUSH1 0x1 PUSH1 0x1 PUSH1 0x40 SHL SUB DUP2 GT ISZERO PUSH2 0x6BA6 JUMPI PUSH2 0x6BA6 PUSH2 0x5ECF JUMP JUMPDEST PUSH2 0x6BB4 DUP2 PUSH2 0x6A90 DUP5 SLOAD PUSH2 0x69D0 JUMP JUMPDEST PUSH1 0x20 PUSH1 0x1F DUP3 GT PUSH1 0x1 DUP2 EQ PUSH2 0x6BE6 JUMPI PUSH1 0x0 DUP4 ISZERO PUSH2 0x6AB2 JUMPI POP DUP2 DUP6 ADD MLOAD PUSH1 0x1 DUP5 SWAP1 SHL PUSH1 0x0 NOT PUSH1 0x3 DUP7 SWAP1 SHL SHR NOT DUP3 AND OR PUSH2 0x6AC5 JUMP JUMPDEST PUSH1 0x0 DUP5 DUP2 MSTORE PUSH1 0x20 DUP2 KECCAK256 PUSH1 0x1F NOT DUP6 AND SWAP2 JUMPDEST DUP3 DUP2 LT ISZERO PUSH2 0x6C16 JUMPI DUP8 DUP6 ADD MLOAD DUP3 SSTORE PUSH1 0x20 SWAP5 DUP6 ADD SWAP5 PUSH1 0x1 SWAP1 SWAP3 ADD SWAP2 ADD PUSH2 0x6BF6 JUMP JUMPDEST POP DUP5 DUP3 LT ISZERO PUSH2 0x6C34 JUMPI DUP7 DUP5 ADD MLOAD PUSH1 0x0 NOT PUSH1 0x3 DUP8 SWAP1 SHL PUSH1 0xF8 AND SHR NOT AND DUP2 SSTORE JUMPDEST POP POP POP POP PUSH1 0x1 SWAP1 DUP2 SHL ADD SWAP1 SSTORE POP JUMP JUMPDEST PUSH1 0x80 DUP2 MSTORE PUSH1 0x0 PUSH2 0x6C56 PUSH1 0x80 DUP4 ADD DUP8 PUSH2 0x6195 JUMP JUMPDEST DUP3 DUP2 SUB PUSH1 0x20 DUP5 ADD MSTORE PUSH2 0x6C68 DUP2 DUP8 PUSH2 0x6195 JUMP JUMPDEST SWAP2 POP POP PUSH2 0x6C78 PUSH1 0x40 DUP4 ADD DUP6 PUSH2 0x6345 JUMP JUMPDEST DUP3 PUSH1 0x60 DUP4 ADD MSTORE SWAP6 SWAP5 POP POP POP POP POP JUMP JUMPDEST PUSH1 0x0 DUP1 DUP4 SLOAD PUSH2 0x6C95 DUP2 PUSH2 0x69D0 JUMP JUMPDEST PUSH1 0x1 DUP3 AND DUP1 ISZERO PUSH2 0x6CAC JUMPI PUSH1 0x1 DUP2 EQ PUSH2 0x6CC1 JUMPI PUSH2 0x6CF1 JUMP JUMPDEST PUSH1 0xFF NOT DUP4 AND DUP7 MSTORE DUP2 ISZERO ISZERO DUP3 MUL DUP7 ADD SWAP4 POP PUSH2 0x6CF1 JUMP JUMPDEST DUP7 PUSH1 0x0 MSTORE PUSH1 0x20 PUSH1 0x0 KECCAK256 PUSH1 0x0 JUMPDEST DUP4 DUP2 LT ISZERO PUSH2 0x6CE9 JUMPI DUP2 SLOAD DUP9 DUP3 ADD MSTORE PUSH1 0x1 SWAP1 SWAP2 ADD SWAP1 PUSH1 0x20 ADD PUSH2 0x6CCD JUMP JUMPDEST POP POP DUP2 DUP7 ADD SWAP4 POP JUMPDEST POP SWAP2 SWAP6 SWAP5 POP POP POP POP POP JUMP JUMPDEST PUSH1 0x0 DUP2 SLOAD PUSH2 0x6D09 DUP2 PUSH2 0x69D0 JUMP JUMPDEST DUP1 DUP6 MSTORE PUSH1 0x1 DUP3 AND DUP1 ISZERO PUSH2 0x6D23 JUMPI PUSH1 0x1 DUP2 EQ PUSH2 0x6D3F JUMPI PUSH2 0x6D76 JUMP JUMPDEST PUSH1 0xFF NOT DUP4 AND PUSH1 0x20 DUP8 ADD MSTORE PUSH1 0x20 DUP3 ISZERO ISZERO PUSH1 0x5 SHL DUP8 ADD ADD SWAP4 POP PUSH2 0x6D76 JUMP JUMPDEST DUP5 PUSH1 0x0 MSTORE PUSH1 0x20 PUSH1 0x0 KECCAK256 PUSH1 0x0 JUMPDEST DUP4 DUP2 LT ISZERO PUSH2 0x6D6D JUMPI DUP2 SLOAD PUSH1 0x20 DUP3 DUP11 ADD ADD MSTORE PUSH1 0x1 DUP3 ADD SWAP2 POP PUSH1 0x20 DUP2 ADD SWAP1 POP PUSH2 0x6D4B JUMP JUMPDEST DUP8 ADD PUSH1 0x20 ADD SWAP5 POP POP JUMPDEST POP POP POP SWAP3 SWAP2 POP POP JUMP JUMPDEST PUSH1 0x60 DUP2 MSTORE PUSH1 0x0 PUSH2 0x6D92 PUSH1 0x60 DUP4 ADD DUP7 PUSH2 0x6CFC JUMP JUMPDEST SWAP4 ISZERO ISZERO PUSH1 0x20 DUP4 ADD MSTORE POP PUSH1 0x40 ADD MSTORE SWAP2 SWAP1 POP JUMP JUMPDEST PUSH1 0x60 DUP2 MSTORE PUSH1 0x0 PUSH2 0x6DB7 PUSH1 0x60 DUP4 ADD DUP7 PUSH2 0x6195 JUMP JUMPDEST DUP3 DUP2 SUB PUSH1 0x20 DUP5 ADD MSTORE PUSH2 0x6DC9 DUP2 DUP7 PUSH2 0x6195 JUMP JUMPDEST SWAP2 POP POP DUP3 PUSH1 0x40 DUP4 ADD MSTORE SWAP5 SWAP4 POP POP POP POP JUMP JUMPDEST PUSH1 0x80 DUP2 MSTORE PUSH1 0x0 PUSH2 0x6DED PUSH1 0x80 DUP4 ADD DUP8 PUSH2 0x6195 JUMP JUMPDEST DUP3 DUP2 SUB PUSH1 0x20 DUP5 ADD MSTORE PUSH2 0x6C68 DUP2 DUP8 PUSH2 0x6CFC JUMP JUMPDEST PUSH1 0x0 PUSH1 0x1 DUP3 ADD PUSH2 0x6E11 JUMPI PUSH2 0x6E11 PUSH2 0x69A7 JUMP JUMPDEST POP PUSH1 0x1 ADD SWAP1 JUMP JUMPDEST DUP1 DUP3 ADD DUP1 DUP3 GT ISZERO PUSH2 0x821 JUMPI PUSH2 0x821 PUSH2 0x69A7 JUMP JUMPDEST PUSH1 0x60 DUP2 MSTORE PUSH1 0x0 PUSH2 0x6E3E PUSH1 0x60 DUP4 ADD DUP6 PUSH2 0x6195 JUMP JUMPDEST DUP3 DUP2 SUB PUSH1 0x20 DUP5 ADD MSTORE PUSH1 0x6 DUP2 MSTORE PUSH6 0x757064617465 PUSH1 0xD0 SHL PUSH1 0x20 DUP3 ADD MSTORE PUSH1 0x40 DUP2 ADD SWAP2 POP POP DUP3 PUSH1 0x40 DUP4 ADD MSTORE SWAP4 SWAP3 POP POP POP JUMP JUMPDEST PUSH1 0x60 DUP2 MSTORE PUSH1 0x0 PUSH2 0x6E80 PUSH1 0x60 DUP4 ADD DUP6 PUSH2 0x6195 JUMP JUMPDEST DUP3 DUP2 SUB PUSH1 0x20 DUP5 ADD MSTORE PUSH1 0x3 DUP2 MSTORE PUSH3 0x185919 PUSH1 0xEA SHL PUSH1 0x20 DUP3 ADD MSTORE PUSH1 0x40 DUP2 ADD SWAP2 POP POP DUP3 PUSH1 0x40 DUP4 ADD MSTORE SWAP4 SWAP3 POP POP POP JUMP INVALID 0x4F PUSH15 0x6C792073706F6E736F72206F722061 PUSH5 0x6D696E6973 PUSH21 0x7261746F72732063A2646970667358221220B7454A 0xC8 0xDA 0xF 0xC6 DUP10 0xE2 PUSH24 0xF1DC659A0F28DD6AB90968AFEABAE88465E20AFEC8146473 PUSH16 0x6C634300081B00330000000000000000 "},"methodIdentifiers":{"VERSION()":"ffa1ad74","addAdministrator(address)":"c9991176","addToWhitelist(string,address,string,uint8,string)":"fd098d2f","createApproval(address,string,string,string)":"9d2c2c77","createPost(address,string,string,string,string,uint8)":"0e26b22d","deletePrivateAttribute(string)":"48205521","deletePublicAttribute(string)":"7f344c16","domain()":"c2fb26a6","getAllApprovalsForApprover(address)":"f6ee44cb","getAllApprovalsForRequestor(address)":"c565b772","getApprovalsByAddress(address,address)":"1b204716","getConversation(address)":"2a6d9034","getConversationId(address,address)":"c25cfe8a","getListNames(address)":"43b63fd5","getMessageCount()":"31933916","getPosts(address)":"4caf9d0b","getPostsPaginated(address,uint256,uint256)":"53dacec6","getPrivateAttribute(string)":"ca239d4b","getPrivateAttributeKeys()":"294c9921","getPublicAttribute(string)":"8f033c85","getPublicAttributeKeys()":"57fca407","getPublicKeys(address)":"5fcbb7d6","getUserConversationIds()":"be758306","getWhitelist(address,string)":"b33a0af1","getWhitelistEntry(address,string,address)":"4194f5aa","handleApproval(address,string,bool)":"10ae73dd","isAdministrator(address)":"0a2eb301","isWhitelisted(address,string,address)":"956f0f8f","publicAttributes(string)":"bae067b3","read()":"57de26a4","removeAdministrator(address)":"68fa8134","removeFromWhitelist(string,address)":"0308761b","sendMessage(address,string,string,string,string)":"7657e293","setPrivateAttribute(string,string)":"aa2285a5","setPublicAttribute(string,string)":"898c2d7b","sponsor()":"77c93662","transferOwnership(address)":"f2fde38b","updateWhitelistEntry(string,address,string,uint8,string)":"5eaf27f1","write(string,string)":"1e7c0197"}}}}}