{"contracts/agent.sol":{"Agent":{"abi":[{"inputs":[{"internalType":"string","name":"_domain","type":"string"},{"internalType":"address","name":"_sponsor","type":"address"}],"stateMutability":"nonpayable","type":"constructor"},{"anonymous":false,"inputs":[{"indexed":true,"internalType":"address","name":"owner","type":"address"},{"indexed":true,"internalType":"address","name":"addr","type":"address"},{"indexed":false,"internalType":"string","name":"name","type":"string"}],"name":"AddressNameSet","type":"event"},{"anonymous":false,"inputs":[{"indexed":true,"internalType":"address","name":"approver","type":"address"},{"indexed":true,"internalType":"address","name":"requestor","type":"address"},{"indexed":false,"internalType":"string","name":"fileName","type":"string"},{"indexed":false,"internalType":"bool","name":"approved","type":"bool"},{"indexed":false,"internalType":"uint256","name":"timestamp","type":"uint256"}],"name":"ApprovalHandled","type":"event"},{"anonymous":false,"inputs":[{"indexed":true,"internalType":"address","name":"approver","type":"address"},{"indexed":true,"internalType":"address","name":"requestor","type":"address"},{"indexed":false,"internalType":"string","name":"fileName","type":"string"},{"indexed":false,"internalType":"string","name":"fileHash","type":"string"},{"indexed":false,"internalType":"uint256","name":"timestamp","type":"uint256"}],"name":"ApprovalRequested","type":"event"},{"anonymous":false,"inputs":[{"indexed":true,"internalType":"string","name":"key","type":"string"},{"indexed":false,"internalType":"bool","name":"isPublic","type":"bool"},{"indexed":false,"internalType":"uint256","name":"timestamp","type":"uint256"}],"name":"AttributeSet","type":"event"},{"anonymous":false,"inputs":[{"indexed":true,"internalType":"address","name":"owner","type":"address"},{"indexed":false,"internalType":"string","name":"publicKey","type":"string"},{"indexed":false,"internalType":"string","name":"data","type":"string"},{"indexed":false,"internalType":"uint256","name":"timestamp","type":"uint256"}],"name":"DataWritten","type":"event"},{"anonymous":false,"inputs":[{"indexed":true,"internalType":"address","name":"from","type":"address"},{"indexed":true,"internalType":"address","name":"to","type":"address"},{"indexed":false,"internalType":"string","name":"ipfsHash","type":"string"},{"indexed":false,"internalType":"string","name":"domain","type":"string"},{"indexed":false,"internalType":"uint256","name":"timestamp","type":"uint256"}],"name":"MessageSent","type":"event"},{"anonymous":false,"inputs":[{"indexed":true,"internalType":"address","name":"previousOwner","type":"address"},{"indexed":true,"internalType":"address","name":"newOwner","type":"address"},{"indexed":false,"internalType":"uint256","name":"timestamp","type":"uint256"}],"name":"OwnershipTransferred","type":"event"},{"anonymous":false,"inputs":[{"indexed":true,"internalType":"address","name":"from","type":"address"},{"indexed":true,"internalType":"address","name":"board","type":"address"},{"indexed":false,"internalType":"string","name":"ipfsHash","type":"string"},{"indexed":false,"internalType":"string","name":"domain","type":"string"},{"indexed":false,"internalType":"enum Agent.Visibility","name":"visibility","type":"uint8"},{"indexed":false,"internalType":"uint256","name":"timestamp","type":"uint256"}],"name":"PostCreated","type":"event"},{"anonymous":false,"inputs":[{"indexed":true,"internalType":"address","name":"owner","type":"address"},{"indexed":false,"internalType":"string","name":"listName","type":"string"},{"indexed":true,"internalType":"address","name":"addr","type":"address"},{"indexed":false,"internalType":"string","name":"action","type":"string"},{"indexed":false,"internalType":"uint256","name":"timestamp","type":"uint256"}],"name":"WhitelistModified","type":"event"},{"inputs":[],"name":"VERSION","outputs":[{"internalType":"string","name":"","type":"string"}],"stateMutability":"view","type":"function"},{"inputs":[{"internalType":"address","name":"admin","type":"address"}],"name":"addAdministrator","outputs":[],"stateMutability":"nonpayable","type":"function"},{"inputs":[{"internalType":"string","name":"listName","type":"string"},{"internalType":"address","name":"addressToAdd","type":"address"},{"internalType":"string","name":"name","type":"string"},{"internalType":"uint8","name":"role","type":"uint8"},{"internalType":"string","name":"meta","type":"string"}],"name":"addToWhitelist","outputs":[],"stateMutability":"nonpayable","type":"function"},{"inputs":[{"internalType":"address","name":"approverAddress","type":"address"},{"internalType":"string","name":"fileName","type":"string"},{"internalType":"string","name":"fileHash","type":"string"},{"internalType":"string","name":"requestDomain","type":"string"}],"name":"createApproval","outputs":[],"stateMutability":"nonpayable","type":"function"},{"inputs":[{"internalType":"address","name":"board","type":"address"},{"internalType":"string","name":"publicKey","type":"string"},{"internalType":"string","name":"data","type":"string"},{"internalType":"string","name":"postDomain","type":"string"},{"internalType":"string","name":"ipfsHash","type":"string"},{"internalType":"enum Agent.Visibility","name":"visibility","type":"uint8"}],"name":"createPost","outputs":[],"stateMutability":"nonpayable","type":"function"},{"inputs":[{"internalType":"string","name":"key","type":"string"}],"name":"deletePrivateAttribute","outputs":[],"stateMutability":"nonpayable","type":"function"},{"inputs":[{"internalType":"string","name":"key","type":"string"}],"name":"deletePublicAttribute","outputs":[],"stateMutability":"nonpayable","type":"function"},{"inputs":[],"name":"domain","outputs":[{"internalType":"string","name":"","type":"string"}],"stateMutability":"view","type":"function"},{"inputs":[{"internalType":"address","name":"ownerAddress","type":"address"},{"internalType":"address","name":"addr","type":"address"}],"name":"getAddressName","outputs":[{"internalType":"string","name":"","type":"string"}],"stateMutability":"view","type":"function"},{"inputs":[{"internalType":"address","name":"approverAddress","type":"address"}],"name":"getAllApprovalsForApprover","outputs":[{"components":[{"internalType":"address","name":"requestor","type":"address"},{"internalType":"bool","name":"approved","type":"bool"},{"internalType":"string","name":"fileName","type":"string"},{"internalType":"string","name":"fileHash","type":"string"},{"internalType":"uint256","name":"processedAt","type":"uint256"},{"internalType":"bool","name":"exists","type":"bool"}],"internalType":"struct Agent.ApprovalWithRequestor[]","name":"","type":"tuple[]"}],"stateMutability":"view","type":"function"},{"inputs":[{"internalType":"address","name":"requestorAddress","type":"address"}],"name":"getAllApprovalsForRequestor","outputs":[{"components":[{"internalType":"address","name":"requestor","type":"address"},{"internalType":"bool","name":"approved","type":"bool"},{"internalType":"string","name":"fileName","type":"string"},{"internalType":"string","name":"fileHash","type":"string"},{"internalType":"uint256","name":"processedAt","type":"uint256"},{"internalType":"bool","name":"exists","type":"bool"}],"internalType":"struct Agent.ApprovalWithRequestor[]","name":"","type":"tuple[]"}],"stateMutability":"view","type":"function"},{"inputs":[{"internalType":"address","name":"approverAddress","type":"address"},{"internalType":"address","name":"requestorAddress","type":"address"}],"name":"getApprovalsByAddress","outputs":[{"components":[{"internalType":"bool","name":"approved","type":"bool"},{"internalType":"string","name":"fileName","type":"string"},{"internalType":"string","name":"fileHash","type":"string"},{"internalType":"uint256","name":"processedAt","type":"uint256"},{"internalType":"bool","name":"exists","type":"bool"}],"internalType":"struct Agent.ApprovalRequest[]","name":"","type":"tuple[]"}],"stateMutability":"view","type":"function"},{"inputs":[{"internalType":"address","name":"otherParty","type":"address"}],"name":"getConversation","outputs":[{"components":[{"internalType":"address","name":"from","type":"address"},{"internalType":"address","name":"to","type":"address"},{"internalType":"string","name":"data","type":"string"},{"internalType":"string","name":"publicKey","type":"string"},{"internalType":"string","name":"domain","type":"string"},{"internalType":"string","name":"ipfsHash","type":"string"},{"internalType":"enum Agent.Visibility","name":"visibility","type":"uint8"},{"internalType":"uint256","name":"timestamp","type":"uint256"}],"internalType":"struct Agent.RivetItem[]","name":"","type":"tuple[]"}],"stateMutability":"view","type":"function"},{"inputs":[{"internalType":"address","name":"addr1","type":"address"},{"internalType":"address","name":"addr2","type":"address"}],"name":"getConversationId","outputs":[{"internalType":"bytes32","name":"","type":"bytes32"}],"stateMutability":"pure","type":"function"},{"inputs":[{"internalType":"address","name":"wallet","type":"address"}],"name":"getListNames","outputs":[{"internalType":"string[]","name":"","type":"string[]"}],"stateMutability":"view","type":"function"},{"inputs":[{"internalType":"address","name":"member","type":"address"}],"name":"getListsForMember","outputs":[{"components":[{"internalType":"string","name":"listName","type":"string"},{"internalType":"uint8","name":"role","type":"uint8"},{"internalType":"uint256","name":"addedAt","type":"uint256"}],"internalType":"struct Agent.MembershipEntry[]","name":"","type":"tuple[]"}],"stateMutability":"view","type":"function"},{"inputs":[],"name":"getMessageCount","outputs":[{"internalType":"uint256","name":"","type":"uint256"}],"stateMutability":"view","type":"function"},{"inputs":[{"internalType":"address","name":"board","type":"address"}],"name":"getPosts","outputs":[{"components":[{"internalType":"address","name":"from","type":"address"},{"internalType":"address","name":"to","type":"address"},{"internalType":"string","name":"data","type":"string"},{"internalType":"string","name":"publicKey","type":"string"},{"internalType":"string","name":"domain","type":"string"},{"internalType":"string","name":"ipfsHash","type":"string"},{"internalType":"enum Agent.Visibility","name":"visibility","type":"uint8"},{"internalType":"uint256","name":"timestamp","type":"uint256"}],"internalType":"struct Agent.RivetItem[]","name":"","type":"tuple[]"}],"stateMutability":"view","type":"function"},{"inputs":[{"internalType":"address","name":"board","type":"address"},{"internalType":"uint256","name":"offset","type":"uint256"},{"internalType":"uint256","name":"limit","type":"uint256"}],"name":"getPostsPaginated","outputs":[{"components":[{"internalType":"address","name":"from","type":"address"},{"internalType":"address","name":"to","type":"address"},{"internalType":"string","name":"data","type":"string"},{"internalType":"string","name":"publicKey","type":"string"},{"internalType":"string","name":"domain","type":"string"},{"internalType":"string","name":"ipfsHash","type":"string"},{"internalType":"enum Agent.Visibility","name":"visibility","type":"uint8"},{"internalType":"uint256","name":"timestamp","type":"uint256"}],"internalType":"struct Agent.RivetItem[]","name":"","type":"tuple[]"}],"stateMutability":"view","type":"function"},{"inputs":[{"internalType":"string","name":"key","type":"string"}],"name":"getPrivateAttribute","outputs":[{"internalType":"string","name":"","type":"string"}],"stateMutability":"view","type":"function"},{"inputs":[],"name":"getPrivateAttributeKeys","outputs":[{"internalType":"string[]","name":"","type":"string[]"}],"stateMutability":"view","type":"function"},{"inputs":[{"internalType":"string","name":"key","type":"string"}],"name":"getPublicAttribute","outputs":[{"internalType":"string","name":"","type":"string"}],"stateMutability":"view","type":"function"},{"inputs":[],"name":"getPublicAttributeKeys","outputs":[{"internalType":"string[]","name":"","type":"string[]"}],"stateMutability":"view","type":"function"},{"inputs":[{"internalType":"address","name":"addr","type":"address"}],"name":"getPublicKeys","outputs":[{"internalType":"string[]","name":"","type":"string[]"}],"stateMutability":"view","type":"function"},{"inputs":[],"name":"getUserConversationIds","outputs":[{"internalType":"bytes32[]","name":"","type":"bytes32[]"}],"stateMutability":"view","type":"function"},{"inputs":[{"internalType":"address","name":"wallet","type":"address"},{"internalType":"string","name":"listName","type":"string"}],"name":"getWhitelist","outputs":[{"components":[{"internalType":"address","name":"addr","type":"address"},{"internalType":"string","name":"name","type":"string"},{"internalType":"uint8","name":"role","type":"uint8"},{"internalType":"string","name":"meta","type":"string"}],"internalType":"struct Agent.WhitelistEntry[]","name":"","type":"tuple[]"}],"stateMutability":"view","type":"function"},{"inputs":[{"internalType":"address","name":"wallet","type":"address"},{"internalType":"string","name":"listName","type":"string"},{"internalType":"address","name":"addressToCheck","type":"address"}],"name":"getWhitelistEntry","outputs":[{"components":[{"internalType":"address","name":"addr","type":"address"},{"internalType":"string","name":"name","type":"string"},{"internalType":"uint8","name":"role","type":"uint8"},{"internalType":"string","name":"meta","type":"string"}],"internalType":"struct Agent.WhitelistEntry","name":"","type":"tuple"}],"stateMutability":"view","type":"function"},{"inputs":[{"internalType":"address","name":"requestorAddress","type":"address"},{"internalType":"string","name":"fileName","type":"string"},{"internalType":"bool","name":"approved","type":"bool"}],"name":"handleApproval","outputs":[],"stateMutability":"nonpayable","type":"function"},{"inputs":[{"internalType":"address","name":"addr","type":"address"}],"name":"isAdministrator","outputs":[{"internalType":"bool","name":"","type":"bool"}],"stateMutability":"view","type":"function"},{"inputs":[{"internalType":"address","name":"wallet","type":"address"},{"internalType":"string","name":"listName","type":"string"},{"internalType":"address","name":"addressToCheck","type":"address"}],"name":"isWhitelisted","outputs":[{"internalType":"bool","name":"","type":"bool"}],"stateMutability":"view","type":"function"},{"inputs":[{"internalType":"string","name":"","type":"string"}],"name":"publicAttributes","outputs":[{"internalType":"string","name":"","type":"string"}],"stateMutability":"view","type":"function"},{"inputs":[],"name":"read","outputs":[{"internalType":"string[]","name":"","type":"string[]"}],"stateMutability":"view","type":"function"},{"inputs":[{"internalType":"address","name":"admin","type":"address"}],"name":"removeAdministrator","outputs":[],"stateMutability":"nonpayable","type":"function"},{"inputs":[{"internalType":"string","name":"listName","type":"string"},{"internalType":"address","name":"addressToRemove","type":"address"}],"name":"removeFromWhitelist","outputs":[],"stateMutability":"nonpayable","type":"function"},{"inputs":[{"internalType":"address","name":"to","type":"address"},{"internalType":"string","name":"publicKey","type":"string"},{"internalType":"string","name":"data","type":"string"},{"internalType":"string","name":"messageDomain","type":"string"},{"internalType":"string","name":"ipfsHash","type":"string"}],"name":"sendMessage","outputs":[],"stateMutability":"nonpayable","type":"function"},{"inputs":[{"internalType":"address","name":"addr","type":"address"},{"internalType":"string","name":"name","type":"string"}],"name":"setAddressName","outputs":[],"stateMutability":"nonpayable","type":"function"},{"inputs":[{"internalType":"string","name":"key","type":"string"},{"internalType":"string","name":"value","type":"string"}],"name":"setPrivateAttribute","outputs":[],"stateMutability":"nonpayable","type":"function"},{"inputs":[{"internalType":"string","name":"key","type":"string"},{"internalType":"string","name":"value","type":"string"}],"name":"setPublicAttribute","outputs":[],"stateMutability":"nonpayable","type":"function"},{"inputs":[],"name":"sponsor","outputs":[{"internalType":"address","name":"","type":"address"}],"stateMutability":"view","type":"function"},{"inputs":[{"internalType":"address","name":"newOwner","type":"address"}],"name":"transferOwnership","outputs":[],"stateMutability":"nonpayable","type":"function"},{"inputs":[{"internalType":"string","name":"listName","type":"string"},{"internalType":"address","name":"addressToUpdate","type":"address"},{"internalType":"string","name":"name","type":"string"},{"internalType":"uint8","name":"role","type":"uint8"},{"internalType":"string","name":"meta","type":"string"}],"name":"updateWhitelistEntry","outputs":[],"stateMutability":"nonpayable","type":"function"},{"inputs":[{"internalType":"string","name":"publicKey","type":"string"},{"internalType":"string","name":"data","type":"string"}],"name":"write","outputs":[],"stateMutability":"nonpayable","type":"function"}],"evm":{"bytecode":{"linkReferences":{},"object":"60a060405234801561001057600080fd5b5060405161786b38038061786b83398101604081905261002f9161012c565b60008251116100855760405162461bcd60e51b815260206004820152601660248201527f446f6d61696e2063616e6e6f7420626520656d7074790000000000000000000060448201526064015b60405180910390fd5b6001600160a01b0381166100db5760405162461bcd60e51b815260206004820152601e60248201527f53706f6e736f722063616e6e6f74206265207a65726f20616464726573730000604482015260640161007c565b60006100e78382610292565b506001600160a01b031660805250610350565b634e487b7160e01b600052604160045260246000fd5b80516001600160a01b038116811461012757600080fd5b919050565b6000806040838503121561013f57600080fd5b82516001600160401b0381111561015557600080fd5b8301601f8101851361016657600080fd5b80516001600160401b0381111561017f5761017f6100fa565b604051601f8201601f19908116603f011681016001600160401b03811182821017156101ad576101ad6100fa565b6040528181528282016020018710156101c557600080fd5b60005b828110156101e4576020818501810151838301820152016101c8565b5060006020838301015280945050505061020060208401610110565b90509250929050565b600181811c9082168061021d57607f821691505b60208210810361023d57634e487b7160e01b600052602260045260246000fd5b50919050565b601f82111561028d57806000526020600020601f840160051c8101602085101561026a5750805b601f840160051c820191505b8181101561028a5760008155600101610276565b50505b505050565b81516001600160401b038111156102ab576102ab6100fa565b6102bf816102b98454610209565b84610243565b6020601f8211600181146102f357600083156102db5750848201515b600019600385901b1c1916600184901b17845561028a565b600084815260208120601f198516915b828110156103235787850151825560209485019460019092019101610303565b50848210156103415786840151600019600387901b60f8161c191681555b50505050600190811b01905550565b6080516174c16103aa6000396000818161042d0152818161097b015281816113c401528181611d9801528181613206015281816135d00152818161375901528181613f6c01528181614ada0152614bda01526174c16000f3fe608060405234801561001057600080fd5b506004361061025e5760003560e01c806377c9366211610146578063be758306116100c3578063c999117611610087578063c99911761461059c578063ca239d4b146105af578063f2fde38b146105c2578063f6ee44cb146105d5578063fd098d2f146105e8578063ffa1ad74146105fb57600080fd5b8063be7583061461052c578063c25cfe8a14610541578063c2fb26a614610554578063c565b7721461055c578063c7967f111461057c57600080fd5b80639d2c2c771161010a5780639d2c2c77146104c0578063aa2285a5146104d3578063b33a0af1146104e6578063b715bb7414610506578063bae067b31461051957600080fd5b806377c93662146104285780637f344c1614610467578063898c2d7b1461047a5780638f033c851461048d578063956f0f8f146104ad57600080fd5b80634194f5aa116101df57806357de26a4116101a357806357de26a4146103cc57806357fca407146103d45780635eaf27f1146103dc5780635fcbb7d6146103ef57806368fa8134146104025780637657e2931461041557600080fd5b80634194f5aa1461036057806343b63fd51461038057806348205521146103935780634caf9d0b146103a657806353dacec6146103b957600080fd5b80631e7c0197116102265780631e7c0197146102e6578063294c9921146102f95780632a6d90341461030e5780633037c5ad1461032e578063319339161461034157600080fd5b80630308761b146102635780630a2eb301146102785780630e26b22d146102a057806310ae73dd146102b35780631b204716146102c6575b600080fd5b6102766102713660046164d1565b61061f565b005b61028b61028636600461651e565b610977565b60405190151581526020015b60405180910390f35b6102766102ae366004616548565b6109d7565b6102766102c1366004616624565b610bed565b6102d96102d436600461668a565b610ed6565b6040516102979190616704565b6102766102f43660046167b2565b6110ad565b6103016113b7565b6040516102979190616819565b61032161031c36600461651e565b611536565b60405161029791906168aa565b61027661033c3660046169ac565b611927565b336000908152600260205260409020545b604051908152602001610297565b61037361036e3660046169e3565b6119e7565b6040516102979190616a96565b61030161038e36600461651e565b611c9e565b6102766103a1366004616aa9565b611d8d565b6103216103b436600461651e565b611f3c565b6103216103c7366004616ae5565b6123bd565b6103016129e4565b610301612d98565b6102766103ea366004616b18565b612e68565b6103016103fd36600461651e565b613117565b61027661041036600461651e565b6131fb565b610276610423366004616bd3565b6132a3565b61044f7f000000000000000000000000000000000000000000000000000000000000000081565b6040516001600160a01b039091168152602001610297565b610276610475366004616aa9565b6135c5565b6102766104883660046167b2565b61374e565b6104a061049b366004616aa9565b61392a565b6040516102979190616c87565b61028b6104bb3660046169e3565b6139da565b6102766104ce366004616c9a565b613c15565b6102766104e13660046167b2565b613f61565b6104f96104f43660046169ac565b614135565b6040516102979190616d3c565b6104a061051436600461668a565b61430b565b6104a0610527366004616aa9565b6143c5565b61053461446a565b6040516102979190616d95565b61035261054f36600461668a565b6144cb565b6104a0614541565b61056f61056a36600461651e565b61454e565b6040516102979190616dcd565b61058f61058a36600461651e565b6149ae565b6040516102979190616e81565b6102766105aa36600461651e565b614acf565b6104a06105bd366004616aa9565b614bcd565b6102766105d036600461651e565b614c85565b61056f6105e336600461651e565b6159f1565b6102766105f6366004616b18565b615e47565b6104a0604051806040016040528060058152602001640332e322e360dc1b81525081565b60008251116106495760405162461bcd60e51b815260040161064090616efd565b60405180910390fd5b336000908152600560205260408082209051610666908590616f34565b9081526020016040518091039020905060005b815481101561097157826001600160a01b031682828154811061069e5761069e616f50565b60009182526020909120600490910201546001600160a01b03160361096957815482906106cd90600190616f7c565b815481106106dd576106dd616f50565b90600052602060002090600402018282815481106106fd576106fd616f50565b60009182526020909120825460049092020180546001600160a01b0319166001600160a01b0390921691909117815560018082019061073e90840182617015565b50600282810154908201805460ff191660ff90921691909117905560038082019061076b90840182617015565b509050508180548061077f5761077f6170f4565b60008281526020812060046000199093019283020180546001600160a01b0319168155906107b060018301826161b9565b60028201805460ff191690556107ca6003830160006161b9565b505090553360009081526007602090815260408083206001600160a01b03871684529091528120905b815481101561091557858051906020012082828154811061081657610816616f50565b9060005260206000209060030201600001604051610834919061710a565b60405180910390200361090d578154829061085190600190616f7c565b8154811061086157610861616f50565b906000526020600020906003020182828154811061088157610881616f50565b600091825260209091206003909102018061089c8382617015565b50600182810154908201805460ff191660ff90921691909117905560029182015491015581548290806108d1576108d16170f4565b600082815260208120600019909201916003830201906108f182826161b9565b5060018101805460ff1916905560006002909101559055610915565b6001016107f3565b50836001600160a01b0316336001600160a01b03167fb66dabb959d5f3bdb53a39aa58d0975b39199c9b188ad8bb09a1b37bb7bf5979874260405161095b92919061717f565b60405180910390a350610971565b600101610679565b50505050565b60007f00000000000000000000000000000000000000000000000000000000000000006001600160a01b0316826001600160a01b031614806109d157506001600160a01b03821660009081526010602052604090205460ff165b92915050565b6000825111610a245760405162461bcd60e51b81526020600482015260196024820152784950465320686173682063616e6e6f7420626520656d70747960381b6044820152606401610640565b6001600160a01b0386166000908152600260209081526040808320815161010081018352338152928301939093528101869052606081018790526080810185905260a0810184905260c08101836001811115610a8257610a82616872565b815242602091820152825460018082018555600094855293829020835160089092020180546001600160a01b03199081166001600160a01b039384161782559284015194810180549093169490911693909317905560408101519091906002820190610aee90826171c1565b5060608201516003820190610b0390826171c1565b5060808201516004820190610b1890826171c1565b5060a08201516005820190610b2d90826171c1565b5060c082015160068201805460ff191660018381811115610b5057610b50616872565b021790555060e09190910151600790910155845115610b945733600090815260036020908152604082208054600181018255908352912001610b9286826171c1565b505b856001600160a01b0316336001600160a01b03167ff8978169ef1306ac0c49b6b67c280d605663d299eb03a25d6c691f3648d7b35084868542604051610bdd9493929190617277565b60405180910390a3505050505050565b6001600160a01b038316610c435760405162461bcd60e51b815260206004820181905260248201527f526571756573746f722063616e6e6f74206265207a65726f20616464726573736044820152606401610640565b6000825111610c905760405162461bcd60e51b815260206004820152601960248201527846696c65206e616d652063616e6e6f7420626520656d70747960381b6044820152606401610640565b3360009081526009602090815260408083206001600160a01b038716845290915290208054610d015760405162461bcd60e51b815260206004820152601f60248201527f4e6f2072657175657374732066726f6d207468697320726571756573746f72006044820152606401610640565b6000805b8254811015610e6857828181548110610d2057610d20616f50565b9060005260206000209060050201600301546000148015610d7e57508480519060200120838281548110610d5657610d56616f50565b9060005260206000209060050201600101604051610d74919061710a565b6040518091039020145b15610e605783838281548110610d9657610d96616f50565b906000526020600020906005020160000160006101000a81548160ff02191690831515021790555042838281548110610dd157610dd1616f50565b906000526020600020906005020160030181905550856001600160a01b0316336001600160a01b03167f532cb0591b34f8b7dd491dae5df420200e7d868e0eac7eae638ea5d4ce9dffcc858481548110610e2d57610e2d616f50565b90600052602060002090600502016001018742604051610e4f9392919061733e565b60405180910390a360019150610e68565b600101610d05565b5080610ecf5760405162461bcd60e51b815260206004820152603060248201527f4e6f20756e70726f636573736564207265717565737420666f756e642077697460448201526f6820746869732066696c65206e616d6560801b6064820152608401610640565b5050505050565b6001600160a01b0380831660009081526009602090815260408083209385168352928152828220805484518184028101840190955280855260609493919290919084015b828210156110a15760008481526020908190206040805160a0810190915260058502909101805460ff16151582526001810180549293919291840191610f5f90616f8f565b80601f0160208091040260200160405190810160405280929190818152602001828054610f8b90616f8f565b8015610fd85780601f10610fad57610100808354040283529160200191610fd8565b820191906000526020600020905b815481529060010190602001808311610fbb57829003601f168201915b50505050508152602001600282018054610ff190616f8f565b80601f016020809104026020016040519081016040528092919081815260200182805461101d90616f8f565b801561106a5780601f1061103f5761010080835404028352916020019161106a565b820191906000526020600020905b81548152906001019060200180831161104d57829003601f168201915b5050509183525050600382015460208083019190915260049092015460ff1615156040909101529082526001929092019101610f1a565b50505050905092915050565b60008251116110fe5760405162461bcd60e51b815260206004820152601a60248201527f5075626c6963206b65792063616e6e6f7420626520656d7074790000000000006044820152606401610640565b60008151116111465760405162461bcd60e51b8152602060048201526014602482015273446174612063616e6e6f7420626520656d70747960601b6044820152606401610640565b3360009081526003602090815260408220805460018101825590835291200161116f83826171c1565b50336000818152600260209081526040808320815161010081018352948552848301849052815192830182528383529084019190915260608301859052815490929160808301916111bf90616f8f565b80601f01602080910402602001604051908101604052809291908181526020018280546111eb90616f8f565b80156112385780601f1061120d57610100808354040283529160200191611238565b820191906000526020600020905b81548152906001019060200180831161121b57829003601f168201915b5050509183525050602081018490526040016000815242602091820152825460018082018555600094855293829020835160089092020180546001600160a01b03199081166001600160a01b0393841617825592840151948101805490931694909116939093179055604081015190919060028201906112b890826171c1565b50606082015160038201906112cd90826171c1565b50608082015160048201906112e290826171c1565b5060a082015160058201906112f790826171c1565b5060c082015160068201805460ff19166001838181111561131a5761131a616872565b021790555060e082015181600701555050336001600160a01b03167fc5d820f5092964c33342d79084a41f152b1071ffc9965eb19b078805775f4ae483834260405161136893929190617363565b60405180910390a2604051339081907ff8978169ef1306ac0c49b6b67c280d605663d299eb03a25d6c691f3648d7b350906113ab90859060009081904290617399565b60405180910390a35050565b6060336001600160a01b037f00000000000000000000000000000000000000000000000000000000000000001614806113ff57503360009081526010602052604090205460ff165b61145f5760405162461bcd60e51b815260206004820152603e602482015260008051602061746c83398151915260448201527f616e2072656164207072697661746520617474726962757465206b65797300006064820152608401610640565b600f805480602002602001604051908101604052809291908181526020016000905b8282101561152d5783829060005260206000200180546114a090616f8f565b80601f01602080910402602001604051908101604052809291908181526020018280546114cc90616f8f565b80156115195780601f106114ee57610100808354040283529160200191611519565b820191906000526020600020905b8154815290600101906020018083116114fc57829003601f168201915b505050505081526020019060010190611481565b50505050905090565b60606001600160a01b0382166115995760405162461bcd60e51b815260206004820152602260248201527f4f746865722070617274792063616e6e6f74206265207a65726f206164647265604482015261737360f01b6064820152608401610640565b336001600160a01b038316036115ff5760405162461bcd60e51b815260206004820152602560248201527f43616e6e6f742067657420636f6e766572736174696f6e207769746820796f756044820152643939b2b63360d91b6064820152608401610640565b600061160b33846144cb565b905060016000828152602001908152602001600020805480602002602001604051908101604052809291908181526020016000905b8282101561191b57600084815260209081902060408051610100810182526008860290920180546001600160a01b039081168452600182015416938301939093526002830180549293929184019161169790616f8f565b80601f01602080910402602001604051908101604052809291908181526020018280546116c390616f8f565b80156117105780601f106116e557610100808354040283529160200191611710565b820191906000526020600020905b8154815290600101906020018083116116f357829003601f168201915b5050505050815260200160038201805461172990616f8f565b80601f016020809104026020016040519081016040528092919081815260200182805461175590616f8f565b80156117a25780601f10611777576101008083540402835291602001916117a2565b820191906000526020600020905b81548152906001019060200180831161178557829003601f168201915b505050505081526020016004820180546117bb90616f8f565b80601f01602080910402602001604051908101604052809291908181526020018280546117e790616f8f565b80156118345780601f1061180957610100808354040283529160200191611834565b820191906000526020600020905b81548152906001019060200180831161181757829003601f168201915b5050505050815260200160058201805461184d90616f8f565b80601f016020809104026020016040519081016040528092919081815260200182805461187990616f8f565b80156118c65780601f1061189b576101008083540402835291602001916118c6565b820191906000526020600020905b8154815290600101906020018083116118a957829003601f168201915b5050509183525050600682015460209091019060ff1660018111156118ed576118ed616872565b60018111156118fe576118fe616872565b815260200160078201548152505081526020019060010190611640565b50505050915050919050565b6001600160a01b0382166119765760405162461bcd60e51b8152602060048201526016602482015275416464726573732063616e6e6f74206265207a65726f60501b6044820152606401610640565b3360009081526008602090815260408083206001600160a01b038616845290915290206119a382826171c1565b50816001600160a01b0316336001600160a01b03167fcfa1f5b97ceeb27c65685672597ffc9636dcc9dbe3e0d10807477076a87afdba836040516113ab9190616c87565b60408051608081018252600080825260606020830181905292820152818101919091526001600160a01b0384166000908152600560205260408082209051611a30908690616f34565b9081526020016040518091039020805480602002602001604051908101604052809291908181526020016000905b82821015611bdb57600084815260209081902060408051608081019091526004850290910180546001600160a01b031682526001810180549293919291840191611aa790616f8f565b80601f0160208091040260200160405190810160405280929190818152602001828054611ad390616f8f565b8015611b205780601f10611af557610100808354040283529160200191611b20565b820191906000526020600020905b815481529060010190602001808311611b0357829003601f168201915b5050509183525050600282015460ff166020820152600382018054604090920191611b4a90616f8f565b80601f0160208091040260200160405190810160405280929190818152602001828054611b7690616f8f565b8015611bc35780601f10611b9857610100808354040283529160200191611bc3565b820191906000526020600020905b815481529060010190602001808311611ba657829003601f168201915b50505050508152505081526020019060010190611a5e565b50505050905060005b8151811015611c4e57836001600160a01b0316828281518110611c0957611c09616f50565b6020026020010151600001516001600160a01b031603611c4657818181518110611c3557611c35616f50565b602002602001015192505050611c97565b600101611be4565b5060405162461bcd60e51b815260206004820152601860248201527f41646472657373206e6f7420696e2077686974656c69737400000000000000006044820152606401610640565b9392505050565b6001600160a01b0381166000908152600660209081526040808320805482518185028101850190935280835260609492939192909184015b82821015611d82578382906000526020600020018054611cf590616f8f565b80601f0160208091040260200160405190810160405280929190818152602001828054611d2190616f8f565b8015611d6e5780601f10611d4357610100808354040283529160200191611d6e565b820191906000526020600020905b815481529060010190602001808311611d5157829003601f168201915b505050505081526020019060010190611cd6565b505050509050919050565b336001600160a01b037f0000000000000000000000000000000000000000000000000000000000000000161480611dd357503360009081526010602052604090205460ff165b611e335760405162461bcd60e51b815260206004820152603c602482015260008051602061746c83398151915260448201527f616e2064656c65746520707269766174652061747472696275746573000000006064820152608401610640565b600d81604051611e439190616f34565b90815260200160405180910390206000611e5d91906161b9565b60005b600f54811015611f38578180519060200120600f8281548110611e8557611e85616f50565b90600052602060002001604051611e9c919061710a565b604051809103902003611f3057600f8054611eb990600190616f7c565b81548110611ec957611ec9616f50565b90600052602060002001600f8281548110611ee657611ee6616f50565b906000526020600020019081611efc9190617015565b50600f805480611f0e57611f0e6170f4565b600190038181906000526020600020016000611f2a91906161b9565b90555050565b600101611e60565b5050565b6001600160a01b0381166000908152600260209081526040808320805482518185028101850190935280835260609493849084015b8282101561224c57600084815260209081902060408051610100810182526008860290920180546001600160a01b0390811684526001820154169383019390935260028301805492939291840191611fc890616f8f565b80601f0160208091040260200160405190810160405280929190818152602001828054611ff490616f8f565b80156120415780601f1061201657610100808354040283529160200191612041565b820191906000526020600020905b81548152906001019060200180831161202457829003601f168201915b5050505050815260200160038201805461205a90616f8f565b80601f016020809104026020016040519081016040528092919081815260200182805461208690616f8f565b80156120d35780601f106120a8576101008083540402835291602001916120d3565b820191906000526020600020905b8154815290600101906020018083116120b657829003601f168201915b505050505081526020016004820180546120ec90616f8f565b80601f016020809104026020016040519081016040528092919081815260200182805461211890616f8f565b80156121655780601f1061213a57610100808354040283529160200191612165565b820191906000526020600020905b81548152906001019060200180831161214857829003601f168201915b5050505050815260200160058201805461217e90616f8f565b80601f01602080910402602001604051908101604052809291908181526020018280546121aa90616f8f565b80156121f75780601f106121cc576101008083540402835291602001916121f7565b820191906000526020600020905b8154815290600101906020018083116121da57829003601f168201915b5050509183525050600682015460209091019060ff16600181111561221e5761221e616872565b600181111561222f5761222f616872565b815260200160078201548152505081526020019060010190611f71565b505050509050826001600160a01b0316336001600160a01b0316036122715792915050565b6000805b82518110156122ca57600083828151811061229257612292616f50565b602002602001015160c0015160018111156122af576122af616872565b036122c257816122be816173be565b9250505b600101612275565b506000816001600160401b038111156122e5576122e5616412565b60405190808252806020026020018201604052801561231e57816020015b61230b6161f6565b8152602001906001900390816123035790505b5090506000805b84518110156123b257600085828151811061234257612342616f50565b602002602001015160c00151600181111561235f5761235f616872565b036123aa5784818151811061237657612376616f50565b602002602001015183838151811061239057612390616f50565b602002602001018190525081806123a6906173be565b9250505b600101612325565b509095945050505050565b6001600160a01b0383166000908152600260209081526040808320805482518185028101850190935280835260609493849084015b828210156126cd57600084815260209081902060408051610100810182526008860290920180546001600160a01b039081168452600182015416938301939093526002830180549293929184019161244990616f8f565b80601f016020809104026020016040519081016040528092919081815260200182805461247590616f8f565b80156124c25780601f10612497576101008083540402835291602001916124c2565b820191906000526020600020905b8154815290600101906020018083116124a557829003601f168201915b505050505081526020016003820180546124db90616f8f565b80601f016020809104026020016040519081016040528092919081815260200182805461250790616f8f565b80156125545780601f1061252957610100808354040283529160200191612554565b820191906000526020600020905b81548152906001019060200180831161253757829003601f168201915b5050505050815260200160048201805461256d90616f8f565b80601f016020809104026020016040519081016040528092919081815260200182805461259990616f8f565b80156125e65780601f106125bb576101008083540402835291602001916125e6565b820191906000526020600020905b8154815290600101906020018083116125c957829003601f168201915b505050505081526020016005820180546125ff90616f8f565b80601f016020809104026020016040519081016040528092919081815260200182805461262b90616f8f565b80156126785780601f1061264d57610100808354040283529160200191612678565b820191906000526020600020905b81548152906001019060200180831161265b57829003601f168201915b5050509183525050600682015460209091019060ff16600181111561269f5761269f616872565b60018111156126b0576126b0616872565b8152602001600782015481525050815260200190600101906123f2565b505050509050846001600160a01b0316336001600160a01b031603612807578051841061272e576040805160008082526020820190925290612725565b6127126161f6565b81526020019060019003908161270a5790505b50915050611c97565b600061273a84866173d7565b90508151811115612749575080515b60006127558683616f7c565b6001600160401b0381111561276c5761276c616412565b6040519080825280602002602001820160405280156127a557816020015b6127926161f6565b81526020019060019003908161278a5790505b509050855b828110156127fc578381815181106127c4576127c4616f50565b60200260200101518288836127d99190616f7c565b815181106127e9576127e9616f50565b60209081029190910101526001016127aa565b509250611c97915050565b6000805b825181101561286057600083828151811061282857612828616f50565b602002602001015160c00151600181111561284557612845616872565b036128585781612854816173be565b9250505b60010161280b565b508085106128a3576040805160008082526020820190925290612899565b6128866161f6565b81526020019060019003908161287e5790505b5092505050611c97565b83816128af82886173d7565b11156128c2576128bf8683616f7c565b90505b6000816001600160401b038111156128dc576128dc616412565b60405190808252806020026020018201604052801561291557816020015b6129026161f6565b8152602001906001900390816128fa5790505b50905060008060005b86518110801561292d57508482105b156129d557600087828151811061294657612946616f50565b602002602001015160c00151600181111561296357612963616872565b036129c3578983106129b55786818151811061298157612981616f50565b602002602001015184838151811061299b5761299b616f50565b602002602001018190525081806129b1906173be565b9250505b826129bf816173be565b9350505b806129cd816173be565b91505061291e565b50919998505050505050505050565b336000908152600260209081526040808320805482518185028101850190935280835260609493849084015b82821015612ceb57600084815260209081902060408051610100810182526008860290920180546001600160a01b0390811684526001820154169383019390935260028301805492939291840191612a6790616f8f565b80601f0160208091040260200160405190810160405280929190818152602001828054612a9390616f8f565b8015612ae05780601f10612ab557610100808354040283529160200191612ae0565b820191906000526020600020905b815481529060010190602001808311612ac357829003601f168201915b50505050508152602001600382018054612af990616f8f565b80601f0160208091040260200160405190810160405280929190818152602001828054612b2590616f8f565b8015612b725780601f10612b4757610100808354040283529160200191612b72565b820191906000526020600020905b815481529060010190602001808311612b5557829003601f168201915b50505050508152602001600482018054612b8b90616f8f565b80601f0160208091040260200160405190810160405280929190818152602001828054612bb790616f8f565b8015612c045780601f10612bd957610100808354040283529160200191612c04565b820191906000526020600020905b815481529060010190602001808311612be757829003601f168201915b50505050508152602001600582018054612c1d90616f8f565b80601f0160208091040260200160405190810160405280929190818152602001828054612c4990616f8f565b8015612c965780601f10612c6b57610100808354040283529160200191612c96565b820191906000526020600020905b815481529060010190602001808311612c7957829003601f168201915b5050509183525050600682015460209091019060ff166001811115612cbd57612cbd616872565b6001811115612cce57612cce616872565b815260200160078201548152505081526020019060010190612a10565b505050509050600081516001600160401b03811115612d0c57612d0c616412565b604051908082528060200260200182016040528015612d3f57816020015b6060815260200190600190039081612d2a5790505b50905060005b8251811015612d9157828181518110612d6057612d60616f50565b602002602001015160a00151828281518110612d7e57612d7e616f50565b6020908102919091010152600101612d45565b5092915050565b6060600e805480602002602001604051908101604052809291908181526020016000905b8282101561152d578382906000526020600020018054612ddb90616f8f565b80601f0160208091040260200160405190810160405280929190818152602001828054612e0790616f8f565b8015612e545780601f10612e2957610100808354040283529160200191612e54565b820191906000526020600020905b815481529060010190602001808311612e3757829003601f168201915b505050505081526020019060010190612dbc565b6000855111612e895760405162461bcd60e51b815260040161064090616efd565b60048260ff16111580612e9f57508160ff1660ff145b612f045760405162461bcd60e51b815260206004820152603060248201527f496e76616c696420726f6c653a206d75737420626520302d34206f722032353560448201526f20286b656570206578697374696e672960801b6064820152608401610640565b336000908152600560205260408082209051612f21908890616f34565b9081526020016040518091039020905060005b815481101561310e57856001600160a01b0316828281548110612f5957612f59616f50565b60009182526020909120600490910201546001600160a01b0316036131065760408051808201909152600581526304b4545560dc1b6020918201528551908601207fb0837273b2da8502395a7160f0bf01f6f8b7a45d6441089eea6b5d9f33b8399114612ff25784828281548110612fd357612fd3616f50565b90600052602060002090600402016001019081612ff091906171c1565b505b8360ff1660ff1461303a578382828154811061301057613010616f50565b906000526020600020906004020160020160006101000a81548160ff021916908360ff1602179055505b60408051808201909152600581526304b4545560dc1b6020918201528351908401207fb0837273b2da8502395a7160f0bf01f6f8b7a45d6441089eea6b5d9f33b83991146130b4578282828154811061309557613095616f50565b906000526020600020906004020160030190816130b291906171c1565b505b856001600160a01b0316336001600160a01b03167fb66dabb959d5f3bdb53a39aa58d0975b39199c9b188ad8bb09a1b37bb7bf597989426040516130f99291906173ea565b60405180910390a361310e565b600101612f34565b50505050505050565b6001600160a01b0381166000908152600360209081526040808320805482518185028101850190935280835260609492939192909184015b82821015611d8257838290600052602060002001805461316e90616f8f565b80601f016020809104026020016040519081016040528092919081815260200182805461319a90616f8f565b80156131e75780601f106131bc576101008083540402835291602001916131e7565b820191906000526020600020905b8154815290600101906020018083116131ca57829003601f168201915b50505050508152602001906001019061314f565b336001600160a01b037f000000000000000000000000000000000000000000000000000000000000000016146132825760405162461bcd60e51b815260206004820152602660248201527f4f6e6c792073706f6e736f722063616e2072656d6f76652061646d696e6973746044820152657261746f727360d01b6064820152608401610640565b6001600160a01b03166000908152601060205260409020805460ff19169055565b6001600160a01b0385166132f95760405162461bcd60e51b815260206004820181905260248201527f526563697069656e742063616e6e6f74206265207a65726f20616464726573736044820152606401610640565b336001600160a01b038616036133515760405162461bcd60e51b815260206004820152601760248201527f43616e6e6f74206d65737361676520796f757273656c660000000000000000006044820152606401610640565b600081511161339e5760405162461bcd60e51b81526020600482015260196024820152784950465320686173682063616e6e6f7420626520656d70747960381b6044820152606401610640565b60006133aa33876144cb565b6000818152600160205260408120549192500361340557336000908152600460209081526040808320805460018181018355918552838520018590556001600160a01b038a1684529083208054918201815583529120018190555b60016000828152602001908152602001600020604051806101000160405280336001600160a01b03168152602001886001600160a01b0316815260200186815260200187815260200185815260200184815260200160018081111561346c5761346c616872565b815242602091820152825460018082018555600094855293829020835160089092020180546001600160a01b03199081166001600160a01b0393841617825592840151948101805490931694909116939093179055604081015190919060028201906134d890826171c1565b50606082015160038201906134ed90826171c1565b506080820151600482019061350290826171c1565b5060a0820151600582019061351790826171c1565b5060c082015160068201805460ff19166001838181111561353a5761353a616872565b021790555060e0919091015160079091015584511561357e573360009081526003602090815260408220805460018101825590835291200161357c86826171c1565b505b856001600160a01b0316336001600160a01b03167fb6e5bea89e5044d66ff49940ba0401db7bec08daacadb6d06705264874a40fea848642604051610bdd93929190617363565b336001600160a01b037f000000000000000000000000000000000000000000000000000000000000000016148061360b57503360009081526010602052604090205460ff165b61366b5760405162461bcd60e51b815260206004820152603b602482015260008051602061746c83398151915260448201527f616e2064656c657465207075626c6963206174747269627574657300000000006064820152608401610640565b600c8160405161367b9190616f34565b9081526020016040518091039020600061369591906161b9565b60005b600e54811015611f38578180519060200120600e82815481106136bd576136bd616f50565b906000526020600020016040516136d4919061710a565b60405180910390200361374657600e80546136f190600190616f7c565b8154811061370157613701616f50565b90600052602060002001600e828154811061371e5761371e616f50565b9060005260206000200190816137349190617015565b50600e805480611f0e57611f0e6170f4565b600101613698565b336001600160a01b037f000000000000000000000000000000000000000000000000000000000000000016148061379457503360009081526010602052604090205460ff165b6137f45760405162461bcd60e51b8152602060048201526038602482015260008051602061746c83398151915260448201527f616e20736574207075626c6963206174747269627574657300000000000000006064820152608401610640565b600082511161383b5760405162461bcd60e51b81526020600482015260136024820152724b65792063616e6e6f7420626520656d70747960681b6044820152606401610640565b600c8260405161384b9190616f34565b9081526020016040518091039020805461386490616f8f565b90506000036138ab57600e80546001810182556000919091527fbb7b4a454dc3493923482f07822329ed19e8244eff582cc204f8554c3620c3fd016138a983826171c1565b505b80600c836040516138bc9190616f34565b908152602001604051809103902090816138d691906171c1565b50816040516138e59190616f34565b6040805191829003822060018352426020840152917f590120a97fea9eae0ab7f73633c407e0d9f528198b43f5aded24fc164146674491015b60405180910390a25050565b6060600c8260405161393c9190616f34565b9081526020016040518091039020805461395590616f8f565b80601f016020809104026020016040519081016040528092919081815260200182805461398190616f8f565b80156139ce5780601f106139a3576101008083540402835291602001916139ce565b820191906000526020600020905b8154815290600101906020018083116139b157829003601f168201915b50505050509050919050565b6001600160a01b0383166000908152600560205260408082209051829190613a03908690616f34565b9081526020016040518091039020805480602002602001604051908101604052809291908181526020016000905b82821015613bae57600084815260209081902060408051608081019091526004850290910180546001600160a01b031682526001810180549293919291840191613a7a90616f8f565b80601f0160208091040260200160405190810160405280929190818152602001828054613aa690616f8f565b8015613af35780601f10613ac857610100808354040283529160200191613af3565b820191906000526020600020905b815481529060010190602001808311613ad657829003601f168201915b5050509183525050600282015460ff166020820152600382018054604090920191613b1d90616f8f565b80601f0160208091040260200160405190810160405280929190818152602001828054613b4990616f8f565b8015613b965780601f10613b6b57610100808354040283529160200191613b96565b820191906000526020600020905b815481529060010190602001808311613b7957829003601f168201915b50505050508152505081526020019060010190613a31565b50505050905060005b8151811015613c0957836001600160a01b0316828281518110613bdc57613bdc616f50565b6020026020010151600001516001600160a01b031603613c0157600192505050611c97565b600101613bb7565b50600095945050505050565b6001600160a01b038416613c6b5760405162461bcd60e51b815260206004820152601f60248201527f417070726f7665722063616e6e6f74206265207a65726f2061646472657373006044820152606401610640565b6000835111613cb85760405162461bcd60e51b815260206004820152601960248201527846696c65206e616d652063616e6e6f7420626520656d70747960381b6044820152606401610640565b6000825111613d095760405162461bcd60e51b815260206004820152601960248201527f46696c6520686173682063616e6e6f7420626520656d707479000000000000006044820152606401610640565b6001600160a01b0384166000908152600a60205260408120815b8154811015613d7357336001600160a01b0316828281548110613d4857613d48616f50565b6000918252602090912001546001600160a01b031603613d6b5760019250613d73565b600101613d23565b5081613db2576001600160a01b0386166000908152600a602090815260408220805460018101825590835291200180546001600160a01b031916331790555b336000908152600b60205260408120815b8154811015613e1357886001600160a01b0316828281548110613de857613de8616f50565b6000918252602090912001546001600160a01b031603613e0b5760019250613e13565b600101613dc3565b5081613e5257336000908152600b602090815260408220805460018101825590835291200180546001600160a01b0319166001600160a01b038a161790555b6040805160a081018252600080825260208083018b81528385018b9052606084018390526001608085018190526001600160a01b038e16845260098352858420338552835294832080548087018255908452919092208351600590920201805460ff191691151591909117815590519192839290820190613ed390826171c1565b5060408201516002820190613ee890826171c1565b50606082015160038201556080909101516004909101805460ff191691151591909117905560405133906001600160a01b038b16907f77b5f9c2d9c3bd8746beb63af36552109a2f92f947920ba0994acb2deb3e3b8b90613f4e908c908c904290617363565b60405180910390a3505050505050505050565b336001600160a01b037f0000000000000000000000000000000000000000000000000000000000000000161480613fa757503360009081526010602052604090205460ff165b6140075760405162461bcd60e51b8152602060048201526039602482015260008051602061746c83398151915260448201527f616e2073657420707269766174652061747472696275746573000000000000006064820152608401610640565b600082511161404e5760405162461bcd60e51b81526020600482015260136024820152724b65792063616e6e6f7420626520656d70747960681b6044820152606401610640565b600d8260405161405e9190616f34565b9081526020016040518091039020805461407790616f8f565b90506000036140be57600f80546001810182556000919091527f8d1108e10bcb7c27dddfc02ed9d693a074039d026cf4ea4240b40f7d581ac802016140bc83826171c1565b505b80600d836040516140cf9190616f34565b908152602001604051809103902090816140e991906171c1565b50816040516140f89190616f34565b6040805191829003822060008352426020840152917f590120a97fea9eae0ab7f73633c407e0d9f528198b43f5aded24fc1641466744910161391e565b6001600160a01b03821660009081526005602052604090819020905160609190614160908490616f34565b9081526020016040518091039020805480602002602001604051908101604052809291908181526020016000905b828210156110a157600084815260209081902060408051608081019091526004850290910180546001600160a01b0316825260018101805492939192918401916141d790616f8f565b80601f016020809104026020016040519081016040528092919081815260200182805461420390616f8f565b80156142505780601f1061422557610100808354040283529160200191614250565b820191906000526020600020905b81548152906001019060200180831161423357829003601f168201915b5050509183525050600282015460ff16602082015260038201805460409092019161427a90616f8f565b80601f01602080910402602001604051908101604052809291908181526020018280546142a690616f8f565b80156142f35780601f106142c8576101008083540402835291602001916142f3565b820191906000526020600020905b8154815290600101906020018083116142d657829003601f168201915b5050505050815250508152602001906001019061418e565b6001600160a01b03808316600090815260086020908152604080832093851683529290522080546060919061433f90616f8f565b80601f016020809104026020016040519081016040528092919081815260200182805461436b90616f8f565b80156143b85780601f1061438d576101008083540402835291602001916143b8565b820191906000526020600020905b81548152906001019060200180831161439b57829003601f168201915b5050505050905092915050565b8051602081830181018051600c82529282019190930120915280546143e990616f8f565b80601f016020809104026020016040519081016040528092919081815260200182805461441590616f8f565b80156144625780601f1061443757610100808354040283529160200191614462565b820191906000526020600020905b81548152906001019060200180831161444557829003601f168201915b505050505081565b336000908152600460209081526040918290208054835181840281018401909452808452606093928301828280156144c157602002820191906000526020600020905b8154815260200190600101908083116144ad575b5050505050905090565b6000806000836001600160a01b0316856001600160a01b0316106144f05783856144f3565b84845b6040516bffffffffffffffffffffffff19606084811b8216602084015283901b1660348201529193509150604801604051602081830303815290604052805190602001209250505092915050565b600080546143e990616f8f565b6001600160a01b0381166000908152600b602090815260408083208054825181850281018501909352808352606094938301828280156145b757602002820191906000526020600020905b81546001600160a01b03168152600190910190602001808311614599575b505050505090506000805b825181101561464557600960008483815181106145e1576145e1616f50565b60200260200101516001600160a01b03166001600160a01b031681526020019081526020016000206000866001600160a01b03166001600160a01b03168152602001908152602001600020805490508261463b91906173d7565b91506001016145c2565b506000816001600160401b0381111561466057614660616412565b60405190808252806020026020018201604052801561469957816020015b61468661625e565b81526020019060019003908161467e5790505b5090506000805b84518110156123b25760008582815181106146bd576146bd616f50565b6020908102919091018101516001600160a01b038082166000908152600984526040808220928d1682529184528181208054835181870281018701909452808452939550909391929091849084015b828210156148935760008481526020908190206040805160a0810190915260058502909101805460ff1615158252600181018054929391929184019161475190616f8f565b80601f016020809104026020016040519081016040528092919081815260200182805461477d90616f8f565b80156147ca5780601f1061479f576101008083540402835291602001916147ca565b820191906000526020600020905b8154815290600101906020018083116147ad57829003601f168201915b505050505081526020016002820180546147e390616f8f565b80601f016020809104026020016040519081016040528092919081815260200182805461480f90616f8f565b801561485c5780601f106148315761010080835404028352916020019161485c565b820191906000526020600020905b81548152906001019060200180831161483f57829003601f168201915b5050509183525050600382015460208083019190915260049092015460ff161515604090910152908252600192909201910161470c565b50505050905060005b81518110156149a3576040518060c00160405280846001600160a01b031681526020018383815181106148d1576148d1616f50565b602002602001015160000151151581526020018383815181106148f6576148f6616f50565b602002602001015160200151815260200183838151811061491957614919616f50565b602002602001015160400151815260200183838151811061493c5761493c616f50565b602002602001015160600151815260200183838151811061495f5761495f616f50565b602002602001015160800151151581525086868151811061498257614982616f50565b60200260200101819052508480614998906173be565b95505060010161489c565b5050506001016146a0565b3360009081526007602090815260408083206001600160a01b03851684528252808320805482518185028101850190935280835260609492939192909184015b82821015611d825783829060005260206000209060030201604051806060016040529081600082018054614a2190616f8f565b80601f0160208091040260200160405190810160405280929190818152602001828054614a4d90616f8f565b8015614a9a5780601f10614a6f57610100808354040283529160200191614a9a565b820191906000526020600020905b815481529060010190602001808311614a7d57829003601f168201915b505050918352505060018281015460ff16602080840191909152600290930154604090920191909152918352920191016149ee565b336001600160a01b037f00000000000000000000000000000000000000000000000000000000000000001614614b535760405162461bcd60e51b815260206004820152602360248201527f4f6e6c792073706f6e736f722063616e206164642061646d696e6973747261746044820152626f727360e81b6064820152608401610640565b6001600160a01b038116614ba95760405162461bcd60e51b815260206004820152601c60248201527f41646d696e2063616e6e6f74206265207a65726f2061646472657373000000006044820152606401610640565b6001600160a01b03166000908152601060205260409020805460ff19166001179055565b6060336001600160a01b037f0000000000000000000000000000000000000000000000000000000000000000161480614c1557503360009081526010602052604090205460ff165b614c755760405162461bcd60e51b815260206004820152603a602482015260008051602061746c83398151915260448201527f616e2072656164207072697661746520617474726962757465730000000000006064820152608401610640565b600d8260405161393c9190616f34565b6001600160a01b038116614cdb5760405162461bcd60e51b815260206004820181905260248201527f4e6577206f776e65722063616e6e6f74206265207a65726f20616464726573736044820152606401610640565b336001600160a01b03821603614d335760405162461bcd60e51b815260206004820152601760248201527f43616e6e6f74207472616e7366657220746f2073656c660000000000000000006044820152606401610640565b33600090815260026020526040902054151580614d5e57503360009081526004602052604090205415155b614da05760405162461bcd60e51b81526020600482015260136024820152722737903230ba30903a37903a3930b739b332b960691b6044820152606401610640565b336000908152600260205260408120905b81548110156152395760026000846001600160a01b03166001600160a01b03168152602001908152602001600020604051806101000160405280856001600160a01b03168152602001848481548110614e0c57614e0c616f50565b6000918252602091829020600160089092020101546001600160a01b031682528554910190859085908110614e4357614e43616f50565b90600052602060002090600802016002018054614e5f90616f8f565b80601f0160208091040260200160405190810160405280929190818152602001828054614e8b90616f8f565b8015614ed85780601f10614ead57610100808354040283529160200191614ed8565b820191906000526020600020905b815481529060010190602001808311614ebb57829003601f168201915b50505050508152602001848481548110614ef457614ef4616f50565b90600052602060002090600802016003018054614f1090616f8f565b80601f0160208091040260200160405190810160405280929190818152602001828054614f3c90616f8f565b8015614f895780601f10614f5e57610100808354040283529160200191614f89565b820191906000526020600020905b815481529060010190602001808311614f6c57829003601f168201915b50505050508152602001848481548110614fa557614fa5616f50565b90600052602060002090600802016004018054614fc190616f8f565b80601f0160208091040260200160405190810160405280929190818152602001828054614fed90616f8f565b801561503a5780601f1061500f5761010080835404028352916020019161503a565b820191906000526020600020905b81548152906001019060200180831161501d57829003601f168201915b5050505050815260200184848154811061505657615056616f50565b9060005260206000209060080201600501805461507290616f8f565b80601f016020809104026020016040519081016040528092919081815260200182805461509e90616f8f565b80156150eb5780601f106150c0576101008083540402835291602001916150eb565b820191906000526020600020905b8154815290600101906020018083116150ce57829003601f168201915b5050505050815260200184848154811061510757615107616f50565b600091825260209091206006600890920201015460ff16600181111561512f5761512f616872565b815260200184848154811061514657615146616f50565b6000918252602080832060089283020160070154909352845460018082018755958352918390208451929091020180546001600160a01b03199081166001600160a01b0393841617825592840151948101805490931694909116939093179055604081015190919060028201906151bd90826171c1565b50606082015160038201906151d290826171c1565b50608082015160048201906151e790826171c1565b5060a082015160058201906151fc90826171c1565b5060c082015160068201805460ff19166001838181111561521f5761521f616872565b021790555060e09190910151600790910155600101614db1565b50336000908152600360205260408120905b81548110156152af576001600160a01b0384166000908152600360205260409020825483908390811061528057615280616f50565b6000918252602080832084546001810186559484529220909201916152a6910182617015565b5060010161524b565b50336000908152600460205260408120905b81548110156153805760008282815481106152de576152de616f50565b60009182526020808320909101546001600160a01b0389168352600490915260408220909250815b8154811015615343578382828154811061532257615322616f50565b90600052602060002001540361533b5760019250615343565b600101615306565b5081615375576001600160a01b0388166000908152600460209081526040822080546001810182559083529120018390555b5050506001016152c1565b50336000908152600b60209081526040808320805482518185028101850190935280835291929091908301828280156153e257602002820191906000526020600020905b81546001600160a01b031681526001909101906020018083116153c4575b5050505050905060005b815181101561594957600082828151811061540957615409616f50565b6020908102919091018101516001600160a01b0381166000908152600983526040808220338352845280822080548251818702810187019093528083529395509193909290849084015b828210156155da5760008481526020908190206040805160a0810190915260058502909101805460ff1615158252600181018054929391929184019161549890616f8f565b80601f01602080910402602001604051908101604052809291908181526020018280546154c490616f8f565b80156155115780601f106154e657610100808354040283529160200191615511565b820191906000526020600020905b8154815290600101906020018083116154f457829003601f168201915b5050505050815260200160028201805461552a90616f8f565b80601f016020809104026020016040519081016040528092919081815260200182805461555690616f8f565b80156155a35780601f10615578576101008083540402835291602001916155a3565b820191906000526020600020905b81548152906001019060200180831161558657829003601f168201915b5050509183525050600382015460208083019190915260049092015460ff1615156040909101529082526001929092019101615453565b50505050905060005b81518110156156af576001600160a01b038084166000908152600960209081526040808320938d16835292905220825183908390811061562557615625616f50565b6020908102919091018101518254600180820185556000948552938390208251600590920201805460ff191691151591909117815591810151909282019061566d90826171c1565b506040820151600282019061568290826171c1565b50606082015160038201556080909101516004909101805460ff19169115159190911790556001016155e3565b506001600160a01b0382166000908152600a6020526040812090805b8254811015615717578a6001600160a01b03168382815481106156f0576156f0616f50565b6000918252602090912001546001600160a01b03160361570f57600191505b6001016156cb565b5060005b825481101561581757336001600160a01b031683828154811061574057615740616f50565b6000918252602090912001546001600160a01b03160361580f578254839061576a90600190616f7c565b8154811061577a5761577a616f50565b9060005260206000200160009054906101000a90046001600160a01b03168382815481106157aa576157aa616f50565b9060005260206000200160006101000a8154816001600160a01b0302191690836001600160a01b03160217905550828054806157e8576157e86170f4565b600082815260209020810160001990810180546001600160a01b0319169055019055615817565b60010161571b565b508061585c576001600160a01b038481166000908152600a602090815260408220805460018101825590835291200180546001600160a01b031916918c169190911790555b6001600160a01b038a166000908152600b60205260408120815b81548110156158c657866001600160a01b031682828154811061589b5761589b616f50565b6000918252602090912001546001600160a01b0316036158be57600192506158c6565b600101615876565b508161590b576001600160a01b038c81166000908152600b602090815260408220805460018101825590835291200180546001600160a01b0319169188169190911790555b6001600160a01b03861660009081526009602090815260408083203384529091528120615937916162a1565b5050600190940193506153ec92505050565b50336000908152600260205260408120615962916162c2565b33600090815260036020526040812061597a916162e3565b33600090815260046020526040812061599291616301565b336000908152600b602052604081206159aa91616301565b6040514281526001600160a01b0386169033907fc13a1166d81cd3b0b352a367aebab95f3a6f6bc695fdab8e9a9d335239c3861b9060200160405180910390a35050505050565b6001600160a01b0381166000908152600a60209081526040808320805482518185028101850190935280835260609493830182828015615a5a57602002820191906000526020600020905b81546001600160a01b03168152600190910190602001808311615a3c575b505050505090506000805b8251811015615ade576001600160a01b03851660009081526009602052604081208451909190859084908110615a9d57615a9d616f50565b60200260200101516001600160a01b03166001600160a01b031681526020019081526020016000208054905082615ad491906173d7565b9150600101615a65565b506000816001600160401b03811115615af957615af9616412565b604051908082528060200260200182016040528015615b3257816020015b615b1f61625e565b815260200190600190039081615b175790505b5090506000805b84518110156123b2576000858281518110615b5657615b56616f50565b6020908102919091018101516001600160a01b03808b16600090815260098452604080822092841682529184528181208054835181870281018701909452808452939550909391929091849084015b82821015615d2c5760008481526020908190206040805160a0810190915260058502909101805460ff16151582526001810180549293919291840191615bea90616f8f565b80601f0160208091040260200160405190810160405280929190818152602001828054615c1690616f8f565b8015615c635780601f10615c3857610100808354040283529160200191615c63565b820191906000526020600020905b815481529060010190602001808311615c4657829003601f168201915b50505050508152602001600282018054615c7c90616f8f565b80601f0160208091040260200160405190810160405280929190818152602001828054615ca890616f8f565b8015615cf55780601f10615cca57610100808354040283529160200191615cf5565b820191906000526020600020905b815481529060010190602001808311615cd857829003601f168201915b5050509183525050600382015460208083019190915260049092015460ff1615156040909101529082526001929092019101615ba5565b50505050905060005b8151811015615e3c576040518060c00160405280846001600160a01b03168152602001838381518110615d6a57615d6a616f50565b60200260200101516000015115158152602001838381518110615d8f57615d8f616f50565b6020026020010151602001518152602001838381518110615db257615db2616f50565b6020026020010151604001518152602001838381518110615dd557615dd5616f50565b6020026020010151606001518152602001838381518110615df857615df8616f50565b6020026020010151608001511515815250868681518110615e1b57615e1b616f50565b60200260200101819052508480615e31906173be565b955050600101615d35565b505050600101615b39565b6000855111615e685760405162461bcd60e51b815260040161064090616efd565b6001600160a01b038416615eb75760405162461bcd60e51b8152602060048201526016602482015275416464726573732063616e6e6f74206265207a65726f60501b6044820152606401610640565b60048260ff16111580615ecd57508160ff1660ff145b615f2a5760405162461bcd60e51b815260206004820152602860248201527f496e76616c696420726f6c653a206d75737420626520302d34206f72203235356044820152672028756e7365742960c01b6064820152608401610640565b336000908152600560205260408082209051615f47908890616f34565b9081526020016040518091039020905060005b8154811015615fee57856001600160a01b0316828281548110615f7f57615f7f616f50565b60009182526020909120600490910201546001600160a01b031603615fe65760405162461bcd60e51b815260206004820152601c60248201527f4164647265737320616c726561647920696e2077686974656c697374000000006044820152606401610640565b600101615f5a565b508054600003616023573360009081526006602090815260408220805460018101825590835291200161602187826171c1565b505b60008360ff1660ff146160365783616039565b60005b604080516080810182526001600160a01b03898116825260208083018a815260ff86169484019490945260608301889052865460018082018955600089815292909220845160049092020180546001600160a01b031916919093161782559251939450909283928201906160ad90826171c1565b50604082015160028201805460ff191660ff909216919091179055606082015160038201906160dc90826171c1565b50503360009081526007602090815260408083206001600160a01b038c168452825280832081516060810183528d815260ff8816818501524292810192909252805460018101825590845291909220825192935060039091020190819061614390826171c1565b50602082015160018201805460ff191660ff909216919091179055604091820151600290910155516001600160a01b0388169033907fb66dabb959d5f3bdb53a39aa58d0975b39199c9b188ad8bb09a1b37bb7bf5979906161a7908c90429061742c565b60405180910390a35050505050505050565b5080546161c590616f8f565b6000825580601f106161d5575050565b601f0160209004906000526020600020908101906161f3919061631b565b50565b60405180610100016040528060006001600160a01b0316815260200160006001600160a01b03168152602001606081526020016060815260200160608152602001606081526020016000600181111561625157616251616872565b8152602001600081525090565b6040518060c0016040528060006001600160a01b031681526020016000151581526020016060815260200160608152602001600081526020016000151581525090565b50805460008255600502906000526020600020908101906161f39190616334565b50805460008255600802906000526020600020908101906161f3919061637d565b50805460008255906000526020600020908101906161f391906163f5565b50805460008255906000526020600020908101906161f391905b5b80821115616330576000815560010161631c565b5090565b8082111561633057805460ff19168155600061635360018301826161b9565b6163616002830160006161b9565b506000600382015560048101805460ff19169055600501616334565b808211156163305780546001600160a01b03199081168255600182018054909116905560006163af60028301826161b9565b6163bd6003830160006161b9565b6163cb6004830160006161b9565b6163d96005830160006161b9565b5060068101805460ff191690556000600782015560080161637d565b8082111561633057600061640982826161b9565b506001016163f5565b634e487b7160e01b600052604160045260246000fd5b600082601f83011261643957600080fd5b81356001600160401b0381111561645257616452616412565b604051601f8201601f19908116603f011681016001600160401b038111828210171561648057616480616412565b60405281815283820160200185101561649857600080fd5b816020850160208301376000918101602001919091529392505050565b80356001600160a01b03811681146164cc57600080fd5b919050565b600080604083850312156164e457600080fd5b82356001600160401b038111156164fa57600080fd5b61650685828601616428565b925050616515602084016164b5565b90509250929050565b60006020828403121561653057600080fd5b611c97826164b5565b8035600281106164cc57600080fd5b60008060008060008060c0878903121561656157600080fd5b61656a876164b5565b955060208701356001600160401b0381111561658557600080fd5b61659189828a01616428565b95505060408701356001600160401b038111156165ad57600080fd5b6165b989828a01616428565b94505060608701356001600160401b038111156165d557600080fd5b6165e189828a01616428565b93505060808701356001600160401b038111156165fd57600080fd5b61660989828a01616428565b92505061661860a08801616539565b90509295509295509295565b60008060006060848603121561663957600080fd5b616642846164b5565b925060208401356001600160401b0381111561665d57600080fd5b61666986828701616428565b9250506040840135801515811461667f57600080fd5b809150509250925092565b6000806040838503121561669d57600080fd5b6166a6836164b5565b9150616515602084016164b5565b60005b838110156166cf5781810151838201526020016166b7565b50506000910152565b600081518084526166f08160208601602086016166b4565b601f01601f19169290920160200192915050565b6000602082016020835280845180835260408501915060408160051b86010192506020860160005b828110156167a657603f198786030184528151805115158652602081015160a0602088015261675e60a08801826166d8565b90506040820151878203604089015261677782826166d8565b606084810151908a0152608093840151151593909801929092525050602093840193919091019060010161672c565b50929695505050505050565b600080604083850312156167c557600080fd5b82356001600160401b038111156167db57600080fd5b6167e785828601616428565b92505060208301356001600160401b0381111561680357600080fd5b61680f85828601616428565b9150509250929050565b6000602082016020835280845180835260408501915060408160051b86010192506020860160005b828110156167a657603f1987860301845261685d8583516166d8565b94506020938401939190910190600101616841565b634e487b7160e01b600052602160045260246000fd5b600281106168a657634e487b7160e01b600052602160045260246000fd5b9052565b6000602082016020835280845180835260408501915060408160051b86010192506020860160005b828110156167a657868503603f19018452815180516001600160a01b03168652602081015161690c60208801826001600160a01b03169052565b50604081015161010060408801526169286101008801826166d8565b90506060820151878203606089015261694182826166d8565b9150506080820151878203608089015261695b82826166d8565b91505060a082015187820360a089015261697582826166d8565b91505060c082015161698a60c0890182616888565b5060e091820151969091019590955260209384019391909101906001016168d2565b600080604083850312156169bf57600080fd5b6169c8836164b5565b915060208301356001600160401b0381111561680357600080fd5b6000806000606084860312156169f857600080fd5b616a01846164b5565b925060208401356001600160401b03811115616a1c57600080fd5b616a2886828701616428565b925050616a37604085016164b5565b90509250925092565b60018060a01b0381511682526000602082015160806020850152616a6760808501826166d8565b905060ff604084015116604085015260608301518482036060860152616a8d82826166d8565b95945050505050565b602081526000611c976020830184616a40565b600060208284031215616abb57600080fd5b81356001600160401b03811115616ad157600080fd5b616add84828501616428565b949350505050565b600080600060608486031215616afa57600080fd5b616b03846164b5565b95602085013595506040909401359392505050565b600080600080600060a08688031215616b3057600080fd5b85356001600160401b03811115616b4657600080fd5b616b5288828901616428565b955050616b61602087016164b5565b935060408601356001600160401b03811115616b7c57600080fd5b616b8888828901616428565b935050606086013560ff81168114616b9f57600080fd5b915060808601356001600160401b03811115616bba57600080fd5b616bc688828901616428565b9150509295509295909350565b600080600080600060a08688031215616beb57600080fd5b616bf4866164b5565b945060208601356001600160401b03811115616c0f57600080fd5b616c1b88828901616428565b94505060408601356001600160401b03811115616c3757600080fd5b616c4388828901616428565b93505060608601356001600160401b03811115616c5f57600080fd5b616c6b88828901616428565b92505060808601356001600160401b03811115616bba57600080fd5b602081526000611c9760208301846166d8565b60008060008060808587031215616cb057600080fd5b616cb9856164b5565b935060208501356001600160401b03811115616cd457600080fd5b616ce087828801616428565b93505060408501356001600160401b03811115616cfc57600080fd5b616d0887828801616428565b92505060608501356001600160401b03811115616d2457600080fd5b616d3087828801616428565b91505092959194509250565b6000602082016020835280845180835260408501915060408160051b86010192506020860160005b828110156167a657603f19878603018452616d80858351616a40565b94506020938401939190910190600101616d64565b602080825282518282018190526000918401906040840190835b818110156123b2578351835260209384019390920191600101616daf565b6000602082016020835280845180835260408501915060408160051b86010192506020860160005b828110156167a657603f19878603018452815160018060a01b038151168652602081015115156020870152604081015160c06040880152616e3960c08801826166d8565b905060608201518782036060890152616e5282826166d8565b608084810151908a015260a0938401511515939098019290925250506020938401939190910190600101616df5565b6000602082016020835280845180835260408501915060408160051b86010192506020860160005b828110156167a657603f198786030184528151805160608752616ecf60608801826166d8565b60208381015160ff168982015260409384015193909801929092525094938401939190910190600101616ea9565b60208082526019908201527f4c697374206e616d652063616e6e6f7420626520656d70747900000000000000604082015260600190565b60008251616f468184602087016166b4565b9190910192915050565b634e487b7160e01b600052603260045260246000fd5b634e487b7160e01b600052601160045260246000fd5b818103818111156109d1576109d1616f66565b600181811c90821680616fa357607f821691505b602082108103616fc357634e487b7160e01b600052602260045260246000fd5b50919050565b601f82111561701057806000526020600020601f840160051c81016020851015616ff05750805b601f840160051c820191505b81811015610ecf5760008155600101616ffc565b505050565b818103617020575050565b61702a8254616f8f565b6001600160401b0381111561704157617041616412565b6170558161704f8454616f8f565b84616fc9565b6000601f82116001811461708c57600083156170715750848201545b600184901b600019600386901b1c198216175b855550610ecf565b600085815260209020601f19841690600086815260209020845b838110156170c657828601548255600195860195909101906020016170a6565b50858310156170e45781850154600019600388901b60f8161c191681555b5050505050600190811b01905550565b634e487b7160e01b600052603160045260246000fd5b600080835461711881616f8f565b60018216801561712f576001811461714457617174565b60ff1983168652811515820286019350617174565b86600052602060002060005b8381101561716c57815488820152600190910190602001617150565b505081860193505b509195945050505050565b60608152600061719260608301856166d8565b8281036020840152600681526572656d6f766560d01b6020820152604081019150508260408301529392505050565b81516001600160401b038111156171da576171da616412565b6171e88161704f8454616f8f565b6020601f82116001811461721a5760008315617071575081850151600184901b600019600386901b1c19821617617084565b600084815260208120601f198516915b8281101561724a578785015182556020948501946001909201910161722a565b50848210156172685786840151600019600387901b60f8161c191681555b50505050600190811b01905550565b60808152600061728a60808301876166d8565b828103602084015261729c81876166d8565b9150506172ac6040830185616888565b82606083015295945050505050565b600081546172c881616f8f565b8085526001821680156172e257600181146172fe57617335565b60ff1983166020870152602082151560051b8701019350617335565b84600052602060002060005b8381101561732c5781546020828a01015260018201915060208101905061730a565b87016020019450505b50505092915050565b60608152600061735160608301866172bb565b93151560208301525060400152919050565b60608152600061737660608301866166d8565b828103602084015261738881866166d8565b915050826040830152949350505050565b6080815260006173ac60808301876166d8565b828103602084015261729c81876172bb565b6000600182016173d0576173d0616f66565b5060010190565b808201808211156109d1576109d1616f66565b6060815260006173fd60608301856166d8565b8281036020840152600681526575706461746560d01b6020820152604081019150508260408301529392505050565b60608152600061743f60608301856166d8565b8281036020840152600381526218591960ea1b602082015260408101915050826040830152939250505056fe4f6e6c792073706f6e736f72206f722061646d696e6973747261746f72732063a2646970667358221220ff73dcef4a965018cf679ffffb369c35b2e02c12fa08e6e56c245d27e4770d6964736f6c634300081b0033","opcodes":"PUSH1 0xA0 PUSH1 0x40 MSTORE CALLVALUE DUP1 ISZERO PUSH2 0x10 JUMPI PUSH1 0x0 DUP1 REVERT JUMPDEST POP PUSH1 0x40 MLOAD PUSH2 0x786B CODESIZE SUB DUP1 PUSH2 0x786B DUP4 CODECOPY DUP2 ADD PUSH1 0x40 DUP2 SWAP1 MSTORE PUSH2 0x2F SWAP2 PUSH2 0x12C JUMP JUMPDEST PUSH1 0x0 DUP3 MLOAD GT PUSH2 0x85 JUMPI PUSH1 0x40 MLOAD PUSH3 0x461BCD PUSH1 0xE5 SHL DUP2 MSTORE PUSH1 0x20 PUSH1 0x4 DUP3 ADD MSTORE PUSH1 0x16 PUSH1 0x24 DUP3 ADD MSTORE PUSH32 0x446F6D61696E2063616E6E6F7420626520656D70747900000000000000000000 PUSH1 0x44 DUP3 ADD MSTORE PUSH1 0x64 ADD JUMPDEST PUSH1 0x40 MLOAD DUP1 SWAP2 SUB SWAP1 REVERT JUMPDEST PUSH1 0x1 PUSH1 0x1 PUSH1 0xA0 SHL SUB DUP2 AND PUSH2 0xDB JUMPI PUSH1 0x40 MLOAD PUSH3 0x461BCD PUSH1 0xE5 SHL DUP2 MSTORE PUSH1 0x20 PUSH1 0x4 DUP3 ADD MSTORE PUSH1 0x1E PUSH1 0x24 DUP3 ADD MSTORE PUSH32 0x53706F6E736F722063616E6E6F74206265207A65726F20616464726573730000 PUSH1 0x44 DUP3 ADD MSTORE PUSH1 0x64 ADD PUSH2 0x7C JUMP JUMPDEST PUSH1 0x0 PUSH2 0xE7 DUP4 DUP3 PUSH2 0x292 JUMP JUMPDEST POP PUSH1 0x1 PUSH1 0x1 PUSH1 0xA0 SHL SUB AND PUSH1 0x80 MSTORE POP PUSH2 0x350 JUMP JUMPDEST PUSH4 0x4E487B71 PUSH1 0xE0 SHL PUSH1 0x0 MSTORE PUSH1 0x41 PUSH1 0x4 MSTORE PUSH1 0x24 PUSH1 0x0 REVERT JUMPDEST DUP1 MLOAD PUSH1 0x1 PUSH1 0x1 PUSH1 0xA0 SHL SUB DUP2 AND DUP2 EQ PUSH2 0x127 JUMPI PUSH1 0x0 DUP1 REVERT JUMPDEST SWAP2 SWAP1 POP JUMP JUMPDEST PUSH1 0x0 DUP1 PUSH1 0x40 DUP4 DUP6 SUB SLT ISZERO PUSH2 0x13F JUMPI PUSH1 0x0 DUP1 REVERT JUMPDEST DUP3 MLOAD PUSH1 0x1 PUSH1 0x1 PUSH1 0x40 SHL SUB DUP2 GT ISZERO PUSH2 0x155 JUMPI PUSH1 0x0 DUP1 REVERT JUMPDEST DUP4 ADD PUSH1 0x1F DUP2 ADD DUP6 SGT PUSH2 0x166 JUMPI PUSH1 0x0 DUP1 REVERT JUMPDEST DUP1 MLOAD PUSH1 0x1 PUSH1 0x1 PUSH1 0x40 SHL SUB DUP2 GT ISZERO PUSH2 0x17F JUMPI PUSH2 0x17F PUSH2 0xFA JUMP JUMPDEST PUSH1 0x40 MLOAD PUSH1 0x1F DUP3 ADD PUSH1 0x1F NOT SWAP1 DUP2 AND PUSH1 0x3F ADD AND DUP2 ADD PUSH1 0x1 PUSH1 0x1 PUSH1 0x40 SHL SUB DUP2 GT DUP3 DUP3 LT OR ISZERO PUSH2 0x1AD JUMPI PUSH2 0x1AD PUSH2 0xFA JUMP JUMPDEST PUSH1 0x40 MSTORE DUP2 DUP2 MSTORE DUP3 DUP3 ADD PUSH1 0x20 ADD DUP8 LT ISZERO PUSH2 0x1C5 JUMPI PUSH1 0x0 DUP1 REVERT JUMPDEST PUSH1 0x0 JUMPDEST DUP3 DUP2 LT ISZERO PUSH2 0x1E4 JUMPI PUSH1 0x20 DUP2 DUP6 ADD DUP2 ADD MLOAD DUP4 DUP4 ADD DUP3 ADD MSTORE ADD PUSH2 0x1C8 JUMP JUMPDEST POP PUSH1 0x0 PUSH1 0x20 DUP4 DUP4 ADD ADD MSTORE DUP1 SWAP5 POP POP POP POP PUSH2 0x200 PUSH1 0x20 DUP5 ADD PUSH2 0x110 JUMP JUMPDEST SWAP1 POP SWAP3 POP SWAP3 SWAP1 POP JUMP JUMPDEST PUSH1 0x1 DUP2 DUP2 SHR SWAP1 DUP3 AND DUP1 PUSH2 0x21D JUMPI PUSH1 0x7F DUP3 AND SWAP2 POP JUMPDEST PUSH1 0x20 DUP3 LT DUP2 SUB PUSH2 0x23D JUMPI PUSH4 0x4E487B71 PUSH1 0xE0 SHL PUSH1 0x0 MSTORE PUSH1 0x22 PUSH1 0x4 MSTORE PUSH1 0x24 PUSH1 0x0 REVERT JUMPDEST POP SWAP2 SWAP1 POP JUMP JUMPDEST PUSH1 0x1F DUP3 GT ISZERO PUSH2 0x28D JUMPI DUP1 PUSH1 0x0 MSTORE PUSH1 0x20 PUSH1 0x0 KECCAK256 PUSH1 0x1F DUP5 ADD PUSH1 0x5 SHR DUP2 ADD PUSH1 0x20 DUP6 LT ISZERO PUSH2 0x26A JUMPI POP DUP1 JUMPDEST PUSH1 0x1F DUP5 ADD PUSH1 0x5 SHR DUP3 ADD SWAP2 POP JUMPDEST DUP2 DUP2 LT ISZERO PUSH2 0x28A JUMPI PUSH1 0x0 DUP2 SSTORE PUSH1 0x1 ADD PUSH2 0x276 JUMP JUMPDEST POP POP JUMPDEST POP POP POP JUMP JUMPDEST DUP2 MLOAD PUSH1 0x1 PUSH1 0x1 PUSH1 0x40 SHL SUB DUP2 GT ISZERO PUSH2 0x2AB JUMPI PUSH2 0x2AB PUSH2 0xFA JUMP JUMPDEST PUSH2 0x2BF DUP2 PUSH2 0x2B9 DUP5 SLOAD PUSH2 0x209 JUMP JUMPDEST DUP5 PUSH2 0x243 JUMP JUMPDEST PUSH1 0x20 PUSH1 0x1F DUP3 GT PUSH1 0x1 DUP2 EQ PUSH2 0x2F3 JUMPI PUSH1 0x0 DUP4 ISZERO PUSH2 0x2DB JUMPI POP DUP5 DUP3 ADD MLOAD JUMPDEST PUSH1 0x0 NOT PUSH1 0x3 DUP6 SWAP1 SHL SHR NOT AND PUSH1 0x1 DUP5 SWAP1 SHL OR DUP5 SSTORE PUSH2 0x28A JUMP JUMPDEST PUSH1 0x0 DUP5 DUP2 MSTORE PUSH1 0x20 DUP2 KECCAK256 PUSH1 0x1F NOT DUP6 AND SWAP2 JUMPDEST DUP3 DUP2 LT ISZERO PUSH2 0x323 JUMPI DUP8 DUP6 ADD MLOAD DUP3 SSTORE PUSH1 0x20 SWAP5 DUP6 ADD SWAP5 PUSH1 0x1 SWAP1 SWAP3 ADD SWAP2 ADD PUSH2 0x303 JUMP JUMPDEST POP DUP5 DUP3 LT ISZERO PUSH2 0x341 JUMPI DUP7 DUP5 ADD MLOAD PUSH1 0x0 NOT PUSH1 0x3 DUP8 SWAP1 SHL PUSH1 0xF8 AND SHR NOT AND DUP2 SSTORE JUMPDEST POP POP POP POP PUSH1 0x1 SWAP1 DUP2 SHL ADD SWAP1 SSTORE POP JUMP JUMPDEST PUSH1 0x80 MLOAD PUSH2 0x74C1 PUSH2 0x3AA PUSH1 0x0 CODECOPY PUSH1 0x0 DUP2 DUP2 PUSH2 0x42D ADD MSTORE DUP2 DUP2 PUSH2 0x97B ADD MSTORE DUP2 DUP2 PUSH2 0x13C4 ADD MSTORE DUP2 DUP2 PUSH2 0x1D98 ADD MSTORE DUP2 DUP2 PUSH2 0x3206 ADD MSTORE DUP2 DUP2 PUSH2 0x35D0 ADD MSTORE DUP2 DUP2 PUSH2 0x3759 ADD MSTORE DUP2 DUP2 PUSH2 0x3F6C ADD MSTORE DUP2 DUP2 PUSH2 0x4ADA ADD MSTORE PUSH2 0x4BDA ADD MSTORE PUSH2 0x74C1 PUSH1 0x0 RETURN INVALID PUSH1 0x80 PUSH1 0x40 MSTORE CALLVALUE DUP1 ISZERO PUSH2 0x10 JUMPI PUSH1 0x0 DUP1 REVERT JUMPDEST POP PUSH1 0x4 CALLDATASIZE LT PUSH2 0x25E JUMPI PUSH1 0x0 CALLDATALOAD PUSH1 0xE0 SHR DUP1 PUSH4 0x77C93662 GT PUSH2 0x146 JUMPI DUP1 PUSH4 0xBE758306 GT PUSH2 0xC3 JUMPI DUP1 PUSH4 0xC9991176 GT PUSH2 0x87 JUMPI DUP1 PUSH4 0xC9991176 EQ PUSH2 0x59C JUMPI DUP1 PUSH4 0xCA239D4B EQ PUSH2 0x5AF JUMPI DUP1 PUSH4 0xF2FDE38B EQ PUSH2 0x5C2 JUMPI DUP1 PUSH4 0xF6EE44CB EQ PUSH2 0x5D5 JUMPI DUP1 PUSH4 0xFD098D2F EQ PUSH2 0x5E8 JUMPI DUP1 PUSH4 0xFFA1AD74 EQ PUSH2 0x5FB JUMPI PUSH1 0x0 DUP1 REVERT JUMPDEST DUP1 PUSH4 0xBE758306 EQ PUSH2 0x52C JUMPI DUP1 PUSH4 0xC25CFE8A EQ PUSH2 0x541 JUMPI DUP1 PUSH4 0xC2FB26A6 EQ PUSH2 0x554 JUMPI DUP1 PUSH4 0xC565B772 EQ PUSH2 0x55C JUMPI DUP1 PUSH4 0xC7967F11 EQ PUSH2 0x57C JUMPI PUSH1 0x0 DUP1 REVERT JUMPDEST DUP1 PUSH4 0x9D2C2C77 GT PUSH2 0x10A JUMPI DUP1 PUSH4 0x9D2C2C77 EQ PUSH2 0x4C0 JUMPI DUP1 PUSH4 0xAA2285A5 EQ PUSH2 0x4D3 JUMPI DUP1 PUSH4 0xB33A0AF1 EQ PUSH2 0x4E6 JUMPI DUP1 PUSH4 0xB715BB74 EQ PUSH2 0x506 JUMPI DUP1 PUSH4 0xBAE067B3 EQ PUSH2 0x519 JUMPI PUSH1 0x0 DUP1 REVERT JUMPDEST DUP1 PUSH4 0x77C93662 EQ PUSH2 0x428 JUMPI DUP1 PUSH4 0x7F344C16 EQ PUSH2 0x467 JUMPI DUP1 PUSH4 0x898C2D7B EQ PUSH2 0x47A JUMPI DUP1 PUSH4 0x8F033C85 EQ PUSH2 0x48D JUMPI DUP1 PUSH4 0x956F0F8F EQ PUSH2 0x4AD JUMPI PUSH1 0x0 DUP1 REVERT JUMPDEST DUP1 PUSH4 0x4194F5AA GT PUSH2 0x1DF JUMPI DUP1 PUSH4 0x57DE26A4 GT PUSH2 0x1A3 JUMPI DUP1 PUSH4 0x57DE26A4 EQ PUSH2 0x3CC JUMPI DUP1 PUSH4 0x57FCA407 EQ PUSH2 0x3D4 JUMPI DUP1 PUSH4 0x5EAF27F1 EQ PUSH2 0x3DC JUMPI DUP1 PUSH4 0x5FCBB7D6 EQ PUSH2 0x3EF JUMPI DUP1 PUSH4 0x68FA8134 EQ PUSH2 0x402 JUMPI DUP1 PUSH4 0x7657E293 EQ PUSH2 0x415 JUMPI PUSH1 0x0 DUP1 REVERT JUMPDEST DUP1 PUSH4 0x4194F5AA EQ PUSH2 0x360 JUMPI DUP1 PUSH4 0x43B63FD5 EQ PUSH2 0x380 JUMPI DUP1 PUSH4 0x48205521 EQ PUSH2 0x393 JUMPI DUP1 PUSH4 0x4CAF9D0B EQ PUSH2 0x3A6 JUMPI DUP1 PUSH4 0x53DACEC6 EQ PUSH2 0x3B9 JUMPI PUSH1 0x0 DUP1 REVERT JUMPDEST DUP1 PUSH4 0x1E7C0197 GT PUSH2 0x226 JUMPI DUP1 PUSH4 0x1E7C0197 EQ PUSH2 0x2E6 JUMPI DUP1 PUSH4 0x294C9921 EQ PUSH2 0x2F9 JUMPI DUP1 PUSH4 0x2A6D9034 EQ PUSH2 0x30E JUMPI DUP1 PUSH4 0x3037C5AD EQ PUSH2 0x32E JUMPI DUP1 PUSH4 0x31933916 EQ PUSH2 0x341 JUMPI PUSH1 0x0 DUP1 REVERT JUMPDEST DUP1 PUSH4 0x308761B EQ PUSH2 0x263 JUMPI DUP1 PUSH4 0xA2EB301 EQ PUSH2 0x278 JUMPI DUP1 PUSH4 0xE26B22D EQ PUSH2 0x2A0 JUMPI DUP1 PUSH4 0x10AE73DD EQ PUSH2 0x2B3 JUMPI DUP1 PUSH4 0x1B204716 EQ PUSH2 0x2C6 JUMPI JUMPDEST PUSH1 0x0 DUP1 REVERT JUMPDEST PUSH2 0x276 PUSH2 0x271 CALLDATASIZE PUSH1 0x4 PUSH2 0x64D1 JUMP JUMPDEST PUSH2 0x61F JUMP JUMPDEST STOP JUMPDEST PUSH2 0x28B PUSH2 0x286 CALLDATASIZE PUSH1 0x4 PUSH2 0x651E JUMP JUMPDEST PUSH2 0x977 JUMP JUMPDEST PUSH1 0x40 MLOAD SWAP1 ISZERO ISZERO DUP2 MSTORE PUSH1 0x20 ADD JUMPDEST PUSH1 0x40 MLOAD DUP1 SWAP2 SUB SWAP1 RETURN JUMPDEST PUSH2 0x276 PUSH2 0x2AE CALLDATASIZE PUSH1 0x4 PUSH2 0x6548 JUMP JUMPDEST PUSH2 0x9D7 JUMP JUMPDEST PUSH2 0x276 PUSH2 0x2C1 CALLDATASIZE PUSH1 0x4 PUSH2 0x6624 JUMP JUMPDEST PUSH2 0xBED JUMP JUMPDEST PUSH2 0x2D9 PUSH2 0x2D4 CALLDATASIZE PUSH1 0x4 PUSH2 0x668A JUMP JUMPDEST PUSH2 0xED6 JUMP JUMPDEST PUSH1 0x40 MLOAD PUSH2 0x297 SWAP2 SWAP1 PUSH2 0x6704 JUMP JUMPDEST PUSH2 0x276 PUSH2 0x2F4 CALLDATASIZE PUSH1 0x4 PUSH2 0x67B2 JUMP JUMPDEST PUSH2 0x10AD JUMP JUMPDEST PUSH2 0x301 PUSH2 0x13B7 JUMP JUMPDEST PUSH1 0x40 MLOAD PUSH2 0x297 SWAP2 SWAP1 PUSH2 0x6819 JUMP JUMPDEST PUSH2 0x321 PUSH2 0x31C CALLDATASIZE PUSH1 0x4 PUSH2 0x651E JUMP JUMPDEST PUSH2 0x1536 JUMP JUMPDEST PUSH1 0x40 MLOAD PUSH2 0x297 SWAP2 SWAP1 PUSH2 0x68AA JUMP JUMPDEST PUSH2 0x276 PUSH2 0x33C CALLDATASIZE PUSH1 0x4 PUSH2 0x69AC JUMP JUMPDEST PUSH2 0x1927 JUMP JUMPDEST CALLER PUSH1 0x0 SWAP1 DUP2 MSTORE PUSH1 0x2 PUSH1 0x20 MSTORE PUSH1 0x40 SWAP1 KECCAK256 SLOAD JUMPDEST PUSH1 0x40 MLOAD SWAP1 DUP2 MSTORE PUSH1 0x20 ADD PUSH2 0x297 JUMP JUMPDEST PUSH2 0x373 PUSH2 0x36E CALLDATASIZE PUSH1 0x4 PUSH2 0x69E3 JUMP JUMPDEST PUSH2 0x19E7 JUMP JUMPDEST PUSH1 0x40 MLOAD PUSH2 0x297 SWAP2 SWAP1 PUSH2 0x6A96 JUMP JUMPDEST PUSH2 0x301 PUSH2 0x38E CALLDATASIZE PUSH1 0x4 PUSH2 0x651E JUMP JUMPDEST PUSH2 0x1C9E JUMP JUMPDEST PUSH2 0x276 PUSH2 0x3A1 CALLDATASIZE PUSH1 0x4 PUSH2 0x6AA9 JUMP JUMPDEST PUSH2 0x1D8D JUMP JUMPDEST PUSH2 0x321 PUSH2 0x3B4 CALLDATASIZE PUSH1 0x4 PUSH2 0x651E JUMP JUMPDEST PUSH2 0x1F3C JUMP JUMPDEST PUSH2 0x321 PUSH2 0x3C7 CALLDATASIZE PUSH1 0x4 PUSH2 0x6AE5 JUMP JUMPDEST PUSH2 0x23BD JUMP JUMPDEST PUSH2 0x301 PUSH2 0x29E4 JUMP JUMPDEST PUSH2 0x301 PUSH2 0x2D98 JUMP JUMPDEST PUSH2 0x276 PUSH2 0x3EA CALLDATASIZE PUSH1 0x4 PUSH2 0x6B18 JUMP JUMPDEST PUSH2 0x2E68 JUMP JUMPDEST PUSH2 0x301 PUSH2 0x3FD CALLDATASIZE PUSH1 0x4 PUSH2 0x651E JUMP JUMPDEST PUSH2 0x3117 JUMP JUMPDEST PUSH2 0x276 PUSH2 0x410 CALLDATASIZE PUSH1 0x4 PUSH2 0x651E JUMP JUMPDEST PUSH2 0x31FB JUMP JUMPDEST PUSH2 0x276 PUSH2 0x423 CALLDATASIZE PUSH1 0x4 PUSH2 0x6BD3 JUMP JUMPDEST PUSH2 0x32A3 JUMP JUMPDEST PUSH2 0x44F PUSH32 0x0 DUP2 JUMP JUMPDEST PUSH1 0x40 MLOAD PUSH1 0x1 PUSH1 0x1 PUSH1 0xA0 SHL SUB SWAP1 SWAP2 AND DUP2 MSTORE PUSH1 0x20 ADD PUSH2 0x297 JUMP JUMPDEST PUSH2 0x276 PUSH2 0x475 CALLDATASIZE PUSH1 0x4 PUSH2 0x6AA9 JUMP JUMPDEST PUSH2 0x35C5 JUMP JUMPDEST PUSH2 0x276 PUSH2 0x488 CALLDATASIZE PUSH1 0x4 PUSH2 0x67B2 JUMP JUMPDEST PUSH2 0x374E JUMP JUMPDEST PUSH2 0x4A0 PUSH2 0x49B CALLDATASIZE PUSH1 0x4 PUSH2 0x6AA9 JUMP JUMPDEST PUSH2 0x392A JUMP JUMPDEST PUSH1 0x40 MLOAD PUSH2 0x297 SWAP2 SWAP1 PUSH2 0x6C87 JUMP JUMPDEST PUSH2 0x28B PUSH2 0x4BB CALLDATASIZE PUSH1 0x4 PUSH2 0x69E3 JUMP JUMPDEST PUSH2 0x39DA JUMP JUMPDEST PUSH2 0x276 PUSH2 0x4CE CALLDATASIZE PUSH1 0x4 PUSH2 0x6C9A JUMP JUMPDEST PUSH2 0x3C15 JUMP JUMPDEST PUSH2 0x276 PUSH2 0x4E1 CALLDATASIZE PUSH1 0x4 PUSH2 0x67B2 JUMP JUMPDEST PUSH2 0x3F61 JUMP JUMPDEST PUSH2 0x4F9 PUSH2 0x4F4 CALLDATASIZE PUSH1 0x4 PUSH2 0x69AC JUMP JUMPDEST PUSH2 0x4135 JUMP JUMPDEST PUSH1 0x40 MLOAD PUSH2 0x297 SWAP2 SWAP1 PUSH2 0x6D3C JUMP JUMPDEST PUSH2 0x4A0 PUSH2 0x514 CALLDATASIZE PUSH1 0x4 PUSH2 0x668A JUMP JUMPDEST PUSH2 0x430B JUMP JUMPDEST PUSH2 0x4A0 PUSH2 0x527 CALLDATASIZE PUSH1 0x4 PUSH2 0x6AA9 JUMP JUMPDEST PUSH2 0x43C5 JUMP JUMPDEST PUSH2 0x534 PUSH2 0x446A JUMP JUMPDEST PUSH1 0x40 MLOAD PUSH2 0x297 SWAP2 SWAP1 PUSH2 0x6D95 JUMP JUMPDEST PUSH2 0x352 PUSH2 0x54F CALLDATASIZE PUSH1 0x4 PUSH2 0x668A JUMP JUMPDEST PUSH2 0x44CB JUMP JUMPDEST PUSH2 0x4A0 PUSH2 0x4541 JUMP JUMPDEST PUSH2 0x56F PUSH2 0x56A CALLDATASIZE PUSH1 0x4 PUSH2 0x651E JUMP JUMPDEST PUSH2 0x454E JUMP JUMPDEST PUSH1 0x40 MLOAD PUSH2 0x297 SWAP2 SWAP1 PUSH2 0x6DCD JUMP JUMPDEST PUSH2 0x58F PUSH2 0x58A CALLDATASIZE PUSH1 0x4 PUSH2 0x651E JUMP JUMPDEST PUSH2 0x49AE JUMP JUMPDEST PUSH1 0x40 MLOAD PUSH2 0x297 SWAP2 SWAP1 PUSH2 0x6E81 JUMP JUMPDEST PUSH2 0x276 PUSH2 0x5AA CALLDATASIZE PUSH1 0x4 PUSH2 0x651E JUMP JUMPDEST PUSH2 0x4ACF JUMP JUMPDEST PUSH2 0x4A0 PUSH2 0x5BD CALLDATASIZE PUSH1 0x4 PUSH2 0x6AA9 JUMP JUMPDEST PUSH2 0x4BCD JUMP JUMPDEST PUSH2 0x276 PUSH2 0x5D0 CALLDATASIZE PUSH1 0x4 PUSH2 0x651E JUMP JUMPDEST PUSH2 0x4C85 JUMP JUMPDEST PUSH2 0x56F PUSH2 0x5E3 CALLDATASIZE PUSH1 0x4 PUSH2 0x651E JUMP JUMPDEST PUSH2 0x59F1 JUMP JUMPDEST PUSH2 0x276 PUSH2 0x5F6 CALLDATASIZE PUSH1 0x4 PUSH2 0x6B18 JUMP JUMPDEST PUSH2 0x5E47 JUMP JUMPDEST PUSH2 0x4A0 PUSH1 0x40 MLOAD DUP1 PUSH1 0x40 ADD PUSH1 0x40 MSTORE DUP1 PUSH1 0x5 DUP2 MSTORE PUSH1 0x20 ADD PUSH5 0x332E322E3 PUSH1 0xDC SHL DUP2 MSTORE POP DUP2 JUMP JUMPDEST PUSH1 0x0 DUP3 MLOAD GT PUSH2 0x649 JUMPI PUSH1 0x40 MLOAD PUSH3 0x461BCD PUSH1 0xE5 SHL DUP2 MSTORE PUSH1 0x4 ADD PUSH2 0x640 SWAP1 PUSH2 0x6EFD JUMP JUMPDEST PUSH1 0x40 MLOAD DUP1 SWAP2 SUB SWAP1 REVERT JUMPDEST CALLER PUSH1 0x0 SWAP1 DUP2 MSTORE PUSH1 0x5 PUSH1 0x20 MSTORE PUSH1 0x40 DUP1 DUP3 KECCAK256 SWAP1 MLOAD PUSH2 0x666 SWAP1 DUP6 SWAP1 PUSH2 0x6F34 JUMP JUMPDEST SWAP1 DUP2 MSTORE PUSH1 0x20 ADD PUSH1 0x40 MLOAD DUP1 SWAP2 SUB SWAP1 KECCAK256 SWAP1 POP PUSH1 0x0 JUMPDEST DUP2 SLOAD DUP2 LT ISZERO PUSH2 0x971 JUMPI DUP3 PUSH1 0x1 PUSH1 0x1 PUSH1 0xA0 SHL SUB AND DUP3 DUP3 DUP2 SLOAD DUP2 LT PUSH2 0x69E JUMPI PUSH2 0x69E PUSH2 0x6F50 JUMP JUMPDEST PUSH1 0x0 SWAP2 DUP3 MSTORE PUSH1 0x20 SWAP1 SWAP2 KECCAK256 PUSH1 0x4 SWAP1 SWAP2 MUL ADD SLOAD PUSH1 0x1 PUSH1 0x1 PUSH1 0xA0 SHL SUB AND SUB PUSH2 0x969 JUMPI DUP2 SLOAD DUP3 SWAP1 PUSH2 0x6CD SWAP1 PUSH1 0x1 SWAP1 PUSH2 0x6F7C JUMP JUMPDEST DUP2 SLOAD DUP2 LT PUSH2 0x6DD JUMPI PUSH2 0x6DD PUSH2 0x6F50 JUMP JUMPDEST SWAP1 PUSH1 0x0 MSTORE PUSH1 0x20 PUSH1 0x0 KECCAK256 SWAP1 PUSH1 0x4 MUL ADD DUP3 DUP3 DUP2 SLOAD DUP2 LT PUSH2 0x6FD JUMPI PUSH2 0x6FD PUSH2 0x6F50 JUMP JUMPDEST PUSH1 0x0 SWAP2 DUP3 MSTORE PUSH1 0x20 SWAP1 SWAP2 KECCAK256 DUP3 SLOAD PUSH1 0x4 SWAP1 SWAP3 MUL ADD DUP1 SLOAD PUSH1 0x1 PUSH1 0x1 PUSH1 0xA0 SHL SUB NOT AND PUSH1 0x1 PUSH1 0x1 PUSH1 0xA0 SHL SUB SWAP1 SWAP3 AND SWAP2 SWAP1 SWAP2 OR DUP2 SSTORE PUSH1 0x1 DUP1 DUP3 ADD SWAP1 PUSH2 0x73E SWAP1 DUP5 ADD DUP3 PUSH2 0x7015 JUMP JUMPDEST POP PUSH1 0x2 DUP3 DUP2 ADD SLOAD SWAP1 DUP3 ADD DUP1 SLOAD PUSH1 0xFF NOT AND PUSH1 0xFF SWAP1 SWAP3 AND SWAP2 SWAP1 SWAP2 OR SWAP1 SSTORE PUSH1 0x3 DUP1 DUP3 ADD SWAP1 PUSH2 0x76B SWAP1 DUP5 ADD DUP3 PUSH2 0x7015 JUMP JUMPDEST POP SWAP1 POP POP DUP2 DUP1 SLOAD DUP1 PUSH2 0x77F JUMPI PUSH2 0x77F PUSH2 0x70F4 JUMP JUMPDEST PUSH1 0x0 DUP3 DUP2 MSTORE PUSH1 0x20 DUP2 KECCAK256 PUSH1 0x4 PUSH1 0x0 NOT SWAP1 SWAP4 ADD SWAP3 DUP4 MUL ADD DUP1 SLOAD PUSH1 0x1 PUSH1 0x1 PUSH1 0xA0 SHL SUB NOT AND DUP2 SSTORE SWAP1 PUSH2 0x7B0 PUSH1 0x1 DUP4 ADD DUP3 PUSH2 0x61B9 JUMP JUMPDEST PUSH1 0x2 DUP3 ADD DUP1 SLOAD PUSH1 0xFF NOT AND SWAP1 SSTORE PUSH2 0x7CA PUSH1 0x3 DUP4 ADD PUSH1 0x0 PUSH2 0x61B9 JUMP JUMPDEST POP POP SWAP1 SSTORE CALLER PUSH1 0x0 SWAP1 DUP2 MSTORE PUSH1 0x7 PUSH1 0x20 SWAP1 DUP2 MSTORE PUSH1 0x40 DUP1 DUP4 KECCAK256 PUSH1 0x1 PUSH1 0x1 PUSH1 0xA0 SHL SUB DUP8 AND DUP5 MSTORE SWAP1 SWAP2 MSTORE DUP2 KECCAK256 SWAP1 JUMPDEST DUP2 SLOAD DUP2 LT ISZERO PUSH2 0x915 JUMPI DUP6 DUP1 MLOAD SWAP1 PUSH1 0x20 ADD KECCAK256 DUP3 DUP3 DUP2 SLOAD DUP2 LT PUSH2 0x816 JUMPI PUSH2 0x816 PUSH2 0x6F50 JUMP JUMPDEST SWAP1 PUSH1 0x0 MSTORE PUSH1 0x20 PUSH1 0x0 KECCAK256 SWAP1 PUSH1 0x3 MUL ADD PUSH1 0x0 ADD PUSH1 0x40 MLOAD PUSH2 0x834 SWAP2 SWAP1 PUSH2 0x710A JUMP JUMPDEST PUSH1 0x40 MLOAD DUP1 SWAP2 SUB SWAP1 KECCAK256 SUB PUSH2 0x90D JUMPI DUP2 SLOAD DUP3 SWAP1 PUSH2 0x851 SWAP1 PUSH1 0x1 SWAP1 PUSH2 0x6F7C JUMP JUMPDEST DUP2 SLOAD DUP2 LT PUSH2 0x861 JUMPI PUSH2 0x861 PUSH2 0x6F50 JUMP JUMPDEST SWAP1 PUSH1 0x0 MSTORE PUSH1 0x20 PUSH1 0x0 KECCAK256 SWAP1 PUSH1 0x3 MUL ADD DUP3 DUP3 DUP2 SLOAD DUP2 LT PUSH2 0x881 JUMPI PUSH2 0x881 PUSH2 0x6F50 JUMP JUMPDEST PUSH1 0x0 SWAP2 DUP3 MSTORE PUSH1 0x20 SWAP1 SWAP2 KECCAK256 PUSH1 0x3 SWAP1 SWAP2 MUL ADD DUP1 PUSH2 0x89C DUP4 DUP3 PUSH2 0x7015 JUMP JUMPDEST POP PUSH1 0x1 DUP3 DUP2 ADD SLOAD SWAP1 DUP3 ADD DUP1 SLOAD PUSH1 0xFF NOT AND PUSH1 0xFF SWAP1 SWAP3 AND SWAP2 SWAP1 SWAP2 OR SWAP1 SSTORE PUSH1 0x2 SWAP2 DUP3 ADD SLOAD SWAP2 ADD SSTORE DUP2 SLOAD DUP3 SWAP1 DUP1 PUSH2 0x8D1 JUMPI PUSH2 0x8D1 PUSH2 0x70F4 JUMP JUMPDEST PUSH1 0x0 DUP3 DUP2 MSTORE PUSH1 0x20 DUP2 KECCAK256 PUSH1 0x0 NOT SWAP1 SWAP3 ADD SWAP2 PUSH1 0x3 DUP4 MUL ADD SWAP1 PUSH2 0x8F1 DUP3 DUP3 PUSH2 0x61B9 JUMP JUMPDEST POP PUSH1 0x1 DUP2 ADD DUP1 SLOAD PUSH1 0xFF NOT AND SWAP1 SSTORE PUSH1 0x0 PUSH1 0x2 SWAP1 SWAP2 ADD SSTORE SWAP1 SSTORE PUSH2 0x915 JUMP JUMPDEST PUSH1 0x1 ADD PUSH2 0x7F3 JUMP JUMPDEST POP DUP4 PUSH1 0x1 PUSH1 0x1 PUSH1 0xA0 SHL SUB AND CALLER PUSH1 0x1 PUSH1 0x1 PUSH1 0xA0 SHL SUB AND PUSH32 0xB66DABB959D5F3BDB53A39AA58D0975B39199C9B188AD8BB09A1B37BB7BF5979 DUP8 TIMESTAMP PUSH1 0x40 MLOAD PUSH2 0x95B SWAP3 SWAP2 SWAP1 PUSH2 0x717F JUMP JUMPDEST PUSH1 0x40 MLOAD DUP1 SWAP2 SUB SWAP1 LOG3 POP PUSH2 0x971 JUMP JUMPDEST PUSH1 0x1 ADD PUSH2 0x679 JUMP JUMPDEST POP POP POP POP JUMP JUMPDEST PUSH1 0x0 PUSH32 0x0 PUSH1 0x1 PUSH1 0x1 PUSH1 0xA0 SHL SUB AND DUP3 PUSH1 0x1 PUSH1 0x1 PUSH1 0xA0 SHL SUB AND EQ DUP1 PUSH2 0x9D1 JUMPI POP PUSH1 0x1 PUSH1 0x1 PUSH1 0xA0 SHL SUB DUP3 AND PUSH1 0x0 SWAP1 DUP2 MSTORE PUSH1 0x10 PUSH1 0x20 MSTORE PUSH1 0x40 SWAP1 KECCAK256 SLOAD PUSH1 0xFF AND JUMPDEST SWAP3 SWAP2 POP POP JUMP JUMPDEST PUSH1 0x0 DUP3 MLOAD GT PUSH2 0xA24 JUMPI PUSH1 0x40 MLOAD PUSH3 0x461BCD PUSH1 0xE5 SHL DUP2 MSTORE PUSH1 0x20 PUSH1 0x4 DUP3 ADD MSTORE PUSH1 0x19 PUSH1 0x24 DUP3 ADD MSTORE PUSH25 0x4950465320686173682063616E6E6F7420626520656D707479 PUSH1 0x38 SHL PUSH1 0x44 DUP3 ADD MSTORE PUSH1 0x64 ADD PUSH2 0x640 JUMP JUMPDEST PUSH1 0x1 PUSH1 0x1 PUSH1 0xA0 SHL SUB DUP7 AND PUSH1 0x0 SWAP1 DUP2 MSTORE PUSH1 0x2 PUSH1 0x20 SWAP1 DUP2 MSTORE PUSH1 0x40 DUP1 DUP4 KECCAK256 DUP2 MLOAD PUSH2 0x100 DUP2 ADD DUP4 MSTORE CALLER DUP2 MSTORE SWAP3 DUP4 ADD SWAP4 SWAP1 SWAP4 MSTORE DUP2 ADD DUP7 SWAP1 MSTORE PUSH1 0x60 DUP2 ADD DUP8 SWAP1 MSTORE PUSH1 0x80 DUP2 ADD DUP6 SWAP1 MSTORE PUSH1 0xA0 DUP2 ADD DUP5 SWAP1 MSTORE PUSH1 0xC0 DUP2 ADD DUP4 PUSH1 0x1 DUP2 GT ISZERO PUSH2 0xA82 JUMPI PUSH2 0xA82 PUSH2 0x6872 JUMP JUMPDEST DUP2 MSTORE TIMESTAMP PUSH1 0x20 SWAP2 DUP3 ADD MSTORE DUP3 SLOAD PUSH1 0x1 DUP1 DUP3 ADD DUP6 SSTORE PUSH1 0x0 SWAP5 DUP6 MSTORE SWAP4 DUP3 SWAP1 KECCAK256 DUP4 MLOAD PUSH1 0x8 SWAP1 SWAP3 MUL ADD DUP1 SLOAD PUSH1 0x1 PUSH1 0x1 PUSH1 0xA0 SHL SUB NOT SWAP1 DUP2 AND PUSH1 0x1 PUSH1 0x1 PUSH1 0xA0 SHL SUB SWAP4 DUP5 AND OR DUP3 SSTORE SWAP3 DUP5 ADD MLOAD SWAP5 DUP2 ADD DUP1 SLOAD SWAP1 SWAP4 AND SWAP5 SWAP1 SWAP2 AND SWAP4 SWAP1 SWAP4 OR SWAP1 SSTORE PUSH1 0x40 DUP2 ADD MLOAD SWAP1 SWAP2 SWAP1 PUSH1 0x2 DUP3 ADD SWAP1 PUSH2 0xAEE SWAP1 DUP3 PUSH2 0x71C1 JUMP JUMPDEST POP PUSH1 0x60 DUP3 ADD MLOAD PUSH1 0x3 DUP3 ADD SWAP1 PUSH2 0xB03 SWAP1 DUP3 PUSH2 0x71C1 JUMP JUMPDEST POP PUSH1 0x80 DUP3 ADD MLOAD PUSH1 0x4 DUP3 ADD SWAP1 PUSH2 0xB18 SWAP1 DUP3 PUSH2 0x71C1 JUMP JUMPDEST POP PUSH1 0xA0 DUP3 ADD MLOAD PUSH1 0x5 DUP3 ADD SWAP1 PUSH2 0xB2D SWAP1 DUP3 PUSH2 0x71C1 JUMP JUMPDEST POP PUSH1 0xC0 DUP3 ADD MLOAD PUSH1 0x6 DUP3 ADD DUP1 SLOAD PUSH1 0xFF NOT AND PUSH1 0x1 DUP4 DUP2 DUP2 GT ISZERO PUSH2 0xB50 JUMPI PUSH2 0xB50 PUSH2 0x6872 JUMP JUMPDEST MUL OR SWAP1 SSTORE POP PUSH1 0xE0 SWAP2 SWAP1 SWAP2 ADD MLOAD PUSH1 0x7 SWAP1 SWAP2 ADD SSTORE DUP5 MLOAD ISZERO PUSH2 0xB94 JUMPI CALLER PUSH1 0x0 SWAP1 DUP2 MSTORE PUSH1 0x3 PUSH1 0x20 SWAP1 DUP2 MSTORE PUSH1 0x40 DUP3 KECCAK256 DUP1 SLOAD PUSH1 0x1 DUP2 ADD DUP3 SSTORE SWAP1 DUP4 MSTORE SWAP2 KECCAK256 ADD PUSH2 0xB92 DUP7 DUP3 PUSH2 0x71C1 JUMP JUMPDEST POP JUMPDEST DUP6 PUSH1 0x1 PUSH1 0x1 PUSH1 0xA0 SHL SUB AND CALLER PUSH1 0x1 PUSH1 0x1 PUSH1 0xA0 SHL SUB AND PUSH32 0xF8978169EF1306AC0C49B6B67C280D605663D299EB03A25D6C691F3648D7B350 DUP5 DUP7 DUP6 TIMESTAMP PUSH1 0x40 MLOAD PUSH2 0xBDD SWAP5 SWAP4 SWAP3 SWAP2 SWAP1 PUSH2 0x7277 JUMP JUMPDEST PUSH1 0x40 MLOAD DUP1 SWAP2 SUB SWAP1 LOG3 POP POP POP POP POP POP JUMP JUMPDEST PUSH1 0x1 PUSH1 0x1 PUSH1 0xA0 SHL SUB DUP4 AND PUSH2 0xC43 JUMPI PUSH1 0x40 MLOAD PUSH3 0x461BCD PUSH1 0xE5 SHL DUP2 MSTORE PUSH1 0x20 PUSH1 0x4 DUP3 ADD DUP2 SWAP1 MSTORE PUSH1 0x24 DUP3 ADD MSTORE PUSH32 0x526571756573746F722063616E6E6F74206265207A65726F2061646472657373 PUSH1 0x44 DUP3 ADD MSTORE PUSH1 0x64 ADD PUSH2 0x640 JUMP JUMPDEST PUSH1 0x0 DUP3 MLOAD GT PUSH2 0xC90 JUMPI PUSH1 0x40 MLOAD PUSH3 0x461BCD PUSH1 0xE5 SHL DUP2 MSTORE PUSH1 0x20 PUSH1 0x4 DUP3 ADD MSTORE PUSH1 0x19 PUSH1 0x24 DUP3 ADD MSTORE PUSH25 0x46696C65206E616D652063616E6E6F7420626520656D707479 PUSH1 0x38 SHL PUSH1 0x44 DUP3 ADD MSTORE PUSH1 0x64 ADD PUSH2 0x640 JUMP JUMPDEST CALLER PUSH1 0x0 SWAP1 DUP2 MSTORE PUSH1 0x9 PUSH1 0x20 SWAP1 DUP2 MSTORE PUSH1 0x40 DUP1 DUP4 KECCAK256 PUSH1 0x1 PUSH1 0x1 PUSH1 0xA0 SHL SUB DUP8 AND DUP5 MSTORE SWAP1 SWAP2 MSTORE SWAP1 KECCAK256 DUP1 SLOAD PUSH2 0xD01 JUMPI PUSH1 0x40 MLOAD PUSH3 0x461BCD PUSH1 0xE5 SHL DUP2 MSTORE PUSH1 0x20 PUSH1 0x4 DUP3 ADD MSTORE PUSH1 0x1F PUSH1 0x24 DUP3 ADD MSTORE PUSH32 0x4E6F2072657175657374732066726F6D207468697320726571756573746F7200 PUSH1 0x44 DUP3 ADD MSTORE PUSH1 0x64 ADD PUSH2 0x640 JUMP JUMPDEST PUSH1 0x0 DUP1 JUMPDEST DUP3 SLOAD DUP2 LT ISZERO PUSH2 0xE68 JUMPI DUP3 DUP2 DUP2 SLOAD DUP2 LT PUSH2 0xD20 JUMPI PUSH2 0xD20 PUSH2 0x6F50 JUMP JUMPDEST SWAP1 PUSH1 0x0 MSTORE PUSH1 0x20 PUSH1 0x0 KECCAK256 SWAP1 PUSH1 0x5 MUL ADD PUSH1 0x3 ADD SLOAD PUSH1 0x0 EQ DUP1 ISZERO PUSH2 0xD7E JUMPI POP DUP5 DUP1 MLOAD SWAP1 PUSH1 0x20 ADD KECCAK256 DUP4 DUP3 DUP2 SLOAD DUP2 LT PUSH2 0xD56 JUMPI PUSH2 0xD56 PUSH2 0x6F50 JUMP JUMPDEST SWAP1 PUSH1 0x0 MSTORE PUSH1 0x20 PUSH1 0x0 KECCAK256 SWAP1 PUSH1 0x5 MUL ADD PUSH1 0x1 ADD PUSH1 0x40 MLOAD PUSH2 0xD74 SWAP2 SWAP1 PUSH2 0x710A JUMP JUMPDEST PUSH1 0x40 MLOAD DUP1 SWAP2 SUB SWAP1 KECCAK256 EQ JUMPDEST ISZERO PUSH2 0xE60 JUMPI DUP4 DUP4 DUP3 DUP2 SLOAD DUP2 LT PUSH2 0xD96 JUMPI PUSH2 0xD96 PUSH2 0x6F50 JUMP JUMPDEST SWAP1 PUSH1 0x0 MSTORE PUSH1 0x20 PUSH1 0x0 KECCAK256 SWAP1 PUSH1 0x5 MUL ADD PUSH1 0x0 ADD PUSH1 0x0 PUSH2 0x100 EXP DUP2 SLOAD DUP2 PUSH1 0xFF MUL NOT AND SWAP1 DUP4 ISZERO ISZERO MUL OR SWAP1 SSTORE POP TIMESTAMP DUP4 DUP3 DUP2 SLOAD DUP2 LT PUSH2 0xDD1 JUMPI PUSH2 0xDD1 PUSH2 0x6F50 JUMP JUMPDEST SWAP1 PUSH1 0x0 MSTORE PUSH1 0x20 PUSH1 0x0 KECCAK256 SWAP1 PUSH1 0x5 MUL ADD PUSH1 0x3 ADD DUP2 SWAP1 SSTORE POP DUP6 PUSH1 0x1 PUSH1 0x1 PUSH1 0xA0 SHL SUB AND CALLER PUSH1 0x1 PUSH1 0x1 PUSH1 0xA0 SHL SUB AND PUSH32 0x532CB0591B34F8B7DD491DAE5DF420200E7D868E0EAC7EAE638EA5D4CE9DFFCC DUP6 DUP5 DUP2 SLOAD DUP2 LT PUSH2 0xE2D JUMPI PUSH2 0xE2D PUSH2 0x6F50 JUMP JUMPDEST SWAP1 PUSH1 0x0 MSTORE PUSH1 0x20 PUSH1 0x0 KECCAK256 SWAP1 PUSH1 0x5 MUL ADD PUSH1 0x1 ADD DUP8 TIMESTAMP PUSH1 0x40 MLOAD PUSH2 0xE4F SWAP4 SWAP3 SWAP2 SWAP1 PUSH2 0x733E JUMP JUMPDEST PUSH1 0x40 MLOAD DUP1 SWAP2 SUB SWAP1 LOG3 PUSH1 0x1 SWAP2 POP PUSH2 0xE68 JUMP JUMPDEST PUSH1 0x1 ADD PUSH2 0xD05 JUMP JUMPDEST POP DUP1 PUSH2 0xECF JUMPI PUSH1 0x40 MLOAD PUSH3 0x461BCD PUSH1 0xE5 SHL DUP2 MSTORE PUSH1 0x20 PUSH1 0x4 DUP3 ADD MSTORE PUSH1 0x30 PUSH1 0x24 DUP3 ADD MSTORE PUSH32 0x4E6F20756E70726F636573736564207265717565737420666F756E6420776974 PUSH1 0x44 DUP3 ADD MSTORE PUSH16 0x6820746869732066696C65206E616D65 PUSH1 0x80 SHL PUSH1 0x64 DUP3 ADD MSTORE PUSH1 0x84 ADD PUSH2 0x640 JUMP JUMPDEST POP POP POP POP POP JUMP JUMPDEST PUSH1 0x1 PUSH1 0x1 PUSH1 0xA0 SHL SUB DUP1 DUP4 AND PUSH1 0x0 SWAP1 DUP2 MSTORE PUSH1 0x9 PUSH1 0x20 SWAP1 DUP2 MSTORE PUSH1 0x40 DUP1 DUP4 KECCAK256 SWAP4 DUP6 AND DUP4 MSTORE SWAP3 DUP2 MSTORE DUP3 DUP3 KECCAK256 DUP1 SLOAD DUP5 MLOAD DUP2 DUP5 MUL DUP2 ADD DUP5 ADD SWAP1 SWAP6 MSTORE DUP1 DUP6 MSTORE PUSH1 0x60 SWAP5 SWAP4 SWAP2 SWAP3 SWAP1 SWAP2 SWAP1 DUP5 ADD JUMPDEST DUP3 DUP3 LT ISZERO PUSH2 0x10A1 JUMPI PUSH1 0x0 DUP5 DUP2 MSTORE PUSH1 0x20 SWAP1 DUP2 SWAP1 KECCAK256 PUSH1 0x40 DUP1 MLOAD PUSH1 0xA0 DUP2 ADD SWAP1 SWAP2 MSTORE PUSH1 0x5 DUP6 MUL SWAP1 SWAP2 ADD DUP1 SLOAD PUSH1 0xFF AND ISZERO ISZERO DUP3 MSTORE PUSH1 0x1 DUP2 ADD DUP1 SLOAD SWAP3 SWAP4 SWAP2 SWAP3 SWAP2 DUP5 ADD SWAP2 PUSH2 0xF5F SWAP1 PUSH2 0x6F8F JUMP JUMPDEST DUP1 PUSH1 0x1F ADD PUSH1 0x20 DUP1 SWAP2 DIV MUL PUSH1 0x20 ADD PUSH1 0x40 MLOAD SWAP1 DUP2 ADD PUSH1 0x40 MSTORE DUP1 SWAP3 SWAP2 SWAP1 DUP2 DUP2 MSTORE PUSH1 0x20 ADD DUP3 DUP1 SLOAD PUSH2 0xF8B SWAP1 PUSH2 0x6F8F JUMP JUMPDEST DUP1 ISZERO PUSH2 0xFD8 JUMPI DUP1 PUSH1 0x1F LT PUSH2 0xFAD JUMPI PUSH2 0x100 DUP1 DUP4 SLOAD DIV MUL DUP4 MSTORE SWAP2 PUSH1 0x20 ADD SWAP2 PUSH2 0xFD8 JUMP JUMPDEST DUP3 ADD SWAP2 SWAP1 PUSH1 0x0 MSTORE PUSH1 0x20 PUSH1 0x0 KECCAK256 SWAP1 JUMPDEST DUP2 SLOAD DUP2 MSTORE SWAP1 PUSH1 0x1 ADD SWAP1 PUSH1 0x20 ADD DUP1 DUP4 GT PUSH2 0xFBB JUMPI DUP3 SWAP1 SUB PUSH1 0x1F AND DUP3 ADD SWAP2 JUMPDEST POP POP POP POP POP DUP2 MSTORE PUSH1 0x20 ADD PUSH1 0x2 DUP3 ADD DUP1 SLOAD PUSH2 0xFF1 SWAP1 PUSH2 0x6F8F JUMP JUMPDEST DUP1 PUSH1 0x1F ADD PUSH1 0x20 DUP1 SWAP2 DIV MUL PUSH1 0x20 ADD PUSH1 0x40 MLOAD SWAP1 DUP2 ADD PUSH1 0x40 MSTORE DUP1 SWAP3 SWAP2 SWAP1 DUP2 DUP2 MSTORE PUSH1 0x20 ADD DUP3 DUP1 SLOAD PUSH2 0x101D SWAP1 PUSH2 0x6F8F JUMP JUMPDEST DUP1 ISZERO PUSH2 0x106A JUMPI DUP1 PUSH1 0x1F LT PUSH2 0x103F JUMPI PUSH2 0x100 DUP1 DUP4 SLOAD DIV MUL DUP4 MSTORE SWAP2 PUSH1 0x20 ADD SWAP2 PUSH2 0x106A JUMP JUMPDEST DUP3 ADD SWAP2 SWAP1 PUSH1 0x0 MSTORE PUSH1 0x20 PUSH1 0x0 KECCAK256 SWAP1 JUMPDEST DUP2 SLOAD DUP2 MSTORE SWAP1 PUSH1 0x1 ADD SWAP1 PUSH1 0x20 ADD DUP1 DUP4 GT PUSH2 0x104D JUMPI DUP3 SWAP1 SUB PUSH1 0x1F AND DUP3 ADD SWAP2 JUMPDEST POP POP POP SWAP2 DUP4 MSTORE POP POP PUSH1 0x3 DUP3 ADD SLOAD PUSH1 0x20 DUP1 DUP4 ADD SWAP2 SWAP1 SWAP2 MSTORE PUSH1 0x4 SWAP1 SWAP3 ADD SLOAD PUSH1 0xFF AND ISZERO ISZERO PUSH1 0x40 SWAP1 SWAP2 ADD MSTORE SWAP1 DUP3 MSTORE PUSH1 0x1 SWAP3 SWAP1 SWAP3 ADD SWAP2 ADD PUSH2 0xF1A JUMP JUMPDEST POP POP POP POP SWAP1 POP SWAP3 SWAP2 POP POP JUMP JUMPDEST PUSH1 0x0 DUP3 MLOAD GT PUSH2 0x10FE JUMPI PUSH1 0x40 MLOAD PUSH3 0x461BCD PUSH1 0xE5 SHL DUP2 MSTORE PUSH1 0x20 PUSH1 0x4 DUP3 ADD MSTORE PUSH1 0x1A PUSH1 0x24 DUP3 ADD MSTORE PUSH32 0x5075626C6963206B65792063616E6E6F7420626520656D707479000000000000 PUSH1 0x44 DUP3 ADD MSTORE PUSH1 0x64 ADD PUSH2 0x640 JUMP JUMPDEST PUSH1 0x0 DUP2 MLOAD GT PUSH2 0x1146 JUMPI PUSH1 0x40 MLOAD PUSH3 0x461BCD PUSH1 0xE5 SHL DUP2 MSTORE PUSH1 0x20 PUSH1 0x4 DUP3 ADD MSTORE PUSH1 0x14 PUSH1 0x24 DUP3 ADD MSTORE PUSH20 0x446174612063616E6E6F7420626520656D707479 PUSH1 0x60 SHL PUSH1 0x44 DUP3 ADD MSTORE PUSH1 0x64 ADD PUSH2 0x640 JUMP JUMPDEST CALLER PUSH1 0x0 SWAP1 DUP2 MSTORE PUSH1 0x3 PUSH1 0x20 SWAP1 DUP2 MSTORE PUSH1 0x40 DUP3 KECCAK256 DUP1 SLOAD PUSH1 0x1 DUP2 ADD DUP3 SSTORE SWAP1 DUP4 MSTORE SWAP2 KECCAK256 ADD PUSH2 0x116F DUP4 DUP3 PUSH2 0x71C1 JUMP JUMPDEST POP CALLER PUSH1 0x0 DUP2 DUP2 MSTORE PUSH1 0x2 PUSH1 0x20 SWAP1 DUP2 MSTORE PUSH1 0x40 DUP1 DUP4 KECCAK256 DUP2 MLOAD PUSH2 0x100 DUP2 ADD DUP4 MSTORE SWAP5 DUP6 MSTORE DUP5 DUP4 ADD DUP5 SWAP1 MSTORE DUP2 MLOAD SWAP3 DUP4 ADD DUP3 MSTORE DUP4 DUP4 MSTORE SWAP1 DUP5 ADD SWAP2 SWAP1 SWAP2 MSTORE PUSH1 0x60 DUP4 ADD DUP6 SWAP1 MSTORE DUP2 SLOAD SWAP1 SWAP3 SWAP2 PUSH1 0x80 DUP4 ADD SWAP2 PUSH2 0x11BF SWAP1 PUSH2 0x6F8F JUMP JUMPDEST DUP1 PUSH1 0x1F ADD PUSH1 0x20 DUP1 SWAP2 DIV MUL PUSH1 0x20 ADD PUSH1 0x40 MLOAD SWAP1 DUP2 ADD PUSH1 0x40 MSTORE DUP1 SWAP3 SWAP2 SWAP1 DUP2 DUP2 MSTORE PUSH1 0x20 ADD DUP3 DUP1 SLOAD PUSH2 0x11EB SWAP1 PUSH2 0x6F8F JUMP JUMPDEST DUP1 ISZERO PUSH2 0x1238 JUMPI DUP1 PUSH1 0x1F LT PUSH2 0x120D JUMPI PUSH2 0x100 DUP1 DUP4 SLOAD DIV MUL DUP4 MSTORE SWAP2 PUSH1 0x20 ADD SWAP2 PUSH2 0x1238 JUMP JUMPDEST DUP3 ADD SWAP2 SWAP1 PUSH1 0x0 MSTORE PUSH1 0x20 PUSH1 0x0 KECCAK256 SWAP1 JUMPDEST DUP2 SLOAD DUP2 MSTORE SWAP1 PUSH1 0x1 ADD SWAP1 PUSH1 0x20 ADD DUP1 DUP4 GT PUSH2 0x121B JUMPI DUP3 SWAP1 SUB PUSH1 0x1F AND DUP3 ADD SWAP2 JUMPDEST POP POP POP SWAP2 DUP4 MSTORE POP POP PUSH1 0x20 DUP2 ADD DUP5 SWAP1 MSTORE PUSH1 0x40 ADD PUSH1 0x0 DUP2 MSTORE TIMESTAMP PUSH1 0x20 SWAP2 DUP3 ADD MSTORE DUP3 SLOAD PUSH1 0x1 DUP1 DUP3 ADD DUP6 SSTORE PUSH1 0x0 SWAP5 DUP6 MSTORE SWAP4 DUP3 SWAP1 KECCAK256 DUP4 MLOAD PUSH1 0x8 SWAP1 SWAP3 MUL ADD DUP1 SLOAD PUSH1 0x1 PUSH1 0x1 PUSH1 0xA0 SHL SUB NOT SWAP1 DUP2 AND PUSH1 0x1 PUSH1 0x1 PUSH1 0xA0 SHL SUB SWAP4 DUP5 AND OR DUP3 SSTORE SWAP3 DUP5 ADD MLOAD SWAP5 DUP2 ADD DUP1 SLOAD SWAP1 SWAP4 AND SWAP5 SWAP1 SWAP2 AND SWAP4 SWAP1 SWAP4 OR SWAP1 SSTORE PUSH1 0x40 DUP2 ADD MLOAD SWAP1 SWAP2 SWAP1 PUSH1 0x2 DUP3 ADD SWAP1 PUSH2 0x12B8 SWAP1 DUP3 PUSH2 0x71C1 JUMP JUMPDEST POP PUSH1 0x60 DUP3 ADD MLOAD PUSH1 0x3 DUP3 ADD SWAP1 PUSH2 0x12CD SWAP1 DUP3 PUSH2 0x71C1 JUMP JUMPDEST POP PUSH1 0x80 DUP3 ADD MLOAD PUSH1 0x4 DUP3 ADD SWAP1 PUSH2 0x12E2 SWAP1 DUP3 PUSH2 0x71C1 JUMP JUMPDEST POP PUSH1 0xA0 DUP3 ADD MLOAD PUSH1 0x5 DUP3 ADD SWAP1 PUSH2 0x12F7 SWAP1 DUP3 PUSH2 0x71C1 JUMP JUMPDEST POP PUSH1 0xC0 DUP3 ADD MLOAD PUSH1 0x6 DUP3 ADD DUP1 SLOAD PUSH1 0xFF NOT AND PUSH1 0x1 DUP4 DUP2 DUP2 GT ISZERO PUSH2 0x131A JUMPI PUSH2 0x131A PUSH2 0x6872 JUMP JUMPDEST MUL OR SWAP1 SSTORE POP PUSH1 0xE0 DUP3 ADD MLOAD DUP2 PUSH1 0x7 ADD SSTORE POP POP CALLER PUSH1 0x1 PUSH1 0x1 PUSH1 0xA0 SHL SUB AND PUSH32 0xC5D820F5092964C33342D79084A41F152B1071FFC9965EB19B078805775F4AE4 DUP4 DUP4 TIMESTAMP PUSH1 0x40 MLOAD PUSH2 0x1368 SWAP4 SWAP3 SWAP2 SWAP1 PUSH2 0x7363 JUMP JUMPDEST PUSH1 0x40 MLOAD DUP1 SWAP2 SUB SWAP1 LOG2 PUSH1 0x40 MLOAD CALLER SWAP1 DUP2 SWAP1 PUSH32 0xF8978169EF1306AC0C49B6B67C280D605663D299EB03A25D6C691F3648D7B350 SWAP1 PUSH2 0x13AB SWAP1 DUP6 SWAP1 PUSH1 0x0 SWAP1 DUP2 SWAP1 TIMESTAMP SWAP1 PUSH2 0x7399 JUMP JUMPDEST PUSH1 0x40 MLOAD DUP1 SWAP2 SUB SWAP1 LOG3 POP POP JUMP JUMPDEST PUSH1 0x60 CALLER PUSH1 0x1 PUSH1 0x1 PUSH1 0xA0 SHL SUB PUSH32 0x0 AND EQ DUP1 PUSH2 0x13FF JUMPI POP CALLER PUSH1 0x0 SWAP1 DUP2 MSTORE PUSH1 0x10 PUSH1 0x20 MSTORE PUSH1 0x40 SWAP1 KECCAK256 SLOAD PUSH1 0xFF AND JUMPDEST PUSH2 0x145F JUMPI PUSH1 0x40 MLOAD PUSH3 0x461BCD PUSH1 0xE5 SHL DUP2 MSTORE PUSH1 0x20 PUSH1 0x4 DUP3 ADD MSTORE PUSH1 0x3E PUSH1 0x24 DUP3 ADD MSTORE PUSH1 0x0 DUP1 MLOAD PUSH1 0x20 PUSH2 0x746C DUP4 CODECOPY DUP2 MLOAD SWAP2 MSTORE PUSH1 0x44 DUP3 ADD MSTORE PUSH32 0x616E2072656164207072697661746520617474726962757465206B6579730000 PUSH1 0x64 DUP3 ADD MSTORE PUSH1 0x84 ADD PUSH2 0x640 JUMP JUMPDEST PUSH1 0xF DUP1 SLOAD DUP1 PUSH1 0x20 MUL PUSH1 0x20 ADD PUSH1 0x40 MLOAD SWAP1 DUP2 ADD PUSH1 0x40 MSTORE DUP1 SWAP3 SWAP2 SWAP1 DUP2 DUP2 MSTORE PUSH1 0x20 ADD PUSH1 0x0 SWAP1 JUMPDEST DUP3 DUP3 LT ISZERO PUSH2 0x152D JUMPI DUP4 DUP3 SWAP1 PUSH1 0x0 MSTORE PUSH1 0x20 PUSH1 0x0 KECCAK256 ADD DUP1 SLOAD PUSH2 0x14A0 SWAP1 PUSH2 0x6F8F JUMP JUMPDEST DUP1 PUSH1 0x1F ADD PUSH1 0x20 DUP1 SWAP2 DIV MUL PUSH1 0x20 ADD PUSH1 0x40 MLOAD SWAP1 DUP2 ADD PUSH1 0x40 MSTORE DUP1 SWAP3 SWAP2 SWAP1 DUP2 DUP2 MSTORE PUSH1 0x20 ADD DUP3 DUP1 SLOAD PUSH2 0x14CC SWAP1 PUSH2 0x6F8F JUMP JUMPDEST DUP1 ISZERO PUSH2 0x1519 JUMPI DUP1 PUSH1 0x1F LT PUSH2 0x14EE JUMPI PUSH2 0x100 DUP1 DUP4 SLOAD DIV MUL DUP4 MSTORE SWAP2 PUSH1 0x20 ADD SWAP2 PUSH2 0x1519 JUMP JUMPDEST DUP3 ADD SWAP2 SWAP1 PUSH1 0x0 MSTORE PUSH1 0x20 PUSH1 0x0 KECCAK256 SWAP1 JUMPDEST DUP2 SLOAD DUP2 MSTORE SWAP1 PUSH1 0x1 ADD SWAP1 PUSH1 0x20 ADD DUP1 DUP4 GT PUSH2 0x14FC JUMPI DUP3 SWAP1 SUB PUSH1 0x1F AND DUP3 ADD SWAP2 JUMPDEST POP POP POP POP POP DUP2 MSTORE PUSH1 0x20 ADD SWAP1 PUSH1 0x1 ADD SWAP1 PUSH2 0x1481 JUMP JUMPDEST POP POP POP POP SWAP1 POP SWAP1 JUMP JUMPDEST PUSH1 0x60 PUSH1 0x1 PUSH1 0x1 PUSH1 0xA0 SHL SUB DUP3 AND PUSH2 0x1599 JUMPI PUSH1 0x40 MLOAD PUSH3 0x461BCD PUSH1 0xE5 SHL DUP2 MSTORE PUSH1 0x20 PUSH1 0x4 DUP3 ADD MSTORE PUSH1 0x22 PUSH1 0x24 DUP3 ADD MSTORE PUSH32 0x4F746865722070617274792063616E6E6F74206265207A65726F206164647265 PUSH1 0x44 DUP3 ADD MSTORE PUSH2 0x7373 PUSH1 0xF0 SHL PUSH1 0x64 DUP3 ADD MSTORE PUSH1 0x84 ADD PUSH2 0x640 JUMP JUMPDEST CALLER PUSH1 0x1 PUSH1 0x1 PUSH1 0xA0 SHL SUB DUP4 AND SUB PUSH2 0x15FF JUMPI PUSH1 0x40 MLOAD PUSH3 0x461BCD PUSH1 0xE5 SHL DUP2 MSTORE PUSH1 0x20 PUSH1 0x4 DUP3 ADD MSTORE PUSH1 0x25 PUSH1 0x24 DUP3 ADD MSTORE PUSH32 0x43616E6E6F742067657420636F6E766572736174696F6E207769746820796F75 PUSH1 0x44 DUP3 ADD MSTORE PUSH5 0x3939B2B633 PUSH1 0xD9 SHL PUSH1 0x64 DUP3 ADD MSTORE PUSH1 0x84 ADD PUSH2 0x640 JUMP JUMPDEST PUSH1 0x0 PUSH2 0x160B CALLER DUP5 PUSH2 0x44CB JUMP JUMPDEST SWAP1 POP PUSH1 0x1 PUSH1 0x0 DUP3 DUP2 MSTORE PUSH1 0x20 ADD SWAP1 DUP2 MSTORE PUSH1 0x20 ADD PUSH1 0x0 KECCAK256 DUP1 SLOAD DUP1 PUSH1 0x20 MUL PUSH1 0x20 ADD PUSH1 0x40 MLOAD SWAP1 DUP2 ADD PUSH1 0x40 MSTORE DUP1 SWAP3 SWAP2 SWAP1 DUP2 DUP2 MSTORE PUSH1 0x20 ADD PUSH1 0x0 SWAP1 JUMPDEST DUP3 DUP3 LT ISZERO PUSH2 0x191B JUMPI PUSH1 0x0 DUP5 DUP2 MSTORE PUSH1 0x20 SWAP1 DUP2 SWAP1 KECCAK256 PUSH1 0x40 DUP1 MLOAD PUSH2 0x100 DUP2 ADD DUP3 MSTORE PUSH1 0x8 DUP7 MUL SWAP1 SWAP3 ADD DUP1 SLOAD PUSH1 0x1 PUSH1 0x1 PUSH1 0xA0 SHL SUB SWAP1 DUP2 AND DUP5 MSTORE PUSH1 0x1 DUP3 ADD SLOAD AND SWAP4 DUP4 ADD SWAP4 SWAP1 SWAP4 MSTORE PUSH1 0x2 DUP4 ADD DUP1 SLOAD SWAP3 SWAP4 SWAP3 SWAP2 DUP5 ADD SWAP2 PUSH2 0x1697 SWAP1 PUSH2 0x6F8F JUMP JUMPDEST DUP1 PUSH1 0x1F ADD PUSH1 0x20 DUP1 SWAP2 DIV MUL PUSH1 0x20 ADD PUSH1 0x40 MLOAD SWAP1 DUP2 ADD PUSH1 0x40 MSTORE DUP1 SWAP3 SWAP2 SWAP1 DUP2 DUP2 MSTORE PUSH1 0x20 ADD DUP3 DUP1 SLOAD PUSH2 0x16C3 SWAP1 PUSH2 0x6F8F JUMP JUMPDEST DUP1 ISZERO PUSH2 0x1710 JUMPI DUP1 PUSH1 0x1F LT PUSH2 0x16E5 JUMPI PUSH2 0x100 DUP1 DUP4 SLOAD DIV MUL DUP4 MSTORE SWAP2 PUSH1 0x20 ADD SWAP2 PUSH2 0x1710 JUMP JUMPDEST DUP3 ADD SWAP2 SWAP1 PUSH1 0x0 MSTORE PUSH1 0x20 PUSH1 0x0 KECCAK256 SWAP1 JUMPDEST DUP2 SLOAD DUP2 MSTORE SWAP1 PUSH1 0x1 ADD SWAP1 PUSH1 0x20 ADD DUP1 DUP4 GT PUSH2 0x16F3 JUMPI DUP3 SWAP1 SUB PUSH1 0x1F AND DUP3 ADD SWAP2 JUMPDEST POP POP POP POP POP DUP2 MSTORE PUSH1 0x20 ADD PUSH1 0x3 DUP3 ADD DUP1 SLOAD PUSH2 0x1729 SWAP1 PUSH2 0x6F8F JUMP JUMPDEST DUP1 PUSH1 0x1F ADD PUSH1 0x20 DUP1 SWAP2 DIV MUL PUSH1 0x20 ADD PUSH1 0x40 MLOAD SWAP1 DUP2 ADD PUSH1 0x40 MSTORE DUP1 SWAP3 SWAP2 SWAP1 DUP2 DUP2 MSTORE PUSH1 0x20 ADD DUP3 DUP1 SLOAD PUSH2 0x1755 SWAP1 PUSH2 0x6F8F JUMP JUMPDEST DUP1 ISZERO PUSH2 0x17A2 JUMPI DUP1 PUSH1 0x1F LT PUSH2 0x1777 JUMPI PUSH2 0x100 DUP1 DUP4 SLOAD DIV MUL DUP4 MSTORE SWAP2 PUSH1 0x20 ADD SWAP2 PUSH2 0x17A2 JUMP JUMPDEST DUP3 ADD SWAP2 SWAP1 PUSH1 0x0 MSTORE PUSH1 0x20 PUSH1 0x0 KECCAK256 SWAP1 JUMPDEST DUP2 SLOAD DUP2 MSTORE SWAP1 PUSH1 0x1 ADD SWAP1 PUSH1 0x20 ADD DUP1 DUP4 GT PUSH2 0x1785 JUMPI DUP3 SWAP1 SUB PUSH1 0x1F AND DUP3 ADD SWAP2 JUMPDEST POP POP POP POP POP DUP2 MSTORE PUSH1 0x20 ADD PUSH1 0x4 DUP3 ADD DUP1 SLOAD PUSH2 0x17BB SWAP1 PUSH2 0x6F8F JUMP JUMPDEST DUP1 PUSH1 0x1F ADD PUSH1 0x20 DUP1 SWAP2 DIV MUL PUSH1 0x20 ADD PUSH1 0x40 MLOAD SWAP1 DUP2 ADD PUSH1 0x40 MSTORE DUP1 SWAP3 SWAP2 SWAP1 DUP2 DUP2 MSTORE PUSH1 0x20 ADD DUP3 DUP1 SLOAD PUSH2 0x17E7 SWAP1 PUSH2 0x6F8F JUMP JUMPDEST DUP1 ISZERO PUSH2 0x1834 JUMPI DUP1 PUSH1 0x1F LT PUSH2 0x1809 JUMPI PUSH2 0x100 DUP1 DUP4 SLOAD DIV MUL DUP4 MSTORE SWAP2 PUSH1 0x20 ADD SWAP2 PUSH2 0x1834 JUMP JUMPDEST DUP3 ADD SWAP2 SWAP1 PUSH1 0x0 MSTORE PUSH1 0x20 PUSH1 0x0 KECCAK256 SWAP1 JUMPDEST DUP2 SLOAD DUP2 MSTORE SWAP1 PUSH1 0x1 ADD SWAP1 PUSH1 0x20 ADD DUP1 DUP4 GT PUSH2 0x1817 JUMPI DUP3 SWAP1 SUB PUSH1 0x1F AND DUP3 ADD SWAP2 JUMPDEST POP POP POP POP POP DUP2 MSTORE PUSH1 0x20 ADD PUSH1 0x5 DUP3 ADD DUP1 SLOAD PUSH2 0x184D SWAP1 PUSH2 0x6F8F JUMP JUMPDEST DUP1 PUSH1 0x1F ADD PUSH1 0x20 DUP1 SWAP2 DIV MUL PUSH1 0x20 ADD PUSH1 0x40 MLOAD SWAP1 DUP2 ADD PUSH1 0x40 MSTORE DUP1 SWAP3 SWAP2 SWAP1 DUP2 DUP2 MSTORE PUSH1 0x20 ADD DUP3 DUP1 SLOAD PUSH2 0x1879 SWAP1 PUSH2 0x6F8F JUMP JUMPDEST DUP1 ISZERO PUSH2 0x18C6 JUMPI DUP1 PUSH1 0x1F LT PUSH2 0x189B JUMPI PUSH2 0x100 DUP1 DUP4 SLOAD DIV MUL DUP4 MSTORE SWAP2 PUSH1 0x20 ADD SWAP2 PUSH2 0x18C6 JUMP JUMPDEST DUP3 ADD SWAP2 SWAP1 PUSH1 0x0 MSTORE PUSH1 0x20 PUSH1 0x0 KECCAK256 SWAP1 JUMPDEST DUP2 SLOAD DUP2 MSTORE SWAP1 PUSH1 0x1 ADD SWAP1 PUSH1 0x20 ADD DUP1 DUP4 GT PUSH2 0x18A9 JUMPI DUP3 SWAP1 SUB PUSH1 0x1F AND DUP3 ADD SWAP2 JUMPDEST POP POP POP SWAP2 DUP4 MSTORE POP POP PUSH1 0x6 DUP3 ADD SLOAD PUSH1 0x20 SWAP1 SWAP2 ADD SWAP1 PUSH1 0xFF AND PUSH1 0x1 DUP2 GT ISZERO PUSH2 0x18ED JUMPI PUSH2 0x18ED PUSH2 0x6872 JUMP JUMPDEST PUSH1 0x1 DUP2 GT ISZERO PUSH2 0x18FE JUMPI PUSH2 0x18FE PUSH2 0x6872 JUMP JUMPDEST DUP2 MSTORE PUSH1 0x20 ADD PUSH1 0x7 DUP3 ADD SLOAD DUP2 MSTORE POP POP DUP2 MSTORE PUSH1 0x20 ADD SWAP1 PUSH1 0x1 ADD SWAP1 PUSH2 0x1640 JUMP JUMPDEST POP POP POP POP SWAP2 POP POP SWAP2 SWAP1 POP JUMP JUMPDEST PUSH1 0x1 PUSH1 0x1 PUSH1 0xA0 SHL SUB DUP3 AND PUSH2 0x1976 JUMPI PUSH1 0x40 MLOAD PUSH3 0x461BCD PUSH1 0xE5 SHL DUP2 MSTORE PUSH1 0x20 PUSH1 0x4 DUP3 ADD MSTORE PUSH1 0x16 PUSH1 0x24 DUP3 ADD MSTORE PUSH22 0x416464726573732063616E6E6F74206265207A65726F PUSH1 0x50 SHL PUSH1 0x44 DUP3 ADD MSTORE PUSH1 0x64 ADD PUSH2 0x640 JUMP JUMPDEST CALLER PUSH1 0x0 SWAP1 DUP2 MSTORE PUSH1 0x8 PUSH1 0x20 SWAP1 DUP2 MSTORE PUSH1 0x40 DUP1 DUP4 KECCAK256 PUSH1 0x1 PUSH1 0x1 PUSH1 0xA0 SHL SUB DUP7 AND DUP5 MSTORE SWAP1 SWAP2 MSTORE SWAP1 KECCAK256 PUSH2 0x19A3 DUP3 DUP3 PUSH2 0x71C1 JUMP JUMPDEST POP DUP2 PUSH1 0x1 PUSH1 0x1 PUSH1 0xA0 SHL SUB AND CALLER PUSH1 0x1 PUSH1 0x1 PUSH1 0xA0 SHL SUB AND PUSH32 0xCFA1F5B97CEEB27C65685672597FFC9636DCC9DBE3E0D10807477076A87AFDBA DUP4 PUSH1 0x40 MLOAD PUSH2 0x13AB SWAP2 SWAP1 PUSH2 0x6C87 JUMP JUMPDEST PUSH1 0x40 DUP1 MLOAD PUSH1 0x80 DUP2 ADD DUP3 MSTORE PUSH1 0x0 DUP1 DUP3 MSTORE PUSH1 0x60 PUSH1 0x20 DUP4 ADD DUP2 SWAP1 MSTORE SWAP3 DUP3 ADD MSTORE DUP2 DUP2 ADD SWAP2 SWAP1 SWAP2 MSTORE PUSH1 0x1 PUSH1 0x1 PUSH1 0xA0 SHL SUB DUP5 AND PUSH1 0x0 SWAP1 DUP2 MSTORE PUSH1 0x5 PUSH1 0x20 MSTORE PUSH1 0x40 DUP1 DUP3 KECCAK256 SWAP1 MLOAD PUSH2 0x1A30 SWAP1 DUP7 SWAP1 PUSH2 0x6F34 JUMP JUMPDEST SWAP1 DUP2 MSTORE PUSH1 0x20 ADD PUSH1 0x40 MLOAD DUP1 SWAP2 SUB SWAP1 KECCAK256 DUP1 SLOAD DUP1 PUSH1 0x20 MUL PUSH1 0x20 ADD PUSH1 0x40 MLOAD SWAP1 DUP2 ADD PUSH1 0x40 MSTORE DUP1 SWAP3 SWAP2 SWAP1 DUP2 DUP2 MSTORE PUSH1 0x20 ADD PUSH1 0x0 SWAP1 JUMPDEST DUP3 DUP3 LT ISZERO PUSH2 0x1BDB JUMPI PUSH1 0x0 DUP5 DUP2 MSTORE PUSH1 0x20 SWAP1 DUP2 SWAP1 KECCAK256 PUSH1 0x40 DUP1 MLOAD PUSH1 0x80 DUP2 ADD SWAP1 SWAP2 MSTORE PUSH1 0x4 DUP6 MUL SWAP1 SWAP2 ADD DUP1 SLOAD PUSH1 0x1 PUSH1 0x1 PUSH1 0xA0 SHL SUB AND DUP3 MSTORE PUSH1 0x1 DUP2 ADD DUP1 SLOAD SWAP3 SWAP4 SWAP2 SWAP3 SWAP2 DUP5 ADD SWAP2 PUSH2 0x1AA7 SWAP1 PUSH2 0x6F8F JUMP JUMPDEST DUP1 PUSH1 0x1F ADD PUSH1 0x20 DUP1 SWAP2 DIV MUL PUSH1 0x20 ADD PUSH1 0x40 MLOAD SWAP1 DUP2 ADD PUSH1 0x40 MSTORE DUP1 SWAP3 SWAP2 SWAP1 DUP2 DUP2 MSTORE PUSH1 0x20 ADD DUP3 DUP1 SLOAD PUSH2 0x1AD3 SWAP1 PUSH2 0x6F8F JUMP JUMPDEST DUP1 ISZERO PUSH2 0x1B20 JUMPI DUP1 PUSH1 0x1F LT PUSH2 0x1AF5 JUMPI PUSH2 0x100 DUP1 DUP4 SLOAD DIV MUL DUP4 MSTORE SWAP2 PUSH1 0x20 ADD SWAP2 PUSH2 0x1B20 JUMP JUMPDEST DUP3 ADD SWAP2 SWAP1 PUSH1 0x0 MSTORE PUSH1 0x20 PUSH1 0x0 KECCAK256 SWAP1 JUMPDEST DUP2 SLOAD DUP2 MSTORE SWAP1 PUSH1 0x1 ADD SWAP1 PUSH1 0x20 ADD DUP1 DUP4 GT PUSH2 0x1B03 JUMPI DUP3 SWAP1 SUB PUSH1 0x1F AND DUP3 ADD SWAP2 JUMPDEST POP POP POP SWAP2 DUP4 MSTORE POP POP PUSH1 0x2 DUP3 ADD SLOAD PUSH1 0xFF AND PUSH1 0x20 DUP3 ADD MSTORE PUSH1 0x3 DUP3 ADD DUP1 SLOAD PUSH1 0x40 SWAP1 SWAP3 ADD SWAP2 PUSH2 0x1B4A SWAP1 PUSH2 0x6F8F JUMP JUMPDEST DUP1 PUSH1 0x1F ADD PUSH1 0x20 DUP1 SWAP2 DIV MUL PUSH1 0x20 ADD PUSH1 0x40 MLOAD SWAP1 DUP2 ADD PUSH1 0x40 MSTORE DUP1 SWAP3 SWAP2 SWAP1 DUP2 DUP2 MSTORE PUSH1 0x20 ADD DUP3 DUP1 SLOAD PUSH2 0x1B76 SWAP1 PUSH2 0x6F8F JUMP JUMPDEST DUP1 ISZERO PUSH2 0x1BC3 JUMPI DUP1 PUSH1 0x1F LT PUSH2 0x1B98 JUMPI PUSH2 0x100 DUP1 DUP4 SLOAD DIV MUL DUP4 MSTORE SWAP2 PUSH1 0x20 ADD SWAP2 PUSH2 0x1BC3 JUMP JUMPDEST DUP3 ADD SWAP2 SWAP1 PUSH1 0x0 MSTORE PUSH1 0x20 PUSH1 0x0 KECCAK256 SWAP1 JUMPDEST DUP2 SLOAD DUP2 MSTORE SWAP1 PUSH1 0x1 ADD SWAP1 PUSH1 0x20 ADD DUP1 DUP4 GT PUSH2 0x1BA6 JUMPI DUP3 SWAP1 SUB PUSH1 0x1F AND DUP3 ADD SWAP2 JUMPDEST POP POP POP POP POP DUP2 MSTORE POP POP DUP2 MSTORE PUSH1 0x20 ADD SWAP1 PUSH1 0x1 ADD SWAP1 PUSH2 0x1A5E JUMP JUMPDEST POP POP POP POP SWAP1 POP PUSH1 0x0 JUMPDEST DUP2 MLOAD DUP2 LT ISZERO PUSH2 0x1C4E JUMPI DUP4 PUSH1 0x1 PUSH1 0x1 PUSH1 0xA0 SHL SUB AND DUP3 DUP3 DUP2 MLOAD DUP2 LT PUSH2 0x1C09 JUMPI PUSH2 0x1C09 PUSH2 0x6F50 JUMP JUMPDEST PUSH1 0x20 MUL PUSH1 0x20 ADD ADD MLOAD PUSH1 0x0 ADD MLOAD PUSH1 0x1 PUSH1 0x1 PUSH1 0xA0 SHL SUB AND SUB PUSH2 0x1C46 JUMPI DUP2 DUP2 DUP2 MLOAD DUP2 LT PUSH2 0x1C35 JUMPI PUSH2 0x1C35 PUSH2 0x6F50 JUMP JUMPDEST PUSH1 0x20 MUL PUSH1 0x20 ADD ADD MLOAD SWAP3 POP POP POP PUSH2 0x1C97 JUMP JUMPDEST PUSH1 0x1 ADD PUSH2 0x1BE4 JUMP JUMPDEST POP PUSH1 0x40 MLOAD PUSH3 0x461BCD PUSH1 0xE5 SHL DUP2 MSTORE PUSH1 0x20 PUSH1 0x4 DUP3 ADD MSTORE PUSH1 0x18 PUSH1 0x24 DUP3 ADD MSTORE PUSH32 0x41646472657373206E6F7420696E2077686974656C6973740000000000000000 PUSH1 0x44 DUP3 ADD MSTORE PUSH1 0x64 ADD PUSH2 0x640 JUMP JUMPDEST SWAP4 SWAP3 POP POP POP JUMP JUMPDEST PUSH1 0x1 PUSH1 0x1 PUSH1 0xA0 SHL SUB DUP2 AND PUSH1 0x0 SWAP1 DUP2 MSTORE PUSH1 0x6 PUSH1 0x20 SWAP1 DUP2 MSTORE PUSH1 0x40 DUP1 DUP4 KECCAK256 DUP1 SLOAD DUP3 MLOAD DUP2 DUP6 MUL DUP2 ADD DUP6 ADD SWAP1 SWAP4 MSTORE DUP1 DUP4 MSTORE PUSH1 0x60 SWAP5 SWAP3 SWAP4 SWAP2 SWAP3 SWAP1 SWAP2 DUP5 ADD JUMPDEST DUP3 DUP3 LT ISZERO PUSH2 0x1D82 JUMPI DUP4 DUP3 SWAP1 PUSH1 0x0 MSTORE PUSH1 0x20 PUSH1 0x0 KECCAK256 ADD DUP1 SLOAD PUSH2 0x1CF5 SWAP1 PUSH2 0x6F8F JUMP JUMPDEST DUP1 PUSH1 0x1F ADD PUSH1 0x20 DUP1 SWAP2 DIV MUL PUSH1 0x20 ADD PUSH1 0x40 MLOAD SWAP1 DUP2 ADD PUSH1 0x40 MSTORE DUP1 SWAP3 SWAP2 SWAP1 DUP2 DUP2 MSTORE PUSH1 0x20 ADD DUP3 DUP1 SLOAD PUSH2 0x1D21 SWAP1 PUSH2 0x6F8F JUMP JUMPDEST DUP1 ISZERO PUSH2 0x1D6E JUMPI DUP1 PUSH1 0x1F LT PUSH2 0x1D43 JUMPI PUSH2 0x100 DUP1 DUP4 SLOAD DIV MUL DUP4 MSTORE SWAP2 PUSH1 0x20 ADD SWAP2 PUSH2 0x1D6E JUMP JUMPDEST DUP3 ADD SWAP2 SWAP1 PUSH1 0x0 MSTORE PUSH1 0x20 PUSH1 0x0 KECCAK256 SWAP1 JUMPDEST DUP2 SLOAD DUP2 MSTORE SWAP1 PUSH1 0x1 ADD SWAP1 PUSH1 0x20 ADD DUP1 DUP4 GT PUSH2 0x1D51 JUMPI DUP3 SWAP1 SUB PUSH1 0x1F AND DUP3 ADD SWAP2 JUMPDEST POP POP POP POP POP DUP2 MSTORE PUSH1 0x20 ADD SWAP1 PUSH1 0x1 ADD SWAP1 PUSH2 0x1CD6 JUMP JUMPDEST POP POP POP POP SWAP1 POP SWAP2 SWAP1 POP JUMP JUMPDEST CALLER PUSH1 0x1 PUSH1 0x1 PUSH1 0xA0 SHL SUB PUSH32 0x0 AND EQ DUP1 PUSH2 0x1DD3 JUMPI POP CALLER PUSH1 0x0 SWAP1 DUP2 MSTORE PUSH1 0x10 PUSH1 0x20 MSTORE PUSH1 0x40 SWAP1 KECCAK256 SLOAD PUSH1 0xFF AND JUMPDEST PUSH2 0x1E33 JUMPI PUSH1 0x40 MLOAD PUSH3 0x461BCD PUSH1 0xE5 SHL DUP2 MSTORE PUSH1 0x20 PUSH1 0x4 DUP3 ADD MSTORE PUSH1 0x3C PUSH1 0x24 DUP3 ADD MSTORE PUSH1 0x0 DUP1 MLOAD PUSH1 0x20 PUSH2 0x746C DUP4 CODECOPY DUP2 MLOAD SWAP2 MSTORE PUSH1 0x44 DUP3 ADD MSTORE PUSH32 0x616E2064656C6574652070726976617465206174747269627574657300000000 PUSH1 0x64 DUP3 ADD MSTORE PUSH1 0x84 ADD PUSH2 0x640 JUMP JUMPDEST PUSH1 0xD DUP2 PUSH1 0x40 MLOAD PUSH2 0x1E43 SWAP2 SWAP1 PUSH2 0x6F34 JUMP JUMPDEST SWAP1 DUP2 MSTORE PUSH1 0x20 ADD PUSH1 0x40 MLOAD DUP1 SWAP2 SUB SWAP1 KECCAK256 PUSH1 0x0 PUSH2 0x1E5D SWAP2 SWAP1 PUSH2 0x61B9 JUMP JUMPDEST PUSH1 0x0 JUMPDEST PUSH1 0xF SLOAD DUP2 LT ISZERO PUSH2 0x1F38 JUMPI DUP2 DUP1 MLOAD SWAP1 PUSH1 0x20 ADD KECCAK256 PUSH1 0xF DUP3 DUP2 SLOAD DUP2 LT PUSH2 0x1E85 JUMPI PUSH2 0x1E85 PUSH2 0x6F50 JUMP JUMPDEST SWAP1 PUSH1 0x0 MSTORE PUSH1 0x20 PUSH1 0x0 KECCAK256 ADD PUSH1 0x40 MLOAD PUSH2 0x1E9C SWAP2 SWAP1 PUSH2 0x710A JUMP JUMPDEST PUSH1 0x40 MLOAD DUP1 SWAP2 SUB SWAP1 KECCAK256 SUB PUSH2 0x1F30 JUMPI PUSH1 0xF DUP1 SLOAD PUSH2 0x1EB9 SWAP1 PUSH1 0x1 SWAP1 PUSH2 0x6F7C JUMP JUMPDEST DUP2 SLOAD DUP2 LT PUSH2 0x1EC9 JUMPI PUSH2 0x1EC9 PUSH2 0x6F50 JUMP JUMPDEST SWAP1 PUSH1 0x0 MSTORE PUSH1 0x20 PUSH1 0x0 KECCAK256 ADD PUSH1 0xF DUP3 DUP2 SLOAD DUP2 LT PUSH2 0x1EE6 JUMPI PUSH2 0x1EE6 PUSH2 0x6F50 JUMP JUMPDEST SWAP1 PUSH1 0x0 MSTORE PUSH1 0x20 PUSH1 0x0 KECCAK256 ADD SWAP1 DUP2 PUSH2 0x1EFC SWAP2 SWAP1 PUSH2 0x7015 JUMP JUMPDEST POP PUSH1 0xF DUP1 SLOAD DUP1 PUSH2 0x1F0E JUMPI PUSH2 0x1F0E PUSH2 0x70F4 JUMP JUMPDEST PUSH1 0x1 SWAP1 SUB DUP2 DUP2 SWAP1 PUSH1 0x0 MSTORE PUSH1 0x20 PUSH1 0x0 KECCAK256 ADD PUSH1 0x0 PUSH2 0x1F2A SWAP2 SWAP1 PUSH2 0x61B9 JUMP JUMPDEST SWAP1 SSTORE POP POP JUMP JUMPDEST PUSH1 0x1 ADD PUSH2 0x1E60 JUMP JUMPDEST POP POP JUMP JUMPDEST PUSH1 0x1 PUSH1 0x1 PUSH1 0xA0 SHL SUB DUP2 AND PUSH1 0x0 SWAP1 DUP2 MSTORE PUSH1 0x2 PUSH1 0x20 SWAP1 DUP2 MSTORE PUSH1 0x40 DUP1 DUP4 KECCAK256 DUP1 SLOAD DUP3 MLOAD DUP2 DUP6 MUL DUP2 ADD DUP6 ADD SWAP1 SWAP4 MSTORE DUP1 DUP4 MSTORE PUSH1 0x60 SWAP5 SWAP4 DUP5 SWAP1 DUP5 ADD JUMPDEST DUP3 DUP3 LT ISZERO PUSH2 0x224C JUMPI PUSH1 0x0 DUP5 DUP2 MSTORE PUSH1 0x20 SWAP1 DUP2 SWAP1 KECCAK256 PUSH1 0x40 DUP1 MLOAD PUSH2 0x100 DUP2 ADD DUP3 MSTORE PUSH1 0x8 DUP7 MUL SWAP1 SWAP3 ADD DUP1 SLOAD PUSH1 0x1 PUSH1 0x1 PUSH1 0xA0 SHL SUB SWAP1 DUP2 AND DUP5 MSTORE PUSH1 0x1 DUP3 ADD SLOAD AND SWAP4 DUP4 ADD SWAP4 SWAP1 SWAP4 MSTORE PUSH1 0x2 DUP4 ADD DUP1 SLOAD SWAP3 SWAP4 SWAP3 SWAP2 DUP5 ADD SWAP2 PUSH2 0x1FC8 SWAP1 PUSH2 0x6F8F JUMP JUMPDEST DUP1 PUSH1 0x1F ADD PUSH1 0x20 DUP1 SWAP2 DIV MUL PUSH1 0x20 ADD PUSH1 0x40 MLOAD SWAP1 DUP2 ADD PUSH1 0x40 MSTORE DUP1 SWAP3 SWAP2 SWAP1 DUP2 DUP2 MSTORE PUSH1 0x20 ADD DUP3 DUP1 SLOAD PUSH2 0x1FF4 SWAP1 PUSH2 0x6F8F JUMP JUMPDEST DUP1 ISZERO PUSH2 0x2041 JUMPI DUP1 PUSH1 0x1F LT PUSH2 0x2016 JUMPI PUSH2 0x100 DUP1 DUP4 SLOAD DIV MUL DUP4 MSTORE SWAP2 PUSH1 0x20 ADD SWAP2 PUSH2 0x2041 JUMP JUMPDEST DUP3 ADD SWAP2 SWAP1 PUSH1 0x0 MSTORE PUSH1 0x20 PUSH1 0x0 KECCAK256 SWAP1 JUMPDEST DUP2 SLOAD DUP2 MSTORE SWAP1 PUSH1 0x1 ADD SWAP1 PUSH1 0x20 ADD DUP1 DUP4 GT PUSH2 0x2024 JUMPI DUP3 SWAP1 SUB PUSH1 0x1F AND DUP3 ADD SWAP2 JUMPDEST POP POP POP POP POP DUP2 MSTORE PUSH1 0x20 ADD PUSH1 0x3 DUP3 ADD DUP1 SLOAD PUSH2 0x205A SWAP1 PUSH2 0x6F8F JUMP JUMPDEST DUP1 PUSH1 0x1F ADD PUSH1 0x20 DUP1 SWAP2 DIV MUL PUSH1 0x20 ADD PUSH1 0x40 MLOAD SWAP1 DUP2 ADD PUSH1 0x40 MSTORE DUP1 SWAP3 SWAP2 SWAP1 DUP2 DUP2 MSTORE PUSH1 0x20 ADD DUP3 DUP1 SLOAD PUSH2 0x2086 SWAP1 PUSH2 0x6F8F JUMP JUMPDEST DUP1 ISZERO PUSH2 0x20D3 JUMPI DUP1 PUSH1 0x1F LT PUSH2 0x20A8 JUMPI PUSH2 0x100 DUP1 DUP4 SLOAD DIV MUL DUP4 MSTORE SWAP2 PUSH1 0x20 ADD SWAP2 PUSH2 0x20D3 JUMP JUMPDEST DUP3 ADD SWAP2 SWAP1 PUSH1 0x0 MSTORE PUSH1 0x20 PUSH1 0x0 KECCAK256 SWAP1 JUMPDEST DUP2 SLOAD DUP2 MSTORE SWAP1 PUSH1 0x1 ADD SWAP1 PUSH1 0x20 ADD DUP1 DUP4 GT PUSH2 0x20B6 JUMPI DUP3 SWAP1 SUB PUSH1 0x1F AND DUP3 ADD SWAP2 JUMPDEST POP POP POP POP POP DUP2 MSTORE PUSH1 0x20 ADD PUSH1 0x4 DUP3 ADD DUP1 SLOAD PUSH2 0x20EC SWAP1 PUSH2 0x6F8F JUMP JUMPDEST DUP1 PUSH1 0x1F ADD PUSH1 0x20 DUP1 SWAP2 DIV MUL PUSH1 0x20 ADD PUSH1 0x40 MLOAD SWAP1 DUP2 ADD PUSH1 0x40 MSTORE DUP1 SWAP3 SWAP2 SWAP1 DUP2 DUP2 MSTORE PUSH1 0x20 ADD DUP3 DUP1 SLOAD PUSH2 0x2118 SWAP1 PUSH2 0x6F8F JUMP JUMPDEST DUP1 ISZERO PUSH2 0x2165 JUMPI DUP1 PUSH1 0x1F LT PUSH2 0x213A JUMPI PUSH2 0x100 DUP1 DUP4 SLOAD DIV MUL DUP4 MSTORE SWAP2 PUSH1 0x20 ADD SWAP2 PUSH2 0x2165 JUMP JUMPDEST DUP3 ADD SWAP2 SWAP1 PUSH1 0x0 MSTORE PUSH1 0x20 PUSH1 0x0 KECCAK256 SWAP1 JUMPDEST DUP2 SLOAD DUP2 MSTORE SWAP1 PUSH1 0x1 ADD SWAP1 PUSH1 0x20 ADD DUP1 DUP4 GT PUSH2 0x2148 JUMPI DUP3 SWAP1 SUB PUSH1 0x1F AND DUP3 ADD SWAP2 JUMPDEST POP POP POP POP POP DUP2 MSTORE PUSH1 0x20 ADD PUSH1 0x5 DUP3 ADD DUP1 SLOAD PUSH2 0x217E SWAP1 PUSH2 0x6F8F JUMP JUMPDEST DUP1 PUSH1 0x1F ADD PUSH1 0x20 DUP1 SWAP2 DIV MUL PUSH1 0x20 ADD PUSH1 0x40 MLOAD SWAP1 DUP2 ADD PUSH1 0x40 MSTORE DUP1 SWAP3 SWAP2 SWAP1 DUP2 DUP2 MSTORE PUSH1 0x20 ADD DUP3 DUP1 SLOAD PUSH2 0x21AA SWAP1 PUSH2 0x6F8F JUMP JUMPDEST DUP1 ISZERO PUSH2 0x21F7 JUMPI DUP1 PUSH1 0x1F LT PUSH2 0x21CC JUMPI PUSH2 0x100 DUP1 DUP4 SLOAD DIV MUL DUP4 MSTORE SWAP2 PUSH1 0x20 ADD SWAP2 PUSH2 0x21F7 JUMP JUMPDEST DUP3 ADD SWAP2 SWAP1 PUSH1 0x0 MSTORE PUSH1 0x20 PUSH1 0x0 KECCAK256 SWAP1 JUMPDEST DUP2 SLOAD DUP2 MSTORE SWAP1 PUSH1 0x1 ADD SWAP1 PUSH1 0x20 ADD DUP1 DUP4 GT PUSH2 0x21DA JUMPI DUP3 SWAP1 SUB PUSH1 0x1F AND DUP3 ADD SWAP2 JUMPDEST POP POP POP SWAP2 DUP4 MSTORE POP POP PUSH1 0x6 DUP3 ADD SLOAD PUSH1 0x20 SWAP1 SWAP2 ADD SWAP1 PUSH1 0xFF AND PUSH1 0x1 DUP2 GT ISZERO PUSH2 0x221E JUMPI PUSH2 0x221E PUSH2 0x6872 JUMP JUMPDEST PUSH1 0x1 DUP2 GT ISZERO PUSH2 0x222F JUMPI PUSH2 0x222F PUSH2 0x6872 JUMP JUMPDEST DUP2 MSTORE PUSH1 0x20 ADD PUSH1 0x7 DUP3 ADD SLOAD DUP2 MSTORE POP POP DUP2 MSTORE PUSH1 0x20 ADD SWAP1 PUSH1 0x1 ADD SWAP1 PUSH2 0x1F71 JUMP JUMPDEST POP POP POP POP SWAP1 POP DUP3 PUSH1 0x1 PUSH1 0x1 PUSH1 0xA0 SHL SUB AND CALLER PUSH1 0x1 PUSH1 0x1 PUSH1 0xA0 SHL SUB AND SUB PUSH2 0x2271 JUMPI SWAP3 SWAP2 POP POP JUMP JUMPDEST PUSH1 0x0 DUP1 JUMPDEST DUP3 MLOAD DUP2 LT ISZERO PUSH2 0x22CA JUMPI PUSH1 0x0 DUP4 DUP3 DUP2 MLOAD DUP2 LT PUSH2 0x2292 JUMPI PUSH2 0x2292 PUSH2 0x6F50 JUMP JUMPDEST PUSH1 0x20 MUL PUSH1 0x20 ADD ADD MLOAD PUSH1 0xC0 ADD MLOAD PUSH1 0x1 DUP2 GT ISZERO PUSH2 0x22AF JUMPI PUSH2 0x22AF PUSH2 0x6872 JUMP JUMPDEST SUB PUSH2 0x22C2 JUMPI DUP2 PUSH2 0x22BE DUP2 PUSH2 0x73BE JUMP JUMPDEST SWAP3 POP POP JUMPDEST PUSH1 0x1 ADD PUSH2 0x2275 JUMP JUMPDEST POP PUSH1 0x0 DUP2 PUSH1 0x1 PUSH1 0x1 PUSH1 0x40 SHL SUB DUP2 GT ISZERO PUSH2 0x22E5 JUMPI PUSH2 0x22E5 PUSH2 0x6412 JUMP JUMPDEST PUSH1 0x40 MLOAD SWAP1 DUP1 DUP3 MSTORE DUP1 PUSH1 0x20 MUL PUSH1 0x20 ADD DUP3 ADD PUSH1 0x40 MSTORE DUP1 ISZERO PUSH2 0x231E JUMPI DUP2 PUSH1 0x20 ADD JUMPDEST PUSH2 0x230B PUSH2 0x61F6 JUMP JUMPDEST DUP2 MSTORE PUSH1 0x20 ADD SWAP1 PUSH1 0x1 SWAP1 SUB SWAP1 DUP2 PUSH2 0x2303 JUMPI SWAP1 POP JUMPDEST POP SWAP1 POP PUSH1 0x0 DUP1 JUMPDEST DUP5 MLOAD DUP2 LT ISZERO PUSH2 0x23B2 JUMPI PUSH1 0x0 DUP6 DUP3 DUP2 MLOAD DUP2 LT PUSH2 0x2342 JUMPI PUSH2 0x2342 PUSH2 0x6F50 JUMP JUMPDEST PUSH1 0x20 MUL PUSH1 0x20 ADD ADD MLOAD PUSH1 0xC0 ADD MLOAD PUSH1 0x1 DUP2 GT ISZERO PUSH2 0x235F JUMPI PUSH2 0x235F PUSH2 0x6872 JUMP JUMPDEST SUB PUSH2 0x23AA JUMPI DUP5 DUP2 DUP2 MLOAD DUP2 LT PUSH2 0x2376 JUMPI PUSH2 0x2376 PUSH2 0x6F50 JUMP JUMPDEST PUSH1 0x20 MUL PUSH1 0x20 ADD ADD MLOAD DUP4 DUP4 DUP2 MLOAD DUP2 LT PUSH2 0x2390 JUMPI PUSH2 0x2390 PUSH2 0x6F50 JUMP JUMPDEST PUSH1 0x20 MUL PUSH1 0x20 ADD ADD DUP2 SWAP1 MSTORE POP DUP2 DUP1 PUSH2 0x23A6 SWAP1 PUSH2 0x73BE JUMP JUMPDEST SWAP3 POP POP JUMPDEST PUSH1 0x1 ADD PUSH2 0x2325 JUMP JUMPDEST POP SWAP1 SWAP6 SWAP5 POP POP POP POP POP JUMP JUMPDEST PUSH1 0x1 PUSH1 0x1 PUSH1 0xA0 SHL SUB DUP4 AND PUSH1 0x0 SWAP1 DUP2 MSTORE PUSH1 0x2 PUSH1 0x20 SWAP1 DUP2 MSTORE PUSH1 0x40 DUP1 DUP4 KECCAK256 DUP1 SLOAD DUP3 MLOAD DUP2 DUP6 MUL DUP2 ADD DUP6 ADD SWAP1 SWAP4 MSTORE DUP1 DUP4 MSTORE PUSH1 0x60 SWAP5 SWAP4 DUP5 SWAP1 DUP5 ADD JUMPDEST DUP3 DUP3 LT ISZERO PUSH2 0x26CD JUMPI PUSH1 0x0 DUP5 DUP2 MSTORE PUSH1 0x20 SWAP1 DUP2 SWAP1 KECCAK256 PUSH1 0x40 DUP1 MLOAD PUSH2 0x100 DUP2 ADD DUP3 MSTORE PUSH1 0x8 DUP7 MUL SWAP1 SWAP3 ADD DUP1 SLOAD PUSH1 0x1 PUSH1 0x1 PUSH1 0xA0 SHL SUB SWAP1 DUP2 AND DUP5 MSTORE PUSH1 0x1 DUP3 ADD SLOAD AND SWAP4 DUP4 ADD SWAP4 SWAP1 SWAP4 MSTORE PUSH1 0x2 DUP4 ADD DUP1 SLOAD SWAP3 SWAP4 SWAP3 SWAP2 DUP5 ADD SWAP2 PUSH2 0x2449 SWAP1 PUSH2 0x6F8F JUMP JUMPDEST DUP1 PUSH1 0x1F ADD PUSH1 0x20 DUP1 SWAP2 DIV MUL PUSH1 0x20 ADD PUSH1 0x40 MLOAD SWAP1 DUP2 ADD PUSH1 0x40 MSTORE DUP1 SWAP3 SWAP2 SWAP1 DUP2 DUP2 MSTORE PUSH1 0x20 ADD DUP3 DUP1 SLOAD PUSH2 0x2475 SWAP1 PUSH2 0x6F8F JUMP JUMPDEST DUP1 ISZERO PUSH2 0x24C2 JUMPI DUP1 PUSH1 0x1F LT PUSH2 0x2497 JUMPI PUSH2 0x100 DUP1 DUP4 SLOAD DIV MUL DUP4 MSTORE SWAP2 PUSH1 0x20 ADD SWAP2 PUSH2 0x24C2 JUMP JUMPDEST DUP3 ADD SWAP2 SWAP1 PUSH1 0x0 MSTORE PUSH1 0x20 PUSH1 0x0 KECCAK256 SWAP1 JUMPDEST DUP2 SLOAD DUP2 MSTORE SWAP1 PUSH1 0x1 ADD SWAP1 PUSH1 0x20 ADD DUP1 DUP4 GT PUSH2 0x24A5 JUMPI DUP3 SWAP1 SUB PUSH1 0x1F AND DUP3 ADD SWAP2 JUMPDEST POP POP POP POP POP DUP2 MSTORE PUSH1 0x20 ADD PUSH1 0x3 DUP3 ADD DUP1 SLOAD PUSH2 0x24DB SWAP1 PUSH2 0x6F8F JUMP JUMPDEST DUP1 PUSH1 0x1F ADD PUSH1 0x20 DUP1 SWAP2 DIV MUL PUSH1 0x20 ADD PUSH1 0x40 MLOAD SWAP1 DUP2 ADD PUSH1 0x40 MSTORE DUP1 SWAP3 SWAP2 SWAP1 DUP2 DUP2 MSTORE PUSH1 0x20 ADD DUP3 DUP1 SLOAD PUSH2 0x2507 SWAP1 PUSH2 0x6F8F JUMP JUMPDEST DUP1 ISZERO PUSH2 0x2554 JUMPI DUP1 PUSH1 0x1F LT PUSH2 0x2529 JUMPI PUSH2 0x100 DUP1 DUP4 SLOAD DIV MUL DUP4 MSTORE SWAP2 PUSH1 0x20 ADD SWAP2 PUSH2 0x2554 JUMP JUMPDEST DUP3 ADD SWAP2 SWAP1 PUSH1 0x0 MSTORE PUSH1 0x20 PUSH1 0x0 KECCAK256 SWAP1 JUMPDEST DUP2 SLOAD DUP2 MSTORE SWAP1 PUSH1 0x1 ADD SWAP1 PUSH1 0x20 ADD DUP1 DUP4 GT PUSH2 0x2537 JUMPI DUP3 SWAP1 SUB PUSH1 0x1F AND DUP3 ADD SWAP2 JUMPDEST POP POP POP POP POP DUP2 MSTORE PUSH1 0x20 ADD PUSH1 0x4 DUP3 ADD DUP1 SLOAD PUSH2 0x256D SWAP1 PUSH2 0x6F8F JUMP JUMPDEST DUP1 PUSH1 0x1F ADD PUSH1 0x20 DUP1 SWAP2 DIV MUL PUSH1 0x20 ADD PUSH1 0x40 MLOAD SWAP1 DUP2 ADD PUSH1 0x40 MSTORE DUP1 SWAP3 SWAP2 SWAP1 DUP2 DUP2 MSTORE PUSH1 0x20 ADD DUP3 DUP1 SLOAD PUSH2 0x2599 SWAP1 PUSH2 0x6F8F JUMP JUMPDEST DUP1 ISZERO PUSH2 0x25E6 JUMPI DUP1 PUSH1 0x1F LT PUSH2 0x25BB JUMPI PUSH2 0x100 DUP1 DUP4 SLOAD DIV MUL DUP4 MSTORE SWAP2 PUSH1 0x20 ADD SWAP2 PUSH2 0x25E6 JUMP JUMPDEST DUP3 ADD SWAP2 SWAP1 PUSH1 0x0 MSTORE PUSH1 0x20 PUSH1 0x0 KECCAK256 SWAP1 JUMPDEST DUP2 SLOAD DUP2 MSTORE SWAP1 PUSH1 0x1 ADD SWAP1 PUSH1 0x20 ADD DUP1 DUP4 GT PUSH2 0x25C9 JUMPI DUP3 SWAP1 SUB PUSH1 0x1F AND DUP3 ADD SWAP2 JUMPDEST POP POP POP POP POP DUP2 MSTORE PUSH1 0x20 ADD PUSH1 0x5 DUP3 ADD DUP1 SLOAD PUSH2 0x25FF SWAP1 PUSH2 0x6F8F JUMP JUMPDEST DUP1 PUSH1 0x1F ADD PUSH1 0x20 DUP1 SWAP2 DIV MUL PUSH1 0x20 ADD PUSH1 0x40 MLOAD SWAP1 DUP2 ADD PUSH1 0x40 MSTORE DUP1 SWAP3 SWAP2 SWAP1 DUP2 DUP2 MSTORE PUSH1 0x20 ADD DUP3 DUP1 SLOAD PUSH2 0x262B SWAP1 PUSH2 0x6F8F JUMP JUMPDEST DUP1 ISZERO PUSH2 0x2678 JUMPI DUP1 PUSH1 0x1F LT PUSH2 0x264D JUMPI PUSH2 0x100 DUP1 DUP4 SLOAD DIV MUL DUP4 MSTORE SWAP2 PUSH1 0x20 ADD SWAP2 PUSH2 0x2678 JUMP JUMPDEST DUP3 ADD SWAP2 SWAP1 PUSH1 0x0 MSTORE PUSH1 0x20 PUSH1 0x0 KECCAK256 SWAP1 JUMPDEST DUP2 SLOAD DUP2 MSTORE SWAP1 PUSH1 0x1 ADD SWAP1 PUSH1 0x20 ADD DUP1 DUP4 GT PUSH2 0x265B JUMPI DUP3 SWAP1 SUB PUSH1 0x1F AND DUP3 ADD SWAP2 JUMPDEST POP POP POP SWAP2 DUP4 MSTORE POP POP PUSH1 0x6 DUP3 ADD SLOAD PUSH1 0x20 SWAP1 SWAP2 ADD SWAP1 PUSH1 0xFF AND PUSH1 0x1 DUP2 GT ISZERO PUSH2 0x269F JUMPI PUSH2 0x269F PUSH2 0x6872 JUMP JUMPDEST PUSH1 0x1 DUP2 GT ISZERO PUSH2 0x26B0 JUMPI PUSH2 0x26B0 PUSH2 0x6872 JUMP JUMPDEST DUP2 MSTORE PUSH1 0x20 ADD PUSH1 0x7 DUP3 ADD SLOAD DUP2 MSTORE POP POP DUP2 MSTORE PUSH1 0x20 ADD SWAP1 PUSH1 0x1 ADD SWAP1 PUSH2 0x23F2 JUMP JUMPDEST POP POP POP POP SWAP1 POP DUP5 PUSH1 0x1 PUSH1 0x1 PUSH1 0xA0 SHL SUB AND CALLER PUSH1 0x1 PUSH1 0x1 PUSH1 0xA0 SHL SUB AND SUB PUSH2 0x2807 JUMPI DUP1 MLOAD DUP5 LT PUSH2 0x272E JUMPI PUSH1 0x40 DUP1 MLOAD PUSH1 0x0 DUP1 DUP3 MSTORE PUSH1 0x20 DUP3 ADD SWAP1 SWAP3 MSTORE SWAP1 PUSH2 0x2725 JUMP JUMPDEST PUSH2 0x2712 PUSH2 0x61F6 JUMP JUMPDEST DUP2 MSTORE PUSH1 0x20 ADD SWAP1 PUSH1 0x1 SWAP1 SUB SWAP1 DUP2 PUSH2 0x270A JUMPI SWAP1 POP JUMPDEST POP SWAP2 POP POP PUSH2 0x1C97 JUMP JUMPDEST PUSH1 0x0 PUSH2 0x273A DUP5 DUP7 PUSH2 0x73D7 JUMP JUMPDEST SWAP1 POP DUP2 MLOAD DUP2 GT ISZERO PUSH2 0x2749 JUMPI POP DUP1 MLOAD JUMPDEST PUSH1 0x0 PUSH2 0x2755 DUP7 DUP4 PUSH2 0x6F7C JUMP JUMPDEST PUSH1 0x1 PUSH1 0x1 PUSH1 0x40 SHL SUB DUP2 GT ISZERO PUSH2 0x276C JUMPI PUSH2 0x276C PUSH2 0x6412 JUMP JUMPDEST PUSH1 0x40 MLOAD SWAP1 DUP1 DUP3 MSTORE DUP1 PUSH1 0x20 MUL PUSH1 0x20 ADD DUP3 ADD PUSH1 0x40 MSTORE DUP1 ISZERO PUSH2 0x27A5 JUMPI DUP2 PUSH1 0x20 ADD JUMPDEST PUSH2 0x2792 PUSH2 0x61F6 JUMP JUMPDEST DUP2 MSTORE PUSH1 0x20 ADD SWAP1 PUSH1 0x1 SWAP1 SUB SWAP1 DUP2 PUSH2 0x278A JUMPI SWAP1 POP JUMPDEST POP SWAP1 POP DUP6 JUMPDEST DUP3 DUP2 LT ISZERO PUSH2 0x27FC JUMPI DUP4 DUP2 DUP2 MLOAD DUP2 LT PUSH2 0x27C4 JUMPI PUSH2 0x27C4 PUSH2 0x6F50 JUMP JUMPDEST PUSH1 0x20 MUL PUSH1 0x20 ADD ADD MLOAD DUP3 DUP9 DUP4 PUSH2 0x27D9 SWAP2 SWAP1 PUSH2 0x6F7C JUMP JUMPDEST DUP2 MLOAD DUP2 LT PUSH2 0x27E9 JUMPI PUSH2 0x27E9 PUSH2 0x6F50 JUMP JUMPDEST PUSH1 0x20 SWAP1 DUP2 MUL SWAP2 SWAP1 SWAP2 ADD ADD MSTORE PUSH1 0x1 ADD PUSH2 0x27AA JUMP JUMPDEST POP SWAP3 POP PUSH2 0x1C97 SWAP2 POP POP JUMP JUMPDEST PUSH1 0x0 DUP1 JUMPDEST DUP3 MLOAD DUP2 LT ISZERO PUSH2 0x2860 JUMPI PUSH1 0x0 DUP4 DUP3 DUP2 MLOAD DUP2 LT PUSH2 0x2828 JUMPI PUSH2 0x2828 PUSH2 0x6F50 JUMP JUMPDEST PUSH1 0x20 MUL PUSH1 0x20 ADD ADD MLOAD PUSH1 0xC0 ADD MLOAD PUSH1 0x1 DUP2 GT ISZERO PUSH2 0x2845 JUMPI PUSH2 0x2845 PUSH2 0x6872 JUMP JUMPDEST SUB PUSH2 0x2858 JUMPI DUP2 PUSH2 0x2854 DUP2 PUSH2 0x73BE JUMP JUMPDEST SWAP3 POP POP JUMPDEST PUSH1 0x1 ADD PUSH2 0x280B JUMP JUMPDEST POP DUP1 DUP6 LT PUSH2 0x28A3 JUMPI PUSH1 0x40 DUP1 MLOAD PUSH1 0x0 DUP1 DUP3 MSTORE PUSH1 0x20 DUP3 ADD SWAP1 SWAP3 MSTORE SWAP1 PUSH2 0x2899 JUMP JUMPDEST PUSH2 0x2886 PUSH2 0x61F6 JUMP JUMPDEST DUP2 MSTORE PUSH1 0x20 ADD SWAP1 PUSH1 0x1 SWAP1 SUB SWAP1 DUP2 PUSH2 0x287E JUMPI SWAP1 POP JUMPDEST POP SWAP3 POP POP POP PUSH2 0x1C97 JUMP JUMPDEST DUP4 DUP2 PUSH2 0x28AF DUP3 DUP9 PUSH2 0x73D7 JUMP JUMPDEST GT ISZERO PUSH2 0x28C2 JUMPI PUSH2 0x28BF DUP7 DUP4 PUSH2 0x6F7C JUMP JUMPDEST SWAP1 POP JUMPDEST PUSH1 0x0 DUP2 PUSH1 0x1 PUSH1 0x1 PUSH1 0x40 SHL SUB DUP2 GT ISZERO PUSH2 0x28DC JUMPI PUSH2 0x28DC PUSH2 0x6412 JUMP JUMPDEST PUSH1 0x40 MLOAD SWAP1 DUP1 DUP3 MSTORE DUP1 PUSH1 0x20 MUL PUSH1 0x20 ADD DUP3 ADD PUSH1 0x40 MSTORE DUP1 ISZERO PUSH2 0x2915 JUMPI DUP2 PUSH1 0x20 ADD JUMPDEST PUSH2 0x2902 PUSH2 0x61F6 JUMP JUMPDEST DUP2 MSTORE PUSH1 0x20 ADD SWAP1 PUSH1 0x1 SWAP1 SUB SWAP1 DUP2 PUSH2 0x28FA JUMPI SWAP1 POP JUMPDEST POP SWAP1 POP PUSH1 0x0 DUP1 PUSH1 0x0 JUMPDEST DUP7 MLOAD DUP2 LT DUP1 ISZERO PUSH2 0x292D JUMPI POP DUP5 DUP3 LT JUMPDEST ISZERO PUSH2 0x29D5 JUMPI PUSH1 0x0 DUP8 DUP3 DUP2 MLOAD DUP2 LT PUSH2 0x2946 JUMPI PUSH2 0x2946 PUSH2 0x6F50 JUMP JUMPDEST PUSH1 0x20 MUL PUSH1 0x20 ADD ADD MLOAD PUSH1 0xC0 ADD MLOAD PUSH1 0x1 DUP2 GT ISZERO PUSH2 0x2963 JUMPI PUSH2 0x2963 PUSH2 0x6872 JUMP JUMPDEST SUB PUSH2 0x29C3 JUMPI DUP10 DUP4 LT PUSH2 0x29B5 JUMPI DUP7 DUP2 DUP2 MLOAD DUP2 LT PUSH2 0x2981 JUMPI PUSH2 0x2981 PUSH2 0x6F50 JUMP JUMPDEST PUSH1 0x20 MUL PUSH1 0x20 ADD ADD MLOAD DUP5 DUP4 DUP2 MLOAD DUP2 LT PUSH2 0x299B JUMPI PUSH2 0x299B PUSH2 0x6F50 JUMP JUMPDEST PUSH1 0x20 MUL PUSH1 0x20 ADD ADD DUP2 SWAP1 MSTORE POP DUP2 DUP1 PUSH2 0x29B1 SWAP1 PUSH2 0x73BE JUMP JUMPDEST SWAP3 POP POP JUMPDEST DUP3 PUSH2 0x29BF DUP2 PUSH2 0x73BE JUMP JUMPDEST SWAP4 POP POP JUMPDEST DUP1 PUSH2 0x29CD DUP2 PUSH2 0x73BE JUMP JUMPDEST SWAP2 POP POP PUSH2 0x291E JUMP JUMPDEST POP SWAP2 SWAP10 SWAP9 POP POP POP POP POP POP POP POP POP JUMP JUMPDEST CALLER PUSH1 0x0 SWAP1 DUP2 MSTORE PUSH1 0x2 PUSH1 0x20 SWAP1 DUP2 MSTORE PUSH1 0x40 DUP1 DUP4 KECCAK256 DUP1 SLOAD DUP3 MLOAD DUP2 DUP6 MUL DUP2 ADD DUP6 ADD SWAP1 SWAP4 MSTORE DUP1 DUP4 MSTORE PUSH1 0x60 SWAP5 SWAP4 DUP5 SWAP1 DUP5 ADD JUMPDEST DUP3 DUP3 LT ISZERO PUSH2 0x2CEB JUMPI PUSH1 0x0 DUP5 DUP2 MSTORE PUSH1 0x20 SWAP1 DUP2 SWAP1 KECCAK256 PUSH1 0x40 DUP1 MLOAD PUSH2 0x100 DUP2 ADD DUP3 MSTORE PUSH1 0x8 DUP7 MUL SWAP1 SWAP3 ADD DUP1 SLOAD PUSH1 0x1 PUSH1 0x1 PUSH1 0xA0 SHL SUB SWAP1 DUP2 AND DUP5 MSTORE PUSH1 0x1 DUP3 ADD SLOAD AND SWAP4 DUP4 ADD SWAP4 SWAP1 SWAP4 MSTORE PUSH1 0x2 DUP4 ADD DUP1 SLOAD SWAP3 SWAP4 SWAP3 SWAP2 DUP5 ADD SWAP2 PUSH2 0x2A67 SWAP1 PUSH2 0x6F8F JUMP JUMPDEST DUP1 PUSH1 0x1F ADD PUSH1 0x20 DUP1 SWAP2 DIV MUL PUSH1 0x20 ADD PUSH1 0x40 MLOAD SWAP1 DUP2 ADD PUSH1 0x40 MSTORE DUP1 SWAP3 SWAP2 SWAP1 DUP2 DUP2 MSTORE PUSH1 0x20 ADD DUP3 DUP1 SLOAD PUSH2 0x2A93 SWAP1 PUSH2 0x6F8F JUMP JUMPDEST DUP1 ISZERO PUSH2 0x2AE0 JUMPI DUP1 PUSH1 0x1F LT PUSH2 0x2AB5 JUMPI PUSH2 0x100 DUP1 DUP4 SLOAD DIV MUL DUP4 MSTORE SWAP2 PUSH1 0x20 ADD SWAP2 PUSH2 0x2AE0 JUMP JUMPDEST DUP3 ADD SWAP2 SWAP1 PUSH1 0x0 MSTORE PUSH1 0x20 PUSH1 0x0 KECCAK256 SWAP1 JUMPDEST DUP2 SLOAD DUP2 MSTORE SWAP1 PUSH1 0x1 ADD SWAP1 PUSH1 0x20 ADD DUP1 DUP4 GT PUSH2 0x2AC3 JUMPI DUP3 SWAP1 SUB PUSH1 0x1F AND DUP3 ADD SWAP2 JUMPDEST POP POP POP POP POP DUP2 MSTORE PUSH1 0x20 ADD PUSH1 0x3 DUP3 ADD DUP1 SLOAD PUSH2 0x2AF9 SWAP1 PUSH2 0x6F8F JUMP JUMPDEST DUP1 PUSH1 0x1F ADD PUSH1 0x20 DUP1 SWAP2 DIV MUL PUSH1 0x20 ADD PUSH1 0x40 MLOAD SWAP1 DUP2 ADD PUSH1 0x40 MSTORE DUP1 SWAP3 SWAP2 SWAP1 DUP2 DUP2 MSTORE PUSH1 0x20 ADD DUP3 DUP1 SLOAD PUSH2 0x2B25 SWAP1 PUSH2 0x6F8F JUMP JUMPDEST DUP1 ISZERO PUSH2 0x2B72 JUMPI DUP1 PUSH1 0x1F LT PUSH2 0x2B47 JUMPI PUSH2 0x100 DUP1 DUP4 SLOAD DIV MUL DUP4 MSTORE SWAP2 PUSH1 0x20 ADD SWAP2 PUSH2 0x2B72 JUMP JUMPDEST DUP3 ADD SWAP2 SWAP1 PUSH1 0x0 MSTORE PUSH1 0x20 PUSH1 0x0 KECCAK256 SWAP1 JUMPDEST DUP2 SLOAD DUP2 MSTORE SWAP1 PUSH1 0x1 ADD SWAP1 PUSH1 0x20 ADD DUP1 DUP4 GT PUSH2 0x2B55 JUMPI DUP3 SWAP1 SUB PUSH1 0x1F AND DUP3 ADD SWAP2 JUMPDEST POP POP POP POP POP DUP2 MSTORE PUSH1 0x20 ADD PUSH1 0x4 DUP3 ADD DUP1 SLOAD PUSH2 0x2B8B SWAP1 PUSH2 0x6F8F JUMP JUMPDEST DUP1 PUSH1 0x1F ADD PUSH1 0x20 DUP1 SWAP2 DIV MUL PUSH1 0x20 ADD PUSH1 0x40 MLOAD SWAP1 DUP2 ADD PUSH1 0x40 MSTORE DUP1 SWAP3 SWAP2 SWAP1 DUP2 DUP2 MSTORE PUSH1 0x20 ADD DUP3 DUP1 SLOAD PUSH2 0x2BB7 SWAP1 PUSH2 0x6F8F JUMP JUMPDEST DUP1 ISZERO PUSH2 0x2C04 JUMPI DUP1 PUSH1 0x1F LT PUSH2 0x2BD9 JUMPI PUSH2 0x100 DUP1 DUP4 SLOAD DIV MUL DUP4 MSTORE SWAP2 PUSH1 0x20 ADD SWAP2 PUSH2 0x2C04 JUMP JUMPDEST DUP3 ADD SWAP2 SWAP1 PUSH1 0x0 MSTORE PUSH1 0x20 PUSH1 0x0 KECCAK256 SWAP1 JUMPDEST DUP2 SLOAD DUP2 MSTORE SWAP1 PUSH1 0x1 ADD SWAP1 PUSH1 0x20 ADD DUP1 DUP4 GT PUSH2 0x2BE7 JUMPI DUP3 SWAP1 SUB PUSH1 0x1F AND DUP3 ADD SWAP2 JUMPDEST POP POP POP POP POP DUP2 MSTORE PUSH1 0x20 ADD PUSH1 0x5 DUP3 ADD DUP1 SLOAD PUSH2 0x2C1D SWAP1 PUSH2 0x6F8F JUMP JUMPDEST DUP1 PUSH1 0x1F ADD PUSH1 0x20 DUP1 SWAP2 DIV MUL PUSH1 0x20 ADD PUSH1 0x40 MLOAD SWAP1 DUP2 ADD PUSH1 0x40 MSTORE DUP1 SWAP3 SWAP2 SWAP1 DUP2 DUP2 MSTORE PUSH1 0x20 ADD DUP3 DUP1 SLOAD PUSH2 0x2C49 SWAP1 PUSH2 0x6F8F JUMP JUMPDEST DUP1 ISZERO PUSH2 0x2C96 JUMPI DUP1 PUSH1 0x1F LT PUSH2 0x2C6B JUMPI PUSH2 0x100 DUP1 DUP4 SLOAD DIV MUL DUP4 MSTORE SWAP2 PUSH1 0x20 ADD SWAP2 PUSH2 0x2C96 JUMP JUMPDEST DUP3 ADD SWAP2 SWAP1 PUSH1 0x0 MSTORE PUSH1 0x20 PUSH1 0x0 KECCAK256 SWAP1 JUMPDEST DUP2 SLOAD DUP2 MSTORE SWAP1 PUSH1 0x1 ADD SWAP1 PUSH1 0x20 ADD DUP1 DUP4 GT PUSH2 0x2C79 JUMPI DUP3 SWAP1 SUB PUSH1 0x1F AND DUP3 ADD SWAP2 JUMPDEST POP POP POP SWAP2 DUP4 MSTORE POP POP PUSH1 0x6 DUP3 ADD SLOAD PUSH1 0x20 SWAP1 SWAP2 ADD SWAP1 PUSH1 0xFF AND PUSH1 0x1 DUP2 GT ISZERO PUSH2 0x2CBD JUMPI PUSH2 0x2CBD PUSH2 0x6872 JUMP JUMPDEST PUSH1 0x1 DUP2 GT ISZERO PUSH2 0x2CCE JUMPI PUSH2 0x2CCE PUSH2 0x6872 JUMP JUMPDEST DUP2 MSTORE PUSH1 0x20 ADD PUSH1 0x7 DUP3 ADD SLOAD DUP2 MSTORE POP POP DUP2 MSTORE PUSH1 0x20 ADD SWAP1 PUSH1 0x1 ADD SWAP1 PUSH2 0x2A10 JUMP JUMPDEST POP POP POP POP SWAP1 POP PUSH1 0x0 DUP2 MLOAD PUSH1 0x1 PUSH1 0x1 PUSH1 0x40 SHL SUB DUP2 GT ISZERO PUSH2 0x2D0C JUMPI PUSH2 0x2D0C PUSH2 0x6412 JUMP JUMPDEST PUSH1 0x40 MLOAD SWAP1 DUP1 DUP3 MSTORE DUP1 PUSH1 0x20 MUL PUSH1 0x20 ADD DUP3 ADD PUSH1 0x40 MSTORE DUP1 ISZERO PUSH2 0x2D3F JUMPI DUP2 PUSH1 0x20 ADD JUMPDEST PUSH1 0x60 DUP2 MSTORE PUSH1 0x20 ADD SWAP1 PUSH1 0x1 SWAP1 SUB SWAP1 DUP2 PUSH2 0x2D2A JUMPI SWAP1 POP JUMPDEST POP SWAP1 POP PUSH1 0x0 JUMPDEST DUP3 MLOAD DUP2 LT ISZERO PUSH2 0x2D91 JUMPI DUP3 DUP2 DUP2 MLOAD DUP2 LT PUSH2 0x2D60 JUMPI PUSH2 0x2D60 PUSH2 0x6F50 JUMP JUMPDEST PUSH1 0x20 MUL PUSH1 0x20 ADD ADD MLOAD PUSH1 0xA0 ADD MLOAD DUP3 DUP3 DUP2 MLOAD DUP2 LT PUSH2 0x2D7E JUMPI PUSH2 0x2D7E PUSH2 0x6F50 JUMP JUMPDEST PUSH1 0x20 SWAP1 DUP2 MUL SWAP2 SWAP1 SWAP2 ADD ADD MSTORE PUSH1 0x1 ADD PUSH2 0x2D45 JUMP JUMPDEST POP SWAP3 SWAP2 POP POP JUMP JUMPDEST PUSH1 0x60 PUSH1 0xE DUP1 SLOAD DUP1 PUSH1 0x20 MUL PUSH1 0x20 ADD PUSH1 0x40 MLOAD SWAP1 DUP2 ADD PUSH1 0x40 MSTORE DUP1 SWAP3 SWAP2 SWAP1 DUP2 DUP2 MSTORE PUSH1 0x20 ADD PUSH1 0x0 SWAP1 JUMPDEST DUP3 DUP3 LT ISZERO PUSH2 0x152D JUMPI DUP4 DUP3 SWAP1 PUSH1 0x0 MSTORE PUSH1 0x20 PUSH1 0x0 KECCAK256 ADD DUP1 SLOAD PUSH2 0x2DDB SWAP1 PUSH2 0x6F8F JUMP JUMPDEST DUP1 PUSH1 0x1F ADD PUSH1 0x20 DUP1 SWAP2 DIV MUL PUSH1 0x20 ADD PUSH1 0x40 MLOAD SWAP1 DUP2 ADD PUSH1 0x40 MSTORE DUP1 SWAP3 SWAP2 SWAP1 DUP2 DUP2 MSTORE PUSH1 0x20 ADD DUP3 DUP1 SLOAD PUSH2 0x2E07 SWAP1 PUSH2 0x6F8F JUMP JUMPDEST DUP1 ISZERO PUSH2 0x2E54 JUMPI DUP1 PUSH1 0x1F LT PUSH2 0x2E29 JUMPI PUSH2 0x100 DUP1 DUP4 SLOAD DIV MUL DUP4 MSTORE SWAP2 PUSH1 0x20 ADD SWAP2 PUSH2 0x2E54 JUMP JUMPDEST DUP3 ADD SWAP2 SWAP1 PUSH1 0x0 MSTORE PUSH1 0x20 PUSH1 0x0 KECCAK256 SWAP1 JUMPDEST DUP2 SLOAD DUP2 MSTORE SWAP1 PUSH1 0x1 ADD SWAP1 PUSH1 0x20 ADD DUP1 DUP4 GT PUSH2 0x2E37 JUMPI DUP3 SWAP1 SUB PUSH1 0x1F AND DUP3 ADD SWAP2 JUMPDEST POP POP POP POP POP DUP2 MSTORE PUSH1 0x20 ADD SWAP1 PUSH1 0x1 ADD SWAP1 PUSH2 0x2DBC JUMP JUMPDEST PUSH1 0x0 DUP6 MLOAD GT PUSH2 0x2E89 JUMPI PUSH1 0x40 MLOAD PUSH3 0x461BCD PUSH1 0xE5 SHL DUP2 MSTORE PUSH1 0x4 ADD PUSH2 0x640 SWAP1 PUSH2 0x6EFD JUMP JUMPDEST PUSH1 0x4 DUP3 PUSH1 0xFF AND GT ISZERO DUP1 PUSH2 0x2E9F JUMPI POP DUP2 PUSH1 0xFF AND PUSH1 0xFF EQ JUMPDEST PUSH2 0x2F04 JUMPI PUSH1 0x40 MLOAD PUSH3 0x461BCD PUSH1 0xE5 SHL DUP2 MSTORE PUSH1 0x20 PUSH1 0x4 DUP3 ADD MSTORE PUSH1 0x30 PUSH1 0x24 DUP3 ADD MSTORE PUSH32 0x496E76616C696420726F6C653A206D75737420626520302D34206F7220323535 PUSH1 0x44 DUP3 ADD MSTORE PUSH16 0x20286B656570206578697374696E6729 PUSH1 0x80 SHL PUSH1 0x64 DUP3 ADD MSTORE PUSH1 0x84 ADD PUSH2 0x640 JUMP JUMPDEST CALLER PUSH1 0x0 SWAP1 DUP2 MSTORE PUSH1 0x5 PUSH1 0x20 MSTORE PUSH1 0x40 DUP1 DUP3 KECCAK256 SWAP1 MLOAD PUSH2 0x2F21 SWAP1 DUP9 SWAP1 PUSH2 0x6F34 JUMP JUMPDEST SWAP1 DUP2 MSTORE PUSH1 0x20 ADD PUSH1 0x40 MLOAD DUP1 SWAP2 SUB SWAP1 KECCAK256 SWAP1 POP PUSH1 0x0 JUMPDEST DUP2 SLOAD DUP2 LT ISZERO PUSH2 0x310E JUMPI DUP6 PUSH1 0x1 PUSH1 0x1 PUSH1 0xA0 SHL SUB AND DUP3 DUP3 DUP2 SLOAD DUP2 LT PUSH2 0x2F59 JUMPI PUSH2 0x2F59 PUSH2 0x6F50 JUMP JUMPDEST PUSH1 0x0 SWAP2 DUP3 MSTORE PUSH1 0x20 SWAP1 SWAP2 KECCAK256 PUSH1 0x4 SWAP1 SWAP2 MUL ADD SLOAD PUSH1 0x1 PUSH1 0x1 PUSH1 0xA0 SHL SUB AND SUB PUSH2 0x3106 JUMPI PUSH1 0x40 DUP1 MLOAD DUP1 DUP3 ADD SWAP1 SWAP2 MSTORE PUSH1 0x5 DUP2 MSTORE PUSH4 0x4B45455 PUSH1 0xDC SHL PUSH1 0x20 SWAP2 DUP3 ADD MSTORE DUP6 MLOAD SWAP1 DUP7 ADD KECCAK256 PUSH32 0xB0837273B2DA8502395A7160F0BF01F6F8B7A45D6441089EEA6B5D9F33B83991 EQ PUSH2 0x2FF2 JUMPI DUP5 DUP3 DUP3 DUP2 SLOAD DUP2 LT PUSH2 0x2FD3 JUMPI PUSH2 0x2FD3 PUSH2 0x6F50 JUMP JUMPDEST SWAP1 PUSH1 0x0 MSTORE PUSH1 0x20 PUSH1 0x0 KECCAK256 SWAP1 PUSH1 0x4 MUL ADD PUSH1 0x1 ADD SWAP1 DUP2 PUSH2 0x2FF0 SWAP2 SWAP1 PUSH2 0x71C1 JUMP JUMPDEST POP JUMPDEST DUP4 PUSH1 0xFF AND PUSH1 0xFF EQ PUSH2 0x303A JUMPI DUP4 DUP3 DUP3 DUP2 SLOAD DUP2 LT PUSH2 0x3010 JUMPI PUSH2 0x3010 PUSH2 0x6F50 JUMP JUMPDEST SWAP1 PUSH1 0x0 MSTORE PUSH1 0x20 PUSH1 0x0 KECCAK256 SWAP1 PUSH1 0x4 MUL ADD PUSH1 0x2 ADD PUSH1 0x0 PUSH2 0x100 EXP DUP2 SLOAD DUP2 PUSH1 0xFF MUL NOT AND SWAP1 DUP4 PUSH1 0xFF AND MUL OR SWAP1 SSTORE POP JUMPDEST PUSH1 0x40 DUP1 MLOAD DUP1 DUP3 ADD SWAP1 SWAP2 MSTORE PUSH1 0x5 DUP2 MSTORE PUSH4 0x4B45455 PUSH1 0xDC SHL PUSH1 0x20 SWAP2 DUP3 ADD MSTORE DUP4 MLOAD SWAP1 DUP5 ADD KECCAK256 PUSH32 0xB0837273B2DA8502395A7160F0BF01F6F8B7A45D6441089EEA6B5D9F33B83991 EQ PUSH2 0x30B4 JUMPI DUP3 DUP3 DUP3 DUP2 SLOAD DUP2 LT PUSH2 0x3095 JUMPI PUSH2 0x3095 PUSH2 0x6F50 JUMP JUMPDEST SWAP1 PUSH1 0x0 MSTORE PUSH1 0x20 PUSH1 0x0 KECCAK256 SWAP1 PUSH1 0x4 MUL ADD PUSH1 0x3 ADD SWAP1 DUP2 PUSH2 0x30B2 SWAP2 SWAP1 PUSH2 0x71C1 JUMP JUMPDEST POP JUMPDEST DUP6 PUSH1 0x1 PUSH1 0x1 PUSH1 0xA0 SHL SUB AND CALLER PUSH1 0x1 PUSH1 0x1 PUSH1 0xA0 SHL SUB AND PUSH32 0xB66DABB959D5F3BDB53A39AA58D0975B39199C9B188AD8BB09A1B37BB7BF5979 DUP10 TIMESTAMP PUSH1 0x40 MLOAD PUSH2 0x30F9 SWAP3 SWAP2 SWAP1 PUSH2 0x73EA JUMP JUMPDEST PUSH1 0x40 MLOAD DUP1 SWAP2 SUB SWAP1 LOG3 PUSH2 0x310E JUMP JUMPDEST PUSH1 0x1 ADD PUSH2 0x2F34 JUMP JUMPDEST POP POP POP POP POP POP POP JUMP JUMPDEST PUSH1 0x1 PUSH1 0x1 PUSH1 0xA0 SHL SUB DUP2 AND PUSH1 0x0 SWAP1 DUP2 MSTORE PUSH1 0x3 PUSH1 0x20 SWAP1 DUP2 MSTORE PUSH1 0x40 DUP1 DUP4 KECCAK256 DUP1 SLOAD DUP3 MLOAD DUP2 DUP6 MUL DUP2 ADD DUP6 ADD SWAP1 SWAP4 MSTORE DUP1 DUP4 MSTORE PUSH1 0x60 SWAP5 SWAP3 SWAP4 SWAP2 SWAP3 SWAP1 SWAP2 DUP5 ADD JUMPDEST DUP3 DUP3 LT ISZERO PUSH2 0x1D82 JUMPI DUP4 DUP3 SWAP1 PUSH1 0x0 MSTORE PUSH1 0x20 PUSH1 0x0 KECCAK256 ADD DUP1 SLOAD PUSH2 0x316E SWAP1 PUSH2 0x6F8F JUMP JUMPDEST DUP1 PUSH1 0x1F ADD PUSH1 0x20 DUP1 SWAP2 DIV MUL PUSH1 0x20 ADD PUSH1 0x40 MLOAD SWAP1 DUP2 ADD PUSH1 0x40 MSTORE DUP1 SWAP3 SWAP2 SWAP1 DUP2 DUP2 MSTORE PUSH1 0x20 ADD DUP3 DUP1 SLOAD PUSH2 0x319A SWAP1 PUSH2 0x6F8F JUMP JUMPDEST DUP1 ISZERO PUSH2 0x31E7 JUMPI DUP1 PUSH1 0x1F LT PUSH2 0x31BC JUMPI PUSH2 0x100 DUP1 DUP4 SLOAD DIV MUL DUP4 MSTORE SWAP2 PUSH1 0x20 ADD SWAP2 PUSH2 0x31E7 JUMP JUMPDEST DUP3 ADD SWAP2 SWAP1 PUSH1 0x0 MSTORE PUSH1 0x20 PUSH1 0x0 KECCAK256 SWAP1 JUMPDEST DUP2 SLOAD DUP2 MSTORE SWAP1 PUSH1 0x1 ADD SWAP1 PUSH1 0x20 ADD DUP1 DUP4 GT PUSH2 0x31CA JUMPI DUP3 SWAP1 SUB PUSH1 0x1F AND DUP3 ADD SWAP2 JUMPDEST POP POP POP POP POP DUP2 MSTORE PUSH1 0x20 ADD SWAP1 PUSH1 0x1 ADD SWAP1 PUSH2 0x314F JUMP JUMPDEST CALLER PUSH1 0x1 PUSH1 0x1 PUSH1 0xA0 SHL SUB PUSH32 0x0 AND EQ PUSH2 0x3282 JUMPI PUSH1 0x40 MLOAD PUSH3 0x461BCD PUSH1 0xE5 SHL DUP2 MSTORE PUSH1 0x20 PUSH1 0x4 DUP3 ADD MSTORE PUSH1 0x26 PUSH1 0x24 DUP3 ADD MSTORE PUSH32 0x4F6E6C792073706F6E736F722063616E2072656D6F76652061646D696E697374 PUSH1 0x44 DUP3 ADD MSTORE PUSH6 0x7261746F7273 PUSH1 0xD0 SHL PUSH1 0x64 DUP3 ADD MSTORE PUSH1 0x84 ADD PUSH2 0x640 JUMP JUMPDEST PUSH1 0x1 PUSH1 0x1 PUSH1 0xA0 SHL SUB AND PUSH1 0x0 SWAP1 DUP2 MSTORE PUSH1 0x10 PUSH1 0x20 MSTORE PUSH1 0x40 SWAP1 KECCAK256 DUP1 SLOAD PUSH1 0xFF NOT AND SWAP1 SSTORE JUMP JUMPDEST PUSH1 0x1 PUSH1 0x1 PUSH1 0xA0 SHL SUB DUP6 AND PUSH2 0x32F9 JUMPI PUSH1 0x40 MLOAD PUSH3 0x461BCD PUSH1 0xE5 SHL DUP2 MSTORE PUSH1 0x20 PUSH1 0x4 DUP3 ADD DUP2 SWAP1 MSTORE PUSH1 0x24 DUP3 ADD MSTORE PUSH32 0x526563697069656E742063616E6E6F74206265207A65726F2061646472657373 PUSH1 0x44 DUP3 ADD MSTORE PUSH1 0x64 ADD PUSH2 0x640 JUMP JUMPDEST CALLER PUSH1 0x1 PUSH1 0x1 PUSH1 0xA0 SHL SUB DUP7 AND SUB PUSH2 0x3351 JUMPI PUSH1 0x40 MLOAD PUSH3 0x461BCD PUSH1 0xE5 SHL DUP2 MSTORE PUSH1 0x20 PUSH1 0x4 DUP3 ADD MSTORE PUSH1 0x17 PUSH1 0x24 DUP3 ADD MSTORE PUSH32 0x43616E6E6F74206D65737361676520796F757273656C66000000000000000000 PUSH1 0x44 DUP3 ADD MSTORE PUSH1 0x64 ADD PUSH2 0x640 JUMP JUMPDEST PUSH1 0x0 DUP2 MLOAD GT PUSH2 0x339E JUMPI PUSH1 0x40 MLOAD PUSH3 0x461BCD PUSH1 0xE5 SHL DUP2 MSTORE PUSH1 0x20 PUSH1 0x4 DUP3 ADD MSTORE PUSH1 0x19 PUSH1 0x24 DUP3 ADD MSTORE PUSH25 0x4950465320686173682063616E6E6F7420626520656D707479 PUSH1 0x38 SHL PUSH1 0x44 DUP3 ADD MSTORE PUSH1 0x64 ADD PUSH2 0x640 JUMP JUMPDEST PUSH1 0x0 PUSH2 0x33AA CALLER DUP8 PUSH2 0x44CB JUMP JUMPDEST PUSH1 0x0 DUP2 DUP2 MSTORE PUSH1 0x1 PUSH1 0x20 MSTORE PUSH1 0x40 DUP2 KECCAK256 SLOAD SWAP2 SWAP3 POP SUB PUSH2 0x3405 JUMPI CALLER PUSH1 0x0 SWAP1 DUP2 MSTORE PUSH1 0x4 PUSH1 0x20 SWAP1 DUP2 MSTORE PUSH1 0x40 DUP1 DUP4 KECCAK256 DUP1 SLOAD PUSH1 0x1 DUP2 DUP2 ADD DUP4 SSTORE SWAP2 DUP6 MSTORE DUP4 DUP6 KECCAK256 ADD DUP6 SWAP1 SSTORE PUSH1 0x1 PUSH1 0x1 PUSH1 0xA0 SHL SUB DUP11 AND DUP5 MSTORE SWAP1 DUP4 KECCAK256 DUP1 SLOAD SWAP2 DUP3 ADD DUP2 SSTORE DUP4 MSTORE SWAP2 KECCAK256 ADD DUP2 SWAP1 SSTORE JUMPDEST PUSH1 0x1 PUSH1 0x0 DUP3 DUP2 MSTORE PUSH1 0x20 ADD SWAP1 DUP2 MSTORE PUSH1 0x20 ADD PUSH1 0x0 KECCAK256 PUSH1 0x40 MLOAD DUP1 PUSH2 0x100 ADD PUSH1 0x40 MSTORE DUP1 CALLER PUSH1 0x1 PUSH1 0x1 PUSH1 0xA0 SHL SUB AND DUP2 MSTORE PUSH1 0x20 ADD DUP9 PUSH1 0x1 PUSH1 0x1 PUSH1 0xA0 SHL SUB AND DUP2 MSTORE PUSH1 0x20 ADD DUP7 DUP2 MSTORE PUSH1 0x20 ADD DUP8 DUP2 MSTORE PUSH1 0x20 ADD DUP6 DUP2 MSTORE PUSH1 0x20 ADD DUP5 DUP2 MSTORE PUSH1 0x20 ADD PUSH1 0x1 DUP1 DUP2 GT ISZERO PUSH2 0x346C JUMPI PUSH2 0x346C PUSH2 0x6872 JUMP JUMPDEST DUP2 MSTORE TIMESTAMP PUSH1 0x20 SWAP2 DUP3 ADD MSTORE DUP3 SLOAD PUSH1 0x1 DUP1 DUP3 ADD DUP6 SSTORE PUSH1 0x0 SWAP5 DUP6 MSTORE SWAP4 DUP3 SWAP1 KECCAK256 DUP4 MLOAD PUSH1 0x8 SWAP1 SWAP3 MUL ADD DUP1 SLOAD PUSH1 0x1 PUSH1 0x1 PUSH1 0xA0 SHL SUB NOT SWAP1 DUP2 AND PUSH1 0x1 PUSH1 0x1 PUSH1 0xA0 SHL SUB SWAP4 DUP5 AND OR DUP3 SSTORE SWAP3 DUP5 ADD MLOAD SWAP5 DUP2 ADD DUP1 SLOAD SWAP1 SWAP4 AND SWAP5 SWAP1 SWAP2 AND SWAP4 SWAP1 SWAP4 OR SWAP1 SSTORE PUSH1 0x40 DUP2 ADD MLOAD SWAP1 SWAP2 SWAP1 PUSH1 0x2 DUP3 ADD SWAP1 PUSH2 0x34D8 SWAP1 DUP3 PUSH2 0x71C1 JUMP JUMPDEST POP PUSH1 0x60 DUP3 ADD MLOAD PUSH1 0x3 DUP3 ADD SWAP1 PUSH2 0x34ED SWAP1 DUP3 PUSH2 0x71C1 JUMP JUMPDEST POP PUSH1 0x80 DUP3 ADD MLOAD PUSH1 0x4 DUP3 ADD SWAP1 PUSH2 0x3502 SWAP1 DUP3 PUSH2 0x71C1 JUMP JUMPDEST POP PUSH1 0xA0 DUP3 ADD MLOAD PUSH1 0x5 DUP3 ADD SWAP1 PUSH2 0x3517 SWAP1 DUP3 PUSH2 0x71C1 JUMP JUMPDEST POP PUSH1 0xC0 DUP3 ADD MLOAD PUSH1 0x6 DUP3 ADD DUP1 SLOAD PUSH1 0xFF NOT AND PUSH1 0x1 DUP4 DUP2 DUP2 GT ISZERO PUSH2 0x353A JUMPI PUSH2 0x353A PUSH2 0x6872 JUMP JUMPDEST MUL OR SWAP1 SSTORE POP PUSH1 0xE0 SWAP2 SWAP1 SWAP2 ADD MLOAD PUSH1 0x7 SWAP1 SWAP2 ADD SSTORE DUP5 MLOAD ISZERO PUSH2 0x357E JUMPI CALLER PUSH1 0x0 SWAP1 DUP2 MSTORE PUSH1 0x3 PUSH1 0x20 SWAP1 DUP2 MSTORE PUSH1 0x40 DUP3 KECCAK256 DUP1 SLOAD PUSH1 0x1 DUP2 ADD DUP3 SSTORE SWAP1 DUP4 MSTORE SWAP2 KECCAK256 ADD PUSH2 0x357C DUP7 DUP3 PUSH2 0x71C1 JUMP JUMPDEST POP JUMPDEST DUP6 PUSH1 0x1 PUSH1 0x1 PUSH1 0xA0 SHL SUB AND CALLER PUSH1 0x1 PUSH1 0x1 PUSH1 0xA0 SHL SUB AND PUSH32 0xB6E5BEA89E5044D66FF49940BA0401DB7BEC08DAACADB6D06705264874A40FEA DUP5 DUP7 TIMESTAMP PUSH1 0x40 MLOAD PUSH2 0xBDD SWAP4 SWAP3 SWAP2 SWAP1 PUSH2 0x7363 JUMP JUMPDEST CALLER PUSH1 0x1 PUSH1 0x1 PUSH1 0xA0 SHL SUB PUSH32 0x0 AND EQ DUP1 PUSH2 0x360B JUMPI POP CALLER PUSH1 0x0 SWAP1 DUP2 MSTORE PUSH1 0x10 PUSH1 0x20 MSTORE PUSH1 0x40 SWAP1 KECCAK256 SLOAD PUSH1 0xFF AND JUMPDEST PUSH2 0x366B JUMPI PUSH1 0x40 MLOAD PUSH3 0x461BCD PUSH1 0xE5 SHL DUP2 MSTORE PUSH1 0x20 PUSH1 0x4 DUP3 ADD MSTORE PUSH1 0x3B PUSH1 0x24 DUP3 ADD MSTORE PUSH1 0x0 DUP1 MLOAD PUSH1 0x20 PUSH2 0x746C DUP4 CODECOPY DUP2 MLOAD SWAP2 MSTORE PUSH1 0x44 DUP3 ADD MSTORE PUSH32 0x616E2064656C657465207075626C696320617474726962757465730000000000 PUSH1 0x64 DUP3 ADD MSTORE PUSH1 0x84 ADD PUSH2 0x640 JUMP JUMPDEST PUSH1 0xC DUP2 PUSH1 0x40 MLOAD PUSH2 0x367B SWAP2 SWAP1 PUSH2 0x6F34 JUMP JUMPDEST SWAP1 DUP2 MSTORE PUSH1 0x20 ADD PUSH1 0x40 MLOAD DUP1 SWAP2 SUB SWAP1 KECCAK256 PUSH1 0x0 PUSH2 0x3695 SWAP2 SWAP1 PUSH2 0x61B9 JUMP JUMPDEST PUSH1 0x0 JUMPDEST PUSH1 0xE SLOAD DUP2 LT ISZERO PUSH2 0x1F38 JUMPI DUP2 DUP1 MLOAD SWAP1 PUSH1 0x20 ADD KECCAK256 PUSH1 0xE DUP3 DUP2 SLOAD DUP2 LT PUSH2 0x36BD JUMPI PUSH2 0x36BD PUSH2 0x6F50 JUMP JUMPDEST SWAP1 PUSH1 0x0 MSTORE PUSH1 0x20 PUSH1 0x0 KECCAK256 ADD PUSH1 0x40 MLOAD PUSH2 0x36D4 SWAP2 SWAP1 PUSH2 0x710A JUMP JUMPDEST PUSH1 0x40 MLOAD DUP1 SWAP2 SUB SWAP1 KECCAK256 SUB PUSH2 0x3746 JUMPI PUSH1 0xE DUP1 SLOAD PUSH2 0x36F1 SWAP1 PUSH1 0x1 SWAP1 PUSH2 0x6F7C JUMP JUMPDEST DUP2 SLOAD DUP2 LT PUSH2 0x3701 JUMPI PUSH2 0x3701 PUSH2 0x6F50 JUMP JUMPDEST SWAP1 PUSH1 0x0 MSTORE PUSH1 0x20 PUSH1 0x0 KECCAK256 ADD PUSH1 0xE DUP3 DUP2 SLOAD DUP2 LT PUSH2 0x371E JUMPI PUSH2 0x371E PUSH2 0x6F50 JUMP JUMPDEST SWAP1 PUSH1 0x0 MSTORE PUSH1 0x20 PUSH1 0x0 KECCAK256 ADD SWAP1 DUP2 PUSH2 0x3734 SWAP2 SWAP1 PUSH2 0x7015 JUMP JUMPDEST POP PUSH1 0xE DUP1 SLOAD DUP1 PUSH2 0x1F0E JUMPI PUSH2 0x1F0E PUSH2 0x70F4 JUMP JUMPDEST PUSH1 0x1 ADD PUSH2 0x3698 JUMP JUMPDEST CALLER PUSH1 0x1 PUSH1 0x1 PUSH1 0xA0 SHL SUB PUSH32 0x0 AND EQ DUP1 PUSH2 0x3794 JUMPI POP CALLER PUSH1 0x0 SWAP1 DUP2 MSTORE PUSH1 0x10 PUSH1 0x20 MSTORE PUSH1 0x40 SWAP1 KECCAK256 SLOAD PUSH1 0xFF AND JUMPDEST PUSH2 0x37F4 JUMPI PUSH1 0x40 MLOAD PUSH3 0x461BCD PUSH1 0xE5 SHL DUP2 MSTORE PUSH1 0x20 PUSH1 0x4 DUP3 ADD MSTORE PUSH1 0x38 PUSH1 0x24 DUP3 ADD MSTORE PUSH1 0x0 DUP1 MLOAD PUSH1 0x20 PUSH2 0x746C DUP4 CODECOPY DUP2 MLOAD SWAP2 MSTORE PUSH1 0x44 DUP3 ADD MSTORE PUSH32 0x616E20736574207075626C696320617474726962757465730000000000000000 PUSH1 0x64 DUP3 ADD MSTORE PUSH1 0x84 ADD PUSH2 0x640 JUMP JUMPDEST PUSH1 0x0 DUP3 MLOAD GT PUSH2 0x383B JUMPI PUSH1 0x40 MLOAD PUSH3 0x461BCD PUSH1 0xE5 SHL DUP2 MSTORE PUSH1 0x20 PUSH1 0x4 DUP3 ADD MSTORE PUSH1 0x13 PUSH1 0x24 DUP3 ADD MSTORE PUSH19 0x4B65792063616E6E6F7420626520656D707479 PUSH1 0x68 SHL PUSH1 0x44 DUP3 ADD MSTORE PUSH1 0x64 ADD PUSH2 0x640 JUMP JUMPDEST PUSH1 0xC DUP3 PUSH1 0x40 MLOAD PUSH2 0x384B SWAP2 SWAP1 PUSH2 0x6F34 JUMP JUMPDEST SWAP1 DUP2 MSTORE PUSH1 0x20 ADD PUSH1 0x40 MLOAD DUP1 SWAP2 SUB SWAP1 KECCAK256 DUP1 SLOAD PUSH2 0x3864 SWAP1 PUSH2 0x6F8F JUMP JUMPDEST SWAP1 POP PUSH1 0x0 SUB PUSH2 0x38AB JUMPI PUSH1 0xE DUP1 SLOAD PUSH1 0x1 DUP2 ADD DUP3 SSTORE PUSH1 0x0 SWAP2 SWAP1 SWAP2 MSTORE PUSH32 0xBB7B4A454DC3493923482F07822329ED19E8244EFF582CC204F8554C3620C3FD ADD PUSH2 0x38A9 DUP4 DUP3 PUSH2 0x71C1 JUMP JUMPDEST POP JUMPDEST DUP1 PUSH1 0xC DUP4 PUSH1 0x40 MLOAD PUSH2 0x38BC SWAP2 SWAP1 PUSH2 0x6F34 JUMP JUMPDEST SWAP1 DUP2 MSTORE PUSH1 0x20 ADD PUSH1 0x40 MLOAD DUP1 SWAP2 SUB SWAP1 KECCAK256 SWAP1 DUP2 PUSH2 0x38D6 SWAP2 SWAP1 PUSH2 0x71C1 JUMP JUMPDEST POP DUP2 PUSH1 0x40 MLOAD PUSH2 0x38E5 SWAP2 SWAP1 PUSH2 0x6F34 JUMP JUMPDEST PUSH1 0x40 DUP1 MLOAD SWAP2 DUP3 SWAP1 SUB DUP3 KECCAK256 PUSH1 0x1 DUP4 MSTORE TIMESTAMP PUSH1 0x20 DUP5 ADD MSTORE SWAP2 PUSH32 0x590120A97FEA9EAE0AB7F73633C407E0D9F528198B43F5ADED24FC1641466744 SWAP2 ADD JUMPDEST PUSH1 0x40 MLOAD DUP1 SWAP2 SUB SWAP1 LOG2 POP POP JUMP JUMPDEST PUSH1 0x60 PUSH1 0xC DUP3 PUSH1 0x40 MLOAD PUSH2 0x393C SWAP2 SWAP1 PUSH2 0x6F34 JUMP JUMPDEST SWAP1 DUP2 MSTORE PUSH1 0x20 ADD PUSH1 0x40 MLOAD DUP1 SWAP2 SUB SWAP1 KECCAK256 DUP1 SLOAD PUSH2 0x3955 SWAP1 PUSH2 0x6F8F JUMP JUMPDEST DUP1 PUSH1 0x1F ADD PUSH1 0x20 DUP1 SWAP2 DIV MUL PUSH1 0x20 ADD PUSH1 0x40 MLOAD SWAP1 DUP2 ADD PUSH1 0x40 MSTORE DUP1 SWAP3 SWAP2 SWAP1 DUP2 DUP2 MSTORE PUSH1 0x20 ADD DUP3 DUP1 SLOAD PUSH2 0x3981 SWAP1 PUSH2 0x6F8F JUMP JUMPDEST DUP1 ISZERO PUSH2 0x39CE JUMPI DUP1 PUSH1 0x1F LT PUSH2 0x39A3 JUMPI PUSH2 0x100 DUP1 DUP4 SLOAD DIV MUL DUP4 MSTORE SWAP2 PUSH1 0x20 ADD SWAP2 PUSH2 0x39CE JUMP JUMPDEST DUP3 ADD SWAP2 SWAP1 PUSH1 0x0 MSTORE PUSH1 0x20 PUSH1 0x0 KECCAK256 SWAP1 JUMPDEST DUP2 SLOAD DUP2 MSTORE SWAP1 PUSH1 0x1 ADD SWAP1 PUSH1 0x20 ADD DUP1 DUP4 GT PUSH2 0x39B1 JUMPI DUP3 SWAP1 SUB PUSH1 0x1F AND DUP3 ADD SWAP2 JUMPDEST POP POP POP POP POP SWAP1 POP SWAP2 SWAP1 POP JUMP JUMPDEST PUSH1 0x1 PUSH1 0x1 PUSH1 0xA0 SHL SUB DUP4 AND PUSH1 0x0 SWAP1 DUP2 MSTORE PUSH1 0x5 PUSH1 0x20 MSTORE PUSH1 0x40 DUP1 DUP3 KECCAK256 SWAP1 MLOAD DUP3 SWAP2 SWAP1 PUSH2 0x3A03 SWAP1 DUP7 SWAP1 PUSH2 0x6F34 JUMP JUMPDEST SWAP1 DUP2 MSTORE PUSH1 0x20 ADD PUSH1 0x40 MLOAD DUP1 SWAP2 SUB SWAP1 KECCAK256 DUP1 SLOAD DUP1 PUSH1 0x20 MUL PUSH1 0x20 ADD PUSH1 0x40 MLOAD SWAP1 DUP2 ADD PUSH1 0x40 MSTORE DUP1 SWAP3 SWAP2 SWAP1 DUP2 DUP2 MSTORE PUSH1 0x20 ADD PUSH1 0x0 SWAP1 JUMPDEST DUP3 DUP3 LT ISZERO PUSH2 0x3BAE JUMPI PUSH1 0x0 DUP5 DUP2 MSTORE PUSH1 0x20 SWAP1 DUP2 SWAP1 KECCAK256 PUSH1 0x40 DUP1 MLOAD PUSH1 0x80 DUP2 ADD SWAP1 SWAP2 MSTORE PUSH1 0x4 DUP6 MUL SWAP1 SWAP2 ADD DUP1 SLOAD PUSH1 0x1 PUSH1 0x1 PUSH1 0xA0 SHL SUB AND DUP3 MSTORE PUSH1 0x1 DUP2 ADD DUP1 SLOAD SWAP3 SWAP4 SWAP2 SWAP3 SWAP2 DUP5 ADD SWAP2 PUSH2 0x3A7A SWAP1 PUSH2 0x6F8F JUMP JUMPDEST DUP1 PUSH1 0x1F ADD PUSH1 0x20 DUP1 SWAP2 DIV MUL PUSH1 0x20 ADD PUSH1 0x40 MLOAD SWAP1 DUP2 ADD PUSH1 0x40 MSTORE DUP1 SWAP3 SWAP2 SWAP1 DUP2 DUP2 MSTORE PUSH1 0x20 ADD DUP3 DUP1 SLOAD PUSH2 0x3AA6 SWAP1 PUSH2 0x6F8F JUMP JUMPDEST DUP1 ISZERO PUSH2 0x3AF3 JUMPI DUP1 PUSH1 0x1F LT PUSH2 0x3AC8 JUMPI PUSH2 0x100 DUP1 DUP4 SLOAD DIV MUL DUP4 MSTORE SWAP2 PUSH1 0x20 ADD SWAP2 PUSH2 0x3AF3 JUMP JUMPDEST DUP3 ADD SWAP2 SWAP1 PUSH1 0x0 MSTORE PUSH1 0x20 PUSH1 0x0 KECCAK256 SWAP1 JUMPDEST DUP2 SLOAD DUP2 MSTORE SWAP1 PUSH1 0x1 ADD SWAP1 PUSH1 0x20 ADD DUP1 DUP4 GT PUSH2 0x3AD6 JUMPI DUP3 SWAP1 SUB PUSH1 0x1F AND DUP3 ADD SWAP2 JUMPDEST POP POP POP SWAP2 DUP4 MSTORE POP POP PUSH1 0x2 DUP3 ADD SLOAD PUSH1 0xFF AND PUSH1 0x20 DUP3 ADD MSTORE PUSH1 0x3 DUP3 ADD DUP1 SLOAD PUSH1 0x40 SWAP1 SWAP3 ADD SWAP2 PUSH2 0x3B1D SWAP1 PUSH2 0x6F8F JUMP JUMPDEST DUP1 PUSH1 0x1F ADD PUSH1 0x20 DUP1 SWAP2 DIV MUL PUSH1 0x20 ADD PUSH1 0x40 MLOAD SWAP1 DUP2 ADD PUSH1 0x40 MSTORE DUP1 SWAP3 SWAP2 SWAP1 DUP2 DUP2 MSTORE PUSH1 0x20 ADD DUP3 DUP1 SLOAD PUSH2 0x3B49 SWAP1 PUSH2 0x6F8F JUMP JUMPDEST DUP1 ISZERO PUSH2 0x3B96 JUMPI DUP1 PUSH1 0x1F LT PUSH2 0x3B6B JUMPI PUSH2 0x100 DUP1 DUP4 SLOAD DIV MUL DUP4 MSTORE SWAP2 PUSH1 0x20 ADD SWAP2 PUSH2 0x3B96 JUMP JUMPDEST DUP3 ADD SWAP2 SWAP1 PUSH1 0x0 MSTORE PUSH1 0x20 PUSH1 0x0 KECCAK256 SWAP1 JUMPDEST DUP2 SLOAD DUP2 MSTORE SWAP1 PUSH1 0x1 ADD SWAP1 PUSH1 0x20 ADD DUP1 DUP4 GT PUSH2 0x3B79 JUMPI DUP3 SWAP1 SUB PUSH1 0x1F AND DUP3 ADD SWAP2 JUMPDEST POP POP POP POP POP DUP2 MSTORE POP POP DUP2 MSTORE PUSH1 0x20 ADD SWAP1 PUSH1 0x1 ADD SWAP1 PUSH2 0x3A31 JUMP JUMPDEST POP POP POP POP SWAP1 POP PUSH1 0x0 JUMPDEST DUP2 MLOAD DUP2 LT ISZERO PUSH2 0x3C09 JUMPI DUP4 PUSH1 0x1 PUSH1 0x1 PUSH1 0xA0 SHL SUB AND DUP3 DUP3 DUP2 MLOAD DUP2 LT PUSH2 0x3BDC JUMPI PUSH2 0x3BDC PUSH2 0x6F50 JUMP JUMPDEST PUSH1 0x20 MUL PUSH1 0x20 ADD ADD MLOAD PUSH1 0x0 ADD MLOAD PUSH1 0x1 PUSH1 0x1 PUSH1 0xA0 SHL SUB AND SUB PUSH2 0x3C01 JUMPI PUSH1 0x1 SWAP3 POP POP POP PUSH2 0x1C97 JUMP JUMPDEST PUSH1 0x1 ADD PUSH2 0x3BB7 JUMP JUMPDEST POP PUSH1 0x0 SWAP6 SWAP5 POP POP POP POP POP JUMP JUMPDEST PUSH1 0x1 PUSH1 0x1 PUSH1 0xA0 SHL SUB DUP5 AND PUSH2 0x3C6B JUMPI PUSH1 0x40 MLOAD PUSH3 0x461BCD PUSH1 0xE5 SHL DUP2 MSTORE PUSH1 0x20 PUSH1 0x4 DUP3 ADD MSTORE PUSH1 0x1F PUSH1 0x24 DUP3 ADD MSTORE PUSH32 0x417070726F7665722063616E6E6F74206265207A65726F206164647265737300 PUSH1 0x44 DUP3 ADD MSTORE PUSH1 0x64 ADD PUSH2 0x640 JUMP JUMPDEST PUSH1 0x0 DUP4 MLOAD GT PUSH2 0x3CB8 JUMPI PUSH1 0x40 MLOAD PUSH3 0x461BCD PUSH1 0xE5 SHL DUP2 MSTORE PUSH1 0x20 PUSH1 0x4 DUP3 ADD MSTORE PUSH1 0x19 PUSH1 0x24 DUP3 ADD MSTORE PUSH25 0x46696C65206E616D652063616E6E6F7420626520656D707479 PUSH1 0x38 SHL PUSH1 0x44 DUP3 ADD MSTORE PUSH1 0x64 ADD PUSH2 0x640 JUMP JUMPDEST PUSH1 0x0 DUP3 MLOAD GT PUSH2 0x3D09 JUMPI PUSH1 0x40 MLOAD PUSH3 0x461BCD PUSH1 0xE5 SHL DUP2 MSTORE PUSH1 0x20 PUSH1 0x4 DUP3 ADD MSTORE PUSH1 0x19 PUSH1 0x24 DUP3 ADD MSTORE PUSH32 0x46696C6520686173682063616E6E6F7420626520656D70747900000000000000 PUSH1 0x44 DUP3 ADD MSTORE PUSH1 0x64 ADD PUSH2 0x640 JUMP JUMPDEST PUSH1 0x1 PUSH1 0x1 PUSH1 0xA0 SHL SUB DUP5 AND PUSH1 0x0 SWAP1 DUP2 MSTORE PUSH1 0xA PUSH1 0x20 MSTORE PUSH1 0x40 DUP2 KECCAK256 DUP2 JUMPDEST DUP2 SLOAD DUP2 LT ISZERO PUSH2 0x3D73 JUMPI CALLER PUSH1 0x1 PUSH1 0x1 PUSH1 0xA0 SHL SUB AND DUP3 DUP3 DUP2 SLOAD DUP2 LT PUSH2 0x3D48 JUMPI PUSH2 0x3D48 PUSH2 0x6F50 JUMP JUMPDEST PUSH1 0x0 SWAP2 DUP3 MSTORE PUSH1 0x20 SWAP1 SWAP2 KECCAK256 ADD SLOAD PUSH1 0x1 PUSH1 0x1 PUSH1 0xA0 SHL SUB AND SUB PUSH2 0x3D6B JUMPI PUSH1 0x1 SWAP3 POP PUSH2 0x3D73 JUMP JUMPDEST PUSH1 0x1 ADD PUSH2 0x3D23 JUMP JUMPDEST POP DUP2 PUSH2 0x3DB2 JUMPI PUSH1 0x1 PUSH1 0x1 PUSH1 0xA0 SHL SUB DUP7 AND PUSH1 0x0 SWAP1 DUP2 MSTORE PUSH1 0xA PUSH1 0x20 SWAP1 DUP2 MSTORE PUSH1 0x40 DUP3 KECCAK256 DUP1 SLOAD PUSH1 0x1 DUP2 ADD DUP3 SSTORE SWAP1 DUP4 MSTORE SWAP2 KECCAK256 ADD DUP1 SLOAD PUSH1 0x1 PUSH1 0x1 PUSH1 0xA0 SHL SUB NOT AND CALLER OR SWAP1 SSTORE JUMPDEST CALLER PUSH1 0x0 SWAP1 DUP2 MSTORE PUSH1 0xB PUSH1 0x20 MSTORE PUSH1 0x40 DUP2 KECCAK256 DUP2 JUMPDEST DUP2 SLOAD DUP2 LT ISZERO PUSH2 0x3E13 JUMPI DUP9 PUSH1 0x1 PUSH1 0x1 PUSH1 0xA0 SHL SUB AND DUP3 DUP3 DUP2 SLOAD DUP2 LT PUSH2 0x3DE8 JUMPI PUSH2 0x3DE8 PUSH2 0x6F50 JUMP JUMPDEST PUSH1 0x0 SWAP2 DUP3 MSTORE PUSH1 0x20 SWAP1 SWAP2 KECCAK256 ADD SLOAD PUSH1 0x1 PUSH1 0x1 PUSH1 0xA0 SHL SUB AND SUB PUSH2 0x3E0B JUMPI PUSH1 0x1 SWAP3 POP PUSH2 0x3E13 JUMP JUMPDEST PUSH1 0x1 ADD PUSH2 0x3DC3 JUMP JUMPDEST POP DUP2 PUSH2 0x3E52 JUMPI CALLER PUSH1 0x0 SWAP1 DUP2 MSTORE PUSH1 0xB PUSH1 0x20 SWAP1 DUP2 MSTORE PUSH1 0x40 DUP3 KECCAK256 DUP1 SLOAD PUSH1 0x1 DUP2 ADD DUP3 SSTORE SWAP1 DUP4 MSTORE SWAP2 KECCAK256 ADD DUP1 SLOAD PUSH1 0x1 PUSH1 0x1 PUSH1 0xA0 SHL SUB NOT AND PUSH1 0x1 PUSH1 0x1 PUSH1 0xA0 SHL SUB DUP11 AND OR SWAP1 SSTORE JUMPDEST PUSH1 0x40 DUP1 MLOAD PUSH1 0xA0 DUP2 ADD DUP3 MSTORE PUSH1 0x0 DUP1 DUP3 MSTORE PUSH1 0x20 DUP1 DUP4 ADD DUP12 DUP2 MSTORE DUP4 DUP6 ADD DUP12 SWAP1 MSTORE PUSH1 0x60 DUP5 ADD DUP4 SWAP1 MSTORE PUSH1 0x1 PUSH1 0x80 DUP6 ADD DUP2 SWAP1 MSTORE PUSH1 0x1 PUSH1 0x1 PUSH1 0xA0 SHL SUB DUP15 AND DUP5 MSTORE PUSH1 0x9 DUP4 MSTORE DUP6 DUP5 KECCAK256 CALLER DUP6 MSTORE DUP4 MSTORE SWAP5 DUP4 KECCAK256 DUP1 SLOAD DUP1 DUP8 ADD DUP3 SSTORE SWAP1 DUP5 MSTORE SWAP2 SWAP1 SWAP3 KECCAK256 DUP4 MLOAD PUSH1 0x5 SWAP1 SWAP3 MUL ADD DUP1 SLOAD PUSH1 0xFF NOT AND SWAP2 ISZERO ISZERO SWAP2 SWAP1 SWAP2 OR DUP2 SSTORE SWAP1 MLOAD SWAP2 SWAP3 DUP4 SWAP3 SWAP1 DUP3 ADD SWAP1 PUSH2 0x3ED3 SWAP1 DUP3 PUSH2 0x71C1 JUMP JUMPDEST POP PUSH1 0x40 DUP3 ADD MLOAD PUSH1 0x2 DUP3 ADD SWAP1 PUSH2 0x3EE8 SWAP1 DUP3 PUSH2 0x71C1 JUMP JUMPDEST POP PUSH1 0x60 DUP3 ADD MLOAD PUSH1 0x3 DUP3 ADD SSTORE PUSH1 0x80 SWAP1 SWAP2 ADD MLOAD PUSH1 0x4 SWAP1 SWAP2 ADD DUP1 SLOAD PUSH1 0xFF NOT AND SWAP2 ISZERO ISZERO SWAP2 SWAP1 SWAP2 OR SWAP1 SSTORE PUSH1 0x40 MLOAD CALLER SWAP1 PUSH1 0x1 PUSH1 0x1 PUSH1 0xA0 SHL SUB DUP12 AND SWAP1 PUSH32 0x77B5F9C2D9C3BD8746BEB63AF36552109A2F92F947920BA0994ACB2DEB3E3B8B SWAP1 PUSH2 0x3F4E SWAP1 DUP13 SWAP1 DUP13 SWAP1 TIMESTAMP SWAP1 PUSH2 0x7363 JUMP JUMPDEST PUSH1 0x40 MLOAD DUP1 SWAP2 SUB SWAP1 LOG3 POP POP POP POP POP POP POP POP POP JUMP JUMPDEST CALLER PUSH1 0x1 PUSH1 0x1 PUSH1 0xA0 SHL SUB PUSH32 0x0 AND EQ DUP1 PUSH2 0x3FA7 JUMPI POP CALLER PUSH1 0x0 SWAP1 DUP2 MSTORE PUSH1 0x10 PUSH1 0x20 MSTORE PUSH1 0x40 SWAP1 KECCAK256 SLOAD PUSH1 0xFF AND JUMPDEST PUSH2 0x4007 JUMPI PUSH1 0x40 MLOAD PUSH3 0x461BCD PUSH1 0xE5 SHL DUP2 MSTORE PUSH1 0x20 PUSH1 0x4 DUP3 ADD MSTORE PUSH1 0x39 PUSH1 0x24 DUP3 ADD MSTORE PUSH1 0x0 DUP1 MLOAD PUSH1 0x20 PUSH2 0x746C DUP4 CODECOPY DUP2 MLOAD SWAP2 MSTORE PUSH1 0x44 DUP3 ADD MSTORE PUSH32 0x616E207365742070726976617465206174747269627574657300000000000000 PUSH1 0x64 DUP3 ADD MSTORE PUSH1 0x84 ADD PUSH2 0x640 JUMP JUMPDEST PUSH1 0x0 DUP3 MLOAD GT PUSH2 0x404E JUMPI PUSH1 0x40 MLOAD PUSH3 0x461BCD PUSH1 0xE5 SHL DUP2 MSTORE PUSH1 0x20 PUSH1 0x4 DUP3 ADD MSTORE PUSH1 0x13 PUSH1 0x24 DUP3 ADD MSTORE PUSH19 0x4B65792063616E6E6F7420626520656D707479 PUSH1 0x68 SHL PUSH1 0x44 DUP3 ADD MSTORE PUSH1 0x64 ADD PUSH2 0x640 JUMP JUMPDEST PUSH1 0xD DUP3 PUSH1 0x40 MLOAD PUSH2 0x405E SWAP2 SWAP1 PUSH2 0x6F34 JUMP JUMPDEST SWAP1 DUP2 MSTORE PUSH1 0x20 ADD PUSH1 0x40 MLOAD DUP1 SWAP2 SUB SWAP1 KECCAK256 DUP1 SLOAD PUSH2 0x4077 SWAP1 PUSH2 0x6F8F JUMP JUMPDEST SWAP1 POP PUSH1 0x0 SUB PUSH2 0x40BE JUMPI PUSH1 0xF DUP1 SLOAD PUSH1 0x1 DUP2 ADD DUP3 SSTORE PUSH1 0x0 SWAP2 SWAP1 SWAP2 MSTORE PUSH32 0x8D1108E10BCB7C27DDDFC02ED9D693A074039D026CF4EA4240B40F7D581AC802 ADD PUSH2 0x40BC DUP4 DUP3 PUSH2 0x71C1 JUMP JUMPDEST POP JUMPDEST DUP1 PUSH1 0xD DUP4 PUSH1 0x40 MLOAD PUSH2 0x40CF SWAP2 SWAP1 PUSH2 0x6F34 JUMP JUMPDEST SWAP1 DUP2 MSTORE PUSH1 0x20 ADD PUSH1 0x40 MLOAD DUP1 SWAP2 SUB SWAP1 KECCAK256 SWAP1 DUP2 PUSH2 0x40E9 SWAP2 SWAP1 PUSH2 0x71C1 JUMP JUMPDEST POP DUP2 PUSH1 0x40 MLOAD PUSH2 0x40F8 SWAP2 SWAP1 PUSH2 0x6F34 JUMP JUMPDEST PUSH1 0x40 DUP1 MLOAD SWAP2 DUP3 SWAP1 SUB DUP3 KECCAK256 PUSH1 0x0 DUP4 MSTORE TIMESTAMP PUSH1 0x20 DUP5 ADD MSTORE SWAP2 PUSH32 0x590120A97FEA9EAE0AB7F73633C407E0D9F528198B43F5ADED24FC1641466744 SWAP2 ADD PUSH2 0x391E JUMP JUMPDEST PUSH1 0x1 PUSH1 0x1 PUSH1 0xA0 SHL SUB DUP3 AND PUSH1 0x0 SWAP1 DUP2 MSTORE PUSH1 0x5 PUSH1 0x20 MSTORE PUSH1 0x40 SWAP1 DUP2 SWAP1 KECCAK256 SWAP1 MLOAD PUSH1 0x60 SWAP2 SWAP1 PUSH2 0x4160 SWAP1 DUP5 SWAP1 PUSH2 0x6F34 JUMP JUMPDEST SWAP1 DUP2 MSTORE PUSH1 0x20 ADD PUSH1 0x40 MLOAD DUP1 SWAP2 SUB SWAP1 KECCAK256 DUP1 SLOAD DUP1 PUSH1 0x20 MUL PUSH1 0x20 ADD PUSH1 0x40 MLOAD SWAP1 DUP2 ADD PUSH1 0x40 MSTORE DUP1 SWAP3 SWAP2 SWAP1 DUP2 DUP2 MSTORE PUSH1 0x20 ADD PUSH1 0x0 SWAP1 JUMPDEST DUP3 DUP3 LT ISZERO PUSH2 0x10A1 JUMPI PUSH1 0x0 DUP5 DUP2 MSTORE PUSH1 0x20 SWAP1 DUP2 SWAP1 KECCAK256 PUSH1 0x40 DUP1 MLOAD PUSH1 0x80 DUP2 ADD SWAP1 SWAP2 MSTORE PUSH1 0x4 DUP6 MUL SWAP1 SWAP2 ADD DUP1 SLOAD PUSH1 0x1 PUSH1 0x1 PUSH1 0xA0 SHL SUB AND DUP3 MSTORE PUSH1 0x1 DUP2 ADD DUP1 SLOAD SWAP3 SWAP4 SWAP2 SWAP3 SWAP2 DUP5 ADD SWAP2 PUSH2 0x41D7 SWAP1 PUSH2 0x6F8F JUMP JUMPDEST DUP1 PUSH1 0x1F ADD PUSH1 0x20 DUP1 SWAP2 DIV MUL PUSH1 0x20 ADD PUSH1 0x40 MLOAD SWAP1 DUP2 ADD PUSH1 0x40 MSTORE DUP1 SWAP3 SWAP2 SWAP1 DUP2 DUP2 MSTORE PUSH1 0x20 ADD DUP3 DUP1 SLOAD PUSH2 0x4203 SWAP1 PUSH2 0x6F8F JUMP JUMPDEST DUP1 ISZERO PUSH2 0x4250 JUMPI DUP1 PUSH1 0x1F LT PUSH2 0x4225 JUMPI PUSH2 0x100 DUP1 DUP4 SLOAD DIV MUL DUP4 MSTORE SWAP2 PUSH1 0x20 ADD SWAP2 PUSH2 0x4250 JUMP JUMPDEST DUP3 ADD SWAP2 SWAP1 PUSH1 0x0 MSTORE PUSH1 0x20 PUSH1 0x0 KECCAK256 SWAP1 JUMPDEST DUP2 SLOAD DUP2 MSTORE SWAP1 PUSH1 0x1 ADD SWAP1 PUSH1 0x20 ADD DUP1 DUP4 GT PUSH2 0x4233 JUMPI DUP3 SWAP1 SUB PUSH1 0x1F AND DUP3 ADD SWAP2 JUMPDEST POP POP POP SWAP2 DUP4 MSTORE POP POP PUSH1 0x2 DUP3 ADD SLOAD PUSH1 0xFF AND PUSH1 0x20 DUP3 ADD MSTORE PUSH1 0x3 DUP3 ADD DUP1 SLOAD PUSH1 0x40 SWAP1 SWAP3 ADD SWAP2 PUSH2 0x427A SWAP1 PUSH2 0x6F8F JUMP JUMPDEST DUP1 PUSH1 0x1F ADD PUSH1 0x20 DUP1 SWAP2 DIV MUL PUSH1 0x20 ADD PUSH1 0x40 MLOAD SWAP1 DUP2 ADD PUSH1 0x40 MSTORE DUP1 SWAP3 SWAP2 SWAP1 DUP2 DUP2 MSTORE PUSH1 0x20 ADD DUP3 DUP1 SLOAD PUSH2 0x42A6 SWAP1 PUSH2 0x6F8F JUMP JUMPDEST DUP1 ISZERO PUSH2 0x42F3 JUMPI DUP1 PUSH1 0x1F LT PUSH2 0x42C8 JUMPI PUSH2 0x100 DUP1 DUP4 SLOAD DIV MUL DUP4 MSTORE SWAP2 PUSH1 0x20 ADD SWAP2 PUSH2 0x42F3 JUMP JUMPDEST DUP3 ADD SWAP2 SWAP1 PUSH1 0x0 MSTORE PUSH1 0x20 PUSH1 0x0 KECCAK256 SWAP1 JUMPDEST DUP2 SLOAD DUP2 MSTORE SWAP1 PUSH1 0x1 ADD SWAP1 PUSH1 0x20 ADD DUP1 DUP4 GT PUSH2 0x42D6 JUMPI DUP3 SWAP1 SUB PUSH1 0x1F AND DUP3 ADD SWAP2 JUMPDEST POP POP POP POP POP DUP2 MSTORE POP POP DUP2 MSTORE PUSH1 0x20 ADD SWAP1 PUSH1 0x1 ADD SWAP1 PUSH2 0x418E JUMP JUMPDEST PUSH1 0x1 PUSH1 0x1 PUSH1 0xA0 SHL SUB DUP1 DUP4 AND PUSH1 0x0 SWAP1 DUP2 MSTORE PUSH1 0x8 PUSH1 0x20 SWAP1 DUP2 MSTORE PUSH1 0x40 DUP1 DUP4 KECCAK256 SWAP4 DUP6 AND DUP4 MSTORE SWAP3 SWAP1 MSTORE KECCAK256 DUP1 SLOAD PUSH1 0x60 SWAP2 SWAP1 PUSH2 0x433F SWAP1 PUSH2 0x6F8F JUMP JUMPDEST DUP1 PUSH1 0x1F ADD PUSH1 0x20 DUP1 SWAP2 DIV MUL PUSH1 0x20 ADD PUSH1 0x40 MLOAD SWAP1 DUP2 ADD PUSH1 0x40 MSTORE DUP1 SWAP3 SWAP2 SWAP1 DUP2 DUP2 MSTORE PUSH1 0x20 ADD DUP3 DUP1 SLOAD PUSH2 0x436B SWAP1 PUSH2 0x6F8F JUMP JUMPDEST DUP1 ISZERO PUSH2 0x43B8 JUMPI DUP1 PUSH1 0x1F LT PUSH2 0x438D JUMPI PUSH2 0x100 DUP1 DUP4 SLOAD DIV MUL DUP4 MSTORE SWAP2 PUSH1 0x20 ADD SWAP2 PUSH2 0x43B8 JUMP JUMPDEST DUP3 ADD SWAP2 SWAP1 PUSH1 0x0 MSTORE PUSH1 0x20 PUSH1 0x0 KECCAK256 SWAP1 JUMPDEST DUP2 SLOAD DUP2 MSTORE SWAP1 PUSH1 0x1 ADD SWAP1 PUSH1 0x20 ADD DUP1 DUP4 GT PUSH2 0x439B JUMPI DUP3 SWAP1 SUB PUSH1 0x1F AND DUP3 ADD SWAP2 JUMPDEST POP POP POP POP POP SWAP1 POP SWAP3 SWAP2 POP POP JUMP JUMPDEST DUP1 MLOAD PUSH1 0x20 DUP2 DUP4 ADD DUP2 ADD DUP1 MLOAD PUSH1 0xC DUP3 MSTORE SWAP3 DUP3 ADD SWAP2 SWAP1 SWAP4 ADD KECCAK256 SWAP2 MSTORE DUP1 SLOAD PUSH2 0x43E9 SWAP1 PUSH2 0x6F8F JUMP JUMPDEST DUP1 PUSH1 0x1F ADD PUSH1 0x20 DUP1 SWAP2 DIV MUL PUSH1 0x20 ADD PUSH1 0x40 MLOAD SWAP1 DUP2 ADD PUSH1 0x40 MSTORE DUP1 SWAP3 SWAP2 SWAP1 DUP2 DUP2 MSTORE PUSH1 0x20 ADD DUP3 DUP1 SLOAD PUSH2 0x4415 SWAP1 PUSH2 0x6F8F JUMP JUMPDEST DUP1 ISZERO PUSH2 0x4462 JUMPI DUP1 PUSH1 0x1F LT PUSH2 0x4437 JUMPI PUSH2 0x100 DUP1 DUP4 SLOAD DIV MUL DUP4 MSTORE SWAP2 PUSH1 0x20 ADD SWAP2 PUSH2 0x4462 JUMP JUMPDEST DUP3 ADD SWAP2 SWAP1 PUSH1 0x0 MSTORE PUSH1 0x20 PUSH1 0x0 KECCAK256 SWAP1 JUMPDEST DUP2 SLOAD DUP2 MSTORE SWAP1 PUSH1 0x1 ADD SWAP1 PUSH1 0x20 ADD DUP1 DUP4 GT PUSH2 0x4445 JUMPI DUP3 SWAP1 SUB PUSH1 0x1F AND DUP3 ADD SWAP2 JUMPDEST POP POP POP POP POP DUP2 JUMP JUMPDEST CALLER PUSH1 0x0 SWAP1 DUP2 MSTORE PUSH1 0x4 PUSH1 0x20 SWAP1 DUP2 MSTORE PUSH1 0x40 SWAP2 DUP3 SWAP1 KECCAK256 DUP1 SLOAD DUP4 MLOAD DUP2 DUP5 MUL DUP2 ADD DUP5 ADD SWAP1 SWAP5 MSTORE DUP1 DUP5 MSTORE PUSH1 0x60 SWAP4 SWAP3 DUP4 ADD DUP3 DUP3 DUP1 ISZERO PUSH2 0x44C1 JUMPI PUSH1 0x20 MUL DUP3 ADD SWAP2 SWAP1 PUSH1 0x0 MSTORE PUSH1 0x20 PUSH1 0x0 KECCAK256 SWAP1 JUMPDEST DUP2 SLOAD DUP2 MSTORE PUSH1 0x20 ADD SWAP1 PUSH1 0x1 ADD SWAP1 DUP1 DUP4 GT PUSH2 0x44AD JUMPI JUMPDEST POP POP POP POP POP SWAP1 POP SWAP1 JUMP JUMPDEST PUSH1 0x0 DUP1 PUSH1 0x0 DUP4 PUSH1 0x1 PUSH1 0x1 PUSH1 0xA0 SHL SUB AND DUP6 PUSH1 0x1 PUSH1 0x1 PUSH1 0xA0 SHL SUB AND LT PUSH2 0x44F0 JUMPI DUP4 DUP6 PUSH2 0x44F3 JUMP JUMPDEST DUP5 DUP5 JUMPDEST PUSH1 0x40 MLOAD PUSH12 0xFFFFFFFFFFFFFFFFFFFFFFFF NOT PUSH1 0x60 DUP5 DUP2 SHL DUP3 AND PUSH1 0x20 DUP5 ADD MSTORE DUP4 SWAP1 SHL AND PUSH1 0x34 DUP3 ADD MSTORE SWAP2 SWAP4 POP SWAP2 POP PUSH1 0x48 ADD PUSH1 0x40 MLOAD PUSH1 0x20 DUP2 DUP4 SUB SUB DUP2 MSTORE SWAP1 PUSH1 0x40 MSTORE DUP1 MLOAD SWAP1 PUSH1 0x20 ADD KECCAK256 SWAP3 POP POP POP SWAP3 SWAP2 POP POP JUMP JUMPDEST PUSH1 0x0 DUP1 SLOAD PUSH2 0x43E9 SWAP1 PUSH2 0x6F8F JUMP JUMPDEST PUSH1 0x1 PUSH1 0x1 PUSH1 0xA0 SHL SUB DUP2 AND PUSH1 0x0 SWAP1 DUP2 MSTORE PUSH1 0xB PUSH1 0x20 SWAP1 DUP2 MSTORE PUSH1 0x40 DUP1 DUP4 KECCAK256 DUP1 SLOAD DUP3 MLOAD DUP2 DUP6 MUL DUP2 ADD DUP6 ADD SWAP1 SWAP4 MSTORE DUP1 DUP4 MSTORE PUSH1 0x60 SWAP5 SWAP4 DUP4 ADD DUP3 DUP3 DUP1 ISZERO PUSH2 0x45B7 JUMPI PUSH1 0x20 MUL DUP3 ADD SWAP2 SWAP1 PUSH1 0x0 MSTORE PUSH1 0x20 PUSH1 0x0 KECCAK256 SWAP1 JUMPDEST DUP2 SLOAD PUSH1 0x1 PUSH1 0x1 PUSH1 0xA0 SHL SUB AND DUP2 MSTORE PUSH1 0x1 SWAP1 SWAP2 ADD SWAP1 PUSH1 0x20 ADD DUP1 DUP4 GT PUSH2 0x4599 JUMPI JUMPDEST POP POP POP POP POP SWAP1 POP PUSH1 0x0 DUP1 JUMPDEST DUP3 MLOAD DUP2 LT ISZERO PUSH2 0x4645 JUMPI PUSH1 0x9 PUSH1 0x0 DUP5 DUP4 DUP2 MLOAD DUP2 LT PUSH2 0x45E1 JUMPI PUSH2 0x45E1 PUSH2 0x6F50 JUMP JUMPDEST PUSH1 0x20 MUL PUSH1 0x20 ADD ADD MLOAD PUSH1 0x1 PUSH1 0x1 PUSH1 0xA0 SHL SUB AND PUSH1 0x1 PUSH1 0x1 PUSH1 0xA0 SHL SUB AND DUP2 MSTORE PUSH1 0x20 ADD SWAP1 DUP2 MSTORE PUSH1 0x20 ADD PUSH1 0x0 KECCAK256 PUSH1 0x0 DUP7 PUSH1 0x1 PUSH1 0x1 PUSH1 0xA0 SHL SUB AND PUSH1 0x1 PUSH1 0x1 PUSH1 0xA0 SHL SUB AND DUP2 MSTORE PUSH1 0x20 ADD SWAP1 DUP2 MSTORE PUSH1 0x20 ADD PUSH1 0x0 KECCAK256 DUP1 SLOAD SWAP1 POP DUP3 PUSH2 0x463B SWAP2 SWAP1 PUSH2 0x73D7 JUMP JUMPDEST SWAP2 POP PUSH1 0x1 ADD PUSH2 0x45C2 JUMP JUMPDEST POP PUSH1 0x0 DUP2 PUSH1 0x1 PUSH1 0x1 PUSH1 0x40 SHL SUB DUP2 GT ISZERO PUSH2 0x4660 JUMPI PUSH2 0x4660 PUSH2 0x6412 JUMP JUMPDEST PUSH1 0x40 MLOAD SWAP1 DUP1 DUP3 MSTORE DUP1 PUSH1 0x20 MUL PUSH1 0x20 ADD DUP3 ADD PUSH1 0x40 MSTORE DUP1 ISZERO PUSH2 0x4699 JUMPI DUP2 PUSH1 0x20 ADD JUMPDEST PUSH2 0x4686 PUSH2 0x625E JUMP JUMPDEST DUP2 MSTORE PUSH1 0x20 ADD SWAP1 PUSH1 0x1 SWAP1 SUB SWAP1 DUP2 PUSH2 0x467E JUMPI SWAP1 POP JUMPDEST POP SWAP1 POP PUSH1 0x0 DUP1 JUMPDEST DUP5 MLOAD DUP2 LT ISZERO PUSH2 0x23B2 JUMPI PUSH1 0x0 DUP6 DUP3 DUP2 MLOAD DUP2 LT PUSH2 0x46BD JUMPI PUSH2 0x46BD PUSH2 0x6F50 JUMP JUMPDEST PUSH1 0x20 SWAP1 DUP2 MUL SWAP2 SWAP1 SWAP2 ADD DUP2 ADD MLOAD PUSH1 0x1 PUSH1 0x1 PUSH1 0xA0 SHL SUB DUP1 DUP3 AND PUSH1 0x0 SWAP1 DUP2 MSTORE PUSH1 0x9 DUP5 MSTORE PUSH1 0x40 DUP1 DUP3 KECCAK256 SWAP3 DUP14 AND DUP3 MSTORE SWAP2 DUP5 MSTORE DUP2 DUP2 KECCAK256 DUP1 SLOAD DUP4 MLOAD DUP2 DUP8 MUL DUP2 ADD DUP8 ADD SWAP1 SWAP5 MSTORE DUP1 DUP5 MSTORE SWAP4 SWAP6 POP SWAP1 SWAP4 SWAP2 SWAP3 SWAP1 SWAP2 DUP5 SWAP1 DUP5 ADD JUMPDEST DUP3 DUP3 LT ISZERO PUSH2 0x4893 JUMPI PUSH1 0x0 DUP5 DUP2 MSTORE PUSH1 0x20 SWAP1 DUP2 SWAP1 KECCAK256 PUSH1 0x40 DUP1 MLOAD PUSH1 0xA0 DUP2 ADD SWAP1 SWAP2 MSTORE PUSH1 0x5 DUP6 MUL SWAP1 SWAP2 ADD DUP1 SLOAD PUSH1 0xFF AND ISZERO ISZERO DUP3 MSTORE PUSH1 0x1 DUP2 ADD DUP1 SLOAD SWAP3 SWAP4 SWAP2 SWAP3 SWAP2 DUP5 ADD SWAP2 PUSH2 0x4751 SWAP1 PUSH2 0x6F8F JUMP JUMPDEST DUP1 PUSH1 0x1F ADD PUSH1 0x20 DUP1 SWAP2 DIV MUL PUSH1 0x20 ADD PUSH1 0x40 MLOAD SWAP1 DUP2 ADD PUSH1 0x40 MSTORE DUP1 SWAP3 SWAP2 SWAP1 DUP2 DUP2 MSTORE PUSH1 0x20 ADD DUP3 DUP1 SLOAD PUSH2 0x477D SWAP1 PUSH2 0x6F8F JUMP JUMPDEST DUP1 ISZERO PUSH2 0x47CA JUMPI DUP1 PUSH1 0x1F LT PUSH2 0x479F JUMPI PUSH2 0x100 DUP1 DUP4 SLOAD DIV MUL DUP4 MSTORE SWAP2 PUSH1 0x20 ADD SWAP2 PUSH2 0x47CA JUMP JUMPDEST DUP3 ADD SWAP2 SWAP1 PUSH1 0x0 MSTORE PUSH1 0x20 PUSH1 0x0 KECCAK256 SWAP1 JUMPDEST DUP2 SLOAD DUP2 MSTORE SWAP1 PUSH1 0x1 ADD SWAP1 PUSH1 0x20 ADD DUP1 DUP4 GT PUSH2 0x47AD JUMPI DUP3 SWAP1 SUB PUSH1 0x1F AND DUP3 ADD SWAP2 JUMPDEST POP POP POP POP POP DUP2 MSTORE PUSH1 0x20 ADD PUSH1 0x2 DUP3 ADD DUP1 SLOAD PUSH2 0x47E3 SWAP1 PUSH2 0x6F8F JUMP JUMPDEST DUP1 PUSH1 0x1F ADD PUSH1 0x20 DUP1 SWAP2 DIV MUL PUSH1 0x20 ADD PUSH1 0x40 MLOAD SWAP1 DUP2 ADD PUSH1 0x40 MSTORE DUP1 SWAP3 SWAP2 SWAP1 DUP2 DUP2 MSTORE PUSH1 0x20 ADD DUP3 DUP1 SLOAD PUSH2 0x480F SWAP1 PUSH2 0x6F8F JUMP JUMPDEST DUP1 ISZERO PUSH2 0x485C JUMPI DUP1 PUSH1 0x1F LT PUSH2 0x4831 JUMPI PUSH2 0x100 DUP1 DUP4 SLOAD DIV MUL DUP4 MSTORE SWAP2 PUSH1 0x20 ADD SWAP2 PUSH2 0x485C JUMP JUMPDEST DUP3 ADD SWAP2 SWAP1 PUSH1 0x0 MSTORE PUSH1 0x20 PUSH1 0x0 KECCAK256 SWAP1 JUMPDEST DUP2 SLOAD DUP2 MSTORE SWAP1 PUSH1 0x1 ADD SWAP1 PUSH1 0x20 ADD DUP1 DUP4 GT PUSH2 0x483F JUMPI DUP3 SWAP1 SUB PUSH1 0x1F AND DUP3 ADD SWAP2 JUMPDEST POP POP POP SWAP2 DUP4 MSTORE POP POP PUSH1 0x3 DUP3 ADD SLOAD PUSH1 0x20 DUP1 DUP4 ADD SWAP2 SWAP1 SWAP2 MSTORE PUSH1 0x4 SWAP1 SWAP3 ADD SLOAD PUSH1 0xFF AND ISZERO ISZERO PUSH1 0x40 SWAP1 SWAP2 ADD MSTORE SWAP1 DUP3 MSTORE PUSH1 0x1 SWAP3 SWAP1 SWAP3 ADD SWAP2 ADD PUSH2 0x470C JUMP JUMPDEST POP POP POP POP SWAP1 POP PUSH1 0x0 JUMPDEST DUP2 MLOAD DUP2 LT ISZERO PUSH2 0x49A3 JUMPI PUSH1 0x40 MLOAD DUP1 PUSH1 0xC0 ADD PUSH1 0x40 MSTORE DUP1 DUP5 PUSH1 0x1 PUSH1 0x1 PUSH1 0xA0 SHL SUB AND DUP2 MSTORE PUSH1 0x20 ADD DUP4 DUP4 DUP2 MLOAD DUP2 LT PUSH2 0x48D1 JUMPI PUSH2 0x48D1 PUSH2 0x6F50 JUMP JUMPDEST PUSH1 0x20 MUL PUSH1 0x20 ADD ADD MLOAD PUSH1 0x0 ADD MLOAD ISZERO ISZERO DUP2 MSTORE PUSH1 0x20 ADD DUP4 DUP4 DUP2 MLOAD DUP2 LT PUSH2 0x48F6 JUMPI PUSH2 0x48F6 PUSH2 0x6F50 JUMP JUMPDEST PUSH1 0x20 MUL PUSH1 0x20 ADD ADD MLOAD PUSH1 0x20 ADD MLOAD DUP2 MSTORE PUSH1 0x20 ADD DUP4 DUP4 DUP2 MLOAD DUP2 LT PUSH2 0x4919 JUMPI PUSH2 0x4919 PUSH2 0x6F50 JUMP JUMPDEST PUSH1 0x20 MUL PUSH1 0x20 ADD ADD MLOAD PUSH1 0x40 ADD MLOAD DUP2 MSTORE PUSH1 0x20 ADD DUP4 DUP4 DUP2 MLOAD DUP2 LT PUSH2 0x493C JUMPI PUSH2 0x493C PUSH2 0x6F50 JUMP JUMPDEST PUSH1 0x20 MUL PUSH1 0x20 ADD ADD MLOAD PUSH1 0x60 ADD MLOAD DUP2 MSTORE PUSH1 0x20 ADD DUP4 DUP4 DUP2 MLOAD DUP2 LT PUSH2 0x495F JUMPI PUSH2 0x495F PUSH2 0x6F50 JUMP JUMPDEST PUSH1 0x20 MUL PUSH1 0x20 ADD ADD MLOAD PUSH1 0x80 ADD MLOAD ISZERO ISZERO DUP2 MSTORE POP DUP7 DUP7 DUP2 MLOAD DUP2 LT PUSH2 0x4982 JUMPI PUSH2 0x4982 PUSH2 0x6F50 JUMP JUMPDEST PUSH1 0x20 MUL PUSH1 0x20 ADD ADD DUP2 SWAP1 MSTORE POP DUP5 DUP1 PUSH2 0x4998 SWAP1 PUSH2 0x73BE JUMP JUMPDEST SWAP6 POP POP PUSH1 0x1 ADD PUSH2 0x489C JUMP JUMPDEST POP POP POP PUSH1 0x1 ADD PUSH2 0x46A0 JUMP JUMPDEST CALLER PUSH1 0x0 SWAP1 DUP2 MSTORE PUSH1 0x7 PUSH1 0x20 SWAP1 DUP2 MSTORE PUSH1 0x40 DUP1 DUP4 KECCAK256 PUSH1 0x1 PUSH1 0x1 PUSH1 0xA0 SHL SUB DUP6 AND DUP5 MSTORE DUP3 MSTORE DUP1 DUP4 KECCAK256 DUP1 SLOAD DUP3 MLOAD DUP2 DUP6 MUL DUP2 ADD DUP6 ADD SWAP1 SWAP4 MSTORE DUP1 DUP4 MSTORE PUSH1 0x60 SWAP5 SWAP3 SWAP4 SWAP2 SWAP3 SWAP1 SWAP2 DUP5 ADD JUMPDEST DUP3 DUP3 LT ISZERO PUSH2 0x1D82 JUMPI DUP4 DUP3 SWAP1 PUSH1 0x0 MSTORE PUSH1 0x20 PUSH1 0x0 KECCAK256 SWAP1 PUSH1 0x3 MUL ADD PUSH1 0x40 MLOAD DUP1 PUSH1 0x60 ADD PUSH1 0x40 MSTORE SWAP1 DUP2 PUSH1 0x0 DUP3 ADD DUP1 SLOAD PUSH2 0x4A21 SWAP1 PUSH2 0x6F8F JUMP JUMPDEST DUP1 PUSH1 0x1F ADD PUSH1 0x20 DUP1 SWAP2 DIV MUL PUSH1 0x20 ADD PUSH1 0x40 MLOAD SWAP1 DUP2 ADD PUSH1 0x40 MSTORE DUP1 SWAP3 SWAP2 SWAP1 DUP2 DUP2 MSTORE PUSH1 0x20 ADD DUP3 DUP1 SLOAD PUSH2 0x4A4D SWAP1 PUSH2 0x6F8F JUMP JUMPDEST DUP1 ISZERO PUSH2 0x4A9A JUMPI DUP1 PUSH1 0x1F LT PUSH2 0x4A6F JUMPI PUSH2 0x100 DUP1 DUP4 SLOAD DIV MUL DUP4 MSTORE SWAP2 PUSH1 0x20 ADD SWAP2 PUSH2 0x4A9A JUMP JUMPDEST DUP3 ADD SWAP2 SWAP1 PUSH1 0x0 MSTORE PUSH1 0x20 PUSH1 0x0 KECCAK256 SWAP1 JUMPDEST DUP2 SLOAD DUP2 MSTORE SWAP1 PUSH1 0x1 ADD SWAP1 PUSH1 0x20 ADD DUP1 DUP4 GT PUSH2 0x4A7D JUMPI DUP3 SWAP1 SUB PUSH1 0x1F AND DUP3 ADD SWAP2 JUMPDEST POP POP POP SWAP2 DUP4 MSTORE POP POP PUSH1 0x1 DUP3 DUP2 ADD SLOAD PUSH1 0xFF AND PUSH1 0x20 DUP1 DUP5 ADD SWAP2 SWAP1 SWAP2 MSTORE PUSH1 0x2 SWAP1 SWAP4 ADD SLOAD PUSH1 0x40 SWAP1 SWAP3 ADD SWAP2 SWAP1 SWAP2 MSTORE SWAP2 DUP4 MSTORE SWAP3 ADD SWAP2 ADD PUSH2 0x49EE JUMP JUMPDEST CALLER PUSH1 0x1 PUSH1 0x1 PUSH1 0xA0 SHL SUB PUSH32 0x0 AND EQ PUSH2 0x4B53 JUMPI PUSH1 0x40 MLOAD PUSH3 0x461BCD PUSH1 0xE5 SHL DUP2 MSTORE PUSH1 0x20 PUSH1 0x4 DUP3 ADD MSTORE PUSH1 0x23 PUSH1 0x24 DUP3 ADD MSTORE PUSH32 0x4F6E6C792073706F6E736F722063616E206164642061646D696E697374726174 PUSH1 0x44 DUP3 ADD MSTORE PUSH3 0x6F7273 PUSH1 0xE8 SHL PUSH1 0x64 DUP3 ADD MSTORE PUSH1 0x84 ADD PUSH2 0x640 JUMP JUMPDEST PUSH1 0x1 PUSH1 0x1 PUSH1 0xA0 SHL SUB DUP2 AND PUSH2 0x4BA9 JUMPI PUSH1 0x40 MLOAD PUSH3 0x461BCD PUSH1 0xE5 SHL DUP2 MSTORE PUSH1 0x20 PUSH1 0x4 DUP3 ADD MSTORE PUSH1 0x1C PUSH1 0x24 DUP3 ADD MSTORE PUSH32 0x41646D696E2063616E6E6F74206265207A65726F206164647265737300000000 PUSH1 0x44 DUP3 ADD MSTORE PUSH1 0x64 ADD PUSH2 0x640 JUMP JUMPDEST PUSH1 0x1 PUSH1 0x1 PUSH1 0xA0 SHL SUB AND PUSH1 0x0 SWAP1 DUP2 MSTORE PUSH1 0x10 PUSH1 0x20 MSTORE PUSH1 0x40 SWAP1 KECCAK256 DUP1 SLOAD PUSH1 0xFF NOT AND PUSH1 0x1 OR SWAP1 SSTORE JUMP JUMPDEST PUSH1 0x60 CALLER PUSH1 0x1 PUSH1 0x1 PUSH1 0xA0 SHL SUB PUSH32 0x0 AND EQ DUP1 PUSH2 0x4C15 JUMPI POP CALLER PUSH1 0x0 SWAP1 DUP2 MSTORE PUSH1 0x10 PUSH1 0x20 MSTORE PUSH1 0x40 SWAP1 KECCAK256 SLOAD PUSH1 0xFF AND JUMPDEST PUSH2 0x4C75 JUMPI PUSH1 0x40 MLOAD PUSH3 0x461BCD PUSH1 0xE5 SHL DUP2 MSTORE PUSH1 0x20 PUSH1 0x4 DUP3 ADD MSTORE PUSH1 0x3A PUSH1 0x24 DUP3 ADD MSTORE PUSH1 0x0 DUP1 MLOAD PUSH1 0x20 PUSH2 0x746C DUP4 CODECOPY DUP2 MLOAD SWAP2 MSTORE PUSH1 0x44 DUP3 ADD MSTORE PUSH32 0x616E207265616420707269766174652061747472696275746573000000000000 PUSH1 0x64 DUP3 ADD MSTORE PUSH1 0x84 ADD PUSH2 0x640 JUMP JUMPDEST PUSH1 0xD DUP3 PUSH1 0x40 MLOAD PUSH2 0x393C SWAP2 SWAP1 PUSH2 0x6F34 JUMP JUMPDEST PUSH1 0x1 PUSH1 0x1 PUSH1 0xA0 SHL SUB DUP2 AND PUSH2 0x4CDB JUMPI PUSH1 0x40 MLOAD PUSH3 0x461BCD PUSH1 0xE5 SHL DUP2 MSTORE PUSH1 0x20 PUSH1 0x4 DUP3 ADD DUP2 SWAP1 MSTORE PUSH1 0x24 DUP3 ADD MSTORE PUSH32 0x4E6577206F776E65722063616E6E6F74206265207A65726F2061646472657373 PUSH1 0x44 DUP3 ADD MSTORE PUSH1 0x64 ADD PUSH2 0x640 JUMP JUMPDEST CALLER PUSH1 0x1 PUSH1 0x1 PUSH1 0xA0 SHL SUB DUP3 AND SUB PUSH2 0x4D33 JUMPI PUSH1 0x40 MLOAD PUSH3 0x461BCD PUSH1 0xE5 SHL DUP2 MSTORE PUSH1 0x20 PUSH1 0x4 DUP3 ADD MSTORE PUSH1 0x17 PUSH1 0x24 DUP3 ADD MSTORE PUSH32 0x43616E6E6F74207472616E7366657220746F2073656C66000000000000000000 PUSH1 0x44 DUP3 ADD MSTORE PUSH1 0x64 ADD PUSH2 0x640 JUMP JUMPDEST CALLER PUSH1 0x0 SWAP1 DUP2 MSTORE PUSH1 0x2 PUSH1 0x20 MSTORE PUSH1 0x40 SWAP1 KECCAK256 SLOAD ISZERO ISZERO DUP1 PUSH2 0x4D5E JUMPI POP CALLER PUSH1 0x0 SWAP1 DUP2 MSTORE PUSH1 0x4 PUSH1 0x20 MSTORE PUSH1 0x40 SWAP1 KECCAK256 SLOAD ISZERO ISZERO JUMPDEST PUSH2 0x4DA0 JUMPI PUSH1 0x40 MLOAD PUSH3 0x461BCD PUSH1 0xE5 SHL DUP2 MSTORE PUSH1 0x20 PUSH1 0x4 DUP3 ADD MSTORE PUSH1 0x13 PUSH1 0x24 DUP3 ADD MSTORE PUSH19 0x2737903230BA30903A37903A3930B739B332B9 PUSH1 0x69 SHL PUSH1 0x44 DUP3 ADD MSTORE PUSH1 0x64 ADD PUSH2 0x640 JUMP JUMPDEST CALLER PUSH1 0x0 SWAP1 DUP2 MSTORE PUSH1 0x2 PUSH1 0x20 MSTORE PUSH1 0x40 DUP2 KECCAK256 SWAP1 JUMPDEST DUP2 SLOAD DUP2 LT ISZERO PUSH2 0x5239 JUMPI PUSH1 0x2 PUSH1 0x0 DUP5 PUSH1 0x1 PUSH1 0x1 PUSH1 0xA0 SHL SUB AND PUSH1 0x1 PUSH1 0x1 PUSH1 0xA0 SHL SUB AND DUP2 MSTORE PUSH1 0x20 ADD SWAP1 DUP2 MSTORE PUSH1 0x20 ADD PUSH1 0x0 KECCAK256 PUSH1 0x40 MLOAD DUP1 PUSH2 0x100 ADD PUSH1 0x40 MSTORE DUP1 DUP6 PUSH1 0x1 PUSH1 0x1 PUSH1 0xA0 SHL SUB AND DUP2 MSTORE PUSH1 0x20 ADD DUP5 DUP5 DUP2 SLOAD DUP2 LT PUSH2 0x4E0C JUMPI PUSH2 0x4E0C PUSH2 0x6F50 JUMP JUMPDEST PUSH1 0x0 SWAP2 DUP3 MSTORE PUSH1 0x20 SWAP2 DUP3 SWAP1 KECCAK256 PUSH1 0x1 PUSH1 0x8 SWAP1 SWAP3 MUL ADD ADD SLOAD PUSH1 0x1 PUSH1 0x1 PUSH1 0xA0 SHL SUB AND DUP3 MSTORE DUP6 SLOAD SWAP2 ADD SWAP1 DUP6 SWAP1 DUP6 SWAP1 DUP2 LT PUSH2 0x4E43 JUMPI PUSH2 0x4E43 PUSH2 0x6F50 JUMP JUMPDEST SWAP1 PUSH1 0x0 MSTORE PUSH1 0x20 PUSH1 0x0 KECCAK256 SWAP1 PUSH1 0x8 MUL ADD PUSH1 0x2 ADD DUP1 SLOAD PUSH2 0x4E5F SWAP1 PUSH2 0x6F8F JUMP JUMPDEST DUP1 PUSH1 0x1F ADD PUSH1 0x20 DUP1 SWAP2 DIV MUL PUSH1 0x20 ADD PUSH1 0x40 MLOAD SWAP1 DUP2 ADD PUSH1 0x40 MSTORE DUP1 SWAP3 SWAP2 SWAP1 DUP2 DUP2 MSTORE PUSH1 0x20 ADD DUP3 DUP1 SLOAD PUSH2 0x4E8B SWAP1 PUSH2 0x6F8F JUMP JUMPDEST DUP1 ISZERO PUSH2 0x4ED8 JUMPI DUP1 PUSH1 0x1F LT PUSH2 0x4EAD JUMPI PUSH2 0x100 DUP1 DUP4 SLOAD DIV MUL DUP4 MSTORE SWAP2 PUSH1 0x20 ADD SWAP2 PUSH2 0x4ED8 JUMP JUMPDEST DUP3 ADD SWAP2 SWAP1 PUSH1 0x0 MSTORE PUSH1 0x20 PUSH1 0x0 KECCAK256 SWAP1 JUMPDEST DUP2 SLOAD DUP2 MSTORE SWAP1 PUSH1 0x1 ADD SWAP1 PUSH1 0x20 ADD DUP1 DUP4 GT PUSH2 0x4EBB JUMPI DUP3 SWAP1 SUB PUSH1 0x1F AND DUP3 ADD SWAP2 JUMPDEST POP POP POP POP POP DUP2 MSTORE PUSH1 0x20 ADD DUP5 DUP5 DUP2 SLOAD DUP2 LT PUSH2 0x4EF4 JUMPI PUSH2 0x4EF4 PUSH2 0x6F50 JUMP JUMPDEST SWAP1 PUSH1 0x0 MSTORE PUSH1 0x20 PUSH1 0x0 KECCAK256 SWAP1 PUSH1 0x8 MUL ADD PUSH1 0x3 ADD DUP1 SLOAD PUSH2 0x4F10 SWAP1 PUSH2 0x6F8F JUMP JUMPDEST DUP1 PUSH1 0x1F ADD PUSH1 0x20 DUP1 SWAP2 DIV MUL PUSH1 0x20 ADD PUSH1 0x40 MLOAD SWAP1 DUP2 ADD PUSH1 0x40 MSTORE DUP1 SWAP3 SWAP2 SWAP1 DUP2 DUP2 MSTORE PUSH1 0x20 ADD DUP3 DUP1 SLOAD PUSH2 0x4F3C SWAP1 PUSH2 0x6F8F JUMP JUMPDEST DUP1 ISZERO PUSH2 0x4F89 JUMPI DUP1 PUSH1 0x1F LT PUSH2 0x4F5E JUMPI PUSH2 0x100 DUP1 DUP4 SLOAD DIV MUL DUP4 MSTORE SWAP2 PUSH1 0x20 ADD SWAP2 PUSH2 0x4F89 JUMP JUMPDEST DUP3 ADD SWAP2 SWAP1 PUSH1 0x0 MSTORE PUSH1 0x20 PUSH1 0x0 KECCAK256 SWAP1 JUMPDEST DUP2 SLOAD DUP2 MSTORE SWAP1 PUSH1 0x1 ADD SWAP1 PUSH1 0x20 ADD DUP1 DUP4 GT PUSH2 0x4F6C JUMPI DUP3 SWAP1 SUB PUSH1 0x1F AND DUP3 ADD SWAP2 JUMPDEST POP POP POP POP POP DUP2 MSTORE PUSH1 0x20 ADD DUP5 DUP5 DUP2 SLOAD DUP2 LT PUSH2 0x4FA5 JUMPI PUSH2 0x4FA5 PUSH2 0x6F50 JUMP JUMPDEST SWAP1 PUSH1 0x0 MSTORE PUSH1 0x20 PUSH1 0x0 KECCAK256 SWAP1 PUSH1 0x8 MUL ADD PUSH1 0x4 ADD DUP1 SLOAD PUSH2 0x4FC1 SWAP1 PUSH2 0x6F8F JUMP JUMPDEST DUP1 PUSH1 0x1F ADD PUSH1 0x20 DUP1 SWAP2 DIV MUL PUSH1 0x20 ADD PUSH1 0x40 MLOAD SWAP1 DUP2 ADD PUSH1 0x40 MSTORE DUP1 SWAP3 SWAP2 SWAP1 DUP2 DUP2 MSTORE PUSH1 0x20 ADD DUP3 DUP1 SLOAD PUSH2 0x4FED SWAP1 PUSH2 0x6F8F JUMP JUMPDEST DUP1 ISZERO PUSH2 0x503A JUMPI DUP1 PUSH1 0x1F LT PUSH2 0x500F JUMPI PUSH2 0x100 DUP1 DUP4 SLOAD DIV MUL DUP4 MSTORE SWAP2 PUSH1 0x20 ADD SWAP2 PUSH2 0x503A JUMP JUMPDEST DUP3 ADD SWAP2 SWAP1 PUSH1 0x0 MSTORE PUSH1 0x20 PUSH1 0x0 KECCAK256 SWAP1 JUMPDEST DUP2 SLOAD DUP2 MSTORE SWAP1 PUSH1 0x1 ADD SWAP1 PUSH1 0x20 ADD DUP1 DUP4 GT PUSH2 0x501D JUMPI DUP3 SWAP1 SUB PUSH1 0x1F AND DUP3 ADD SWAP2 JUMPDEST POP POP POP POP POP DUP2 MSTORE PUSH1 0x20 ADD DUP5 DUP5 DUP2 SLOAD DUP2 LT PUSH2 0x5056 JUMPI PUSH2 0x5056 PUSH2 0x6F50 JUMP JUMPDEST SWAP1 PUSH1 0x0 MSTORE PUSH1 0x20 PUSH1 0x0 KECCAK256 SWAP1 PUSH1 0x8 MUL ADD PUSH1 0x5 ADD DUP1 SLOAD PUSH2 0x5072 SWAP1 PUSH2 0x6F8F JUMP JUMPDEST DUP1 PUSH1 0x1F ADD PUSH1 0x20 DUP1 SWAP2 DIV MUL PUSH1 0x20 ADD PUSH1 0x40 MLOAD SWAP1 DUP2 ADD PUSH1 0x40 MSTORE DUP1 SWAP3 SWAP2 SWAP1 DUP2 DUP2 MSTORE PUSH1 0x20 ADD DUP3 DUP1 SLOAD PUSH2 0x509E SWAP1 PUSH2 0x6F8F JUMP JUMPDEST DUP1 ISZERO PUSH2 0x50EB JUMPI DUP1 PUSH1 0x1F LT PUSH2 0x50C0 JUMPI PUSH2 0x100 DUP1 DUP4 SLOAD DIV MUL DUP4 MSTORE SWAP2 PUSH1 0x20 ADD SWAP2 PUSH2 0x50EB JUMP JUMPDEST DUP3 ADD SWAP2 SWAP1 PUSH1 0x0 MSTORE PUSH1 0x20 PUSH1 0x0 KECCAK256 SWAP1 JUMPDEST DUP2 SLOAD DUP2 MSTORE SWAP1 PUSH1 0x1 ADD SWAP1 PUSH1 0x20 ADD DUP1 DUP4 GT PUSH2 0x50CE JUMPI DUP3 SWAP1 SUB PUSH1 0x1F AND DUP3 ADD SWAP2 JUMPDEST POP POP POP POP POP DUP2 MSTORE PUSH1 0x20 ADD DUP5 DUP5 DUP2 SLOAD DUP2 LT PUSH2 0x5107 JUMPI PUSH2 0x5107 PUSH2 0x6F50 JUMP JUMPDEST PUSH1 0x0 SWAP2 DUP3 MSTORE PUSH1 0x20 SWAP1 SWAP2 KECCAK256 PUSH1 0x6 PUSH1 0x8 SWAP1 SWAP3 MUL ADD ADD SLOAD PUSH1 0xFF AND PUSH1 0x1 DUP2 GT ISZERO PUSH2 0x512F JUMPI PUSH2 0x512F PUSH2 0x6872 JUMP JUMPDEST DUP2 MSTORE PUSH1 0x20 ADD DUP5 DUP5 DUP2 SLOAD DUP2 LT PUSH2 0x5146 JUMPI PUSH2 0x5146 PUSH2 0x6F50 JUMP JUMPDEST PUSH1 0x0 SWAP2 DUP3 MSTORE PUSH1 0x20 DUP1 DUP4 KECCAK256 PUSH1 0x8 SWAP3 DUP4 MUL ADD PUSH1 0x7 ADD SLOAD SWAP1 SWAP4 MSTORE DUP5 SLOAD PUSH1 0x1 DUP1 DUP3 ADD DUP8 SSTORE SWAP6 DUP4 MSTORE SWAP2 DUP4 SWAP1 KECCAK256 DUP5 MLOAD SWAP3 SWAP1 SWAP2 MUL ADD DUP1 SLOAD PUSH1 0x1 PUSH1 0x1 PUSH1 0xA0 SHL SUB NOT SWAP1 DUP2 AND PUSH1 0x1 PUSH1 0x1 PUSH1 0xA0 SHL SUB SWAP4 DUP5 AND OR DUP3 SSTORE SWAP3 DUP5 ADD MLOAD SWAP5 DUP2 ADD DUP1 SLOAD SWAP1 SWAP4 AND SWAP5 SWAP1 SWAP2 AND SWAP4 SWAP1 SWAP4 OR SWAP1 SSTORE PUSH1 0x40 DUP2 ADD MLOAD SWAP1 SWAP2 SWAP1 PUSH1 0x2 DUP3 ADD SWAP1 PUSH2 0x51BD SWAP1 DUP3 PUSH2 0x71C1 JUMP JUMPDEST POP PUSH1 0x60 DUP3 ADD MLOAD PUSH1 0x3 DUP3 ADD SWAP1 PUSH2 0x51D2 SWAP1 DUP3 PUSH2 0x71C1 JUMP JUMPDEST POP PUSH1 0x80 DUP3 ADD MLOAD PUSH1 0x4 DUP3 ADD SWAP1 PUSH2 0x51E7 SWAP1 DUP3 PUSH2 0x71C1 JUMP JUMPDEST POP PUSH1 0xA0 DUP3 ADD MLOAD PUSH1 0x5 DUP3 ADD SWAP1 PUSH2 0x51FC SWAP1 DUP3 PUSH2 0x71C1 JUMP JUMPDEST POP PUSH1 0xC0 DUP3 ADD MLOAD PUSH1 0x6 DUP3 ADD DUP1 SLOAD PUSH1 0xFF NOT AND PUSH1 0x1 DUP4 DUP2 DUP2 GT ISZERO PUSH2 0x521F JUMPI PUSH2 0x521F PUSH2 0x6872 JUMP JUMPDEST MUL OR SWAP1 SSTORE POP PUSH1 0xE0 SWAP2 SWAP1 SWAP2 ADD MLOAD PUSH1 0x7 SWAP1 SWAP2 ADD SSTORE PUSH1 0x1 ADD PUSH2 0x4DB1 JUMP JUMPDEST POP CALLER PUSH1 0x0 SWAP1 DUP2 MSTORE PUSH1 0x3 PUSH1 0x20 MSTORE PUSH1 0x40 DUP2 KECCAK256 SWAP1 JUMPDEST DUP2 SLOAD DUP2 LT ISZERO PUSH2 0x52AF JUMPI PUSH1 0x1 PUSH1 0x1 PUSH1 0xA0 SHL SUB DUP5 AND PUSH1 0x0 SWAP1 DUP2 MSTORE PUSH1 0x3 PUSH1 0x20 MSTORE PUSH1 0x40 SWAP1 KECCAK256 DUP3 SLOAD DUP4 SWAP1 DUP4 SWAP1 DUP2 LT PUSH2 0x5280 JUMPI PUSH2 0x5280 PUSH2 0x6F50 JUMP JUMPDEST PUSH1 0x0 SWAP2 DUP3 MSTORE PUSH1 0x20 DUP1 DUP4 KECCAK256 DUP5 SLOAD PUSH1 0x1 DUP2 ADD DUP7 SSTORE SWAP5 DUP5 MSTORE SWAP3 KECCAK256 SWAP1 SWAP3 ADD SWAP2 PUSH2 0x52A6 SWAP2 ADD DUP3 PUSH2 0x7015 JUMP JUMPDEST POP PUSH1 0x1 ADD PUSH2 0x524B JUMP JUMPDEST POP CALLER PUSH1 0x0 SWAP1 DUP2 MSTORE PUSH1 0x4 PUSH1 0x20 MSTORE PUSH1 0x40 DUP2 KECCAK256 SWAP1 JUMPDEST DUP2 SLOAD DUP2 LT ISZERO PUSH2 0x5380 JUMPI PUSH1 0x0 DUP3 DUP3 DUP2 SLOAD DUP2 LT PUSH2 0x52DE JUMPI PUSH2 0x52DE PUSH2 0x6F50 JUMP JUMPDEST PUSH1 0x0 SWAP2 DUP3 MSTORE PUSH1 0x20 DUP1 DUP4 KECCAK256 SWAP1 SWAP2 ADD SLOAD PUSH1 0x1 PUSH1 0x1 PUSH1 0xA0 SHL SUB DUP10 AND DUP4 MSTORE PUSH1 0x4 SWAP1 SWAP2 MSTORE PUSH1 0x40 DUP3 KECCAK256 SWAP1 SWAP3 POP DUP2 JUMPDEST DUP2 SLOAD DUP2 LT ISZERO PUSH2 0x5343 JUMPI DUP4 DUP3 DUP3 DUP2 SLOAD DUP2 LT PUSH2 0x5322 JUMPI PUSH2 0x5322 PUSH2 0x6F50 JUMP JUMPDEST SWAP1 PUSH1 0x0 MSTORE PUSH1 0x20 PUSH1 0x0 KECCAK256 ADD SLOAD SUB PUSH2 0x533B JUMPI PUSH1 0x1 SWAP3 POP PUSH2 0x5343 JUMP JUMPDEST PUSH1 0x1 ADD PUSH2 0x5306 JUMP JUMPDEST POP DUP2 PUSH2 0x5375 JUMPI PUSH1 0x1 PUSH1 0x1 PUSH1 0xA0 SHL SUB DUP9 AND PUSH1 0x0 SWAP1 DUP2 MSTORE PUSH1 0x4 PUSH1 0x20 SWAP1 DUP2 MSTORE PUSH1 0x40 DUP3 KECCAK256 DUP1 SLOAD PUSH1 0x1 DUP2 ADD DUP3 SSTORE SWAP1 DUP4 MSTORE SWAP2 KECCAK256 ADD DUP4 SWAP1 SSTORE JUMPDEST POP POP POP PUSH1 0x1 ADD PUSH2 0x52C1 JUMP JUMPDEST POP CALLER PUSH1 0x0 SWAP1 DUP2 MSTORE PUSH1 0xB PUSH1 0x20 SWAP1 DUP2 MSTORE PUSH1 0x40 DUP1 DUP4 KECCAK256 DUP1 SLOAD DUP3 MLOAD DUP2 DUP6 MUL DUP2 ADD DUP6 ADD SWAP1 SWAP4 MSTORE DUP1 DUP4 MSTORE SWAP2 SWAP3 SWAP1 SWAP2 SWAP1 DUP4 ADD DUP3 DUP3 DUP1 ISZERO PUSH2 0x53E2 JUMPI PUSH1 0x20 MUL DUP3 ADD SWAP2 SWAP1 PUSH1 0x0 MSTORE PUSH1 0x20 PUSH1 0x0 KECCAK256 SWAP1 JUMPDEST DUP2 SLOAD PUSH1 0x1 PUSH1 0x1 PUSH1 0xA0 SHL SUB AND DUP2 MSTORE PUSH1 0x1 SWAP1 SWAP2 ADD SWAP1 PUSH1 0x20 ADD DUP1 DUP4 GT PUSH2 0x53C4 JUMPI JUMPDEST POP POP POP POP POP SWAP1 POP PUSH1 0x0 JUMPDEST DUP2 MLOAD DUP2 LT ISZERO PUSH2 0x5949 JUMPI PUSH1 0x0 DUP3 DUP3 DUP2 MLOAD DUP2 LT PUSH2 0x5409 JUMPI PUSH2 0x5409 PUSH2 0x6F50 JUMP JUMPDEST PUSH1 0x20 SWAP1 DUP2 MUL SWAP2 SWAP1 SWAP2 ADD DUP2 ADD MLOAD PUSH1 0x1 PUSH1 0x1 PUSH1 0xA0 SHL SUB DUP2 AND PUSH1 0x0 SWAP1 DUP2 MSTORE PUSH1 0x9 DUP4 MSTORE PUSH1 0x40 DUP1 DUP3 KECCAK256 CALLER DUP4 MSTORE DUP5 MSTORE DUP1 DUP3 KECCAK256 DUP1 SLOAD DUP3 MLOAD DUP2 DUP8 MUL DUP2 ADD DUP8 ADD SWAP1 SWAP4 MSTORE DUP1 DUP4 MSTORE SWAP4 SWAP6 POP SWAP2 SWAP4 SWAP1 SWAP3 SWAP1 DUP5 SWAP1 DUP5 ADD JUMPDEST DUP3 DUP3 LT ISZERO PUSH2 0x55DA JUMPI PUSH1 0x0 DUP5 DUP2 MSTORE PUSH1 0x20 SWAP1 DUP2 SWAP1 KECCAK256 PUSH1 0x40 DUP1 MLOAD PUSH1 0xA0 DUP2 ADD SWAP1 SWAP2 MSTORE PUSH1 0x5 DUP6 MUL SWAP1 SWAP2 ADD DUP1 SLOAD PUSH1 0xFF AND ISZERO ISZERO DUP3 MSTORE PUSH1 0x1 DUP2 ADD DUP1 SLOAD SWAP3 SWAP4 SWAP2 SWAP3 SWAP2 DUP5 ADD SWAP2 PUSH2 0x5498 SWAP1 PUSH2 0x6F8F JUMP JUMPDEST DUP1 PUSH1 0x1F ADD PUSH1 0x20 DUP1 SWAP2 DIV MUL PUSH1 0x20 ADD PUSH1 0x40 MLOAD SWAP1 DUP2 ADD PUSH1 0x40 MSTORE DUP1 SWAP3 SWAP2 SWAP1 DUP2 DUP2 MSTORE PUSH1 0x20 ADD DUP3 DUP1 SLOAD PUSH2 0x54C4 SWAP1 PUSH2 0x6F8F JUMP JUMPDEST DUP1 ISZERO PUSH2 0x5511 JUMPI DUP1 PUSH1 0x1F LT PUSH2 0x54E6 JUMPI PUSH2 0x100 DUP1 DUP4 SLOAD DIV MUL DUP4 MSTORE SWAP2 PUSH1 0x20 ADD SWAP2 PUSH2 0x5511 JUMP JUMPDEST DUP3 ADD SWAP2 SWAP1 PUSH1 0x0 MSTORE PUSH1 0x20 PUSH1 0x0 KECCAK256 SWAP1 JUMPDEST DUP2 SLOAD DUP2 MSTORE SWAP1 PUSH1 0x1 ADD SWAP1 PUSH1 0x20 ADD DUP1 DUP4 GT PUSH2 0x54F4 JUMPI DUP3 SWAP1 SUB PUSH1 0x1F AND DUP3 ADD SWAP2 JUMPDEST POP POP POP POP POP DUP2 MSTORE PUSH1 0x20 ADD PUSH1 0x2 DUP3 ADD DUP1 SLOAD PUSH2 0x552A SWAP1 PUSH2 0x6F8F JUMP JUMPDEST DUP1 PUSH1 0x1F ADD PUSH1 0x20 DUP1 SWAP2 DIV MUL PUSH1 0x20 ADD PUSH1 0x40 MLOAD SWAP1 DUP2 ADD PUSH1 0x40 MSTORE DUP1 SWAP3 SWAP2 SWAP1 DUP2 DUP2 MSTORE PUSH1 0x20 ADD DUP3 DUP1 SLOAD PUSH2 0x5556 SWAP1 PUSH2 0x6F8F JUMP JUMPDEST DUP1 ISZERO PUSH2 0x55A3 JUMPI DUP1 PUSH1 0x1F LT PUSH2 0x5578 JUMPI PUSH2 0x100 DUP1 DUP4 SLOAD DIV MUL DUP4 MSTORE SWAP2 PUSH1 0x20 ADD SWAP2 PUSH2 0x55A3 JUMP JUMPDEST DUP3 ADD SWAP2 SWAP1 PUSH1 0x0 MSTORE PUSH1 0x20 PUSH1 0x0 KECCAK256 SWAP1 JUMPDEST DUP2 SLOAD DUP2 MSTORE SWAP1 PUSH1 0x1 ADD SWAP1 PUSH1 0x20 ADD DUP1 DUP4 GT PUSH2 0x5586 JUMPI DUP3 SWAP1 SUB PUSH1 0x1F AND DUP3 ADD SWAP2 JUMPDEST POP POP POP SWAP2 DUP4 MSTORE POP POP PUSH1 0x3 DUP3 ADD SLOAD PUSH1 0x20 DUP1 DUP4 ADD SWAP2 SWAP1 SWAP2 MSTORE PUSH1 0x4 SWAP1 SWAP3 ADD SLOAD PUSH1 0xFF AND ISZERO ISZERO PUSH1 0x40 SWAP1 SWAP2 ADD MSTORE SWAP1 DUP3 MSTORE PUSH1 0x1 SWAP3 SWAP1 SWAP3 ADD SWAP2 ADD PUSH2 0x5453 JUMP JUMPDEST POP POP POP POP SWAP1 POP PUSH1 0x0 JUMPDEST DUP2 MLOAD DUP2 LT ISZERO PUSH2 0x56AF JUMPI PUSH1 0x1 PUSH1 0x1 PUSH1 0xA0 SHL SUB DUP1 DUP5 AND PUSH1 0x0 SWAP1 DUP2 MSTORE PUSH1 0x9 PUSH1 0x20 SWAP1 DUP2 MSTORE PUSH1 0x40 DUP1 DUP4 KECCAK256 SWAP4 DUP14 AND DUP4 MSTORE SWAP3 SWAP1 MSTORE KECCAK256 DUP3 MLOAD DUP4 SWAP1 DUP4 SWAP1 DUP2 LT PUSH2 0x5625 JUMPI PUSH2 0x5625 PUSH2 0x6F50 JUMP JUMPDEST PUSH1 0x20 SWAP1 DUP2 MUL SWAP2 SWAP1 SWAP2 ADD DUP2 ADD MLOAD DUP3 SLOAD PUSH1 0x1 DUP1 DUP3 ADD DUP6 SSTORE PUSH1 0x0 SWAP5 DUP6 MSTORE SWAP4 DUP4 SWAP1 KECCAK256 DUP3 MLOAD PUSH1 0x5 SWAP1 SWAP3 MUL ADD DUP1 SLOAD PUSH1 0xFF NOT AND SWAP2 ISZERO ISZERO SWAP2 SWAP1 SWAP2 OR DUP2 SSTORE SWAP2 DUP2 ADD MLOAD SWAP1 SWAP3 DUP3 ADD SWAP1 PUSH2 0x566D SWAP1 DUP3 PUSH2 0x71C1 JUMP JUMPDEST POP PUSH1 0x40 DUP3 ADD MLOAD PUSH1 0x2 DUP3 ADD SWAP1 PUSH2 0x5682 SWAP1 DUP3 PUSH2 0x71C1 JUMP JUMPDEST POP PUSH1 0x60 DUP3 ADD MLOAD PUSH1 0x3 DUP3 ADD SSTORE PUSH1 0x80 SWAP1 SWAP2 ADD MLOAD PUSH1 0x4 SWAP1 SWAP2 ADD DUP1 SLOAD PUSH1 0xFF NOT AND SWAP2 ISZERO ISZERO SWAP2 SWAP1 SWAP2 OR SWAP1 SSTORE PUSH1 0x1 ADD PUSH2 0x55E3 JUMP JUMPDEST POP PUSH1 0x1 PUSH1 0x1 PUSH1 0xA0 SHL SUB DUP3 AND PUSH1 0x0 SWAP1 DUP2 MSTORE PUSH1 0xA PUSH1 0x20 MSTORE PUSH1 0x40 DUP2 KECCAK256 SWAP1 DUP1 JUMPDEST DUP3 SLOAD DUP2 LT ISZERO PUSH2 0x5717 JUMPI DUP11 PUSH1 0x1 PUSH1 0x1 PUSH1 0xA0 SHL SUB AND DUP4 DUP3 DUP2 SLOAD DUP2 LT PUSH2 0x56F0 JUMPI PUSH2 0x56F0 PUSH2 0x6F50 JUMP JUMPDEST PUSH1 0x0 SWAP2 DUP3 MSTORE PUSH1 0x20 SWAP1 SWAP2 KECCAK256 ADD SLOAD PUSH1 0x1 PUSH1 0x1 PUSH1 0xA0 SHL SUB AND SUB PUSH2 0x570F JUMPI PUSH1 0x1 SWAP2 POP JUMPDEST PUSH1 0x1 ADD PUSH2 0x56CB JUMP JUMPDEST POP PUSH1 0x0 JUMPDEST DUP3 SLOAD DUP2 LT ISZERO PUSH2 0x5817 JUMPI CALLER PUSH1 0x1 PUSH1 0x1 PUSH1 0xA0 SHL SUB AND DUP4 DUP3 DUP2 SLOAD DUP2 LT PUSH2 0x5740 JUMPI PUSH2 0x5740 PUSH2 0x6F50 JUMP JUMPDEST PUSH1 0x0 SWAP2 DUP3 MSTORE PUSH1 0x20 SWAP1 SWAP2 KECCAK256 ADD SLOAD PUSH1 0x1 PUSH1 0x1 PUSH1 0xA0 SHL SUB AND SUB PUSH2 0x580F JUMPI DUP3 SLOAD DUP4 SWAP1 PUSH2 0x576A SWAP1 PUSH1 0x1 SWAP1 PUSH2 0x6F7C JUMP JUMPDEST DUP2 SLOAD DUP2 LT PUSH2 0x577A JUMPI PUSH2 0x577A PUSH2 0x6F50 JUMP JUMPDEST SWAP1 PUSH1 0x0 MSTORE PUSH1 0x20 PUSH1 0x0 KECCAK256 ADD PUSH1 0x0 SWAP1 SLOAD SWAP1 PUSH2 0x100 EXP SWAP1 DIV PUSH1 0x1 PUSH1 0x1 PUSH1 0xA0 SHL SUB AND DUP4 DUP3 DUP2 SLOAD DUP2 LT PUSH2 0x57AA JUMPI PUSH2 0x57AA PUSH2 0x6F50 JUMP JUMPDEST SWAP1 PUSH1 0x0 MSTORE PUSH1 0x20 PUSH1 0x0 KECCAK256 ADD PUSH1 0x0 PUSH2 0x100 EXP DUP2 SLOAD DUP2 PUSH1 0x1 PUSH1 0x1 PUSH1 0xA0 SHL SUB MUL NOT AND SWAP1 DUP4 PUSH1 0x1 PUSH1 0x1 PUSH1 0xA0 SHL SUB AND MUL OR SWAP1 SSTORE POP DUP3 DUP1 SLOAD DUP1 PUSH2 0x57E8 JUMPI PUSH2 0x57E8 PUSH2 0x70F4 JUMP JUMPDEST PUSH1 0x0 DUP3 DUP2 MSTORE PUSH1 0x20 SWAP1 KECCAK256 DUP2 ADD PUSH1 0x0 NOT SWAP1 DUP2 ADD DUP1 SLOAD PUSH1 0x1 PUSH1 0x1 PUSH1 0xA0 SHL SUB NOT AND SWAP1 SSTORE ADD SWAP1 SSTORE PUSH2 0x5817 JUMP JUMPDEST PUSH1 0x1 ADD PUSH2 0x571B JUMP JUMPDEST POP DUP1 PUSH2 0x585C JUMPI PUSH1 0x1 PUSH1 0x1 PUSH1 0xA0 SHL SUB DUP5 DUP2 AND PUSH1 0x0 SWAP1 DUP2 MSTORE PUSH1 0xA PUSH1 0x20 SWAP1 DUP2 MSTORE PUSH1 0x40 DUP3 KECCAK256 DUP1 SLOAD PUSH1 0x1 DUP2 ADD DUP3 SSTORE SWAP1 DUP4 MSTORE SWAP2 KECCAK256 ADD DUP1 SLOAD PUSH1 0x1 PUSH1 0x1 PUSH1 0xA0 SHL SUB NOT AND SWAP2 DUP13 AND SWAP2 SWAP1 SWAP2 OR SWAP1 SSTORE JUMPDEST PUSH1 0x1 PUSH1 0x1 PUSH1 0xA0 SHL SUB DUP11 AND PUSH1 0x0 SWAP1 DUP2 MSTORE PUSH1 0xB PUSH1 0x20 MSTORE PUSH1 0x40 DUP2 KECCAK256 DUP2 JUMPDEST DUP2 SLOAD DUP2 LT ISZERO PUSH2 0x58C6 JUMPI DUP7 PUSH1 0x1 PUSH1 0x1 PUSH1 0xA0 SHL SUB AND DUP3 DUP3 DUP2 SLOAD DUP2 LT PUSH2 0x589B JUMPI PUSH2 0x589B PUSH2 0x6F50 JUMP JUMPDEST PUSH1 0x0 SWAP2 DUP3 MSTORE PUSH1 0x20 SWAP1 SWAP2 KECCAK256 ADD SLOAD PUSH1 0x1 PUSH1 0x1 PUSH1 0xA0 SHL SUB AND SUB PUSH2 0x58BE JUMPI PUSH1 0x1 SWAP3 POP PUSH2 0x58C6 JUMP JUMPDEST PUSH1 0x1 ADD PUSH2 0x5876 JUMP JUMPDEST POP DUP2 PUSH2 0x590B JUMPI PUSH1 0x1 PUSH1 0x1 PUSH1 0xA0 SHL SUB DUP13 DUP2 AND PUSH1 0x0 SWAP1 DUP2 MSTORE PUSH1 0xB PUSH1 0x20 SWAP1 DUP2 MSTORE PUSH1 0x40 DUP3 KECCAK256 DUP1 SLOAD PUSH1 0x1 DUP2 ADD DUP3 SSTORE SWAP1 DUP4 MSTORE SWAP2 KECCAK256 ADD DUP1 SLOAD PUSH1 0x1 PUSH1 0x1 PUSH1 0xA0 SHL SUB NOT AND SWAP2 DUP9 AND SWAP2 SWAP1 SWAP2 OR SWAP1 SSTORE JUMPDEST PUSH1 0x1 PUSH1 0x1 PUSH1 0xA0 SHL SUB DUP7 AND PUSH1 0x0 SWAP1 DUP2 MSTORE PUSH1 0x9 PUSH1 0x20 SWAP1 DUP2 MSTORE PUSH1 0x40 DUP1 DUP4 KECCAK256 CALLER DUP5 MSTORE SWAP1 SWAP2 MSTORE DUP2 KECCAK256 PUSH2 0x5937 SWAP2 PUSH2 0x62A1 JUMP JUMPDEST POP POP PUSH1 0x1 SWAP1 SWAP5 ADD SWAP4 POP PUSH2 0x53EC SWAP3 POP POP POP JUMP JUMPDEST POP CALLER PUSH1 0x0 SWAP1 DUP2 MSTORE PUSH1 0x2 PUSH1 0x20 MSTORE PUSH1 0x40 DUP2 KECCAK256 PUSH2 0x5962 SWAP2 PUSH2 0x62C2 JUMP JUMPDEST CALLER PUSH1 0x0 SWAP1 DUP2 MSTORE PUSH1 0x3 PUSH1 0x20 MSTORE PUSH1 0x40 DUP2 KECCAK256 PUSH2 0x597A SWAP2 PUSH2 0x62E3 JUMP JUMPDEST CALLER PUSH1 0x0 SWAP1 DUP2 MSTORE PUSH1 0x4 PUSH1 0x20 MSTORE PUSH1 0x40 DUP2 KECCAK256 PUSH2 0x5992 SWAP2 PUSH2 0x6301 JUMP JUMPDEST CALLER PUSH1 0x0 SWAP1 DUP2 MSTORE PUSH1 0xB PUSH1 0x20 MSTORE PUSH1 0x40 DUP2 KECCAK256 PUSH2 0x59AA SWAP2 PUSH2 0x6301 JUMP JUMPDEST PUSH1 0x40 MLOAD TIMESTAMP DUP2 MSTORE PUSH1 0x1 PUSH1 0x1 PUSH1 0xA0 SHL SUB DUP7 AND SWAP1 CALLER SWAP1 PUSH32 0xC13A1166D81CD3B0B352A367AEBAB95F3A6F6BC695FDAB8E9A9D335239C3861B SWAP1 PUSH1 0x20 ADD PUSH1 0x40 MLOAD DUP1 SWAP2 SUB SWAP1 LOG3 POP POP POP POP POP JUMP JUMPDEST PUSH1 0x1 PUSH1 0x1 PUSH1 0xA0 SHL SUB DUP2 AND PUSH1 0x0 SWAP1 DUP2 MSTORE PUSH1 0xA PUSH1 0x20 SWAP1 DUP2 MSTORE PUSH1 0x40 DUP1 DUP4 KECCAK256 DUP1 SLOAD DUP3 MLOAD DUP2 DUP6 MUL DUP2 ADD DUP6 ADD SWAP1 SWAP4 MSTORE DUP1 DUP4 MSTORE PUSH1 0x60 SWAP5 SWAP4 DUP4 ADD DUP3 DUP3 DUP1 ISZERO PUSH2 0x5A5A JUMPI PUSH1 0x20 MUL DUP3 ADD SWAP2 SWAP1 PUSH1 0x0 MSTORE PUSH1 0x20 PUSH1 0x0 KECCAK256 SWAP1 JUMPDEST DUP2 SLOAD PUSH1 0x1 PUSH1 0x1 PUSH1 0xA0 SHL SUB AND DUP2 MSTORE PUSH1 0x1 SWAP1 SWAP2 ADD SWAP1 PUSH1 0x20 ADD DUP1 DUP4 GT PUSH2 0x5A3C JUMPI JUMPDEST POP POP POP POP POP SWAP1 POP PUSH1 0x0 DUP1 JUMPDEST DUP3 MLOAD DUP2 LT ISZERO PUSH2 0x5ADE JUMPI PUSH1 0x1 PUSH1 0x1 PUSH1 0xA0 SHL SUB DUP6 AND PUSH1 0x0 SWAP1 DUP2 MSTORE PUSH1 0x9 PUSH1 0x20 MSTORE PUSH1 0x40 DUP2 KECCAK256 DUP5 MLOAD SWAP1 SWAP2 SWAP1 DUP6 SWAP1 DUP5 SWAP1 DUP2 LT PUSH2 0x5A9D JUMPI PUSH2 0x5A9D PUSH2 0x6F50 JUMP JUMPDEST PUSH1 0x20 MUL PUSH1 0x20 ADD ADD MLOAD PUSH1 0x1 PUSH1 0x1 PUSH1 0xA0 SHL SUB AND PUSH1 0x1 PUSH1 0x1 PUSH1 0xA0 SHL SUB AND DUP2 MSTORE PUSH1 0x20 ADD SWAP1 DUP2 MSTORE PUSH1 0x20 ADD PUSH1 0x0 KECCAK256 DUP1 SLOAD SWAP1 POP DUP3 PUSH2 0x5AD4 SWAP2 SWAP1 PUSH2 0x73D7 JUMP JUMPDEST SWAP2 POP PUSH1 0x1 ADD PUSH2 0x5A65 JUMP JUMPDEST POP PUSH1 0x0 DUP2 PUSH1 0x1 PUSH1 0x1 PUSH1 0x40 SHL SUB DUP2 GT ISZERO PUSH2 0x5AF9 JUMPI PUSH2 0x5AF9 PUSH2 0x6412 JUMP JUMPDEST PUSH1 0x40 MLOAD SWAP1 DUP1 DUP3 MSTORE DUP1 PUSH1 0x20 MUL PUSH1 0x20 ADD DUP3 ADD PUSH1 0x40 MSTORE DUP1 ISZERO PUSH2 0x5B32 JUMPI DUP2 PUSH1 0x20 ADD JUMPDEST PUSH2 0x5B1F PUSH2 0x625E JUMP JUMPDEST DUP2 MSTORE PUSH1 0x20 ADD SWAP1 PUSH1 0x1 SWAP1 SUB SWAP1 DUP2 PUSH2 0x5B17 JUMPI SWAP1 POP JUMPDEST POP SWAP1 POP PUSH1 0x0 DUP1 JUMPDEST DUP5 MLOAD DUP2 LT ISZERO PUSH2 0x23B2 JUMPI PUSH1 0x0 DUP6 DUP3 DUP2 MLOAD DUP2 LT PUSH2 0x5B56 JUMPI PUSH2 0x5B56 PUSH2 0x6F50 JUMP JUMPDEST PUSH1 0x20 SWAP1 DUP2 MUL SWAP2 SWAP1 SWAP2 ADD DUP2 ADD MLOAD PUSH1 0x1 PUSH1 0x1 PUSH1 0xA0 SHL SUB DUP1 DUP12 AND PUSH1 0x0 SWAP1 DUP2 MSTORE PUSH1 0x9 DUP5 MSTORE PUSH1 0x40 DUP1 DUP3 KECCAK256 SWAP3 DUP5 AND DUP3 MSTORE SWAP2 DUP5 MSTORE DUP2 DUP2 KECCAK256 DUP1 SLOAD DUP4 MLOAD DUP2 DUP8 MUL DUP2 ADD DUP8 ADD SWAP1 SWAP5 MSTORE DUP1 DUP5 MSTORE SWAP4 SWAP6 POP SWAP1 SWAP4 SWAP2 SWAP3 SWAP1 SWAP2 DUP5 SWAP1 DUP5 ADD JUMPDEST DUP3 DUP3 LT ISZERO PUSH2 0x5D2C JUMPI PUSH1 0x0 DUP5 DUP2 MSTORE PUSH1 0x20 SWAP1 DUP2 SWAP1 KECCAK256 PUSH1 0x40 DUP1 MLOAD PUSH1 0xA0 DUP2 ADD SWAP1 SWAP2 MSTORE PUSH1 0x5 DUP6 MUL SWAP1 SWAP2 ADD DUP1 SLOAD PUSH1 0xFF AND ISZERO ISZERO DUP3 MSTORE PUSH1 0x1 DUP2 ADD DUP1 SLOAD SWAP3 SWAP4 SWAP2 SWAP3 SWAP2 DUP5 ADD SWAP2 PUSH2 0x5BEA SWAP1 PUSH2 0x6F8F JUMP JUMPDEST DUP1 PUSH1 0x1F ADD PUSH1 0x20 DUP1 SWAP2 DIV MUL PUSH1 0x20 ADD PUSH1 0x40 MLOAD SWAP1 DUP2 ADD PUSH1 0x40 MSTORE DUP1 SWAP3 SWAP2 SWAP1 DUP2 DUP2 MSTORE PUSH1 0x20 ADD DUP3 DUP1 SLOAD PUSH2 0x5C16 SWAP1 PUSH2 0x6F8F JUMP JUMPDEST DUP1 ISZERO PUSH2 0x5C63 JUMPI DUP1 PUSH1 0x1F LT PUSH2 0x5C38 JUMPI PUSH2 0x100 DUP1 DUP4 SLOAD DIV MUL DUP4 MSTORE SWAP2 PUSH1 0x20 ADD SWAP2 PUSH2 0x5C63 JUMP JUMPDEST DUP3 ADD SWAP2 SWAP1 PUSH1 0x0 MSTORE PUSH1 0x20 PUSH1 0x0 KECCAK256 SWAP1 JUMPDEST DUP2 SLOAD DUP2 MSTORE SWAP1 PUSH1 0x1 ADD SWAP1 PUSH1 0x20 ADD DUP1 DUP4 GT PUSH2 0x5C46 JUMPI DUP3 SWAP1 SUB PUSH1 0x1F AND DUP3 ADD SWAP2 JUMPDEST POP POP POP POP POP DUP2 MSTORE PUSH1 0x20 ADD PUSH1 0x2 DUP3 ADD DUP1 SLOAD PUSH2 0x5C7C SWAP1 PUSH2 0x6F8F JUMP JUMPDEST DUP1 PUSH1 0x1F ADD PUSH1 0x20 DUP1 SWAP2 DIV MUL PUSH1 0x20 ADD PUSH1 0x40 MLOAD SWAP1 DUP2 ADD PUSH1 0x40 MSTORE DUP1 SWAP3 SWAP2 SWAP1 DUP2 DUP2 MSTORE PUSH1 0x20 ADD DUP3 DUP1 SLOAD PUSH2 0x5CA8 SWAP1 PUSH2 0x6F8F JUMP JUMPDEST DUP1 ISZERO PUSH2 0x5CF5 JUMPI DUP1 PUSH1 0x1F LT PUSH2 0x5CCA JUMPI PUSH2 0x100 DUP1 DUP4 SLOAD DIV MUL DUP4 MSTORE SWAP2 PUSH1 0x20 ADD SWAP2 PUSH2 0x5CF5 JUMP JUMPDEST DUP3 ADD SWAP2 SWAP1 PUSH1 0x0 MSTORE PUSH1 0x20 PUSH1 0x0 KECCAK256 SWAP1 JUMPDEST DUP2 SLOAD DUP2 MSTORE SWAP1 PUSH1 0x1 ADD SWAP1 PUSH1 0x20 ADD DUP1 DUP4 GT PUSH2 0x5CD8 JUMPI DUP3 SWAP1 SUB PUSH1 0x1F AND DUP3 ADD SWAP2 JUMPDEST POP POP POP SWAP2 DUP4 MSTORE POP POP PUSH1 0x3 DUP3 ADD SLOAD PUSH1 0x20 DUP1 DUP4 ADD SWAP2 SWAP1 SWAP2 MSTORE PUSH1 0x4 SWAP1 SWAP3 ADD SLOAD PUSH1 0xFF AND ISZERO ISZERO PUSH1 0x40 SWAP1 SWAP2 ADD MSTORE SWAP1 DUP3 MSTORE PUSH1 0x1 SWAP3 SWAP1 SWAP3 ADD SWAP2 ADD PUSH2 0x5BA5 JUMP JUMPDEST POP POP POP POP SWAP1 POP PUSH1 0x0 JUMPDEST DUP2 MLOAD DUP2 LT ISZERO PUSH2 0x5E3C JUMPI PUSH1 0x40 MLOAD DUP1 PUSH1 0xC0 ADD PUSH1 0x40 MSTORE DUP1 DUP5 PUSH1 0x1 PUSH1 0x1 PUSH1 0xA0 SHL SUB AND DUP2 MSTORE PUSH1 0x20 ADD DUP4 DUP4 DUP2 MLOAD DUP2 LT PUSH2 0x5D6A JUMPI PUSH2 0x5D6A PUSH2 0x6F50 JUMP JUMPDEST PUSH1 0x20 MUL PUSH1 0x20 ADD ADD MLOAD PUSH1 0x0 ADD MLOAD ISZERO ISZERO DUP2 MSTORE PUSH1 0x20 ADD DUP4 DUP4 DUP2 MLOAD DUP2 LT PUSH2 0x5D8F JUMPI PUSH2 0x5D8F PUSH2 0x6F50 JUMP JUMPDEST PUSH1 0x20 MUL PUSH1 0x20 ADD ADD MLOAD PUSH1 0x20 ADD MLOAD DUP2 MSTORE PUSH1 0x20 ADD DUP4 DUP4 DUP2 MLOAD DUP2 LT PUSH2 0x5DB2 JUMPI PUSH2 0x5DB2 PUSH2 0x6F50 JUMP JUMPDEST PUSH1 0x20 MUL PUSH1 0x20 ADD ADD MLOAD PUSH1 0x40 ADD MLOAD DUP2 MSTORE PUSH1 0x20 ADD DUP4 DUP4 DUP2 MLOAD DUP2 LT PUSH2 0x5DD5 JUMPI PUSH2 0x5DD5 PUSH2 0x6F50 JUMP JUMPDEST PUSH1 0x20 MUL PUSH1 0x20 ADD ADD MLOAD PUSH1 0x60 ADD MLOAD DUP2 MSTORE PUSH1 0x20 ADD DUP4 DUP4 DUP2 MLOAD DUP2 LT PUSH2 0x5DF8 JUMPI PUSH2 0x5DF8 PUSH2 0x6F50 JUMP JUMPDEST PUSH1 0x20 MUL PUSH1 0x20 ADD ADD MLOAD PUSH1 0x80 ADD MLOAD ISZERO ISZERO DUP2 MSTORE POP DUP7 DUP7 DUP2 MLOAD DUP2 LT PUSH2 0x5E1B JUMPI PUSH2 0x5E1B PUSH2 0x6F50 JUMP JUMPDEST PUSH1 0x20 MUL PUSH1 0x20 ADD ADD DUP2 SWAP1 MSTORE POP DUP5 DUP1 PUSH2 0x5E31 SWAP1 PUSH2 0x73BE JUMP JUMPDEST SWAP6 POP POP PUSH1 0x1 ADD PUSH2 0x5D35 JUMP JUMPDEST POP POP POP PUSH1 0x1 ADD PUSH2 0x5B39 JUMP JUMPDEST PUSH1 0x0 DUP6 MLOAD GT PUSH2 0x5E68 JUMPI PUSH1 0x40 MLOAD PUSH3 0x461BCD PUSH1 0xE5 SHL DUP2 MSTORE PUSH1 0x4 ADD PUSH2 0x640 SWAP1 PUSH2 0x6EFD JUMP JUMPDEST PUSH1 0x1 PUSH1 0x1 PUSH1 0xA0 SHL SUB DUP5 AND PUSH2 0x5EB7 JUMPI PUSH1 0x40 MLOAD PUSH3 0x461BCD PUSH1 0xE5 SHL DUP2 MSTORE PUSH1 0x20 PUSH1 0x4 DUP3 ADD MSTORE PUSH1 0x16 PUSH1 0x24 DUP3 ADD MSTORE PUSH22 0x416464726573732063616E6E6F74206265207A65726F PUSH1 0x50 SHL PUSH1 0x44 DUP3 ADD MSTORE PUSH1 0x64 ADD PUSH2 0x640 JUMP JUMPDEST PUSH1 0x4 DUP3 PUSH1 0xFF AND GT ISZERO DUP1 PUSH2 0x5ECD JUMPI POP DUP2 PUSH1 0xFF AND PUSH1 0xFF EQ JUMPDEST PUSH2 0x5F2A JUMPI PUSH1 0x40 MLOAD PUSH3 0x461BCD PUSH1 0xE5 SHL DUP2 MSTORE PUSH1 0x20 PUSH1 0x4 DUP3 ADD MSTORE PUSH1 0x28 PUSH1 0x24 DUP3 ADD MSTORE PUSH32 0x496E76616C696420726F6C653A206D75737420626520302D34206F7220323535 PUSH1 0x44 DUP3 ADD MSTORE PUSH8 0x2028756E73657429 PUSH1 0xC0 SHL PUSH1 0x64 DUP3 ADD MSTORE PUSH1 0x84 ADD PUSH2 0x640 JUMP JUMPDEST CALLER PUSH1 0x0 SWAP1 DUP2 MSTORE PUSH1 0x5 PUSH1 0x20 MSTORE PUSH1 0x40 DUP1 DUP3 KECCAK256 SWAP1 MLOAD PUSH2 0x5F47 SWAP1 DUP9 SWAP1 PUSH2 0x6F34 JUMP JUMPDEST SWAP1 DUP2 MSTORE PUSH1 0x20 ADD PUSH1 0x40 MLOAD DUP1 SWAP2 SUB SWAP1 KECCAK256 SWAP1 POP PUSH1 0x0 JUMPDEST DUP2 SLOAD DUP2 LT ISZERO PUSH2 0x5FEE JUMPI DUP6 PUSH1 0x1 PUSH1 0x1 PUSH1 0xA0 SHL SUB AND DUP3 DUP3 DUP2 SLOAD DUP2 LT PUSH2 0x5F7F JUMPI PUSH2 0x5F7F PUSH2 0x6F50 JUMP JUMPDEST PUSH1 0x0 SWAP2 DUP3 MSTORE PUSH1 0x20 SWAP1 SWAP2 KECCAK256 PUSH1 0x4 SWAP1 SWAP2 MUL ADD SLOAD PUSH1 0x1 PUSH1 0x1 PUSH1 0xA0 SHL SUB AND SUB PUSH2 0x5FE6 JUMPI PUSH1 0x40 MLOAD PUSH3 0x461BCD PUSH1 0xE5 SHL DUP2 MSTORE PUSH1 0x20 PUSH1 0x4 DUP3 ADD MSTORE PUSH1 0x1C PUSH1 0x24 DUP3 ADD MSTORE PUSH32 0x4164647265737320616C726561647920696E2077686974656C69737400000000 PUSH1 0x44 DUP3 ADD MSTORE PUSH1 0x64 ADD PUSH2 0x640 JUMP JUMPDEST PUSH1 0x1 ADD PUSH2 0x5F5A JUMP JUMPDEST POP DUP1 SLOAD PUSH1 0x0 SUB PUSH2 0x6023 JUMPI CALLER PUSH1 0x0 SWAP1 DUP2 MSTORE PUSH1 0x6 PUSH1 0x20 SWAP1 DUP2 MSTORE PUSH1 0x40 DUP3 KECCAK256 DUP1 SLOAD PUSH1 0x1 DUP2 ADD DUP3 SSTORE SWAP1 DUP4 MSTORE SWAP2 KECCAK256 ADD PUSH2 0x6021 DUP8 DUP3 PUSH2 0x71C1 JUMP JUMPDEST POP JUMPDEST PUSH1 0x0 DUP4 PUSH1 0xFF AND PUSH1 0xFF EQ PUSH2 0x6036 JUMPI DUP4 PUSH2 0x6039 JUMP JUMPDEST PUSH1 0x0 JUMPDEST PUSH1 0x40 DUP1 MLOAD PUSH1 0x80 DUP2 ADD DUP3 MSTORE PUSH1 0x1 PUSH1 0x1 PUSH1 0xA0 SHL SUB DUP10 DUP2 AND DUP3 MSTORE PUSH1 0x20 DUP1 DUP4 ADD DUP11 DUP2 MSTORE PUSH1 0xFF DUP7 AND SWAP5 DUP5 ADD SWAP5 SWAP1 SWAP5 MSTORE PUSH1 0x60 DUP4 ADD DUP9 SWAP1 MSTORE DUP7 SLOAD PUSH1 0x1 DUP1 DUP3 ADD DUP10 SSTORE PUSH1 0x0 DUP10 DUP2 MSTORE SWAP3 SWAP1 SWAP3 KECCAK256 DUP5 MLOAD PUSH1 0x4 SWAP1 SWAP3 MUL ADD DUP1 SLOAD PUSH1 0x1 PUSH1 0x1 PUSH1 0xA0 SHL SUB NOT AND SWAP2 SWAP1 SWAP4 AND OR DUP3 SSTORE SWAP3 MLOAD SWAP4 SWAP5 POP SWAP1 SWAP3 DUP4 SWAP3 DUP3 ADD SWAP1 PUSH2 0x60AD SWAP1 DUP3 PUSH2 0x71C1 JUMP JUMPDEST POP PUSH1 0x40 DUP3 ADD MLOAD PUSH1 0x2 DUP3 ADD DUP1 SLOAD PUSH1 0xFF NOT AND PUSH1 0xFF SWAP1 SWAP3 AND SWAP2 SWAP1 SWAP2 OR SWAP1 SSTORE PUSH1 0x60 DUP3 ADD MLOAD PUSH1 0x3 DUP3 ADD SWAP1 PUSH2 0x60DC SWAP1 DUP3 PUSH2 0x71C1 JUMP JUMPDEST POP POP CALLER PUSH1 0x0 SWAP1 DUP2 MSTORE PUSH1 0x7 PUSH1 0x20 SWAP1 DUP2 MSTORE PUSH1 0x40 DUP1 DUP4 KECCAK256 PUSH1 0x1 PUSH1 0x1 PUSH1 0xA0 SHL SUB DUP13 AND DUP5 MSTORE DUP3 MSTORE DUP1 DUP4 KECCAK256 DUP2 MLOAD PUSH1 0x60 DUP2 ADD DUP4 MSTORE DUP14 DUP2 MSTORE PUSH1 0xFF DUP9 AND DUP2 DUP6 ADD MSTORE TIMESTAMP SWAP3 DUP2 ADD SWAP3 SWAP1 SWAP3 MSTORE DUP1 SLOAD PUSH1 0x1 DUP2 ADD DUP3 SSTORE SWAP1 DUP5 MSTORE SWAP2 SWAP1 SWAP3 KECCAK256 DUP3 MLOAD SWAP3 SWAP4 POP PUSH1 0x3 SWAP1 SWAP2 MUL ADD SWAP1 DUP2 SWAP1 PUSH2 0x6143 SWAP1 DUP3 PUSH2 0x71C1 JUMP JUMPDEST POP PUSH1 0x20 DUP3 ADD MLOAD PUSH1 0x1 DUP3 ADD DUP1 SLOAD PUSH1 0xFF NOT AND PUSH1 0xFF SWAP1 SWAP3 AND SWAP2 SWAP1 SWAP2 OR SWAP1 SSTORE PUSH1 0x40 SWAP2 DUP3 ADD MLOAD PUSH1 0x2 SWAP1 SWAP2 ADD SSTORE MLOAD PUSH1 0x1 PUSH1 0x1 PUSH1 0xA0 SHL SUB DUP9 AND SWAP1 CALLER SWAP1 PUSH32 0xB66DABB959D5F3BDB53A39AA58D0975B39199C9B188AD8BB09A1B37BB7BF5979 SWAP1 PUSH2 0x61A7 SWAP1 DUP13 SWAP1 TIMESTAMP SWAP1 PUSH2 0x742C JUMP JUMPDEST PUSH1 0x40 MLOAD DUP1 SWAP2 SUB SWAP1 LOG3 POP POP POP POP POP POP POP POP JUMP JUMPDEST POP DUP1 SLOAD PUSH2 0x61C5 SWAP1 PUSH2 0x6F8F JUMP JUMPDEST PUSH1 0x0 DUP3 SSTORE DUP1 PUSH1 0x1F LT PUSH2 0x61D5 JUMPI POP POP JUMP JUMPDEST PUSH1 0x1F ADD PUSH1 0x20 SWAP1 DIV SWAP1 PUSH1 0x0 MSTORE PUSH1 0x20 PUSH1 0x0 KECCAK256 SWAP1 DUP2 ADD SWAP1 PUSH2 0x61F3 SWAP2 SWAP1 PUSH2 0x631B JUMP JUMPDEST POP JUMP JUMPDEST PUSH1 0x40 MLOAD DUP1 PUSH2 0x100 ADD PUSH1 0x40 MSTORE DUP1 PUSH1 0x0 PUSH1 0x1 PUSH1 0x1 PUSH1 0xA0 SHL SUB AND DUP2 MSTORE PUSH1 0x20 ADD PUSH1 0x0 PUSH1 0x1 PUSH1 0x1 PUSH1 0xA0 SHL SUB AND DUP2 MSTORE PUSH1 0x20 ADD PUSH1 0x60 DUP2 MSTORE PUSH1 0x20 ADD PUSH1 0x60 DUP2 MSTORE PUSH1 0x20 ADD PUSH1 0x60 DUP2 MSTORE PUSH1 0x20 ADD PUSH1 0x60 DUP2 MSTORE PUSH1 0x20 ADD PUSH1 0x0 PUSH1 0x1 DUP2 GT ISZERO PUSH2 0x6251 JUMPI PUSH2 0x6251 PUSH2 0x6872 JUMP JUMPDEST DUP2 MSTORE PUSH1 0x20 ADD PUSH1 0x0 DUP2 MSTORE POP SWAP1 JUMP JUMPDEST PUSH1 0x40 MLOAD DUP1 PUSH1 0xC0 ADD PUSH1 0x40 MSTORE DUP1 PUSH1 0x0 PUSH1 0x1 PUSH1 0x1 PUSH1 0xA0 SHL SUB AND DUP2 MSTORE PUSH1 0x20 ADD PUSH1 0x0 ISZERO ISZERO DUP2 MSTORE PUSH1 0x20 ADD PUSH1 0x60 DUP2 MSTORE PUSH1 0x20 ADD PUSH1 0x60 DUP2 MSTORE PUSH1 0x20 ADD PUSH1 0x0 DUP2 MSTORE PUSH1 0x20 ADD PUSH1 0x0 ISZERO ISZERO DUP2 MSTORE POP SWAP1 JUMP JUMPDEST POP DUP1 SLOAD PUSH1 0x0 DUP3 SSTORE PUSH1 0x5 MUL SWAP1 PUSH1 0x0 MSTORE PUSH1 0x20 PUSH1 0x0 KECCAK256 SWAP1 DUP2 ADD SWAP1 PUSH2 0x61F3 SWAP2 SWAP1 PUSH2 0x6334 JUMP JUMPDEST POP DUP1 SLOAD PUSH1 0x0 DUP3 SSTORE PUSH1 0x8 MUL SWAP1 PUSH1 0x0 MSTORE PUSH1 0x20 PUSH1 0x0 KECCAK256 SWAP1 DUP2 ADD SWAP1 PUSH2 0x61F3 SWAP2 SWAP1 PUSH2 0x637D JUMP JUMPDEST POP DUP1 SLOAD PUSH1 0x0 DUP3 SSTORE SWAP1 PUSH1 0x0 MSTORE PUSH1 0x20 PUSH1 0x0 KECCAK256 SWAP1 DUP2 ADD SWAP1 PUSH2 0x61F3 SWAP2 SWAP1 PUSH2 0x63F5 JUMP JUMPDEST POP DUP1 SLOAD PUSH1 0x0 DUP3 SSTORE SWAP1 PUSH1 0x0 MSTORE PUSH1 0x20 PUSH1 0x0 KECCAK256 SWAP1 DUP2 ADD SWAP1 PUSH2 0x61F3 SWAP2 SWAP1 JUMPDEST JUMPDEST DUP1 DUP3 GT ISZERO PUSH2 0x6330 JUMPI PUSH1 0x0 DUP2 SSTORE PUSH1 0x1 ADD PUSH2 0x631C JUMP JUMPDEST POP SWAP1 JUMP JUMPDEST DUP1 DUP3 GT ISZERO PUSH2 0x6330 JUMPI DUP1 SLOAD PUSH1 0xFF NOT AND DUP2 SSTORE PUSH1 0x0 PUSH2 0x6353 PUSH1 0x1 DUP4 ADD DUP3 PUSH2 0x61B9 JUMP JUMPDEST PUSH2 0x6361 PUSH1 0x2 DUP4 ADD PUSH1 0x0 PUSH2 0x61B9 JUMP JUMPDEST POP PUSH1 0x0 PUSH1 0x3 DUP3 ADD SSTORE PUSH1 0x4 DUP2 ADD DUP1 SLOAD PUSH1 0xFF NOT AND SWAP1 SSTORE PUSH1 0x5 ADD PUSH2 0x6334 JUMP JUMPDEST DUP1 DUP3 GT ISZERO PUSH2 0x6330 JUMPI DUP1 SLOAD PUSH1 0x1 PUSH1 0x1 PUSH1 0xA0 SHL SUB NOT SWAP1 DUP2 AND DUP3 SSTORE PUSH1 0x1 DUP3 ADD DUP1 SLOAD SWAP1 SWAP2 AND SWAP1 SSTORE PUSH1 0x0 PUSH2 0x63AF PUSH1 0x2 DUP4 ADD DUP3 PUSH2 0x61B9 JUMP JUMPDEST PUSH2 0x63BD PUSH1 0x3 DUP4 ADD PUSH1 0x0 PUSH2 0x61B9 JUMP JUMPDEST PUSH2 0x63CB PUSH1 0x4 DUP4 ADD PUSH1 0x0 PUSH2 0x61B9 JUMP JUMPDEST PUSH2 0x63D9 PUSH1 0x5 DUP4 ADD PUSH1 0x0 PUSH2 0x61B9 JUMP JUMPDEST POP PUSH1 0x6 DUP2 ADD DUP1 SLOAD PUSH1 0xFF NOT AND SWAP1 SSTORE PUSH1 0x0 PUSH1 0x7 DUP3 ADD SSTORE PUSH1 0x8 ADD PUSH2 0x637D JUMP JUMPDEST DUP1 DUP3 GT ISZERO PUSH2 0x6330 JUMPI PUSH1 0x0 PUSH2 0x6409 DUP3 DUP3 PUSH2 0x61B9 JUMP JUMPDEST POP PUSH1 0x1 ADD PUSH2 0x63F5 JUMP JUMPDEST PUSH4 0x4E487B71 PUSH1 0xE0 SHL PUSH1 0x0 MSTORE PUSH1 0x41 PUSH1 0x4 MSTORE PUSH1 0x24 PUSH1 0x0 REVERT JUMPDEST PUSH1 0x0 DUP3 PUSH1 0x1F DUP4 ADD SLT PUSH2 0x6439 JUMPI PUSH1 0x0 DUP1 REVERT JUMPDEST DUP2 CALLDATALOAD PUSH1 0x1 PUSH1 0x1 PUSH1 0x40 SHL SUB DUP2 GT ISZERO PUSH2 0x6452 JUMPI PUSH2 0x6452 PUSH2 0x6412 JUMP JUMPDEST PUSH1 0x40 MLOAD PUSH1 0x1F DUP3 ADD PUSH1 0x1F NOT SWAP1 DUP2 AND PUSH1 0x3F ADD AND DUP2 ADD PUSH1 0x1 PUSH1 0x1 PUSH1 0x40 SHL SUB DUP2 GT DUP3 DUP3 LT OR ISZERO PUSH2 0x6480 JUMPI PUSH2 0x6480 PUSH2 0x6412 JUMP JUMPDEST PUSH1 0x40 MSTORE DUP2 DUP2 MSTORE DUP4 DUP3 ADD PUSH1 0x20 ADD DUP6 LT ISZERO PUSH2 0x6498 JUMPI PUSH1 0x0 DUP1 REVERT JUMPDEST DUP2 PUSH1 0x20 DUP6 ADD PUSH1 0x20 DUP4 ADD CALLDATACOPY PUSH1 0x0 SWAP2 DUP2 ADD PUSH1 0x20 ADD SWAP2 SWAP1 SWAP2 MSTORE SWAP4 SWAP3 POP POP POP JUMP JUMPDEST DUP1 CALLDATALOAD PUSH1 0x1 PUSH1 0x1 PUSH1 0xA0 SHL SUB DUP2 AND DUP2 EQ PUSH2 0x64CC JUMPI PUSH1 0x0 DUP1 REVERT JUMPDEST SWAP2 SWAP1 POP JUMP JUMPDEST PUSH1 0x0 DUP1 PUSH1 0x40 DUP4 DUP6 SUB SLT ISZERO PUSH2 0x64E4 JUMPI PUSH1 0x0 DUP1 REVERT JUMPDEST DUP3 CALLDATALOAD PUSH1 0x1 PUSH1 0x1 PUSH1 0x40 SHL SUB DUP2 GT ISZERO PUSH2 0x64FA JUMPI PUSH1 0x0 DUP1 REVERT JUMPDEST PUSH2 0x6506 DUP6 DUP3 DUP7 ADD PUSH2 0x6428 JUMP JUMPDEST SWAP3 POP POP PUSH2 0x6515 PUSH1 0x20 DUP5 ADD PUSH2 0x64B5 JUMP JUMPDEST SWAP1 POP SWAP3 POP SWAP3 SWAP1 POP JUMP JUMPDEST PUSH1 0x0 PUSH1 0x20 DUP3 DUP5 SUB SLT ISZERO PUSH2 0x6530 JUMPI PUSH1 0x0 DUP1 REVERT JUMPDEST PUSH2 0x1C97 DUP3 PUSH2 0x64B5 JUMP JUMPDEST DUP1 CALLDATALOAD PUSH1 0x2 DUP2 LT PUSH2 0x64CC JUMPI PUSH1 0x0 DUP1 REVERT JUMPDEST PUSH1 0x0 DUP1 PUSH1 0x0 DUP1 PUSH1 0x0 DUP1 PUSH1 0xC0 DUP8 DUP10 SUB SLT ISZERO PUSH2 0x6561 JUMPI PUSH1 0x0 DUP1 REVERT JUMPDEST PUSH2 0x656A DUP8 PUSH2 0x64B5 JUMP JUMPDEST SWAP6 POP PUSH1 0x20 DUP8 ADD CALLDATALOAD PUSH1 0x1 PUSH1 0x1 PUSH1 0x40 SHL SUB DUP2 GT ISZERO PUSH2 0x6585 JUMPI PUSH1 0x0 DUP1 REVERT JUMPDEST PUSH2 0x6591 DUP10 DUP3 DUP11 ADD PUSH2 0x6428 JUMP JUMPDEST SWAP6 POP POP PUSH1 0x40 DUP8 ADD CALLDATALOAD PUSH1 0x1 PUSH1 0x1 PUSH1 0x40 SHL SUB DUP2 GT ISZERO PUSH2 0x65AD JUMPI PUSH1 0x0 DUP1 REVERT JUMPDEST PUSH2 0x65B9 DUP10 DUP3 DUP11 ADD PUSH2 0x6428 JUMP JUMPDEST SWAP5 POP POP PUSH1 0x60 DUP8 ADD CALLDATALOAD PUSH1 0x1 PUSH1 0x1 PUSH1 0x40 SHL SUB DUP2 GT ISZERO PUSH2 0x65D5 JUMPI PUSH1 0x0 DUP1 REVERT JUMPDEST PUSH2 0x65E1 DUP10 DUP3 DUP11 ADD PUSH2 0x6428 JUMP JUMPDEST SWAP4 POP POP PUSH1 0x80 DUP8 ADD CALLDATALOAD PUSH1 0x1 PUSH1 0x1 PUSH1 0x40 SHL SUB DUP2 GT ISZERO PUSH2 0x65FD JUMPI PUSH1 0x0 DUP1 REVERT JUMPDEST PUSH2 0x6609 DUP10 DUP3 DUP11 ADD PUSH2 0x6428 JUMP JUMPDEST SWAP3 POP POP PUSH2 0x6618 PUSH1 0xA0 DUP9 ADD PUSH2 0x6539 JUMP JUMPDEST SWAP1 POP SWAP3 SWAP6 POP SWAP3 SWAP6 POP SWAP3 SWAP6 JUMP JUMPDEST PUSH1 0x0 DUP1 PUSH1 0x0 PUSH1 0x60 DUP5 DUP7 SUB SLT ISZERO PUSH2 0x6639 JUMPI PUSH1 0x0 DUP1 REVERT JUMPDEST PUSH2 0x6642 DUP5 PUSH2 0x64B5 JUMP JUMPDEST SWAP3 POP PUSH1 0x20 DUP5 ADD CALLDATALOAD PUSH1 0x1 PUSH1 0x1 PUSH1 0x40 SHL SUB DUP2 GT ISZERO PUSH2 0x665D JUMPI PUSH1 0x0 DUP1 REVERT JUMPDEST PUSH2 0x6669 DUP7 DUP3 DUP8 ADD PUSH2 0x6428 JUMP JUMPDEST SWAP3 POP POP PUSH1 0x40 DUP5 ADD CALLDATALOAD DUP1 ISZERO ISZERO DUP2 EQ PUSH2 0x667F JUMPI PUSH1 0x0 DUP1 REVERT JUMPDEST DUP1 SWAP2 POP POP SWAP3 POP SWAP3 POP SWAP3 JUMP JUMPDEST PUSH1 0x0 DUP1 PUSH1 0x40 DUP4 DUP6 SUB SLT ISZERO PUSH2 0x669D JUMPI PUSH1 0x0 DUP1 REVERT JUMPDEST PUSH2 0x66A6 DUP4 PUSH2 0x64B5 JUMP JUMPDEST SWAP2 POP PUSH2 0x6515 PUSH1 0x20 DUP5 ADD PUSH2 0x64B5 JUMP JUMPDEST PUSH1 0x0 JUMPDEST DUP4 DUP2 LT ISZERO PUSH2 0x66CF JUMPI DUP2 DUP2 ADD MLOAD DUP4 DUP3 ADD MSTORE PUSH1 0x20 ADD PUSH2 0x66B7 JUMP JUMPDEST POP POP PUSH1 0x0 SWAP2 ADD MSTORE JUMP JUMPDEST PUSH1 0x0 DUP2 MLOAD DUP1 DUP5 MSTORE PUSH2 0x66F0 DUP2 PUSH1 0x20 DUP7 ADD PUSH1 0x20 DUP7 ADD PUSH2 0x66B4 JUMP JUMPDEST PUSH1 0x1F ADD PUSH1 0x1F NOT AND SWAP3 SWAP1 SWAP3 ADD PUSH1 0x20 ADD SWAP3 SWAP2 POP POP JUMP JUMPDEST PUSH1 0x0 PUSH1 0x20 DUP3 ADD PUSH1 0x20 DUP4 MSTORE DUP1 DUP5 MLOAD DUP1 DUP4 MSTORE PUSH1 0x40 DUP6 ADD SWAP2 POP PUSH1 0x40 DUP2 PUSH1 0x5 SHL DUP7 ADD ADD SWAP3 POP PUSH1 0x20 DUP7 ADD PUSH1 0x0 JUMPDEST DUP3 DUP2 LT ISZERO PUSH2 0x67A6 JUMPI PUSH1 0x3F NOT DUP8 DUP7 SUB ADD DUP5 MSTORE DUP2 MLOAD DUP1 MLOAD ISZERO ISZERO DUP7 MSTORE PUSH1 0x20 DUP2 ADD MLOAD PUSH1 0xA0 PUSH1 0x20 DUP9 ADD MSTORE PUSH2 0x675E PUSH1 0xA0 DUP9 ADD DUP3 PUSH2 0x66D8 JUMP JUMPDEST SWAP1 POP PUSH1 0x40 DUP3 ADD MLOAD DUP8 DUP3 SUB PUSH1 0x40 DUP10 ADD MSTORE PUSH2 0x6777 DUP3 DUP3 PUSH2 0x66D8 JUMP JUMPDEST PUSH1 0x60 DUP5 DUP2 ADD MLOAD SWAP1 DUP11 ADD MSTORE PUSH1 0x80 SWAP4 DUP5 ADD MLOAD ISZERO ISZERO SWAP4 SWAP1 SWAP9 ADD SWAP3 SWAP1 SWAP3 MSTORE POP POP PUSH1 0x20 SWAP4 DUP5 ADD SWAP4 SWAP2 SWAP1 SWAP2 ADD SWAP1 PUSH1 0x1 ADD PUSH2 0x672C JUMP JUMPDEST POP SWAP3 SWAP7 SWAP6 POP POP POP POP POP POP JUMP JUMPDEST PUSH1 0x0 DUP1 PUSH1 0x40 DUP4 DUP6 SUB SLT ISZERO PUSH2 0x67C5 JUMPI PUSH1 0x0 DUP1 REVERT JUMPDEST DUP3 CALLDATALOAD PUSH1 0x1 PUSH1 0x1 PUSH1 0x40 SHL SUB DUP2 GT ISZERO PUSH2 0x67DB JUMPI PUSH1 0x0 DUP1 REVERT JUMPDEST PUSH2 0x67E7 DUP6 DUP3 DUP7 ADD PUSH2 0x6428 JUMP JUMPDEST SWAP3 POP POP PUSH1 0x20 DUP4 ADD CALLDATALOAD PUSH1 0x1 PUSH1 0x1 PUSH1 0x40 SHL SUB DUP2 GT ISZERO PUSH2 0x6803 JUMPI PUSH1 0x0 DUP1 REVERT JUMPDEST PUSH2 0x680F DUP6 DUP3 DUP7 ADD PUSH2 0x6428 JUMP JUMPDEST SWAP2 POP POP SWAP3 POP SWAP3 SWAP1 POP JUMP JUMPDEST PUSH1 0x0 PUSH1 0x20 DUP3 ADD PUSH1 0x20 DUP4 MSTORE DUP1 DUP5 MLOAD DUP1 DUP4 MSTORE PUSH1 0x40 DUP6 ADD SWAP2 POP PUSH1 0x40 DUP2 PUSH1 0x5 SHL DUP7 ADD ADD SWAP3 POP PUSH1 0x20 DUP7 ADD PUSH1 0x0 JUMPDEST DUP3 DUP2 LT ISZERO PUSH2 0x67A6 JUMPI PUSH1 0x3F NOT DUP8 DUP7 SUB ADD DUP5 MSTORE PUSH2 0x685D DUP6 DUP4 MLOAD PUSH2 0x66D8 JUMP JUMPDEST SWAP5 POP PUSH1 0x20 SWAP4 DUP5 ADD SWAP4 SWAP2 SWAP1 SWAP2 ADD SWAP1 PUSH1 0x1 ADD PUSH2 0x6841 JUMP JUMPDEST PUSH4 0x4E487B71 PUSH1 0xE0 SHL PUSH1 0x0 MSTORE PUSH1 0x21 PUSH1 0x4 MSTORE PUSH1 0x24 PUSH1 0x0 REVERT JUMPDEST PUSH1 0x2 DUP2 LT PUSH2 0x68A6 JUMPI PUSH4 0x4E487B71 PUSH1 0xE0 SHL PUSH1 0x0 MSTORE PUSH1 0x21 PUSH1 0x4 MSTORE PUSH1 0x24 PUSH1 0x0 REVERT JUMPDEST SWAP1 MSTORE JUMP JUMPDEST PUSH1 0x0 PUSH1 0x20 DUP3 ADD PUSH1 0x20 DUP4 MSTORE DUP1 DUP5 MLOAD DUP1 DUP4 MSTORE PUSH1 0x40 DUP6 ADD SWAP2 POP PUSH1 0x40 DUP2 PUSH1 0x5 SHL DUP7 ADD ADD SWAP3 POP PUSH1 0x20 DUP7 ADD PUSH1 0x0 JUMPDEST DUP3 DUP2 LT ISZERO PUSH2 0x67A6 JUMPI DUP7 DUP6 SUB PUSH1 0x3F NOT ADD DUP5 MSTORE DUP2 MLOAD DUP1 MLOAD PUSH1 0x1 PUSH1 0x1 PUSH1 0xA0 SHL SUB AND DUP7 MSTORE PUSH1 0x20 DUP2 ADD MLOAD PUSH2 0x690C PUSH1 0x20 DUP9 ADD DUP3 PUSH1 0x1 PUSH1 0x1 PUSH1 0xA0 SHL SUB AND SWAP1 MSTORE JUMP JUMPDEST POP PUSH1 0x40 DUP2 ADD MLOAD PUSH2 0x100 PUSH1 0x40 DUP9 ADD MSTORE PUSH2 0x6928 PUSH2 0x100 DUP9 ADD DUP3 PUSH2 0x66D8 JUMP JUMPDEST SWAP1 POP PUSH1 0x60 DUP3 ADD MLOAD DUP8 DUP3 SUB PUSH1 0x60 DUP10 ADD MSTORE PUSH2 0x6941 DUP3 DUP3 PUSH2 0x66D8 JUMP JUMPDEST SWAP2 POP POP PUSH1 0x80 DUP3 ADD MLOAD DUP8 DUP3 SUB PUSH1 0x80 DUP10 ADD MSTORE PUSH2 0x695B DUP3 DUP3 PUSH2 0x66D8 JUMP JUMPDEST SWAP2 POP POP PUSH1 0xA0 DUP3 ADD MLOAD DUP8 DUP3 SUB PUSH1 0xA0 DUP10 ADD MSTORE PUSH2 0x6975 DUP3 DUP3 PUSH2 0x66D8 JUMP JUMPDEST SWAP2 POP POP PUSH1 0xC0 DUP3 ADD MLOAD PUSH2 0x698A PUSH1 0xC0 DUP10 ADD DUP3 PUSH2 0x6888 JUMP JUMPDEST POP PUSH1 0xE0 SWAP2 DUP3 ADD MLOAD SWAP7 SWAP1 SWAP2 ADD SWAP6 SWAP1 SWAP6 MSTORE PUSH1 0x20 SWAP4 DUP5 ADD SWAP4 SWAP2 SWAP1 SWAP2 ADD SWAP1 PUSH1 0x1 ADD PUSH2 0x68D2 JUMP JUMPDEST PUSH1 0x0 DUP1 PUSH1 0x40 DUP4 DUP6 SUB SLT ISZERO PUSH2 0x69BF JUMPI PUSH1 0x0 DUP1 REVERT JUMPDEST PUSH2 0x69C8 DUP4 PUSH2 0x64B5 JUMP JUMPDEST SWAP2 POP PUSH1 0x20 DUP4 ADD CALLDATALOAD PUSH1 0x1 PUSH1 0x1 PUSH1 0x40 SHL SUB DUP2 GT ISZERO PUSH2 0x6803 JUMPI PUSH1 0x0 DUP1 REVERT JUMPDEST PUSH1 0x0 DUP1 PUSH1 0x0 PUSH1 0x60 DUP5 DUP7 SUB SLT ISZERO PUSH2 0x69F8 JUMPI PUSH1 0x0 DUP1 REVERT JUMPDEST PUSH2 0x6A01 DUP5 PUSH2 0x64B5 JUMP JUMPDEST SWAP3 POP PUSH1 0x20 DUP5 ADD CALLDATALOAD PUSH1 0x1 PUSH1 0x1 PUSH1 0x40 SHL SUB DUP2 GT ISZERO PUSH2 0x6A1C JUMPI PUSH1 0x0 DUP1 REVERT JUMPDEST PUSH2 0x6A28 DUP7 DUP3 DUP8 ADD PUSH2 0x6428 JUMP JUMPDEST SWAP3 POP POP PUSH2 0x6A37 PUSH1 0x40 DUP6 ADD PUSH2 0x64B5 JUMP JUMPDEST SWAP1 POP SWAP3 POP SWAP3 POP SWAP3 JUMP JUMPDEST PUSH1 0x1 DUP1 PUSH1 0xA0 SHL SUB DUP2 MLOAD AND DUP3 MSTORE PUSH1 0x0 PUSH1 0x20 DUP3 ADD MLOAD PUSH1 0x80 PUSH1 0x20 DUP6 ADD MSTORE PUSH2 0x6A67 PUSH1 0x80 DUP6 ADD DUP3 PUSH2 0x66D8 JUMP JUMPDEST SWAP1 POP PUSH1 0xFF PUSH1 0x40 DUP5 ADD MLOAD AND PUSH1 0x40 DUP6 ADD MSTORE PUSH1 0x60 DUP4 ADD MLOAD DUP5 DUP3 SUB PUSH1 0x60 DUP7 ADD MSTORE PUSH2 0x6A8D DUP3 DUP3 PUSH2 0x66D8 JUMP JUMPDEST SWAP6 SWAP5 POP POP POP POP POP JUMP JUMPDEST PUSH1 0x20 DUP2 MSTORE PUSH1 0x0 PUSH2 0x1C97 PUSH1 0x20 DUP4 ADD DUP5 PUSH2 0x6A40 JUMP JUMPDEST PUSH1 0x0 PUSH1 0x20 DUP3 DUP5 SUB SLT ISZERO PUSH2 0x6ABB JUMPI PUSH1 0x0 DUP1 REVERT JUMPDEST DUP2 CALLDATALOAD PUSH1 0x1 PUSH1 0x1 PUSH1 0x40 SHL SUB DUP2 GT ISZERO PUSH2 0x6AD1 JUMPI PUSH1 0x0 DUP1 REVERT JUMPDEST PUSH2 0x6ADD DUP5 DUP3 DUP6 ADD PUSH2 0x6428 JUMP JUMPDEST SWAP5 SWAP4 POP POP POP POP JUMP JUMPDEST PUSH1 0x0 DUP1 PUSH1 0x0 PUSH1 0x60 DUP5 DUP7 SUB SLT ISZERO PUSH2 0x6AFA JUMPI PUSH1 0x0 DUP1 REVERT JUMPDEST PUSH2 0x6B03 DUP5 PUSH2 0x64B5 JUMP JUMPDEST SWAP6 PUSH1 0x20 DUP6 ADD CALLDATALOAD SWAP6 POP PUSH1 0x40 SWAP1 SWAP5 ADD CALLDATALOAD SWAP4 SWAP3 POP POP POP JUMP JUMPDEST PUSH1 0x0 DUP1 PUSH1 0x0 DUP1 PUSH1 0x0 PUSH1 0xA0 DUP7 DUP9 SUB SLT ISZERO PUSH2 0x6B30 JUMPI PUSH1 0x0 DUP1 REVERT JUMPDEST DUP6 CALLDATALOAD PUSH1 0x1 PUSH1 0x1 PUSH1 0x40 SHL SUB DUP2 GT ISZERO PUSH2 0x6B46 JUMPI PUSH1 0x0 DUP1 REVERT JUMPDEST PUSH2 0x6B52 DUP9 DUP3 DUP10 ADD PUSH2 0x6428 JUMP JUMPDEST SWAP6 POP POP PUSH2 0x6B61 PUSH1 0x20 DUP8 ADD PUSH2 0x64B5 JUMP JUMPDEST SWAP4 POP PUSH1 0x40 DUP7 ADD CALLDATALOAD PUSH1 0x1 PUSH1 0x1 PUSH1 0x40 SHL SUB DUP2 GT ISZERO PUSH2 0x6B7C JUMPI PUSH1 0x0 DUP1 REVERT JUMPDEST PUSH2 0x6B88 DUP9 DUP3 DUP10 ADD PUSH2 0x6428 JUMP JUMPDEST SWAP4 POP POP PUSH1 0x60 DUP7 ADD CALLDATALOAD PUSH1 0xFF DUP2 AND DUP2 EQ PUSH2 0x6B9F JUMPI PUSH1 0x0 DUP1 REVERT JUMPDEST SWAP2 POP PUSH1 0x80 DUP7 ADD CALLDATALOAD PUSH1 0x1 PUSH1 0x1 PUSH1 0x40 SHL SUB DUP2 GT ISZERO PUSH2 0x6BBA JUMPI PUSH1 0x0 DUP1 REVERT JUMPDEST PUSH2 0x6BC6 DUP9 DUP3 DUP10 ADD PUSH2 0x6428 JUMP JUMPDEST SWAP2 POP POP SWAP3 SWAP6 POP SWAP3 SWAP6 SWAP1 SWAP4 POP JUMP JUMPDEST PUSH1 0x0 DUP1 PUSH1 0x0 DUP1 PUSH1 0x0 PUSH1 0xA0 DUP7 DUP9 SUB SLT ISZERO PUSH2 0x6BEB JUMPI PUSH1 0x0 DUP1 REVERT JUMPDEST PUSH2 0x6BF4 DUP7 PUSH2 0x64B5 JUMP JUMPDEST SWAP5 POP PUSH1 0x20 DUP7 ADD CALLDATALOAD PUSH1 0x1 PUSH1 0x1 PUSH1 0x40 SHL SUB DUP2 GT ISZERO PUSH2 0x6C0F JUMPI PUSH1 0x0 DUP1 REVERT JUMPDEST PUSH2 0x6C1B DUP9 DUP3 DUP10 ADD PUSH2 0x6428 JUMP JUMPDEST SWAP5 POP POP PUSH1 0x40 DUP7 ADD CALLDATALOAD PUSH1 0x1 PUSH1 0x1 PUSH1 0x40 SHL SUB DUP2 GT ISZERO PUSH2 0x6C37 JUMPI PUSH1 0x0 DUP1 REVERT JUMPDEST PUSH2 0x6C43 DUP9 DUP3 DUP10 ADD PUSH2 0x6428 JUMP JUMPDEST SWAP4 POP POP PUSH1 0x60 DUP7 ADD CALLDATALOAD PUSH1 0x1 PUSH1 0x1 PUSH1 0x40 SHL SUB DUP2 GT ISZERO PUSH2 0x6C5F JUMPI PUSH1 0x0 DUP1 REVERT JUMPDEST PUSH2 0x6C6B DUP9 DUP3 DUP10 ADD PUSH2 0x6428 JUMP JUMPDEST SWAP3 POP POP PUSH1 0x80 DUP7 ADD CALLDATALOAD PUSH1 0x1 PUSH1 0x1 PUSH1 0x40 SHL SUB DUP2 GT ISZERO PUSH2 0x6BBA JUMPI PUSH1 0x0 DUP1 REVERT JUMPDEST PUSH1 0x20 DUP2 MSTORE PUSH1 0x0 PUSH2 0x1C97 PUSH1 0x20 DUP4 ADD DUP5 PUSH2 0x66D8 JUMP JUMPDEST PUSH1 0x0 DUP1 PUSH1 0x0 DUP1 PUSH1 0x80 DUP6 DUP8 SUB SLT ISZERO PUSH2 0x6CB0 JUMPI PUSH1 0x0 DUP1 REVERT JUMPDEST PUSH2 0x6CB9 DUP6 PUSH2 0x64B5 JUMP JUMPDEST SWAP4 POP PUSH1 0x20 DUP6 ADD CALLDATALOAD PUSH1 0x1 PUSH1 0x1 PUSH1 0x40 SHL SUB DUP2 GT ISZERO PUSH2 0x6CD4 JUMPI PUSH1 0x0 DUP1 REVERT JUMPDEST PUSH2 0x6CE0 DUP8 DUP3 DUP9 ADD PUSH2 0x6428 JUMP JUMPDEST SWAP4 POP POP PUSH1 0x40 DUP6 ADD CALLDATALOAD PUSH1 0x1 PUSH1 0x1 PUSH1 0x40 SHL SUB DUP2 GT ISZERO PUSH2 0x6CFC JUMPI PUSH1 0x0 DUP1 REVERT JUMPDEST PUSH2 0x6D08 DUP8 DUP3 DUP9 ADD PUSH2 0x6428 JUMP JUMPDEST SWAP3 POP POP PUSH1 0x60 DUP6 ADD CALLDATALOAD PUSH1 0x1 PUSH1 0x1 PUSH1 0x40 SHL SUB DUP2 GT ISZERO PUSH2 0x6D24 JUMPI PUSH1 0x0 DUP1 REVERT JUMPDEST PUSH2 0x6D30 DUP8 DUP3 DUP9 ADD PUSH2 0x6428 JUMP JUMPDEST SWAP2 POP POP SWAP3 SWAP6 SWAP2 SWAP5 POP SWAP3 POP JUMP JUMPDEST PUSH1 0x0 PUSH1 0x20 DUP3 ADD PUSH1 0x20 DUP4 MSTORE DUP1 DUP5 MLOAD DUP1 DUP4 MSTORE PUSH1 0x40 DUP6 ADD SWAP2 POP PUSH1 0x40 DUP2 PUSH1 0x5 SHL DUP7 ADD ADD SWAP3 POP PUSH1 0x20 DUP7 ADD PUSH1 0x0 JUMPDEST DUP3 DUP2 LT ISZERO PUSH2 0x67A6 JUMPI PUSH1 0x3F NOT DUP8 DUP7 SUB ADD DUP5 MSTORE PUSH2 0x6D80 DUP6 DUP4 MLOAD PUSH2 0x6A40 JUMP JUMPDEST SWAP5 POP PUSH1 0x20 SWAP4 DUP5 ADD SWAP4 SWAP2 SWAP1 SWAP2 ADD SWAP1 PUSH1 0x1 ADD PUSH2 0x6D64 JUMP JUMPDEST PUSH1 0x20 DUP1 DUP3 MSTORE DUP3 MLOAD DUP3 DUP3 ADD DUP2 SWAP1 MSTORE PUSH1 0x0 SWAP2 DUP5 ADD SWAP1 PUSH1 0x40 DUP5 ADD SWAP1 DUP4 JUMPDEST DUP2 DUP2 LT ISZERO PUSH2 0x23B2 JUMPI DUP4 MLOAD DUP4 MSTORE PUSH1 0x20 SWAP4 DUP5 ADD SWAP4 SWAP1 SWAP3 ADD SWAP2 PUSH1 0x1 ADD PUSH2 0x6DAF JUMP JUMPDEST PUSH1 0x0 PUSH1 0x20 DUP3 ADD PUSH1 0x20 DUP4 MSTORE DUP1 DUP5 MLOAD DUP1 DUP4 MSTORE PUSH1 0x40 DUP6 ADD SWAP2 POP PUSH1 0x40 DUP2 PUSH1 0x5 SHL DUP7 ADD ADD SWAP3 POP PUSH1 0x20 DUP7 ADD PUSH1 0x0 JUMPDEST DUP3 DUP2 LT ISZERO PUSH2 0x67A6 JUMPI PUSH1 0x3F NOT DUP8 DUP7 SUB ADD DUP5 MSTORE DUP2 MLOAD PUSH1 0x1 DUP1 PUSH1 0xA0 SHL SUB DUP2 MLOAD AND DUP7 MSTORE PUSH1 0x20 DUP2 ADD MLOAD ISZERO ISZERO PUSH1 0x20 DUP8 ADD MSTORE PUSH1 0x40 DUP2 ADD MLOAD PUSH1 0xC0 PUSH1 0x40 DUP9 ADD MSTORE PUSH2 0x6E39 PUSH1 0xC0 DUP9 ADD DUP3 PUSH2 0x66D8 JUMP JUMPDEST SWAP1 POP PUSH1 0x60 DUP3 ADD MLOAD DUP8 DUP3 SUB PUSH1 0x60 DUP10 ADD MSTORE PUSH2 0x6E52 DUP3 DUP3 PUSH2 0x66D8 JUMP JUMPDEST PUSH1 0x80 DUP5 DUP2 ADD MLOAD SWAP1 DUP11 ADD MSTORE PUSH1 0xA0 SWAP4 DUP5 ADD MLOAD ISZERO ISZERO SWAP4 SWAP1 SWAP9 ADD SWAP3 SWAP1 SWAP3 MSTORE POP POP PUSH1 0x20 SWAP4 DUP5 ADD SWAP4 SWAP2 SWAP1 SWAP2 ADD SWAP1 PUSH1 0x1 ADD PUSH2 0x6DF5 JUMP JUMPDEST PUSH1 0x0 PUSH1 0x20 DUP3 ADD PUSH1 0x20 DUP4 MSTORE DUP1 DUP5 MLOAD DUP1 DUP4 MSTORE PUSH1 0x40 DUP6 ADD SWAP2 POP PUSH1 0x40 DUP2 PUSH1 0x5 SHL DUP7 ADD ADD SWAP3 POP PUSH1 0x20 DUP7 ADD PUSH1 0x0 JUMPDEST DUP3 DUP2 LT ISZERO PUSH2 0x67A6 JUMPI PUSH1 0x3F NOT DUP8 DUP7 SUB ADD DUP5 MSTORE DUP2 MLOAD DUP1 MLOAD PUSH1 0x60 DUP8 MSTORE PUSH2 0x6ECF PUSH1 0x60 DUP9 ADD DUP3 PUSH2 0x66D8 JUMP JUMPDEST PUSH1 0x20 DUP4 DUP2 ADD MLOAD PUSH1 0xFF AND DUP10 DUP3 ADD MSTORE PUSH1 0x40 SWAP4 DUP5 ADD MLOAD SWAP4 SWAP1 SWAP9 ADD SWAP3 SWAP1 SWAP3 MSTORE POP SWAP5 SWAP4 DUP5 ADD SWAP4 SWAP2 SWAP1 SWAP2 ADD SWAP1 PUSH1 0x1 ADD PUSH2 0x6EA9 JUMP JUMPDEST PUSH1 0x20 DUP1 DUP3 MSTORE PUSH1 0x19 SWAP1 DUP3 ADD MSTORE PUSH32 0x4C697374206E616D652063616E6E6F7420626520656D70747900000000000000 PUSH1 0x40 DUP3 ADD MSTORE PUSH1 0x60 ADD SWAP1 JUMP JUMPDEST PUSH1 0x0 DUP3 MLOAD PUSH2 0x6F46 DUP2 DUP5 PUSH1 0x20 DUP8 ADD PUSH2 0x66B4 JUMP JUMPDEST SWAP2 SWAP1 SWAP2 ADD SWAP3 SWAP2 POP POP JUMP JUMPDEST PUSH4 0x4E487B71 PUSH1 0xE0 SHL PUSH1 0x0 MSTORE PUSH1 0x32 PUSH1 0x4 MSTORE PUSH1 0x24 PUSH1 0x0 REVERT JUMPDEST PUSH4 0x4E487B71 PUSH1 0xE0 SHL PUSH1 0x0 MSTORE PUSH1 0x11 PUSH1 0x4 MSTORE PUSH1 0x24 PUSH1 0x0 REVERT JUMPDEST DUP2 DUP2 SUB DUP2 DUP2 GT ISZERO PUSH2 0x9D1 JUMPI PUSH2 0x9D1 PUSH2 0x6F66 JUMP JUMPDEST PUSH1 0x1 DUP2 DUP2 SHR SWAP1 DUP3 AND DUP1 PUSH2 0x6FA3 JUMPI PUSH1 0x7F DUP3 AND SWAP2 POP JUMPDEST PUSH1 0x20 DUP3 LT DUP2 SUB PUSH2 0x6FC3 JUMPI PUSH4 0x4E487B71 PUSH1 0xE0 SHL PUSH1 0x0 MSTORE PUSH1 0x22 PUSH1 0x4 MSTORE PUSH1 0x24 PUSH1 0x0 REVERT JUMPDEST POP SWAP2 SWAP1 POP JUMP JUMPDEST PUSH1 0x1F DUP3 GT ISZERO PUSH2 0x7010 JUMPI DUP1 PUSH1 0x0 MSTORE PUSH1 0x20 PUSH1 0x0 KECCAK256 PUSH1 0x1F DUP5 ADD PUSH1 0x5 SHR DUP2 ADD PUSH1 0x20 DUP6 LT ISZERO PUSH2 0x6FF0 JUMPI POP DUP1 JUMPDEST PUSH1 0x1F DUP5 ADD PUSH1 0x5 SHR DUP3 ADD SWAP2 POP JUMPDEST DUP2 DUP2 LT ISZERO PUSH2 0xECF JUMPI PUSH1 0x0 DUP2 SSTORE PUSH1 0x1 ADD PUSH2 0x6FFC JUMP JUMPDEST POP POP POP JUMP JUMPDEST DUP2 DUP2 SUB PUSH2 0x7020 JUMPI POP POP JUMP JUMPDEST PUSH2 0x702A DUP3 SLOAD PUSH2 0x6F8F JUMP JUMPDEST PUSH1 0x1 PUSH1 0x1 PUSH1 0x40 SHL SUB DUP2 GT ISZERO PUSH2 0x7041 JUMPI PUSH2 0x7041 PUSH2 0x6412 JUMP JUMPDEST PUSH2 0x7055 DUP2 PUSH2 0x704F DUP5 SLOAD PUSH2 0x6F8F JUMP JUMPDEST DUP5 PUSH2 0x6FC9 JUMP JUMPDEST PUSH1 0x0 PUSH1 0x1F DUP3 GT PUSH1 0x1 DUP2 EQ PUSH2 0x708C JUMPI PUSH1 0x0 DUP4 ISZERO PUSH2 0x7071 JUMPI POP DUP5 DUP3 ADD SLOAD JUMPDEST PUSH1 0x1 DUP5 SWAP1 SHL PUSH1 0x0 NOT PUSH1 0x3 DUP7 SWAP1 SHL SHR NOT DUP3 AND OR JUMPDEST DUP6 SSTORE POP PUSH2 0xECF JUMP JUMPDEST PUSH1 0x0 DUP6 DUP2 MSTORE PUSH1 0x20 SWAP1 KECCAK256 PUSH1 0x1F NOT DUP5 AND SWAP1 PUSH1 0x0 DUP7 DUP2 MSTORE PUSH1 0x20 SWAP1 KECCAK256 DUP5 JUMPDEST DUP4 DUP2 LT ISZERO PUSH2 0x70C6 JUMPI DUP3 DUP7 ADD SLOAD DUP3 SSTORE PUSH1 0x1 SWAP6 DUP7 ADD SWAP6 SWAP1 SWAP2 ADD SWAP1 PUSH1 0x20 ADD PUSH2 0x70A6 JUMP JUMPDEST POP DUP6 DUP4 LT ISZERO PUSH2 0x70E4 JUMPI DUP2 DUP6 ADD SLOAD PUSH1 0x0 NOT PUSH1 0x3 DUP9 SWAP1 SHL PUSH1 0xF8 AND SHR NOT AND DUP2 SSTORE JUMPDEST POP POP POP POP POP PUSH1 0x1 SWAP1 DUP2 SHL ADD SWAP1 SSTORE POP JUMP JUMPDEST PUSH4 0x4E487B71 PUSH1 0xE0 SHL PUSH1 0x0 MSTORE PUSH1 0x31 PUSH1 0x4 MSTORE PUSH1 0x24 PUSH1 0x0 REVERT JUMPDEST PUSH1 0x0 DUP1 DUP4 SLOAD PUSH2 0x7118 DUP2 PUSH2 0x6F8F JUMP JUMPDEST PUSH1 0x1 DUP3 AND DUP1 ISZERO PUSH2 0x712F JUMPI PUSH1 0x1 DUP2 EQ PUSH2 0x7144 JUMPI PUSH2 0x7174 JUMP JUMPDEST PUSH1 0xFF NOT DUP4 AND DUP7 MSTORE DUP2 ISZERO ISZERO DUP3 MUL DUP7 ADD SWAP4 POP PUSH2 0x7174 JUMP JUMPDEST DUP7 PUSH1 0x0 MSTORE PUSH1 0x20 PUSH1 0x0 KECCAK256 PUSH1 0x0 JUMPDEST DUP4 DUP2 LT ISZERO PUSH2 0x716C JUMPI DUP2 SLOAD DUP9 DUP3 ADD MSTORE PUSH1 0x1 SWAP1 SWAP2 ADD SWAP1 PUSH1 0x20 ADD PUSH2 0x7150 JUMP JUMPDEST POP POP DUP2 DUP7 ADD SWAP4 POP JUMPDEST POP SWAP2 SWAP6 SWAP5 POP POP POP POP POP JUMP JUMPDEST PUSH1 0x60 DUP2 MSTORE PUSH1 0x0 PUSH2 0x7192 PUSH1 0x60 DUP4 ADD DUP6 PUSH2 0x66D8 JUMP JUMPDEST DUP3 DUP2 SUB PUSH1 0x20 DUP5 ADD MSTORE PUSH1 0x6 DUP2 MSTORE PUSH6 0x72656D6F7665 PUSH1 0xD0 SHL PUSH1 0x20 DUP3 ADD MSTORE PUSH1 0x40 DUP2 ADD SWAP2 POP POP DUP3 PUSH1 0x40 DUP4 ADD MSTORE SWAP4 SWAP3 POP POP POP JUMP JUMPDEST DUP2 MLOAD PUSH1 0x1 PUSH1 0x1 PUSH1 0x40 SHL SUB DUP2 GT ISZERO PUSH2 0x71DA JUMPI PUSH2 0x71DA PUSH2 0x6412 JUMP JUMPDEST PUSH2 0x71E8 DUP2 PUSH2 0x704F DUP5 SLOAD PUSH2 0x6F8F JUMP JUMPDEST PUSH1 0x20 PUSH1 0x1F DUP3 GT PUSH1 0x1 DUP2 EQ PUSH2 0x721A JUMPI PUSH1 0x0 DUP4 ISZERO PUSH2 0x7071 JUMPI POP DUP2 DUP6 ADD MLOAD PUSH1 0x1 DUP5 SWAP1 SHL PUSH1 0x0 NOT PUSH1 0x3 DUP7 SWAP1 SHL SHR NOT DUP3 AND OR PUSH2 0x7084 JUMP JUMPDEST PUSH1 0x0 DUP5 DUP2 MSTORE PUSH1 0x20 DUP2 KECCAK256 PUSH1 0x1F NOT DUP6 AND SWAP2 JUMPDEST DUP3 DUP2 LT ISZERO PUSH2 0x724A JUMPI DUP8 DUP6 ADD MLOAD DUP3 SSTORE PUSH1 0x20 SWAP5 DUP6 ADD SWAP5 PUSH1 0x1 SWAP1 SWAP3 ADD SWAP2 ADD PUSH2 0x722A JUMP JUMPDEST POP DUP5 DUP3 LT ISZERO PUSH2 0x7268 JUMPI DUP7 DUP5 ADD MLOAD PUSH1 0x0 NOT PUSH1 0x3 DUP8 SWAP1 SHL PUSH1 0xF8 AND SHR NOT AND DUP2 SSTORE JUMPDEST POP POP POP POP PUSH1 0x1 SWAP1 DUP2 SHL ADD SWAP1 SSTORE POP JUMP JUMPDEST PUSH1 0x80 DUP2 MSTORE PUSH1 0x0 PUSH2 0x728A PUSH1 0x80 DUP4 ADD DUP8 PUSH2 0x66D8 JUMP JUMPDEST DUP3 DUP2 SUB PUSH1 0x20 DUP5 ADD MSTORE PUSH2 0x729C DUP2 DUP8 PUSH2 0x66D8 JUMP JUMPDEST SWAP2 POP POP PUSH2 0x72AC PUSH1 0x40 DUP4 ADD DUP6 PUSH2 0x6888 JUMP JUMPDEST DUP3 PUSH1 0x60 DUP4 ADD MSTORE SWAP6 SWAP5 POP POP POP POP POP JUMP JUMPDEST PUSH1 0x0 DUP2 SLOAD PUSH2 0x72C8 DUP2 PUSH2 0x6F8F JUMP JUMPDEST DUP1 DUP6 MSTORE PUSH1 0x1 DUP3 AND DUP1 ISZERO PUSH2 0x72E2 JUMPI PUSH1 0x1 DUP2 EQ PUSH2 0x72FE JUMPI PUSH2 0x7335 JUMP JUMPDEST PUSH1 0xFF NOT DUP4 AND PUSH1 0x20 DUP8 ADD MSTORE PUSH1 0x20 DUP3 ISZERO ISZERO PUSH1 0x5 SHL DUP8 ADD ADD SWAP4 POP PUSH2 0x7335 JUMP JUMPDEST DUP5 PUSH1 0x0 MSTORE PUSH1 0x20 PUSH1 0x0 KECCAK256 PUSH1 0x0 JUMPDEST DUP4 DUP2 LT ISZERO PUSH2 0x732C JUMPI DUP2 SLOAD PUSH1 0x20 DUP3 DUP11 ADD ADD MSTORE PUSH1 0x1 DUP3 ADD SWAP2 POP PUSH1 0x20 DUP2 ADD SWAP1 POP PUSH2 0x730A JUMP JUMPDEST DUP8 ADD PUSH1 0x20 ADD SWAP5 POP POP JUMPDEST POP POP POP SWAP3 SWAP2 POP POP JUMP JUMPDEST PUSH1 0x60 DUP2 MSTORE PUSH1 0x0 PUSH2 0x7351 PUSH1 0x60 DUP4 ADD DUP7 PUSH2 0x72BB JUMP JUMPDEST SWAP4 ISZERO ISZERO PUSH1 0x20 DUP4 ADD MSTORE POP PUSH1 0x40 ADD MSTORE SWAP2 SWAP1 POP JUMP JUMPDEST PUSH1 0x60 DUP2 MSTORE PUSH1 0x0 PUSH2 0x7376 PUSH1 0x60 DUP4 ADD DUP7 PUSH2 0x66D8 JUMP JUMPDEST DUP3 DUP2 SUB PUSH1 0x20 DUP5 ADD MSTORE PUSH2 0x7388 DUP2 DUP7 PUSH2 0x66D8 JUMP JUMPDEST SWAP2 POP POP DUP3 PUSH1 0x40 DUP4 ADD MSTORE SWAP5 SWAP4 POP POP POP POP JUMP JUMPDEST PUSH1 0x80 DUP2 MSTORE PUSH1 0x0 PUSH2 0x73AC PUSH1 0x80 DUP4 ADD DUP8 PUSH2 0x66D8 JUMP JUMPDEST DUP3 DUP2 SUB PUSH1 0x20 DUP5 ADD MSTORE PUSH2 0x729C DUP2 DUP8 PUSH2 0x72BB JUMP JUMPDEST PUSH1 0x0 PUSH1 0x1 DUP3 ADD PUSH2 0x73D0 JUMPI PUSH2 0x73D0 PUSH2 0x6F66 JUMP JUMPDEST POP PUSH1 0x1 ADD SWAP1 JUMP JUMPDEST DUP1 DUP3 ADD DUP1 DUP3 GT ISZERO PUSH2 0x9D1 JUMPI PUSH2 0x9D1 PUSH2 0x6F66 JUMP JUMPDEST PUSH1 0x60 DUP2 MSTORE PUSH1 0x0 PUSH2 0x73FD PUSH1 0x60 DUP4 ADD DUP6 PUSH2 0x66D8 JUMP JUMPDEST DUP3 DUP2 SUB PUSH1 0x20 DUP5 ADD MSTORE PUSH1 0x6 DUP2 MSTORE PUSH6 0x757064617465 PUSH1 0xD0 SHL PUSH1 0x20 DUP3 ADD MSTORE PUSH1 0x40 DUP2 ADD SWAP2 POP POP DUP3 PUSH1 0x40 DUP4 ADD MSTORE SWAP4 SWAP3 POP POP POP JUMP JUMPDEST PUSH1 0x60 DUP2 MSTORE PUSH1 0x0 PUSH2 0x743F PUSH1 0x60 DUP4 ADD DUP6 PUSH2 0x66D8 JUMP JUMPDEST DUP3 DUP2 SUB PUSH1 0x20 DUP5 ADD MSTORE PUSH1 0x3 DUP2 MSTORE PUSH3 0x185919 PUSH1 0xEA SHL PUSH1 0x20 DUP3 ADD MSTORE PUSH1 0x40 DUP2 ADD SWAP2 POP POP DUP3 PUSH1 0x40 DUP4 ADD MSTORE SWAP4 SWAP3 POP POP POP JUMP INVALID 0x4F PUSH15 0x6C792073706F6E736F72206F722061 PUSH5 0x6D696E6973 PUSH21 0x7261746F72732063A2646970667358221220FF73DC 0xEF BLOBBASEFEE SWAP7 POP XOR 0xCF PUSH8 0x9FFFFB369C35B2E0 0x2C SLT STATICCALL ADDMOD 0xE6 0xE5 PUSH13 0x245D27E4770D6964736F6C6343 STOP ADDMOD SHL STOP CALLER "},"methodIdentifiers":{"VERSION()":"ffa1ad74","addAdministrator(address)":"c9991176","addToWhitelist(string,address,string,uint8,string)":"fd098d2f","createApproval(address,string,string,string)":"9d2c2c77","createPost(address,string,string,string,string,uint8)":"0e26b22d","deletePrivateAttribute(string)":"48205521","deletePublicAttribute(string)":"7f344c16","domain()":"c2fb26a6","getAddressName(address,address)":"b715bb74","getAllApprovalsForApprover(address)":"f6ee44cb","getAllApprovalsForRequestor(address)":"c565b772","getApprovalsByAddress(address,address)":"1b204716","getConversation(address)":"2a6d9034","getConversationId(address,address)":"c25cfe8a","getListNames(address)":"43b63fd5","getListsForMember(address)":"c7967f11","getMessageCount()":"31933916","getPosts(address)":"4caf9d0b","getPostsPaginated(address,uint256,uint256)":"53dacec6","getPrivateAttribute(string)":"ca239d4b","getPrivateAttributeKeys()":"294c9921","getPublicAttribute(string)":"8f033c85","getPublicAttributeKeys()":"57fca407","getPublicKeys(address)":"5fcbb7d6","getUserConversationIds()":"be758306","getWhitelist(address,string)":"b33a0af1","getWhitelistEntry(address,string,address)":"4194f5aa","handleApproval(address,string,bool)":"10ae73dd","isAdministrator(address)":"0a2eb301","isWhitelisted(address,string,address)":"956f0f8f","publicAttributes(string)":"bae067b3","read()":"57de26a4","removeAdministrator(address)":"68fa8134","removeFromWhitelist(string,address)":"0308761b","sendMessage(address,string,string,string,string)":"7657e293","setAddressName(address,string)":"3037c5ad","setPrivateAttribute(string,string)":"aa2285a5","setPublicAttribute(string,string)":"898c2d7b","sponsor()":"77c93662","transferOwnership(address)":"f2fde38b","updateWhitelistEntry(string,address,string,uint8,string)":"5eaf27f1","write(string,string)":"1e7c0197"}}}}}