{"contracts/IdentityContract.sol":{"IdentityContract":{"abi":[{"inputs":[{"internalType":"string","name":"_name","type":"string"},{"internalType":"string","name":"_domain","type":"string"}],"stateMutability":"nonpayable","type":"constructor"},{"anonymous":false,"inputs":[{"indexed":true,"internalType":"string","name":"key","type":"string"},{"indexed":false,"internalType":"bool","name":"isPublic","type":"bool"},{"indexed":false,"internalType":"uint256","name":"timestamp","type":"uint256"}],"name":"AttributeSet","type":"event"},{"anonymous":false,"inputs":[{"indexed":true,"internalType":"address","name":"owner","type":"address"},{"indexed":true,"internalType":"address","name":"firstRivet","type":"address"},{"indexed":false,"internalType":"string","name":"name","type":"string"},{"indexed":false,"internalType":"string","name":"domain","type":"string"},{"indexed":false,"internalType":"uint256","name":"timestamp","type":"uint256"}],"name":"IdentityCreated","type":"event"},{"anonymous":false,"inputs":[{"indexed":false,"internalType":"string","name":"oldName","type":"string"},{"indexed":false,"internalType":"string","name":"newName","type":"string"},{"indexed":false,"internalType":"uint256","name":"timestamp","type":"uint256"}],"name":"IdentityNameUpdated","type":"event"},{"anonymous":false,"inputs":[{"indexed":true,"internalType":"address","name":"rivet","type":"address"},{"indexed":false,"internalType":"uint256","name":"points","type":"uint256"},{"indexed":false,"internalType":"uint256","name":"eventCount","type":"uint256"},{"indexed":false,"internalType":"uint256","name":"timestamp","type":"uint256"}],"name":"NotabotScoreUpdated","type":"event"},{"anonymous":false,"inputs":[{"indexed":true,"internalType":"address","name":"previousOwner","type":"address"},{"indexed":true,"internalType":"address","name":"newOwner","type":"address"},{"indexed":false,"internalType":"uint256","name":"timestamp","type":"uint256"}],"name":"OwnershipTransferred","type":"event"},{"anonymous":false,"inputs":[{"indexed":true,"internalType":"address","name":"rivet","type":"address"},{"indexed":true,"internalType":"address","name":"addedBy","type":"address"},{"indexed":false,"internalType":"string","name":"name","type":"string"},{"indexed":false,"internalType":"uint256","name":"timestamp","type":"uint256"}],"name":"RivetAdded","type":"event"},{"anonymous":false,"inputs":[{"indexed":true,"internalType":"address","name":"rivet","type":"address"},{"indexed":true,"internalType":"address","name":"removedBy","type":"address"},{"indexed":false,"internalType":"uint256","name":"timestamp","type":"uint256"}],"name":"RivetRemoved","type":"event"},{"inputs":[],"name":"VERSION","outputs":[{"internalType":"string","name":"","type":"string"}],"stateMutability":"view","type":"function"},{"inputs":[{"internalType":"address","name":"rivet","type":"address"},{"internalType":"string","name":"name","type":"string"}],"name":"addRivet","outputs":[],"stateMutability":"nonpayable","type":"function"},{"inputs":[{"internalType":"string","name":"key","type":"string"}],"name":"deletePrivateAttribute","outputs":[],"stateMutability":"nonpayable","type":"function"},{"inputs":[{"internalType":"string","name":"key","type":"string"}],"name":"deletePublicAttribute","outputs":[],"stateMutability":"nonpayable","type":"function"},{"inputs":[],"name":"domain","outputs":[{"internalType":"string","name":"","type":"string"}],"stateMutability":"view","type":"function"},{"inputs":[],"name":"getBalance","outputs":[{"internalType":"uint256","name":"","type":"uint256"}],"stateMutability":"view","type":"function"},{"inputs":[],"name":"getFullName","outputs":[{"internalType":"string","name":"","type":"string"}],"stateMutability":"view","type":"function"},{"inputs":[],"name":"getMaxNotabotScore","outputs":[{"internalType":"uint256","name":"maxPoints","type":"uint256"},{"internalType":"address","name":"maxRivet","type":"address"}],"stateMutability":"view","type":"function"},{"inputs":[{"internalType":"address","name":"rivet","type":"address"}],"name":"getNotabotScore","outputs":[{"components":[{"internalType":"uint256","name":"totalPoints","type":"uint256"},{"internalType":"bytes32","name":"chainHead","type":"bytes32"},{"internalType":"uint256","name":"eventCount","type":"uint256"},{"internalType":"uint256","name":"lastUpdate","type":"uint256"}],"internalType":"struct IdentityContract.NotabotCommitment","name":"commitment","type":"tuple"}],"stateMutability":"view","type":"function"},{"inputs":[{"internalType":"string","name":"key","type":"string"}],"name":"getPrivateAttribute","outputs":[{"internalType":"string","name":"","type":"string"}],"stateMutability":"view","type":"function"},{"inputs":[],"name":"getPrivateAttributeKeys","outputs":[{"internalType":"string[]","name":"","type":"string[]"}],"stateMutability":"view","type":"function"},{"inputs":[{"internalType":"string","name":"key","type":"string"}],"name":"getPublicAttribute","outputs":[{"internalType":"string","name":"","type":"string"}],"stateMutability":"view","type":"function"},{"inputs":[],"name":"getPublicAttributeKeys","outputs":[{"internalType":"string[]","name":"","type":"string[]"}],"stateMutability":"view","type":"function"},{"inputs":[],"name":"getRivetCount","outputs":[{"internalType":"uint256","name":"","type":"uint256"}],"stateMutability":"view","type":"function"},{"inputs":[],"name":"getRivets","outputs":[{"internalType":"address[]","name":"","type":"address[]"}],"stateMutability":"view","type":"function"},{"inputs":[],"name":"getRivetsWithNames","outputs":[{"internalType":"address[]","name":"addresses","type":"address[]"},{"internalType":"string[]","name":"names","type":"string[]"}],"stateMutability":"view","type":"function"},{"inputs":[],"name":"identityName","outputs":[{"internalType":"string","name":"","type":"string"}],"stateMutability":"view","type":"function"},{"inputs":[{"internalType":"address","name":"","type":"address"}],"name":"isAuthorized","outputs":[{"internalType":"bool","name":"","type":"bool"}],"stateMutability":"view","type":"function"},{"inputs":[{"internalType":"address","name":"","type":"address"}],"name":"notabotScores","outputs":[{"internalType":"uint256","name":"totalPoints","type":"uint256"},{"internalType":"bytes32","name":"chainHead","type":"bytes32"},{"internalType":"uint256","name":"eventCount","type":"uint256"},{"internalType":"uint256","name":"lastUpdate","type":"uint256"}],"stateMutability":"view","type":"function"},{"inputs":[],"name":"owner","outputs":[{"internalType":"address","name":"","type":"address"}],"stateMutability":"view","type":"function"},{"inputs":[{"internalType":"string","name":"","type":"string"}],"name":"publicAttributes","outputs":[{"internalType":"string","name":"","type":"string"}],"stateMutability":"view","type":"function"},{"inputs":[{"internalType":"address","name":"rivet","type":"address"}],"name":"removeRivet","outputs":[],"stateMutability":"nonpayable","type":"function"},{"inputs":[{"internalType":"address","name":"","type":"address"}],"name":"rivetAddedAt","outputs":[{"internalType":"uint256","name":"","type":"uint256"}],"stateMutability":"view","type":"function"},{"inputs":[{"internalType":"address","name":"","type":"address"}],"name":"rivetNames","outputs":[{"internalType":"string","name":"","type":"string"}],"stateMutability":"view","type":"function"},{"inputs":[{"internalType":"string","name":"key","type":"string"},{"internalType":"string","name":"value","type":"string"}],"name":"setPrivateAttribute","outputs":[],"stateMutability":"nonpayable","type":"function"},{"inputs":[{"internalType":"string","name":"key","type":"string"},{"internalType":"string","name":"value","type":"string"}],"name":"setPublicAttribute","outputs":[],"stateMutability":"nonpayable","type":"function"},{"inputs":[{"internalType":"address","name":"newOwner","type":"address"}],"name":"transferOwnership","outputs":[],"stateMutability":"nonpayable","type":"function"},{"inputs":[{"internalType":"string","name":"newName","type":"string"}],"name":"updateIdentityName","outputs":[],"stateMutability":"nonpayable","type":"function"},{"inputs":[{"internalType":"uint256","name":"points","type":"uint256"},{"internalType":"bytes32","name":"chainHead","type":"bytes32"},{"internalType":"uint256","name":"eventCount","type":"uint256"}],"name":"updateNotabotScore","outputs":[],"stateMutability":"nonpayable","type":"function"},{"inputs":[{"internalType":"uint256","name":"amount","type":"uint256"}],"name":"withdraw","outputs":[],"stateMutability":"nonpayable","type":"function"},{"stateMutability":"payable","type":"receive"}],"evm":{"bytecode":{"linkReferences":{},"object":"608060405234801561001057600080fd5b5060405161275038038061275083398101604081905261002f916101ff565b60008054336001600160a01b0319918216811783556003805460018181019092557fc2575a0e9e593c00f959f8c92f12db2869c3395a3b0502d05e2516446f71f85b01805490931682179092558252600460209081526040808420805460ff19168417905560059091529091204290556100a983826102f1565b5060008151116100d95760405180604001604052806008815260200167657069737465727960c01b8152506100db565b805b6002906100e890826102f1565b5060005460405133916001600160a01b0316907fc458bd1407a3932eee872c0e8dfdfb86bfb0fdc4bbc124ce65ecd9f2db628b9c9061012d90869060029042906103af565b60405180910390a35050610477565b634e487b7160e01b600052604160045260246000fd5b60005b8381101561016d578181015183820152602001610155565b50506000910152565b600082601f83011261018757600080fd5b81516001600160401b038111156101a0576101a061013c565b604051601f8201601f19908116603f011681016001600160401b03811182821017156101ce576101ce61013c565b6040528181528382016020018510156101e657600080fd5b6101f7826020830160208701610152565b949350505050565b6000806040838503121561021257600080fd5b82516001600160401b0381111561022857600080fd5b61023485828601610176565b602085015190935090506001600160401b0381111561025257600080fd5b61025e85828601610176565b9150509250929050565b600181811c9082168061027c57607f821691505b60208210810361029c57634e487b7160e01b600052602260045260246000fd5b50919050565b601f8211156102ec57806000526020600020601f840160051c810160208510156102c95750805b601f840160051c820191505b818110156102e957600081556001016102d5565b50505b505050565b81516001600160401b0381111561030a5761030a61013c565b61031e816103188454610268565b846102a2565b6020601f821160018114610352576000831561033a5750848201515b600019600385901b1c1916600184901b1784556102e9565b600084815260208120601f198516915b828110156103825787850151825560209485019460019092019101610362565b50848210156103a05786840151600019600387901b60f8161c191681555b50505050600190811b01905550565b60608152600084518060608401526103ce816080850160208901610152565b601f01601f19168201828103608001602084015284546000906103f081610268565b806080850152600182166000811461040f576001811461042e57610462565b60ff19831660a08601526020608083151560051b870101019350610462565b88600052602060002060005b8381101561045957815460a0888301015260019091019060200161043a565b860160a0019450505b50505060409390930193909352509392505050565b6122ca806104866000396000f3fe6080604052600436106101d15760003560e01c80638f033c85116100f7578063ca239d4b11610095578063f2fde38b11610064578063f2fde38b14610568578063f913f7f714610588578063fe9fbb80146105ea578063ffa1ad741461062a57600080fd5b8063ca239d4b146104f3578063e155676014610513578063e1c76c2414610533578063f0aaf3701461055357600080fd5b8063aa2285a5116100d1578063aa2285a514610471578063ba637c2914610491578063bae067b3146104be578063c2fb26a6146104de57600080fd5b80638f033c851461041c578063956f893b1461043c578063959ed9a11461045c57600080fd5b80634de4964d1161016f57806383dff3a71161013e57806383dff3a71461034f578063898c2d7b146103a25780638c160186146103c25780638da5cb5b146103e457600080fd5b80634de4964d146102d757806357fca407146102f7578063649138651461030c5780637f344c161461032f57600080fd5b80632734f5bd116101ab5780632734f5bd14610243578063294c9921146102755780632e1a7d4d1461029757806348205521146102b757600080fd5b8063058a258e146101dd57806312065fe0146101ff578063212f32871461022157600080fd5b366101d857005b600080fd5b3480156101e957600080fd5b506101fd6101f8366004611c1a565b61065b565b005b34801561020b57600080fd5b50475b6040519081526020015b60405180910390f35b34801561022d57600080fd5b50610236610771565b6040516102189190611c9c565b34801561024f57600080fd5b506102586107d3565b604080519283526001600160a01b03909116602083015201610218565b34801561028157600080fd5b5061028a61083d565b6040516102189190611d62565b3480156102a357600080fd5b506101fd6102b2366004611d75565b610946565b3480156102c357600080fd5b506101fd6102d2366004611c1a565b6109ed565b3480156102e357600080fd5b506101fd6102f2366004611da5565b610b21565b34801561030357600080fd5b5061028a610ce1565b34801561031857600080fd5b50610321610db1565b604051610218929190611df3565b34801561033b57600080fd5b506101fd61034a366004611c1a565b610f5a565b34801561035b57600080fd5b5061036f61036a366004611e21565b61106c565b60405161021891908151815260208083015190820152604080830151908201526060918201519181019190915260800190565b3480156103ae57600080fd5b506101fd6103bd366004611e3c565b6110e8565b3480156103ce57600080fd5b506103d761124d565b6040516102189190611e8f565b3480156103f057600080fd5b50600054610404906001600160a01b031681565b6040516001600160a01b039091168152602001610218565b34801561042857600080fd5b506103d7610437366004611c1a565b6112a1565b34801561044857600080fd5b506101fd610457366004611ea2565b611351565b34801561046857600080fd5b5060035461020e565b34801561047d57600080fd5b506101fd61048c366004611e3c565b6114cc565b34801561049d57600080fd5b5061020e6104ac366004611e21565b60056020526000908152604090205481565b3480156104ca57600080fd5b506103d76104d9366004611c1a565b611629565b3480156104ea57600080fd5b506103d76116ce565b3480156104ff57600080fd5b506103d761050e366004611c1a565b6116db565b34801561051f57600080fd5b506103d761052e366004611e21565b611722565b34801561053f57600080fd5b506101fd61054e366004611e21565b61173b565b34801561055f57600080fd5b506103d76119a3565b34801561057457600080fd5b506101fd610583366004611e21565b6119b0565b34801561059457600080fd5b506105ca6105a3366004611e21565b60076020526000908152604090208054600182015460028301546003909301549192909184565b604080519485526020850193909352918301526060820152608001610218565b3480156105f657600080fd5b5061061a610605366004611e21565b60046020526000908152604090205460ff1681565b6040519015158152602001610218565b34801561063657600080fd5b506103d7604051806040016040528060058152602001640322e302e360dc1b81525081565b3360009081526004602052604090205460ff166106935760405162461bcd60e51b815260040161068a90611ece565b60405180910390fd5b6000600180546106a290611f0f565b80601f01602080910402602001604051908101604052809291908181526020018280546106ce90611f0f565b801561071b5780601f106106f05761010080835404028352916020019161071b565b820191906000526020600020905b8154815290600101906020018083116106fe57829003601f168201915b5050505050905081600190816107319190611f98565b507fa6a2ac6515f92b90bc422bc3ee5021b9008a5da43c4ccc67f75fc83dd552cfa38183426040516107659392919061205a565b60405180910390a15050565b606060038054806020026020016040519081016040528092919081815260200182805480156107c957602002820191906000526020600020905b81546001600160a01b031681526001909101906020018083116107ab575b5050505050905090565b600080805b600354811015610838576000600382815481106107f7576107f7612090565b60009182526020808320909101546001600160a01b031680835260079091526040909120549091508481111561082e578094508193505b50506001016107d8565b509091565b3360009081526004602052604090205460609060ff1661086f5760405162461bcd60e51b815260040161068a90611ece565b600b805480602002602001604051908101604052809291908181526020016000905b8282101561093d5783829060005260206000200180546108b090611f0f565b80601f01602080910402602001604051908101604052809291908181526020018280546108dc90611f0f565b80156109295780601f106108fe57610100808354040283529160200191610929565b820191906000526020600020905b81548152906001019060200180831161090c57829003601f168201915b505050505081526020019060010190610891565b50505050905090565b3360009081526004602052604090205460ff166109755760405162461bcd60e51b815260040161068a90611ece565b804710156109bc5760405162461bcd60e51b8152602060048201526014602482015273496e73756666696369656e742062616c616e636560601b604482015260640161068a565b604051339082156108fc029083906000818181858888f193505050501580156109e9573d6000803e3d6000fd5b5050565b3360009081526004602052604090205460ff16610a1c5760405162461bcd60e51b815260040161068a90611ece565b600981604051610a2c91906120a6565b90815260200160405180910390206000610a469190611b1f565b60005b600b548110156109e9578180519060200120600b8281548110610a6e57610a6e612090565b90600052602060002001604051610a859190612134565b604051809103902003610b1957600b8054610aa290600190612140565b81548110610ab257610ab2612090565b90600052602060002001600b8281548110610acf57610acf612090565b906000526020600020019081610ae59190612167565b50600b805480610af757610af761223c565b600190038181906000526020600020016000610b139190611b1f565b90555050565b600101610a49565b3360009081526004602052604090205460ff16610b505760405162461bcd60e51b815260040161068a90611ece565b6001600160a01b038216610ba65760405162461bcd60e51b815260206004820152601c60248201527f526976657420616464726573732063616e6e6f74206265207a65726f00000000604482015260640161068a565b6001600160a01b03821660009081526004602052604090205460ff1615610c0f5760405162461bcd60e51b815260206004820152601b60248201527f526976657420697320616c726561647920617574686f72697a65640000000000604482015260640161068a565b6003805460018082019092557fc2575a0e9e593c00f959f8c92f12db2869c3395a3b0502d05e2516446f71f85b0180546001600160a01b0319166001600160a01b0385169081179091556000908152600460209081526040808320805460ff1916909417909355600581528282204290556006905220610c8f8282611f98565b50336001600160a01b0316826001600160a01b03167f6cf6b4ae665005cd3796957a1bd3d4a73d2ace1d465fd12d03c66e7a254fd4328342604051610cd5929190612252565b60405180910390a35050565b6060600a805480602002602001604051908101604052809291908181526020016000905b8282101561093d578382906000526020600020018054610d2490611f0f565b80601f0160208091040260200160405190810160405280929190818152602001828054610d5090611f0f565b8015610d9d5780601f10610d7257610100808354040283529160200191610d9d565b820191906000526020600020905b815481529060010190602001808311610d8057829003601f168201915b505050505081526020019060010190610d05565b6060806003805480602002602001604051908101604052809291908181526020018280548015610e0a57602002820191906000526020600020905b81546001600160a01b03168152600190910190602001808311610dec575b5050600354939550505067ffffffffffffffff8211159050610e2e57610e2e611b75565b604051908082528060200260200182016040528015610e6157816020015b6060815260200190600190039081610e4c5790505b50905060005b600354811015610838576006600060038381548110610e8857610e88612090565b60009182526020808320909101546001600160a01b0316835282019290925260400190208054610eb790611f0f565b80601f0160208091040260200160405190810160405280929190818152602001828054610ee390611f0f565b8015610f305780601f10610f0557610100808354040283529160200191610f30565b820191906000526020600020905b815481529060010190602001808311610f1357829003601f168201915b5050505050828281518110610f4757610f47612090565b6020908102919091010152600101610e67565b3360009081526004602052604090205460ff16610f895760405162461bcd60e51b815260040161068a90611ece565b600881604051610f9991906120a6565b90815260200160405180910390206000610fb39190611b1f565b60005b600a548110156109e9578180519060200120600a8281548110610fdb57610fdb612090565b90600052602060002001604051610ff29190612134565b60405180910390200361106457600a805461100f90600190612140565b8154811061101f5761101f612090565b90600052602060002001600a828154811061103c5761103c612090565b9060005260206000200190816110529190612167565b50600a805480610af757610af761223c565b600101610fb6565b61109a6040518060800160405280600081526020016000801916815260200160008152602001600081525090565b506001600160a01b0316600090815260076020908152604091829020825160808101845281548152600182015492810192909252600281015492820192909252600390910154606082015290565b3360009081526004602052604090205460ff166111175760405162461bcd60e51b815260040161068a90611ece565b600082511161115e5760405162461bcd60e51b81526020600482015260136024820152724b65792063616e6e6f7420626520656d70747960681b604482015260640161068a565b60088260405161116e91906120a6565b9081526020016040518091039020805461118790611f0f565b90506000036111ce57600a80546001810182556000919091527fc65a7bb8d6351c1cf70c95a316cc6a92839c986682d98bc35f958f4883f9d2a8016111cc8382611f98565b505b806008836040516111df91906120a6565b908152602001604051809103902090816111f99190611f98565b508160405161120891906120a6565b6040805191829003822060018352426020840152917f590120a97fea9eae0ab7f73633c407e0d9f528198b43f5aded24fc164146674491015b60405180910390a25050565b60606001805461125c90611f0f565b9050600003611278575060408051602081019091526000815290565b6001600260405160200161128d929190612274565b604051602081830303815290604052905090565b60606008826040516112b391906120a6565b908152602001604051809103902080546112cc90611f0f565b80601f01602080910402602001604051908101604052809291908181526020018280546112f890611f0f565b80156113455780601f1061131a57610100808354040283529160200191611345565b820191906000526020600020905b81548152906001019060200180831161132857829003601f168201915b50505050509050919050565b3360009081526004602052604090205460ff166113805760405162461bcd60e51b815260040161068a90611ece565b336000908152600760205260409020548310156113d85760405162461bcd60e51b8152602060048201526016602482015275506f696e74732063616e6e6f7420646563726561736560501b604482015260640161068a565b3360009081526007602052604090206002015481101561143a5760405162461bcd60e51b815260206004820152601b60248201527f4576656e7420636f756e742063616e6e6f742064656372656173650000000000604482015260640161068a565b60408051608081018252848152602080820185815282840185815242606080860182815233600081815260078852899020975188559451600188015592516002870155915160039095019490945584518881529283018690529382019290925290917fe74dfe9692efc9e4e9e79c647202a04073b250eaec59c3ad87bcc99ee158c3d2910160405180910390a2505050565b3360009081526004602052604090205460ff166114fb5760405162461bcd60e51b815260040161068a90611ece565b60008251116115425760405162461bcd60e51b81526020600482015260136024820152724b65792063616e6e6f7420626520656d70747960681b604482015260640161068a565b60098260405161155291906120a6565b9081526020016040518091039020805461156b90611f0f565b90506000036115b257600b80546001810182556000919091527f0175b7a638427703f0dbe7bb9bbf987a2551717b34e79f33b5b1008d1fa01db9016115b08382611f98565b505b806009836040516115c391906120a6565b908152602001604051809103902090816115dd9190611f98565b50816040516115ec91906120a6565b6040805191829003822060008352426020840152917f590120a97fea9eae0ab7f73633c407e0d9f528198b43f5aded24fc16414667449101611241565b80516020818301810180516008825292820191909301209152805461164d90611f0f565b80601f016020809104026020016040519081016040528092919081815260200182805461167990611f0f565b80156116c65780601f1061169b576101008083540402835291602001916116c6565b820191906000526020600020905b8154815290600101906020018083116116a957829003601f168201915b505050505081565b6002805461164d90611f0f565b3360009081526004602052604090205460609060ff1661170d5760405162461bcd60e51b815260040161068a90611ece565b6009826040516112b391906120a6565b919050565b6006602052600090815260409020805461164d90611f0f565b3360009081526004602052604090205460ff1661176a5760405162461bcd60e51b815260040161068a90611ece565b6001600160a01b03811660009081526004602052604090205460ff166117d25760405162461bcd60e51b815260206004820152601760248201527f5269766574206973206e6f7420617574686f72697a6564000000000000000000604482015260640161068a565b6003546001106118245760405162461bcd60e51b815260206004820152601c60248201527f43616e6e6f742072656d6f766520746865206c61737420726976657400000000604482015260640161068a565b6001600160a01b0381166000908152600460209081526040808320805460ff19169055600582528083208390556006909152812061186191611b1f565b60005b60035481101561195f57816001600160a01b03166003828154811061188b5761188b612090565b6000918252602090912001546001600160a01b03160361195757600380546118b590600190612140565b815481106118c5576118c5612090565b600091825260209091200154600380546001600160a01b0390921691839081106118f1576118f1612090565b9060005260206000200160006101000a8154816001600160a01b0302191690836001600160a01b0316021790555060038054806119305761193061223c565b600082815260209020810160001990810180546001600160a01b031916905501905561195f565b600101611864565b5060405142815233906001600160a01b038316907f214ca7eb2162518cecf5c43d751ed585b5bb748e5fe1eb8c81ddc6e39ff9c68e9060200160405180910390a350565b6001805461164d90611f0f565b6000546001600160a01b03163314611a145760405162461bcd60e51b815260206004820152602160248201527f4f6e6c79206f776e65722063616e207472616e73666572206f776e65727368696044820152600760fc1b606482015260840161068a565b6001600160a01b038116611a6a5760405162461bcd60e51b815260206004820181905260248201527f4e6577206f776e65722063616e6e6f74206265207a65726f2061646472657373604482015260640161068a565b6000546001600160a01b0390811690821603611ac85760405162461bcd60e51b815260206004820152601760248201527f43616e6e6f74207472616e7366657220746f2073656c66000000000000000000604482015260640161068a565b600080546001600160a01b038381166001600160a01b0319831681179093556040519116919082907fc13a1166d81cd3b0b352a367aebab95f3a6f6bc695fdab8e9a9d335239c3861b90610cd59042815260200190565b508054611b2b90611f0f565b6000825580601f10611b3b575050565b601f016020900490600052602060002090810190611b599190611b5c565b50565b5b80821115611b715760008155600101611b5d565b5090565b634e487b7160e01b600052604160045260246000fd5b600082601f830112611b9c57600080fd5b813567ffffffffffffffff811115611bb657611bb6611b75565b604051601f8201601f19908116603f0116810167ffffffffffffffff81118282101715611be557611be5611b75565b604052818152838201602001851015611bfd57600080fd5b816020850160208301376000918101602001919091529392505050565b600060208284031215611c2c57600080fd5b813567ffffffffffffffff811115611c4357600080fd5b611c4f84828501611b8b565b949350505050565b600081518084526020840193506020830160005b82811015611c925781516001600160a01b0316865260209586019590910190600101611c6b565b5093949350505050565b602081526000611caf6020830184611c57565b9392505050565b60005b83811015611cd1578181015183820152602001611cb9565b50506000910152565b60008151808452611cf2816020860160208601611cb6565b601f01601f19169290920160200192915050565b600082825180855260208501945060208160051b8301016020850160005b83811015611d5657601f19858403018852611d40838351611cda565b6020988901989093509190910190600101611d24565b50909695505050505050565b602081526000611caf6020830184611d06565b600060208284031215611d8757600080fd5b5035919050565b80356001600160a01b038116811461171d57600080fd5b60008060408385031215611db857600080fd5b611dc183611d8e565b9150602083013567ffffffffffffffff811115611ddd57600080fd5b611de985828601611b8b565b9150509250929050565b604081526000611e066040830185611c57565b8281036020840152611e188185611d06565b95945050505050565b600060208284031215611e3357600080fd5b611caf82611d8e565b60008060408385031215611e4f57600080fd5b823567ffffffffffffffff811115611e6657600080fd5b611e7285828601611b8b565b925050602083013567ffffffffffffffff811115611ddd57600080fd5b602081526000611caf6020830184611cda565b600080600060608486031215611eb757600080fd5b505081359360208301359350604090920135919050565b60208082526021908201527f43616c6c6572206973206e6f7420616e20617574686f72697a656420726976656040820152601d60fa1b606082015260800190565b600181811c90821680611f2357607f821691505b602082108103611f4357634e487b7160e01b600052602260045260246000fd5b50919050565b601f821115611f9357806000526020600020601f840160051c81016020851015611f705750805b601f840160051c820191505b81811015611f905760008155600101611f7c565b50505b505050565b815167ffffffffffffffff811115611fb257611fb2611b75565b611fc681611fc08454611f0f565b84611f49565b6020601f821160018114611ffd5760008315611fe25750848201515b600184901b600019600386901b1c198216175b855550611f90565b600084815260208120601f198516915b8281101561202d578785015182556020948501946001909201910161200d565b508482101561204b5786840151600019600387901b60f8161c191681555b50505050600190811b01905550565b60608152600061206d6060830186611cda565b828103602084015261207f8186611cda565b915050826040830152949350505050565b634e487b7160e01b600052603260045260246000fd5b600082516120b8818460208701611cb6565b9190910192915050565b600081546120cf81611f0f565b6001821680156120e657600181146120fb5761212b565b60ff198316865281151582028601935061212b565b84600052602060002060005b8381101561212357815488820152600190910190602001612107565b505081860193505b50505092915050565b6000611caf82846120c2565b8181038181111561216157634e487b7160e01b600052601160045260246000fd5b92915050565b818103612172575050565b61217c8254611f0f565b67ffffffffffffffff81111561219457612194611b75565b6121a281611fc08454611f0f565b6000601f8211600181146121d45760008315611fe2575081850154600184901b600019600386901b1c19821617611ff5565b600085815260209020601f19841690600086815260209020845b8381101561220e57828601548255600195860195909101906020016121ee565b508583101561222c5781850154600019600388901b60f8161c191681555b5050505050600190811b01905550565b634e487b7160e01b600052603160045260246000fd5b6040815260006122656040830185611cda565b90508260208301529392505050565b600061228082856120c2565b601760f91b8152611e1860018201856120c256fea2646970667358221220e603094741b82784f1f8cbff9eb7ad1dc120ddf0f7101b02bf3ca524f837509964736f6c634300081b0033","opcodes":"PUSH1 0x80 PUSH1 0x40 MSTORE CALLVALUE DUP1 ISZERO PUSH2 0x10 JUMPI PUSH1 0x0 DUP1 REVERT JUMPDEST POP PUSH1 0x40 MLOAD PUSH2 0x2750 CODESIZE SUB DUP1 PUSH2 0x2750 DUP4 CODECOPY DUP2 ADD PUSH1 0x40 DUP2 SWAP1 MSTORE PUSH2 0x2F SWAP2 PUSH2 0x1FF JUMP JUMPDEST PUSH1 0x0 DUP1 SLOAD CALLER PUSH1 0x1 PUSH1 0x1 PUSH1 0xA0 SHL SUB NOT SWAP2 DUP3 AND DUP2 OR DUP4 SSTORE PUSH1 0x3 DUP1 SLOAD PUSH1 0x1 DUP2 DUP2 ADD SWAP1 SWAP3 SSTORE PUSH32 0xC2575A0E9E593C00F959F8C92F12DB2869C3395A3B0502D05E2516446F71F85B ADD DUP1 SLOAD SWAP1 SWAP4 AND DUP3 OR SWAP1 SWAP3 SSTORE DUP3 MSTORE PUSH1 0x4 PUSH1 0x20 SWAP1 DUP2 MSTORE PUSH1 0x40 DUP1 DUP5 KECCAK256 DUP1 SLOAD PUSH1 0xFF NOT AND DUP5 OR SWAP1 SSTORE PUSH1 0x5 SWAP1 SWAP2 MSTORE SWAP1 SWAP2 KECCAK256 TIMESTAMP SWAP1 SSTORE PUSH2 0xA9 DUP4 DUP3 PUSH2 0x2F1 JUMP JUMPDEST POP PUSH1 0x0 DUP2 MLOAD GT PUSH2 0xD9 JUMPI PUSH1 0x40 MLOAD DUP1 PUSH1 0x40 ADD PUSH1 0x40 MSTORE DUP1 PUSH1 0x8 DUP2 MSTORE PUSH1 0x20 ADD PUSH8 0x6570697374657279 PUSH1 0xC0 SHL DUP2 MSTORE POP PUSH2 0xDB JUMP JUMPDEST DUP1 JUMPDEST PUSH1 0x2 SWAP1 PUSH2 0xE8 SWAP1 DUP3 PUSH2 0x2F1 JUMP JUMPDEST POP PUSH1 0x0 SLOAD PUSH1 0x40 MLOAD CALLER SWAP2 PUSH1 0x1 PUSH1 0x1 PUSH1 0xA0 SHL SUB AND SWAP1 PUSH32 0xC458BD1407A3932EEE872C0E8DFDFB86BFB0FDC4BBC124CE65ECD9F2DB628B9C SWAP1 PUSH2 0x12D SWAP1 DUP7 SWAP1 PUSH1 0x2 SWAP1 TIMESTAMP SWAP1 PUSH2 0x3AF JUMP JUMPDEST PUSH1 0x40 MLOAD DUP1 SWAP2 SUB SWAP1 LOG3 POP POP PUSH2 0x477 JUMP JUMPDEST PUSH4 0x4E487B71 PUSH1 0xE0 SHL PUSH1 0x0 MSTORE PUSH1 0x41 PUSH1 0x4 MSTORE PUSH1 0x24 PUSH1 0x0 REVERT JUMPDEST PUSH1 0x0 JUMPDEST DUP4 DUP2 LT ISZERO PUSH2 0x16D JUMPI DUP2 DUP2 ADD MLOAD DUP4 DUP3 ADD MSTORE PUSH1 0x20 ADD PUSH2 0x155 JUMP JUMPDEST POP POP PUSH1 0x0 SWAP2 ADD MSTORE JUMP JUMPDEST PUSH1 0x0 DUP3 PUSH1 0x1F DUP4 ADD SLT PUSH2 0x187 JUMPI PUSH1 0x0 DUP1 REVERT JUMPDEST DUP2 MLOAD PUSH1 0x1 PUSH1 0x1 PUSH1 0x40 SHL SUB DUP2 GT ISZERO PUSH2 0x1A0 JUMPI PUSH2 0x1A0 PUSH2 0x13C JUMP JUMPDEST PUSH1 0x40 MLOAD PUSH1 0x1F DUP3 ADD PUSH1 0x1F NOT SWAP1 DUP2 AND PUSH1 0x3F ADD AND DUP2 ADD PUSH1 0x1 PUSH1 0x1 PUSH1 0x40 SHL SUB DUP2 GT DUP3 DUP3 LT OR ISZERO PUSH2 0x1CE JUMPI PUSH2 0x1CE PUSH2 0x13C JUMP JUMPDEST PUSH1 0x40 MSTORE DUP2 DUP2 MSTORE DUP4 DUP3 ADD PUSH1 0x20 ADD DUP6 LT ISZERO PUSH2 0x1E6 JUMPI PUSH1 0x0 DUP1 REVERT JUMPDEST PUSH2 0x1F7 DUP3 PUSH1 0x20 DUP4 ADD PUSH1 0x20 DUP8 ADD PUSH2 0x152 JUMP JUMPDEST SWAP5 SWAP4 POP POP POP POP JUMP JUMPDEST PUSH1 0x0 DUP1 PUSH1 0x40 DUP4 DUP6 SUB SLT ISZERO PUSH2 0x212 JUMPI PUSH1 0x0 DUP1 REVERT JUMPDEST DUP3 MLOAD PUSH1 0x1 PUSH1 0x1 PUSH1 0x40 SHL SUB DUP2 GT ISZERO PUSH2 0x228 JUMPI PUSH1 0x0 DUP1 REVERT JUMPDEST PUSH2 0x234 DUP6 DUP3 DUP7 ADD PUSH2 0x176 JUMP JUMPDEST PUSH1 0x20 DUP6 ADD MLOAD SWAP1 SWAP4 POP SWAP1 POP PUSH1 0x1 PUSH1 0x1 PUSH1 0x40 SHL SUB DUP2 GT ISZERO PUSH2 0x252 JUMPI PUSH1 0x0 DUP1 REVERT JUMPDEST PUSH2 0x25E DUP6 DUP3 DUP7 ADD PUSH2 0x176 JUMP JUMPDEST SWAP2 POP POP SWAP3 POP SWAP3 SWAP1 POP JUMP JUMPDEST PUSH1 0x1 DUP2 DUP2 SHR SWAP1 DUP3 AND DUP1 PUSH2 0x27C JUMPI PUSH1 0x7F DUP3 AND SWAP2 POP JUMPDEST PUSH1 0x20 DUP3 LT DUP2 SUB PUSH2 0x29C JUMPI PUSH4 0x4E487B71 PUSH1 0xE0 SHL PUSH1 0x0 MSTORE PUSH1 0x22 PUSH1 0x4 MSTORE PUSH1 0x24 PUSH1 0x0 REVERT JUMPDEST POP SWAP2 SWAP1 POP JUMP JUMPDEST PUSH1 0x1F DUP3 GT ISZERO PUSH2 0x2EC JUMPI DUP1 PUSH1 0x0 MSTORE PUSH1 0x20 PUSH1 0x0 KECCAK256 PUSH1 0x1F DUP5 ADD PUSH1 0x5 SHR DUP2 ADD PUSH1 0x20 DUP6 LT ISZERO PUSH2 0x2C9 JUMPI POP DUP1 JUMPDEST PUSH1 0x1F DUP5 ADD PUSH1 0x5 SHR DUP3 ADD SWAP2 POP JUMPDEST DUP2 DUP2 LT ISZERO PUSH2 0x2E9 JUMPI PUSH1 0x0 DUP2 SSTORE PUSH1 0x1 ADD PUSH2 0x2D5 JUMP JUMPDEST POP POP JUMPDEST POP POP POP JUMP JUMPDEST DUP2 MLOAD PUSH1 0x1 PUSH1 0x1 PUSH1 0x40 SHL SUB DUP2 GT ISZERO PUSH2 0x30A JUMPI PUSH2 0x30A PUSH2 0x13C JUMP JUMPDEST PUSH2 0x31E DUP2 PUSH2 0x318 DUP5 SLOAD PUSH2 0x268 JUMP JUMPDEST DUP5 PUSH2 0x2A2 JUMP JUMPDEST PUSH1 0x20 PUSH1 0x1F DUP3 GT PUSH1 0x1 DUP2 EQ PUSH2 0x352 JUMPI PUSH1 0x0 DUP4 ISZERO PUSH2 0x33A JUMPI POP DUP5 DUP3 ADD MLOAD JUMPDEST PUSH1 0x0 NOT PUSH1 0x3 DUP6 SWAP1 SHL SHR NOT AND PUSH1 0x1 DUP5 SWAP1 SHL OR DUP5 SSTORE PUSH2 0x2E9 JUMP JUMPDEST PUSH1 0x0 DUP5 DUP2 MSTORE PUSH1 0x20 DUP2 KECCAK256 PUSH1 0x1F NOT DUP6 AND SWAP2 JUMPDEST DUP3 DUP2 LT ISZERO PUSH2 0x382 JUMPI DUP8 DUP6 ADD MLOAD DUP3 SSTORE PUSH1 0x20 SWAP5 DUP6 ADD SWAP5 PUSH1 0x1 SWAP1 SWAP3 ADD SWAP2 ADD PUSH2 0x362 JUMP JUMPDEST POP DUP5 DUP3 LT ISZERO PUSH2 0x3A0 JUMPI DUP7 DUP5 ADD MLOAD PUSH1 0x0 NOT PUSH1 0x3 DUP8 SWAP1 SHL PUSH1 0xF8 AND SHR NOT AND DUP2 SSTORE JUMPDEST POP POP POP POP PUSH1 0x1 SWAP1 DUP2 SHL ADD SWAP1 SSTORE POP JUMP JUMPDEST PUSH1 0x60 DUP2 MSTORE PUSH1 0x0 DUP5 MLOAD DUP1 PUSH1 0x60 DUP5 ADD MSTORE PUSH2 0x3CE DUP2 PUSH1 0x80 DUP6 ADD PUSH1 0x20 DUP10 ADD PUSH2 0x152 JUMP JUMPDEST PUSH1 0x1F ADD PUSH1 0x1F NOT AND DUP3 ADD DUP3 DUP2 SUB PUSH1 0x80 ADD PUSH1 0x20 DUP5 ADD MSTORE DUP5 SLOAD PUSH1 0x0 SWAP1 PUSH2 0x3F0 DUP2 PUSH2 0x268 JUMP JUMPDEST DUP1 PUSH1 0x80 DUP6 ADD MSTORE PUSH1 0x1 DUP3 AND PUSH1 0x0 DUP2 EQ PUSH2 0x40F JUMPI PUSH1 0x1 DUP2 EQ PUSH2 0x42E JUMPI PUSH2 0x462 JUMP JUMPDEST PUSH1 0xFF NOT DUP4 AND PUSH1 0xA0 DUP7 ADD MSTORE PUSH1 0x20 PUSH1 0x80 DUP4 ISZERO ISZERO PUSH1 0x5 SHL DUP8 ADD ADD ADD SWAP4 POP PUSH2 0x462 JUMP JUMPDEST DUP9 PUSH1 0x0 MSTORE PUSH1 0x20 PUSH1 0x0 KECCAK256 PUSH1 0x0 JUMPDEST DUP4 DUP2 LT ISZERO PUSH2 0x459 JUMPI DUP2 SLOAD PUSH1 0xA0 DUP9 DUP4 ADD ADD MSTORE PUSH1 0x1 SWAP1 SWAP2 ADD SWAP1 PUSH1 0x20 ADD PUSH2 0x43A JUMP JUMPDEST DUP7 ADD PUSH1 0xA0 ADD SWAP5 POP POP JUMPDEST POP POP POP PUSH1 0x40 SWAP4 SWAP1 SWAP4 ADD SWAP4 SWAP1 SWAP4 MSTORE POP SWAP4 SWAP3 POP POP POP JUMP JUMPDEST PUSH2 0x22CA DUP1 PUSH2 0x486 PUSH1 0x0 CODECOPY PUSH1 0x0 RETURN INVALID PUSH1 0x80 PUSH1 0x40 MSTORE PUSH1 0x4 CALLDATASIZE LT PUSH2 0x1D1 JUMPI PUSH1 0x0 CALLDATALOAD PUSH1 0xE0 SHR DUP1 PUSH4 0x8F033C85 GT PUSH2 0xF7 JUMPI DUP1 PUSH4 0xCA239D4B GT PUSH2 0x95 JUMPI DUP1 PUSH4 0xF2FDE38B GT PUSH2 0x64 JUMPI DUP1 PUSH4 0xF2FDE38B EQ PUSH2 0x568 JUMPI DUP1 PUSH4 0xF913F7F7 EQ PUSH2 0x588 JUMPI DUP1 PUSH4 0xFE9FBB80 EQ PUSH2 0x5EA JUMPI DUP1 PUSH4 0xFFA1AD74 EQ PUSH2 0x62A JUMPI PUSH1 0x0 DUP1 REVERT JUMPDEST DUP1 PUSH4 0xCA239D4B EQ PUSH2 0x4F3 JUMPI DUP1 PUSH4 0xE1556760 EQ PUSH2 0x513 JUMPI DUP1 PUSH4 0xE1C76C24 EQ PUSH2 0x533 JUMPI DUP1 PUSH4 0xF0AAF370 EQ PUSH2 0x553 JUMPI PUSH1 0x0 DUP1 REVERT JUMPDEST DUP1 PUSH4 0xAA2285A5 GT PUSH2 0xD1 JUMPI DUP1 PUSH4 0xAA2285A5 EQ PUSH2 0x471 JUMPI DUP1 PUSH4 0xBA637C29 EQ PUSH2 0x491 JUMPI DUP1 PUSH4 0xBAE067B3 EQ PUSH2 0x4BE JUMPI DUP1 PUSH4 0xC2FB26A6 EQ PUSH2 0x4DE JUMPI PUSH1 0x0 DUP1 REVERT JUMPDEST DUP1 PUSH4 0x8F033C85 EQ PUSH2 0x41C JUMPI DUP1 PUSH4 0x956F893B EQ PUSH2 0x43C JUMPI DUP1 PUSH4 0x959ED9A1 EQ PUSH2 0x45C JUMPI PUSH1 0x0 DUP1 REVERT JUMPDEST DUP1 PUSH4 0x4DE4964D GT PUSH2 0x16F JUMPI DUP1 PUSH4 0x83DFF3A7 GT PUSH2 0x13E JUMPI DUP1 PUSH4 0x83DFF3A7 EQ PUSH2 0x34F JUMPI DUP1 PUSH4 0x898C2D7B EQ PUSH2 0x3A2 JUMPI DUP1 PUSH4 0x8C160186 EQ PUSH2 0x3C2 JUMPI DUP1 PUSH4 0x8DA5CB5B EQ PUSH2 0x3E4 JUMPI PUSH1 0x0 DUP1 REVERT JUMPDEST DUP1 PUSH4 0x4DE4964D EQ PUSH2 0x2D7 JUMPI DUP1 PUSH4 0x57FCA407 EQ PUSH2 0x2F7 JUMPI DUP1 PUSH4 0x64913865 EQ PUSH2 0x30C JUMPI DUP1 PUSH4 0x7F344C16 EQ PUSH2 0x32F JUMPI PUSH1 0x0 DUP1 REVERT JUMPDEST DUP1 PUSH4 0x2734F5BD GT PUSH2 0x1AB JUMPI DUP1 PUSH4 0x2734F5BD EQ PUSH2 0x243 JUMPI DUP1 PUSH4 0x294C9921 EQ PUSH2 0x275 JUMPI DUP1 PUSH4 0x2E1A7D4D EQ PUSH2 0x297 JUMPI DUP1 PUSH4 0x48205521 EQ PUSH2 0x2B7 JUMPI PUSH1 0x0 DUP1 REVERT JUMPDEST DUP1 PUSH4 0x58A258E EQ PUSH2 0x1DD JUMPI DUP1 PUSH4 0x12065FE0 EQ PUSH2 0x1FF JUMPI DUP1 PUSH4 0x212F3287 EQ PUSH2 0x221 JUMPI PUSH1 0x0 DUP1 REVERT JUMPDEST CALLDATASIZE PUSH2 0x1D8 JUMPI STOP JUMPDEST PUSH1 0x0 DUP1 REVERT JUMPDEST CALLVALUE DUP1 ISZERO PUSH2 0x1E9 JUMPI PUSH1 0x0 DUP1 REVERT JUMPDEST POP PUSH2 0x1FD PUSH2 0x1F8 CALLDATASIZE PUSH1 0x4 PUSH2 0x1C1A JUMP JUMPDEST PUSH2 0x65B JUMP JUMPDEST STOP JUMPDEST CALLVALUE DUP1 ISZERO PUSH2 0x20B JUMPI PUSH1 0x0 DUP1 REVERT JUMPDEST POP SELFBALANCE JUMPDEST PUSH1 0x40 MLOAD SWAP1 DUP2 MSTORE PUSH1 0x20 ADD JUMPDEST PUSH1 0x40 MLOAD DUP1 SWAP2 SUB SWAP1 RETURN JUMPDEST CALLVALUE DUP1 ISZERO PUSH2 0x22D JUMPI PUSH1 0x0 DUP1 REVERT JUMPDEST POP PUSH2 0x236 PUSH2 0x771 JUMP JUMPDEST PUSH1 0x40 MLOAD PUSH2 0x218 SWAP2 SWAP1 PUSH2 0x1C9C JUMP JUMPDEST CALLVALUE DUP1 ISZERO PUSH2 0x24F JUMPI PUSH1 0x0 DUP1 REVERT JUMPDEST POP PUSH2 0x258 PUSH2 0x7D3 JUMP JUMPDEST PUSH1 0x40 DUP1 MLOAD SWAP3 DUP4 MSTORE PUSH1 0x1 PUSH1 0x1 PUSH1 0xA0 SHL SUB SWAP1 SWAP2 AND PUSH1 0x20 DUP4 ADD MSTORE ADD PUSH2 0x218 JUMP JUMPDEST CALLVALUE DUP1 ISZERO PUSH2 0x281 JUMPI PUSH1 0x0 DUP1 REVERT JUMPDEST POP PUSH2 0x28A PUSH2 0x83D JUMP JUMPDEST PUSH1 0x40 MLOAD PUSH2 0x218 SWAP2 SWAP1 PUSH2 0x1D62 JUMP JUMPDEST CALLVALUE DUP1 ISZERO PUSH2 0x2A3 JUMPI PUSH1 0x0 DUP1 REVERT JUMPDEST POP PUSH2 0x1FD PUSH2 0x2B2 CALLDATASIZE PUSH1 0x4 PUSH2 0x1D75 JUMP JUMPDEST PUSH2 0x946 JUMP JUMPDEST CALLVALUE DUP1 ISZERO PUSH2 0x2C3 JUMPI PUSH1 0x0 DUP1 REVERT JUMPDEST POP PUSH2 0x1FD PUSH2 0x2D2 CALLDATASIZE PUSH1 0x4 PUSH2 0x1C1A JUMP JUMPDEST PUSH2 0x9ED JUMP JUMPDEST CALLVALUE DUP1 ISZERO PUSH2 0x2E3 JUMPI PUSH1 0x0 DUP1 REVERT JUMPDEST POP PUSH2 0x1FD PUSH2 0x2F2 CALLDATASIZE PUSH1 0x4 PUSH2 0x1DA5 JUMP JUMPDEST PUSH2 0xB21 JUMP JUMPDEST CALLVALUE DUP1 ISZERO PUSH2 0x303 JUMPI PUSH1 0x0 DUP1 REVERT JUMPDEST POP PUSH2 0x28A PUSH2 0xCE1 JUMP JUMPDEST CALLVALUE DUP1 ISZERO PUSH2 0x318 JUMPI PUSH1 0x0 DUP1 REVERT JUMPDEST POP PUSH2 0x321 PUSH2 0xDB1 JUMP JUMPDEST PUSH1 0x40 MLOAD PUSH2 0x218 SWAP3 SWAP2 SWAP1 PUSH2 0x1DF3 JUMP JUMPDEST CALLVALUE DUP1 ISZERO PUSH2 0x33B JUMPI PUSH1 0x0 DUP1 REVERT JUMPDEST POP PUSH2 0x1FD PUSH2 0x34A CALLDATASIZE PUSH1 0x4 PUSH2 0x1C1A JUMP JUMPDEST PUSH2 0xF5A JUMP JUMPDEST CALLVALUE DUP1 ISZERO PUSH2 0x35B JUMPI PUSH1 0x0 DUP1 REVERT JUMPDEST POP PUSH2 0x36F PUSH2 0x36A CALLDATASIZE PUSH1 0x4 PUSH2 0x1E21 JUMP JUMPDEST PUSH2 0x106C JUMP JUMPDEST PUSH1 0x40 MLOAD PUSH2 0x218 SWAP2 SWAP1 DUP2 MLOAD DUP2 MSTORE PUSH1 0x20 DUP1 DUP4 ADD MLOAD SWAP1 DUP3 ADD MSTORE PUSH1 0x40 DUP1 DUP4 ADD MLOAD SWAP1 DUP3 ADD MSTORE PUSH1 0x60 SWAP2 DUP3 ADD MLOAD SWAP2 DUP2 ADD SWAP2 SWAP1 SWAP2 MSTORE PUSH1 0x80 ADD SWAP1 JUMP JUMPDEST CALLVALUE DUP1 ISZERO PUSH2 0x3AE JUMPI PUSH1 0x0 DUP1 REVERT JUMPDEST POP PUSH2 0x1FD PUSH2 0x3BD CALLDATASIZE PUSH1 0x4 PUSH2 0x1E3C JUMP JUMPDEST PUSH2 0x10E8 JUMP JUMPDEST CALLVALUE DUP1 ISZERO PUSH2 0x3CE JUMPI PUSH1 0x0 DUP1 REVERT JUMPDEST POP PUSH2 0x3D7 PUSH2 0x124D JUMP JUMPDEST PUSH1 0x40 MLOAD PUSH2 0x218 SWAP2 SWAP1 PUSH2 0x1E8F JUMP JUMPDEST CALLVALUE DUP1 ISZERO PUSH2 0x3F0 JUMPI PUSH1 0x0 DUP1 REVERT JUMPDEST POP PUSH1 0x0 SLOAD PUSH2 0x404 SWAP1 PUSH1 0x1 PUSH1 0x1 PUSH1 0xA0 SHL SUB AND DUP2 JUMP JUMPDEST PUSH1 0x40 MLOAD PUSH1 0x1 PUSH1 0x1 PUSH1 0xA0 SHL SUB SWAP1 SWAP2 AND DUP2 MSTORE PUSH1 0x20 ADD PUSH2 0x218 JUMP JUMPDEST CALLVALUE DUP1 ISZERO PUSH2 0x428 JUMPI PUSH1 0x0 DUP1 REVERT JUMPDEST POP PUSH2 0x3D7 PUSH2 0x437 CALLDATASIZE PUSH1 0x4 PUSH2 0x1C1A JUMP JUMPDEST PUSH2 0x12A1 JUMP JUMPDEST CALLVALUE DUP1 ISZERO PUSH2 0x448 JUMPI PUSH1 0x0 DUP1 REVERT JUMPDEST POP PUSH2 0x1FD PUSH2 0x457 CALLDATASIZE PUSH1 0x4 PUSH2 0x1EA2 JUMP JUMPDEST PUSH2 0x1351 JUMP JUMPDEST CALLVALUE DUP1 ISZERO PUSH2 0x468 JUMPI PUSH1 0x0 DUP1 REVERT JUMPDEST POP PUSH1 0x3 SLOAD PUSH2 0x20E JUMP JUMPDEST CALLVALUE DUP1 ISZERO PUSH2 0x47D JUMPI PUSH1 0x0 DUP1 REVERT JUMPDEST POP PUSH2 0x1FD PUSH2 0x48C CALLDATASIZE PUSH1 0x4 PUSH2 0x1E3C JUMP JUMPDEST PUSH2 0x14CC JUMP JUMPDEST CALLVALUE DUP1 ISZERO PUSH2 0x49D JUMPI PUSH1 0x0 DUP1 REVERT JUMPDEST POP PUSH2 0x20E PUSH2 0x4AC CALLDATASIZE PUSH1 0x4 PUSH2 0x1E21 JUMP JUMPDEST PUSH1 0x5 PUSH1 0x20 MSTORE PUSH1 0x0 SWAP1 DUP2 MSTORE PUSH1 0x40 SWAP1 KECCAK256 SLOAD DUP2 JUMP JUMPDEST CALLVALUE DUP1 ISZERO PUSH2 0x4CA JUMPI PUSH1 0x0 DUP1 REVERT JUMPDEST POP PUSH2 0x3D7 PUSH2 0x4D9 CALLDATASIZE PUSH1 0x4 PUSH2 0x1C1A JUMP JUMPDEST PUSH2 0x1629 JUMP JUMPDEST CALLVALUE DUP1 ISZERO PUSH2 0x4EA JUMPI PUSH1 0x0 DUP1 REVERT JUMPDEST POP PUSH2 0x3D7 PUSH2 0x16CE JUMP JUMPDEST CALLVALUE DUP1 ISZERO PUSH2 0x4FF JUMPI PUSH1 0x0 DUP1 REVERT JUMPDEST POP PUSH2 0x3D7 PUSH2 0x50E CALLDATASIZE PUSH1 0x4 PUSH2 0x1C1A JUMP JUMPDEST PUSH2 0x16DB JUMP JUMPDEST CALLVALUE DUP1 ISZERO PUSH2 0x51F JUMPI PUSH1 0x0 DUP1 REVERT JUMPDEST POP PUSH2 0x3D7 PUSH2 0x52E CALLDATASIZE PUSH1 0x4 PUSH2 0x1E21 JUMP JUMPDEST PUSH2 0x1722 JUMP JUMPDEST CALLVALUE DUP1 ISZERO PUSH2 0x53F JUMPI PUSH1 0x0 DUP1 REVERT JUMPDEST POP PUSH2 0x1FD PUSH2 0x54E CALLDATASIZE PUSH1 0x4 PUSH2 0x1E21 JUMP JUMPDEST PUSH2 0x173B JUMP JUMPDEST CALLVALUE DUP1 ISZERO PUSH2 0x55F JUMPI PUSH1 0x0 DUP1 REVERT JUMPDEST POP PUSH2 0x3D7 PUSH2 0x19A3 JUMP JUMPDEST CALLVALUE DUP1 ISZERO PUSH2 0x574 JUMPI PUSH1 0x0 DUP1 REVERT JUMPDEST POP PUSH2 0x1FD PUSH2 0x583 CALLDATASIZE PUSH1 0x4 PUSH2 0x1E21 JUMP JUMPDEST PUSH2 0x19B0 JUMP JUMPDEST CALLVALUE DUP1 ISZERO PUSH2 0x594 JUMPI PUSH1 0x0 DUP1 REVERT JUMPDEST POP PUSH2 0x5CA PUSH2 0x5A3 CALLDATASIZE PUSH1 0x4 PUSH2 0x1E21 JUMP JUMPDEST PUSH1 0x7 PUSH1 0x20 MSTORE PUSH1 0x0 SWAP1 DUP2 MSTORE PUSH1 0x40 SWAP1 KECCAK256 DUP1 SLOAD PUSH1 0x1 DUP3 ADD SLOAD PUSH1 0x2 DUP4 ADD SLOAD PUSH1 0x3 SWAP1 SWAP4 ADD SLOAD SWAP2 SWAP3 SWAP1 SWAP2 DUP5 JUMP JUMPDEST PUSH1 0x40 DUP1 MLOAD SWAP5 DUP6 MSTORE PUSH1 0x20 DUP6 ADD SWAP4 SWAP1 SWAP4 MSTORE SWAP2 DUP4 ADD MSTORE PUSH1 0x60 DUP3 ADD MSTORE PUSH1 0x80 ADD PUSH2 0x218 JUMP JUMPDEST CALLVALUE DUP1 ISZERO PUSH2 0x5F6 JUMPI PUSH1 0x0 DUP1 REVERT JUMPDEST POP PUSH2 0x61A PUSH2 0x605 CALLDATASIZE PUSH1 0x4 PUSH2 0x1E21 JUMP JUMPDEST PUSH1 0x4 PUSH1 0x20 MSTORE PUSH1 0x0 SWAP1 DUP2 MSTORE PUSH1 0x40 SWAP1 KECCAK256 SLOAD PUSH1 0xFF AND DUP2 JUMP JUMPDEST PUSH1 0x40 MLOAD SWAP1 ISZERO ISZERO DUP2 MSTORE PUSH1 0x20 ADD PUSH2 0x218 JUMP JUMPDEST CALLVALUE DUP1 ISZERO PUSH2 0x636 JUMPI PUSH1 0x0 DUP1 REVERT JUMPDEST POP PUSH2 0x3D7 PUSH1 0x40 MLOAD DUP1 PUSH1 0x40 ADD PUSH1 0x40 MSTORE DUP1 PUSH1 0x5 DUP2 MSTORE PUSH1 0x20 ADD PUSH5 0x322E302E3 PUSH1 0xDC SHL DUP2 MSTORE POP DUP2 JUMP JUMPDEST CALLER PUSH1 0x0 SWAP1 DUP2 MSTORE PUSH1 0x4 PUSH1 0x20 MSTORE PUSH1 0x40 SWAP1 KECCAK256 SLOAD PUSH1 0xFF AND PUSH2 0x693 JUMPI PUSH1 0x40 MLOAD PUSH3 0x461BCD PUSH1 0xE5 SHL DUP2 MSTORE PUSH1 0x4 ADD PUSH2 0x68A SWAP1 PUSH2 0x1ECE JUMP JUMPDEST PUSH1 0x40 MLOAD DUP1 SWAP2 SUB SWAP1 REVERT JUMPDEST PUSH1 0x0 PUSH1 0x1 DUP1 SLOAD PUSH2 0x6A2 SWAP1 PUSH2 0x1F0F JUMP JUMPDEST DUP1 PUSH1 0x1F ADD PUSH1 0x20 DUP1 SWAP2 DIV MUL PUSH1 0x20 ADD PUSH1 0x40 MLOAD SWAP1 DUP2 ADD PUSH1 0x40 MSTORE DUP1 SWAP3 SWAP2 SWAP1 DUP2 DUP2 MSTORE PUSH1 0x20 ADD DUP3 DUP1 SLOAD PUSH2 0x6CE SWAP1 PUSH2 0x1F0F JUMP JUMPDEST DUP1 ISZERO PUSH2 0x71B JUMPI DUP1 PUSH1 0x1F LT PUSH2 0x6F0 JUMPI PUSH2 0x100 DUP1 DUP4 SLOAD DIV MUL DUP4 MSTORE SWAP2 PUSH1 0x20 ADD SWAP2 PUSH2 0x71B JUMP JUMPDEST DUP3 ADD SWAP2 SWAP1 PUSH1 0x0 MSTORE PUSH1 0x20 PUSH1 0x0 KECCAK256 SWAP1 JUMPDEST DUP2 SLOAD DUP2 MSTORE SWAP1 PUSH1 0x1 ADD SWAP1 PUSH1 0x20 ADD DUP1 DUP4 GT PUSH2 0x6FE JUMPI DUP3 SWAP1 SUB PUSH1 0x1F AND DUP3 ADD SWAP2 JUMPDEST POP POP POP POP POP SWAP1 POP DUP2 PUSH1 0x1 SWAP1 DUP2 PUSH2 0x731 SWAP2 SWAP1 PUSH2 0x1F98 JUMP JUMPDEST POP PUSH32 0xA6A2AC6515F92B90BC422BC3EE5021B9008A5DA43C4CCC67F75FC83DD552CFA3 DUP2 DUP4 TIMESTAMP PUSH1 0x40 MLOAD PUSH2 0x765 SWAP4 SWAP3 SWAP2 SWAP1 PUSH2 0x205A JUMP JUMPDEST PUSH1 0x40 MLOAD DUP1 SWAP2 SUB SWAP1 LOG1 POP POP JUMP JUMPDEST PUSH1 0x60 PUSH1 0x3 DUP1 SLOAD DUP1 PUSH1 0x20 MUL PUSH1 0x20 ADD PUSH1 0x40 MLOAD SWAP1 DUP2 ADD PUSH1 0x40 MSTORE DUP1 SWAP3 SWAP2 SWAP1 DUP2 DUP2 MSTORE PUSH1 0x20 ADD DUP3 DUP1 SLOAD DUP1 ISZERO PUSH2 0x7C9 JUMPI PUSH1 0x20 MUL DUP3 ADD SWAP2 SWAP1 PUSH1 0x0 MSTORE PUSH1 0x20 PUSH1 0x0 KECCAK256 SWAP1 JUMPDEST DUP2 SLOAD PUSH1 0x1 PUSH1 0x1 PUSH1 0xA0 SHL SUB AND DUP2 MSTORE PUSH1 0x1 SWAP1 SWAP2 ADD SWAP1 PUSH1 0x20 ADD DUP1 DUP4 GT PUSH2 0x7AB JUMPI JUMPDEST POP POP POP POP POP SWAP1 POP SWAP1 JUMP JUMPDEST PUSH1 0x0 DUP1 DUP1 JUMPDEST PUSH1 0x3 SLOAD DUP2 LT ISZERO PUSH2 0x838 JUMPI PUSH1 0x0 PUSH1 0x3 DUP3 DUP2 SLOAD DUP2 LT PUSH2 0x7F7 JUMPI PUSH2 0x7F7 PUSH2 0x2090 JUMP JUMPDEST PUSH1 0x0 SWAP2 DUP3 MSTORE PUSH1 0x20 DUP1 DUP4 KECCAK256 SWAP1 SWAP2 ADD SLOAD PUSH1 0x1 PUSH1 0x1 PUSH1 0xA0 SHL SUB AND DUP1 DUP4 MSTORE PUSH1 0x7 SWAP1 SWAP2 MSTORE PUSH1 0x40 SWAP1 SWAP2 KECCAK256 SLOAD SWAP1 SWAP2 POP DUP5 DUP2 GT ISZERO PUSH2 0x82E JUMPI DUP1 SWAP5 POP DUP2 SWAP4 POP JUMPDEST POP POP PUSH1 0x1 ADD PUSH2 0x7D8 JUMP JUMPDEST POP SWAP1 SWAP2 JUMP JUMPDEST CALLER PUSH1 0x0 SWAP1 DUP2 MSTORE PUSH1 0x4 PUSH1 0x20 MSTORE PUSH1 0x40 SWAP1 KECCAK256 SLOAD PUSH1 0x60 SWAP1 PUSH1 0xFF AND PUSH2 0x86F JUMPI PUSH1 0x40 MLOAD PUSH3 0x461BCD PUSH1 0xE5 SHL DUP2 MSTORE PUSH1 0x4 ADD PUSH2 0x68A SWAP1 PUSH2 0x1ECE JUMP JUMPDEST PUSH1 0xB DUP1 SLOAD DUP1 PUSH1 0x20 MUL PUSH1 0x20 ADD PUSH1 0x40 MLOAD SWAP1 DUP2 ADD PUSH1 0x40 MSTORE DUP1 SWAP3 SWAP2 SWAP1 DUP2 DUP2 MSTORE PUSH1 0x20 ADD PUSH1 0x0 SWAP1 JUMPDEST DUP3 DUP3 LT ISZERO PUSH2 0x93D JUMPI DUP4 DUP3 SWAP1 PUSH1 0x0 MSTORE PUSH1 0x20 PUSH1 0x0 KECCAK256 ADD DUP1 SLOAD PUSH2 0x8B0 SWAP1 PUSH2 0x1F0F JUMP JUMPDEST DUP1 PUSH1 0x1F ADD PUSH1 0x20 DUP1 SWAP2 DIV MUL PUSH1 0x20 ADD PUSH1 0x40 MLOAD SWAP1 DUP2 ADD PUSH1 0x40 MSTORE DUP1 SWAP3 SWAP2 SWAP1 DUP2 DUP2 MSTORE PUSH1 0x20 ADD DUP3 DUP1 SLOAD PUSH2 0x8DC SWAP1 PUSH2 0x1F0F JUMP JUMPDEST DUP1 ISZERO PUSH2 0x929 JUMPI DUP1 PUSH1 0x1F LT PUSH2 0x8FE JUMPI PUSH2 0x100 DUP1 DUP4 SLOAD DIV MUL DUP4 MSTORE SWAP2 PUSH1 0x20 ADD SWAP2 PUSH2 0x929 JUMP JUMPDEST DUP3 ADD SWAP2 SWAP1 PUSH1 0x0 MSTORE PUSH1 0x20 PUSH1 0x0 KECCAK256 SWAP1 JUMPDEST DUP2 SLOAD DUP2 MSTORE SWAP1 PUSH1 0x1 ADD SWAP1 PUSH1 0x20 ADD DUP1 DUP4 GT PUSH2 0x90C JUMPI DUP3 SWAP1 SUB PUSH1 0x1F AND DUP3 ADD SWAP2 JUMPDEST POP POP POP POP POP DUP2 MSTORE PUSH1 0x20 ADD SWAP1 PUSH1 0x1 ADD SWAP1 PUSH2 0x891 JUMP JUMPDEST POP POP POP POP SWAP1 POP SWAP1 JUMP JUMPDEST CALLER PUSH1 0x0 SWAP1 DUP2 MSTORE PUSH1 0x4 PUSH1 0x20 MSTORE PUSH1 0x40 SWAP1 KECCAK256 SLOAD PUSH1 0xFF AND PUSH2 0x975 JUMPI PUSH1 0x40 MLOAD PUSH3 0x461BCD PUSH1 0xE5 SHL DUP2 MSTORE PUSH1 0x4 ADD PUSH2 0x68A SWAP1 PUSH2 0x1ECE JUMP JUMPDEST DUP1 SELFBALANCE LT ISZERO PUSH2 0x9BC JUMPI PUSH1 0x40 MLOAD PUSH3 0x461BCD PUSH1 0xE5 SHL DUP2 MSTORE PUSH1 0x20 PUSH1 0x4 DUP3 ADD MSTORE PUSH1 0x14 PUSH1 0x24 DUP3 ADD MSTORE PUSH20 0x496E73756666696369656E742062616C616E6365 PUSH1 0x60 SHL PUSH1 0x44 DUP3 ADD MSTORE PUSH1 0x64 ADD PUSH2 0x68A JUMP JUMPDEST PUSH1 0x40 MLOAD CALLER SWAP1 DUP3 ISZERO PUSH2 0x8FC MUL SWAP1 DUP4 SWAP1 PUSH1 0x0 DUP2 DUP2 DUP2 DUP6 DUP9 DUP9 CALL SWAP4 POP POP POP POP ISZERO DUP1 ISZERO PUSH2 0x9E9 JUMPI RETURNDATASIZE PUSH1 0x0 DUP1 RETURNDATACOPY RETURNDATASIZE PUSH1 0x0 REVERT JUMPDEST POP POP JUMP JUMPDEST CALLER PUSH1 0x0 SWAP1 DUP2 MSTORE PUSH1 0x4 PUSH1 0x20 MSTORE PUSH1 0x40 SWAP1 KECCAK256 SLOAD PUSH1 0xFF AND PUSH2 0xA1C JUMPI PUSH1 0x40 MLOAD PUSH3 0x461BCD PUSH1 0xE5 SHL DUP2 MSTORE PUSH1 0x4 ADD PUSH2 0x68A SWAP1 PUSH2 0x1ECE JUMP JUMPDEST PUSH1 0x9 DUP2 PUSH1 0x40 MLOAD PUSH2 0xA2C SWAP2 SWAP1 PUSH2 0x20A6 JUMP JUMPDEST SWAP1 DUP2 MSTORE PUSH1 0x20 ADD PUSH1 0x40 MLOAD DUP1 SWAP2 SUB SWAP1 KECCAK256 PUSH1 0x0 PUSH2 0xA46 SWAP2 SWAP1 PUSH2 0x1B1F JUMP JUMPDEST PUSH1 0x0 JUMPDEST PUSH1 0xB SLOAD DUP2 LT ISZERO PUSH2 0x9E9 JUMPI DUP2 DUP1 MLOAD SWAP1 PUSH1 0x20 ADD KECCAK256 PUSH1 0xB DUP3 DUP2 SLOAD DUP2 LT PUSH2 0xA6E JUMPI PUSH2 0xA6E PUSH2 0x2090 JUMP JUMPDEST SWAP1 PUSH1 0x0 MSTORE PUSH1 0x20 PUSH1 0x0 KECCAK256 ADD PUSH1 0x40 MLOAD PUSH2 0xA85 SWAP2 SWAP1 PUSH2 0x2134 JUMP JUMPDEST PUSH1 0x40 MLOAD DUP1 SWAP2 SUB SWAP1 KECCAK256 SUB PUSH2 0xB19 JUMPI PUSH1 0xB DUP1 SLOAD PUSH2 0xAA2 SWAP1 PUSH1 0x1 SWAP1 PUSH2 0x2140 JUMP JUMPDEST DUP2 SLOAD DUP2 LT PUSH2 0xAB2 JUMPI PUSH2 0xAB2 PUSH2 0x2090 JUMP JUMPDEST SWAP1 PUSH1 0x0 MSTORE PUSH1 0x20 PUSH1 0x0 KECCAK256 ADD PUSH1 0xB DUP3 DUP2 SLOAD DUP2 LT PUSH2 0xACF JUMPI PUSH2 0xACF PUSH2 0x2090 JUMP JUMPDEST SWAP1 PUSH1 0x0 MSTORE PUSH1 0x20 PUSH1 0x0 KECCAK256 ADD SWAP1 DUP2 PUSH2 0xAE5 SWAP2 SWAP1 PUSH2 0x2167 JUMP JUMPDEST POP PUSH1 0xB DUP1 SLOAD DUP1 PUSH2 0xAF7 JUMPI PUSH2 0xAF7 PUSH2 0x223C JUMP JUMPDEST PUSH1 0x1 SWAP1 SUB DUP2 DUP2 SWAP1 PUSH1 0x0 MSTORE PUSH1 0x20 PUSH1 0x0 KECCAK256 ADD PUSH1 0x0 PUSH2 0xB13 SWAP2 SWAP1 PUSH2 0x1B1F JUMP JUMPDEST SWAP1 SSTORE POP POP JUMP JUMPDEST PUSH1 0x1 ADD PUSH2 0xA49 JUMP JUMPDEST CALLER PUSH1 0x0 SWAP1 DUP2 MSTORE PUSH1 0x4 PUSH1 0x20 MSTORE PUSH1 0x40 SWAP1 KECCAK256 SLOAD PUSH1 0xFF AND PUSH2 0xB50 JUMPI PUSH1 0x40 MLOAD PUSH3 0x461BCD PUSH1 0xE5 SHL DUP2 MSTORE PUSH1 0x4 ADD PUSH2 0x68A SWAP1 PUSH2 0x1ECE JUMP JUMPDEST PUSH1 0x1 PUSH1 0x1 PUSH1 0xA0 SHL SUB DUP3 AND PUSH2 0xBA6 JUMPI PUSH1 0x40 MLOAD PUSH3 0x461BCD PUSH1 0xE5 SHL DUP2 MSTORE PUSH1 0x20 PUSH1 0x4 DUP3 ADD MSTORE PUSH1 0x1C PUSH1 0x24 DUP3 ADD MSTORE PUSH32 0x526976657420616464726573732063616E6E6F74206265207A65726F00000000 PUSH1 0x44 DUP3 ADD MSTORE PUSH1 0x64 ADD PUSH2 0x68A JUMP JUMPDEST PUSH1 0x1 PUSH1 0x1 PUSH1 0xA0 SHL SUB DUP3 AND PUSH1 0x0 SWAP1 DUP2 MSTORE PUSH1 0x4 PUSH1 0x20 MSTORE PUSH1 0x40 SWAP1 KECCAK256 SLOAD PUSH1 0xFF AND ISZERO PUSH2 0xC0F JUMPI PUSH1 0x40 MLOAD PUSH3 0x461BCD PUSH1 0xE5 SHL DUP2 MSTORE PUSH1 0x20 PUSH1 0x4 DUP3 ADD MSTORE PUSH1 0x1B PUSH1 0x24 DUP3 ADD MSTORE PUSH32 0x526976657420697320616C726561647920617574686F72697A65640000000000 PUSH1 0x44 DUP3 ADD MSTORE PUSH1 0x64 ADD PUSH2 0x68A JUMP JUMPDEST PUSH1 0x3 DUP1 SLOAD PUSH1 0x1 DUP1 DUP3 ADD SWAP1 SWAP3 SSTORE PUSH32 0xC2575A0E9E593C00F959F8C92F12DB2869C3395A3B0502D05E2516446F71F85B ADD DUP1 SLOAD PUSH1 0x1 PUSH1 0x1 PUSH1 0xA0 SHL SUB NOT AND PUSH1 0x1 PUSH1 0x1 PUSH1 0xA0 SHL SUB DUP6 AND SWAP1 DUP2 OR SWAP1 SWAP2 SSTORE PUSH1 0x0 SWAP1 DUP2 MSTORE PUSH1 0x4 PUSH1 0x20 SWAP1 DUP2 MSTORE PUSH1 0x40 DUP1 DUP4 KECCAK256 DUP1 SLOAD PUSH1 0xFF NOT AND SWAP1 SWAP5 OR SWAP1 SWAP4 SSTORE PUSH1 0x5 DUP2 MSTORE DUP3 DUP3 KECCAK256 TIMESTAMP SWAP1 SSTORE PUSH1 0x6 SWAP1 MSTORE KECCAK256 PUSH2 0xC8F DUP3 DUP3 PUSH2 0x1F98 JUMP JUMPDEST POP CALLER PUSH1 0x1 PUSH1 0x1 PUSH1 0xA0 SHL SUB AND DUP3 PUSH1 0x1 PUSH1 0x1 PUSH1 0xA0 SHL SUB AND PUSH32 0x6CF6B4AE665005CD3796957A1BD3D4A73D2ACE1D465FD12D03C66E7A254FD432 DUP4 TIMESTAMP PUSH1 0x40 MLOAD PUSH2 0xCD5 SWAP3 SWAP2 SWAP1 PUSH2 0x2252 JUMP JUMPDEST PUSH1 0x40 MLOAD DUP1 SWAP2 SUB SWAP1 LOG3 POP POP JUMP JUMPDEST PUSH1 0x60 PUSH1 0xA DUP1 SLOAD DUP1 PUSH1 0x20 MUL PUSH1 0x20 ADD PUSH1 0x40 MLOAD SWAP1 DUP2 ADD PUSH1 0x40 MSTORE DUP1 SWAP3 SWAP2 SWAP1 DUP2 DUP2 MSTORE PUSH1 0x20 ADD PUSH1 0x0 SWAP1 JUMPDEST DUP3 DUP3 LT ISZERO PUSH2 0x93D JUMPI DUP4 DUP3 SWAP1 PUSH1 0x0 MSTORE PUSH1 0x20 PUSH1 0x0 KECCAK256 ADD DUP1 SLOAD PUSH2 0xD24 SWAP1 PUSH2 0x1F0F JUMP JUMPDEST DUP1 PUSH1 0x1F ADD PUSH1 0x20 DUP1 SWAP2 DIV MUL PUSH1 0x20 ADD PUSH1 0x40 MLOAD SWAP1 DUP2 ADD PUSH1 0x40 MSTORE DUP1 SWAP3 SWAP2 SWAP1 DUP2 DUP2 MSTORE PUSH1 0x20 ADD DUP3 DUP1 SLOAD PUSH2 0xD50 SWAP1 PUSH2 0x1F0F JUMP JUMPDEST DUP1 ISZERO PUSH2 0xD9D JUMPI DUP1 PUSH1 0x1F LT PUSH2 0xD72 JUMPI PUSH2 0x100 DUP1 DUP4 SLOAD DIV MUL DUP4 MSTORE SWAP2 PUSH1 0x20 ADD SWAP2 PUSH2 0xD9D JUMP JUMPDEST DUP3 ADD SWAP2 SWAP1 PUSH1 0x0 MSTORE PUSH1 0x20 PUSH1 0x0 KECCAK256 SWAP1 JUMPDEST DUP2 SLOAD DUP2 MSTORE SWAP1 PUSH1 0x1 ADD SWAP1 PUSH1 0x20 ADD DUP1 DUP4 GT PUSH2 0xD80 JUMPI DUP3 SWAP1 SUB PUSH1 0x1F AND DUP3 ADD SWAP2 JUMPDEST POP POP POP POP POP DUP2 MSTORE PUSH1 0x20 ADD SWAP1 PUSH1 0x1 ADD SWAP1 PUSH2 0xD05 JUMP JUMPDEST PUSH1 0x60 DUP1 PUSH1 0x3 DUP1 SLOAD DUP1 PUSH1 0x20 MUL PUSH1 0x20 ADD PUSH1 0x40 MLOAD SWAP1 DUP2 ADD PUSH1 0x40 MSTORE DUP1 SWAP3 SWAP2 SWAP1 DUP2 DUP2 MSTORE PUSH1 0x20 ADD DUP3 DUP1 SLOAD DUP1 ISZERO PUSH2 0xE0A JUMPI PUSH1 0x20 MUL DUP3 ADD SWAP2 SWAP1 PUSH1 0x0 MSTORE PUSH1 0x20 PUSH1 0x0 KECCAK256 SWAP1 JUMPDEST DUP2 SLOAD PUSH1 0x1 PUSH1 0x1 PUSH1 0xA0 SHL SUB AND DUP2 MSTORE PUSH1 0x1 SWAP1 SWAP2 ADD SWAP1 PUSH1 0x20 ADD DUP1 DUP4 GT PUSH2 0xDEC JUMPI JUMPDEST POP POP PUSH1 0x3 SLOAD SWAP4 SWAP6 POP POP POP PUSH8 0xFFFFFFFFFFFFFFFF DUP3 GT ISZERO SWAP1 POP PUSH2 0xE2E JUMPI PUSH2 0xE2E PUSH2 0x1B75 JUMP JUMPDEST PUSH1 0x40 MLOAD SWAP1 DUP1 DUP3 MSTORE DUP1 PUSH1 0x20 MUL PUSH1 0x20 ADD DUP3 ADD PUSH1 0x40 MSTORE DUP1 ISZERO PUSH2 0xE61 JUMPI DUP2 PUSH1 0x20 ADD JUMPDEST PUSH1 0x60 DUP2 MSTORE PUSH1 0x20 ADD SWAP1 PUSH1 0x1 SWAP1 SUB SWAP1 DUP2 PUSH2 0xE4C JUMPI SWAP1 POP JUMPDEST POP SWAP1 POP PUSH1 0x0 JUMPDEST PUSH1 0x3 SLOAD DUP2 LT ISZERO PUSH2 0x838 JUMPI PUSH1 0x6 PUSH1 0x0 PUSH1 0x3 DUP4 DUP2 SLOAD DUP2 LT PUSH2 0xE88 JUMPI PUSH2 0xE88 PUSH2 0x2090 JUMP JUMPDEST PUSH1 0x0 SWAP2 DUP3 MSTORE PUSH1 0x20 DUP1 DUP4 KECCAK256 SWAP1 SWAP2 ADD SLOAD PUSH1 0x1 PUSH1 0x1 PUSH1 0xA0 SHL SUB AND DUP4 MSTORE DUP3 ADD SWAP3 SWAP1 SWAP3 MSTORE PUSH1 0x40 ADD SWAP1 KECCAK256 DUP1 SLOAD PUSH2 0xEB7 SWAP1 PUSH2 0x1F0F JUMP JUMPDEST DUP1 PUSH1 0x1F ADD PUSH1 0x20 DUP1 SWAP2 DIV MUL PUSH1 0x20 ADD PUSH1 0x40 MLOAD SWAP1 DUP2 ADD PUSH1 0x40 MSTORE DUP1 SWAP3 SWAP2 SWAP1 DUP2 DUP2 MSTORE PUSH1 0x20 ADD DUP3 DUP1 SLOAD PUSH2 0xEE3 SWAP1 PUSH2 0x1F0F JUMP JUMPDEST DUP1 ISZERO PUSH2 0xF30 JUMPI DUP1 PUSH1 0x1F LT PUSH2 0xF05 JUMPI PUSH2 0x100 DUP1 DUP4 SLOAD DIV MUL DUP4 MSTORE SWAP2 PUSH1 0x20 ADD SWAP2 PUSH2 0xF30 JUMP JUMPDEST DUP3 ADD SWAP2 SWAP1 PUSH1 0x0 MSTORE PUSH1 0x20 PUSH1 0x0 KECCAK256 SWAP1 JUMPDEST DUP2 SLOAD DUP2 MSTORE SWAP1 PUSH1 0x1 ADD SWAP1 PUSH1 0x20 ADD DUP1 DUP4 GT PUSH2 0xF13 JUMPI DUP3 SWAP1 SUB PUSH1 0x1F AND DUP3 ADD SWAP2 JUMPDEST POP POP POP POP POP DUP3 DUP3 DUP2 MLOAD DUP2 LT PUSH2 0xF47 JUMPI PUSH2 0xF47 PUSH2 0x2090 JUMP JUMPDEST PUSH1 0x20 SWAP1 DUP2 MUL SWAP2 SWAP1 SWAP2 ADD ADD MSTORE PUSH1 0x1 ADD PUSH2 0xE67 JUMP JUMPDEST CALLER PUSH1 0x0 SWAP1 DUP2 MSTORE PUSH1 0x4 PUSH1 0x20 MSTORE PUSH1 0x40 SWAP1 KECCAK256 SLOAD PUSH1 0xFF AND PUSH2 0xF89 JUMPI PUSH1 0x40 MLOAD PUSH3 0x461BCD PUSH1 0xE5 SHL DUP2 MSTORE PUSH1 0x4 ADD PUSH2 0x68A SWAP1 PUSH2 0x1ECE JUMP JUMPDEST PUSH1 0x8 DUP2 PUSH1 0x40 MLOAD PUSH2 0xF99 SWAP2 SWAP1 PUSH2 0x20A6 JUMP JUMPDEST SWAP1 DUP2 MSTORE PUSH1 0x20 ADD PUSH1 0x40 MLOAD DUP1 SWAP2 SUB SWAP1 KECCAK256 PUSH1 0x0 PUSH2 0xFB3 SWAP2 SWAP1 PUSH2 0x1B1F JUMP JUMPDEST PUSH1 0x0 JUMPDEST PUSH1 0xA SLOAD DUP2 LT ISZERO PUSH2 0x9E9 JUMPI DUP2 DUP1 MLOAD SWAP1 PUSH1 0x20 ADD KECCAK256 PUSH1 0xA DUP3 DUP2 SLOAD DUP2 LT PUSH2 0xFDB JUMPI PUSH2 0xFDB PUSH2 0x2090 JUMP JUMPDEST SWAP1 PUSH1 0x0 MSTORE PUSH1 0x20 PUSH1 0x0 KECCAK256 ADD PUSH1 0x40 MLOAD PUSH2 0xFF2 SWAP2 SWAP1 PUSH2 0x2134 JUMP JUMPDEST PUSH1 0x40 MLOAD DUP1 SWAP2 SUB SWAP1 KECCAK256 SUB PUSH2 0x1064 JUMPI PUSH1 0xA DUP1 SLOAD PUSH2 0x100F SWAP1 PUSH1 0x1 SWAP1 PUSH2 0x2140 JUMP JUMPDEST DUP2 SLOAD DUP2 LT PUSH2 0x101F JUMPI PUSH2 0x101F PUSH2 0x2090 JUMP JUMPDEST SWAP1 PUSH1 0x0 MSTORE PUSH1 0x20 PUSH1 0x0 KECCAK256 ADD PUSH1 0xA DUP3 DUP2 SLOAD DUP2 LT PUSH2 0x103C JUMPI PUSH2 0x103C PUSH2 0x2090 JUMP JUMPDEST SWAP1 PUSH1 0x0 MSTORE PUSH1 0x20 PUSH1 0x0 KECCAK256 ADD SWAP1 DUP2 PUSH2 0x1052 SWAP2 SWAP1 PUSH2 0x2167 JUMP JUMPDEST POP PUSH1 0xA DUP1 SLOAD DUP1 PUSH2 0xAF7 JUMPI PUSH2 0xAF7 PUSH2 0x223C JUMP JUMPDEST PUSH1 0x1 ADD PUSH2 0xFB6 JUMP JUMPDEST PUSH2 0x109A PUSH1 0x40 MLOAD DUP1 PUSH1 0x80 ADD PUSH1 0x40 MSTORE DUP1 PUSH1 0x0 DUP2 MSTORE PUSH1 0x20 ADD PUSH1 0x0 DUP1 NOT AND DUP2 MSTORE PUSH1 0x20 ADD PUSH1 0x0 DUP2 MSTORE PUSH1 0x20 ADD PUSH1 0x0 DUP2 MSTORE POP SWAP1 JUMP JUMPDEST POP PUSH1 0x1 PUSH1 0x1 PUSH1 0xA0 SHL SUB AND PUSH1 0x0 SWAP1 DUP2 MSTORE PUSH1 0x7 PUSH1 0x20 SWAP1 DUP2 MSTORE PUSH1 0x40 SWAP2 DUP3 SWAP1 KECCAK256 DUP3 MLOAD PUSH1 0x80 DUP2 ADD DUP5 MSTORE DUP2 SLOAD DUP2 MSTORE PUSH1 0x1 DUP3 ADD SLOAD SWAP3 DUP2 ADD SWAP3 SWAP1 SWAP3 MSTORE PUSH1 0x2 DUP2 ADD SLOAD SWAP3 DUP3 ADD SWAP3 SWAP1 SWAP3 MSTORE PUSH1 0x3 SWAP1 SWAP2 ADD SLOAD PUSH1 0x60 DUP3 ADD MSTORE SWAP1 JUMP JUMPDEST CALLER PUSH1 0x0 SWAP1 DUP2 MSTORE PUSH1 0x4 PUSH1 0x20 MSTORE PUSH1 0x40 SWAP1 KECCAK256 SLOAD PUSH1 0xFF AND PUSH2 0x1117 JUMPI PUSH1 0x40 MLOAD PUSH3 0x461BCD PUSH1 0xE5 SHL DUP2 MSTORE PUSH1 0x4 ADD PUSH2 0x68A SWAP1 PUSH2 0x1ECE JUMP JUMPDEST PUSH1 0x0 DUP3 MLOAD GT PUSH2 0x115E JUMPI PUSH1 0x40 MLOAD PUSH3 0x461BCD PUSH1 0xE5 SHL DUP2 MSTORE PUSH1 0x20 PUSH1 0x4 DUP3 ADD MSTORE PUSH1 0x13 PUSH1 0x24 DUP3 ADD MSTORE PUSH19 0x4B65792063616E6E6F7420626520656D707479 PUSH1 0x68 SHL PUSH1 0x44 DUP3 ADD MSTORE PUSH1 0x64 ADD PUSH2 0x68A JUMP JUMPDEST PUSH1 0x8 DUP3 PUSH1 0x40 MLOAD PUSH2 0x116E SWAP2 SWAP1 PUSH2 0x20A6 JUMP JUMPDEST SWAP1 DUP2 MSTORE PUSH1 0x20 ADD PUSH1 0x40 MLOAD DUP1 SWAP2 SUB SWAP1 KECCAK256 DUP1 SLOAD PUSH2 0x1187 SWAP1 PUSH2 0x1F0F JUMP JUMPDEST SWAP1 POP PUSH1 0x0 SUB PUSH2 0x11CE JUMPI PUSH1 0xA DUP1 SLOAD PUSH1 0x1 DUP2 ADD DUP3 SSTORE PUSH1 0x0 SWAP2 SWAP1 SWAP2 MSTORE PUSH32 0xC65A7BB8D6351C1CF70C95A316CC6A92839C986682D98BC35F958F4883F9D2A8 ADD PUSH2 0x11CC DUP4 DUP3 PUSH2 0x1F98 JUMP JUMPDEST POP JUMPDEST DUP1 PUSH1 0x8 DUP4 PUSH1 0x40 MLOAD PUSH2 0x11DF SWAP2 SWAP1 PUSH2 0x20A6 JUMP JUMPDEST SWAP1 DUP2 MSTORE PUSH1 0x20 ADD PUSH1 0x40 MLOAD DUP1 SWAP2 SUB SWAP1 KECCAK256 SWAP1 DUP2 PUSH2 0x11F9 SWAP2 SWAP1 PUSH2 0x1F98 JUMP JUMPDEST POP DUP2 PUSH1 0x40 MLOAD PUSH2 0x1208 SWAP2 SWAP1 PUSH2 0x20A6 JUMP JUMPDEST PUSH1 0x40 DUP1 MLOAD SWAP2 DUP3 SWAP1 SUB DUP3 KECCAK256 PUSH1 0x1 DUP4 MSTORE TIMESTAMP PUSH1 0x20 DUP5 ADD MSTORE SWAP2 PUSH32 0x590120A97FEA9EAE0AB7F73633C407E0D9F528198B43F5ADED24FC1641466744 SWAP2 ADD JUMPDEST PUSH1 0x40 MLOAD DUP1 SWAP2 SUB SWAP1 LOG2 POP POP JUMP JUMPDEST PUSH1 0x60 PUSH1 0x1 DUP1 SLOAD PUSH2 0x125C SWAP1 PUSH2 0x1F0F JUMP JUMPDEST SWAP1 POP PUSH1 0x0 SUB PUSH2 0x1278 JUMPI POP PUSH1 0x40 DUP1 MLOAD PUSH1 0x20 DUP2 ADD SWAP1 SWAP2 MSTORE PUSH1 0x0 DUP2 MSTORE SWAP1 JUMP JUMPDEST PUSH1 0x1 PUSH1 0x2 PUSH1 0x40 MLOAD PUSH1 0x20 ADD PUSH2 0x128D SWAP3 SWAP2 SWAP1 PUSH2 0x2274 JUMP JUMPDEST PUSH1 0x40 MLOAD PUSH1 0x20 DUP2 DUP4 SUB SUB DUP2 MSTORE SWAP1 PUSH1 0x40 MSTORE SWAP1 POP SWAP1 JUMP JUMPDEST PUSH1 0x60 PUSH1 0x8 DUP3 PUSH1 0x40 MLOAD PUSH2 0x12B3 SWAP2 SWAP1 PUSH2 0x20A6 JUMP JUMPDEST SWAP1 DUP2 MSTORE PUSH1 0x20 ADD PUSH1 0x40 MLOAD DUP1 SWAP2 SUB SWAP1 KECCAK256 DUP1 SLOAD PUSH2 0x12CC SWAP1 PUSH2 0x1F0F JUMP JUMPDEST DUP1 PUSH1 0x1F ADD PUSH1 0x20 DUP1 SWAP2 DIV MUL PUSH1 0x20 ADD PUSH1 0x40 MLOAD SWAP1 DUP2 ADD PUSH1 0x40 MSTORE DUP1 SWAP3 SWAP2 SWAP1 DUP2 DUP2 MSTORE PUSH1 0x20 ADD DUP3 DUP1 SLOAD PUSH2 0x12F8 SWAP1 PUSH2 0x1F0F JUMP JUMPDEST DUP1 ISZERO PUSH2 0x1345 JUMPI DUP1 PUSH1 0x1F LT PUSH2 0x131A JUMPI PUSH2 0x100 DUP1 DUP4 SLOAD DIV MUL DUP4 MSTORE SWAP2 PUSH1 0x20 ADD SWAP2 PUSH2 0x1345 JUMP JUMPDEST DUP3 ADD SWAP2 SWAP1 PUSH1 0x0 MSTORE PUSH1 0x20 PUSH1 0x0 KECCAK256 SWAP1 JUMPDEST DUP2 SLOAD DUP2 MSTORE SWAP1 PUSH1 0x1 ADD SWAP1 PUSH1 0x20 ADD DUP1 DUP4 GT PUSH2 0x1328 JUMPI DUP3 SWAP1 SUB PUSH1 0x1F AND DUP3 ADD SWAP2 JUMPDEST POP POP POP POP POP SWAP1 POP SWAP2 SWAP1 POP JUMP JUMPDEST CALLER PUSH1 0x0 SWAP1 DUP2 MSTORE PUSH1 0x4 PUSH1 0x20 MSTORE PUSH1 0x40 SWAP1 KECCAK256 SLOAD PUSH1 0xFF AND PUSH2 0x1380 JUMPI PUSH1 0x40 MLOAD PUSH3 0x461BCD PUSH1 0xE5 SHL DUP2 MSTORE PUSH1 0x4 ADD PUSH2 0x68A SWAP1 PUSH2 0x1ECE JUMP JUMPDEST CALLER PUSH1 0x0 SWAP1 DUP2 MSTORE PUSH1 0x7 PUSH1 0x20 MSTORE PUSH1 0x40 SWAP1 KECCAK256 SLOAD DUP4 LT ISZERO PUSH2 0x13D8 JUMPI PUSH1 0x40 MLOAD PUSH3 0x461BCD PUSH1 0xE5 SHL DUP2 MSTORE PUSH1 0x20 PUSH1 0x4 DUP3 ADD MSTORE PUSH1 0x16 PUSH1 0x24 DUP3 ADD MSTORE PUSH22 0x506F696E74732063616E6E6F74206465637265617365 PUSH1 0x50 SHL PUSH1 0x44 DUP3 ADD MSTORE PUSH1 0x64 ADD PUSH2 0x68A JUMP JUMPDEST CALLER PUSH1 0x0 SWAP1 DUP2 MSTORE PUSH1 0x7 PUSH1 0x20 MSTORE PUSH1 0x40 SWAP1 KECCAK256 PUSH1 0x2 ADD SLOAD DUP2 LT ISZERO PUSH2 0x143A JUMPI PUSH1 0x40 MLOAD PUSH3 0x461BCD PUSH1 0xE5 SHL DUP2 MSTORE PUSH1 0x20 PUSH1 0x4 DUP3 ADD MSTORE PUSH1 0x1B PUSH1 0x24 DUP3 ADD MSTORE PUSH32 0x4576656E7420636F756E742063616E6E6F742064656372656173650000000000 PUSH1 0x44 DUP3 ADD MSTORE PUSH1 0x64 ADD PUSH2 0x68A JUMP JUMPDEST PUSH1 0x40 DUP1 MLOAD PUSH1 0x80 DUP2 ADD DUP3 MSTORE DUP5 DUP2 MSTORE PUSH1 0x20 DUP1 DUP3 ADD DUP6 DUP2 MSTORE DUP3 DUP5 ADD DUP6 DUP2 MSTORE TIMESTAMP PUSH1 0x60 DUP1 DUP7 ADD DUP3 DUP2 MSTORE CALLER PUSH1 0x0 DUP2 DUP2 MSTORE PUSH1 0x7 DUP9 MSTORE DUP10 SWAP1 KECCAK256 SWAP8 MLOAD DUP9 SSTORE SWAP5 MLOAD PUSH1 0x1 DUP9 ADD SSTORE SWAP3 MLOAD PUSH1 0x2 DUP8 ADD SSTORE SWAP2 MLOAD PUSH1 0x3 SWAP1 SWAP6 ADD SWAP5 SWAP1 SWAP5 SSTORE DUP5 MLOAD DUP9 DUP2 MSTORE SWAP3 DUP4 ADD DUP7 SWAP1 MSTORE SWAP4 DUP3 ADD SWAP3 SWAP1 SWAP3 MSTORE SWAP1 SWAP2 PUSH32 0xE74DFE9692EFC9E4E9E79C647202A04073B250EAEC59C3AD87BCC99EE158C3D2 SWAP2 ADD PUSH1 0x40 MLOAD DUP1 SWAP2 SUB SWAP1 LOG2 POP POP POP JUMP JUMPDEST CALLER PUSH1 0x0 SWAP1 DUP2 MSTORE PUSH1 0x4 PUSH1 0x20 MSTORE PUSH1 0x40 SWAP1 KECCAK256 SLOAD PUSH1 0xFF AND PUSH2 0x14FB JUMPI PUSH1 0x40 MLOAD PUSH3 0x461BCD PUSH1 0xE5 SHL DUP2 MSTORE PUSH1 0x4 ADD PUSH2 0x68A SWAP1 PUSH2 0x1ECE JUMP JUMPDEST PUSH1 0x0 DUP3 MLOAD GT PUSH2 0x1542 JUMPI PUSH1 0x40 MLOAD PUSH3 0x461BCD PUSH1 0xE5 SHL DUP2 MSTORE PUSH1 0x20 PUSH1 0x4 DUP3 ADD MSTORE PUSH1 0x13 PUSH1 0x24 DUP3 ADD MSTORE PUSH19 0x4B65792063616E6E6F7420626520656D707479 PUSH1 0x68 SHL PUSH1 0x44 DUP3 ADD MSTORE PUSH1 0x64 ADD PUSH2 0x68A JUMP JUMPDEST PUSH1 0x9 DUP3 PUSH1 0x40 MLOAD PUSH2 0x1552 SWAP2 SWAP1 PUSH2 0x20A6 JUMP JUMPDEST SWAP1 DUP2 MSTORE PUSH1 0x20 ADD PUSH1 0x40 MLOAD DUP1 SWAP2 SUB SWAP1 KECCAK256 DUP1 SLOAD PUSH2 0x156B SWAP1 PUSH2 0x1F0F JUMP JUMPDEST SWAP1 POP PUSH1 0x0 SUB PUSH2 0x15B2 JUMPI PUSH1 0xB DUP1 SLOAD PUSH1 0x1 DUP2 ADD DUP3 SSTORE PUSH1 0x0 SWAP2 SWAP1 SWAP2 MSTORE PUSH32 0x175B7A638427703F0DBE7BB9BBF987A2551717B34E79F33B5B1008D1FA01DB9 ADD PUSH2 0x15B0 DUP4 DUP3 PUSH2 0x1F98 JUMP JUMPDEST POP JUMPDEST DUP1 PUSH1 0x9 DUP4 PUSH1 0x40 MLOAD PUSH2 0x15C3 SWAP2 SWAP1 PUSH2 0x20A6 JUMP JUMPDEST SWAP1 DUP2 MSTORE PUSH1 0x20 ADD PUSH1 0x40 MLOAD DUP1 SWAP2 SUB SWAP1 KECCAK256 SWAP1 DUP2 PUSH2 0x15DD SWAP2 SWAP1 PUSH2 0x1F98 JUMP JUMPDEST POP DUP2 PUSH1 0x40 MLOAD PUSH2 0x15EC SWAP2 SWAP1 PUSH2 0x20A6 JUMP JUMPDEST PUSH1 0x40 DUP1 MLOAD SWAP2 DUP3 SWAP1 SUB DUP3 KECCAK256 PUSH1 0x0 DUP4 MSTORE TIMESTAMP PUSH1 0x20 DUP5 ADD MSTORE SWAP2 PUSH32 0x590120A97FEA9EAE0AB7F73633C407E0D9F528198B43F5ADED24FC1641466744 SWAP2 ADD PUSH2 0x1241 JUMP JUMPDEST DUP1 MLOAD PUSH1 0x20 DUP2 DUP4 ADD DUP2 ADD DUP1 MLOAD PUSH1 0x8 DUP3 MSTORE SWAP3 DUP3 ADD SWAP2 SWAP1 SWAP4 ADD KECCAK256 SWAP2 MSTORE DUP1 SLOAD PUSH2 0x164D SWAP1 PUSH2 0x1F0F JUMP JUMPDEST DUP1 PUSH1 0x1F ADD PUSH1 0x20 DUP1 SWAP2 DIV MUL PUSH1 0x20 ADD PUSH1 0x40 MLOAD SWAP1 DUP2 ADD PUSH1 0x40 MSTORE DUP1 SWAP3 SWAP2 SWAP1 DUP2 DUP2 MSTORE PUSH1 0x20 ADD DUP3 DUP1 SLOAD PUSH2 0x1679 SWAP1 PUSH2 0x1F0F JUMP JUMPDEST DUP1 ISZERO PUSH2 0x16C6 JUMPI DUP1 PUSH1 0x1F LT PUSH2 0x169B JUMPI PUSH2 0x100 DUP1 DUP4 SLOAD DIV MUL DUP4 MSTORE SWAP2 PUSH1 0x20 ADD SWAP2 PUSH2 0x16C6 JUMP JUMPDEST DUP3 ADD SWAP2 SWAP1 PUSH1 0x0 MSTORE PUSH1 0x20 PUSH1 0x0 KECCAK256 SWAP1 JUMPDEST DUP2 SLOAD DUP2 MSTORE SWAP1 PUSH1 0x1 ADD SWAP1 PUSH1 0x20 ADD DUP1 DUP4 GT PUSH2 0x16A9 JUMPI DUP3 SWAP1 SUB PUSH1 0x1F AND DUP3 ADD SWAP2 JUMPDEST POP POP POP POP POP DUP2 JUMP JUMPDEST PUSH1 0x2 DUP1 SLOAD PUSH2 0x164D SWAP1 PUSH2 0x1F0F JUMP JUMPDEST CALLER PUSH1 0x0 SWAP1 DUP2 MSTORE PUSH1 0x4 PUSH1 0x20 MSTORE PUSH1 0x40 SWAP1 KECCAK256 SLOAD PUSH1 0x60 SWAP1 PUSH1 0xFF AND PUSH2 0x170D JUMPI PUSH1 0x40 MLOAD PUSH3 0x461BCD PUSH1 0xE5 SHL DUP2 MSTORE PUSH1 0x4 ADD PUSH2 0x68A SWAP1 PUSH2 0x1ECE JUMP JUMPDEST PUSH1 0x9 DUP3 PUSH1 0x40 MLOAD PUSH2 0x12B3 SWAP2 SWAP1 PUSH2 0x20A6 JUMP JUMPDEST SWAP2 SWAP1 POP JUMP JUMPDEST PUSH1 0x6 PUSH1 0x20 MSTORE PUSH1 0x0 SWAP1 DUP2 MSTORE PUSH1 0x40 SWAP1 KECCAK256 DUP1 SLOAD PUSH2 0x164D SWAP1 PUSH2 0x1F0F JUMP JUMPDEST CALLER PUSH1 0x0 SWAP1 DUP2 MSTORE PUSH1 0x4 PUSH1 0x20 MSTORE PUSH1 0x40 SWAP1 KECCAK256 SLOAD PUSH1 0xFF AND PUSH2 0x176A JUMPI PUSH1 0x40 MLOAD PUSH3 0x461BCD PUSH1 0xE5 SHL DUP2 MSTORE PUSH1 0x4 ADD PUSH2 0x68A SWAP1 PUSH2 0x1ECE JUMP JUMPDEST PUSH1 0x1 PUSH1 0x1 PUSH1 0xA0 SHL SUB DUP2 AND PUSH1 0x0 SWAP1 DUP2 MSTORE PUSH1 0x4 PUSH1 0x20 MSTORE PUSH1 0x40 SWAP1 KECCAK256 SLOAD PUSH1 0xFF AND PUSH2 0x17D2 JUMPI PUSH1 0x40 MLOAD PUSH3 0x461BCD PUSH1 0xE5 SHL DUP2 MSTORE PUSH1 0x20 PUSH1 0x4 DUP3 ADD MSTORE PUSH1 0x17 PUSH1 0x24 DUP3 ADD MSTORE PUSH32 0x5269766574206973206E6F7420617574686F72697A6564000000000000000000 PUSH1 0x44 DUP3 ADD MSTORE PUSH1 0x64 ADD PUSH2 0x68A JUMP JUMPDEST PUSH1 0x3 SLOAD PUSH1 0x1 LT PUSH2 0x1824 JUMPI PUSH1 0x40 MLOAD PUSH3 0x461BCD PUSH1 0xE5 SHL DUP2 MSTORE PUSH1 0x20 PUSH1 0x4 DUP3 ADD MSTORE PUSH1 0x1C PUSH1 0x24 DUP3 ADD MSTORE PUSH32 0x43616E6E6F742072656D6F766520746865206C61737420726976657400000000 PUSH1 0x44 DUP3 ADD MSTORE PUSH1 0x64 ADD PUSH2 0x68A JUMP JUMPDEST PUSH1 0x1 PUSH1 0x1 PUSH1 0xA0 SHL SUB DUP2 AND PUSH1 0x0 SWAP1 DUP2 MSTORE PUSH1 0x4 PUSH1 0x20 SWAP1 DUP2 MSTORE PUSH1 0x40 DUP1 DUP4 KECCAK256 DUP1 SLOAD PUSH1 0xFF NOT AND SWAP1 SSTORE PUSH1 0x5 DUP3 MSTORE DUP1 DUP4 KECCAK256 DUP4 SWAP1 SSTORE PUSH1 0x6 SWAP1 SWAP2 MSTORE DUP2 KECCAK256 PUSH2 0x1861 SWAP2 PUSH2 0x1B1F JUMP JUMPDEST PUSH1 0x0 JUMPDEST PUSH1 0x3 SLOAD DUP2 LT ISZERO PUSH2 0x195F JUMPI DUP2 PUSH1 0x1 PUSH1 0x1 PUSH1 0xA0 SHL SUB AND PUSH1 0x3 DUP3 DUP2 SLOAD DUP2 LT PUSH2 0x188B JUMPI PUSH2 0x188B PUSH2 0x2090 JUMP JUMPDEST PUSH1 0x0 SWAP2 DUP3 MSTORE PUSH1 0x20 SWAP1 SWAP2 KECCAK256 ADD SLOAD PUSH1 0x1 PUSH1 0x1 PUSH1 0xA0 SHL SUB AND SUB PUSH2 0x1957 JUMPI PUSH1 0x3 DUP1 SLOAD PUSH2 0x18B5 SWAP1 PUSH1 0x1 SWAP1 PUSH2 0x2140 JUMP JUMPDEST DUP2 SLOAD DUP2 LT PUSH2 0x18C5 JUMPI PUSH2 0x18C5 PUSH2 0x2090 JUMP JUMPDEST PUSH1 0x0 SWAP2 DUP3 MSTORE PUSH1 0x20 SWAP1 SWAP2 KECCAK256 ADD SLOAD PUSH1 0x3 DUP1 SLOAD PUSH1 0x1 PUSH1 0x1 PUSH1 0xA0 SHL SUB SWAP1 SWAP3 AND SWAP2 DUP4 SWAP1 DUP2 LT PUSH2 0x18F1 JUMPI PUSH2 0x18F1 PUSH2 0x2090 JUMP JUMPDEST SWAP1 PUSH1 0x0 MSTORE PUSH1 0x20 PUSH1 0x0 KECCAK256 ADD PUSH1 0x0 PUSH2 0x100 EXP DUP2 SLOAD DUP2 PUSH1 0x1 PUSH1 0x1 PUSH1 0xA0 SHL SUB MUL NOT AND SWAP1 DUP4 PUSH1 0x1 PUSH1 0x1 PUSH1 0xA0 SHL SUB AND MUL OR SWAP1 SSTORE POP PUSH1 0x3 DUP1 SLOAD DUP1 PUSH2 0x1930 JUMPI PUSH2 0x1930 PUSH2 0x223C JUMP JUMPDEST PUSH1 0x0 DUP3 DUP2 MSTORE PUSH1 0x20 SWAP1 KECCAK256 DUP2 ADD PUSH1 0x0 NOT SWAP1 DUP2 ADD DUP1 SLOAD PUSH1 0x1 PUSH1 0x1 PUSH1 0xA0 SHL SUB NOT AND SWAP1 SSTORE ADD SWAP1 SSTORE PUSH2 0x195F JUMP JUMPDEST PUSH1 0x1 ADD PUSH2 0x1864 JUMP JUMPDEST POP PUSH1 0x40 MLOAD TIMESTAMP DUP2 MSTORE CALLER SWAP1 PUSH1 0x1 PUSH1 0x1 PUSH1 0xA0 SHL SUB DUP4 AND SWAP1 PUSH32 0x214CA7EB2162518CECF5C43D751ED585B5BB748E5FE1EB8C81DDC6E39FF9C68E SWAP1 PUSH1 0x20 ADD PUSH1 0x40 MLOAD DUP1 SWAP2 SUB SWAP1 LOG3 POP JUMP JUMPDEST PUSH1 0x1 DUP1 SLOAD PUSH2 0x164D SWAP1 PUSH2 0x1F0F JUMP JUMPDEST PUSH1 0x0 SLOAD PUSH1 0x1 PUSH1 0x1 PUSH1 0xA0 SHL SUB AND CALLER EQ PUSH2 0x1A14 JUMPI PUSH1 0x40 MLOAD PUSH3 0x461BCD PUSH1 0xE5 SHL DUP2 MSTORE PUSH1 0x20 PUSH1 0x4 DUP3 ADD MSTORE PUSH1 0x21 PUSH1 0x24 DUP3 ADD MSTORE PUSH32 0x4F6E6C79206F776E65722063616E207472616E73666572206F776E6572736869 PUSH1 0x44 DUP3 ADD MSTORE PUSH1 0x7 PUSH1 0xFC SHL PUSH1 0x64 DUP3 ADD MSTORE PUSH1 0x84 ADD PUSH2 0x68A JUMP JUMPDEST PUSH1 0x1 PUSH1 0x1 PUSH1 0xA0 SHL SUB DUP2 AND PUSH2 0x1A6A JUMPI PUSH1 0x40 MLOAD PUSH3 0x461BCD PUSH1 0xE5 SHL DUP2 MSTORE PUSH1 0x20 PUSH1 0x4 DUP3 ADD DUP2 SWAP1 MSTORE PUSH1 0x24 DUP3 ADD MSTORE PUSH32 0x4E6577206F776E65722063616E6E6F74206265207A65726F2061646472657373 PUSH1 0x44 DUP3 ADD MSTORE PUSH1 0x64 ADD PUSH2 0x68A JUMP JUMPDEST PUSH1 0x0 SLOAD PUSH1 0x1 PUSH1 0x1 PUSH1 0xA0 SHL SUB SWAP1 DUP2 AND SWAP1 DUP3 AND SUB PUSH2 0x1AC8 JUMPI PUSH1 0x40 MLOAD PUSH3 0x461BCD PUSH1 0xE5 SHL DUP2 MSTORE PUSH1 0x20 PUSH1 0x4 DUP3 ADD MSTORE PUSH1 0x17 PUSH1 0x24 DUP3 ADD MSTORE PUSH32 0x43616E6E6F74207472616E7366657220746F2073656C66000000000000000000 PUSH1 0x44 DUP3 ADD MSTORE PUSH1 0x64 ADD PUSH2 0x68A JUMP JUMPDEST PUSH1 0x0 DUP1 SLOAD PUSH1 0x1 PUSH1 0x1 PUSH1 0xA0 SHL SUB DUP4 DUP2 AND PUSH1 0x1 PUSH1 0x1 PUSH1 0xA0 SHL SUB NOT DUP4 AND DUP2 OR SWAP1 SWAP4 SSTORE PUSH1 0x40 MLOAD SWAP2 AND SWAP2 SWAP1 DUP3 SWAP1 PUSH32 0xC13A1166D81CD3B0B352A367AEBAB95F3A6F6BC695FDAB8E9A9D335239C3861B SWAP1 PUSH2 0xCD5 SWAP1 TIMESTAMP DUP2 MSTORE PUSH1 0x20 ADD SWAP1 JUMP JUMPDEST POP DUP1 SLOAD PUSH2 0x1B2B SWAP1 PUSH2 0x1F0F JUMP JUMPDEST PUSH1 0x0 DUP3 SSTORE DUP1 PUSH1 0x1F LT PUSH2 0x1B3B JUMPI POP POP JUMP JUMPDEST PUSH1 0x1F ADD PUSH1 0x20 SWAP1 DIV SWAP1 PUSH1 0x0 MSTORE PUSH1 0x20 PUSH1 0x0 KECCAK256 SWAP1 DUP2 ADD SWAP1 PUSH2 0x1B59 SWAP2 SWAP1 PUSH2 0x1B5C JUMP JUMPDEST POP JUMP JUMPDEST JUMPDEST DUP1 DUP3 GT ISZERO PUSH2 0x1B71 JUMPI PUSH1 0x0 DUP2 SSTORE PUSH1 0x1 ADD PUSH2 0x1B5D JUMP JUMPDEST POP SWAP1 JUMP JUMPDEST PUSH4 0x4E487B71 PUSH1 0xE0 SHL PUSH1 0x0 MSTORE PUSH1 0x41 PUSH1 0x4 MSTORE PUSH1 0x24 PUSH1 0x0 REVERT JUMPDEST PUSH1 0x0 DUP3 PUSH1 0x1F DUP4 ADD SLT PUSH2 0x1B9C JUMPI PUSH1 0x0 DUP1 REVERT JUMPDEST DUP2 CALLDATALOAD PUSH8 0xFFFFFFFFFFFFFFFF DUP2 GT ISZERO PUSH2 0x1BB6 JUMPI PUSH2 0x1BB6 PUSH2 0x1B75 JUMP JUMPDEST PUSH1 0x40 MLOAD PUSH1 0x1F DUP3 ADD PUSH1 0x1F NOT SWAP1 DUP2 AND PUSH1 0x3F ADD AND DUP2 ADD PUSH8 0xFFFFFFFFFFFFFFFF DUP2 GT DUP3 DUP3 LT OR ISZERO PUSH2 0x1BE5 JUMPI PUSH2 0x1BE5 PUSH2 0x1B75 JUMP JUMPDEST PUSH1 0x40 MSTORE DUP2 DUP2 MSTORE DUP4 DUP3 ADD PUSH1 0x20 ADD DUP6 LT ISZERO PUSH2 0x1BFD JUMPI PUSH1 0x0 DUP1 REVERT JUMPDEST DUP2 PUSH1 0x20 DUP6 ADD PUSH1 0x20 DUP4 ADD CALLDATACOPY PUSH1 0x0 SWAP2 DUP2 ADD PUSH1 0x20 ADD SWAP2 SWAP1 SWAP2 MSTORE SWAP4 SWAP3 POP POP POP JUMP JUMPDEST PUSH1 0x0 PUSH1 0x20 DUP3 DUP5 SUB SLT ISZERO PUSH2 0x1C2C JUMPI PUSH1 0x0 DUP1 REVERT JUMPDEST DUP2 CALLDATALOAD PUSH8 0xFFFFFFFFFFFFFFFF DUP2 GT ISZERO PUSH2 0x1C43 JUMPI PUSH1 0x0 DUP1 REVERT JUMPDEST PUSH2 0x1C4F DUP5 DUP3 DUP6 ADD PUSH2 0x1B8B JUMP JUMPDEST SWAP5 SWAP4 POP POP POP POP JUMP JUMPDEST PUSH1 0x0 DUP2 MLOAD DUP1 DUP5 MSTORE PUSH1 0x20 DUP5 ADD SWAP4 POP PUSH1 0x20 DUP4 ADD PUSH1 0x0 JUMPDEST DUP3 DUP2 LT ISZERO PUSH2 0x1C92 JUMPI DUP2 MLOAD PUSH1 0x1 PUSH1 0x1 PUSH1 0xA0 SHL SUB AND DUP7 MSTORE PUSH1 0x20 SWAP6 DUP7 ADD SWAP6 SWAP1 SWAP2 ADD SWAP1 PUSH1 0x1 ADD PUSH2 0x1C6B JUMP JUMPDEST POP SWAP4 SWAP5 SWAP4 POP POP POP POP JUMP JUMPDEST PUSH1 0x20 DUP2 MSTORE PUSH1 0x0 PUSH2 0x1CAF PUSH1 0x20 DUP4 ADD DUP5 PUSH2 0x1C57 JUMP JUMPDEST SWAP4 SWAP3 POP POP POP JUMP JUMPDEST PUSH1 0x0 JUMPDEST DUP4 DUP2 LT ISZERO PUSH2 0x1CD1 JUMPI DUP2 DUP2 ADD MLOAD DUP4 DUP3 ADD MSTORE PUSH1 0x20 ADD PUSH2 0x1CB9 JUMP JUMPDEST POP POP PUSH1 0x0 SWAP2 ADD MSTORE JUMP JUMPDEST PUSH1 0x0 DUP2 MLOAD DUP1 DUP5 MSTORE PUSH2 0x1CF2 DUP2 PUSH1 0x20 DUP7 ADD PUSH1 0x20 DUP7 ADD PUSH2 0x1CB6 JUMP JUMPDEST PUSH1 0x1F ADD PUSH1 0x1F NOT AND SWAP3 SWAP1 SWAP3 ADD PUSH1 0x20 ADD SWAP3 SWAP2 POP POP JUMP JUMPDEST PUSH1 0x0 DUP3 DUP3 MLOAD DUP1 DUP6 MSTORE PUSH1 0x20 DUP6 ADD SWAP5 POP PUSH1 0x20 DUP2 PUSH1 0x5 SHL DUP4 ADD ADD PUSH1 0x20 DUP6 ADD PUSH1 0x0 JUMPDEST DUP4 DUP2 LT ISZERO PUSH2 0x1D56 JUMPI PUSH1 0x1F NOT DUP6 DUP5 SUB ADD DUP9 MSTORE PUSH2 0x1D40 DUP4 DUP4 MLOAD PUSH2 0x1CDA JUMP JUMPDEST PUSH1 0x20 SWAP9 DUP10 ADD SWAP9 SWAP1 SWAP4 POP SWAP2 SWAP1 SWAP2 ADD SWAP1 PUSH1 0x1 ADD PUSH2 0x1D24 JUMP JUMPDEST POP SWAP1 SWAP7 SWAP6 POP POP POP POP POP POP JUMP JUMPDEST PUSH1 0x20 DUP2 MSTORE PUSH1 0x0 PUSH2 0x1CAF PUSH1 0x20 DUP4 ADD DUP5 PUSH2 0x1D06 JUMP JUMPDEST PUSH1 0x0 PUSH1 0x20 DUP3 DUP5 SUB SLT ISZERO PUSH2 0x1D87 JUMPI PUSH1 0x0 DUP1 REVERT JUMPDEST POP CALLDATALOAD SWAP2 SWAP1 POP JUMP JUMPDEST DUP1 CALLDATALOAD PUSH1 0x1 PUSH1 0x1 PUSH1 0xA0 SHL SUB DUP2 AND DUP2 EQ PUSH2 0x171D JUMPI PUSH1 0x0 DUP1 REVERT JUMPDEST PUSH1 0x0 DUP1 PUSH1 0x40 DUP4 DUP6 SUB SLT ISZERO PUSH2 0x1DB8 JUMPI PUSH1 0x0 DUP1 REVERT JUMPDEST PUSH2 0x1DC1 DUP4 PUSH2 0x1D8E JUMP JUMPDEST SWAP2 POP PUSH1 0x20 DUP4 ADD CALLDATALOAD PUSH8 0xFFFFFFFFFFFFFFFF DUP2 GT ISZERO PUSH2 0x1DDD JUMPI PUSH1 0x0 DUP1 REVERT JUMPDEST PUSH2 0x1DE9 DUP6 DUP3 DUP7 ADD PUSH2 0x1B8B JUMP JUMPDEST SWAP2 POP POP SWAP3 POP SWAP3 SWAP1 POP JUMP JUMPDEST PUSH1 0x40 DUP2 MSTORE PUSH1 0x0 PUSH2 0x1E06 PUSH1 0x40 DUP4 ADD DUP6 PUSH2 0x1C57 JUMP JUMPDEST DUP3 DUP2 SUB PUSH1 0x20 DUP5 ADD MSTORE PUSH2 0x1E18 DUP2 DUP6 PUSH2 0x1D06 JUMP JUMPDEST SWAP6 SWAP5 POP POP POP POP POP JUMP JUMPDEST PUSH1 0x0 PUSH1 0x20 DUP3 DUP5 SUB SLT ISZERO PUSH2 0x1E33 JUMPI PUSH1 0x0 DUP1 REVERT JUMPDEST PUSH2 0x1CAF DUP3 PUSH2 0x1D8E JUMP JUMPDEST PUSH1 0x0 DUP1 PUSH1 0x40 DUP4 DUP6 SUB SLT ISZERO PUSH2 0x1E4F JUMPI PUSH1 0x0 DUP1 REVERT JUMPDEST DUP3 CALLDATALOAD PUSH8 0xFFFFFFFFFFFFFFFF DUP2 GT ISZERO PUSH2 0x1E66 JUMPI PUSH1 0x0 DUP1 REVERT JUMPDEST PUSH2 0x1E72 DUP6 DUP3 DUP7 ADD PUSH2 0x1B8B JUMP JUMPDEST SWAP3 POP POP PUSH1 0x20 DUP4 ADD CALLDATALOAD PUSH8 0xFFFFFFFFFFFFFFFF DUP2 GT ISZERO PUSH2 0x1DDD JUMPI PUSH1 0x0 DUP1 REVERT JUMPDEST PUSH1 0x20 DUP2 MSTORE PUSH1 0x0 PUSH2 0x1CAF PUSH1 0x20 DUP4 ADD DUP5 PUSH2 0x1CDA JUMP JUMPDEST PUSH1 0x0 DUP1 PUSH1 0x0 PUSH1 0x60 DUP5 DUP7 SUB SLT ISZERO PUSH2 0x1EB7 JUMPI PUSH1 0x0 DUP1 REVERT JUMPDEST POP POP DUP2 CALLDATALOAD SWAP4 PUSH1 0x20 DUP4 ADD CALLDATALOAD SWAP4 POP PUSH1 0x40 SWAP1 SWAP3 ADD CALLDATALOAD SWAP2 SWAP1 POP JUMP JUMPDEST PUSH1 0x20 DUP1 DUP3 MSTORE PUSH1 0x21 SWAP1 DUP3 ADD MSTORE PUSH32 0x43616C6C6572206973206E6F7420616E20617574686F72697A65642072697665 PUSH1 0x40 DUP3 ADD MSTORE PUSH1 0x1D PUSH1 0xFA SHL PUSH1 0x60 DUP3 ADD MSTORE PUSH1 0x80 ADD SWAP1 JUMP JUMPDEST PUSH1 0x1 DUP2 DUP2 SHR SWAP1 DUP3 AND DUP1 PUSH2 0x1F23 JUMPI PUSH1 0x7F DUP3 AND SWAP2 POP JUMPDEST PUSH1 0x20 DUP3 LT DUP2 SUB PUSH2 0x1F43 JUMPI PUSH4 0x4E487B71 PUSH1 0xE0 SHL PUSH1 0x0 MSTORE PUSH1 0x22 PUSH1 0x4 MSTORE PUSH1 0x24 PUSH1 0x0 REVERT JUMPDEST POP SWAP2 SWAP1 POP JUMP JUMPDEST PUSH1 0x1F DUP3 GT ISZERO PUSH2 0x1F93 JUMPI DUP1 PUSH1 0x0 MSTORE PUSH1 0x20 PUSH1 0x0 KECCAK256 PUSH1 0x1F DUP5 ADD PUSH1 0x5 SHR DUP2 ADD PUSH1 0x20 DUP6 LT ISZERO PUSH2 0x1F70 JUMPI POP DUP1 JUMPDEST PUSH1 0x1F DUP5 ADD PUSH1 0x5 SHR DUP3 ADD SWAP2 POP JUMPDEST DUP2 DUP2 LT ISZERO PUSH2 0x1F90 JUMPI PUSH1 0x0 DUP2 SSTORE PUSH1 0x1 ADD PUSH2 0x1F7C JUMP JUMPDEST POP POP JUMPDEST POP POP POP JUMP JUMPDEST DUP2 MLOAD PUSH8 0xFFFFFFFFFFFFFFFF DUP2 GT ISZERO PUSH2 0x1FB2 JUMPI PUSH2 0x1FB2 PUSH2 0x1B75 JUMP JUMPDEST PUSH2 0x1FC6 DUP2 PUSH2 0x1FC0 DUP5 SLOAD PUSH2 0x1F0F JUMP JUMPDEST DUP5 PUSH2 0x1F49 JUMP JUMPDEST PUSH1 0x20 PUSH1 0x1F DUP3 GT PUSH1 0x1 DUP2 EQ PUSH2 0x1FFD JUMPI PUSH1 0x0 DUP4 ISZERO PUSH2 0x1FE2 JUMPI POP DUP5 DUP3 ADD MLOAD JUMPDEST PUSH1 0x1 DUP5 SWAP1 SHL PUSH1 0x0 NOT PUSH1 0x3 DUP7 SWAP1 SHL SHR NOT DUP3 AND OR JUMPDEST DUP6 SSTORE POP PUSH2 0x1F90 JUMP JUMPDEST PUSH1 0x0 DUP5 DUP2 MSTORE PUSH1 0x20 DUP2 KECCAK256 PUSH1 0x1F NOT DUP6 AND SWAP2 JUMPDEST DUP3 DUP2 LT ISZERO PUSH2 0x202D JUMPI DUP8 DUP6 ADD MLOAD DUP3 SSTORE PUSH1 0x20 SWAP5 DUP6 ADD SWAP5 PUSH1 0x1 SWAP1 SWAP3 ADD SWAP2 ADD PUSH2 0x200D JUMP JUMPDEST POP DUP5 DUP3 LT ISZERO PUSH2 0x204B JUMPI DUP7 DUP5 ADD MLOAD PUSH1 0x0 NOT PUSH1 0x3 DUP8 SWAP1 SHL PUSH1 0xF8 AND SHR NOT AND DUP2 SSTORE JUMPDEST POP POP POP POP PUSH1 0x1 SWAP1 DUP2 SHL ADD SWAP1 SSTORE POP JUMP JUMPDEST PUSH1 0x60 DUP2 MSTORE PUSH1 0x0 PUSH2 0x206D PUSH1 0x60 DUP4 ADD DUP7 PUSH2 0x1CDA JUMP JUMPDEST DUP3 DUP2 SUB PUSH1 0x20 DUP5 ADD MSTORE PUSH2 0x207F DUP2 DUP7 PUSH2 0x1CDA JUMP JUMPDEST SWAP2 POP POP DUP3 PUSH1 0x40 DUP4 ADD MSTORE SWAP5 SWAP4 POP POP POP POP JUMP JUMPDEST PUSH4 0x4E487B71 PUSH1 0xE0 SHL PUSH1 0x0 MSTORE PUSH1 0x32 PUSH1 0x4 MSTORE PUSH1 0x24 PUSH1 0x0 REVERT JUMPDEST PUSH1 0x0 DUP3 MLOAD PUSH2 0x20B8 DUP2 DUP5 PUSH1 0x20 DUP8 ADD PUSH2 0x1CB6 JUMP JUMPDEST SWAP2 SWAP1 SWAP2 ADD SWAP3 SWAP2 POP POP JUMP JUMPDEST PUSH1 0x0 DUP2 SLOAD PUSH2 0x20CF DUP2 PUSH2 0x1F0F JUMP JUMPDEST PUSH1 0x1 DUP3 AND DUP1 ISZERO PUSH2 0x20E6 JUMPI PUSH1 0x1 DUP2 EQ PUSH2 0x20FB JUMPI PUSH2 0x212B JUMP JUMPDEST PUSH1 0xFF NOT DUP4 AND DUP7 MSTORE DUP2 ISZERO ISZERO DUP3 MUL DUP7 ADD SWAP4 POP PUSH2 0x212B JUMP JUMPDEST DUP5 PUSH1 0x0 MSTORE PUSH1 0x20 PUSH1 0x0 KECCAK256 PUSH1 0x0 JUMPDEST DUP4 DUP2 LT ISZERO PUSH2 0x2123 JUMPI DUP2 SLOAD DUP9 DUP3 ADD MSTORE PUSH1 0x1 SWAP1 SWAP2 ADD SWAP1 PUSH1 0x20 ADD PUSH2 0x2107 JUMP JUMPDEST POP POP DUP2 DUP7 ADD SWAP4 POP JUMPDEST POP POP POP SWAP3 SWAP2 POP POP JUMP JUMPDEST PUSH1 0x0 PUSH2 0x1CAF DUP3 DUP5 PUSH2 0x20C2 JUMP JUMPDEST DUP2 DUP2 SUB DUP2 DUP2 GT ISZERO PUSH2 0x2161 JUMPI PUSH4 0x4E487B71 PUSH1 0xE0 SHL PUSH1 0x0 MSTORE PUSH1 0x11 PUSH1 0x4 MSTORE PUSH1 0x24 PUSH1 0x0 REVERT JUMPDEST SWAP3 SWAP2 POP POP JUMP JUMPDEST DUP2 DUP2 SUB PUSH2 0x2172 JUMPI POP POP JUMP JUMPDEST PUSH2 0x217C DUP3 SLOAD PUSH2 0x1F0F JUMP JUMPDEST PUSH8 0xFFFFFFFFFFFFFFFF DUP2 GT ISZERO PUSH2 0x2194 JUMPI PUSH2 0x2194 PUSH2 0x1B75 JUMP JUMPDEST PUSH2 0x21A2 DUP2 PUSH2 0x1FC0 DUP5 SLOAD PUSH2 0x1F0F JUMP JUMPDEST PUSH1 0x0 PUSH1 0x1F DUP3 GT PUSH1 0x1 DUP2 EQ PUSH2 0x21D4 JUMPI PUSH1 0x0 DUP4 ISZERO PUSH2 0x1FE2 JUMPI POP DUP2 DUP6 ADD SLOAD PUSH1 0x1 DUP5 SWAP1 SHL PUSH1 0x0 NOT PUSH1 0x3 DUP7 SWAP1 SHL SHR NOT DUP3 AND OR PUSH2 0x1FF5 JUMP JUMPDEST PUSH1 0x0 DUP6 DUP2 MSTORE PUSH1 0x20 SWAP1 KECCAK256 PUSH1 0x1F NOT DUP5 AND SWAP1 PUSH1 0x0 DUP7 DUP2 MSTORE PUSH1 0x20 SWAP1 KECCAK256 DUP5 JUMPDEST DUP4 DUP2 LT ISZERO PUSH2 0x220E JUMPI DUP3 DUP7 ADD SLOAD DUP3 SSTORE PUSH1 0x1 SWAP6 DUP7 ADD SWAP6 SWAP1 SWAP2 ADD SWAP1 PUSH1 0x20 ADD PUSH2 0x21EE JUMP JUMPDEST POP DUP6 DUP4 LT ISZERO PUSH2 0x222C JUMPI DUP2 DUP6 ADD SLOAD PUSH1 0x0 NOT PUSH1 0x3 DUP9 SWAP1 SHL PUSH1 0xF8 AND SHR NOT AND DUP2 SSTORE JUMPDEST POP POP POP POP POP PUSH1 0x1 SWAP1 DUP2 SHL ADD SWAP1 SSTORE POP JUMP JUMPDEST PUSH4 0x4E487B71 PUSH1 0xE0 SHL PUSH1 0x0 MSTORE PUSH1 0x31 PUSH1 0x4 MSTORE PUSH1 0x24 PUSH1 0x0 REVERT JUMPDEST PUSH1 0x40 DUP2 MSTORE PUSH1 0x0 PUSH2 0x2265 PUSH1 0x40 DUP4 ADD DUP6 PUSH2 0x1CDA JUMP JUMPDEST SWAP1 POP DUP3 PUSH1 0x20 DUP4 ADD MSTORE SWAP4 SWAP3 POP POP POP JUMP JUMPDEST PUSH1 0x0 PUSH2 0x2280 DUP3 DUP6 PUSH2 0x20C2 JUMP JUMPDEST PUSH1 0x17 PUSH1 0xF9 SHL DUP2 MSTORE PUSH2 0x1E18 PUSH1 0x1 DUP3 ADD DUP6 PUSH2 0x20C2 JUMP INVALID LOG2 PUSH5 0x6970667358 0x22 SLT KECCAK256 0xE6 SUB MULMOD SELFBALANCE COINBASE 0xB8 0x27 DUP5 CALL 0xF8 0xCB SELFDESTRUCT SWAP15 0xB7 0xAD SAR 0xC1 KECCAK256 0xDD CREATE 0xF7 LT SHL MUL 0xBF EXTCODECOPY 0xA5 0x24 0xF8 CALLDATACOPY POP SWAP10 PUSH5 0x736F6C6343 STOP ADDMOD SHL STOP CALLER "},"methodIdentifiers":{"VERSION()":"ffa1ad74","addRivet(address,string)":"4de4964d","deletePrivateAttribute(string)":"48205521","deletePublicAttribute(string)":"7f344c16","domain()":"c2fb26a6","getBalance()":"12065fe0","getFullName()":"8c160186","getMaxNotabotScore()":"2734f5bd","getNotabotScore(address)":"83dff3a7","getPrivateAttribute(string)":"ca239d4b","getPrivateAttributeKeys()":"294c9921","getPublicAttribute(string)":"8f033c85","getPublicAttributeKeys()":"57fca407","getRivetCount()":"959ed9a1","getRivets()":"212f3287","getRivetsWithNames()":"64913865","identityName()":"f0aaf370","isAuthorized(address)":"fe9fbb80","notabotScores(address)":"f913f7f7","owner()":"8da5cb5b","publicAttributes(string)":"bae067b3","removeRivet(address)":"e1c76c24","rivetAddedAt(address)":"ba637c29","rivetNames(address)":"e1556760","setPrivateAttribute(string,string)":"aa2285a5","setPublicAttribute(string,string)":"898c2d7b","transferOwnership(address)":"f2fde38b","updateIdentityName(string)":"058a258e","updateNotabotScore(uint256,bytes32,uint256)":"956f893b","withdraw(uint256)":"2e1a7d4d"}}}}}