{
  "_format": "hh-sol-artifact-1",
  "contractName": "IdentityContract",
  "sourceName": "contracts/IdentityContract.sol",
  "abi": [
    {
      "inputs": [
        {
          "internalType": "string",
          "name": "_name",
          "type": "string"
        },
        {
          "internalType": "string",
          "name": "_domain",
          "type": "string"
        }
      ],
      "stateMutability": "nonpayable",
      "type": "constructor"
    },
    {
      "anonymous": false,
      "inputs": [
        {
          "indexed": true,
          "internalType": "string",
          "name": "key",
          "type": "string"
        },
        {
          "indexed": false,
          "internalType": "bool",
          "name": "isPublic",
          "type": "bool"
        },
        {
          "indexed": false,
          "internalType": "uint256",
          "name": "timestamp",
          "type": "uint256"
        }
      ],
      "name": "AttributeSet",
      "type": "event"
    },
    {
      "anonymous": false,
      "inputs": [
        {
          "indexed": true,
          "internalType": "address",
          "name": "owner",
          "type": "address"
        },
        {
          "indexed": true,
          "internalType": "address",
          "name": "firstRivet",
          "type": "address"
        },
        {
          "indexed": false,
          "internalType": "string",
          "name": "name",
          "type": "string"
        },
        {
          "indexed": false,
          "internalType": "string",
          "name": "domain",
          "type": "string"
        },
        {
          "indexed": false,
          "internalType": "uint256",
          "name": "timestamp",
          "type": "uint256"
        }
      ],
      "name": "IdentityCreated",
      "type": "event"
    },
    {
      "anonymous": false,
      "inputs": [
        {
          "indexed": false,
          "internalType": "string",
          "name": "oldName",
          "type": "string"
        },
        {
          "indexed": false,
          "internalType": "string",
          "name": "newName",
          "type": "string"
        },
        {
          "indexed": false,
          "internalType": "uint256",
          "name": "timestamp",
          "type": "uint256"
        }
      ],
      "name": "IdentityNameUpdated",
      "type": "event"
    },
    {
      "anonymous": false,
      "inputs": [
        {
          "indexed": true,
          "internalType": "address",
          "name": "rivet",
          "type": "address"
        },
        {
          "indexed": false,
          "internalType": "uint256",
          "name": "points",
          "type": "uint256"
        },
        {
          "indexed": false,
          "internalType": "uint256",
          "name": "eventCount",
          "type": "uint256"
        },
        {
          "indexed": false,
          "internalType": "uint256",
          "name": "timestamp",
          "type": "uint256"
        }
      ],
      "name": "NotabotScoreUpdated",
      "type": "event"
    },
    {
      "anonymous": false,
      "inputs": [
        {
          "indexed": true,
          "internalType": "address",
          "name": "previousOwner",
          "type": "address"
        },
        {
          "indexed": true,
          "internalType": "address",
          "name": "newOwner",
          "type": "address"
        },
        {
          "indexed": false,
          "internalType": "uint256",
          "name": "timestamp",
          "type": "uint256"
        }
      ],
      "name": "OwnershipTransferred",
      "type": "event"
    },
    {
      "anonymous": false,
      "inputs": [
        {
          "indexed": true,
          "internalType": "address",
          "name": "rivet",
          "type": "address"
        },
        {
          "indexed": true,
          "internalType": "address",
          "name": "addedBy",
          "type": "address"
        },
        {
          "indexed": false,
          "internalType": "string",
          "name": "name",
          "type": "string"
        },
        {
          "indexed": false,
          "internalType": "uint256",
          "name": "timestamp",
          "type": "uint256"
        }
      ],
      "name": "RivetAdded",
      "type": "event"
    },
    {
      "anonymous": false,
      "inputs": [
        {
          "indexed": true,
          "internalType": "address",
          "name": "rivet",
          "type": "address"
        },
        {
          "indexed": true,
          "internalType": "address",
          "name": "removedBy",
          "type": "address"
        },
        {
          "indexed": false,
          "internalType": "uint256",
          "name": "timestamp",
          "type": "uint256"
        }
      ],
      "name": "RivetRemoved",
      "type": "event"
    },
    {
      "inputs": [],
      "name": "VERSION",
      "outputs": [
        {
          "internalType": "string",
          "name": "",
          "type": "string"
        }
      ],
      "stateMutability": "view",
      "type": "function"
    },
    {
      "inputs": [
        {
          "internalType": "address",
          "name": "rivet",
          "type": "address"
        },
        {
          "internalType": "string",
          "name": "name",
          "type": "string"
        }
      ],
      "name": "addRivet",
      "outputs": [],
      "stateMutability": "nonpayable",
      "type": "function"
    },
    {
      "inputs": [
        {
          "internalType": "string",
          "name": "key",
          "type": "string"
        }
      ],
      "name": "deletePrivateAttribute",
      "outputs": [],
      "stateMutability": "nonpayable",
      "type": "function"
    },
    {
      "inputs": [
        {
          "internalType": "string",
          "name": "key",
          "type": "string"
        }
      ],
      "name": "deletePublicAttribute",
      "outputs": [],
      "stateMutability": "nonpayable",
      "type": "function"
    },
    {
      "inputs": [],
      "name": "domain",
      "outputs": [
        {
          "internalType": "string",
          "name": "",
          "type": "string"
        }
      ],
      "stateMutability": "view",
      "type": "function"
    },
    {
      "inputs": [],
      "name": "getBalance",
      "outputs": [
        {
          "internalType": "uint256",
          "name": "",
          "type": "uint256"
        }
      ],
      "stateMutability": "view",
      "type": "function"
    },
    {
      "inputs": [],
      "name": "getFullName",
      "outputs": [
        {
          "internalType": "string",
          "name": "",
          "type": "string"
        }
      ],
      "stateMutability": "view",
      "type": "function"
    },
    {
      "inputs": [],
      "name": "getMaxNotabotScore",
      "outputs": [
        {
          "internalType": "uint256",
          "name": "maxPoints",
          "type": "uint256"
        },
        {
          "internalType": "address",
          "name": "maxRivet",
          "type": "address"
        }
      ],
      "stateMutability": "view",
      "type": "function"
    },
    {
      "inputs": [
        {
          "internalType": "address",
          "name": "rivet",
          "type": "address"
        }
      ],
      "name": "getNotabotScore",
      "outputs": [
        {
          "components": [
            {
              "internalType": "uint256",
              "name": "totalPoints",
              "type": "uint256"
            },
            {
              "internalType": "bytes32",
              "name": "chainHead",
              "type": "bytes32"
            },
            {
              "internalType": "uint256",
              "name": "eventCount",
              "type": "uint256"
            },
            {
              "internalType": "uint256",
              "name": "lastUpdate",
              "type": "uint256"
            }
          ],
          "internalType": "struct IdentityContract.NotabotCommitment",
          "name": "commitment",
          "type": "tuple"
        }
      ],
      "stateMutability": "view",
      "type": "function"
    },
    {
      "inputs": [
        {
          "internalType": "string",
          "name": "key",
          "type": "string"
        }
      ],
      "name": "getPrivateAttribute",
      "outputs": [
        {
          "internalType": "string",
          "name": "",
          "type": "string"
        }
      ],
      "stateMutability": "view",
      "type": "function"
    },
    {
      "inputs": [],
      "name": "getPrivateAttributeKeys",
      "outputs": [
        {
          "internalType": "string[]",
          "name": "",
          "type": "string[]"
        }
      ],
      "stateMutability": "view",
      "type": "function"
    },
    {
      "inputs": [
        {
          "internalType": "string",
          "name": "key",
          "type": "string"
        }
      ],
      "name": "getPublicAttribute",
      "outputs": [
        {
          "internalType": "string",
          "name": "",
          "type": "string"
        }
      ],
      "stateMutability": "view",
      "type": "function"
    },
    {
      "inputs": [],
      "name": "getPublicAttributeKeys",
      "outputs": [
        {
          "internalType": "string[]",
          "name": "",
          "type": "string[]"
        }
      ],
      "stateMutability": "view",
      "type": "function"
    },
    {
      "inputs": [],
      "name": "getRivetCount",
      "outputs": [
        {
          "internalType": "uint256",
          "name": "",
          "type": "uint256"
        }
      ],
      "stateMutability": "view",
      "type": "function"
    },
    {
      "inputs": [],
      "name": "getRivets",
      "outputs": [
        {
          "internalType": "address[]",
          "name": "",
          "type": "address[]"
        }
      ],
      "stateMutability": "view",
      "type": "function"
    },
    {
      "inputs": [],
      "name": "getRivetsWithNames",
      "outputs": [
        {
          "internalType": "address[]",
          "name": "addresses",
          "type": "address[]"
        },
        {
          "internalType": "string[]",
          "name": "names",
          "type": "string[]"
        }
      ],
      "stateMutability": "view",
      "type": "function"
    },
    {
      "inputs": [],
      "name": "identityName",
      "outputs": [
        {
          "internalType": "string",
          "name": "",
          "type": "string"
        }
      ],
      "stateMutability": "view",
      "type": "function"
    },
    {
      "inputs": [
        {
          "internalType": "address",
          "name": "",
          "type": "address"
        }
      ],
      "name": "isAuthorized",
      "outputs": [
        {
          "internalType": "bool",
          "name": "",
          "type": "bool"
        }
      ],
      "stateMutability": "view",
      "type": "function"
    },
    {
      "inputs": [
        {
          "internalType": "address",
          "name": "",
          "type": "address"
        }
      ],
      "name": "notabotScores",
      "outputs": [
        {
          "internalType": "uint256",
          "name": "totalPoints",
          "type": "uint256"
        },
        {
          "internalType": "bytes32",
          "name": "chainHead",
          "type": "bytes32"
        },
        {
          "internalType": "uint256",
          "name": "eventCount",
          "type": "uint256"
        },
        {
          "internalType": "uint256",
          "name": "lastUpdate",
          "type": "uint256"
        }
      ],
      "stateMutability": "view",
      "type": "function"
    },
    {
      "inputs": [],
      "name": "owner",
      "outputs": [
        {
          "internalType": "address",
          "name": "",
          "type": "address"
        }
      ],
      "stateMutability": "view",
      "type": "function"
    },
    {
      "inputs": [
        {
          "internalType": "string",
          "name": "",
          "type": "string"
        }
      ],
      "name": "publicAttributes",
      "outputs": [
        {
          "internalType": "string",
          "name": "",
          "type": "string"
        }
      ],
      "stateMutability": "view",
      "type": "function"
    },
    {
      "inputs": [
        {
          "internalType": "address",
          "name": "rivet",
          "type": "address"
        }
      ],
      "name": "removeRivet",
      "outputs": [],
      "stateMutability": "nonpayable",
      "type": "function"
    },
    {
      "inputs": [
        {
          "internalType": "address",
          "name": "",
          "type": "address"
        }
      ],
      "name": "rivetAddedAt",
      "outputs": [
        {
          "internalType": "uint256",
          "name": "",
          "type": "uint256"
        }
      ],
      "stateMutability": "view",
      "type": "function"
    },
    {
      "inputs": [
        {
          "internalType": "address",
          "name": "",
          "type": "address"
        }
      ],
      "name": "rivetNames",
      "outputs": [
        {
          "internalType": "string",
          "name": "",
          "type": "string"
        }
      ],
      "stateMutability": "view",
      "type": "function"
    },
    {
      "inputs": [
        {
          "internalType": "string",
          "name": "key",
          "type": "string"
        },
        {
          "internalType": "string",
          "name": "value",
          "type": "string"
        }
      ],
      "name": "setPrivateAttribute",
      "outputs": [],
      "stateMutability": "nonpayable",
      "type": "function"
    },
    {
      "inputs": [
        {
          "internalType": "string",
          "name": "key",
          "type": "string"
        },
        {
          "internalType": "string",
          "name": "value",
          "type": "string"
        }
      ],
      "name": "setPublicAttribute",
      "outputs": [],
      "stateMutability": "nonpayable",
      "type": "function"
    },
    {
      "inputs": [
        {
          "internalType": "address",
          "name": "newOwner",
          "type": "address"
        }
      ],
      "name": "transferOwnership",
      "outputs": [],
      "stateMutability": "nonpayable",
      "type": "function"
    },
    {
      "inputs": [
        {
          "internalType": "string",
          "name": "newName",
          "type": "string"
        }
      ],
      "name": "updateIdentityName",
      "outputs": [],
      "stateMutability": "nonpayable",
      "type": "function"
    },
    {
      "inputs": [
        {
          "internalType": "uint256",
          "name": "points",
          "type": "uint256"
        },
        {
          "internalType": "bytes32",
          "name": "chainHead",
          "type": "bytes32"
        },
        {
          "internalType": "uint256",
          "name": "eventCount",
          "type": "uint256"
        }
      ],
      "name": "updateNotabotScore",
      "outputs": [],
      "stateMutability": "nonpayable",
      "type": "function"
    },
    {
      "inputs": [
        {
          "internalType": "uint256",
          "name": "amount",
          "type": "uint256"
        }
      ],
      "name": "withdraw",
      "outputs": [],
      "stateMutability": "nonpayable",
      "type": "function"
    },
    {
      "stateMutability": "payable",
      "type": "receive"
    }
  ],
  "bytecode": "0x608060405234801561001057600080fd5b5060405161275038038061275083398101604081905261002f916101ff565b60008054336001600160a01b0319918216811783556003805460018181019092557fc2575a0e9e593c00f959f8c92f12db2869c3395a3b0502d05e2516446f71f85b01805490931682179092558252600460209081526040808420805460ff19168417905560059091529091204290556100a983826102f1565b5060008151116100d95760405180604001604052806008815260200167657069737465727960c01b8152506100db565b805b6002906100e890826102f1565b5060005460405133916001600160a01b0316907fc458bd1407a3932eee872c0e8dfdfb86bfb0fdc4bbc124ce65ecd9f2db628b9c9061012d90869060029042906103af565b60405180910390a35050610477565b634e487b7160e01b600052604160045260246000fd5b60005b8381101561016d578181015183820152602001610155565b50506000910152565b600082601f83011261018757600080fd5b81516001600160401b038111156101a0576101a061013c565b604051601f8201601f19908116603f011681016001600160401b03811182821017156101ce576101ce61013c565b6040528181528382016020018510156101e657600080fd5b6101f7826020830160208701610152565b949350505050565b6000806040838503121561021257600080fd5b82516001600160401b0381111561022857600080fd5b61023485828601610176565b602085015190935090506001600160401b0381111561025257600080fd5b61025e85828601610176565b9150509250929050565b600181811c9082168061027c57607f821691505b60208210810361029c57634e487b7160e01b600052602260045260246000fd5b50919050565b601f8211156102ec57806000526020600020601f840160051c810160208510156102c95750805b601f840160051c820191505b818110156102e957600081556001016102d5565b50505b505050565b81516001600160401b0381111561030a5761030a61013c565b61031e816103188454610268565b846102a2565b6020601f821160018114610352576000831561033a5750848201515b600019600385901b1c1916600184901b1784556102e9565b600084815260208120601f198516915b828110156103825787850151825560209485019460019092019101610362565b50848210156103a05786840151600019600387901b60f8161c191681555b50505050600190811b01905550565b60608152600084518060608401526103ce816080850160208901610152565b601f01601f19168201828103608001602084015284546000906103f081610268565b806080850152600182166000811461040f576001811461042e57610462565b60ff19831660a08601526020608083151560051b870101019350610462565b88600052602060002060005b8381101561045957815460a0888301015260019091019060200161043a565b860160a0019450505b50505060409390930193909352509392505050565b6122ca806104866000396000f3fe6080604052600436106101d15760003560e01c80638f033c85116100f7578063ca239d4b11610095578063f2fde38b11610064578063f2fde38b14610568578063f913f7f714610588578063fe9fbb80146105ea578063ffa1ad741461062a57600080fd5b8063ca239d4b146104f3578063e155676014610513578063e1c76c2414610533578063f0aaf3701461055357600080fd5b8063aa2285a5116100d1578063aa2285a514610471578063ba637c2914610491578063bae067b3146104be578063c2fb26a6146104de57600080fd5b80638f033c851461041c578063956f893b1461043c578063959ed9a11461045c57600080fd5b80634de4964d1161016f57806383dff3a71161013e57806383dff3a71461034f578063898c2d7b146103a25780638c160186146103c25780638da5cb5b146103e457600080fd5b80634de4964d146102d757806357fca407146102f7578063649138651461030c5780637f344c161461032f57600080fd5b80632734f5bd116101ab5780632734f5bd14610243578063294c9921146102755780632e1a7d4d1461029757806348205521146102b757600080fd5b8063058a258e146101dd57806312065fe0146101ff578063212f32871461022157600080fd5b366101d857005b600080fd5b3480156101e957600080fd5b506101fd6101f8366004611c1a565b61065b565b005b34801561020b57600080fd5b50475b6040519081526020015b60405180910390f35b34801561022d57600080fd5b50610236610771565b6040516102189190611c9c565b34801561024f57600080fd5b506102586107d3565b604080519283526001600160a01b03909116602083015201610218565b34801561028157600080fd5b5061028a61083d565b6040516102189190611d62565b3480156102a357600080fd5b506101fd6102b2366004611d75565b610946565b3480156102c357600080fd5b506101fd6102d2366004611c1a565b6109ed565b3480156102e357600080fd5b506101fd6102f2366004611da5565b610b21565b34801561030357600080fd5b5061028a610ce1565b34801561031857600080fd5b50610321610db1565b604051610218929190611df3565b34801561033b57600080fd5b506101fd61034a366004611c1a565b610f5a565b34801561035b57600080fd5b5061036f61036a366004611e21565b61106c565b60405161021891908151815260208083015190820152604080830151908201526060918201519181019190915260800190565b3480156103ae57600080fd5b506101fd6103bd366004611e3c565b6110e8565b3480156103ce57600080fd5b506103d761124d565b6040516102189190611e8f565b3480156103f057600080fd5b50600054610404906001600160a01b031681565b6040516001600160a01b039091168152602001610218565b34801561042857600080fd5b506103d7610437366004611c1a565b6112a1565b34801561044857600080fd5b506101fd610457366004611ea2565b611351565b34801561046857600080fd5b5060035461020e565b34801561047d57600080fd5b506101fd61048c366004611e3c565b6114cc565b34801561049d57600080fd5b5061020e6104ac366004611e21565b60056020526000908152604090205481565b3480156104ca57600080fd5b506103d76104d9366004611c1a565b611629565b3480156104ea57600080fd5b506103d76116ce565b3480156104ff57600080fd5b506103d761050e366004611c1a565b6116db565b34801561051f57600080fd5b506103d761052e366004611e21565b611722565b34801561053f57600080fd5b506101fd61054e366004611e21565b61173b565b34801561055f57600080fd5b506103d76119a3565b34801561057457600080fd5b506101fd610583366004611e21565b6119b0565b34801561059457600080fd5b506105ca6105a3366004611e21565b60076020526000908152604090208054600182015460028301546003909301549192909184565b604080519485526020850193909352918301526060820152608001610218565b3480156105f657600080fd5b5061061a610605366004611e21565b60046020526000908152604090205460ff1681565b6040519015158152602001610218565b34801561063657600080fd5b506103d7604051806040016040528060058152602001640322e302e360dc1b81525081565b3360009081526004602052604090205460ff166106935760405162461bcd60e51b815260040161068a90611ece565b60405180910390fd5b6000600180546106a290611f0f565b80601f01602080910402602001604051908101604052809291908181526020018280546106ce90611f0f565b801561071b5780601f106106f05761010080835404028352916020019161071b565b820191906000526020600020905b8154815290600101906020018083116106fe57829003601f168201915b5050505050905081600190816107319190611f98565b507fa6a2ac6515f92b90bc422bc3ee5021b9008a5da43c4ccc67f75fc83dd552cfa38183426040516107659392919061205a565b60405180910390a15050565b606060038054806020026020016040519081016040528092919081815260200182805480156107c957602002820191906000526020600020905b81546001600160a01b031681526001909101906020018083116107ab575b5050505050905090565b600080805b600354811015610838576000600382815481106107f7576107f7612090565b60009182526020808320909101546001600160a01b031680835260079091526040909120549091508481111561082e578094508193505b50506001016107d8565b509091565b3360009081526004602052604090205460609060ff1661086f5760405162461bcd60e51b815260040161068a90611ece565b600b805480602002602001604051908101604052809291908181526020016000905b8282101561093d5783829060005260206000200180546108b090611f0f565b80601f01602080910402602001604051908101604052809291908181526020018280546108dc90611f0f565b80156109295780601f106108fe57610100808354040283529160200191610929565b820191906000526020600020905b81548152906001019060200180831161090c57829003601f168201915b505050505081526020019060010190610891565b50505050905090565b3360009081526004602052604090205460ff166109755760405162461bcd60e51b815260040161068a90611ece565b804710156109bc5760405162461bcd60e51b8152602060048201526014602482015273496e73756666696369656e742062616c616e636560601b604482015260640161068a565b604051339082156108fc029083906000818181858888f193505050501580156109e9573d6000803e3d6000fd5b5050565b3360009081526004602052604090205460ff16610a1c5760405162461bcd60e51b815260040161068a90611ece565b600981604051610a2c91906120a6565b90815260200160405180910390206000610a469190611b1f565b60005b600b548110156109e9578180519060200120600b8281548110610a6e57610a6e612090565b90600052602060002001604051610a859190612134565b604051809103902003610b1957600b8054610aa290600190612140565b81548110610ab257610ab2612090565b90600052602060002001600b8281548110610acf57610acf612090565b906000526020600020019081610ae59190612167565b50600b805480610af757610af761223c565b600190038181906000526020600020016000610b139190611b1f565b90555050565b600101610a49565b3360009081526004602052604090205460ff16610b505760405162461bcd60e51b815260040161068a90611ece565b6001600160a01b038216610ba65760405162461bcd60e51b815260206004820152601c60248201527f526976657420616464726573732063616e6e6f74206265207a65726f00000000604482015260640161068a565b6001600160a01b03821660009081526004602052604090205460ff1615610c0f5760405162461bcd60e51b815260206004820152601b60248201527f526976657420697320616c726561647920617574686f72697a65640000000000604482015260640161068a565b6003805460018082019092557fc2575a0e9e593c00f959f8c92f12db2869c3395a3b0502d05e2516446f71f85b0180546001600160a01b0319166001600160a01b0385169081179091556000908152600460209081526040808320805460ff1916909417909355600581528282204290556006905220610c8f8282611f98565b50336001600160a01b0316826001600160a01b03167f6cf6b4ae665005cd3796957a1bd3d4a73d2ace1d465fd12d03c66e7a254fd4328342604051610cd5929190612252565b60405180910390a35050565b6060600a805480602002602001604051908101604052809291908181526020016000905b8282101561093d578382906000526020600020018054610d2490611f0f565b80601f0160208091040260200160405190810160405280929190818152602001828054610d5090611f0f565b8015610d9d5780601f10610d7257610100808354040283529160200191610d9d565b820191906000526020600020905b815481529060010190602001808311610d8057829003601f168201915b505050505081526020019060010190610d05565b6060806003805480602002602001604051908101604052809291908181526020018280548015610e0a57602002820191906000526020600020905b81546001600160a01b03168152600190910190602001808311610dec575b5050600354939550505067ffffffffffffffff8211159050610e2e57610e2e611b75565b604051908082528060200260200182016040528015610e6157816020015b6060815260200190600190039081610e4c5790505b50905060005b600354811015610838576006600060038381548110610e8857610e88612090565b60009182526020808320909101546001600160a01b0316835282019290925260400190208054610eb790611f0f565b80601f0160208091040260200160405190810160405280929190818152602001828054610ee390611f0f565b8015610f305780601f10610f0557610100808354040283529160200191610f30565b820191906000526020600020905b815481529060010190602001808311610f1357829003601f168201915b5050505050828281518110610f4757610f47612090565b6020908102919091010152600101610e67565b3360009081526004602052604090205460ff16610f895760405162461bcd60e51b815260040161068a90611ece565b600881604051610f9991906120a6565b90815260200160405180910390206000610fb39190611b1f565b60005b600a548110156109e9578180519060200120600a8281548110610fdb57610fdb612090565b90600052602060002001604051610ff29190612134565b60405180910390200361106457600a805461100f90600190612140565b8154811061101f5761101f612090565b90600052602060002001600a828154811061103c5761103c612090565b9060005260206000200190816110529190612167565b50600a805480610af757610af761223c565b600101610fb6565b61109a6040518060800160405280600081526020016000801916815260200160008152602001600081525090565b506001600160a01b0316600090815260076020908152604091829020825160808101845281548152600182015492810192909252600281015492820192909252600390910154606082015290565b3360009081526004602052604090205460ff166111175760405162461bcd60e51b815260040161068a90611ece565b600082511161115e5760405162461bcd60e51b81526020600482015260136024820152724b65792063616e6e6f7420626520656d70747960681b604482015260640161068a565b60088260405161116e91906120a6565b9081526020016040518091039020805461118790611f0f565b90506000036111ce57600a80546001810182556000919091527fc65a7bb8d6351c1cf70c95a316cc6a92839c986682d98bc35f958f4883f9d2a8016111cc8382611f98565b505b806008836040516111df91906120a6565b908152602001604051809103902090816111f99190611f98565b508160405161120891906120a6565b6040805191829003822060018352426020840152917f590120a97fea9eae0ab7f73633c407e0d9f528198b43f5aded24fc164146674491015b60405180910390a25050565b60606001805461125c90611f0f565b9050600003611278575060408051602081019091526000815290565b6001600260405160200161128d929190612274565b604051602081830303815290604052905090565b60606008826040516112b391906120a6565b908152602001604051809103902080546112cc90611f0f565b80601f01602080910402602001604051908101604052809291908181526020018280546112f890611f0f565b80156113455780601f1061131a57610100808354040283529160200191611345565b820191906000526020600020905b81548152906001019060200180831161132857829003601f168201915b50505050509050919050565b3360009081526004602052604090205460ff166113805760405162461bcd60e51b815260040161068a90611ece565b336000908152600760205260409020548310156113d85760405162461bcd60e51b8152602060048201526016602482015275506f696e74732063616e6e6f7420646563726561736560501b604482015260640161068a565b3360009081526007602052604090206002015481101561143a5760405162461bcd60e51b815260206004820152601b60248201527f4576656e7420636f756e742063616e6e6f742064656372656173650000000000604482015260640161068a565b60408051608081018252848152602080820185815282840185815242606080860182815233600081815260078852899020975188559451600188015592516002870155915160039095019490945584518881529283018690529382019290925290917fe74dfe9692efc9e4e9e79c647202a04073b250eaec59c3ad87bcc99ee158c3d2910160405180910390a2505050565b3360009081526004602052604090205460ff166114fb5760405162461bcd60e51b815260040161068a90611ece565b60008251116115425760405162461bcd60e51b81526020600482015260136024820152724b65792063616e6e6f7420626520656d70747960681b604482015260640161068a565b60098260405161155291906120a6565b9081526020016040518091039020805461156b90611f0f565b90506000036115b257600b80546001810182556000919091527f0175b7a638427703f0dbe7bb9bbf987a2551717b34e79f33b5b1008d1fa01db9016115b08382611f98565b505b806009836040516115c391906120a6565b908152602001604051809103902090816115dd9190611f98565b50816040516115ec91906120a6565b6040805191829003822060008352426020840152917f590120a97fea9eae0ab7f73633c407e0d9f528198b43f5aded24fc16414667449101611241565b80516020818301810180516008825292820191909301209152805461164d90611f0f565b80601f016020809104026020016040519081016040528092919081815260200182805461167990611f0f565b80156116c65780601f1061169b576101008083540402835291602001916116c6565b820191906000526020600020905b8154815290600101906020018083116116a957829003601f168201915b505050505081565b6002805461164d90611f0f565b3360009081526004602052604090205460609060ff1661170d5760405162461bcd60e51b815260040161068a90611ece565b6009826040516112b391906120a6565b919050565b6006602052600090815260409020805461164d90611f0f565b3360009081526004602052604090205460ff1661176a5760405162461bcd60e51b815260040161068a90611ece565b6001600160a01b03811660009081526004602052604090205460ff166117d25760405162461bcd60e51b815260206004820152601760248201527f5269766574206973206e6f7420617574686f72697a6564000000000000000000604482015260640161068a565b6003546001106118245760405162461bcd60e51b815260206004820152601c60248201527f43616e6e6f742072656d6f766520746865206c61737420726976657400000000604482015260640161068a565b6001600160a01b0381166000908152600460209081526040808320805460ff19169055600582528083208390556006909152812061186191611b1f565b60005b60035481101561195f57816001600160a01b03166003828154811061188b5761188b612090565b6000918252602090912001546001600160a01b03160361195757600380546118b590600190612140565b815481106118c5576118c5612090565b600091825260209091200154600380546001600160a01b0390921691839081106118f1576118f1612090565b9060005260206000200160006101000a8154816001600160a01b0302191690836001600160a01b0316021790555060038054806119305761193061223c565b600082815260209020810160001990810180546001600160a01b031916905501905561195f565b600101611864565b5060405142815233906001600160a01b038316907f214ca7eb2162518cecf5c43d751ed585b5bb748e5fe1eb8c81ddc6e39ff9c68e9060200160405180910390a350565b6001805461164d90611f0f565b6000546001600160a01b03163314611a145760405162461bcd60e51b815260206004820152602160248201527f4f6e6c79206f776e65722063616e207472616e73666572206f776e65727368696044820152600760fc1b606482015260840161068a565b6001600160a01b038116611a6a5760405162461bcd60e51b815260206004820181905260248201527f4e6577206f776e65722063616e6e6f74206265207a65726f2061646472657373604482015260640161068a565b6000546001600160a01b0390811690821603611ac85760405162461bcd60e51b815260206004820152601760248201527f43616e6e6f74207472616e7366657220746f2073656c66000000000000000000604482015260640161068a565b600080546001600160a01b038381166001600160a01b0319831681179093556040519116919082907fc13a1166d81cd3b0b352a367aebab95f3a6f6bc695fdab8e9a9d335239c3861b90610cd59042815260200190565b508054611b2b90611f0f565b6000825580601f10611b3b575050565b601f016020900490600052602060002090810190611b599190611b5c565b50565b5b80821115611b715760008155600101611b5d565b5090565b634e487b7160e01b600052604160045260246000fd5b600082601f830112611b9c57600080fd5b813567ffffffffffffffff811115611bb657611bb6611b75565b604051601f8201601f19908116603f0116810167ffffffffffffffff81118282101715611be557611be5611b75565b604052818152838201602001851015611bfd57600080fd5b816020850160208301376000918101602001919091529392505050565b600060208284031215611c2c57600080fd5b813567ffffffffffffffff811115611c4357600080fd5b611c4f84828501611b8b565b949350505050565b600081518084526020840193506020830160005b82811015611c925781516001600160a01b0316865260209586019590910190600101611c6b565b5093949350505050565b602081526000611caf6020830184611c57565b9392505050565b60005b83811015611cd1578181015183820152602001611cb9565b50506000910152565b60008151808452611cf2816020860160208601611cb6565b601f01601f19169290920160200192915050565b600082825180855260208501945060208160051b8301016020850160005b83811015611d5657601f19858403018852611d40838351611cda565b6020988901989093509190910190600101611d24565b50909695505050505050565b602081526000611caf6020830184611d06565b600060208284031215611d8757600080fd5b5035919050565b80356001600160a01b038116811461171d57600080fd5b60008060408385031215611db857600080fd5b611dc183611d8e565b9150602083013567ffffffffffffffff811115611ddd57600080fd5b611de985828601611b8b565b9150509250929050565b604081526000611e066040830185611c57565b8281036020840152611e188185611d06565b95945050505050565b600060208284031215611e3357600080fd5b611caf82611d8e565b60008060408385031215611e4f57600080fd5b823567ffffffffffffffff811115611e6657600080fd5b611e7285828601611b8b565b925050602083013567ffffffffffffffff811115611ddd57600080fd5b602081526000611caf6020830184611cda565b600080600060608486031215611eb757600080fd5b505081359360208301359350604090920135919050565b60208082526021908201527f43616c6c6572206973206e6f7420616e20617574686f72697a656420726976656040820152601d60fa1b606082015260800190565b600181811c90821680611f2357607f821691505b602082108103611f4357634e487b7160e01b600052602260045260246000fd5b50919050565b601f821115611f9357806000526020600020601f840160051c81016020851015611f705750805b601f840160051c820191505b81811015611f905760008155600101611f7c565b50505b505050565b815167ffffffffffffffff811115611fb257611fb2611b75565b611fc681611fc08454611f0f565b84611f49565b6020601f821160018114611ffd5760008315611fe25750848201515b600184901b600019600386901b1c198216175b855550611f90565b600084815260208120601f198516915b8281101561202d578785015182556020948501946001909201910161200d565b508482101561204b5786840151600019600387901b60f8161c191681555b50505050600190811b01905550565b60608152600061206d6060830186611cda565b828103602084015261207f8186611cda565b915050826040830152949350505050565b634e487b7160e01b600052603260045260246000fd5b600082516120b8818460208701611cb6565b9190910192915050565b600081546120cf81611f0f565b6001821680156120e657600181146120fb5761212b565b60ff198316865281151582028601935061212b565b84600052602060002060005b8381101561212357815488820152600190910190602001612107565b505081860193505b50505092915050565b6000611caf82846120c2565b8181038181111561216157634e487b7160e01b600052601160045260246000fd5b92915050565b818103612172575050565b61217c8254611f0f565b67ffffffffffffffff81111561219457612194611b75565b6121a281611fc08454611f0f565b6000601f8211600181146121d45760008315611fe2575081850154600184901b600019600386901b1c19821617611ff5565b600085815260209020601f19841690600086815260209020845b8381101561220e57828601548255600195860195909101906020016121ee565b508583101561222c5781850154600019600388901b60f8161c191681555b5050505050600190811b01905550565b634e487b7160e01b600052603160045260246000fd5b6040815260006122656040830185611cda565b90508260208301529392505050565b600061228082856120c2565b601760f91b8152611e1860018201856120c256fea2646970667358221220e603094741b82784f1f8cbff9eb7ad1dc120ddf0f7101b02bf3ca524f837509964736f6c634300081b0033",
  "linkReferences": {},
  "deployedLinkReferences": {}
}