{
  "_format": "hh-sol-artifact-1",
  "contractName": "IdentityContract",
  "sourceName": "contracts/IdentityContract.sol",
  "abi": [
    {
      "inputs": [],
      "stateMutability": "nonpayable",
      "type": "constructor"
    },
    {
      "anonymous": false,
      "inputs": [
        {
          "indexed": true,
          "internalType": "address",
          "name": "owner",
          "type": "address"
        },
        {
          "indexed": true,
          "internalType": "address",
          "name": "firstRivet",
          "type": "address"
        },
        {
          "indexed": false,
          "internalType": "uint256",
          "name": "timestamp",
          "type": "uint256"
        }
      ],
      "name": "IdentityCreated",
      "type": "event"
    },
    {
      "anonymous": false,
      "inputs": [
        {
          "indexed": true,
          "internalType": "address",
          "name": "rivet",
          "type": "address"
        },
        {
          "indexed": false,
          "internalType": "uint256",
          "name": "points",
          "type": "uint256"
        },
        {
          "indexed": false,
          "internalType": "uint256",
          "name": "eventCount",
          "type": "uint256"
        },
        {
          "indexed": false,
          "internalType": "uint256",
          "name": "timestamp",
          "type": "uint256"
        }
      ],
      "name": "NotabotScoreUpdated",
      "type": "event"
    },
    {
      "anonymous": false,
      "inputs": [
        {
          "indexed": true,
          "internalType": "address",
          "name": "previousOwner",
          "type": "address"
        },
        {
          "indexed": true,
          "internalType": "address",
          "name": "newOwner",
          "type": "address"
        },
        {
          "indexed": false,
          "internalType": "uint256",
          "name": "timestamp",
          "type": "uint256"
        }
      ],
      "name": "OwnershipTransferred",
      "type": "event"
    },
    {
      "anonymous": false,
      "inputs": [
        {
          "indexed": true,
          "internalType": "address",
          "name": "rivet",
          "type": "address"
        },
        {
          "indexed": true,
          "internalType": "address",
          "name": "addedBy",
          "type": "address"
        },
        {
          "indexed": false,
          "internalType": "string",
          "name": "name",
          "type": "string"
        },
        {
          "indexed": false,
          "internalType": "uint256",
          "name": "timestamp",
          "type": "uint256"
        }
      ],
      "name": "RivetAdded",
      "type": "event"
    },
    {
      "anonymous": false,
      "inputs": [
        {
          "indexed": true,
          "internalType": "address",
          "name": "rivet",
          "type": "address"
        },
        {
          "indexed": true,
          "internalType": "address",
          "name": "removedBy",
          "type": "address"
        },
        {
          "indexed": false,
          "internalType": "uint256",
          "name": "timestamp",
          "type": "uint256"
        }
      ],
      "name": "RivetRemoved",
      "type": "event"
    },
    {
      "inputs": [
        {
          "internalType": "address",
          "name": "rivet",
          "type": "address"
        },
        {
          "internalType": "string",
          "name": "name",
          "type": "string"
        }
      ],
      "name": "addRivet",
      "outputs": [],
      "stateMutability": "nonpayable",
      "type": "function"
    },
    {
      "inputs": [],
      "name": "getBalance",
      "outputs": [
        {
          "internalType": "uint256",
          "name": "",
          "type": "uint256"
        }
      ],
      "stateMutability": "view",
      "type": "function"
    },
    {
      "inputs": [],
      "name": "getMaxNotabotScore",
      "outputs": [
        {
          "internalType": "uint256",
          "name": "maxPoints",
          "type": "uint256"
        },
        {
          "internalType": "address",
          "name": "maxRivet",
          "type": "address"
        }
      ],
      "stateMutability": "view",
      "type": "function"
    },
    {
      "inputs": [
        {
          "internalType": "address",
          "name": "rivet",
          "type": "address"
        }
      ],
      "name": "getNotabotScore",
      "outputs": [
        {
          "components": [
            {
              "internalType": "uint256",
              "name": "totalPoints",
              "type": "uint256"
            },
            {
              "internalType": "bytes32",
              "name": "chainHead",
              "type": "bytes32"
            },
            {
              "internalType": "uint256",
              "name": "eventCount",
              "type": "uint256"
            },
            {
              "internalType": "uint256",
              "name": "lastUpdate",
              "type": "uint256"
            }
          ],
          "internalType": "struct IdentityContract.NotabotCommitment",
          "name": "commitment",
          "type": "tuple"
        }
      ],
      "stateMutability": "view",
      "type": "function"
    },
    {
      "inputs": [],
      "name": "getRivetCount",
      "outputs": [
        {
          "internalType": "uint256",
          "name": "",
          "type": "uint256"
        }
      ],
      "stateMutability": "view",
      "type": "function"
    },
    {
      "inputs": [],
      "name": "getRivets",
      "outputs": [
        {
          "internalType": "address[]",
          "name": "",
          "type": "address[]"
        }
      ],
      "stateMutability": "view",
      "type": "function"
    },
    {
      "inputs": [],
      "name": "getRivetsWithNames",
      "outputs": [
        {
          "internalType": "address[]",
          "name": "addresses",
          "type": "address[]"
        },
        {
          "internalType": "string[]",
          "name": "names",
          "type": "string[]"
        }
      ],
      "stateMutability": "view",
      "type": "function"
    },
    {
      "inputs": [
        {
          "internalType": "address",
          "name": "",
          "type": "address"
        }
      ],
      "name": "isAuthorized",
      "outputs": [
        {
          "internalType": "bool",
          "name": "",
          "type": "bool"
        }
      ],
      "stateMutability": "view",
      "type": "function"
    },
    {
      "inputs": [
        {
          "internalType": "address",
          "name": "",
          "type": "address"
        }
      ],
      "name": "notabotScores",
      "outputs": [
        {
          "internalType": "uint256",
          "name": "totalPoints",
          "type": "uint256"
        },
        {
          "internalType": "bytes32",
          "name": "chainHead",
          "type": "bytes32"
        },
        {
          "internalType": "uint256",
          "name": "eventCount",
          "type": "uint256"
        },
        {
          "internalType": "uint256",
          "name": "lastUpdate",
          "type": "uint256"
        }
      ],
      "stateMutability": "view",
      "type": "function"
    },
    {
      "inputs": [],
      "name": "owner",
      "outputs": [
        {
          "internalType": "address",
          "name": "",
          "type": "address"
        }
      ],
      "stateMutability": "view",
      "type": "function"
    },
    {
      "inputs": [
        {
          "internalType": "address",
          "name": "rivet",
          "type": "address"
        }
      ],
      "name": "removeRivet",
      "outputs": [],
      "stateMutability": "nonpayable",
      "type": "function"
    },
    {
      "inputs": [
        {
          "internalType": "address",
          "name": "",
          "type": "address"
        }
      ],
      "name": "rivetAddedAt",
      "outputs": [
        {
          "internalType": "uint256",
          "name": "",
          "type": "uint256"
        }
      ],
      "stateMutability": "view",
      "type": "function"
    },
    {
      "inputs": [
        {
          "internalType": "address",
          "name": "",
          "type": "address"
        }
      ],
      "name": "rivetNames",
      "outputs": [
        {
          "internalType": "string",
          "name": "",
          "type": "string"
        }
      ],
      "stateMutability": "view",
      "type": "function"
    },
    {
      "inputs": [
        {
          "internalType": "address",
          "name": "newOwner",
          "type": "address"
        }
      ],
      "name": "transferOwnership",
      "outputs": [],
      "stateMutability": "nonpayable",
      "type": "function"
    },
    {
      "inputs": [
        {
          "internalType": "uint256",
          "name": "points",
          "type": "uint256"
        },
        {
          "internalType": "bytes32",
          "name": "chainHead",
          "type": "bytes32"
        },
        {
          "internalType": "uint256",
          "name": "eventCount",
          "type": "uint256"
        }
      ],
      "name": "updateNotabotScore",
      "outputs": [],
      "stateMutability": "nonpayable",
      "type": "function"
    },
    {
      "inputs": [
        {
          "internalType": "uint256",
          "name": "amount",
          "type": "uint256"
        }
      ],
      "name": "withdraw",
      "outputs": [],
      "stateMutability": "nonpayable",
      "type": "function"
    },
    {
      "stateMutability": "payable",
      "type": "receive"
    }
  ],
  "bytecode": "0x6080604052348015600f57600080fd5b5060008054336001600160a01b0319918216811783556001805480820182557fb10e2d527612073b26eecdfd717e6a320cf44b4afac2b0732d9fcbe2b7fa0cf60180549093168217909255808352600260209081526040808520805460ff19169094179093556003815282842042908190559354925193845290926001600160a01b03909216917fb9fb8e551e2c1eca32cadcff5fba92a08c15e5fdb3d0b5b77b3c0c299cb6d4e0910160405180910390a3611437806100d06000396000f3fe6080604052600436106100f75760003560e01c8063956f893b1161008a578063e1c76c2411610059578063e1c76c24146102f8578063f2fde38b14610318578063f913f7f714610338578063fe9fbb801461039a57600080fd5b8063956f893b14610269578063959ed9a114610289578063ba637c291461029e578063e1556760146102cb57600080fd5b80634de4964d116100c65780634de4964d1461019b57806364913865146101bb57806383dff3a7146101de5780638da5cb5b1461023157600080fd5b806312065fe014610103578063212f3287146101255780632734f5bd146101475780632e1a7d4d1461017957600080fd5b366100fe57005b600080fd5b34801561010f57600080fd5b50475b6040519081526020015b60405180910390f35b34801561013157600080fd5b5061013a6103da565b60405161011c9190610fbd565b34801561015357600080fd5b5061015c61043c565b604080519283526001600160a01b0390911660208301520161011c565b34801561018557600080fd5b50610199610194366004610fd7565b6104a6565b005b3480156101a757600080fd5b506101996101b6366004611022565b610556565b3480156101c757600080fd5b506101d0610713565b60405161011c929190611132565b3480156101ea57600080fd5b506101fe6101f93660046111a9565b6108bc565b60405161011c91908151815260208083015190820152604080830151908201526060918201519181019190915260800190565b34801561023d57600080fd5b50600054610251906001600160a01b031681565b6040516001600160a01b03909116815260200161011c565b34801561027557600080fd5b506101996102843660046111c4565b610938565b34801561029557600080fd5b50600154610112565b3480156102aa57600080fd5b506101126102b93660046111a9565b60036020526000908152604090205481565b3480156102d757600080fd5b506102eb6102e63660046111a9565b610ab3565b60405161011c91906111f0565b34801561030457600080fd5b506101996103133660046111a9565b610b4d565b34801561032457600080fd5b506101996103333660046111a9565b610db3565b34801561034457600080fd5b5061037a6103533660046111a9565b60056020526000908152604090208054600182015460028301546003909301549192909184565b60408051948552602085019390935291830152606082015260800161011c565b3480156103a657600080fd5b506103ca6103b53660046111a9565b60026020526000908152604090205460ff1681565b604051901515815260200161011c565b6060600180548060200260200160405190810160405280929190818152602001828054801561043257602002820191906000526020600020905b81546001600160a01b03168152600190910190602001808311610414575b5050505050905090565b600080805b6001548110156104a15760006001828154811061046057610460611203565b60009182526020808320909101546001600160a01b0316808352600590915260409091205490915084811115610497578094508193505b5050600101610441565b509091565b3360009081526002602052604090205460ff166104de5760405162461bcd60e51b81526004016104d590611219565b60405180910390fd5b804710156105255760405162461bcd60e51b8152602060048201526014602482015273496e73756666696369656e742062616c616e636560601b60448201526064016104d5565b604051339082156108fc029083906000818181858888f19350505050158015610552573d6000803e3d6000fd5b5050565b3360009081526002602052604090205460ff166105855760405162461bcd60e51b81526004016104d590611219565b6001600160a01b0382166105db5760405162461bcd60e51b815260206004820152601c60248201527f526976657420616464726573732063616e6e6f74206265207a65726f0000000060448201526064016104d5565b6001600160a01b03821660009081526002602052604090205460ff16156106445760405162461bcd60e51b815260206004820152601b60248201527f526976657420697320616c726561647920617574686f72697a6564000000000060448201526064016104d5565b6001805480820182557fb10e2d527612073b26eecdfd717e6a320cf44b4afac2b0732d9fcbe2b7fa0cf60180546001600160a01b0319166001600160a01b0385169081179091556000908152600260209081526040808320805460ff19169094179093556003815282822042905560049052206106c182826112e3565b50336001600160a01b0316826001600160a01b03167f6cf6b4ae665005cd3796957a1bd3d4a73d2ace1d465fd12d03c66e7a254fd43283426040516107079291906113a2565b60405180910390a35050565b606080600180548060200260200160405190810160405280929190818152602001828054801561076c57602002820191906000526020600020905b81546001600160a01b0316815260019091019060200180831161074e575b5050600154939550505067ffffffffffffffff82111590506107905761079061100c565b6040519080825280602002602001820160405280156107c357816020015b60608152602001906001900390816107ae5790505b50905060005b6001548110156104a15760046000600183815481106107ea576107ea611203565b60009182526020808320909101546001600160a01b03168352820192909252604001902080546108199061125a565b80601f01602080910402602001604051908101604052809291908181526020018280546108459061125a565b80156108925780601f1061086757610100808354040283529160200191610892565b820191906000526020600020905b81548152906001019060200180831161087557829003601f168201915b50505050508282815181106108a9576108a9611203565b60209081029190910101526001016107c9565b6108ea6040518060800160405280600081526020016000801916815260200160008152602001600081525090565b506001600160a01b0316600090815260056020908152604091829020825160808101845281548152600182015492810192909252600281015492820192909252600390910154606082015290565b3360009081526002602052604090205460ff166109675760405162461bcd60e51b81526004016104d590611219565b336000908152600560205260409020548310156109bf5760405162461bcd60e51b8152602060048201526016602482015275506f696e74732063616e6e6f7420646563726561736560501b60448201526064016104d5565b33600090815260056020526040902060020154811015610a215760405162461bcd60e51b815260206004820152601b60248201527f4576656e7420636f756e742063616e6e6f74206465637265617365000000000060448201526064016104d5565b60408051608081018252848152602080820185815282840185815242606080860182815233600081815260058852899020975188559451600188015592516002870155915160039095019490945584518881529283018690529382019290925290917fe74dfe9692efc9e4e9e79c647202a04073b250eaec59c3ad87bcc99ee158c3d2910160405180910390a2505050565b60046020526000908152604090208054610acc9061125a565b80601f0160208091040260200160405190810160405280929190818152602001828054610af89061125a565b8015610b455780601f10610b1a57610100808354040283529160200191610b45565b820191906000526020600020905b815481529060010190602001808311610b2857829003601f168201915b505050505081565b3360009081526002602052604090205460ff16610b7c5760405162461bcd60e51b81526004016104d590611219565b6001600160a01b03811660009081526002602052604090205460ff16610be45760405162461bcd60e51b815260206004820152601760248201527f5269766574206973206e6f7420617574686f72697a656400000000000000000060448201526064016104d5565b6001805411610c355760405162461bcd60e51b815260206004820152601c60248201527f43616e6e6f742072656d6f766520746865206c6173742072697665740000000060448201526064016104d5565b6001600160a01b0381166000908152600260209081526040808320805460ff191690556003825280832083905560049091528120610c7291610f22565b60005b600154811015610d6f57816001600160a01b031660018281548110610c9c57610c9c611203565b6000918252602090912001546001600160a01b031603610d675760018054610cc59082906113c4565b81548110610cd557610cd5611203565b600091825260209091200154600180546001600160a01b039092169183908110610d0157610d01611203565b9060005260206000200160006101000a8154816001600160a01b0302191690836001600160a01b031602179055506001805480610d4057610d406113eb565b600082815260209020810160001990810180546001600160a01b0319169055019055610d6f565b600101610c75565b5060405142815233906001600160a01b038316907f214ca7eb2162518cecf5c43d751ed585b5bb748e5fe1eb8c81ddc6e39ff9c68e9060200160405180910390a350565b6000546001600160a01b03163314610e175760405162461bcd60e51b815260206004820152602160248201527f4f6e6c79206f776e65722063616e207472616e73666572206f776e65727368696044820152600760fc1b60648201526084016104d5565b6001600160a01b038116610e6d5760405162461bcd60e51b815260206004820181905260248201527f4e6577206f776e65722063616e6e6f74206265207a65726f206164647265737360448201526064016104d5565b6000546001600160a01b0390811690821603610ecb5760405162461bcd60e51b815260206004820152601760248201527f43616e6e6f74207472616e7366657220746f2073656c6600000000000000000060448201526064016104d5565b600080546001600160a01b038381166001600160a01b0319831681179093556040519116919082907fc13a1166d81cd3b0b352a367aebab95f3a6f6bc695fdab8e9a9d335239c3861b906107079042815260200190565b508054610f2e9061125a565b6000825580601f10610f3e575050565b601f016020900490600052602060002090810190610f5c9190610f5f565b50565b5b80821115610f745760008155600101610f60565b5090565b600081518084526020840193506020830160005b82811015610fb35781516001600160a01b0316865260209586019590910190600101610f8c565b5093949350505050565b602081526000610fd06020830184610f78565b9392505050565b600060208284031215610fe957600080fd5b5035919050565b80356001600160a01b038116811461100757600080fd5b919050565b634e487b7160e01b600052604160045260246000fd5b6000806040838503121561103557600080fd5b61103e83610ff0565b9150602083013567ffffffffffffffff81111561105a57600080fd5b8301601f8101851361106b57600080fd5b803567ffffffffffffffff8111156110855761108561100c565b604051601f8201601f19908116603f0116810167ffffffffffffffff811182821017156110b4576110b461100c565b6040528181528282016020018710156110cc57600080fd5b816020840160208301376000602083830101528093505050509250929050565b6000815180845260005b81811015611112576020818501810151868301820152016110f6565b506000602082860101526020601f19601f83011685010191505092915050565b6040815260006111456040830185610f78565b828103602084015280845180835260208301915060208160051b8401016020870160005b8381101561119b57601f198684030185526111858383516110ec565b6020958601959093509190910190600101611169565b509098975050505050505050565b6000602082840312156111bb57600080fd5b610fd082610ff0565b6000806000606084860312156111d957600080fd5b505081359360208301359350604090920135919050565b602081526000610fd060208301846110ec565b634e487b7160e01b600052603260045260246000fd5b60208082526021908201527f43616c6c6572206973206e6f7420616e20617574686f72697a656420726976656040820152601d60fa1b606082015260800190565b600181811c9082168061126e57607f821691505b60208210810361128e57634e487b7160e01b600052602260045260246000fd5b50919050565b601f8211156112de57806000526020600020601f840160051c810160208510156112bb5750805b601f840160051c820191505b818110156112db57600081556001016112c7565b50505b505050565b815167ffffffffffffffff8111156112fd576112fd61100c565b6113118161130b845461125a565b84611294565b6020601f821160018114611345576000831561132d5750848201515b600019600385901b1c1916600184901b1784556112db565b600084815260208120601f198516915b828110156113755787850151825560209485019460019092019101611355565b50848210156113935786840151600019600387901b60f8161c191681555b50505050600190811b01905550565b6040815260006113b560408301856110ec565b90508260208301529392505050565b818103818111156113e557634e487b7160e01b600052601160045260246000fd5b92915050565b634e487b7160e01b600052603160045260246000fdfea2646970667358221220818a998cc44bee2dac4ca29c315c36df265ee36d43fa42d91e02fda0e510c5c364736f6c634300081b0033",
  "linkReferences": {},
  "deployedLinkReferences": {}
}