{
  "_format": "hh-sol-artifact-1",
  "contractName": "IdentityContract",
  "sourceName": "contracts/IdentityContract.sol",
  "abi": [
    {
      "inputs": [],
      "stateMutability": "nonpayable",
      "type": "constructor"
    },
    {
      "anonymous": false,
      "inputs": [
        {
          "indexed": true,
          "internalType": "address",
          "name": "owner",
          "type": "address"
        },
        {
          "indexed": true,
          "internalType": "address",
          "name": "firstRivet",
          "type": "address"
        },
        {
          "indexed": false,
          "internalType": "uint256",
          "name": "timestamp",
          "type": "uint256"
        }
      ],
      "name": "IdentityCreated",
      "type": "event"
    },
    {
      "anonymous": false,
      "inputs": [
        {
          "indexed": true,
          "internalType": "address",
          "name": "previousOwner",
          "type": "address"
        },
        {
          "indexed": true,
          "internalType": "address",
          "name": "newOwner",
          "type": "address"
        },
        {
          "indexed": false,
          "internalType": "uint256",
          "name": "timestamp",
          "type": "uint256"
        }
      ],
      "name": "OwnershipTransferred",
      "type": "event"
    },
    {
      "anonymous": false,
      "inputs": [
        {
          "indexed": true,
          "internalType": "address",
          "name": "rivet",
          "type": "address"
        },
        {
          "indexed": true,
          "internalType": "address",
          "name": "addedBy",
          "type": "address"
        },
        {
          "indexed": false,
          "internalType": "uint256",
          "name": "timestamp",
          "type": "uint256"
        }
      ],
      "name": "RivetAdded",
      "type": "event"
    },
    {
      "anonymous": false,
      "inputs": [
        {
          "indexed": true,
          "internalType": "address",
          "name": "rivet",
          "type": "address"
        },
        {
          "indexed": true,
          "internalType": "address",
          "name": "removedBy",
          "type": "address"
        },
        {
          "indexed": false,
          "internalType": "uint256",
          "name": "timestamp",
          "type": "uint256"
        }
      ],
      "name": "RivetRemoved",
      "type": "event"
    },
    {
      "inputs": [
        {
          "internalType": "address",
          "name": "rivet",
          "type": "address"
        }
      ],
      "name": "addRivet",
      "outputs": [],
      "stateMutability": "nonpayable",
      "type": "function"
    },
    {
      "inputs": [],
      "name": "getBalance",
      "outputs": [
        {
          "internalType": "uint256",
          "name": "",
          "type": "uint256"
        }
      ],
      "stateMutability": "view",
      "type": "function"
    },
    {
      "inputs": [],
      "name": "getRivetCount",
      "outputs": [
        {
          "internalType": "uint256",
          "name": "",
          "type": "uint256"
        }
      ],
      "stateMutability": "view",
      "type": "function"
    },
    {
      "inputs": [],
      "name": "getRivets",
      "outputs": [
        {
          "internalType": "address[]",
          "name": "",
          "type": "address[]"
        }
      ],
      "stateMutability": "view",
      "type": "function"
    },
    {
      "inputs": [
        {
          "internalType": "address",
          "name": "",
          "type": "address"
        }
      ],
      "name": "isAuthorized",
      "outputs": [
        {
          "internalType": "bool",
          "name": "",
          "type": "bool"
        }
      ],
      "stateMutability": "view",
      "type": "function"
    },
    {
      "inputs": [],
      "name": "owner",
      "outputs": [
        {
          "internalType": "address",
          "name": "",
          "type": "address"
        }
      ],
      "stateMutability": "view",
      "type": "function"
    },
    {
      "inputs": [
        {
          "internalType": "address",
          "name": "rivet",
          "type": "address"
        }
      ],
      "name": "removeRivet",
      "outputs": [],
      "stateMutability": "nonpayable",
      "type": "function"
    },
    {
      "inputs": [
        {
          "internalType": "address",
          "name": "",
          "type": "address"
        }
      ],
      "name": "rivetAddedAt",
      "outputs": [
        {
          "internalType": "uint256",
          "name": "",
          "type": "uint256"
        }
      ],
      "stateMutability": "view",
      "type": "function"
    },
    {
      "inputs": [
        {
          "internalType": "address",
          "name": "newOwner",
          "type": "address"
        }
      ],
      "name": "transferOwnership",
      "outputs": [],
      "stateMutability": "nonpayable",
      "type": "function"
    },
    {
      "inputs": [
        {
          "internalType": "uint256",
          "name": "amount",
          "type": "uint256"
        }
      ],
      "name": "withdraw",
      "outputs": [],
      "stateMutability": "nonpayable",
      "type": "function"
    },
    {
      "stateMutability": "payable",
      "type": "receive"
    }
  ],
  "bytecode": "0x6080604052348015600f57600080fd5b5060008054336001600160a01b0319918216811783556001805480820182557fb10e2d527612073b26eecdfd717e6a320cf44b4afac2b0732d9fcbe2b7fa0cf60180549093168217909255808352600260209081526040808520805460ff19169094179093556003815282842042908190559354925193845290926001600160a01b03909216917fb9fb8e551e2c1eca32cadcff5fba92a08c15e5fdb3d0b5b77b3c0c299cb6d4e0910160405180910390a36109ef806100d06000396000f3fe6080604052600436106100955760003560e01c8063ba637c2911610059578063ba637c2914610154578063c47490fd14610181578063e1c76c24146101a1578063f2fde38b146101c1578063fe9fbb80146101e157600080fd5b806312065fe0146100a1578063212f3287146100c35780632e1a7d4d146100e55780638da5cb5b14610107578063959ed9a11461013f57600080fd5b3661009c57005b600080fd5b3480156100ad57600080fd5b50475b6040519081526020015b60405180910390f35b3480156100cf57600080fd5b506100d8610221565b6040516100ba9190610890565b3480156100f157600080fd5b506101056101003660046108dc565b610283565b005b34801561011357600080fd5b50600054610127906001600160a01b031681565b6040516001600160a01b0390911681526020016100ba565b34801561014b57600080fd5b506001546100b0565b34801561016057600080fd5b506100b061016f3660046108f5565b60036020526000908152604090205481565b34801561018d57600080fd5b5061010561019c3660046108f5565b610333565b3480156101ad57600080fd5b506101056101bc3660046108f5565b6104c7565b3480156101cd57600080fd5b506101056101dc3660046108f5565b610715565b3480156101ed57600080fd5b506102116101fc3660046108f5565b60026020526000908152604090205460ff1681565b60405190151581526020016100ba565b6060600180548060200260200160405190810160405280929190818152602001828054801561027957602002820191906000526020600020905b81546001600160a01b0316815260019091019060200180831161025b575b5050505050905090565b3360009081526002602052604090205460ff166102bb5760405162461bcd60e51b81526004016102b290610925565b60405180910390fd5b804710156103025760405162461bcd60e51b8152602060048201526014602482015273496e73756666696369656e742062616c616e636560601b60448201526064016102b2565b604051339082156108fc029083906000818181858888f1935050505015801561032f573d6000803e3d6000fd5b5050565b3360009081526002602052604090205460ff166103625760405162461bcd60e51b81526004016102b290610925565b6001600160a01b0381166103b85760405162461bcd60e51b815260206004820152601c60248201527f526976657420616464726573732063616e6e6f74206265207a65726f0000000060448201526064016102b2565b6001600160a01b03811660009081526002602052604090205460ff16156104215760405162461bcd60e51b815260206004820152601b60248201527f526976657420697320616c726561647920617574686f72697a6564000000000060448201526064016102b2565b6001805480820182557fb10e2d527612073b26eecdfd717e6a320cf44b4afac2b0732d9fcbe2b7fa0cf60180546001600160a01b0319166001600160a01b0384169081179091556000818152600260209081526040808320805460ff191690951790945560038152908390204290819055925192835233927eb5ea33a57a378a735bbaa419e20b1b78df4570591681565748ad4683ae3b6591015b60405180910390a350565b3360009081526002602052604090205460ff166104f65760405162461bcd60e51b81526004016102b290610925565b6001600160a01b03811660009081526002602052604090205460ff1661055e5760405162461bcd60e51b815260206004820152601760248201527f5269766574206973206e6f7420617574686f72697a656400000000000000000060448201526064016102b2565b60018054116105af5760405162461bcd60e51b815260206004820152601c60248201527f43616e6e6f742072656d6f766520746865206c6173742072697665740000000060448201526064016102b2565b6001600160a01b0381166000908152600260209081526040808320805460ff19169055600390915281208190555b6001548110156106d757816001600160a01b03166001828154811061060457610604610966565b6000918252602090912001546001600160a01b0316036106cf576001805461062d90829061097c565b8154811061063d5761063d610966565b600091825260209091200154600180546001600160a01b03909216918390811061066957610669610966565b9060005260206000200160006101000a8154816001600160a01b0302191690836001600160a01b0316021790555060018054806106a8576106a86109a3565b600082815260209020810160001990810180546001600160a01b03191690550190556106d7565b6001016105dd565b5060405142815233906001600160a01b038316907f214ca7eb2162518cecf5c43d751ed585b5bb748e5fe1eb8c81ddc6e39ff9c68e906020016104bc565b6000546001600160a01b031633146107795760405162461bcd60e51b815260206004820152602160248201527f4f6e6c79206f776e65722063616e207472616e73666572206f776e65727368696044820152600760fc1b60648201526084016102b2565b6001600160a01b0381166107cf5760405162461bcd60e51b815260206004820181905260248201527f4e6577206f776e65722063616e6e6f74206265207a65726f206164647265737360448201526064016102b2565b6000546001600160a01b039081169082160361082d5760405162461bcd60e51b815260206004820152601760248201527f43616e6e6f74207472616e7366657220746f2073656c6600000000000000000060448201526064016102b2565b600080546001600160a01b038381166001600160a01b0319831681179093556040519116919082907fc13a1166d81cd3b0b352a367aebab95f3a6f6bc695fdab8e9a9d335239c3861b906108849042815260200190565b60405180910390a35050565b602080825282518282018190526000918401906040840190835b818110156108d15783516001600160a01b03168352602093840193909201916001016108aa565b509095945050505050565b6000602082840312156108ee57600080fd5b5035919050565b60006020828403121561090757600080fd5b81356001600160a01b038116811461091e57600080fd5b9392505050565b60208082526021908201527f43616c6c6572206973206e6f7420616e20617574686f72697a656420726976656040820152601d60fa1b606082015260800190565b634e487b7160e01b600052603260045260246000fd5b8181038181111561099d57634e487b7160e01b600052601160045260246000fd5b92915050565b634e487b7160e01b600052603160045260246000fdfea2646970667358221220d2a41088d1b7dae3dc9bad530c762552a9ee65da358d49c52c233d5c42f0acbf64736f6c634300081b0033",
  "linkReferences": {},
  "deployedLinkReferences": {}
}