{
  "_format": "hh-sol-artifact-1",
  "contractName": "IdentityContract",
  "sourceName": "contracts/IdentityContract.sol",
  "abi": [
    {
      "inputs": [],
      "stateMutability": "nonpayable",
      "type": "constructor"
    },
    {
      "anonymous": false,
      "inputs": [
        {
          "indexed": true,
          "internalType": "address",
          "name": "owner",
          "type": "address"
        },
        {
          "indexed": true,
          "internalType": "address",
          "name": "firstRivet",
          "type": "address"
        },
        {
          "indexed": false,
          "internalType": "uint256",
          "name": "timestamp",
          "type": "uint256"
        }
      ],
      "name": "IdentityCreated",
      "type": "event"
    },
    {
      "anonymous": false,
      "inputs": [
        {
          "indexed": true,
          "internalType": "address",
          "name": "previousOwner",
          "type": "address"
        },
        {
          "indexed": true,
          "internalType": "address",
          "name": "newOwner",
          "type": "address"
        },
        {
          "indexed": false,
          "internalType": "uint256",
          "name": "timestamp",
          "type": "uint256"
        }
      ],
      "name": "OwnershipTransferred",
      "type": "event"
    },
    {
      "anonymous": false,
      "inputs": [
        {
          "indexed": true,
          "internalType": "address",
          "name": "rivet",
          "type": "address"
        },
        {
          "indexed": true,
          "internalType": "address",
          "name": "addedBy",
          "type": "address"
        },
        {
          "indexed": false,
          "internalType": "string",
          "name": "name",
          "type": "string"
        },
        {
          "indexed": false,
          "internalType": "uint256",
          "name": "timestamp",
          "type": "uint256"
        }
      ],
      "name": "RivetAdded",
      "type": "event"
    },
    {
      "anonymous": false,
      "inputs": [
        {
          "indexed": true,
          "internalType": "address",
          "name": "rivet",
          "type": "address"
        },
        {
          "indexed": true,
          "internalType": "address",
          "name": "removedBy",
          "type": "address"
        },
        {
          "indexed": false,
          "internalType": "uint256",
          "name": "timestamp",
          "type": "uint256"
        }
      ],
      "name": "RivetRemoved",
      "type": "event"
    },
    {
      "inputs": [
        {
          "internalType": "address",
          "name": "rivet",
          "type": "address"
        },
        {
          "internalType": "string",
          "name": "name",
          "type": "string"
        }
      ],
      "name": "addRivet",
      "outputs": [],
      "stateMutability": "nonpayable",
      "type": "function"
    },
    {
      "inputs": [],
      "name": "getBalance",
      "outputs": [
        {
          "internalType": "uint256",
          "name": "",
          "type": "uint256"
        }
      ],
      "stateMutability": "view",
      "type": "function"
    },
    {
      "inputs": [],
      "name": "getRivetCount",
      "outputs": [
        {
          "internalType": "uint256",
          "name": "",
          "type": "uint256"
        }
      ],
      "stateMutability": "view",
      "type": "function"
    },
    {
      "inputs": [],
      "name": "getRivets",
      "outputs": [
        {
          "internalType": "address[]",
          "name": "",
          "type": "address[]"
        }
      ],
      "stateMutability": "view",
      "type": "function"
    },
    {
      "inputs": [],
      "name": "getRivetsWithNames",
      "outputs": [
        {
          "internalType": "address[]",
          "name": "addresses",
          "type": "address[]"
        },
        {
          "internalType": "string[]",
          "name": "names",
          "type": "string[]"
        }
      ],
      "stateMutability": "view",
      "type": "function"
    },
    {
      "inputs": [
        {
          "internalType": "address",
          "name": "",
          "type": "address"
        }
      ],
      "name": "isAuthorized",
      "outputs": [
        {
          "internalType": "bool",
          "name": "",
          "type": "bool"
        }
      ],
      "stateMutability": "view",
      "type": "function"
    },
    {
      "inputs": [],
      "name": "owner",
      "outputs": [
        {
          "internalType": "address",
          "name": "",
          "type": "address"
        }
      ],
      "stateMutability": "view",
      "type": "function"
    },
    {
      "inputs": [
        {
          "internalType": "address",
          "name": "rivet",
          "type": "address"
        }
      ],
      "name": "removeRivet",
      "outputs": [],
      "stateMutability": "nonpayable",
      "type": "function"
    },
    {
      "inputs": [
        {
          "internalType": "address",
          "name": "",
          "type": "address"
        }
      ],
      "name": "rivetAddedAt",
      "outputs": [
        {
          "internalType": "uint256",
          "name": "",
          "type": "uint256"
        }
      ],
      "stateMutability": "view",
      "type": "function"
    },
    {
      "inputs": [
        {
          "internalType": "address",
          "name": "",
          "type": "address"
        }
      ],
      "name": "rivetNames",
      "outputs": [
        {
          "internalType": "string",
          "name": "",
          "type": "string"
        }
      ],
      "stateMutability": "view",
      "type": "function"
    },
    {
      "inputs": [
        {
          "internalType": "address",
          "name": "newOwner",
          "type": "address"
        }
      ],
      "name": "transferOwnership",
      "outputs": [],
      "stateMutability": "nonpayable",
      "type": "function"
    },
    {
      "inputs": [
        {
          "internalType": "uint256",
          "name": "amount",
          "type": "uint256"
        }
      ],
      "name": "withdraw",
      "outputs": [],
      "stateMutability": "nonpayable",
      "type": "function"
    },
    {
      "stateMutability": "payable",
      "type": "receive"
    }
  ],
  "bytecode": "0x6080604052348015600f57600080fd5b5060008054336001600160a01b0319918216811783556001805480820182557fb10e2d527612073b26eecdfd717e6a320cf44b4afac2b0732d9fcbe2b7fa0cf60180549093168217909255808352600260209081526040808520805460ff19169094179093556003815282842042908190559354925193845290926001600160a01b03909216917fb9fb8e551e2c1eca32cadcff5fba92a08c15e5fdb3d0b5b77b3c0c299cb6d4e0910160405180910390a361105c806100d06000396000f3fe6080604052600436106100ab5760003560e01c8063959ed9a111610064578063959ed9a114610198578063ba637c29146101ad578063e1556760146101da578063e1c76c2414610207578063f2fde38b14610227578063fe9fbb801461024757600080fd5b806312065fe0146100b7578063212f3287146100d95780632e1a7d4d146100fb5780634de4964d1461011d578063649138651461013d5780638da5cb5b1461016057600080fd5b366100b257005b600080fd5b3480156100c357600080fd5b50475b6040519081526020015b60405180910390f35b3480156100e557600080fd5b506100ee610287565b6040516100d09190610c0e565b34801561010757600080fd5b5061011b610116366004610c28565b6102e9565b005b34801561012957600080fd5b5061011b610138366004610c73565b610399565b34801561014957600080fd5b50610152610556565b6040516100d0929190610d83565b34801561016c57600080fd5b50600054610180906001600160a01b031681565b6040516001600160a01b0390911681526020016100d0565b3480156101a457600080fd5b506001546100c6565b3480156101b957600080fd5b506100c66101c8366004610dfa565b60036020526000908152604090205481565b3480156101e657600080fd5b506101fa6101f5366004610dfa565b610704565b6040516100d09190610e15565b34801561021357600080fd5b5061011b610222366004610dfa565b61079e565b34801561023357600080fd5b5061011b610242366004610dfa565b610a04565b34801561025357600080fd5b50610277610262366004610dfa565b60026020526000908152604090205460ff1681565b60405190151581526020016100d0565b606060018054806020026020016040519081016040528092919081815260200182805480156102df57602002820191906000526020600020905b81546001600160a01b031681526001909101906020018083116102c1575b5050505050905090565b3360009081526002602052604090205460ff166103215760405162461bcd60e51b815260040161031890610e28565b60405180910390fd5b804710156103685760405162461bcd60e51b8152602060048201526014602482015273496e73756666696369656e742062616c616e636560601b6044820152606401610318565b604051339082156108fc029083906000818181858888f19350505050158015610395573d6000803e3d6000fd5b5050565b3360009081526002602052604090205460ff166103c85760405162461bcd60e51b815260040161031890610e28565b6001600160a01b03821661041e5760405162461bcd60e51b815260206004820152601c60248201527f526976657420616464726573732063616e6e6f74206265207a65726f000000006044820152606401610318565b6001600160a01b03821660009081526002602052604090205460ff16156104875760405162461bcd60e51b815260206004820152601b60248201527f526976657420697320616c726561647920617574686f72697a656400000000006044820152606401610318565b6001805480820182557fb10e2d527612073b26eecdfd717e6a320cf44b4afac2b0732d9fcbe2b7fa0cf60180546001600160a01b0319166001600160a01b0385169081179091556000908152600260209081526040808320805460ff19169094179093556003815282822042905560049052206105048282610ef2565b50336001600160a01b0316826001600160a01b03167f6cf6b4ae665005cd3796957a1bd3d4a73d2ace1d465fd12d03c66e7a254fd432834260405161054a929190610fb1565b60405180910390a35050565b60608060018054806020026020016040519081016040528092919081815260200182805480156105af57602002820191906000526020600020905b81546001600160a01b03168152600190910190602001808311610591575b5050600154939550505067ffffffffffffffff82111590506105d3576105d3610c5d565b60405190808252806020026020018201604052801561060657816020015b60608152602001906001900390816105f15790505b50905060005b6001548110156106ff57600460006001838154811061062d5761062d610fd3565b60009182526020808320909101546001600160a01b031683528201929092526040019020805461065c90610e69565b80601f016020809104026020016040519081016040528092919081815260200182805461068890610e69565b80156106d55780601f106106aa576101008083540402835291602001916106d5565b820191906000526020600020905b8154815290600101906020018083116106b857829003601f168201915b50505050508282815181106106ec576106ec610fd3565b602090810291909101015260010161060c565b509091565b6004602052600090815260409020805461071d90610e69565b80601f016020809104026020016040519081016040528092919081815260200182805461074990610e69565b80156107965780601f1061076b57610100808354040283529160200191610796565b820191906000526020600020905b81548152906001019060200180831161077957829003601f168201915b505050505081565b3360009081526002602052604090205460ff166107cd5760405162461bcd60e51b815260040161031890610e28565b6001600160a01b03811660009081526002602052604090205460ff166108355760405162461bcd60e51b815260206004820152601760248201527f5269766574206973206e6f7420617574686f72697a65640000000000000000006044820152606401610318565b60018054116108865760405162461bcd60e51b815260206004820152601c60248201527f43616e6e6f742072656d6f766520746865206c617374207269766574000000006044820152606401610318565b6001600160a01b0381166000908152600260209081526040808320805460ff1916905560038252808320839055600490915281206108c391610b73565b60005b6001548110156109c057816001600160a01b0316600182815481106108ed576108ed610fd3565b6000918252602090912001546001600160a01b0316036109b85760018054610916908290610fe9565b8154811061092657610926610fd3565b600091825260209091200154600180546001600160a01b03909216918390811061095257610952610fd3565b9060005260206000200160006101000a8154816001600160a01b0302191690836001600160a01b03160217905550600180548061099157610991611010565b600082815260209020810160001990810180546001600160a01b03191690550190556109c0565b6001016108c6565b5060405142815233906001600160a01b038316907f214ca7eb2162518cecf5c43d751ed585b5bb748e5fe1eb8c81ddc6e39ff9c68e9060200160405180910390a350565b6000546001600160a01b03163314610a685760405162461bcd60e51b815260206004820152602160248201527f4f6e6c79206f776e65722063616e207472616e73666572206f776e65727368696044820152600760fc1b6064820152608401610318565b6001600160a01b038116610abe5760405162461bcd60e51b815260206004820181905260248201527f4e6577206f776e65722063616e6e6f74206265207a65726f20616464726573736044820152606401610318565b6000546001600160a01b0390811690821603610b1c5760405162461bcd60e51b815260206004820152601760248201527f43616e6e6f74207472616e7366657220746f2073656c660000000000000000006044820152606401610318565b600080546001600160a01b038381166001600160a01b0319831681179093556040519116919082907fc13a1166d81cd3b0b352a367aebab95f3a6f6bc695fdab8e9a9d335239c3861b9061054a9042815260200190565b508054610b7f90610e69565b6000825580601f10610b8f575050565b601f016020900490600052602060002090810190610bad9190610bb0565b50565b5b80821115610bc55760008155600101610bb1565b5090565b600081518084526020840193506020830160005b82811015610c045781516001600160a01b0316865260209586019590910190600101610bdd565b5093949350505050565b602081526000610c216020830184610bc9565b9392505050565b600060208284031215610c3a57600080fd5b5035919050565b80356001600160a01b0381168114610c5857600080fd5b919050565b634e487b7160e01b600052604160045260246000fd5b60008060408385031215610c8657600080fd5b610c8f83610c41565b9150602083013567ffffffffffffffff811115610cab57600080fd5b8301601f81018513610cbc57600080fd5b803567ffffffffffffffff811115610cd657610cd6610c5d565b604051601f8201601f19908116603f0116810167ffffffffffffffff81118282101715610d0557610d05610c5d565b604052818152828201602001871015610d1d57600080fd5b816020840160208301376000602083830101528093505050509250929050565b6000815180845260005b81811015610d6357602081850181015186830182015201610d47565b506000602082860101526020601f19601f83011685010191505092915050565b604081526000610d966040830185610bc9565b828103602084015280845180835260208301915060208160051b8401016020870160005b83811015610dec57601f19868403018552610dd6838351610d3d565b6020958601959093509190910190600101610dba565b509098975050505050505050565b600060208284031215610e0c57600080fd5b610c2182610c41565b602081526000610c216020830184610d3d565b60208082526021908201527f43616c6c6572206973206e6f7420616e20617574686f72697a656420726976656040820152601d60fa1b606082015260800190565b600181811c90821680610e7d57607f821691505b602082108103610e9d57634e487b7160e01b600052602260045260246000fd5b50919050565b601f821115610eed57806000526020600020601f840160051c81016020851015610eca5750805b601f840160051c820191505b81811015610eea5760008155600101610ed6565b50505b505050565b815167ffffffffffffffff811115610f0c57610f0c610c5d565b610f2081610f1a8454610e69565b84610ea3565b6020601f821160018114610f545760008315610f3c5750848201515b600019600385901b1c1916600184901b178455610eea565b600084815260208120601f198516915b82811015610f845787850151825560209485019460019092019101610f64565b5084821015610fa25786840151600019600387901b60f8161c191681555b50505050600190811b01905550565b604081526000610fc46040830185610d3d565b90508260208301529392505050565b634e487b7160e01b600052603260045260246000fd5b8181038181111561100a57634e487b7160e01b600052601160045260246000fd5b92915050565b634e487b7160e01b600052603160045260246000fdfea26469706673582212209adcf9833e983381d9eae486303778b6f1f9a97343d7847c7fc347c58af22bfe64736f6c634300081b0033",
  "linkReferences": {},
  "deployedLinkReferences": {}
}