{
  "_format": "hh-sol-artifact-1",
  "contractName": "Agent",
  "sourceName": "contracts/agent.sol",
  "abi": [
    {
      "inputs": [
        {
          "internalType": "string",
          "name": "_domain",
          "type": "string"
        },
        {
          "internalType": "address",
          "name": "_sponsor",
          "type": "address"
        }
      ],
      "stateMutability": "nonpayable",
      "type": "constructor"
    },
    {
      "anonymous": false,
      "inputs": [
        {
          "indexed": true,
          "internalType": "address",
          "name": "approver",
          "type": "address"
        },
        {
          "indexed": true,
          "internalType": "address",
          "name": "requestor",
          "type": "address"
        },
        {
          "indexed": false,
          "internalType": "string",
          "name": "fileName",
          "type": "string"
        },
        {
          "indexed": false,
          "internalType": "bool",
          "name": "approved",
          "type": "bool"
        },
        {
          "indexed": false,
          "internalType": "uint256",
          "name": "timestamp",
          "type": "uint256"
        }
      ],
      "name": "ApprovalHandled",
      "type": "event"
    },
    {
      "anonymous": false,
      "inputs": [
        {
          "indexed": true,
          "internalType": "address",
          "name": "approver",
          "type": "address"
        },
        {
          "indexed": true,
          "internalType": "address",
          "name": "requestor",
          "type": "address"
        },
        {
          "indexed": false,
          "internalType": "string",
          "name": "fileName",
          "type": "string"
        },
        {
          "indexed": false,
          "internalType": "string",
          "name": "fileHash",
          "type": "string"
        },
        {
          "indexed": false,
          "internalType": "uint256",
          "name": "timestamp",
          "type": "uint256"
        }
      ],
      "name": "ApprovalRequested",
      "type": "event"
    },
    {
      "anonymous": false,
      "inputs": [
        {
          "indexed": true,
          "internalType": "address",
          "name": "owner",
          "type": "address"
        },
        {
          "indexed": false,
          "internalType": "string",
          "name": "publicKey",
          "type": "string"
        },
        {
          "indexed": false,
          "internalType": "string",
          "name": "data",
          "type": "string"
        },
        {
          "indexed": false,
          "internalType": "uint256",
          "name": "timestamp",
          "type": "uint256"
        }
      ],
      "name": "DataWritten",
      "type": "event"
    },
    {
      "anonymous": false,
      "inputs": [
        {
          "indexed": true,
          "internalType": "address",
          "name": "previousOwner",
          "type": "address"
        },
        {
          "indexed": true,
          "internalType": "address",
          "name": "newOwner",
          "type": "address"
        },
        {
          "indexed": false,
          "internalType": "uint256",
          "name": "timestamp",
          "type": "uint256"
        }
      ],
      "name": "OwnershipTransferred",
      "type": "event"
    },
    {
      "inputs": [
        {
          "internalType": "address",
          "name": "addressToAdd",
          "type": "address"
        },
        {
          "internalType": "string",
          "name": "name",
          "type": "string"
        },
        {
          "internalType": "uint8",
          "name": "role",
          "type": "uint8"
        },
        {
          "internalType": "string",
          "name": "meta",
          "type": "string"
        }
      ],
      "name": "addToWhitelist",
      "outputs": [],
      "stateMutability": "nonpayable",
      "type": "function"
    },
    {
      "inputs": [
        {
          "internalType": "address",
          "name": "approverAddress",
          "type": "address"
        },
        {
          "internalType": "string",
          "name": "fileName",
          "type": "string"
        },
        {
          "internalType": "string",
          "name": "fileHash",
          "type": "string"
        },
        {
          "internalType": "string",
          "name": "requestDomain",
          "type": "string"
        }
      ],
      "name": "createApproval",
      "outputs": [],
      "stateMutability": "nonpayable",
      "type": "function"
    },
    {
      "inputs": [],
      "name": "domain",
      "outputs": [
        {
          "internalType": "string",
          "name": "",
          "type": "string"
        }
      ],
      "stateMutability": "view",
      "type": "function"
    },
    {
      "inputs": [
        {
          "internalType": "address",
          "name": "approverAddress",
          "type": "address"
        }
      ],
      "name": "getAllApprovalsForApprover",
      "outputs": [
        {
          "components": [
            {
              "internalType": "address",
              "name": "requestor",
              "type": "address"
            },
            {
              "internalType": "bool",
              "name": "approved",
              "type": "bool"
            },
            {
              "internalType": "string",
              "name": "fileName",
              "type": "string"
            },
            {
              "internalType": "string",
              "name": "fileHash",
              "type": "string"
            },
            {
              "internalType": "uint256",
              "name": "processedAt",
              "type": "uint256"
            },
            {
              "internalType": "bool",
              "name": "exists",
              "type": "bool"
            }
          ],
          "internalType": "struct Agent.ApprovalWithRequestor[]",
          "name": "",
          "type": "tuple[]"
        }
      ],
      "stateMutability": "view",
      "type": "function"
    },
    {
      "inputs": [
        {
          "internalType": "address",
          "name": "requestorAddress",
          "type": "address"
        }
      ],
      "name": "getAllApprovalsForRequestor",
      "outputs": [
        {
          "components": [
            {
              "internalType": "address",
              "name": "requestor",
              "type": "address"
            },
            {
              "internalType": "bool",
              "name": "approved",
              "type": "bool"
            },
            {
              "internalType": "string",
              "name": "fileName",
              "type": "string"
            },
            {
              "internalType": "string",
              "name": "fileHash",
              "type": "string"
            },
            {
              "internalType": "uint256",
              "name": "processedAt",
              "type": "uint256"
            },
            {
              "internalType": "bool",
              "name": "exists",
              "type": "bool"
            }
          ],
          "internalType": "struct Agent.ApprovalWithRequestor[]",
          "name": "",
          "type": "tuple[]"
        }
      ],
      "stateMutability": "view",
      "type": "function"
    },
    {
      "inputs": [
        {
          "internalType": "address",
          "name": "approverAddress",
          "type": "address"
        },
        {
          "internalType": "address",
          "name": "requestorAddress",
          "type": "address"
        }
      ],
      "name": "getApprovalsByAddress",
      "outputs": [
        {
          "components": [
            {
              "internalType": "bool",
              "name": "approved",
              "type": "bool"
            },
            {
              "internalType": "string",
              "name": "fileName",
              "type": "string"
            },
            {
              "internalType": "string",
              "name": "fileHash",
              "type": "string"
            },
            {
              "internalType": "uint256",
              "name": "processedAt",
              "type": "uint256"
            },
            {
              "internalType": "bool",
              "name": "exists",
              "type": "bool"
            }
          ],
          "internalType": "struct Agent.ApprovalRequest[]",
          "name": "",
          "type": "tuple[]"
        }
      ],
      "stateMutability": "view",
      "type": "function"
    },
    {
      "inputs": [],
      "name": "getMessageCount",
      "outputs": [
        {
          "internalType": "uint256",
          "name": "",
          "type": "uint256"
        }
      ],
      "stateMutability": "view",
      "type": "function"
    },
    {
      "inputs": [
        {
          "internalType": "address",
          "name": "wallet",
          "type": "address"
        }
      ],
      "name": "getWhitelist",
      "outputs": [
        {
          "components": [
            {
              "internalType": "address",
              "name": "addr",
              "type": "address"
            },
            {
              "internalType": "string",
              "name": "name",
              "type": "string"
            },
            {
              "internalType": "uint8",
              "name": "role",
              "type": "uint8"
            },
            {
              "internalType": "string",
              "name": "meta",
              "type": "string"
            }
          ],
          "internalType": "struct Agent.WhitelistEntry[]",
          "name": "",
          "type": "tuple[]"
        }
      ],
      "stateMutability": "view",
      "type": "function"
    },
    {
      "inputs": [
        {
          "internalType": "address",
          "name": "wallet",
          "type": "address"
        },
        {
          "internalType": "address",
          "name": "addressToCheck",
          "type": "address"
        }
      ],
      "name": "getWhitelistEntry",
      "outputs": [
        {
          "components": [
            {
              "internalType": "address",
              "name": "addr",
              "type": "address"
            },
            {
              "internalType": "string",
              "name": "name",
              "type": "string"
            },
            {
              "internalType": "uint8",
              "name": "role",
              "type": "uint8"
            },
            {
              "internalType": "string",
              "name": "meta",
              "type": "string"
            }
          ],
          "internalType": "struct Agent.WhitelistEntry",
          "name": "",
          "type": "tuple"
        }
      ],
      "stateMutability": "view",
      "type": "function"
    },
    {
      "inputs": [
        {
          "internalType": "address",
          "name": "requestorAddress",
          "type": "address"
        },
        {
          "internalType": "string",
          "name": "fileName",
          "type": "string"
        },
        {
          "internalType": "bool",
          "name": "approved",
          "type": "bool"
        }
      ],
      "name": "handleApproval",
      "outputs": [],
      "stateMutability": "nonpayable",
      "type": "function"
    },
    {
      "inputs": [
        {
          "internalType": "address",
          "name": "wallet",
          "type": "address"
        },
        {
          "internalType": "address",
          "name": "addressToCheck",
          "type": "address"
        }
      ],
      "name": "isWhitelisted",
      "outputs": [
        {
          "internalType": "bool",
          "name": "",
          "type": "bool"
        }
      ],
      "stateMutability": "view",
      "type": "function"
    },
    {
      "inputs": [],
      "name": "read",
      "outputs": [
        {
          "internalType": "string[]",
          "name": "",
          "type": "string[]"
        }
      ],
      "stateMutability": "view",
      "type": "function"
    },
    {
      "inputs": [
        {
          "internalType": "address",
          "name": "addressToRemove",
          "type": "address"
        }
      ],
      "name": "removeFromWhitelist",
      "outputs": [],
      "stateMutability": "nonpayable",
      "type": "function"
    },
    {
      "inputs": [],
      "name": "sponsor",
      "outputs": [
        {
          "internalType": "address",
          "name": "",
          "type": "address"
        }
      ],
      "stateMutability": "view",
      "type": "function"
    },
    {
      "inputs": [
        {
          "internalType": "address",
          "name": "newOwner",
          "type": "address"
        }
      ],
      "name": "transferOwnership",
      "outputs": [],
      "stateMutability": "nonpayable",
      "type": "function"
    },
    {
      "inputs": [
        {
          "internalType": "address",
          "name": "addressToUpdate",
          "type": "address"
        },
        {
          "internalType": "string",
          "name": "name",
          "type": "string"
        },
        {
          "internalType": "uint8",
          "name": "role",
          "type": "uint8"
        },
        {
          "internalType": "string",
          "name": "meta",
          "type": "string"
        }
      ],
      "name": "updateWhitelistEntry",
      "outputs": [],
      "stateMutability": "nonpayable",
      "type": "function"
    },
    {
      "inputs": [
        {
          "internalType": "string",
          "name": "publicKey",
          "type": "string"
        },
        {
          "internalType": "string",
          "name": "data",
          "type": "string"
        }
      ],
      "name": "write",
      "outputs": [],
      "stateMutability": "nonpayable",
      "type": "function"
    }
  ],
  "bytecode": "0x60a060405234801561001057600080fd5b5060405161386738038061386783398101604081905261002f9161012c565b60008251116100855760405162461bcd60e51b815260206004820152601660248201527f446f6d61696e2063616e6e6f7420626520656d7074790000000000000000000060448201526064015b60405180910390fd5b6001600160a01b0381166100db5760405162461bcd60e51b815260206004820152601e60248201527f53706f6e736f722063616e6e6f74206265207a65726f20616464726573730000604482015260640161007c565b60006100e78382610292565b506001600160a01b031660805250610350565b634e487b7160e01b600052604160045260246000fd5b80516001600160a01b038116811461012757600080fd5b919050565b6000806040838503121561013f57600080fd5b82516001600160401b0381111561015557600080fd5b8301601f8101851361016657600080fd5b80516001600160401b0381111561017f5761017f6100fa565b604051601f8201601f19908116603f011681016001600160401b03811182821017156101ad576101ad6100fa565b6040528181528282016020018710156101c557600080fd5b60005b828110156101e4576020818501810151838301820152016101c8565b5060006020838301015280945050505061020060208401610110565b90509250929050565b600181811c9082168061021d57607f821691505b60208210810361023d57634e487b7160e01b600052602260045260246000fd5b50919050565b601f82111561028d57806000526020600020601f840160051c8101602085101561026a5750805b601f840160051c820191505b8181101561028a5760008155600101610276565b50505b505050565b81516001600160401b038111156102ab576102ab6100fa565b6102bf816102b98454610209565b84610243565b6020601f8211600181146102f357600083156102db5750848201515b600019600385901b1c1916600184901b17845561028a565b600084815260208120601f198516915b828110156103235787850151825560209485019460019092019101610303565b50848210156103415786840151600019600387901b60f8161c191681555b50505050600190811b01905550565b6080516134fc61036b60003960006101d901526134fc6000f3fe608060405234801561001057600080fd5b506004361061010b5760003560e01c80638ab1d681116100a2578063c2fb26a611610071578063c2fb26a61461026f578063c565b77214610284578063caf8c9b0146102a4578063f2fde38b146102b7578063f6ee44cb146102ca57600080fd5b80638ab1d681146102135780639d2c2c7714610226578063a7509eda14610239578063b6b352721461024c57600080fd5b806331933916116100de578063319339161461018157806357de26a41461019f5780636b39a78e146101b457806377c93662146101d457600080fd5b806310ae73dd146101105780631b204716146101255780631e7c01971461014e57806330edc0f514610161575b600080fd5b61012361011e366004612bdc565b6102dd565b005b610138610133366004612c42565b6105cb565b6040516101459190612cbb565b60405180910390f35b61012361015c366004612d69565b6107a3565b61017461016f366004612dd0565b6108d8565b6040516101459190612e48565b33600090815260016020526040902054604051908152602001610145565b6101a7610a98565b6040516101459190612ea1565b6101c76101c2366004612c42565b610b7c565b6040516101459190612efa565b6101fb7f000000000000000000000000000000000000000000000000000000000000000081565b6040516001600160a01b039091168152602001610145565b610123610221366004612dd0565b610e0a565b610123610234366004612f0d565b610f82565b610123610247366004612faf565b6112ce565b61025f61025a366004612c42565b611418565b6040519015158152602001610145565b61027761162e565b6040516101459190613027565b610297610292366004612dd0565b6116bc565b604051610145919061303a565b6101236102b2366004612faf565b611b27565b6101236102c5366004612dd0565b611d48565b6102976102d8366004612dd0565b61256f565b6001600160a01b0383166103385760405162461bcd60e51b815260206004820181905260248201527f526571756573746f722063616e6e6f74206265207a65726f206164647265737360448201526064015b60405180910390fd5b60008251116103855760405162461bcd60e51b815260206004820152601960248201527846696c65206e616d652063616e6e6f7420626520656d70747960381b604482015260640161032f565b3360009081526004602090815260408083206001600160a01b0387168452909152902080546103f65760405162461bcd60e51b815260206004820152601f60248201527f4e6f2072657175657374732066726f6d207468697320726571756573746f7200604482015260640161032f565b6000805b825481101561055d57828181548110610415576104156130ee565b90600052602060002090600502016003015460001480156104735750848051906020012083828154811061044b5761044b6130ee565b9060005260206000209060050201600101604051610469919061313e565b6040518091039020145b15610555578383828154811061048b5761048b6130ee565b906000526020600020906005020160000160006101000a81548160ff021916908315150217905550428382815481106104c6576104c66130ee565b906000526020600020906005020160030181905550856001600160a01b0316336001600160a01b03167f532cb0591b34f8b7dd491dae5df420200e7d868e0eac7eae638ea5d4ce9dffcc858481548110610522576105226130ee565b90600052602060002090600502016001018742604051610544939291906131b3565b60405180910390a36001915061055d565b6001016103fa565b50806105c45760405162461bcd60e51b815260206004820152603060248201527f4e6f20756e70726f636573736564207265717565737420666f756e642077697460448201526f6820746869732066696c65206e616d6560801b606482015260840161032f565b5050505050565b6001600160a01b0380831660009081526004602090815260408083209385168352928152828220805484518184028101840190955280855260609493919290919084015b828210156107965760008481526020908190206040805160a0810190915260058502909101805460ff1615158252600181018054929391929184019161065490613104565b80601f016020809104026020016040519081016040528092919081815260200182805461068090613104565b80156106cd5780601f106106a2576101008083540402835291602001916106cd565b820191906000526020600020905b8154815290600101906020018083116106b057829003601f168201915b505050505081526020016002820180546106e690613104565b80601f016020809104026020016040519081016040528092919081815260200182805461071290613104565b801561075f5780601f106107345761010080835404028352916020019161075f565b820191906000526020600020905b81548152906001019060200180831161074257829003601f168201915b5050509183525050600382015460208083019190915260049092015460ff161515604090910152908252600192909201910161060f565b5050505090505b92915050565b60008251116107f45760405162461bcd60e51b815260206004820152601a60248201527f5075626c6963206b65792063616e6e6f7420626520656d707479000000000000604482015260640161032f565b600081511161083c5760405162461bcd60e51b8152602060048201526014602482015273446174612063616e6e6f7420626520656d70747960601b604482015260640161032f565b3360009081526001602081815260408320805492830181558352909120016108648282613290565b503360009081526002602090815260408220805460018101825590835291200161088e8382613290565b50336001600160a01b03167fc5d820f5092964c33342d79084a41f152b1071ffc9965eb19b078805775f4ae48383426040516108cc93929190613351565b60405180910390a25050565b6001600160a01b0381166000908152600360209081526040808320805482518185028101850190935280835260609492939192909184015b82821015610a8d57600084815260209081902060408051608081019091526004850290910180546001600160a01b03168252600181018054929391929184019161095990613104565b80601f016020809104026020016040519081016040528092919081815260200182805461098590613104565b80156109d25780601f106109a7576101008083540402835291602001916109d2565b820191906000526020600020905b8154815290600101906020018083116109b557829003601f168201915b5050509183525050600282015460ff1660208201526003820180546040909201916109fc90613104565b80601f0160208091040260200160405190810160405280929190818152602001828054610a2890613104565b8015610a755780601f10610a4a57610100808354040283529160200191610a75565b820191906000526020600020905b815481529060010190602001808311610a5857829003601f168201915b50505050508152505081526020019060010190610910565b505050509050919050565b336000908152600160209081526040808320805482518185028101850190935280835260609492939192909184015b82821015610b73578382906000526020600020018054610ae690613104565b80601f0160208091040260200160405190810160405280929190818152602001828054610b1290613104565b8015610b5f5780601f10610b3457610100808354040283529160200191610b5f565b820191906000526020600020905b815481529060010190602001808311610b4257829003601f168201915b505050505081526020019060010190610ac7565b50505050905090565b60408051608081018252600080825260606020808401829052838501839052818401919091526001600160a01b0386168252600381528382208054855181840281018401909652808652939492939091849084015b82821015610d4e57600084815260209081902060408051608081019091526004850290910180546001600160a01b031682526001810180549293919291840191610c1a90613104565b80601f0160208091040260200160405190810160405280929190818152602001828054610c4690613104565b8015610c935780601f10610c6857610100808354040283529160200191610c93565b820191906000526020600020905b815481529060010190602001808311610c7657829003601f168201915b5050509183525050600282015460ff166020820152600382018054604090920191610cbd90613104565b80601f0160208091040260200160405190810160405280929190818152602001828054610ce990613104565b8015610d365780601f10610d0b57610100808354040283529160200191610d36565b820191906000526020600020905b815481529060010190602001808311610d1957829003601f168201915b50505050508152505081526020019060010190610bd1565b50505050905060005b8151811015610dc157836001600160a01b0316828281518110610d7c57610d7c6130ee565b6020026020010151600001516001600160a01b031603610db957818181518110610da857610da86130ee565b60200260200101519250505061079d565b600101610d57565b5060405162461bcd60e51b815260206004820152601860248201527f41646472657373206e6f7420696e2077686974656c6973740000000000000000604482015260640161032f565b336000908152600360205260408120905b8154811015610f7d57826001600160a01b0316828281548110610e4057610e406130ee565b60009182526020909120600490910201546001600160a01b031603610f755781548290610e6f9060019061339d565b81548110610e7f57610e7f6130ee565b9060005260206000209060040201828281548110610e9f57610e9f6130ee565b60009182526020909120825460049092020180546001600160a01b0319166001600160a01b03909216919091178155600180820190610ee0908401826133b0565b50600282810154908201805460ff191660ff909216919091179055600380820190610f0d908401826133b0565b5090505081805480610f2157610f21613484565b60008281526020812060046000199093019283020180546001600160a01b031916815590610f5260018301826129c5565b60028201805460ff19169055610f6c6003830160006129c5565b50509055505050565b600101610e1b565b505050565b6001600160a01b038416610fd85760405162461bcd60e51b815260206004820152601f60248201527f417070726f7665722063616e6e6f74206265207a65726f206164647265737300604482015260640161032f565b60008351116110255760405162461bcd60e51b815260206004820152601960248201527846696c65206e616d652063616e6e6f7420626520656d70747960381b604482015260640161032f565b60008251116110765760405162461bcd60e51b815260206004820152601960248201527f46696c6520686173682063616e6e6f7420626520656d70747900000000000000604482015260640161032f565b6001600160a01b0384166000908152600560205260408120815b81548110156110e057336001600160a01b03168282815481106110b5576110b56130ee565b6000918252602090912001546001600160a01b0316036110d857600192506110e0565b600101611090565b508161111f576001600160a01b03861660009081526005602090815260408220805460018101825590835291200180546001600160a01b031916331790555b336000908152600660205260408120815b815481101561118057886001600160a01b0316828281548110611155576111556130ee565b6000918252602090912001546001600160a01b0316036111785760019250611180565b600101611130565b50816111bf573360009081526006602090815260408220805460018101825590835291200180546001600160a01b0319166001600160a01b038a161790555b6040805160a081018252600080825260208083018b81528385018b9052606084018390526001608085018190526001600160a01b038e16845260048352858420338552835294832080548087018255908452919092208351600590920201805460ff1916911515919091178155905191928392908201906112409082613290565b50604082015160028201906112559082613290565b50606082015160038201556080909101516004909101805460ff191691151591909117905560405133906001600160a01b038b16907f77b5f9c2d9c3bd8746beb63af36552109a2f92f947920ba0994acb2deb3e3b8b906112bb908c908c904290613351565b60405180910390a3505050505050505050565b60048260ff161115806112e457508160ff1660ff145b6113415760405162461bcd60e51b815260206004820152602860248201527f496e76616c696420726f6c653a206d75737420626520302d34206f72203235356044820152672028756e7365742960c01b606482015260840161032f565b60006040518060800160405280866001600160a01b031681526020018581526020018460ff1660ff146113745784611377565b60005b60ff1681526020908101849052336000908152600382526040812080546001808201835591835291839020845160049093020180546001600160a01b0319166001600160a01b0390931692909217825591830151929350839290918201906113df9082613290565b50604082015160028201805460ff191660ff9092169190911790556060820151600382019061140e9082613290565b5050505050505050565b6001600160a01b038216600090815260036020908152604080832080548251818502810185019093528083528493849084015b828210156115c857600084815260209081902060408051608081019091526004850290910180546001600160a01b03168252600181018054929391929184019161149490613104565b80601f01602080910402602001604051908101604052809291908181526020018280546114c090613104565b801561150d5780601f106114e25761010080835404028352916020019161150d565b820191906000526020600020905b8154815290600101906020018083116114f057829003601f168201915b5050509183525050600282015460ff16602082015260038201805460409092019161153790613104565b80601f016020809104026020016040519081016040528092919081815260200182805461156390613104565b80156115b05780601f10611585576101008083540402835291602001916115b0565b820191906000526020600020905b81548152906001019060200180831161159357829003601f168201915b5050505050815250508152602001906001019061144b565b50505050905060005b815181101561162357836001600160a01b03168282815181106115f6576115f66130ee565b6020026020010151600001516001600160a01b03160361161b5760019250505061079d565b6001016115d1565b506000949350505050565b6000805461163b90613104565b80601f016020809104026020016040519081016040528092919081815260200182805461166790613104565b80156116b45780601f10611689576101008083540402835291602001916116b4565b820191906000526020600020905b81548152906001019060200180831161169757829003601f168201915b505050505081565b6001600160a01b038116600090815260066020908152604080832080548251818502810185019093528083526060949383018282801561172557602002820191906000526020600020905b81546001600160a01b03168152600190910190602001808311611707575b505050505090506000805b82518110156117b3576004600084838151811061174f5761174f6130ee565b60200260200101516001600160a01b03166001600160a01b031681526020019081526020016000206000866001600160a01b03166001600160a01b0316815260200190815260200160002080549050826117a9919061349a565b9150600101611730565b506000816001600160401b038111156117ce576117ce612b39565b60405190808252806020026020018201604052801561180757816020015b6117f4612a02565b8152602001906001900390816117ec5790505b5090506000805b8451811015611b1c57600085828151811061182b5761182b6130ee565b6020908102919091018101516001600160a01b038082166000908152600484526040808220928d1682529184528181208054835181870281018701909452808452939550909391929091849084015b82821015611a015760008481526020908190206040805160a0810190915260058502909101805460ff161515825260018101805492939192918401916118bf90613104565b80601f01602080910402602001604051908101604052809291908181526020018280546118eb90613104565b80156119385780601f1061190d57610100808354040283529160200191611938565b820191906000526020600020905b81548152906001019060200180831161191b57829003601f168201915b5050505050815260200160028201805461195190613104565b80601f016020809104026020016040519081016040528092919081815260200182805461197d90613104565b80156119ca5780601f1061199f576101008083540402835291602001916119ca565b820191906000526020600020905b8154815290600101906020018083116119ad57829003601f168201915b5050509183525050600382015460208083019190915260049092015460ff161515604090910152908252600192909201910161187a565b50505050905060005b8151811015611b11576040518060c00160405280846001600160a01b03168152602001838381518110611a3f57611a3f6130ee565b60200260200101516000015115158152602001838381518110611a6457611a646130ee565b6020026020010151602001518152602001838381518110611a8757611a876130ee565b6020026020010151604001518152602001838381518110611aaa57611aaa6130ee565b6020026020010151606001518152602001838381518110611acd57611acd6130ee565b6020026020010151608001511515815250868681518110611af057611af06130ee565b60200260200101819052508480611b06906134ad565b955050600101611a0a565b50505060010161180e565b509095945050505050565b60048260ff16111580611b3d57508160ff1660ff145b611ba25760405162461bcd60e51b815260206004820152603060248201527f496e76616c696420726f6c653a206d75737420626520302d34206f722032353560448201526f20286b656570206578697374696e672960801b606482015260840161032f565b336000908152600360205260408120905b8154811015611d4057856001600160a01b0316828281548110611bd857611bd86130ee565b60009182526020909120600490910201546001600160a01b031603611d385760408051808201909152600581526304b4545560dc1b6020918201528551908601207fb0837273b2da8502395a7160f0bf01f6f8b7a45d6441089eea6b5d9f33b8399114611c715784828281548110611c5257611c526130ee565b90600052602060002090600402016001019081611c6f9190613290565b505b8360ff1660ff14611cb95783828281548110611c8f57611c8f6130ee565b906000526020600020906004020160020160006101000a81548160ff021916908360ff1602179055505b60408051808201909152600581526304b4545560dc1b6020918201528351908401207fb0837273b2da8502395a7160f0bf01f6f8b7a45d6441089eea6b5d9f33b8399114611d335782828281548110611d1457611d146130ee565b90600052602060002090600402016003019081611d319190613290565b505b611d40565b600101611bb3565b505050505050565b6001600160a01b038116611d9e5760405162461bcd60e51b815260206004820181905260248201527f4e6577206f776e65722063616e6e6f74206265207a65726f2061646472657373604482015260640161032f565b336001600160a01b03821603611df65760405162461bcd60e51b815260206004820152601760248201527f43616e6e6f74207472616e7366657220746f2073656c66000000000000000000604482015260640161032f565b33600090815260016020526040902054611e485760405162461bcd60e51b81526020600482015260136024820152722737903230ba30903a37903a3930b739b332b960691b604482015260640161032f565b33600090815260016020526040812054905b81811015611f18576001600160a01b0383166000908152600160205260408082203383529120805483908110611e9257611e926130ee565b600091825260208083208454600181018655948452922090920191611eb89101826133b0565b506001600160a01b0383166000908152600260205260408082203383529120805483908110611ee957611ee96130ee565b600091825260208083208454600181018655948452922090920191611f0f9101826133b0565b50600101611e5a565b5033600090815260066020908152604080832080548251818502810185019093528083529192909190830182828015611f7a57602002820191906000526020600020905b81546001600160a01b03168152600190910190602001808311611f5c575b5050505050905060005b81518110156124e1576000828281518110611fa157611fa16130ee565b6020908102919091018101516001600160a01b0381166000908152600483526040808220338352845280822080548251818702810187019093528083529395509193909290849084015b828210156121725760008481526020908190206040805160a0810190915260058502909101805460ff1615158252600181018054929391929184019161203090613104565b80601f016020809104026020016040519081016040528092919081815260200182805461205c90613104565b80156120a95780601f1061207e576101008083540402835291602001916120a9565b820191906000526020600020905b81548152906001019060200180831161208c57829003601f168201915b505050505081526020016002820180546120c290613104565b80601f01602080910402602001604051908101604052809291908181526020018280546120ee90613104565b801561213b5780601f106121105761010080835404028352916020019161213b565b820191906000526020600020905b81548152906001019060200180831161211e57829003601f168201915b5050509183525050600382015460208083019190915260049092015460ff1615156040909101529082526001929092019101611feb565b50505050905060005b8151811015612247576001600160a01b038084166000908152600460209081526040808320938b1683529290522082518390839081106121bd576121bd6130ee565b6020908102919091018101518254600180820185556000948552938390208251600590920201805460ff19169115159190911781559181015190928201906122059082613290565b506040820151600282019061221a9082613290565b50606082015160038201556080909101516004909101805460ff191691151591909117905560010161217b565b506001600160a01b038216600090815260056020526040812090805b82548110156122af57886001600160a01b0316838281548110612288576122886130ee565b6000918252602090912001546001600160a01b0316036122a757600191505b600101612263565b5060005b82548110156123af57336001600160a01b03168382815481106122d8576122d86130ee565b6000918252602090912001546001600160a01b0316036123a757825483906123029060019061339d565b81548110612312576123126130ee565b9060005260206000200160009054906101000a90046001600160a01b0316838281548110612342576123426130ee565b9060005260206000200160006101000a8154816001600160a01b0302191690836001600160a01b031602179055508280548061238057612380613484565b600082815260209020810160001990810180546001600160a01b03191690550190556123af565b6001016122b3565b50806123f4576001600160a01b0384811660009081526005602090815260408220805460018101825590835291200180546001600160a01b031916918a169190911790555b6001600160a01b0388166000908152600660205260408120815b815481101561245e57866001600160a01b0316828281548110612433576124336130ee565b6000918252602090912001546001600160a01b031603612456576001925061245e565b60010161240e565b50816124a3576001600160a01b038a811660009081526006602090815260408220805460018101825590835291200180546001600160a01b0319169188169190911790555b6001600160a01b038616600090815260046020908152604080832033845290915281206124cf91612a45565b505060019094019350611f8492505050565b503360009081526001602052604081206124fa91612a66565b33600090815260026020526040812061251291612a66565b33600090815260066020526040812061252a91612a84565b6040514281526001600160a01b0384169033907fc13a1166d81cd3b0b352a367aebab95f3a6f6bc695fdab8e9a9d335239c3861b9060200160405180910390a3505050565b6001600160a01b03811660009081526005602090815260408083208054825181850281018501909352808352606094938301828280156125d857602002820191906000526020600020905b81546001600160a01b031681526001909101906020018083116125ba575b505050505090506000805b825181101561265c576001600160a01b0385166000908152600460205260408120845190919085908490811061261b5761261b6130ee565b60200260200101516001600160a01b03166001600160a01b031681526020019081526020016000208054905082612652919061349a565b91506001016125e3565b506000816001600160401b0381111561267757612677612b39565b6040519080825280602002602001820160405280156126b057816020015b61269d612a02565b8152602001906001900390816126955790505b5090506000805b8451811015611b1c5760008582815181106126d4576126d46130ee565b6020908102919091018101516001600160a01b03808b16600090815260048452604080822092841682529184528181208054835181870281018701909452808452939550909391929091849084015b828210156128aa5760008481526020908190206040805160a0810190915260058502909101805460ff1615158252600181018054929391929184019161276890613104565b80601f016020809104026020016040519081016040528092919081815260200182805461279490613104565b80156127e15780601f106127b6576101008083540402835291602001916127e1565b820191906000526020600020905b8154815290600101906020018083116127c457829003601f168201915b505050505081526020016002820180546127fa90613104565b80601f016020809104026020016040519081016040528092919081815260200182805461282690613104565b80156128735780601f1061284857610100808354040283529160200191612873565b820191906000526020600020905b81548152906001019060200180831161285657829003601f168201915b5050509183525050600382015460208083019190915260049092015460ff1615156040909101529082526001929092019101612723565b50505050905060005b81518110156129ba576040518060c00160405280846001600160a01b031681526020018383815181106128e8576128e86130ee565b6020026020010151600001511515815260200183838151811061290d5761290d6130ee565b6020026020010151602001518152602001838381518110612930576129306130ee565b6020026020010151604001518152602001838381518110612953576129536130ee565b6020026020010151606001518152602001838381518110612976576129766130ee565b6020026020010151608001511515815250868681518110612999576129996130ee565b602002602001018190525084806129af906134ad565b9550506001016128b3565b5050506001016126b7565b5080546129d190613104565b6000825580601f106129e1575050565b601f0160209004906000526020600020908101906129ff9190612a9e565b50565b6040518060c0016040528060006001600160a01b031681526020016000151581526020016060815260200160608152602001600081526020016000151581525090565b50805460008255600502906000526020600020908101906129ff9190612ab7565b50805460008255906000526020600020908101906129ff9190612b00565b50805460008255906000526020600020908101906129ff91905b5b80821115612ab35760008155600101612a9f565b5090565b80821115612ab357805460ff191681556000612ad660018301826129c5565b612ae46002830160006129c5565b506000600382015560048101805460ff19169055600501612ab7565b80821115612ab3576000612b1482826129c5565b50600101612b00565b80356001600160a01b0381168114612b3457600080fd5b919050565b634e487b7160e01b600052604160045260246000fd5b600082601f830112612b6057600080fd5b81356001600160401b03811115612b7957612b79612b39565b604051601f8201601f19908116603f011681016001600160401b0381118282101715612ba757612ba7612b39565b604052818152838201602001851015612bbf57600080fd5b816020850160208301376000918101602001919091529392505050565b600080600060608486031215612bf157600080fd5b612bfa84612b1d565b925060208401356001600160401b03811115612c1557600080fd5b612c2186828701612b4f565b92505060408401358015158114612c3757600080fd5b809150509250925092565b60008060408385031215612c5557600080fd5b612c5e83612b1d565b9150612c6c60208401612b1d565b90509250929050565b6000815180845260005b81811015612c9b57602081850181015186830182015201612c7f565b506000602082860101526020601f19601f83011685010191505092915050565b6000602082016020835280845180835260408501915060408160051b86010192506020860160005b82811015612d5d57603f198786030184528151805115158652602081015160a06020880152612d1560a0880182612c75565b905060408201518782036040890152612d2e8282612c75565b606084810151908a01526080938401511515939098019290925250506020938401939190910190600101612ce3565b50929695505050505050565b60008060408385031215612d7c57600080fd5b82356001600160401b03811115612d9257600080fd5b612d9e85828601612b4f565b92505060208301356001600160401b03811115612dba57600080fd5b612dc685828601612b4f565b9150509250929050565b600060208284031215612de257600080fd5b612deb82612b1d565b9392505050565b60018060a01b0381511682526000602082015160806020850152612e196080850182612c75565b905060ff604084015116604085015260608301518482036060860152612e3f8282612c75565b95945050505050565b6000602082016020835280845180835260408501915060408160051b86010192506020860160005b82811015612d5d57603f19878603018452612e8c858351612df2565b94506020938401939190910190600101612e70565b6000602082016020835280845180835260408501915060408160051b86010192506020860160005b82811015612d5d57603f19878603018452612ee5858351612c75565b94506020938401939190910190600101612ec9565b602081526000612deb6020830184612df2565b60008060008060808587031215612f2357600080fd5b612f2c85612b1d565b935060208501356001600160401b03811115612f4757600080fd5b612f5387828801612b4f565b93505060408501356001600160401b03811115612f6f57600080fd5b612f7b87828801612b4f565b92505060608501356001600160401b03811115612f9757600080fd5b612fa387828801612b4f565b91505092959194509250565b60008060008060808587031215612fc557600080fd5b612fce85612b1d565b935060208501356001600160401b03811115612fe957600080fd5b612ff587828801612b4f565b935050604085013560ff8116811461300c57600080fd5b915060608501356001600160401b03811115612f9757600080fd5b602081526000612deb6020830184612c75565b6000602082016020835280845180835260408501915060408160051b86010192506020860160005b82811015612d5d57603f19878603018452815160018060a01b038151168652602081015115156020870152604081015160c060408801526130a660c0880182612c75565b9050606082015187820360608901526130bf8282612c75565b608084810151908a015260a0938401511515939098019290925250506020938401939190910190600101613062565b634e487b7160e01b600052603260045260246000fd5b600181811c9082168061311857607f821691505b60208210810361313857634e487b7160e01b600052602260045260246000fd5b50919050565b600080835461314c81613104565b6001821680156131635760018114613178576131a8565b60ff19831686528115158202860193506131a8565b86600052602060002060005b838110156131a057815488820152600190910190602001613184565b505081860193505b509195945050505050565b6060815260008085546131c581613104565b80606086015260018216600081146131e4576001811461320057613234565b60ff1983166080870152608082151560051b8701019350613234565b88600052602060002060005b8381101561322b5781548882016080015260019091019060200161320c565b87016080019450505b50505093151560208301525060400152919050565b601f821115610f7d57806000526020600020601f840160051c810160208510156132705750805b601f840160051c820191505b818110156105c4576000815560010161327c565b81516001600160401b038111156132a9576132a9612b39565b6132bd816132b78454613104565b84613249565b6020601f8211600181146132f457600083156132d95750848201515b600184901b600019600386901b1c198216175b8555506105c4565b600084815260208120601f198516915b828110156133245787850151825560209485019460019092019101613304565b50848210156133425786840151600019600387901b60f8161c191681555b50505050600190811b01905550565b6060815260006133646060830186612c75565b82810360208401526133768186612c75565b915050826040830152949350505050565b634e487b7160e01b600052601160045260246000fd5b8181038181111561079d5761079d613387565b8181036133bb575050565b6133c58254613104565b6001600160401b038111156133dc576133dc612b39565b6133ea816132b78454613104565b6000601f82116001811461341c57600083156132d9575081850154600184901b600019600386901b1c198216176132ec565b600085815260209020601f19841690600086815260209020845b838110156134565782860154825560019586019590910190602001613436565b50858310156134745781850154600019600388901b60f8161c191681555b5050505050600190811b01905550565b634e487b7160e01b600052603160045260246000fd5b8082018082111561079d5761079d613387565b6000600182016134bf576134bf613387565b506001019056fea26469706673582212203cb8799aff05c9da940689bad17da6ef60c815937ef5ce314ff07051282ef30264736f6c634300081b0033",
  "linkReferences": {},
  "deployedLinkReferences": {}
}