{
  "_format": "hh-sol-artifact-1",
  "contractName": "Agent",
  "sourceName": "contracts/agent.sol",
  "abi": [
    {
      "anonymous": false,
      "inputs": [
        {
          "indexed": true,
          "internalType": "address",
          "name": "approver",
          "type": "address"
        },
        {
          "indexed": true,
          "internalType": "address",
          "name": "requestor",
          "type": "address"
        },
        {
          "indexed": false,
          "internalType": "string",
          "name": "fileName",
          "type": "string"
        },
        {
          "indexed": false,
          "internalType": "bool",
          "name": "approved",
          "type": "bool"
        },
        {
          "indexed": false,
          "internalType": "uint256",
          "name": "timestamp",
          "type": "uint256"
        }
      ],
      "name": "ApprovalHandled",
      "type": "event"
    },
    {
      "anonymous": false,
      "inputs": [
        {
          "indexed": true,
          "internalType": "address",
          "name": "approver",
          "type": "address"
        },
        {
          "indexed": true,
          "internalType": "address",
          "name": "requestor",
          "type": "address"
        },
        {
          "indexed": false,
          "internalType": "string",
          "name": "fileName",
          "type": "string"
        },
        {
          "indexed": false,
          "internalType": "string",
          "name": "fileHash",
          "type": "string"
        },
        {
          "indexed": false,
          "internalType": "uint256",
          "name": "timestamp",
          "type": "uint256"
        }
      ],
      "name": "ApprovalRequested",
      "type": "event"
    },
    {
      "anonymous": false,
      "inputs": [
        {
          "indexed": true,
          "internalType": "address",
          "name": "owner",
          "type": "address"
        },
        {
          "indexed": false,
          "internalType": "string",
          "name": "publicKey",
          "type": "string"
        },
        {
          "indexed": false,
          "internalType": "string",
          "name": "data",
          "type": "string"
        },
        {
          "indexed": false,
          "internalType": "uint256",
          "name": "timestamp",
          "type": "uint256"
        }
      ],
      "name": "DataWritten",
      "type": "event"
    },
    {
      "anonymous": false,
      "inputs": [
        {
          "indexed": true,
          "internalType": "address",
          "name": "previousOwner",
          "type": "address"
        },
        {
          "indexed": true,
          "internalType": "address",
          "name": "newOwner",
          "type": "address"
        },
        {
          "indexed": false,
          "internalType": "uint256",
          "name": "timestamp",
          "type": "uint256"
        }
      ],
      "name": "OwnershipTransferred",
      "type": "event"
    },
    {
      "inputs": [
        {
          "internalType": "address",
          "name": "addressToAdd",
          "type": "address"
        },
        {
          "internalType": "string",
          "name": "domain",
          "type": "string"
        }
      ],
      "name": "addToWhitelist",
      "outputs": [],
      "stateMutability": "nonpayable",
      "type": "function"
    },
    {
      "inputs": [
        {
          "internalType": "address",
          "name": "approverAddress",
          "type": "address"
        },
        {
          "internalType": "string",
          "name": "fileName",
          "type": "string"
        },
        {
          "internalType": "string",
          "name": "fileHash",
          "type": "string"
        },
        {
          "internalType": "string",
          "name": "domain",
          "type": "string"
        }
      ],
      "name": "createApproval",
      "outputs": [],
      "stateMutability": "nonpayable",
      "type": "function"
    },
    {
      "inputs": [
        {
          "internalType": "address",
          "name": "approverAddress",
          "type": "address"
        }
      ],
      "name": "getAllApprovalsForApprover",
      "outputs": [
        {
          "components": [
            {
              "internalType": "address",
              "name": "requestor",
              "type": "address"
            },
            {
              "internalType": "bool",
              "name": "approved",
              "type": "bool"
            },
            {
              "internalType": "string",
              "name": "fileName",
              "type": "string"
            },
            {
              "internalType": "string",
              "name": "fileHash",
              "type": "string"
            },
            {
              "internalType": "uint256",
              "name": "processedAt",
              "type": "uint256"
            },
            {
              "internalType": "bool",
              "name": "exists",
              "type": "bool"
            }
          ],
          "internalType": "struct Agent.ApprovalWithRequestor[]",
          "name": "",
          "type": "tuple[]"
        }
      ],
      "stateMutability": "view",
      "type": "function"
    },
    {
      "inputs": [
        {
          "internalType": "address",
          "name": "requestorAddress",
          "type": "address"
        }
      ],
      "name": "getAllApprovalsForRequestor",
      "outputs": [
        {
          "components": [
            {
              "internalType": "address",
              "name": "requestor",
              "type": "address"
            },
            {
              "internalType": "bool",
              "name": "approved",
              "type": "bool"
            },
            {
              "internalType": "string",
              "name": "fileName",
              "type": "string"
            },
            {
              "internalType": "string",
              "name": "fileHash",
              "type": "string"
            },
            {
              "internalType": "uint256",
              "name": "processedAt",
              "type": "uint256"
            },
            {
              "internalType": "bool",
              "name": "exists",
              "type": "bool"
            }
          ],
          "internalType": "struct Agent.ApprovalWithRequestor[]",
          "name": "",
          "type": "tuple[]"
        }
      ],
      "stateMutability": "view",
      "type": "function"
    },
    {
      "inputs": [
        {
          "internalType": "address",
          "name": "approverAddress",
          "type": "address"
        },
        {
          "internalType": "address",
          "name": "requestorAddress",
          "type": "address"
        }
      ],
      "name": "getApprovalsByAddress",
      "outputs": [
        {
          "components": [
            {
              "internalType": "bool",
              "name": "approved",
              "type": "bool"
            },
            {
              "internalType": "string",
              "name": "fileName",
              "type": "string"
            },
            {
              "internalType": "string",
              "name": "fileHash",
              "type": "string"
            },
            {
              "internalType": "uint256",
              "name": "processedAt",
              "type": "uint256"
            },
            {
              "internalType": "bool",
              "name": "exists",
              "type": "bool"
            }
          ],
          "internalType": "struct Agent.ApprovalRequest[]",
          "name": "",
          "type": "tuple[]"
        }
      ],
      "stateMutability": "view",
      "type": "function"
    },
    {
      "inputs": [],
      "name": "getMessageCount",
      "outputs": [
        {
          "internalType": "uint256",
          "name": "",
          "type": "uint256"
        }
      ],
      "stateMutability": "view",
      "type": "function"
    },
    {
      "inputs": [
        {
          "internalType": "address",
          "name": "wallet",
          "type": "address"
        },
        {
          "internalType": "string",
          "name": "domain",
          "type": "string"
        }
      ],
      "name": "getWhitelist",
      "outputs": [
        {
          "internalType": "address[]",
          "name": "",
          "type": "address[]"
        }
      ],
      "stateMutability": "view",
      "type": "function"
    },
    {
      "inputs": [
        {
          "internalType": "address",
          "name": "requestorAddress",
          "type": "address"
        },
        {
          "internalType": "string",
          "name": "fileName",
          "type": "string"
        },
        {
          "internalType": "bool",
          "name": "approved",
          "type": "bool"
        }
      ],
      "name": "handleApproval",
      "outputs": [],
      "stateMutability": "nonpayable",
      "type": "function"
    },
    {
      "inputs": [
        {
          "internalType": "address",
          "name": "wallet",
          "type": "address"
        },
        {
          "internalType": "string",
          "name": "domain",
          "type": "string"
        },
        {
          "internalType": "address",
          "name": "addressToCheck",
          "type": "address"
        }
      ],
      "name": "isWhitelisted",
      "outputs": [
        {
          "internalType": "bool",
          "name": "",
          "type": "bool"
        }
      ],
      "stateMutability": "view",
      "type": "function"
    },
    {
      "inputs": [],
      "name": "read",
      "outputs": [
        {
          "internalType": "string[]",
          "name": "",
          "type": "string[]"
        }
      ],
      "stateMutability": "view",
      "type": "function"
    },
    {
      "inputs": [
        {
          "internalType": "address",
          "name": "addressToRemove",
          "type": "address"
        },
        {
          "internalType": "string",
          "name": "domain",
          "type": "string"
        }
      ],
      "name": "removeFromWhitelist",
      "outputs": [],
      "stateMutability": "nonpayable",
      "type": "function"
    },
    {
      "inputs": [
        {
          "internalType": "address",
          "name": "newOwner",
          "type": "address"
        }
      ],
      "name": "transferOwnership",
      "outputs": [],
      "stateMutability": "nonpayable",
      "type": "function"
    },
    {
      "inputs": [
        {
          "internalType": "string",
          "name": "publicKey",
          "type": "string"
        },
        {
          "internalType": "string",
          "name": "data",
          "type": "string"
        }
      ],
      "name": "write",
      "outputs": [],
      "stateMutability": "nonpayable",
      "type": "function"
    }
  ],
  "bytecode": "0x6080604052348015600f57600080fd5b50612b228061001f6000396000f3fe608060405234801561001057600080fd5b50600436106100cf5760003560e01c806357de26a41161008c578063b33a0af111610066578063b33a0af1146101b4578063c565b772146101d4578063f2fde38b146101f4578063f6ee44cb1461020757600080fd5b806357de26a414610169578063956f0f8f1461017e5780639d2c2c77146101a157600080fd5b8063079184dd146100d457806310ae73dd146100e95780631a533daa146100fc5780631b2047161461010f5780631e7c019714610138578063319339161461014b575b600080fd5b6100e76100e2366004612256565b61021a565b005b6100e76100f73660046122a3565b61034c565b6100e761010a366004612256565b61063a565b61012261011d366004612309565b61069b565b60405161012f919061238c565b60405180910390f35b6100e761014636600461243a565b610873565b3360009081526020819052604090205460405190815260200161012f565b6101716109a6565b60405161012f919061248b565b61019161018c3660046124e4565b610a88565b604051901515815260200161012f565b6100e76101af366004612541565b610b73565b6101c76101c2366004612256565b610ebf565b60405161012f91906125e3565b6101e76101e2366004612624565b610f53565b60405161012f919061263f565b6100e7610202366004612624565b6113be565b6101e7610215366004612624565b611be5565b3360009081526002602052604080822090516102379084906126f3565b9081526020016040518091039020905060005b815481101561034657836001600160a01b031682828154811061026f5761026f61270f565b6000918252602090912001546001600160a01b03160361033e57815482906102999060019061273b565b815481106102a9576102a961270f565b9060005260206000200160009054906101000a90046001600160a01b03168282815481106102d9576102d961270f565b9060005260206000200160006101000a8154816001600160a01b0302191690836001600160a01b03160217905550818054806103175761031761274e565b600082815260209020810160001990810180546001600160a01b0319169055019055610346565b60010161024a565b50505050565b6001600160a01b0383166103a75760405162461bcd60e51b815260206004820181905260248201527f526571756573746f722063616e6e6f74206265207a65726f206164647265737360448201526064015b60405180910390fd5b60008251116103f45760405162461bcd60e51b815260206004820152601960248201527846696c65206e616d652063616e6e6f7420626520656d70747960381b604482015260640161039e565b3360009081526003602090815260408083206001600160a01b0387168452909152902080546104655760405162461bcd60e51b815260206004820152601f60248201527f4e6f2072657175657374732066726f6d207468697320726571756573746f7200604482015260640161039e565b6000805b82548110156105cc578281815481106104845761048461270f565b90600052602060002090600502016003015460001480156104e2575084805190602001208382815481106104ba576104ba61270f565b90600052602060002090600502016001016040516104d8919061279e565b6040518091039020145b156105c457838382815481106104fa576104fa61270f565b906000526020600020906005020160000160006101000a81548160ff021916908315150217905550428382815481106105355761053561270f565b906000526020600020906005020160030181905550856001600160a01b0316336001600160a01b03167f532cb0591b34f8b7dd491dae5df420200e7d868e0eac7eae638ea5d4ce9dffcc8584815481106105915761059161270f565b906000526020600020906005020160010187426040516105b393929190612813565b60405180910390a3600191506105cc565b600101610469565b50806106335760405162461bcd60e51b815260206004820152603060248201527f4e6f20756e70726f636573736564207265717565737420666f756e642077697460448201526f6820746869732066696c65206e616d6560801b606482015260840161039e565b5050505050565b336000908152600260205260409081902090516106589083906126f3565b90815260405160209181900382019020805460018101825560009182529190200180546001600160a01b0319166001600160a01b03939093169290921790915550565b6001600160a01b0380831660009081526003602090815260408083209385168352928152828220805484518184028101840190955280855260609493919290919084015b828210156108665760008481526020908190206040805160a0810190915260058502909101805460ff1615158252600181018054929391929184019161072490612764565b80601f016020809104026020016040519081016040528092919081815260200182805461075090612764565b801561079d5780601f106107725761010080835404028352916020019161079d565b820191906000526020600020905b81548152906001019060200180831161078057829003601f168201915b505050505081526020016002820180546107b690612764565b80601f01602080910402602001604051908101604052809291908181526020018280546107e290612764565b801561082f5780601f106108045761010080835404028352916020019161082f565b820191906000526020600020905b81548152906001019060200180831161081257829003601f168201915b5050509183525050600382015460208083019190915260049092015460ff16151560409091015290825260019290920191016106df565b5050505090505b92915050565b60008251116108c45760405162461bcd60e51b815260206004820152601a60248201527f5075626c6963206b65792063616e6e6f7420626520656d707479000000000000604482015260640161039e565b600081511161090c5760405162461bcd60e51b8152602060048201526014602482015273446174612063616e6e6f7420626520656d70747960601b604482015260640161039e565b336000908152602081815260408220805460018101825590835291200161093382826128f5565b5033600090815260016020818152604083208054928301815583529091200161095c83826128f5565b50336001600160a01b03167fc5d820f5092964c33342d79084a41f152b1071ffc9965eb19b078805775f4ae483834260405161099a939291906129b6565b60405180910390a25050565b33600090815260208181526040808320805482518185028101850190935280835260609492939192909184015b82821015610a7f5783829060005260206000200180546109f290612764565b80601f0160208091040260200160405190810160405280929190818152602001828054610a1e90612764565b8015610a6b5780601f10610a4057610100808354040283529160200191610a6b565b820191906000526020600020905b815481529060010190602001808311610a4e57829003601f168201915b5050505050815260200190600101906109d3565b50505050905090565b6001600160a01b0383166000908152600260205260408082209051829190610ab19086906126f3565b9081526040805191829003602090810183208054808302850183019093528284529190830182828015610b0d57602002820191906000526020600020905b81546001600160a01b03168152600190910190602001808311610aef575b5050505050905060005b8151811015610b6557836001600160a01b0316828281518110610b3c57610b3c61270f565b60200260200101516001600160a01b031603610b5d57600192505050610b6c565b600101610b17565b5060009150505b9392505050565b6001600160a01b038416610bc95760405162461bcd60e51b815260206004820152601f60248201527f417070726f7665722063616e6e6f74206265207a65726f206164647265737300604482015260640161039e565b6000835111610c165760405162461bcd60e51b815260206004820152601960248201527846696c65206e616d652063616e6e6f7420626520656d70747960381b604482015260640161039e565b6000825111610c675760405162461bcd60e51b815260206004820152601960248201527f46696c6520686173682063616e6e6f7420626520656d70747900000000000000604482015260640161039e565b6001600160a01b0384166000908152600460205260408120815b8154811015610cd157336001600160a01b0316828281548110610ca657610ca661270f565b6000918252602090912001546001600160a01b031603610cc95760019250610cd1565b600101610c81565b5081610d10576001600160a01b03861660009081526004602090815260408220805460018101825590835291200180546001600160a01b031916331790555b336000908152600560205260408120815b8154811015610d7157886001600160a01b0316828281548110610d4657610d4661270f565b6000918252602090912001546001600160a01b031603610d695760019250610d71565b600101610d21565b5081610db0573360009081526005602090815260408220805460018101825590835291200180546001600160a01b0319166001600160a01b038a161790555b6040805160a081018252600080825260208083018b81528385018b9052606084018390526001608085018190526001600160a01b038e16845260038352858420338552835294832080548087018255908452919092208351600590920201805460ff191691151591909117815590519192839290820190610e3190826128f5565b5060408201516002820190610e4690826128f5565b50606082015160038201556080909101516004909101805460ff191691151591909117905560405133906001600160a01b038b16907f77b5f9c2d9c3bd8746beb63af36552109a2f92f947920ba0994acb2deb3e3b8b90610eac908c908c9042906129b6565b60405180910390a3505050505050505050565b6001600160a01b03821660009081526002602052604090819020905160609190610eea9084906126f3565b9081526040805191829003602090810183208054808302850183019093528284529190830182828015610f4657602002820191906000526020600020905b81546001600160a01b03168152600190910190602001808311610f28575b5050505050905092915050565b6001600160a01b0381166000908152600560209081526040808320805482518185028101850190935280835260609493830182828015610fbc57602002820191906000526020600020905b81546001600160a01b03168152600190910190602001808311610f9e575b505050505090506000805b825181101561104a5760036000848381518110610fe657610fe661270f565b60200260200101516001600160a01b03166001600160a01b031681526020019081526020016000206000866001600160a01b03166001600160a01b03168152602001908152602001600020805490508261104091906129ec565b9150600101610fc7565b506000816001600160401b03811115611065576110656121b3565b60405190808252806020026020018201604052801561109e57816020015b61108b61203b565b8152602001906001900390816110835790505b5090506000805b84518110156113b35760008582815181106110c2576110c261270f565b6020908102919091018101516001600160a01b038082166000908152600384526040808220928d1682529184528181208054835181870281018701909452808452939550909391929091849084015b828210156112985760008481526020908190206040805160a0810190915260058502909101805460ff1615158252600181018054929391929184019161115690612764565b80601f016020809104026020016040519081016040528092919081815260200182805461118290612764565b80156111cf5780601f106111a4576101008083540402835291602001916111cf565b820191906000526020600020905b8154815290600101906020018083116111b257829003601f168201915b505050505081526020016002820180546111e890612764565b80601f016020809104026020016040519081016040528092919081815260200182805461121490612764565b80156112615780601f1061123657610100808354040283529160200191611261565b820191906000526020600020905b81548152906001019060200180831161124457829003601f168201915b5050509183525050600382015460208083019190915260049092015460ff1615156040909101529082526001929092019101611111565b50505050905060005b81518110156113a8576040518060c00160405280846001600160a01b031681526020018383815181106112d6576112d661270f565b602002602001015160000151151581526020018383815181106112fb576112fb61270f565b602002602001015160200151815260200183838151811061131e5761131e61270f565b60200260200101516040015181526020018383815181106113415761134161270f565b60200260200101516060015181526020018383815181106113645761136461270f565b60200260200101516080015115158152508686815181106113875761138761270f565b6020026020010181905250848061139d906129ff565b9550506001016112a1565b5050506001016110a5565b509095945050505050565b6001600160a01b0381166114145760405162461bcd60e51b815260206004820181905260248201527f4e6577206f776e65722063616e6e6f74206265207a65726f2061646472657373604482015260640161039e565b336001600160a01b0382160361146c5760405162461bcd60e51b815260206004820152601760248201527f43616e6e6f74207472616e7366657220746f2073656c66000000000000000000604482015260640161039e565b336000908152602081905260409020546114be5760405162461bcd60e51b81526020600482015260136024820152722737903230ba30903a37903a3930b739b332b960691b604482015260640161039e565b33600090815260208190526040812054905b8181101561158e576001600160a01b03831660009081526020819052604080822033835291208054839081106115085761150861270f565b60009182526020808320845460018101865594845292209092019161152e910182612a18565b506001600160a01b038316600090815260016020526040808220338352912080548390811061155f5761155f61270f565b600091825260208083208454600181018655948452922090920191611585910182612a18565b506001016114d0565b50336000908152600560209081526040808320805482518185028101850190935280835291929091908301828280156115f057602002820191906000526020600020905b81546001600160a01b031681526001909101906020018083116115d2575b5050505050905060005b8151811015611b575760008282815181106116175761161761270f565b6020908102919091018101516001600160a01b0381166000908152600383526040808220338352845280822080548251818702810187019093528083529395509193909290849084015b828210156117e85760008481526020908190206040805160a0810190915260058502909101805460ff161515825260018101805492939192918401916116a690612764565b80601f01602080910402602001604051908101604052809291908181526020018280546116d290612764565b801561171f5780601f106116f45761010080835404028352916020019161171f565b820191906000526020600020905b81548152906001019060200180831161170257829003601f168201915b5050505050815260200160028201805461173890612764565b80601f016020809104026020016040519081016040528092919081815260200182805461176490612764565b80156117b15780601f10611786576101008083540402835291602001916117b1565b820191906000526020600020905b81548152906001019060200180831161179457829003601f168201915b5050509183525050600382015460208083019190915260049092015460ff1615156040909101529082526001929092019101611661565b50505050905060005b81518110156118bd576001600160a01b038084166000908152600360209081526040808320938b1683529290522082518390839081106118335761183361270f565b6020908102919091018101518254600180820185556000948552938390208251600590920201805460ff191691151591909117815591810151909282019061187b90826128f5565b506040820151600282019061189090826128f5565b50606082015160038201556080909101516004909101805460ff19169115159190911790556001016117f1565b506001600160a01b038216600090815260046020526040812090805b825481101561192557886001600160a01b03168382815481106118fe576118fe61270f565b6000918252602090912001546001600160a01b03160361191d57600191505b6001016118d9565b5060005b8254811015611a2557336001600160a01b031683828154811061194e5761194e61270f565b6000918252602090912001546001600160a01b031603611a1d57825483906119789060019061273b565b815481106119885761198861270f565b9060005260206000200160009054906101000a90046001600160a01b03168382815481106119b8576119b861270f565b9060005260206000200160006101000a8154816001600160a01b0302191690836001600160a01b03160217905550828054806119f6576119f661274e565b600082815260209020810160001990810180546001600160a01b0319169055019055611a25565b600101611929565b5080611a6a576001600160a01b0384811660009081526004602090815260408220805460018101825590835291200180546001600160a01b031916918a169190911790555b6001600160a01b0388166000908152600560205260408120815b8154811015611ad457866001600160a01b0316828281548110611aa957611aa961270f565b6000918252602090912001546001600160a01b031603611acc5760019250611ad4565b600101611a84565b5081611b19576001600160a01b038a811660009081526005602090815260408220805460018101825590835291200180546001600160a01b0319169188169190911790555b6001600160a01b03861660009081526003602090815260408083203384529091528120611b459161207e565b5050600190940193506115fa92505050565b50336000908152602081905260408120611b70916120a2565b336000908152600160205260408120611b88916120a2565b336000908152600560205260408120611ba0916120c0565b6040514281526001600160a01b0384169033907fc13a1166d81cd3b0b352a367aebab95f3a6f6bc695fdab8e9a9d335239c3861b9060200160405180910390a3505050565b6001600160a01b0381166000908152600460209081526040808320805482518185028101850190935280835260609493830182828015611c4e57602002820191906000526020600020905b81546001600160a01b03168152600190910190602001808311611c30575b505050505090506000805b8251811015611cd2576001600160a01b03851660009081526003602052604081208451909190859084908110611c9157611c9161270f565b60200260200101516001600160a01b03166001600160a01b031681526020019081526020016000208054905082611cc891906129ec565b9150600101611c59565b506000816001600160401b03811115611ced57611ced6121b3565b604051908082528060200260200182016040528015611d2657816020015b611d1361203b565b815260200190600190039081611d0b5790505b5090506000805b84518110156113b3576000858281518110611d4a57611d4a61270f565b6020908102919091018101516001600160a01b03808b16600090815260038452604080822092841682529184528181208054835181870281018701909452808452939550909391929091849084015b82821015611f205760008481526020908190206040805160a0810190915260058502909101805460ff16151582526001810180549293919291840191611dde90612764565b80601f0160208091040260200160405190810160405280929190818152602001828054611e0a90612764565b8015611e575780601f10611e2c57610100808354040283529160200191611e57565b820191906000526020600020905b815481529060010190602001808311611e3a57829003601f168201915b50505050508152602001600282018054611e7090612764565b80601f0160208091040260200160405190810160405280929190818152602001828054611e9c90612764565b8015611ee95780601f10611ebe57610100808354040283529160200191611ee9565b820191906000526020600020905b815481529060010190602001808311611ecc57829003601f168201915b5050509183525050600382015460208083019190915260049092015460ff1615156040909101529082526001929092019101611d99565b50505050905060005b8151811015612030576040518060c00160405280846001600160a01b03168152602001838381518110611f5e57611f5e61270f565b60200260200101516000015115158152602001838381518110611f8357611f8361270f565b6020026020010151602001518152602001838381518110611fa657611fa661270f565b6020026020010151604001518152602001838381518110611fc957611fc961270f565b6020026020010151606001518152602001838381518110611fec57611fec61270f565b602002602001015160800151151581525086868151811061200f5761200f61270f565b60200260200101819052508480612025906129ff565b955050600101611f29565b505050600101611d2d565b6040518060c0016040528060006001600160a01b031681526020016000151581526020016060815260200160608152602001600081526020016000151581525090565b508054600082556005029060005260206000209081019061209f91906120de565b50565b508054600082559060005260206000209081019061209f919061212b565b508054600082559060005260206000209081019061209f9190612148565b8082111561212757805460ff1916815560006120fd600183018261215d565b61210b60028301600061215d565b506000600382015560048101805460ff191690556005016120de565b5090565b8082111561212757600061213f828261215d565b5060010161212b565b5b808211156121275760008155600101612149565b50805461216990612764565b6000825580601f10612179575050565b601f01602090049060005260206000209081019061209f9190612148565b80356001600160a01b03811681146121ae57600080fd5b919050565b634e487b7160e01b600052604160045260246000fd5b600082601f8301126121da57600080fd5b81356001600160401b038111156121f3576121f36121b3565b604051601f8201601f19908116603f011681016001600160401b0381118282101715612221576122216121b3565b60405281815283820160200185101561223957600080fd5b816020850160208301376000918101602001919091529392505050565b6000806040838503121561226957600080fd5b61227283612197565b915060208301356001600160401b0381111561228d57600080fd5b612299858286016121c9565b9150509250929050565b6000806000606084860312156122b857600080fd5b6122c184612197565b925060208401356001600160401b038111156122dc57600080fd5b6122e8868287016121c9565b925050604084013580151581146122fe57600080fd5b809150509250925092565b6000806040838503121561231c57600080fd5b61232583612197565b915061233360208401612197565b90509250929050565b60005b8381101561235757818101518382015260200161233f565b50506000910152565b6000815180845261237881602086016020860161233c565b601f01601f19169290920160200192915050565b6000602082016020835280845180835260408501915060408160051b86010192506020860160005b8281101561242e57603f198786030184528151805115158652602081015160a060208801526123e660a0880182612360565b9050604082015187820360408901526123ff8282612360565b606084810151908a015260809384015115159390980192909252505060209384019391909101906001016123b4565b50929695505050505050565b6000806040838503121561244d57600080fd5b82356001600160401b0381111561246357600080fd5b61246f858286016121c9565b92505060208301356001600160401b0381111561228d57600080fd5b6000602082016020835280845180835260408501915060408160051b86010192506020860160005b8281101561242e57603f198786030184526124cf858351612360565b945060209384019391909101906001016124b3565b6000806000606084860312156124f957600080fd5b61250284612197565b925060208401356001600160401b0381111561251d57600080fd5b612529868287016121c9565b92505061253860408501612197565b90509250925092565b6000806000806080858703121561255757600080fd5b61256085612197565b935060208501356001600160401b0381111561257b57600080fd5b612587878288016121c9565b93505060408501356001600160401b038111156125a357600080fd5b6125af878288016121c9565b92505060608501356001600160401b038111156125cb57600080fd5b6125d7878288016121c9565b91505092959194509250565b602080825282518282018190526000918401906040840190835b818110156113b35783516001600160a01b03168352602093840193909201916001016125fd565b60006020828403121561263657600080fd5b610b6c82612197565b6000602082016020835280845180835260408501915060408160051b86010192506020860160005b8281101561242e57603f19878603018452815160018060a01b038151168652602081015115156020870152604081015160c060408801526126ab60c0880182612360565b9050606082015187820360608901526126c48282612360565b608084810151908a015260a0938401511515939098019290925250506020938401939190910190600101612667565b6000825161270581846020870161233c565b9190910192915050565b634e487b7160e01b600052603260045260246000fd5b634e487b7160e01b600052601160045260246000fd5b8181038181111561086d5761086d612725565b634e487b7160e01b600052603160045260246000fd5b600181811c9082168061277857607f821691505b60208210810361279857634e487b7160e01b600052602260045260246000fd5b50919050565b60008083546127ac81612764565b6001821680156127c357600181146127d857612808565b60ff1983168652811515820286019350612808565b86600052602060002060005b83811015612800578154888201526001909101906020016127e4565b505081860193505b509195945050505050565b60608152600080855461282581612764565b8060608601526001821660008114612844576001811461286057612894565b60ff1983166080870152608082151560051b8701019350612894565b88600052602060002060005b8381101561288b5781548882016080015260019091019060200161286c565b87016080019450505b50505093151560208301525060400152919050565b601f8211156128f057806000526020600020601f840160051c810160208510156128d05750805b601f840160051c820191505b8181101561063357600081556001016128dc565b505050565b81516001600160401b0381111561290e5761290e6121b3565b6129228161291c8454612764565b846128a9565b6020601f821160018114612959576000831561293e5750848201515b600184901b600019600386901b1c198216175b855550610633565b600084815260208120601f198516915b828110156129895787850151825560209485019460019092019101612969565b50848210156129a75786840151600019600387901b60f8161c191681555b50505050600190811b01905550565b6060815260006129c96060830186612360565b82810360208401526129db8186612360565b915050826040830152949350505050565b8082018082111561086d5761086d612725565b600060018201612a1157612a11612725565b5060010190565b818103612a23575050565b612a2d8254612764565b6001600160401b03811115612a4457612a446121b3565b612a528161291c8454612764565b6000601f821160018114612a84576000831561293e575081850154600184901b600019600386901b1c19821617612951565b600085815260209020601f19841690600086815260209020845b83811015612abe5782860154825560019586019590910190602001612a9e565b5085831015612adc5781850154600019600388901b60f8161c191681555b5050505050600190811b0190555056fea2646970667358221220c49bb1f63e186f09e54389db82e311fafa07ecdbea4337b8f486f991a066274164736f6c634300081b0033",
  "linkReferences": {},
  "deployedLinkReferences": {}
}