{
  "_format": "hh-sol-artifact-1",
  "contractName": "Agent",
  "sourceName": "contracts/agent.sol",
  "abi": [
    {
      "anonymous": false,
      "inputs": [
        {
          "indexed": true,
          "internalType": "address",
          "name": "owner",
          "type": "address"
        },
        {
          "indexed": false,
          "internalType": "string",
          "name": "publicKey",
          "type": "string"
        },
        {
          "indexed": false,
          "internalType": "string",
          "name": "data",
          "type": "string"
        },
        {
          "indexed": false,
          "internalType": "uint256",
          "name": "timestamp",
          "type": "uint256"
        }
      ],
      "name": "DataWritten",
      "type": "event"
    },
    {
      "anonymous": false,
      "inputs": [
        {
          "indexed": true,
          "internalType": "address",
          "name": "previousOwner",
          "type": "address"
        },
        {
          "indexed": true,
          "internalType": "address",
          "name": "newOwner",
          "type": "address"
        },
        {
          "indexed": false,
          "internalType": "uint256",
          "name": "timestamp",
          "type": "uint256"
        }
      ],
      "name": "OwnershipTransferred",
      "type": "event"
    },
    {
      "inputs": [
        {
          "internalType": "address",
          "name": "addressToAdd",
          "type": "address"
        },
        {
          "internalType": "string",
          "name": "domain",
          "type": "string"
        }
      ],
      "name": "addToWhitelist",
      "outputs": [],
      "stateMutability": "nonpayable",
      "type": "function"
    },
    {
      "inputs": [],
      "name": "getMessageCount",
      "outputs": [
        {
          "internalType": "uint256",
          "name": "",
          "type": "uint256"
        }
      ],
      "stateMutability": "view",
      "type": "function"
    },
    {
      "inputs": [
        {
          "internalType": "address",
          "name": "wallet",
          "type": "address"
        },
        {
          "internalType": "string",
          "name": "domain",
          "type": "string"
        }
      ],
      "name": "getWhitelist",
      "outputs": [
        {
          "internalType": "address[]",
          "name": "",
          "type": "address[]"
        }
      ],
      "stateMutability": "view",
      "type": "function"
    },
    {
      "inputs": [
        {
          "internalType": "address",
          "name": "wallet",
          "type": "address"
        },
        {
          "internalType": "string",
          "name": "domain",
          "type": "string"
        },
        {
          "internalType": "address",
          "name": "addressToCheck",
          "type": "address"
        }
      ],
      "name": "isWhitelisted",
      "outputs": [
        {
          "internalType": "bool",
          "name": "",
          "type": "bool"
        }
      ],
      "stateMutability": "view",
      "type": "function"
    },
    {
      "inputs": [],
      "name": "read",
      "outputs": [
        {
          "internalType": "string[]",
          "name": "",
          "type": "string[]"
        }
      ],
      "stateMutability": "view",
      "type": "function"
    },
    {
      "inputs": [
        {
          "internalType": "address",
          "name": "addressToRemove",
          "type": "address"
        },
        {
          "internalType": "string",
          "name": "domain",
          "type": "string"
        }
      ],
      "name": "removeFromWhitelist",
      "outputs": [],
      "stateMutability": "nonpayable",
      "type": "function"
    },
    {
      "inputs": [
        {
          "internalType": "address",
          "name": "newOwner",
          "type": "address"
        }
      ],
      "name": "transferOwnership",
      "outputs": [],
      "stateMutability": "nonpayable",
      "type": "function"
    },
    {
      "inputs": [
        {
          "internalType": "string",
          "name": "publicKey",
          "type": "string"
        },
        {
          "internalType": "string",
          "name": "data",
          "type": "string"
        }
      ],
      "name": "write",
      "outputs": [],
      "stateMutability": "nonpayable",
      "type": "function"
    }
  ],
  "bytecode": "0x6080604052348015600f57600080fd5b50610f258061001f6000396000f3fe608060405234801561001057600080fd5b50600436106100885760003560e01c806357de26a41161005b57806357de26a4146100eb578063956f0f8f14610100578063b33a0af114610123578063f2fde38b1461014357600080fd5b8063079184dd1461008d5780631a533daa146100a25780631e7c0197146100b557806331933916146100c8575b600080fd5b6100a061009b366004610a15565b610156565b005b6100a06100b0366004610a15565b610288565b6100a06100c3366004610a63565b6102e9565b336000908152602081905260409020546040519081526020015b60405180910390f35b6100f3610421565b6040516100e29190610b06565b61011361010e366004610b6b565b610503565b60405190151581526020016100e2565b610136610131366004610a15565b6105ee565b6040516100e29190610bc9565b6100a0610151366004610c15565b610683565b336000908152600260205260408082209051610173908490610c30565b9081526020016040518091039020905060005b815481101561028257836001600160a01b03168282815481106101ab576101ab610c4c565b6000918252602090912001546001600160a01b03160361027a57815482906101d590600190610c62565b815481106101e5576101e5610c4c565b9060005260206000200160009054906101000a90046001600160a01b031682828154811061021557610215610c4c565b9060005260206000200160006101000a8154816001600160a01b0302191690836001600160a01b031602179055508180548061025357610253610c83565b600082815260209020810160001990810180546001600160a01b0319169055019055610282565b600101610186565b50505050565b336000908152600260205260409081902090516102a6908390610c30565b90815260405160209181900382019020805460018101825560009182529190200180546001600160a01b0319166001600160a01b03939093169290921790915550565b600082511161033f5760405162461bcd60e51b815260206004820152601a60248201527f5075626c6963206b65792063616e6e6f7420626520656d70747900000000000060448201526064015b60405180910390fd5b60008151116103875760405162461bcd60e51b8152602060048201526014602482015273446174612063616e6e6f7420626520656d70747960601b6044820152606401610336565b33600090815260208181526040822080546001810182559083529120016103ae8282610d22565b503360009081526001602081815260408320805492830181558352909120016103d78382610d22565b50336001600160a01b03167fc5d820f5092964c33342d79084a41f152b1071ffc9965eb19b078805775f4ae483834260405161041593929190610de4565b60405180910390a25050565b33600090815260208181526040808320805482518185028101850190935280835260609492939192909184015b828210156104fa57838290600052602060002001805461046d90610c99565b80601f016020809104026020016040519081016040528092919081815260200182805461049990610c99565b80156104e65780601f106104bb576101008083540402835291602001916104e6565b820191906000526020600020905b8154815290600101906020018083116104c957829003601f168201915b50505050508152602001906001019061044e565b50505050905090565b6001600160a01b038316600090815260026020526040808220905182919061052c908690610c30565b908152604080519182900360209081018320805480830285018301909352828452919083018282801561058857602002820191906000526020600020905b81546001600160a01b0316815260019091019060200180831161056a575b5050505050905060005b81518110156105e057836001600160a01b03168282815181106105b7576105b7610c4c565b60200260200101516001600160a01b0316036105d8576001925050506105e7565b600101610592565b5060009150505b9392505050565b6001600160a01b03821660009081526002602052604090819020905160609190610619908490610c30565b908152604080519182900360209081018320805480830285018301909352828452919083018282801561067557602002820191906000526020600020905b81546001600160a01b03168152600190910190602001808311610657575b505050505090505b92915050565b6001600160a01b0381166106d95760405162461bcd60e51b815260206004820181905260248201527f4e6577206f776e65722063616e6e6f74206265207a65726f20616464726573736044820152606401610336565b336001600160a01b038216036107315760405162461bcd60e51b815260206004820152601760248201527f43616e6e6f74207472616e7366657220746f2073656c660000000000000000006044820152606401610336565b336000908152602081905260409020546107835760405162461bcd60e51b81526020600482015260136024820152722737903230ba30903a37903a3930b739b332b960691b6044820152606401610336565b33600090815260208190526040812054905b81811015610853576001600160a01b03831660009081526020819052604080822033835291208054839081106107cd576107cd610c4c565b6000918252602080832084546001810186559484529220909201916107f3910182610e1a565b506001600160a01b038316600090815260016020526040808220338352912080548390811061082457610824610c4c565b60009182526020808320845460018101865594845292209092019161084a910182610e1a565b50600101610795565b5033600090815260208190526040812061086c916108c8565b336000908152600160205260408120610884916108c8565b6040514281526001600160a01b0383169033907fc13a1166d81cd3b0b352a367aebab95f3a6f6bc695fdab8e9a9d335239c3861b9060200160405180910390a35050565b50805460008255906000526020600020908101906108e691906108e9565b50565b808211156109065760006108fd828261090a565b506001016108e9565b5090565b50805461091690610c99565b6000825580601f10610926575050565b601f0160209004906000526020600020908101906108e691905b808211156109065760008155600101610940565b80356001600160a01b038116811461096b57600080fd5b919050565b634e487b7160e01b600052604160045260246000fd5b600082601f83011261099757600080fd5b813567ffffffffffffffff8111156109b1576109b1610970565b604051601f8201601f19908116603f0116810167ffffffffffffffff811182821017156109e0576109e0610970565b6040528181528382016020018510156109f857600080fd5b816020850160208301376000918101602001919091529392505050565b60008060408385031215610a2857600080fd5b610a3183610954565b9150602083013567ffffffffffffffff811115610a4d57600080fd5b610a5985828601610986565b9150509250929050565b60008060408385031215610a7657600080fd5b823567ffffffffffffffff811115610a8d57600080fd5b610a9985828601610986565b925050602083013567ffffffffffffffff811115610a4d57600080fd5b60005b83811015610ad1578181015183820152602001610ab9565b50506000910152565b60008151808452610af2816020860160208601610ab6565b601f01601f19169290920160200192915050565b6000602082016020835280845180835260408501915060408160051b86010192506020860160005b82811015610b5f57603f19878603018452610b4a858351610ada565b94506020938401939190910190600101610b2e565b50929695505050505050565b600080600060608486031215610b8057600080fd5b610b8984610954565b9250602084013567ffffffffffffffff811115610ba557600080fd5b610bb186828701610986565b925050610bc060408501610954565b90509250925092565b602080825282518282018190526000918401906040840190835b81811015610c0a5783516001600160a01b0316835260209384019390920191600101610be3565b509095945050505050565b600060208284031215610c2757600080fd5b6105e782610954565b60008251610c42818460208701610ab6565b9190910192915050565b634e487b7160e01b600052603260045260246000fd5b8181038181111561067d57634e487b7160e01b600052601160045260246000fd5b634e487b7160e01b600052603160045260246000fd5b600181811c90821680610cad57607f821691505b602082108103610ccd57634e487b7160e01b600052602260045260246000fd5b50919050565b601f821115610d1d57806000526020600020601f840160051c81016020851015610cfa5750805b601f840160051c820191505b81811015610d1a5760008155600101610d06565b50505b505050565b815167ffffffffffffffff811115610d3c57610d3c610970565b610d5081610d4a8454610c99565b84610cd3565b6020601f821160018114610d875760008315610d6c5750848201515b600184901b600019600386901b1c198216175b855550610d1a565b600084815260208120601f198516915b82811015610db75787850151825560209485019460019092019101610d97565b5084821015610dd55786840151600019600387901b60f8161c191681555b50505050600190811b01905550565b606081526000610df76060830186610ada565b8281036020840152610e098186610ada565b915050826040830152949350505050565b818103610e25575050565b610e2f8254610c99565b67ffffffffffffffff811115610e4757610e47610970565b610e5581610d4a8454610c99565b6000601f821160018114610e875760008315610d6c575081850154600184901b600019600386901b1c19821617610d7f565b600085815260209020601f19841690600086815260209020845b83811015610ec15782860154825560019586019590910190602001610ea1565b5085831015610edf5781850154600019600388901b60f8161c191681555b5050505050600190811b0190555056fea2646970667358221220af431b298a81f7fda892ffc8fceb8f79372786bd0554a50959bdcb591473acd764736f6c634300081b0033",
  "linkReferences": {},
  "deployedLinkReferences": {}
}