{
  "_format": "hh-sol-artifact-1",
  "contractName": "Agent",
  "sourceName": "contracts/agent.sol",
  "abi": [
    {
      "inputs": [
        {
          "internalType": "string",
          "name": "_domain",
          "type": "string"
        },
        {
          "internalType": "address",
          "name": "_sponsor",
          "type": "address"
        }
      ],
      "stateMutability": "nonpayable",
      "type": "constructor"
    },
    {
      "anonymous": false,
      "inputs": [
        {
          "indexed": true,
          "internalType": "address",
          "name": "owner",
          "type": "address"
        },
        {
          "indexed": true,
          "internalType": "address",
          "name": "addr",
          "type": "address"
        },
        {
          "indexed": false,
          "internalType": "string",
          "name": "name",
          "type": "string"
        }
      ],
      "name": "AddressNameSet",
      "type": "event"
    },
    {
      "anonymous": false,
      "inputs": [
        {
          "indexed": true,
          "internalType": "address",
          "name": "approver",
          "type": "address"
        },
        {
          "indexed": true,
          "internalType": "address",
          "name": "requestor",
          "type": "address"
        },
        {
          "indexed": false,
          "internalType": "string",
          "name": "fileName",
          "type": "string"
        },
        {
          "indexed": false,
          "internalType": "bool",
          "name": "approved",
          "type": "bool"
        },
        {
          "indexed": false,
          "internalType": "uint256",
          "name": "timestamp",
          "type": "uint256"
        }
      ],
      "name": "ApprovalHandled",
      "type": "event"
    },
    {
      "anonymous": false,
      "inputs": [
        {
          "indexed": true,
          "internalType": "address",
          "name": "approver",
          "type": "address"
        },
        {
          "indexed": true,
          "internalType": "address",
          "name": "requestor",
          "type": "address"
        },
        {
          "indexed": false,
          "internalType": "string",
          "name": "fileName",
          "type": "string"
        },
        {
          "indexed": false,
          "internalType": "string",
          "name": "fileHash",
          "type": "string"
        },
        {
          "indexed": false,
          "internalType": "uint256",
          "name": "timestamp",
          "type": "uint256"
        }
      ],
      "name": "ApprovalRequested",
      "type": "event"
    },
    {
      "anonymous": false,
      "inputs": [
        {
          "indexed": true,
          "internalType": "string",
          "name": "key",
          "type": "string"
        },
        {
          "indexed": false,
          "internalType": "bool",
          "name": "isPublic",
          "type": "bool"
        },
        {
          "indexed": false,
          "internalType": "uint256",
          "name": "timestamp",
          "type": "uint256"
        }
      ],
      "name": "AttributeSet",
      "type": "event"
    },
    {
      "anonymous": false,
      "inputs": [
        {
          "indexed": true,
          "internalType": "address",
          "name": "owner",
          "type": "address"
        },
        {
          "indexed": false,
          "internalType": "string",
          "name": "publicKey",
          "type": "string"
        },
        {
          "indexed": false,
          "internalType": "string",
          "name": "data",
          "type": "string"
        },
        {
          "indexed": false,
          "internalType": "uint256",
          "name": "timestamp",
          "type": "uint256"
        }
      ],
      "name": "DataWritten",
      "type": "event"
    },
    {
      "anonymous": false,
      "inputs": [
        {
          "indexed": true,
          "internalType": "address",
          "name": "from",
          "type": "address"
        },
        {
          "indexed": true,
          "internalType": "address",
          "name": "to",
          "type": "address"
        },
        {
          "indexed": false,
          "internalType": "string",
          "name": "ipfsHash",
          "type": "string"
        },
        {
          "indexed": false,
          "internalType": "string",
          "name": "domain",
          "type": "string"
        },
        {
          "indexed": false,
          "internalType": "uint256",
          "name": "timestamp",
          "type": "uint256"
        }
      ],
      "name": "MessageSent",
      "type": "event"
    },
    {
      "anonymous": false,
      "inputs": [
        {
          "indexed": true,
          "internalType": "address",
          "name": "previousOwner",
          "type": "address"
        },
        {
          "indexed": true,
          "internalType": "address",
          "name": "newOwner",
          "type": "address"
        },
        {
          "indexed": false,
          "internalType": "uint256",
          "name": "timestamp",
          "type": "uint256"
        }
      ],
      "name": "OwnershipTransferred",
      "type": "event"
    },
    {
      "anonymous": false,
      "inputs": [
        {
          "indexed": true,
          "internalType": "address",
          "name": "from",
          "type": "address"
        },
        {
          "indexed": true,
          "internalType": "address",
          "name": "board",
          "type": "address"
        },
        {
          "indexed": false,
          "internalType": "string",
          "name": "ipfsHash",
          "type": "string"
        },
        {
          "indexed": false,
          "internalType": "string",
          "name": "domain",
          "type": "string"
        },
        {
          "indexed": false,
          "internalType": "enum Agent.Visibility",
          "name": "visibility",
          "type": "uint8"
        },
        {
          "indexed": false,
          "internalType": "uint256",
          "name": "timestamp",
          "type": "uint256"
        }
      ],
      "name": "PostCreated",
      "type": "event"
    },
    {
      "anonymous": false,
      "inputs": [
        {
          "indexed": true,
          "internalType": "address",
          "name": "owner",
          "type": "address"
        },
        {
          "indexed": false,
          "internalType": "string",
          "name": "listName",
          "type": "string"
        },
        {
          "indexed": true,
          "internalType": "address",
          "name": "addr",
          "type": "address"
        },
        {
          "indexed": false,
          "internalType": "string",
          "name": "action",
          "type": "string"
        },
        {
          "indexed": false,
          "internalType": "uint256",
          "name": "timestamp",
          "type": "uint256"
        }
      ],
      "name": "WhitelistModified",
      "type": "event"
    },
    {
      "inputs": [],
      "name": "VERSION",
      "outputs": [
        {
          "internalType": "string",
          "name": "",
          "type": "string"
        }
      ],
      "stateMutability": "view",
      "type": "function"
    },
    {
      "inputs": [
        {
          "internalType": "address",
          "name": "admin",
          "type": "address"
        }
      ],
      "name": "addAdministrator",
      "outputs": [],
      "stateMutability": "nonpayable",
      "type": "function"
    },
    {
      "inputs": [
        {
          "internalType": "string",
          "name": "listName",
          "type": "string"
        },
        {
          "internalType": "address",
          "name": "addressToAdd",
          "type": "address"
        },
        {
          "internalType": "string",
          "name": "name",
          "type": "string"
        },
        {
          "internalType": "uint8",
          "name": "role",
          "type": "uint8"
        },
        {
          "internalType": "string",
          "name": "meta",
          "type": "string"
        }
      ],
      "name": "addToWhitelist",
      "outputs": [],
      "stateMutability": "nonpayable",
      "type": "function"
    },
    {
      "inputs": [
        {
          "internalType": "address",
          "name": "approverAddress",
          "type": "address"
        },
        {
          "internalType": "string",
          "name": "fileName",
          "type": "string"
        },
        {
          "internalType": "string",
          "name": "fileHash",
          "type": "string"
        },
        {
          "internalType": "string",
          "name": "requestDomain",
          "type": "string"
        }
      ],
      "name": "createApproval",
      "outputs": [],
      "stateMutability": "nonpayable",
      "type": "function"
    },
    {
      "inputs": [
        {
          "internalType": "address",
          "name": "board",
          "type": "address"
        },
        {
          "internalType": "string",
          "name": "publicKey",
          "type": "string"
        },
        {
          "internalType": "string",
          "name": "data",
          "type": "string"
        },
        {
          "internalType": "string",
          "name": "postDomain",
          "type": "string"
        },
        {
          "internalType": "string",
          "name": "ipfsHash",
          "type": "string"
        },
        {
          "internalType": "enum Agent.Visibility",
          "name": "visibility",
          "type": "uint8"
        }
      ],
      "name": "createPost",
      "outputs": [],
      "stateMutability": "nonpayable",
      "type": "function"
    },
    {
      "inputs": [
        {
          "internalType": "string",
          "name": "key",
          "type": "string"
        }
      ],
      "name": "deletePrivateAttribute",
      "outputs": [],
      "stateMutability": "nonpayable",
      "type": "function"
    },
    {
      "inputs": [
        {
          "internalType": "string",
          "name": "key",
          "type": "string"
        }
      ],
      "name": "deletePublicAttribute",
      "outputs": [],
      "stateMutability": "nonpayable",
      "type": "function"
    },
    {
      "inputs": [],
      "name": "domain",
      "outputs": [
        {
          "internalType": "string",
          "name": "",
          "type": "string"
        }
      ],
      "stateMutability": "view",
      "type": "function"
    },
    {
      "inputs": [
        {
          "internalType": "address",
          "name": "ownerAddress",
          "type": "address"
        },
        {
          "internalType": "address",
          "name": "addr",
          "type": "address"
        }
      ],
      "name": "getAddressName",
      "outputs": [
        {
          "internalType": "string",
          "name": "",
          "type": "string"
        }
      ],
      "stateMutability": "view",
      "type": "function"
    },
    {
      "inputs": [
        {
          "internalType": "address",
          "name": "approverAddress",
          "type": "address"
        }
      ],
      "name": "getAllApprovalsForApprover",
      "outputs": [
        {
          "components": [
            {
              "internalType": "address",
              "name": "requestor",
              "type": "address"
            },
            {
              "internalType": "bool",
              "name": "approved",
              "type": "bool"
            },
            {
              "internalType": "string",
              "name": "fileName",
              "type": "string"
            },
            {
              "internalType": "string",
              "name": "fileHash",
              "type": "string"
            },
            {
              "internalType": "uint256",
              "name": "processedAt",
              "type": "uint256"
            },
            {
              "internalType": "bool",
              "name": "exists",
              "type": "bool"
            }
          ],
          "internalType": "struct Agent.ApprovalWithRequestor[]",
          "name": "",
          "type": "tuple[]"
        }
      ],
      "stateMutability": "view",
      "type": "function"
    },
    {
      "inputs": [
        {
          "internalType": "address",
          "name": "requestorAddress",
          "type": "address"
        }
      ],
      "name": "getAllApprovalsForRequestor",
      "outputs": [
        {
          "components": [
            {
              "internalType": "address",
              "name": "requestor",
              "type": "address"
            },
            {
              "internalType": "bool",
              "name": "approved",
              "type": "bool"
            },
            {
              "internalType": "string",
              "name": "fileName",
              "type": "string"
            },
            {
              "internalType": "string",
              "name": "fileHash",
              "type": "string"
            },
            {
              "internalType": "uint256",
              "name": "processedAt",
              "type": "uint256"
            },
            {
              "internalType": "bool",
              "name": "exists",
              "type": "bool"
            }
          ],
          "internalType": "struct Agent.ApprovalWithRequestor[]",
          "name": "",
          "type": "tuple[]"
        }
      ],
      "stateMutability": "view",
      "type": "function"
    },
    {
      "inputs": [
        {
          "internalType": "address",
          "name": "approverAddress",
          "type": "address"
        },
        {
          "internalType": "address",
          "name": "requestorAddress",
          "type": "address"
        }
      ],
      "name": "getApprovalsByAddress",
      "outputs": [
        {
          "components": [
            {
              "internalType": "bool",
              "name": "approved",
              "type": "bool"
            },
            {
              "internalType": "string",
              "name": "fileName",
              "type": "string"
            },
            {
              "internalType": "string",
              "name": "fileHash",
              "type": "string"
            },
            {
              "internalType": "uint256",
              "name": "processedAt",
              "type": "uint256"
            },
            {
              "internalType": "bool",
              "name": "exists",
              "type": "bool"
            }
          ],
          "internalType": "struct Agent.ApprovalRequest[]",
          "name": "",
          "type": "tuple[]"
        }
      ],
      "stateMutability": "view",
      "type": "function"
    },
    {
      "inputs": [
        {
          "internalType": "address",
          "name": "otherParty",
          "type": "address"
        }
      ],
      "name": "getConversation",
      "outputs": [
        {
          "components": [
            {
              "internalType": "address",
              "name": "from",
              "type": "address"
            },
            {
              "internalType": "address",
              "name": "to",
              "type": "address"
            },
            {
              "internalType": "string",
              "name": "data",
              "type": "string"
            },
            {
              "internalType": "string",
              "name": "publicKey",
              "type": "string"
            },
            {
              "internalType": "string",
              "name": "domain",
              "type": "string"
            },
            {
              "internalType": "string",
              "name": "ipfsHash",
              "type": "string"
            },
            {
              "internalType": "enum Agent.Visibility",
              "name": "visibility",
              "type": "uint8"
            },
            {
              "internalType": "uint256",
              "name": "timestamp",
              "type": "uint256"
            }
          ],
          "internalType": "struct Agent.RivetItem[]",
          "name": "",
          "type": "tuple[]"
        }
      ],
      "stateMutability": "view",
      "type": "function"
    },
    {
      "inputs": [
        {
          "internalType": "address",
          "name": "addr1",
          "type": "address"
        },
        {
          "internalType": "address",
          "name": "addr2",
          "type": "address"
        }
      ],
      "name": "getConversationId",
      "outputs": [
        {
          "internalType": "bytes32",
          "name": "",
          "type": "bytes32"
        }
      ],
      "stateMutability": "pure",
      "type": "function"
    },
    {
      "inputs": [
        {
          "internalType": "address",
          "name": "wallet",
          "type": "address"
        }
      ],
      "name": "getListNames",
      "outputs": [
        {
          "internalType": "string[]",
          "name": "",
          "type": "string[]"
        }
      ],
      "stateMutability": "view",
      "type": "function"
    },
    {
      "inputs": [
        {
          "internalType": "address",
          "name": "member",
          "type": "address"
        }
      ],
      "name": "getListsForMember",
      "outputs": [
        {
          "components": [
            {
              "internalType": "string",
              "name": "listName",
              "type": "string"
            },
            {
              "internalType": "uint8",
              "name": "role",
              "type": "uint8"
            },
            {
              "internalType": "uint256",
              "name": "addedAt",
              "type": "uint256"
            }
          ],
          "internalType": "struct Agent.MembershipEntry[]",
          "name": "",
          "type": "tuple[]"
        }
      ],
      "stateMutability": "view",
      "type": "function"
    },
    {
      "inputs": [],
      "name": "getMessageCount",
      "outputs": [
        {
          "internalType": "uint256",
          "name": "",
          "type": "uint256"
        }
      ],
      "stateMutability": "view",
      "type": "function"
    },
    {
      "inputs": [
        {
          "internalType": "address",
          "name": "board",
          "type": "address"
        }
      ],
      "name": "getPosts",
      "outputs": [
        {
          "components": [
            {
              "internalType": "address",
              "name": "from",
              "type": "address"
            },
            {
              "internalType": "address",
              "name": "to",
              "type": "address"
            },
            {
              "internalType": "string",
              "name": "data",
              "type": "string"
            },
            {
              "internalType": "string",
              "name": "publicKey",
              "type": "string"
            },
            {
              "internalType": "string",
              "name": "domain",
              "type": "string"
            },
            {
              "internalType": "string",
              "name": "ipfsHash",
              "type": "string"
            },
            {
              "internalType": "enum Agent.Visibility",
              "name": "visibility",
              "type": "uint8"
            },
            {
              "internalType": "uint256",
              "name": "timestamp",
              "type": "uint256"
            }
          ],
          "internalType": "struct Agent.RivetItem[]",
          "name": "",
          "type": "tuple[]"
        }
      ],
      "stateMutability": "view",
      "type": "function"
    },
    {
      "inputs": [
        {
          "internalType": "address",
          "name": "board",
          "type": "address"
        },
        {
          "internalType": "uint256",
          "name": "offset",
          "type": "uint256"
        },
        {
          "internalType": "uint256",
          "name": "limit",
          "type": "uint256"
        }
      ],
      "name": "getPostsPaginated",
      "outputs": [
        {
          "components": [
            {
              "internalType": "address",
              "name": "from",
              "type": "address"
            },
            {
              "internalType": "address",
              "name": "to",
              "type": "address"
            },
            {
              "internalType": "string",
              "name": "data",
              "type": "string"
            },
            {
              "internalType": "string",
              "name": "publicKey",
              "type": "string"
            },
            {
              "internalType": "string",
              "name": "domain",
              "type": "string"
            },
            {
              "internalType": "string",
              "name": "ipfsHash",
              "type": "string"
            },
            {
              "internalType": "enum Agent.Visibility",
              "name": "visibility",
              "type": "uint8"
            },
            {
              "internalType": "uint256",
              "name": "timestamp",
              "type": "uint256"
            }
          ],
          "internalType": "struct Agent.RivetItem[]",
          "name": "",
          "type": "tuple[]"
        }
      ],
      "stateMutability": "view",
      "type": "function"
    },
    {
      "inputs": [
        {
          "internalType": "string",
          "name": "key",
          "type": "string"
        }
      ],
      "name": "getPrivateAttribute",
      "outputs": [
        {
          "internalType": "string",
          "name": "",
          "type": "string"
        }
      ],
      "stateMutability": "view",
      "type": "function"
    },
    {
      "inputs": [],
      "name": "getPrivateAttributeKeys",
      "outputs": [
        {
          "internalType": "string[]",
          "name": "",
          "type": "string[]"
        }
      ],
      "stateMutability": "view",
      "type": "function"
    },
    {
      "inputs": [
        {
          "internalType": "string",
          "name": "key",
          "type": "string"
        }
      ],
      "name": "getPublicAttribute",
      "outputs": [
        {
          "internalType": "string",
          "name": "",
          "type": "string"
        }
      ],
      "stateMutability": "view",
      "type": "function"
    },
    {
      "inputs": [],
      "name": "getPublicAttributeKeys",
      "outputs": [
        {
          "internalType": "string[]",
          "name": "",
          "type": "string[]"
        }
      ],
      "stateMutability": "view",
      "type": "function"
    },
    {
      "inputs": [
        {
          "internalType": "address",
          "name": "addr",
          "type": "address"
        }
      ],
      "name": "getPublicKeys",
      "outputs": [
        {
          "internalType": "string[]",
          "name": "",
          "type": "string[]"
        }
      ],
      "stateMutability": "view",
      "type": "function"
    },
    {
      "inputs": [],
      "name": "getUserConversationIds",
      "outputs": [
        {
          "internalType": "bytes32[]",
          "name": "",
          "type": "bytes32[]"
        }
      ],
      "stateMutability": "view",
      "type": "function"
    },
    {
      "inputs": [
        {
          "internalType": "address",
          "name": "wallet",
          "type": "address"
        },
        {
          "internalType": "string",
          "name": "listName",
          "type": "string"
        }
      ],
      "name": "getWhitelist",
      "outputs": [
        {
          "components": [
            {
              "internalType": "address",
              "name": "addr",
              "type": "address"
            },
            {
              "internalType": "string",
              "name": "name",
              "type": "string"
            },
            {
              "internalType": "uint8",
              "name": "role",
              "type": "uint8"
            },
            {
              "internalType": "string",
              "name": "meta",
              "type": "string"
            }
          ],
          "internalType": "struct Agent.WhitelistEntry[]",
          "name": "",
          "type": "tuple[]"
        }
      ],
      "stateMutability": "view",
      "type": "function"
    },
    {
      "inputs": [
        {
          "internalType": "address",
          "name": "wallet",
          "type": "address"
        },
        {
          "internalType": "string",
          "name": "listName",
          "type": "string"
        },
        {
          "internalType": "address",
          "name": "addressToCheck",
          "type": "address"
        }
      ],
      "name": "getWhitelistEntry",
      "outputs": [
        {
          "components": [
            {
              "internalType": "address",
              "name": "addr",
              "type": "address"
            },
            {
              "internalType": "string",
              "name": "name",
              "type": "string"
            },
            {
              "internalType": "uint8",
              "name": "role",
              "type": "uint8"
            },
            {
              "internalType": "string",
              "name": "meta",
              "type": "string"
            }
          ],
          "internalType": "struct Agent.WhitelistEntry",
          "name": "",
          "type": "tuple"
        }
      ],
      "stateMutability": "view",
      "type": "function"
    },
    {
      "inputs": [
        {
          "internalType": "address",
          "name": "requestorAddress",
          "type": "address"
        },
        {
          "internalType": "string",
          "name": "fileName",
          "type": "string"
        },
        {
          "internalType": "bool",
          "name": "approved",
          "type": "bool"
        }
      ],
      "name": "handleApproval",
      "outputs": [],
      "stateMutability": "nonpayable",
      "type": "function"
    },
    {
      "inputs": [
        {
          "internalType": "address",
          "name": "addr",
          "type": "address"
        }
      ],
      "name": "isAdministrator",
      "outputs": [
        {
          "internalType": "bool",
          "name": "",
          "type": "bool"
        }
      ],
      "stateMutability": "view",
      "type": "function"
    },
    {
      "inputs": [
        {
          "internalType": "address",
          "name": "wallet",
          "type": "address"
        },
        {
          "internalType": "string",
          "name": "listName",
          "type": "string"
        },
        {
          "internalType": "address",
          "name": "addressToCheck",
          "type": "address"
        }
      ],
      "name": "isWhitelisted",
      "outputs": [
        {
          "internalType": "bool",
          "name": "",
          "type": "bool"
        }
      ],
      "stateMutability": "view",
      "type": "function"
    },
    {
      "inputs": [
        {
          "internalType": "string",
          "name": "",
          "type": "string"
        }
      ],
      "name": "publicAttributes",
      "outputs": [
        {
          "internalType": "string",
          "name": "",
          "type": "string"
        }
      ],
      "stateMutability": "view",
      "type": "function"
    },
    {
      "inputs": [],
      "name": "read",
      "outputs": [
        {
          "internalType": "string[]",
          "name": "",
          "type": "string[]"
        }
      ],
      "stateMutability": "view",
      "type": "function"
    },
    {
      "inputs": [
        {
          "internalType": "address",
          "name": "admin",
          "type": "address"
        }
      ],
      "name": "removeAdministrator",
      "outputs": [],
      "stateMutability": "nonpayable",
      "type": "function"
    },
    {
      "inputs": [
        {
          "internalType": "string",
          "name": "listName",
          "type": "string"
        },
        {
          "internalType": "address",
          "name": "addressToRemove",
          "type": "address"
        }
      ],
      "name": "removeFromWhitelist",
      "outputs": [],
      "stateMutability": "nonpayable",
      "type": "function"
    },
    {
      "inputs": [
        {
          "internalType": "address",
          "name": "to",
          "type": "address"
        },
        {
          "internalType": "string",
          "name": "publicKey",
          "type": "string"
        },
        {
          "internalType": "string",
          "name": "data",
          "type": "string"
        },
        {
          "internalType": "string",
          "name": "messageDomain",
          "type": "string"
        },
        {
          "internalType": "string",
          "name": "ipfsHash",
          "type": "string"
        }
      ],
      "name": "sendMessage",
      "outputs": [],
      "stateMutability": "nonpayable",
      "type": "function"
    },
    {
      "inputs": [
        {
          "internalType": "address",
          "name": "addr",
          "type": "address"
        },
        {
          "internalType": "string",
          "name": "name",
          "type": "string"
        }
      ],
      "name": "setAddressName",
      "outputs": [],
      "stateMutability": "nonpayable",
      "type": "function"
    },
    {
      "inputs": [
        {
          "internalType": "string",
          "name": "key",
          "type": "string"
        },
        {
          "internalType": "string",
          "name": "value",
          "type": "string"
        }
      ],
      "name": "setPrivateAttribute",
      "outputs": [],
      "stateMutability": "nonpayable",
      "type": "function"
    },
    {
      "inputs": [
        {
          "internalType": "string",
          "name": "key",
          "type": "string"
        },
        {
          "internalType": "string",
          "name": "value",
          "type": "string"
        }
      ],
      "name": "setPublicAttribute",
      "outputs": [],
      "stateMutability": "nonpayable",
      "type": "function"
    },
    {
      "inputs": [],
      "name": "sponsor",
      "outputs": [
        {
          "internalType": "address",
          "name": "",
          "type": "address"
        }
      ],
      "stateMutability": "view",
      "type": "function"
    },
    {
      "inputs": [
        {
          "internalType": "address",
          "name": "newOwner",
          "type": "address"
        }
      ],
      "name": "transferOwnership",
      "outputs": [],
      "stateMutability": "nonpayable",
      "type": "function"
    },
    {
      "inputs": [
        {
          "internalType": "string",
          "name": "listName",
          "type": "string"
        },
        {
          "internalType": "address",
          "name": "addressToUpdate",
          "type": "address"
        },
        {
          "internalType": "string",
          "name": "name",
          "type": "string"
        },
        {
          "internalType": "uint8",
          "name": "role",
          "type": "uint8"
        },
        {
          "internalType": "string",
          "name": "meta",
          "type": "string"
        }
      ],
      "name": "updateWhitelistEntry",
      "outputs": [],
      "stateMutability": "nonpayable",
      "type": "function"
    },
    {
      "inputs": [
        {
          "internalType": "string",
          "name": "publicKey",
          "type": "string"
        },
        {
          "internalType": "string",
          "name": "data",
          "type": "string"
        }
      ],
      "name": "write",
      "outputs": [],
      "stateMutability": "nonpayable",
      "type": "function"
    }
  ],
  "bytecode": "0x60a060405234801561001057600080fd5b5060405161786b38038061786b83398101604081905261002f9161012c565b60008251116100855760405162461bcd60e51b815260206004820152601660248201527f446f6d61696e2063616e6e6f7420626520656d7074790000000000000000000060448201526064015b60405180910390fd5b6001600160a01b0381166100db5760405162461bcd60e51b815260206004820152601e60248201527f53706f6e736f722063616e6e6f74206265207a65726f20616464726573730000604482015260640161007c565b60006100e78382610292565b506001600160a01b031660805250610350565b634e487b7160e01b600052604160045260246000fd5b80516001600160a01b038116811461012757600080fd5b919050565b6000806040838503121561013f57600080fd5b82516001600160401b0381111561015557600080fd5b8301601f8101851361016657600080fd5b80516001600160401b0381111561017f5761017f6100fa565b604051601f8201601f19908116603f011681016001600160401b03811182821017156101ad576101ad6100fa565b6040528181528282016020018710156101c557600080fd5b60005b828110156101e4576020818501810151838301820152016101c8565b5060006020838301015280945050505061020060208401610110565b90509250929050565b600181811c9082168061021d57607f821691505b60208210810361023d57634e487b7160e01b600052602260045260246000fd5b50919050565b601f82111561028d57806000526020600020601f840160051c8101602085101561026a5750805b601f840160051c820191505b8181101561028a5760008155600101610276565b50505b505050565b81516001600160401b038111156102ab576102ab6100fa565b6102bf816102b98454610209565b84610243565b6020601f8211600181146102f357600083156102db5750848201515b600019600385901b1c1916600184901b17845561028a565b600084815260208120601f198516915b828110156103235787850151825560209485019460019092019101610303565b50848210156103415786840151600019600387901b60f8161c191681555b50505050600190811b01905550565b6080516174c16103aa6000396000818161042d0152818161097b015281816113c401528181611d9801528181613206015281816135d00152818161375901528181613f6c01528181614ada0152614bda01526174c16000f3fe608060405234801561001057600080fd5b506004361061025e5760003560e01c806377c9366211610146578063be758306116100c3578063c999117611610087578063c99911761461059c578063ca239d4b146105af578063f2fde38b146105c2578063f6ee44cb146105d5578063fd098d2f146105e8578063ffa1ad74146105fb57600080fd5b8063be7583061461052c578063c25cfe8a14610541578063c2fb26a614610554578063c565b7721461055c578063c7967f111461057c57600080fd5b80639d2c2c771161010a5780639d2c2c77146104c0578063aa2285a5146104d3578063b33a0af1146104e6578063b715bb7414610506578063bae067b31461051957600080fd5b806377c93662146104285780637f344c1614610467578063898c2d7b1461047a5780638f033c851461048d578063956f0f8f146104ad57600080fd5b80634194f5aa116101df57806357de26a4116101a357806357de26a4146103cc57806357fca407146103d45780635eaf27f1146103dc5780635fcbb7d6146103ef57806368fa8134146104025780637657e2931461041557600080fd5b80634194f5aa1461036057806343b63fd51461038057806348205521146103935780634caf9d0b146103a657806353dacec6146103b957600080fd5b80631e7c0197116102265780631e7c0197146102e6578063294c9921146102f95780632a6d90341461030e5780633037c5ad1461032e578063319339161461034157600080fd5b80630308761b146102635780630a2eb301146102785780630e26b22d146102a057806310ae73dd146102b35780631b204716146102c6575b600080fd5b6102766102713660046164d1565b61061f565b005b61028b61028636600461651e565b610977565b60405190151581526020015b60405180910390f35b6102766102ae366004616548565b6109d7565b6102766102c1366004616624565b610bed565b6102d96102d436600461668a565b610ed6565b6040516102979190616704565b6102766102f43660046167b2565b6110ad565b6103016113b7565b6040516102979190616819565b61032161031c36600461651e565b611536565b60405161029791906168aa565b61027661033c3660046169ac565b611927565b336000908152600260205260409020545b604051908152602001610297565b61037361036e3660046169e3565b6119e7565b6040516102979190616a96565b61030161038e36600461651e565b611c9e565b6102766103a1366004616aa9565b611d8d565b6103216103b436600461651e565b611f3c565b6103216103c7366004616ae5565b6123bd565b6103016129e4565b610301612d98565b6102766103ea366004616b18565b612e68565b6103016103fd36600461651e565b613117565b61027661041036600461651e565b6131fb565b610276610423366004616bd3565b6132a3565b61044f7f000000000000000000000000000000000000000000000000000000000000000081565b6040516001600160a01b039091168152602001610297565b610276610475366004616aa9565b6135c5565b6102766104883660046167b2565b61374e565b6104a061049b366004616aa9565b61392a565b6040516102979190616c87565b61028b6104bb3660046169e3565b6139da565b6102766104ce366004616c9a565b613c15565b6102766104e13660046167b2565b613f61565b6104f96104f43660046169ac565b614135565b6040516102979190616d3c565b6104a061051436600461668a565b61430b565b6104a0610527366004616aa9565b6143c5565b61053461446a565b6040516102979190616d95565b61035261054f36600461668a565b6144cb565b6104a0614541565b61056f61056a36600461651e565b61454e565b6040516102979190616dcd565b61058f61058a36600461651e565b6149ae565b6040516102979190616e81565b6102766105aa36600461651e565b614acf565b6104a06105bd366004616aa9565b614bcd565b6102766105d036600461651e565b614c85565b61056f6105e336600461651e565b6159f1565b6102766105f6366004616b18565b615e47565b6104a0604051806040016040528060058152602001640332e322e360dc1b81525081565b60008251116106495760405162461bcd60e51b815260040161064090616efd565b60405180910390fd5b336000908152600560205260408082209051610666908590616f34565b9081526020016040518091039020905060005b815481101561097157826001600160a01b031682828154811061069e5761069e616f50565b60009182526020909120600490910201546001600160a01b03160361096957815482906106cd90600190616f7c565b815481106106dd576106dd616f50565b90600052602060002090600402018282815481106106fd576106fd616f50565b60009182526020909120825460049092020180546001600160a01b0319166001600160a01b0390921691909117815560018082019061073e90840182617015565b50600282810154908201805460ff191660ff90921691909117905560038082019061076b90840182617015565b509050508180548061077f5761077f6170f4565b60008281526020812060046000199093019283020180546001600160a01b0319168155906107b060018301826161b9565b60028201805460ff191690556107ca6003830160006161b9565b505090553360009081526007602090815260408083206001600160a01b03871684529091528120905b815481101561091557858051906020012082828154811061081657610816616f50565b9060005260206000209060030201600001604051610834919061710a565b60405180910390200361090d578154829061085190600190616f7c565b8154811061086157610861616f50565b906000526020600020906003020182828154811061088157610881616f50565b600091825260209091206003909102018061089c8382617015565b50600182810154908201805460ff191660ff90921691909117905560029182015491015581548290806108d1576108d16170f4565b600082815260208120600019909201916003830201906108f182826161b9565b5060018101805460ff1916905560006002909101559055610915565b6001016107f3565b50836001600160a01b0316336001600160a01b03167fb66dabb959d5f3bdb53a39aa58d0975b39199c9b188ad8bb09a1b37bb7bf5979874260405161095b92919061717f565b60405180910390a350610971565b600101610679565b50505050565b60007f00000000000000000000000000000000000000000000000000000000000000006001600160a01b0316826001600160a01b031614806109d157506001600160a01b03821660009081526010602052604090205460ff165b92915050565b6000825111610a245760405162461bcd60e51b81526020600482015260196024820152784950465320686173682063616e6e6f7420626520656d70747960381b6044820152606401610640565b6001600160a01b0386166000908152600260209081526040808320815161010081018352338152928301939093528101869052606081018790526080810185905260a0810184905260c08101836001811115610a8257610a82616872565b815242602091820152825460018082018555600094855293829020835160089092020180546001600160a01b03199081166001600160a01b039384161782559284015194810180549093169490911693909317905560408101519091906002820190610aee90826171c1565b5060608201516003820190610b0390826171c1565b5060808201516004820190610b1890826171c1565b5060a08201516005820190610b2d90826171c1565b5060c082015160068201805460ff191660018381811115610b5057610b50616872565b021790555060e09190910151600790910155845115610b945733600090815260036020908152604082208054600181018255908352912001610b9286826171c1565b505b856001600160a01b0316336001600160a01b03167ff8978169ef1306ac0c49b6b67c280d605663d299eb03a25d6c691f3648d7b35084868542604051610bdd9493929190617277565b60405180910390a3505050505050565b6001600160a01b038316610c435760405162461bcd60e51b815260206004820181905260248201527f526571756573746f722063616e6e6f74206265207a65726f20616464726573736044820152606401610640565b6000825111610c905760405162461bcd60e51b815260206004820152601960248201527846696c65206e616d652063616e6e6f7420626520656d70747960381b6044820152606401610640565b3360009081526009602090815260408083206001600160a01b038716845290915290208054610d015760405162461bcd60e51b815260206004820152601f60248201527f4e6f2072657175657374732066726f6d207468697320726571756573746f72006044820152606401610640565b6000805b8254811015610e6857828181548110610d2057610d20616f50565b9060005260206000209060050201600301546000148015610d7e57508480519060200120838281548110610d5657610d56616f50565b9060005260206000209060050201600101604051610d74919061710a565b6040518091039020145b15610e605783838281548110610d9657610d96616f50565b906000526020600020906005020160000160006101000a81548160ff02191690831515021790555042838281548110610dd157610dd1616f50565b906000526020600020906005020160030181905550856001600160a01b0316336001600160a01b03167f532cb0591b34f8b7dd491dae5df420200e7d868e0eac7eae638ea5d4ce9dffcc858481548110610e2d57610e2d616f50565b90600052602060002090600502016001018742604051610e4f9392919061733e565b60405180910390a360019150610e68565b600101610d05565b5080610ecf5760405162461bcd60e51b815260206004820152603060248201527f4e6f20756e70726f636573736564207265717565737420666f756e642077697460448201526f6820746869732066696c65206e616d6560801b6064820152608401610640565b5050505050565b6001600160a01b0380831660009081526009602090815260408083209385168352928152828220805484518184028101840190955280855260609493919290919084015b828210156110a15760008481526020908190206040805160a0810190915260058502909101805460ff16151582526001810180549293919291840191610f5f90616f8f565b80601f0160208091040260200160405190810160405280929190818152602001828054610f8b90616f8f565b8015610fd85780601f10610fad57610100808354040283529160200191610fd8565b820191906000526020600020905b815481529060010190602001808311610fbb57829003601f168201915b50505050508152602001600282018054610ff190616f8f565b80601f016020809104026020016040519081016040528092919081815260200182805461101d90616f8f565b801561106a5780601f1061103f5761010080835404028352916020019161106a565b820191906000526020600020905b81548152906001019060200180831161104d57829003601f168201915b5050509183525050600382015460208083019190915260049092015460ff1615156040909101529082526001929092019101610f1a565b50505050905092915050565b60008251116110fe5760405162461bcd60e51b815260206004820152601a60248201527f5075626c6963206b65792063616e6e6f7420626520656d7074790000000000006044820152606401610640565b60008151116111465760405162461bcd60e51b8152602060048201526014602482015273446174612063616e6e6f7420626520656d70747960601b6044820152606401610640565b3360009081526003602090815260408220805460018101825590835291200161116f83826171c1565b50336000818152600260209081526040808320815161010081018352948552848301849052815192830182528383529084019190915260608301859052815490929160808301916111bf90616f8f565b80601f01602080910402602001604051908101604052809291908181526020018280546111eb90616f8f565b80156112385780601f1061120d57610100808354040283529160200191611238565b820191906000526020600020905b81548152906001019060200180831161121b57829003601f168201915b5050509183525050602081018490526040016000815242602091820152825460018082018555600094855293829020835160089092020180546001600160a01b03199081166001600160a01b0393841617825592840151948101805490931694909116939093179055604081015190919060028201906112b890826171c1565b50606082015160038201906112cd90826171c1565b50608082015160048201906112e290826171c1565b5060a082015160058201906112f790826171c1565b5060c082015160068201805460ff19166001838181111561131a5761131a616872565b021790555060e082015181600701555050336001600160a01b03167fc5d820f5092964c33342d79084a41f152b1071ffc9965eb19b078805775f4ae483834260405161136893929190617363565b60405180910390a2604051339081907ff8978169ef1306ac0c49b6b67c280d605663d299eb03a25d6c691f3648d7b350906113ab90859060009081904290617399565b60405180910390a35050565b6060336001600160a01b037f00000000000000000000000000000000000000000000000000000000000000001614806113ff57503360009081526010602052604090205460ff165b61145f5760405162461bcd60e51b815260206004820152603e602482015260008051602061746c83398151915260448201527f616e2072656164207072697661746520617474726962757465206b65797300006064820152608401610640565b600f805480602002602001604051908101604052809291908181526020016000905b8282101561152d5783829060005260206000200180546114a090616f8f565b80601f01602080910402602001604051908101604052809291908181526020018280546114cc90616f8f565b80156115195780601f106114ee57610100808354040283529160200191611519565b820191906000526020600020905b8154815290600101906020018083116114fc57829003601f168201915b505050505081526020019060010190611481565b50505050905090565b60606001600160a01b0382166115995760405162461bcd60e51b815260206004820152602260248201527f4f746865722070617274792063616e6e6f74206265207a65726f206164647265604482015261737360f01b6064820152608401610640565b336001600160a01b038316036115ff5760405162461bcd60e51b815260206004820152602560248201527f43616e6e6f742067657420636f6e766572736174696f6e207769746820796f756044820152643939b2b63360d91b6064820152608401610640565b600061160b33846144cb565b905060016000828152602001908152602001600020805480602002602001604051908101604052809291908181526020016000905b8282101561191b57600084815260209081902060408051610100810182526008860290920180546001600160a01b039081168452600182015416938301939093526002830180549293929184019161169790616f8f565b80601f01602080910402602001604051908101604052809291908181526020018280546116c390616f8f565b80156117105780601f106116e557610100808354040283529160200191611710565b820191906000526020600020905b8154815290600101906020018083116116f357829003601f168201915b5050505050815260200160038201805461172990616f8f565b80601f016020809104026020016040519081016040528092919081815260200182805461175590616f8f565b80156117a25780601f10611777576101008083540402835291602001916117a2565b820191906000526020600020905b81548152906001019060200180831161178557829003601f168201915b505050505081526020016004820180546117bb90616f8f565b80601f01602080910402602001604051908101604052809291908181526020018280546117e790616f8f565b80156118345780601f1061180957610100808354040283529160200191611834565b820191906000526020600020905b81548152906001019060200180831161181757829003601f168201915b5050505050815260200160058201805461184d90616f8f565b80601f016020809104026020016040519081016040528092919081815260200182805461187990616f8f565b80156118c65780601f1061189b576101008083540402835291602001916118c6565b820191906000526020600020905b8154815290600101906020018083116118a957829003601f168201915b5050509183525050600682015460209091019060ff1660018111156118ed576118ed616872565b60018111156118fe576118fe616872565b815260200160078201548152505081526020019060010190611640565b50505050915050919050565b6001600160a01b0382166119765760405162461bcd60e51b8152602060048201526016602482015275416464726573732063616e6e6f74206265207a65726f60501b6044820152606401610640565b3360009081526008602090815260408083206001600160a01b038616845290915290206119a382826171c1565b50816001600160a01b0316336001600160a01b03167fcfa1f5b97ceeb27c65685672597ffc9636dcc9dbe3e0d10807477076a87afdba836040516113ab9190616c87565b60408051608081018252600080825260606020830181905292820152818101919091526001600160a01b0384166000908152600560205260408082209051611a30908690616f34565b9081526020016040518091039020805480602002602001604051908101604052809291908181526020016000905b82821015611bdb57600084815260209081902060408051608081019091526004850290910180546001600160a01b031682526001810180549293919291840191611aa790616f8f565b80601f0160208091040260200160405190810160405280929190818152602001828054611ad390616f8f565b8015611b205780601f10611af557610100808354040283529160200191611b20565b820191906000526020600020905b815481529060010190602001808311611b0357829003601f168201915b5050509183525050600282015460ff166020820152600382018054604090920191611b4a90616f8f565b80601f0160208091040260200160405190810160405280929190818152602001828054611b7690616f8f565b8015611bc35780601f10611b9857610100808354040283529160200191611bc3565b820191906000526020600020905b815481529060010190602001808311611ba657829003601f168201915b50505050508152505081526020019060010190611a5e565b50505050905060005b8151811015611c4e57836001600160a01b0316828281518110611c0957611c09616f50565b6020026020010151600001516001600160a01b031603611c4657818181518110611c3557611c35616f50565b602002602001015192505050611c97565b600101611be4565b5060405162461bcd60e51b815260206004820152601860248201527f41646472657373206e6f7420696e2077686974656c69737400000000000000006044820152606401610640565b9392505050565b6001600160a01b0381166000908152600660209081526040808320805482518185028101850190935280835260609492939192909184015b82821015611d82578382906000526020600020018054611cf590616f8f565b80601f0160208091040260200160405190810160405280929190818152602001828054611d2190616f8f565b8015611d6e5780601f10611d4357610100808354040283529160200191611d6e565b820191906000526020600020905b815481529060010190602001808311611d5157829003601f168201915b505050505081526020019060010190611cd6565b505050509050919050565b336001600160a01b037f0000000000000000000000000000000000000000000000000000000000000000161480611dd357503360009081526010602052604090205460ff165b611e335760405162461bcd60e51b815260206004820152603c602482015260008051602061746c83398151915260448201527f616e2064656c65746520707269766174652061747472696275746573000000006064820152608401610640565b600d81604051611e439190616f34565b90815260200160405180910390206000611e5d91906161b9565b60005b600f54811015611f38578180519060200120600f8281548110611e8557611e85616f50565b90600052602060002001604051611e9c919061710a565b604051809103902003611f3057600f8054611eb990600190616f7c565b81548110611ec957611ec9616f50565b90600052602060002001600f8281548110611ee657611ee6616f50565b906000526020600020019081611efc9190617015565b50600f805480611f0e57611f0e6170f4565b600190038181906000526020600020016000611f2a91906161b9565b90555050565b600101611e60565b5050565b6001600160a01b0381166000908152600260209081526040808320805482518185028101850190935280835260609493849084015b8282101561224c57600084815260209081902060408051610100810182526008860290920180546001600160a01b0390811684526001820154169383019390935260028301805492939291840191611fc890616f8f565b80601f0160208091040260200160405190810160405280929190818152602001828054611ff490616f8f565b80156120415780601f1061201657610100808354040283529160200191612041565b820191906000526020600020905b81548152906001019060200180831161202457829003601f168201915b5050505050815260200160038201805461205a90616f8f565b80601f016020809104026020016040519081016040528092919081815260200182805461208690616f8f565b80156120d35780601f106120a8576101008083540402835291602001916120d3565b820191906000526020600020905b8154815290600101906020018083116120b657829003601f168201915b505050505081526020016004820180546120ec90616f8f565b80601f016020809104026020016040519081016040528092919081815260200182805461211890616f8f565b80156121655780601f1061213a57610100808354040283529160200191612165565b820191906000526020600020905b81548152906001019060200180831161214857829003601f168201915b5050505050815260200160058201805461217e90616f8f565b80601f01602080910402602001604051908101604052809291908181526020018280546121aa90616f8f565b80156121f75780601f106121cc576101008083540402835291602001916121f7565b820191906000526020600020905b8154815290600101906020018083116121da57829003601f168201915b5050509183525050600682015460209091019060ff16600181111561221e5761221e616872565b600181111561222f5761222f616872565b815260200160078201548152505081526020019060010190611f71565b505050509050826001600160a01b0316336001600160a01b0316036122715792915050565b6000805b82518110156122ca57600083828151811061229257612292616f50565b602002602001015160c0015160018111156122af576122af616872565b036122c257816122be816173be565b9250505b600101612275565b506000816001600160401b038111156122e5576122e5616412565b60405190808252806020026020018201604052801561231e57816020015b61230b6161f6565b8152602001906001900390816123035790505b5090506000805b84518110156123b257600085828151811061234257612342616f50565b602002602001015160c00151600181111561235f5761235f616872565b036123aa5784818151811061237657612376616f50565b602002602001015183838151811061239057612390616f50565b602002602001018190525081806123a6906173be565b9250505b600101612325565b509095945050505050565b6001600160a01b0383166000908152600260209081526040808320805482518185028101850190935280835260609493849084015b828210156126cd57600084815260209081902060408051610100810182526008860290920180546001600160a01b039081168452600182015416938301939093526002830180549293929184019161244990616f8f565b80601f016020809104026020016040519081016040528092919081815260200182805461247590616f8f565b80156124c25780601f10612497576101008083540402835291602001916124c2565b820191906000526020600020905b8154815290600101906020018083116124a557829003601f168201915b505050505081526020016003820180546124db90616f8f565b80601f016020809104026020016040519081016040528092919081815260200182805461250790616f8f565b80156125545780601f1061252957610100808354040283529160200191612554565b820191906000526020600020905b81548152906001019060200180831161253757829003601f168201915b5050505050815260200160048201805461256d90616f8f565b80601f016020809104026020016040519081016040528092919081815260200182805461259990616f8f565b80156125e65780601f106125bb576101008083540402835291602001916125e6565b820191906000526020600020905b8154815290600101906020018083116125c957829003601f168201915b505050505081526020016005820180546125ff90616f8f565b80601f016020809104026020016040519081016040528092919081815260200182805461262b90616f8f565b80156126785780601f1061264d57610100808354040283529160200191612678565b820191906000526020600020905b81548152906001019060200180831161265b57829003601f168201915b5050509183525050600682015460209091019060ff16600181111561269f5761269f616872565b60018111156126b0576126b0616872565b8152602001600782015481525050815260200190600101906123f2565b505050509050846001600160a01b0316336001600160a01b031603612807578051841061272e576040805160008082526020820190925290612725565b6127126161f6565b81526020019060019003908161270a5790505b50915050611c97565b600061273a84866173d7565b90508151811115612749575080515b60006127558683616f7c565b6001600160401b0381111561276c5761276c616412565b6040519080825280602002602001820160405280156127a557816020015b6127926161f6565b81526020019060019003908161278a5790505b509050855b828110156127fc578381815181106127c4576127c4616f50565b60200260200101518288836127d99190616f7c565b815181106127e9576127e9616f50565b60209081029190910101526001016127aa565b509250611c97915050565b6000805b825181101561286057600083828151811061282857612828616f50565b602002602001015160c00151600181111561284557612845616872565b036128585781612854816173be565b9250505b60010161280b565b508085106128a3576040805160008082526020820190925290612899565b6128866161f6565b81526020019060019003908161287e5790505b5092505050611c97565b83816128af82886173d7565b11156128c2576128bf8683616f7c565b90505b6000816001600160401b038111156128dc576128dc616412565b60405190808252806020026020018201604052801561291557816020015b6129026161f6565b8152602001906001900390816128fa5790505b50905060008060005b86518110801561292d57508482105b156129d557600087828151811061294657612946616f50565b602002602001015160c00151600181111561296357612963616872565b036129c3578983106129b55786818151811061298157612981616f50565b602002602001015184838151811061299b5761299b616f50565b602002602001018190525081806129b1906173be565b9250505b826129bf816173be565b9350505b806129cd816173be565b91505061291e565b50919998505050505050505050565b336000908152600260209081526040808320805482518185028101850190935280835260609493849084015b82821015612ceb57600084815260209081902060408051610100810182526008860290920180546001600160a01b0390811684526001820154169383019390935260028301805492939291840191612a6790616f8f565b80601f0160208091040260200160405190810160405280929190818152602001828054612a9390616f8f565b8015612ae05780601f10612ab557610100808354040283529160200191612ae0565b820191906000526020600020905b815481529060010190602001808311612ac357829003601f168201915b50505050508152602001600382018054612af990616f8f565b80601f0160208091040260200160405190810160405280929190818152602001828054612b2590616f8f565b8015612b725780601f10612b4757610100808354040283529160200191612b72565b820191906000526020600020905b815481529060010190602001808311612b5557829003601f168201915b50505050508152602001600482018054612b8b90616f8f565b80601f0160208091040260200160405190810160405280929190818152602001828054612bb790616f8f565b8015612c045780601f10612bd957610100808354040283529160200191612c04565b820191906000526020600020905b815481529060010190602001808311612be757829003601f168201915b50505050508152602001600582018054612c1d90616f8f565b80601f0160208091040260200160405190810160405280929190818152602001828054612c4990616f8f565b8015612c965780601f10612c6b57610100808354040283529160200191612c96565b820191906000526020600020905b815481529060010190602001808311612c7957829003601f168201915b5050509183525050600682015460209091019060ff166001811115612cbd57612cbd616872565b6001811115612cce57612cce616872565b815260200160078201548152505081526020019060010190612a10565b505050509050600081516001600160401b03811115612d0c57612d0c616412565b604051908082528060200260200182016040528015612d3f57816020015b6060815260200190600190039081612d2a5790505b50905060005b8251811015612d9157828181518110612d6057612d60616f50565b602002602001015160a00151828281518110612d7e57612d7e616f50565b6020908102919091010152600101612d45565b5092915050565b6060600e805480602002602001604051908101604052809291908181526020016000905b8282101561152d578382906000526020600020018054612ddb90616f8f565b80601f0160208091040260200160405190810160405280929190818152602001828054612e0790616f8f565b8015612e545780601f10612e2957610100808354040283529160200191612e54565b820191906000526020600020905b815481529060010190602001808311612e3757829003601f168201915b505050505081526020019060010190612dbc565b6000855111612e895760405162461bcd60e51b815260040161064090616efd565b60048260ff16111580612e9f57508160ff1660ff145b612f045760405162461bcd60e51b815260206004820152603060248201527f496e76616c696420726f6c653a206d75737420626520302d34206f722032353560448201526f20286b656570206578697374696e672960801b6064820152608401610640565b336000908152600560205260408082209051612f21908890616f34565b9081526020016040518091039020905060005b815481101561310e57856001600160a01b0316828281548110612f5957612f59616f50565b60009182526020909120600490910201546001600160a01b0316036131065760408051808201909152600581526304b4545560dc1b6020918201528551908601207fb0837273b2da8502395a7160f0bf01f6f8b7a45d6441089eea6b5d9f33b8399114612ff25784828281548110612fd357612fd3616f50565b90600052602060002090600402016001019081612ff091906171c1565b505b8360ff1660ff1461303a578382828154811061301057613010616f50565b906000526020600020906004020160020160006101000a81548160ff021916908360ff1602179055505b60408051808201909152600581526304b4545560dc1b6020918201528351908401207fb0837273b2da8502395a7160f0bf01f6f8b7a45d6441089eea6b5d9f33b83991146130b4578282828154811061309557613095616f50565b906000526020600020906004020160030190816130b291906171c1565b505b856001600160a01b0316336001600160a01b03167fb66dabb959d5f3bdb53a39aa58d0975b39199c9b188ad8bb09a1b37bb7bf597989426040516130f99291906173ea565b60405180910390a361310e565b600101612f34565b50505050505050565b6001600160a01b0381166000908152600360209081526040808320805482518185028101850190935280835260609492939192909184015b82821015611d8257838290600052602060002001805461316e90616f8f565b80601f016020809104026020016040519081016040528092919081815260200182805461319a90616f8f565b80156131e75780601f106131bc576101008083540402835291602001916131e7565b820191906000526020600020905b8154815290600101906020018083116131ca57829003601f168201915b50505050508152602001906001019061314f565b336001600160a01b037f000000000000000000000000000000000000000000000000000000000000000016146132825760405162461bcd60e51b815260206004820152602660248201527f4f6e6c792073706f6e736f722063616e2072656d6f76652061646d696e6973746044820152657261746f727360d01b6064820152608401610640565b6001600160a01b03166000908152601060205260409020805460ff19169055565b6001600160a01b0385166132f95760405162461bcd60e51b815260206004820181905260248201527f526563697069656e742063616e6e6f74206265207a65726f20616464726573736044820152606401610640565b336001600160a01b038616036133515760405162461bcd60e51b815260206004820152601760248201527f43616e6e6f74206d65737361676520796f757273656c660000000000000000006044820152606401610640565b600081511161339e5760405162461bcd60e51b81526020600482015260196024820152784950465320686173682063616e6e6f7420626520656d70747960381b6044820152606401610640565b60006133aa33876144cb565b6000818152600160205260408120549192500361340557336000908152600460209081526040808320805460018181018355918552838520018590556001600160a01b038a1684529083208054918201815583529120018190555b60016000828152602001908152602001600020604051806101000160405280336001600160a01b03168152602001886001600160a01b0316815260200186815260200187815260200185815260200184815260200160018081111561346c5761346c616872565b815242602091820152825460018082018555600094855293829020835160089092020180546001600160a01b03199081166001600160a01b0393841617825592840151948101805490931694909116939093179055604081015190919060028201906134d890826171c1565b50606082015160038201906134ed90826171c1565b506080820151600482019061350290826171c1565b5060a0820151600582019061351790826171c1565b5060c082015160068201805460ff19166001838181111561353a5761353a616872565b021790555060e0919091015160079091015584511561357e573360009081526003602090815260408220805460018101825590835291200161357c86826171c1565b505b856001600160a01b0316336001600160a01b03167fb6e5bea89e5044d66ff49940ba0401db7bec08daacadb6d06705264874a40fea848642604051610bdd93929190617363565b336001600160a01b037f000000000000000000000000000000000000000000000000000000000000000016148061360b57503360009081526010602052604090205460ff165b61366b5760405162461bcd60e51b815260206004820152603b602482015260008051602061746c83398151915260448201527f616e2064656c657465207075626c6963206174747269627574657300000000006064820152608401610640565b600c8160405161367b9190616f34565b9081526020016040518091039020600061369591906161b9565b60005b600e54811015611f38578180519060200120600e82815481106136bd576136bd616f50565b906000526020600020016040516136d4919061710a565b60405180910390200361374657600e80546136f190600190616f7c565b8154811061370157613701616f50565b90600052602060002001600e828154811061371e5761371e616f50565b9060005260206000200190816137349190617015565b50600e805480611f0e57611f0e6170f4565b600101613698565b336001600160a01b037f000000000000000000000000000000000000000000000000000000000000000016148061379457503360009081526010602052604090205460ff165b6137f45760405162461bcd60e51b8152602060048201526038602482015260008051602061746c83398151915260448201527f616e20736574207075626c6963206174747269627574657300000000000000006064820152608401610640565b600082511161383b5760405162461bcd60e51b81526020600482015260136024820152724b65792063616e6e6f7420626520656d70747960681b6044820152606401610640565b600c8260405161384b9190616f34565b9081526020016040518091039020805461386490616f8f565b90506000036138ab57600e80546001810182556000919091527fbb7b4a454dc3493923482f07822329ed19e8244eff582cc204f8554c3620c3fd016138a983826171c1565b505b80600c836040516138bc9190616f34565b908152602001604051809103902090816138d691906171c1565b50816040516138e59190616f34565b6040805191829003822060018352426020840152917f590120a97fea9eae0ab7f73633c407e0d9f528198b43f5aded24fc164146674491015b60405180910390a25050565b6060600c8260405161393c9190616f34565b9081526020016040518091039020805461395590616f8f565b80601f016020809104026020016040519081016040528092919081815260200182805461398190616f8f565b80156139ce5780601f106139a3576101008083540402835291602001916139ce565b820191906000526020600020905b8154815290600101906020018083116139b157829003601f168201915b50505050509050919050565b6001600160a01b0383166000908152600560205260408082209051829190613a03908690616f34565b9081526020016040518091039020805480602002602001604051908101604052809291908181526020016000905b82821015613bae57600084815260209081902060408051608081019091526004850290910180546001600160a01b031682526001810180549293919291840191613a7a90616f8f565b80601f0160208091040260200160405190810160405280929190818152602001828054613aa690616f8f565b8015613af35780601f10613ac857610100808354040283529160200191613af3565b820191906000526020600020905b815481529060010190602001808311613ad657829003601f168201915b5050509183525050600282015460ff166020820152600382018054604090920191613b1d90616f8f565b80601f0160208091040260200160405190810160405280929190818152602001828054613b4990616f8f565b8015613b965780601f10613b6b57610100808354040283529160200191613b96565b820191906000526020600020905b815481529060010190602001808311613b7957829003601f168201915b50505050508152505081526020019060010190613a31565b50505050905060005b8151811015613c0957836001600160a01b0316828281518110613bdc57613bdc616f50565b6020026020010151600001516001600160a01b031603613c0157600192505050611c97565b600101613bb7565b50600095945050505050565b6001600160a01b038416613c6b5760405162461bcd60e51b815260206004820152601f60248201527f417070726f7665722063616e6e6f74206265207a65726f2061646472657373006044820152606401610640565b6000835111613cb85760405162461bcd60e51b815260206004820152601960248201527846696c65206e616d652063616e6e6f7420626520656d70747960381b6044820152606401610640565b6000825111613d095760405162461bcd60e51b815260206004820152601960248201527f46696c6520686173682063616e6e6f7420626520656d707479000000000000006044820152606401610640565b6001600160a01b0384166000908152600a60205260408120815b8154811015613d7357336001600160a01b0316828281548110613d4857613d48616f50565b6000918252602090912001546001600160a01b031603613d6b5760019250613d73565b600101613d23565b5081613db2576001600160a01b0386166000908152600a602090815260408220805460018101825590835291200180546001600160a01b031916331790555b336000908152600b60205260408120815b8154811015613e1357886001600160a01b0316828281548110613de857613de8616f50565b6000918252602090912001546001600160a01b031603613e0b5760019250613e13565b600101613dc3565b5081613e5257336000908152600b602090815260408220805460018101825590835291200180546001600160a01b0319166001600160a01b038a161790555b6040805160a081018252600080825260208083018b81528385018b9052606084018390526001608085018190526001600160a01b038e16845260098352858420338552835294832080548087018255908452919092208351600590920201805460ff191691151591909117815590519192839290820190613ed390826171c1565b5060408201516002820190613ee890826171c1565b50606082015160038201556080909101516004909101805460ff191691151591909117905560405133906001600160a01b038b16907f77b5f9c2d9c3bd8746beb63af36552109a2f92f947920ba0994acb2deb3e3b8b90613f4e908c908c904290617363565b60405180910390a3505050505050505050565b336001600160a01b037f0000000000000000000000000000000000000000000000000000000000000000161480613fa757503360009081526010602052604090205460ff165b6140075760405162461bcd60e51b8152602060048201526039602482015260008051602061746c83398151915260448201527f616e2073657420707269766174652061747472696275746573000000000000006064820152608401610640565b600082511161404e5760405162461bcd60e51b81526020600482015260136024820152724b65792063616e6e6f7420626520656d70747960681b6044820152606401610640565b600d8260405161405e9190616f34565b9081526020016040518091039020805461407790616f8f565b90506000036140be57600f80546001810182556000919091527f8d1108e10bcb7c27dddfc02ed9d693a074039d026cf4ea4240b40f7d581ac802016140bc83826171c1565b505b80600d836040516140cf9190616f34565b908152602001604051809103902090816140e991906171c1565b50816040516140f89190616f34565b6040805191829003822060008352426020840152917f590120a97fea9eae0ab7f73633c407e0d9f528198b43f5aded24fc1641466744910161391e565b6001600160a01b03821660009081526005602052604090819020905160609190614160908490616f34565b9081526020016040518091039020805480602002602001604051908101604052809291908181526020016000905b828210156110a157600084815260209081902060408051608081019091526004850290910180546001600160a01b0316825260018101805492939192918401916141d790616f8f565b80601f016020809104026020016040519081016040528092919081815260200182805461420390616f8f565b80156142505780601f1061422557610100808354040283529160200191614250565b820191906000526020600020905b81548152906001019060200180831161423357829003601f168201915b5050509183525050600282015460ff16602082015260038201805460409092019161427a90616f8f565b80601f01602080910402602001604051908101604052809291908181526020018280546142a690616f8f565b80156142f35780601f106142c8576101008083540402835291602001916142f3565b820191906000526020600020905b8154815290600101906020018083116142d657829003601f168201915b5050505050815250508152602001906001019061418e565b6001600160a01b03808316600090815260086020908152604080832093851683529290522080546060919061433f90616f8f565b80601f016020809104026020016040519081016040528092919081815260200182805461436b90616f8f565b80156143b85780601f1061438d576101008083540402835291602001916143b8565b820191906000526020600020905b81548152906001019060200180831161439b57829003601f168201915b5050505050905092915050565b8051602081830181018051600c82529282019190930120915280546143e990616f8f565b80601f016020809104026020016040519081016040528092919081815260200182805461441590616f8f565b80156144625780601f1061443757610100808354040283529160200191614462565b820191906000526020600020905b81548152906001019060200180831161444557829003601f168201915b505050505081565b336000908152600460209081526040918290208054835181840281018401909452808452606093928301828280156144c157602002820191906000526020600020905b8154815260200190600101908083116144ad575b5050505050905090565b6000806000836001600160a01b0316856001600160a01b0316106144f05783856144f3565b84845b6040516bffffffffffffffffffffffff19606084811b8216602084015283901b1660348201529193509150604801604051602081830303815290604052805190602001209250505092915050565b600080546143e990616f8f565b6001600160a01b0381166000908152600b602090815260408083208054825181850281018501909352808352606094938301828280156145b757602002820191906000526020600020905b81546001600160a01b03168152600190910190602001808311614599575b505050505090506000805b825181101561464557600960008483815181106145e1576145e1616f50565b60200260200101516001600160a01b03166001600160a01b031681526020019081526020016000206000866001600160a01b03166001600160a01b03168152602001908152602001600020805490508261463b91906173d7565b91506001016145c2565b506000816001600160401b0381111561466057614660616412565b60405190808252806020026020018201604052801561469957816020015b61468661625e565b81526020019060019003908161467e5790505b5090506000805b84518110156123b25760008582815181106146bd576146bd616f50565b6020908102919091018101516001600160a01b038082166000908152600984526040808220928d1682529184528181208054835181870281018701909452808452939550909391929091849084015b828210156148935760008481526020908190206040805160a0810190915260058502909101805460ff1615158252600181018054929391929184019161475190616f8f565b80601f016020809104026020016040519081016040528092919081815260200182805461477d90616f8f565b80156147ca5780601f1061479f576101008083540402835291602001916147ca565b820191906000526020600020905b8154815290600101906020018083116147ad57829003601f168201915b505050505081526020016002820180546147e390616f8f565b80601f016020809104026020016040519081016040528092919081815260200182805461480f90616f8f565b801561485c5780601f106148315761010080835404028352916020019161485c565b820191906000526020600020905b81548152906001019060200180831161483f57829003601f168201915b5050509183525050600382015460208083019190915260049092015460ff161515604090910152908252600192909201910161470c565b50505050905060005b81518110156149a3576040518060c00160405280846001600160a01b031681526020018383815181106148d1576148d1616f50565b602002602001015160000151151581526020018383815181106148f6576148f6616f50565b602002602001015160200151815260200183838151811061491957614919616f50565b602002602001015160400151815260200183838151811061493c5761493c616f50565b602002602001015160600151815260200183838151811061495f5761495f616f50565b602002602001015160800151151581525086868151811061498257614982616f50565b60200260200101819052508480614998906173be565b95505060010161489c565b5050506001016146a0565b3360009081526007602090815260408083206001600160a01b03851684528252808320805482518185028101850190935280835260609492939192909184015b82821015611d825783829060005260206000209060030201604051806060016040529081600082018054614a2190616f8f565b80601f0160208091040260200160405190810160405280929190818152602001828054614a4d90616f8f565b8015614a9a5780601f10614a6f57610100808354040283529160200191614a9a565b820191906000526020600020905b815481529060010190602001808311614a7d57829003601f168201915b505050918352505060018281015460ff16602080840191909152600290930154604090920191909152918352920191016149ee565b336001600160a01b037f00000000000000000000000000000000000000000000000000000000000000001614614b535760405162461bcd60e51b815260206004820152602360248201527f4f6e6c792073706f6e736f722063616e206164642061646d696e6973747261746044820152626f727360e81b6064820152608401610640565b6001600160a01b038116614ba95760405162461bcd60e51b815260206004820152601c60248201527f41646d696e2063616e6e6f74206265207a65726f2061646472657373000000006044820152606401610640565b6001600160a01b03166000908152601060205260409020805460ff19166001179055565b6060336001600160a01b037f0000000000000000000000000000000000000000000000000000000000000000161480614c1557503360009081526010602052604090205460ff165b614c755760405162461bcd60e51b815260206004820152603a602482015260008051602061746c83398151915260448201527f616e2072656164207072697661746520617474726962757465730000000000006064820152608401610640565b600d8260405161393c9190616f34565b6001600160a01b038116614cdb5760405162461bcd60e51b815260206004820181905260248201527f4e6577206f776e65722063616e6e6f74206265207a65726f20616464726573736044820152606401610640565b336001600160a01b03821603614d335760405162461bcd60e51b815260206004820152601760248201527f43616e6e6f74207472616e7366657220746f2073656c660000000000000000006044820152606401610640565b33600090815260026020526040902054151580614d5e57503360009081526004602052604090205415155b614da05760405162461bcd60e51b81526020600482015260136024820152722737903230ba30903a37903a3930b739b332b960691b6044820152606401610640565b336000908152600260205260408120905b81548110156152395760026000846001600160a01b03166001600160a01b03168152602001908152602001600020604051806101000160405280856001600160a01b03168152602001848481548110614e0c57614e0c616f50565b6000918252602091829020600160089092020101546001600160a01b031682528554910190859085908110614e4357614e43616f50565b90600052602060002090600802016002018054614e5f90616f8f565b80601f0160208091040260200160405190810160405280929190818152602001828054614e8b90616f8f565b8015614ed85780601f10614ead57610100808354040283529160200191614ed8565b820191906000526020600020905b815481529060010190602001808311614ebb57829003601f168201915b50505050508152602001848481548110614ef457614ef4616f50565b90600052602060002090600802016003018054614f1090616f8f565b80601f0160208091040260200160405190810160405280929190818152602001828054614f3c90616f8f565b8015614f895780601f10614f5e57610100808354040283529160200191614f89565b820191906000526020600020905b815481529060010190602001808311614f6c57829003601f168201915b50505050508152602001848481548110614fa557614fa5616f50565b90600052602060002090600802016004018054614fc190616f8f565b80601f0160208091040260200160405190810160405280929190818152602001828054614fed90616f8f565b801561503a5780601f1061500f5761010080835404028352916020019161503a565b820191906000526020600020905b81548152906001019060200180831161501d57829003601f168201915b5050505050815260200184848154811061505657615056616f50565b9060005260206000209060080201600501805461507290616f8f565b80601f016020809104026020016040519081016040528092919081815260200182805461509e90616f8f565b80156150eb5780601f106150c0576101008083540402835291602001916150eb565b820191906000526020600020905b8154815290600101906020018083116150ce57829003601f168201915b5050505050815260200184848154811061510757615107616f50565b600091825260209091206006600890920201015460ff16600181111561512f5761512f616872565b815260200184848154811061514657615146616f50565b6000918252602080832060089283020160070154909352845460018082018755958352918390208451929091020180546001600160a01b03199081166001600160a01b0393841617825592840151948101805490931694909116939093179055604081015190919060028201906151bd90826171c1565b50606082015160038201906151d290826171c1565b50608082015160048201906151e790826171c1565b5060a082015160058201906151fc90826171c1565b5060c082015160068201805460ff19166001838181111561521f5761521f616872565b021790555060e09190910151600790910155600101614db1565b50336000908152600360205260408120905b81548110156152af576001600160a01b0384166000908152600360205260409020825483908390811061528057615280616f50565b6000918252602080832084546001810186559484529220909201916152a6910182617015565b5060010161524b565b50336000908152600460205260408120905b81548110156153805760008282815481106152de576152de616f50565b60009182526020808320909101546001600160a01b0389168352600490915260408220909250815b8154811015615343578382828154811061532257615322616f50565b90600052602060002001540361533b5760019250615343565b600101615306565b5081615375576001600160a01b0388166000908152600460209081526040822080546001810182559083529120018390555b5050506001016152c1565b50336000908152600b60209081526040808320805482518185028101850190935280835291929091908301828280156153e257602002820191906000526020600020905b81546001600160a01b031681526001909101906020018083116153c4575b5050505050905060005b815181101561594957600082828151811061540957615409616f50565b6020908102919091018101516001600160a01b0381166000908152600983526040808220338352845280822080548251818702810187019093528083529395509193909290849084015b828210156155da5760008481526020908190206040805160a0810190915260058502909101805460ff1615158252600181018054929391929184019161549890616f8f565b80601f01602080910402602001604051908101604052809291908181526020018280546154c490616f8f565b80156155115780601f106154e657610100808354040283529160200191615511565b820191906000526020600020905b8154815290600101906020018083116154f457829003601f168201915b5050505050815260200160028201805461552a90616f8f565b80601f016020809104026020016040519081016040528092919081815260200182805461555690616f8f565b80156155a35780601f10615578576101008083540402835291602001916155a3565b820191906000526020600020905b81548152906001019060200180831161558657829003601f168201915b5050509183525050600382015460208083019190915260049092015460ff1615156040909101529082526001929092019101615453565b50505050905060005b81518110156156af576001600160a01b038084166000908152600960209081526040808320938d16835292905220825183908390811061562557615625616f50565b6020908102919091018101518254600180820185556000948552938390208251600590920201805460ff191691151591909117815591810151909282019061566d90826171c1565b506040820151600282019061568290826171c1565b50606082015160038201556080909101516004909101805460ff19169115159190911790556001016155e3565b506001600160a01b0382166000908152600a6020526040812090805b8254811015615717578a6001600160a01b03168382815481106156f0576156f0616f50565b6000918252602090912001546001600160a01b03160361570f57600191505b6001016156cb565b5060005b825481101561581757336001600160a01b031683828154811061574057615740616f50565b6000918252602090912001546001600160a01b03160361580f578254839061576a90600190616f7c565b8154811061577a5761577a616f50565b9060005260206000200160009054906101000a90046001600160a01b03168382815481106157aa576157aa616f50565b9060005260206000200160006101000a8154816001600160a01b0302191690836001600160a01b03160217905550828054806157e8576157e86170f4565b600082815260209020810160001990810180546001600160a01b0319169055019055615817565b60010161571b565b508061585c576001600160a01b038481166000908152600a602090815260408220805460018101825590835291200180546001600160a01b031916918c169190911790555b6001600160a01b038a166000908152600b60205260408120815b81548110156158c657866001600160a01b031682828154811061589b5761589b616f50565b6000918252602090912001546001600160a01b0316036158be57600192506158c6565b600101615876565b508161590b576001600160a01b038c81166000908152600b602090815260408220805460018101825590835291200180546001600160a01b0319169188169190911790555b6001600160a01b03861660009081526009602090815260408083203384529091528120615937916162a1565b5050600190940193506153ec92505050565b50336000908152600260205260408120615962916162c2565b33600090815260036020526040812061597a916162e3565b33600090815260046020526040812061599291616301565b336000908152600b602052604081206159aa91616301565b6040514281526001600160a01b0386169033907fc13a1166d81cd3b0b352a367aebab95f3a6f6bc695fdab8e9a9d335239c3861b9060200160405180910390a35050505050565b6001600160a01b0381166000908152600a60209081526040808320805482518185028101850190935280835260609493830182828015615a5a57602002820191906000526020600020905b81546001600160a01b03168152600190910190602001808311615a3c575b505050505090506000805b8251811015615ade576001600160a01b03851660009081526009602052604081208451909190859084908110615a9d57615a9d616f50565b60200260200101516001600160a01b03166001600160a01b031681526020019081526020016000208054905082615ad491906173d7565b9150600101615a65565b506000816001600160401b03811115615af957615af9616412565b604051908082528060200260200182016040528015615b3257816020015b615b1f61625e565b815260200190600190039081615b175790505b5090506000805b84518110156123b2576000858281518110615b5657615b56616f50565b6020908102919091018101516001600160a01b03808b16600090815260098452604080822092841682529184528181208054835181870281018701909452808452939550909391929091849084015b82821015615d2c5760008481526020908190206040805160a0810190915260058502909101805460ff16151582526001810180549293919291840191615bea90616f8f565b80601f0160208091040260200160405190810160405280929190818152602001828054615c1690616f8f565b8015615c635780601f10615c3857610100808354040283529160200191615c63565b820191906000526020600020905b815481529060010190602001808311615c4657829003601f168201915b50505050508152602001600282018054615c7c90616f8f565b80601f0160208091040260200160405190810160405280929190818152602001828054615ca890616f8f565b8015615cf55780601f10615cca57610100808354040283529160200191615cf5565b820191906000526020600020905b815481529060010190602001808311615cd857829003601f168201915b5050509183525050600382015460208083019190915260049092015460ff1615156040909101529082526001929092019101615ba5565b50505050905060005b8151811015615e3c576040518060c00160405280846001600160a01b03168152602001838381518110615d6a57615d6a616f50565b60200260200101516000015115158152602001838381518110615d8f57615d8f616f50565b6020026020010151602001518152602001838381518110615db257615db2616f50565b6020026020010151604001518152602001838381518110615dd557615dd5616f50565b6020026020010151606001518152602001838381518110615df857615df8616f50565b6020026020010151608001511515815250868681518110615e1b57615e1b616f50565b60200260200101819052508480615e31906173be565b955050600101615d35565b505050600101615b39565b6000855111615e685760405162461bcd60e51b815260040161064090616efd565b6001600160a01b038416615eb75760405162461bcd60e51b8152602060048201526016602482015275416464726573732063616e6e6f74206265207a65726f60501b6044820152606401610640565b60048260ff16111580615ecd57508160ff1660ff145b615f2a5760405162461bcd60e51b815260206004820152602860248201527f496e76616c696420726f6c653a206d75737420626520302d34206f72203235356044820152672028756e7365742960c01b6064820152608401610640565b336000908152600560205260408082209051615f47908890616f34565b9081526020016040518091039020905060005b8154811015615fee57856001600160a01b0316828281548110615f7f57615f7f616f50565b60009182526020909120600490910201546001600160a01b031603615fe65760405162461bcd60e51b815260206004820152601c60248201527f4164647265737320616c726561647920696e2077686974656c697374000000006044820152606401610640565b600101615f5a565b508054600003616023573360009081526006602090815260408220805460018101825590835291200161602187826171c1565b505b60008360ff1660ff146160365783616039565b60005b604080516080810182526001600160a01b03898116825260208083018a815260ff86169484019490945260608301889052865460018082018955600089815292909220845160049092020180546001600160a01b031916919093161782559251939450909283928201906160ad90826171c1565b50604082015160028201805460ff191660ff909216919091179055606082015160038201906160dc90826171c1565b50503360009081526007602090815260408083206001600160a01b038c168452825280832081516060810183528d815260ff8816818501524292810192909252805460018101825590845291909220825192935060039091020190819061614390826171c1565b50602082015160018201805460ff191660ff909216919091179055604091820151600290910155516001600160a01b0388169033907fb66dabb959d5f3bdb53a39aa58d0975b39199c9b188ad8bb09a1b37bb7bf5979906161a7908c90429061742c565b60405180910390a35050505050505050565b5080546161c590616f8f565b6000825580601f106161d5575050565b601f0160209004906000526020600020908101906161f3919061631b565b50565b60405180610100016040528060006001600160a01b0316815260200160006001600160a01b03168152602001606081526020016060815260200160608152602001606081526020016000600181111561625157616251616872565b8152602001600081525090565b6040518060c0016040528060006001600160a01b031681526020016000151581526020016060815260200160608152602001600081526020016000151581525090565b50805460008255600502906000526020600020908101906161f39190616334565b50805460008255600802906000526020600020908101906161f3919061637d565b50805460008255906000526020600020908101906161f391906163f5565b50805460008255906000526020600020908101906161f391905b5b80821115616330576000815560010161631c565b5090565b8082111561633057805460ff19168155600061635360018301826161b9565b6163616002830160006161b9565b506000600382015560048101805460ff19169055600501616334565b808211156163305780546001600160a01b03199081168255600182018054909116905560006163af60028301826161b9565b6163bd6003830160006161b9565b6163cb6004830160006161b9565b6163d96005830160006161b9565b5060068101805460ff191690556000600782015560080161637d565b8082111561633057600061640982826161b9565b506001016163f5565b634e487b7160e01b600052604160045260246000fd5b600082601f83011261643957600080fd5b81356001600160401b0381111561645257616452616412565b604051601f8201601f19908116603f011681016001600160401b038111828210171561648057616480616412565b60405281815283820160200185101561649857600080fd5b816020850160208301376000918101602001919091529392505050565b80356001600160a01b03811681146164cc57600080fd5b919050565b600080604083850312156164e457600080fd5b82356001600160401b038111156164fa57600080fd5b61650685828601616428565b925050616515602084016164b5565b90509250929050565b60006020828403121561653057600080fd5b611c97826164b5565b8035600281106164cc57600080fd5b60008060008060008060c0878903121561656157600080fd5b61656a876164b5565b955060208701356001600160401b0381111561658557600080fd5b61659189828a01616428565b95505060408701356001600160401b038111156165ad57600080fd5b6165b989828a01616428565b94505060608701356001600160401b038111156165d557600080fd5b6165e189828a01616428565b93505060808701356001600160401b038111156165fd57600080fd5b61660989828a01616428565b92505061661860a08801616539565b90509295509295509295565b60008060006060848603121561663957600080fd5b616642846164b5565b925060208401356001600160401b0381111561665d57600080fd5b61666986828701616428565b9250506040840135801515811461667f57600080fd5b809150509250925092565b6000806040838503121561669d57600080fd5b6166a6836164b5565b9150616515602084016164b5565b60005b838110156166cf5781810151838201526020016166b7565b50506000910152565b600081518084526166f08160208601602086016166b4565b601f01601f19169290920160200192915050565b6000602082016020835280845180835260408501915060408160051b86010192506020860160005b828110156167a657603f198786030184528151805115158652602081015160a0602088015261675e60a08801826166d8565b90506040820151878203604089015261677782826166d8565b606084810151908a0152608093840151151593909801929092525050602093840193919091019060010161672c565b50929695505050505050565b600080604083850312156167c557600080fd5b82356001600160401b038111156167db57600080fd5b6167e785828601616428565b92505060208301356001600160401b0381111561680357600080fd5b61680f85828601616428565b9150509250929050565b6000602082016020835280845180835260408501915060408160051b86010192506020860160005b828110156167a657603f1987860301845261685d8583516166d8565b94506020938401939190910190600101616841565b634e487b7160e01b600052602160045260246000fd5b600281106168a657634e487b7160e01b600052602160045260246000fd5b9052565b6000602082016020835280845180835260408501915060408160051b86010192506020860160005b828110156167a657868503603f19018452815180516001600160a01b03168652602081015161690c60208801826001600160a01b03169052565b50604081015161010060408801526169286101008801826166d8565b90506060820151878203606089015261694182826166d8565b9150506080820151878203608089015261695b82826166d8565b91505060a082015187820360a089015261697582826166d8565b91505060c082015161698a60c0890182616888565b5060e091820151969091019590955260209384019391909101906001016168d2565b600080604083850312156169bf57600080fd5b6169c8836164b5565b915060208301356001600160401b0381111561680357600080fd5b6000806000606084860312156169f857600080fd5b616a01846164b5565b925060208401356001600160401b03811115616a1c57600080fd5b616a2886828701616428565b925050616a37604085016164b5565b90509250925092565b60018060a01b0381511682526000602082015160806020850152616a6760808501826166d8565b905060ff604084015116604085015260608301518482036060860152616a8d82826166d8565b95945050505050565b602081526000611c976020830184616a40565b600060208284031215616abb57600080fd5b81356001600160401b03811115616ad157600080fd5b616add84828501616428565b949350505050565b600080600060608486031215616afa57600080fd5b616b03846164b5565b95602085013595506040909401359392505050565b600080600080600060a08688031215616b3057600080fd5b85356001600160401b03811115616b4657600080fd5b616b5288828901616428565b955050616b61602087016164b5565b935060408601356001600160401b03811115616b7c57600080fd5b616b8888828901616428565b935050606086013560ff81168114616b9f57600080fd5b915060808601356001600160401b03811115616bba57600080fd5b616bc688828901616428565b9150509295509295909350565b600080600080600060a08688031215616beb57600080fd5b616bf4866164b5565b945060208601356001600160401b03811115616c0f57600080fd5b616c1b88828901616428565b94505060408601356001600160401b03811115616c3757600080fd5b616c4388828901616428565b93505060608601356001600160401b03811115616c5f57600080fd5b616c6b88828901616428565b92505060808601356001600160401b03811115616bba57600080fd5b602081526000611c9760208301846166d8565b60008060008060808587031215616cb057600080fd5b616cb9856164b5565b935060208501356001600160401b03811115616cd457600080fd5b616ce087828801616428565b93505060408501356001600160401b03811115616cfc57600080fd5b616d0887828801616428565b92505060608501356001600160401b03811115616d2457600080fd5b616d3087828801616428565b91505092959194509250565b6000602082016020835280845180835260408501915060408160051b86010192506020860160005b828110156167a657603f19878603018452616d80858351616a40565b94506020938401939190910190600101616d64565b602080825282518282018190526000918401906040840190835b818110156123b2578351835260209384019390920191600101616daf565b6000602082016020835280845180835260408501915060408160051b86010192506020860160005b828110156167a657603f19878603018452815160018060a01b038151168652602081015115156020870152604081015160c06040880152616e3960c08801826166d8565b905060608201518782036060890152616e5282826166d8565b608084810151908a015260a0938401511515939098019290925250506020938401939190910190600101616df5565b6000602082016020835280845180835260408501915060408160051b86010192506020860160005b828110156167a657603f198786030184528151805160608752616ecf60608801826166d8565b60208381015160ff168982015260409384015193909801929092525094938401939190910190600101616ea9565b60208082526019908201527f4c697374206e616d652063616e6e6f7420626520656d70747900000000000000604082015260600190565b60008251616f468184602087016166b4565b9190910192915050565b634e487b7160e01b600052603260045260246000fd5b634e487b7160e01b600052601160045260246000fd5b818103818111156109d1576109d1616f66565b600181811c90821680616fa357607f821691505b602082108103616fc357634e487b7160e01b600052602260045260246000fd5b50919050565b601f82111561701057806000526020600020601f840160051c81016020851015616ff05750805b601f840160051c820191505b81811015610ecf5760008155600101616ffc565b505050565b818103617020575050565b61702a8254616f8f565b6001600160401b0381111561704157617041616412565b6170558161704f8454616f8f565b84616fc9565b6000601f82116001811461708c57600083156170715750848201545b600184901b600019600386901b1c198216175b855550610ecf565b600085815260209020601f19841690600086815260209020845b838110156170c657828601548255600195860195909101906020016170a6565b50858310156170e45781850154600019600388901b60f8161c191681555b5050505050600190811b01905550565b634e487b7160e01b600052603160045260246000fd5b600080835461711881616f8f565b60018216801561712f576001811461714457617174565b60ff1983168652811515820286019350617174565b86600052602060002060005b8381101561716c57815488820152600190910190602001617150565b505081860193505b509195945050505050565b60608152600061719260608301856166d8565b8281036020840152600681526572656d6f766560d01b6020820152604081019150508260408301529392505050565b81516001600160401b038111156171da576171da616412565b6171e88161704f8454616f8f565b6020601f82116001811461721a5760008315617071575081850151600184901b600019600386901b1c19821617617084565b600084815260208120601f198516915b8281101561724a578785015182556020948501946001909201910161722a565b50848210156172685786840151600019600387901b60f8161c191681555b50505050600190811b01905550565b60808152600061728a60808301876166d8565b828103602084015261729c81876166d8565b9150506172ac6040830185616888565b82606083015295945050505050565b600081546172c881616f8f565b8085526001821680156172e257600181146172fe57617335565b60ff1983166020870152602082151560051b8701019350617335565b84600052602060002060005b8381101561732c5781546020828a01015260018201915060208101905061730a565b87016020019450505b50505092915050565b60608152600061735160608301866172bb565b93151560208301525060400152919050565b60608152600061737660608301866166d8565b828103602084015261738881866166d8565b915050826040830152949350505050565b6080815260006173ac60808301876166d8565b828103602084015261729c81876172bb565b6000600182016173d0576173d0616f66565b5060010190565b808201808211156109d1576109d1616f66565b6060815260006173fd60608301856166d8565b8281036020840152600681526575706461746560d01b6020820152604081019150508260408301529392505050565b60608152600061743f60608301856166d8565b8281036020840152600381526218591960ea1b602082015260408101915050826040830152939250505056fe4f6e6c792073706f6e736f72206f722061646d696e6973747261746f72732063a2646970667358221220ff73dcef4a965018cf679ffffb369c35b2e02c12fa08e6e56c245d27e4770d6964736f6c634300081b0033",
  "linkReferences": {},
  "deployedLinkReferences": {}
}