{
  "_format": "hh-sol-artifact-1",
  "contractName": "Agent",
  "sourceName": "contracts/agent.sol",
  "abi": [
    {
      "anonymous": false,
      "inputs": [
        {
          "indexed": true,
          "internalType": "address",
          "name": "approver",
          "type": "address"
        },
        {
          "indexed": true,
          "internalType": "address",
          "name": "requestor",
          "type": "address"
        },
        {
          "indexed": false,
          "internalType": "string",
          "name": "fileName",
          "type": "string"
        },
        {
          "indexed": false,
          "internalType": "bool",
          "name": "approved",
          "type": "bool"
        },
        {
          "indexed": false,
          "internalType": "uint256",
          "name": "timestamp",
          "type": "uint256"
        }
      ],
      "name": "ApprovalHandled",
      "type": "event"
    },
    {
      "anonymous": false,
      "inputs": [
        {
          "indexed": true,
          "internalType": "address",
          "name": "approver",
          "type": "address"
        },
        {
          "indexed": true,
          "internalType": "address",
          "name": "requestor",
          "type": "address"
        },
        {
          "indexed": false,
          "internalType": "string",
          "name": "fileName",
          "type": "string"
        },
        {
          "indexed": false,
          "internalType": "string",
          "name": "fileHash",
          "type": "string"
        },
        {
          "indexed": false,
          "internalType": "uint256",
          "name": "timestamp",
          "type": "uint256"
        }
      ],
      "name": "ApprovalRequested",
      "type": "event"
    },
    {
      "anonymous": false,
      "inputs": [
        {
          "indexed": true,
          "internalType": "address",
          "name": "owner",
          "type": "address"
        },
        {
          "indexed": false,
          "internalType": "string",
          "name": "publicKey",
          "type": "string"
        },
        {
          "indexed": false,
          "internalType": "string",
          "name": "data",
          "type": "string"
        },
        {
          "indexed": false,
          "internalType": "uint256",
          "name": "timestamp",
          "type": "uint256"
        }
      ],
      "name": "DataWritten",
      "type": "event"
    },
    {
      "anonymous": false,
      "inputs": [
        {
          "indexed": true,
          "internalType": "address",
          "name": "previousOwner",
          "type": "address"
        },
        {
          "indexed": true,
          "internalType": "address",
          "name": "newOwner",
          "type": "address"
        },
        {
          "indexed": false,
          "internalType": "uint256",
          "name": "timestamp",
          "type": "uint256"
        }
      ],
      "name": "OwnershipTransferred",
      "type": "event"
    },
    {
      "inputs": [
        {
          "internalType": "address",
          "name": "addressToAdd",
          "type": "address"
        },
        {
          "internalType": "string",
          "name": "domain",
          "type": "string"
        }
      ],
      "name": "addToWhitelist",
      "outputs": [],
      "stateMutability": "nonpayable",
      "type": "function"
    },
    {
      "inputs": [
        {
          "internalType": "address",
          "name": "approverAddress",
          "type": "address"
        },
        {
          "internalType": "string",
          "name": "fileName",
          "type": "string"
        },
        {
          "internalType": "string",
          "name": "fileHash",
          "type": "string"
        },
        {
          "internalType": "string",
          "name": "domain",
          "type": "string"
        }
      ],
      "name": "createApproval",
      "outputs": [],
      "stateMutability": "nonpayable",
      "type": "function"
    },
    {
      "inputs": [
        {
          "internalType": "address",
          "name": "approverAddress",
          "type": "address"
        }
      ],
      "name": "getAllApprovalsForApprover",
      "outputs": [
        {
          "components": [
            {
              "internalType": "address",
              "name": "requestor",
              "type": "address"
            },
            {
              "internalType": "bool",
              "name": "approved",
              "type": "bool"
            },
            {
              "internalType": "string",
              "name": "fileName",
              "type": "string"
            },
            {
              "internalType": "string",
              "name": "fileHash",
              "type": "string"
            },
            {
              "internalType": "uint256",
              "name": "processedAt",
              "type": "uint256"
            },
            {
              "internalType": "bool",
              "name": "exists",
              "type": "bool"
            }
          ],
          "internalType": "struct Agent.ApprovalWithRequestor[]",
          "name": "",
          "type": "tuple[]"
        }
      ],
      "stateMutability": "view",
      "type": "function"
    },
    {
      "inputs": [
        {
          "internalType": "address",
          "name": "requestorAddress",
          "type": "address"
        }
      ],
      "name": "getAllApprovalsForRequestor",
      "outputs": [
        {
          "components": [
            {
              "internalType": "address",
              "name": "requestor",
              "type": "address"
            },
            {
              "internalType": "bool",
              "name": "approved",
              "type": "bool"
            },
            {
              "internalType": "string",
              "name": "fileName",
              "type": "string"
            },
            {
              "internalType": "string",
              "name": "fileHash",
              "type": "string"
            },
            {
              "internalType": "uint256",
              "name": "processedAt",
              "type": "uint256"
            },
            {
              "internalType": "bool",
              "name": "exists",
              "type": "bool"
            }
          ],
          "internalType": "struct Agent.ApprovalWithRequestor[]",
          "name": "",
          "type": "tuple[]"
        }
      ],
      "stateMutability": "view",
      "type": "function"
    },
    {
      "inputs": [
        {
          "internalType": "address",
          "name": "approverAddress",
          "type": "address"
        },
        {
          "internalType": "address",
          "name": "requestorAddress",
          "type": "address"
        }
      ],
      "name": "getApprovalsByAddress",
      "outputs": [
        {
          "components": [
            {
              "internalType": "bool",
              "name": "approved",
              "type": "bool"
            },
            {
              "internalType": "string",
              "name": "fileName",
              "type": "string"
            },
            {
              "internalType": "string",
              "name": "fileHash",
              "type": "string"
            },
            {
              "internalType": "uint256",
              "name": "processedAt",
              "type": "uint256"
            },
            {
              "internalType": "bool",
              "name": "exists",
              "type": "bool"
            }
          ],
          "internalType": "struct Agent.ApprovalRequest[]",
          "name": "",
          "type": "tuple[]"
        }
      ],
      "stateMutability": "view",
      "type": "function"
    },
    {
      "inputs": [],
      "name": "getMessageCount",
      "outputs": [
        {
          "internalType": "uint256",
          "name": "",
          "type": "uint256"
        }
      ],
      "stateMutability": "view",
      "type": "function"
    },
    {
      "inputs": [
        {
          "internalType": "address",
          "name": "wallet",
          "type": "address"
        },
        {
          "internalType": "string",
          "name": "domain",
          "type": "string"
        }
      ],
      "name": "getWhitelist",
      "outputs": [
        {
          "internalType": "address[]",
          "name": "",
          "type": "address[]"
        }
      ],
      "stateMutability": "view",
      "type": "function"
    },
    {
      "inputs": [
        {
          "internalType": "address",
          "name": "requestorAddress",
          "type": "address"
        },
        {
          "internalType": "string",
          "name": "fileName",
          "type": "string"
        },
        {
          "internalType": "bool",
          "name": "approved",
          "type": "bool"
        }
      ],
      "name": "handleApproval",
      "outputs": [],
      "stateMutability": "nonpayable",
      "type": "function"
    },
    {
      "inputs": [
        {
          "internalType": "address",
          "name": "wallet",
          "type": "address"
        },
        {
          "internalType": "string",
          "name": "domain",
          "type": "string"
        },
        {
          "internalType": "address",
          "name": "addressToCheck",
          "type": "address"
        }
      ],
      "name": "isWhitelisted",
      "outputs": [
        {
          "internalType": "bool",
          "name": "",
          "type": "bool"
        }
      ],
      "stateMutability": "view",
      "type": "function"
    },
    {
      "inputs": [],
      "name": "read",
      "outputs": [
        {
          "internalType": "string[]",
          "name": "",
          "type": "string[]"
        }
      ],
      "stateMutability": "view",
      "type": "function"
    },
    {
      "inputs": [
        {
          "internalType": "address",
          "name": "addressToRemove",
          "type": "address"
        },
        {
          "internalType": "string",
          "name": "domain",
          "type": "string"
        }
      ],
      "name": "removeFromWhitelist",
      "outputs": [],
      "stateMutability": "nonpayable",
      "type": "function"
    },
    {
      "inputs": [
        {
          "internalType": "address",
          "name": "newOwner",
          "type": "address"
        }
      ],
      "name": "transferOwnership",
      "outputs": [],
      "stateMutability": "nonpayable",
      "type": "function"
    },
    {
      "inputs": [
        {
          "internalType": "string",
          "name": "publicKey",
          "type": "string"
        },
        {
          "internalType": "string",
          "name": "data",
          "type": "string"
        }
      ],
      "name": "write",
      "outputs": [],
      "stateMutability": "nonpayable",
      "type": "function"
    }
  ],
  "bytecode": "0x6080604052348015600f57600080fd5b506124b38061001f6000396000f3fe608060405234801561001057600080fd5b50600436106100cf5760003560e01c806357de26a41161008c578063b33a0af111610066578063b33a0af1146101b4578063c565b772146101d4578063f2fde38b146101f4578063f6ee44cb1461020757600080fd5b806357de26a414610169578063956f0f8f1461017e5780639d2c2c77146101a157600080fd5b8063079184dd146100d457806310ae73dd146100e95780631a533daa146100fc5780631b2047161461010f5780631e7c019714610138578063319339161461014b575b600080fd5b6100e76100e2366004611be7565b61021a565b005b6100e76100f7366004611c34565b61034c565b6100e761010a366004611be7565b61063a565b61012261011d366004611c9a565b61069b565b60405161012f9190611d1d565b60405180910390f35b6100e7610146366004611dcb565b610873565b3360009081526020819052604090205460405190815260200161012f565b6101716109a6565b60405161012f9190611e1c565b61019161018c366004611e75565b610a88565b604051901515815260200161012f565b6100e76101af366004611ed2565b610b73565b6101c76101c2366004611be7565b610ebf565b60405161012f9190611f74565b6101e76101e2366004611fb5565b610f53565b60405161012f9190611fd0565b6100e7610202366004611fb5565b6113be565b6101e7610215366004611fb5565b611603565b336000908152600260205260408082209051610237908490612084565b9081526020016040518091039020905060005b815481101561034657836001600160a01b031682828154811061026f5761026f6120a0565b6000918252602090912001546001600160a01b03160361033e5781548290610299906001906120cc565b815481106102a9576102a96120a0565b9060005260206000200160009054906101000a90046001600160a01b03168282815481106102d9576102d96120a0565b9060005260206000200160006101000a8154816001600160a01b0302191690836001600160a01b0316021790555081805480610317576103176120df565b600082815260209020810160001990810180546001600160a01b0319169055019055610346565b60010161024a565b50505050565b6001600160a01b0383166103a75760405162461bcd60e51b815260206004820181905260248201527f526571756573746f722063616e6e6f74206265207a65726f206164647265737360448201526064015b60405180910390fd5b60008251116103f45760405162461bcd60e51b815260206004820152601960248201527846696c65206e616d652063616e6e6f7420626520656d70747960381b604482015260640161039e565b3360009081526003602090815260408083206001600160a01b0387168452909152902080546104655760405162461bcd60e51b815260206004820152601f60248201527f4e6f2072657175657374732066726f6d207468697320726571756573746f7200604482015260640161039e565b6000805b82548110156105cc57828181548110610484576104846120a0565b90600052602060002090600502016003015460001480156104e2575084805190602001208382815481106104ba576104ba6120a0565b90600052602060002090600502016001016040516104d8919061212f565b6040518091039020145b156105c457838382815481106104fa576104fa6120a0565b906000526020600020906005020160000160006101000a81548160ff02191690831515021790555042838281548110610535576105356120a0565b906000526020600020906005020160030181905550856001600160a01b0316336001600160a01b03167f532cb0591b34f8b7dd491dae5df420200e7d868e0eac7eae638ea5d4ce9dffcc858481548110610591576105916120a0565b906000526020600020906005020160010187426040516105b3939291906121a4565b60405180910390a3600191506105cc565b600101610469565b50806106335760405162461bcd60e51b815260206004820152603060248201527f4e6f20756e70726f636573736564207265717565737420666f756e642077697460448201526f6820746869732066696c65206e616d6560801b606482015260840161039e565b5050505050565b33600090815260026020526040908190209051610658908390612084565b90815260405160209181900382019020805460018101825560009182529190200180546001600160a01b0319166001600160a01b03939093169290921790915550565b6001600160a01b0380831660009081526003602090815260408083209385168352928152828220805484518184028101840190955280855260609493919290919084015b828210156108665760008481526020908190206040805160a0810190915260058502909101805460ff16151582526001810180549293919291840191610724906120f5565b80601f0160208091040260200160405190810160405280929190818152602001828054610750906120f5565b801561079d5780601f106107725761010080835404028352916020019161079d565b820191906000526020600020905b81548152906001019060200180831161078057829003601f168201915b505050505081526020016002820180546107b6906120f5565b80601f01602080910402602001604051908101604052809291908181526020018280546107e2906120f5565b801561082f5780601f106108045761010080835404028352916020019161082f565b820191906000526020600020905b81548152906001019060200180831161081257829003601f168201915b5050509183525050600382015460208083019190915260049092015460ff16151560409091015290825260019290920191016106df565b5050505090505b92915050565b60008251116108c45760405162461bcd60e51b815260206004820152601a60248201527f5075626c6963206b65792063616e6e6f7420626520656d707479000000000000604482015260640161039e565b600081511161090c5760405162461bcd60e51b8152602060048201526014602482015273446174612063616e6e6f7420626520656d70747960601b604482015260640161039e565b33600090815260208181526040822080546001810182559083529120016109338282612286565b5033600090815260016020818152604083208054928301815583529091200161095c8382612286565b50336001600160a01b03167fc5d820f5092964c33342d79084a41f152b1071ffc9965eb19b078805775f4ae483834260405161099a93929190612347565b60405180910390a25050565b33600090815260208181526040808320805482518185028101850190935280835260609492939192909184015b82821015610a7f5783829060005260206000200180546109f2906120f5565b80601f0160208091040260200160405190810160405280929190818152602001828054610a1e906120f5565b8015610a6b5780601f10610a4057610100808354040283529160200191610a6b565b820191906000526020600020905b815481529060010190602001808311610a4e57829003601f168201915b5050505050815260200190600101906109d3565b50505050905090565b6001600160a01b0383166000908152600260205260408082209051829190610ab1908690612084565b9081526040805191829003602090810183208054808302850183019093528284529190830182828015610b0d57602002820191906000526020600020905b81546001600160a01b03168152600190910190602001808311610aef575b5050505050905060005b8151811015610b6557836001600160a01b0316828281518110610b3c57610b3c6120a0565b60200260200101516001600160a01b031603610b5d57600192505050610b6c565b600101610b17565b5060009150505b9392505050565b6001600160a01b038416610bc95760405162461bcd60e51b815260206004820152601f60248201527f417070726f7665722063616e6e6f74206265207a65726f206164647265737300604482015260640161039e565b6000835111610c165760405162461bcd60e51b815260206004820152601960248201527846696c65206e616d652063616e6e6f7420626520656d70747960381b604482015260640161039e565b6000825111610c675760405162461bcd60e51b815260206004820152601960248201527f46696c6520686173682063616e6e6f7420626520656d70747900000000000000604482015260640161039e565b6001600160a01b0384166000908152600460205260408120815b8154811015610cd157336001600160a01b0316828281548110610ca657610ca66120a0565b6000918252602090912001546001600160a01b031603610cc95760019250610cd1565b600101610c81565b5081610d10576001600160a01b03861660009081526004602090815260408220805460018101825590835291200180546001600160a01b031916331790555b336000908152600560205260408120815b8154811015610d7157886001600160a01b0316828281548110610d4657610d466120a0565b6000918252602090912001546001600160a01b031603610d695760019250610d71565b600101610d21565b5081610db0573360009081526005602090815260408220805460018101825590835291200180546001600160a01b0319166001600160a01b038a161790555b6040805160a081018252600080825260208083018b81528385018b9052606084018390526001608085018190526001600160a01b038e16845260038352858420338552835294832080548087018255908452919092208351600590920201805460ff191691151591909117815590519192839290820190610e319082612286565b5060408201516002820190610e469082612286565b50606082015160038201556080909101516004909101805460ff191691151591909117905560405133906001600160a01b038b16907f77b5f9c2d9c3bd8746beb63af36552109a2f92f947920ba0994acb2deb3e3b8b90610eac908c908c904290612347565b60405180910390a3505050505050505050565b6001600160a01b03821660009081526002602052604090819020905160609190610eea908490612084565b9081526040805191829003602090810183208054808302850183019093528284529190830182828015610f4657602002820191906000526020600020905b81546001600160a01b03168152600190910190602001808311610f28575b5050505050905092915050565b6001600160a01b0381166000908152600560209081526040808320805482518185028101850190935280835260609493830182828015610fbc57602002820191906000526020600020905b81546001600160a01b03168152600190910190602001808311610f9e575b505050505090506000805b825181101561104a5760036000848381518110610fe657610fe66120a0565b60200260200101516001600160a01b03166001600160a01b031681526020019081526020016000206000866001600160a01b03166001600160a01b031681526020019081526020016000208054905082611040919061237d565b9150600101610fc7565b506000816001600160401b0381111561106557611065611b44565b60405190808252806020026020018201604052801561109e57816020015b61108b611a59565b8152602001906001900390816110835790505b5090506000805b84518110156113b35760008582815181106110c2576110c26120a0565b6020908102919091018101516001600160a01b038082166000908152600384526040808220928d1682529184528181208054835181870281018701909452808452939550909391929091849084015b828210156112985760008481526020908190206040805160a0810190915260058502909101805460ff16151582526001810180549293919291840191611156906120f5565b80601f0160208091040260200160405190810160405280929190818152602001828054611182906120f5565b80156111cf5780601f106111a4576101008083540402835291602001916111cf565b820191906000526020600020905b8154815290600101906020018083116111b257829003601f168201915b505050505081526020016002820180546111e8906120f5565b80601f0160208091040260200160405190810160405280929190818152602001828054611214906120f5565b80156112615780601f1061123657610100808354040283529160200191611261565b820191906000526020600020905b81548152906001019060200180831161124457829003601f168201915b5050509183525050600382015460208083019190915260049092015460ff1615156040909101529082526001929092019101611111565b50505050905060005b81518110156113a8576040518060c00160405280846001600160a01b031681526020018383815181106112d6576112d66120a0565b602002602001015160000151151581526020018383815181106112fb576112fb6120a0565b602002602001015160200151815260200183838151811061131e5761131e6120a0565b6020026020010151604001518152602001838381518110611341576113416120a0565b6020026020010151606001518152602001838381518110611364576113646120a0565b6020026020010151608001511515815250868681518110611387576113876120a0565b6020026020010181905250848061139d90612390565b9550506001016112a1565b5050506001016110a5565b509095945050505050565b6001600160a01b0381166114145760405162461bcd60e51b815260206004820181905260248201527f4e6577206f776e65722063616e6e6f74206265207a65726f2061646472657373604482015260640161039e565b336001600160a01b0382160361146c5760405162461bcd60e51b815260206004820152601760248201527f43616e6e6f74207472616e7366657220746f2073656c66000000000000000000604482015260640161039e565b336000908152602081905260409020546114be5760405162461bcd60e51b81526020600482015260136024820152722737903230ba30903a37903a3930b739b332b960691b604482015260640161039e565b33600090815260208190526040812054905b8181101561158e576001600160a01b0383166000908152602081905260408082203383529120805483908110611508576115086120a0565b60009182526020808320845460018101865594845292209092019161152e9101826123a9565b506001600160a01b038316600090815260016020526040808220338352912080548390811061155f5761155f6120a0565b6000918252602080832084546001810186559484529220909201916115859101826123a9565b506001016114d0565b503360009081526020819052604081206115a791611a9c565b3360009081526001602052604081206115bf91611a9c565b6040514281526001600160a01b0383169033907fc13a1166d81cd3b0b352a367aebab95f3a6f6bc695fdab8e9a9d335239c3861b9060200160405180910390a35050565b6001600160a01b038116600090815260046020908152604080832080548251818502810185019093528083526060949383018282801561166c57602002820191906000526020600020905b81546001600160a01b0316815260019091019060200180831161164e575b505050505090506000805b82518110156116f0576001600160a01b038516600090815260036020526040812084519091908590849081106116af576116af6120a0565b60200260200101516001600160a01b03166001600160a01b0316815260200190815260200160002080549050826116e6919061237d565b9150600101611677565b506000816001600160401b0381111561170b5761170b611b44565b60405190808252806020026020018201604052801561174457816020015b611731611a59565b8152602001906001900390816117295790505b5090506000805b84518110156113b3576000858281518110611768576117686120a0565b6020908102919091018101516001600160a01b03808b16600090815260038452604080822092841682529184528181208054835181870281018701909452808452939550909391929091849084015b8282101561193e5760008481526020908190206040805160a0810190915260058502909101805460ff161515825260018101805492939192918401916117fc906120f5565b80601f0160208091040260200160405190810160405280929190818152602001828054611828906120f5565b80156118755780601f1061184a57610100808354040283529160200191611875565b820191906000526020600020905b81548152906001019060200180831161185857829003601f168201915b5050505050815260200160028201805461188e906120f5565b80601f01602080910402602001604051908101604052809291908181526020018280546118ba906120f5565b80156119075780601f106118dc57610100808354040283529160200191611907565b820191906000526020600020905b8154815290600101906020018083116118ea57829003601f168201915b5050509183525050600382015460208083019190915260049092015460ff16151560409091015290825260019290920191016117b7565b50505050905060005b8151811015611a4e576040518060c00160405280846001600160a01b0316815260200183838151811061197c5761197c6120a0565b602002602001015160000151151581526020018383815181106119a1576119a16120a0565b60200260200101516020015181526020018383815181106119c4576119c46120a0565b60200260200101516040015181526020018383815181106119e7576119e76120a0565b6020026020010151606001518152602001838381518110611a0a57611a0a6120a0565b6020026020010151608001511515815250868681518110611a2d57611a2d6120a0565b60200260200101819052508480611a4390612390565b955050600101611947565b50505060010161174b565b6040518060c0016040528060006001600160a01b031681526020016000151581526020016060815260200160608152602001600081526020016000151581525090565b5080546000825590600052602060002090810190611aba9190611abd565b50565b80821115611ada576000611ad18282611ade565b50600101611abd565b5090565b508054611aea906120f5565b6000825580601f10611afa575050565b601f016020900490600052602060002090810190611aba91905b80821115611ada5760008155600101611b14565b80356001600160a01b0381168114611b3f57600080fd5b919050565b634e487b7160e01b600052604160045260246000fd5b600082601f830112611b6b57600080fd5b81356001600160401b03811115611b8457611b84611b44565b604051601f8201601f19908116603f011681016001600160401b0381118282101715611bb257611bb2611b44565b604052818152838201602001851015611bca57600080fd5b816020850160208301376000918101602001919091529392505050565b60008060408385031215611bfa57600080fd5b611c0383611b28565b915060208301356001600160401b03811115611c1e57600080fd5b611c2a85828601611b5a565b9150509250929050565b600080600060608486031215611c4957600080fd5b611c5284611b28565b925060208401356001600160401b03811115611c6d57600080fd5b611c7986828701611b5a565b92505060408401358015158114611c8f57600080fd5b809150509250925092565b60008060408385031215611cad57600080fd5b611cb683611b28565b9150611cc460208401611b28565b90509250929050565b60005b83811015611ce8578181015183820152602001611cd0565b50506000910152565b60008151808452611d09816020860160208601611ccd565b601f01601f19169290920160200192915050565b6000602082016020835280845180835260408501915060408160051b86010192506020860160005b82811015611dbf57603f198786030184528151805115158652602081015160a06020880152611d7760a0880182611cf1565b905060408201518782036040890152611d908282611cf1565b606084810151908a01526080938401511515939098019290925250506020938401939190910190600101611d45565b50929695505050505050565b60008060408385031215611dde57600080fd5b82356001600160401b03811115611df457600080fd5b611e0085828601611b5a565b92505060208301356001600160401b03811115611c1e57600080fd5b6000602082016020835280845180835260408501915060408160051b86010192506020860160005b82811015611dbf57603f19878603018452611e60858351611cf1565b94506020938401939190910190600101611e44565b600080600060608486031215611e8a57600080fd5b611e9384611b28565b925060208401356001600160401b03811115611eae57600080fd5b611eba86828701611b5a565b925050611ec960408501611b28565b90509250925092565b60008060008060808587031215611ee857600080fd5b611ef185611b28565b935060208501356001600160401b03811115611f0c57600080fd5b611f1887828801611b5a565b93505060408501356001600160401b03811115611f3457600080fd5b611f4087828801611b5a565b92505060608501356001600160401b03811115611f5c57600080fd5b611f6887828801611b5a565b91505092959194509250565b602080825282518282018190526000918401906040840190835b818110156113b35783516001600160a01b0316835260209384019390920191600101611f8e565b600060208284031215611fc757600080fd5b610b6c82611b28565b6000602082016020835280845180835260408501915060408160051b86010192506020860160005b82811015611dbf57603f19878603018452815160018060a01b038151168652602081015115156020870152604081015160c0604088015261203c60c0880182611cf1565b9050606082015187820360608901526120558282611cf1565b608084810151908a015260a0938401511515939098019290925250506020938401939190910190600101611ff8565b60008251612096818460208701611ccd565b9190910192915050565b634e487b7160e01b600052603260045260246000fd5b634e487b7160e01b600052601160045260246000fd5b8181038181111561086d5761086d6120b6565b634e487b7160e01b600052603160045260246000fd5b600181811c9082168061210957607f821691505b60208210810361212957634e487b7160e01b600052602260045260246000fd5b50919050565b600080835461213d816120f5565b600182168015612154576001811461216957612199565b60ff1983168652811515820286019350612199565b86600052602060002060005b8381101561219157815488820152600190910190602001612175565b505081860193505b509195945050505050565b6060815260008085546121b6816120f5565b80606086015260018216600081146121d557600181146121f157612225565b60ff1983166080870152608082151560051b8701019350612225565b88600052602060002060005b8381101561221c578154888201608001526001909101906020016121fd565b87016080019450505b50505093151560208301525060400152919050565b601f82111561228157806000526020600020601f840160051c810160208510156122615750805b601f840160051c820191505b81811015610633576000815560010161226d565b505050565b81516001600160401b0381111561229f5761229f611b44565b6122b3816122ad84546120f5565b8461223a565b6020601f8211600181146122ea57600083156122cf5750848201515b600184901b600019600386901b1c198216175b855550610633565b600084815260208120601f198516915b8281101561231a57878501518255602094850194600190920191016122fa565b50848210156123385786840151600019600387901b60f8161c191681555b50505050600190811b01905550565b60608152600061235a6060830186611cf1565b828103602084015261236c8186611cf1565b915050826040830152949350505050565b8082018082111561086d5761086d6120b6565b6000600182016123a2576123a26120b6565b5060010190565b8181036123b4575050565b6123be82546120f5565b6001600160401b038111156123d5576123d5611b44565b6123e3816122ad84546120f5565b6000601f82116001811461241557600083156122cf575081850154600184901b600019600386901b1c198216176122e2565b600085815260209020601f19841690600086815260209020845b8381101561244f578286015482556001958601959091019060200161242f565b508583101561246d5781850154600019600388901b60f8161c191681555b5050505050600190811b0190555056fea26469706673582212207e13f74a92d9ef837304d23262226fb439a3dd1e96edfe37e94f2ac9da8d8fe964736f6c634300081b0033",
  "linkReferences": {},
  "deployedLinkReferences": {}
}