{
  "_format": "hh-sol-artifact-1",
  "contractName": "Agent",
  "sourceName": "contracts/agent.sol",
  "abi": [
    {
      "inputs": [
        {
          "internalType": "string",
          "name": "_domain",
          "type": "string"
        },
        {
          "internalType": "address",
          "name": "_sponsor",
          "type": "address"
        }
      ],
      "stateMutability": "nonpayable",
      "type": "constructor"
    },
    {
      "anonymous": false,
      "inputs": [
        {
          "indexed": true,
          "internalType": "address",
          "name": "approver",
          "type": "address"
        },
        {
          "indexed": true,
          "internalType": "address",
          "name": "requestor",
          "type": "address"
        },
        {
          "indexed": false,
          "internalType": "string",
          "name": "fileName",
          "type": "string"
        },
        {
          "indexed": false,
          "internalType": "bool",
          "name": "approved",
          "type": "bool"
        },
        {
          "indexed": false,
          "internalType": "uint256",
          "name": "timestamp",
          "type": "uint256"
        }
      ],
      "name": "ApprovalHandled",
      "type": "event"
    },
    {
      "anonymous": false,
      "inputs": [
        {
          "indexed": true,
          "internalType": "address",
          "name": "approver",
          "type": "address"
        },
        {
          "indexed": true,
          "internalType": "address",
          "name": "requestor",
          "type": "address"
        },
        {
          "indexed": false,
          "internalType": "string",
          "name": "fileName",
          "type": "string"
        },
        {
          "indexed": false,
          "internalType": "string",
          "name": "fileHash",
          "type": "string"
        },
        {
          "indexed": false,
          "internalType": "uint256",
          "name": "timestamp",
          "type": "uint256"
        }
      ],
      "name": "ApprovalRequested",
      "type": "event"
    },
    {
      "anonymous": false,
      "inputs": [
        {
          "indexed": true,
          "internalType": "string",
          "name": "key",
          "type": "string"
        },
        {
          "indexed": false,
          "internalType": "bool",
          "name": "isPublic",
          "type": "bool"
        },
        {
          "indexed": false,
          "internalType": "uint256",
          "name": "timestamp",
          "type": "uint256"
        }
      ],
      "name": "AttributeSet",
      "type": "event"
    },
    {
      "anonymous": false,
      "inputs": [
        {
          "indexed": true,
          "internalType": "address",
          "name": "owner",
          "type": "address"
        },
        {
          "indexed": false,
          "internalType": "string",
          "name": "publicKey",
          "type": "string"
        },
        {
          "indexed": false,
          "internalType": "string",
          "name": "data",
          "type": "string"
        },
        {
          "indexed": false,
          "internalType": "uint256",
          "name": "timestamp",
          "type": "uint256"
        }
      ],
      "name": "DataWritten",
      "type": "event"
    },
    {
      "anonymous": false,
      "inputs": [
        {
          "indexed": true,
          "internalType": "address",
          "name": "from",
          "type": "address"
        },
        {
          "indexed": true,
          "internalType": "address",
          "name": "to",
          "type": "address"
        },
        {
          "indexed": false,
          "internalType": "string",
          "name": "ipfsHash",
          "type": "string"
        },
        {
          "indexed": false,
          "internalType": "string",
          "name": "domain",
          "type": "string"
        },
        {
          "indexed": false,
          "internalType": "uint256",
          "name": "timestamp",
          "type": "uint256"
        }
      ],
      "name": "MessageSent",
      "type": "event"
    },
    {
      "anonymous": false,
      "inputs": [
        {
          "indexed": true,
          "internalType": "address",
          "name": "previousOwner",
          "type": "address"
        },
        {
          "indexed": true,
          "internalType": "address",
          "name": "newOwner",
          "type": "address"
        },
        {
          "indexed": false,
          "internalType": "uint256",
          "name": "timestamp",
          "type": "uint256"
        }
      ],
      "name": "OwnershipTransferred",
      "type": "event"
    },
    {
      "anonymous": false,
      "inputs": [
        {
          "indexed": true,
          "internalType": "address",
          "name": "from",
          "type": "address"
        },
        {
          "indexed": true,
          "internalType": "address",
          "name": "board",
          "type": "address"
        },
        {
          "indexed": false,
          "internalType": "string",
          "name": "ipfsHash",
          "type": "string"
        },
        {
          "indexed": false,
          "internalType": "string",
          "name": "domain",
          "type": "string"
        },
        {
          "indexed": false,
          "internalType": "enum Agent.Visibility",
          "name": "visibility",
          "type": "uint8"
        },
        {
          "indexed": false,
          "internalType": "uint256",
          "name": "timestamp",
          "type": "uint256"
        }
      ],
      "name": "PostCreated",
      "type": "event"
    },
    {
      "anonymous": false,
      "inputs": [
        {
          "indexed": true,
          "internalType": "address",
          "name": "owner",
          "type": "address"
        },
        {
          "indexed": false,
          "internalType": "string",
          "name": "listName",
          "type": "string"
        },
        {
          "indexed": true,
          "internalType": "address",
          "name": "addr",
          "type": "address"
        },
        {
          "indexed": false,
          "internalType": "string",
          "name": "action",
          "type": "string"
        },
        {
          "indexed": false,
          "internalType": "uint256",
          "name": "timestamp",
          "type": "uint256"
        }
      ],
      "name": "WhitelistModified",
      "type": "event"
    },
    {
      "inputs": [],
      "name": "VERSION",
      "outputs": [
        {
          "internalType": "string",
          "name": "",
          "type": "string"
        }
      ],
      "stateMutability": "view",
      "type": "function"
    },
    {
      "inputs": [
        {
          "internalType": "address",
          "name": "admin",
          "type": "address"
        }
      ],
      "name": "addAdministrator",
      "outputs": [],
      "stateMutability": "nonpayable",
      "type": "function"
    },
    {
      "inputs": [
        {
          "internalType": "string",
          "name": "listName",
          "type": "string"
        },
        {
          "internalType": "address",
          "name": "addressToAdd",
          "type": "address"
        },
        {
          "internalType": "string",
          "name": "name",
          "type": "string"
        },
        {
          "internalType": "uint8",
          "name": "role",
          "type": "uint8"
        },
        {
          "internalType": "string",
          "name": "meta",
          "type": "string"
        }
      ],
      "name": "addToWhitelist",
      "outputs": [],
      "stateMutability": "nonpayable",
      "type": "function"
    },
    {
      "inputs": [
        {
          "internalType": "address",
          "name": "approverAddress",
          "type": "address"
        },
        {
          "internalType": "string",
          "name": "fileName",
          "type": "string"
        },
        {
          "internalType": "string",
          "name": "fileHash",
          "type": "string"
        },
        {
          "internalType": "string",
          "name": "requestDomain",
          "type": "string"
        }
      ],
      "name": "createApproval",
      "outputs": [],
      "stateMutability": "nonpayable",
      "type": "function"
    },
    {
      "inputs": [
        {
          "internalType": "address",
          "name": "board",
          "type": "address"
        },
        {
          "internalType": "string",
          "name": "publicKey",
          "type": "string"
        },
        {
          "internalType": "string",
          "name": "data",
          "type": "string"
        },
        {
          "internalType": "string",
          "name": "postDomain",
          "type": "string"
        },
        {
          "internalType": "string",
          "name": "ipfsHash",
          "type": "string"
        },
        {
          "internalType": "enum Agent.Visibility",
          "name": "visibility",
          "type": "uint8"
        }
      ],
      "name": "createPost",
      "outputs": [],
      "stateMutability": "nonpayable",
      "type": "function"
    },
    {
      "inputs": [
        {
          "internalType": "string",
          "name": "key",
          "type": "string"
        }
      ],
      "name": "deletePrivateAttribute",
      "outputs": [],
      "stateMutability": "nonpayable",
      "type": "function"
    },
    {
      "inputs": [
        {
          "internalType": "string",
          "name": "key",
          "type": "string"
        }
      ],
      "name": "deletePublicAttribute",
      "outputs": [],
      "stateMutability": "nonpayable",
      "type": "function"
    },
    {
      "inputs": [],
      "name": "domain",
      "outputs": [
        {
          "internalType": "string",
          "name": "",
          "type": "string"
        }
      ],
      "stateMutability": "view",
      "type": "function"
    },
    {
      "inputs": [
        {
          "internalType": "address",
          "name": "approverAddress",
          "type": "address"
        }
      ],
      "name": "getAllApprovalsForApprover",
      "outputs": [
        {
          "components": [
            {
              "internalType": "address",
              "name": "requestor",
              "type": "address"
            },
            {
              "internalType": "bool",
              "name": "approved",
              "type": "bool"
            },
            {
              "internalType": "string",
              "name": "fileName",
              "type": "string"
            },
            {
              "internalType": "string",
              "name": "fileHash",
              "type": "string"
            },
            {
              "internalType": "uint256",
              "name": "processedAt",
              "type": "uint256"
            },
            {
              "internalType": "bool",
              "name": "exists",
              "type": "bool"
            }
          ],
          "internalType": "struct Agent.ApprovalWithRequestor[]",
          "name": "",
          "type": "tuple[]"
        }
      ],
      "stateMutability": "view",
      "type": "function"
    },
    {
      "inputs": [
        {
          "internalType": "address",
          "name": "requestorAddress",
          "type": "address"
        }
      ],
      "name": "getAllApprovalsForRequestor",
      "outputs": [
        {
          "components": [
            {
              "internalType": "address",
              "name": "requestor",
              "type": "address"
            },
            {
              "internalType": "bool",
              "name": "approved",
              "type": "bool"
            },
            {
              "internalType": "string",
              "name": "fileName",
              "type": "string"
            },
            {
              "internalType": "string",
              "name": "fileHash",
              "type": "string"
            },
            {
              "internalType": "uint256",
              "name": "processedAt",
              "type": "uint256"
            },
            {
              "internalType": "bool",
              "name": "exists",
              "type": "bool"
            }
          ],
          "internalType": "struct Agent.ApprovalWithRequestor[]",
          "name": "",
          "type": "tuple[]"
        }
      ],
      "stateMutability": "view",
      "type": "function"
    },
    {
      "inputs": [
        {
          "internalType": "address",
          "name": "approverAddress",
          "type": "address"
        },
        {
          "internalType": "address",
          "name": "requestorAddress",
          "type": "address"
        }
      ],
      "name": "getApprovalsByAddress",
      "outputs": [
        {
          "components": [
            {
              "internalType": "bool",
              "name": "approved",
              "type": "bool"
            },
            {
              "internalType": "string",
              "name": "fileName",
              "type": "string"
            },
            {
              "internalType": "string",
              "name": "fileHash",
              "type": "string"
            },
            {
              "internalType": "uint256",
              "name": "processedAt",
              "type": "uint256"
            },
            {
              "internalType": "bool",
              "name": "exists",
              "type": "bool"
            }
          ],
          "internalType": "struct Agent.ApprovalRequest[]",
          "name": "",
          "type": "tuple[]"
        }
      ],
      "stateMutability": "view",
      "type": "function"
    },
    {
      "inputs": [
        {
          "internalType": "address",
          "name": "otherParty",
          "type": "address"
        }
      ],
      "name": "getConversation",
      "outputs": [
        {
          "components": [
            {
              "internalType": "address",
              "name": "from",
              "type": "address"
            },
            {
              "internalType": "address",
              "name": "to",
              "type": "address"
            },
            {
              "internalType": "string",
              "name": "data",
              "type": "string"
            },
            {
              "internalType": "string",
              "name": "publicKey",
              "type": "string"
            },
            {
              "internalType": "string",
              "name": "domain",
              "type": "string"
            },
            {
              "internalType": "string",
              "name": "ipfsHash",
              "type": "string"
            },
            {
              "internalType": "enum Agent.Visibility",
              "name": "visibility",
              "type": "uint8"
            },
            {
              "internalType": "uint256",
              "name": "timestamp",
              "type": "uint256"
            }
          ],
          "internalType": "struct Agent.RivetItem[]",
          "name": "",
          "type": "tuple[]"
        }
      ],
      "stateMutability": "view",
      "type": "function"
    },
    {
      "inputs": [
        {
          "internalType": "address",
          "name": "addr1",
          "type": "address"
        },
        {
          "internalType": "address",
          "name": "addr2",
          "type": "address"
        }
      ],
      "name": "getConversationId",
      "outputs": [
        {
          "internalType": "bytes32",
          "name": "",
          "type": "bytes32"
        }
      ],
      "stateMutability": "pure",
      "type": "function"
    },
    {
      "inputs": [
        {
          "internalType": "address",
          "name": "wallet",
          "type": "address"
        }
      ],
      "name": "getListNames",
      "outputs": [
        {
          "internalType": "string[]",
          "name": "",
          "type": "string[]"
        }
      ],
      "stateMutability": "view",
      "type": "function"
    },
    {
      "inputs": [
        {
          "internalType": "address",
          "name": "owner",
          "type": "address"
        },
        {
          "internalType": "address",
          "name": "member",
          "type": "address"
        }
      ],
      "name": "getListsForMember",
      "outputs": [
        {
          "components": [
            {
              "internalType": "string",
              "name": "listName",
              "type": "string"
            },
            {
              "internalType": "uint8",
              "name": "role",
              "type": "uint8"
            },
            {
              "internalType": "uint256",
              "name": "addedAt",
              "type": "uint256"
            }
          ],
          "internalType": "struct Agent.MembershipEntry[]",
          "name": "",
          "type": "tuple[]"
        }
      ],
      "stateMutability": "view",
      "type": "function"
    },
    {
      "inputs": [],
      "name": "getMessageCount",
      "outputs": [
        {
          "internalType": "uint256",
          "name": "",
          "type": "uint256"
        }
      ],
      "stateMutability": "view",
      "type": "function"
    },
    {
      "inputs": [
        {
          "internalType": "address",
          "name": "board",
          "type": "address"
        }
      ],
      "name": "getPosts",
      "outputs": [
        {
          "components": [
            {
              "internalType": "address",
              "name": "from",
              "type": "address"
            },
            {
              "internalType": "address",
              "name": "to",
              "type": "address"
            },
            {
              "internalType": "string",
              "name": "data",
              "type": "string"
            },
            {
              "internalType": "string",
              "name": "publicKey",
              "type": "string"
            },
            {
              "internalType": "string",
              "name": "domain",
              "type": "string"
            },
            {
              "internalType": "string",
              "name": "ipfsHash",
              "type": "string"
            },
            {
              "internalType": "enum Agent.Visibility",
              "name": "visibility",
              "type": "uint8"
            },
            {
              "internalType": "uint256",
              "name": "timestamp",
              "type": "uint256"
            }
          ],
          "internalType": "struct Agent.RivetItem[]",
          "name": "",
          "type": "tuple[]"
        }
      ],
      "stateMutability": "view",
      "type": "function"
    },
    {
      "inputs": [
        {
          "internalType": "address",
          "name": "board",
          "type": "address"
        },
        {
          "internalType": "uint256",
          "name": "offset",
          "type": "uint256"
        },
        {
          "internalType": "uint256",
          "name": "limit",
          "type": "uint256"
        }
      ],
      "name": "getPostsPaginated",
      "outputs": [
        {
          "components": [
            {
              "internalType": "address",
              "name": "from",
              "type": "address"
            },
            {
              "internalType": "address",
              "name": "to",
              "type": "address"
            },
            {
              "internalType": "string",
              "name": "data",
              "type": "string"
            },
            {
              "internalType": "string",
              "name": "publicKey",
              "type": "string"
            },
            {
              "internalType": "string",
              "name": "domain",
              "type": "string"
            },
            {
              "internalType": "string",
              "name": "ipfsHash",
              "type": "string"
            },
            {
              "internalType": "enum Agent.Visibility",
              "name": "visibility",
              "type": "uint8"
            },
            {
              "internalType": "uint256",
              "name": "timestamp",
              "type": "uint256"
            }
          ],
          "internalType": "struct Agent.RivetItem[]",
          "name": "",
          "type": "tuple[]"
        }
      ],
      "stateMutability": "view",
      "type": "function"
    },
    {
      "inputs": [
        {
          "internalType": "string",
          "name": "key",
          "type": "string"
        }
      ],
      "name": "getPrivateAttribute",
      "outputs": [
        {
          "internalType": "string",
          "name": "",
          "type": "string"
        }
      ],
      "stateMutability": "view",
      "type": "function"
    },
    {
      "inputs": [],
      "name": "getPrivateAttributeKeys",
      "outputs": [
        {
          "internalType": "string[]",
          "name": "",
          "type": "string[]"
        }
      ],
      "stateMutability": "view",
      "type": "function"
    },
    {
      "inputs": [
        {
          "internalType": "string",
          "name": "key",
          "type": "string"
        }
      ],
      "name": "getPublicAttribute",
      "outputs": [
        {
          "internalType": "string",
          "name": "",
          "type": "string"
        }
      ],
      "stateMutability": "view",
      "type": "function"
    },
    {
      "inputs": [],
      "name": "getPublicAttributeKeys",
      "outputs": [
        {
          "internalType": "string[]",
          "name": "",
          "type": "string[]"
        }
      ],
      "stateMutability": "view",
      "type": "function"
    },
    {
      "inputs": [
        {
          "internalType": "address",
          "name": "addr",
          "type": "address"
        }
      ],
      "name": "getPublicKeys",
      "outputs": [
        {
          "internalType": "string[]",
          "name": "",
          "type": "string[]"
        }
      ],
      "stateMutability": "view",
      "type": "function"
    },
    {
      "inputs": [],
      "name": "getUserConversationIds",
      "outputs": [
        {
          "internalType": "bytes32[]",
          "name": "",
          "type": "bytes32[]"
        }
      ],
      "stateMutability": "view",
      "type": "function"
    },
    {
      "inputs": [
        {
          "internalType": "address",
          "name": "wallet",
          "type": "address"
        },
        {
          "internalType": "string",
          "name": "listName",
          "type": "string"
        }
      ],
      "name": "getWhitelist",
      "outputs": [
        {
          "components": [
            {
              "internalType": "address",
              "name": "addr",
              "type": "address"
            },
            {
              "internalType": "string",
              "name": "name",
              "type": "string"
            },
            {
              "internalType": "uint8",
              "name": "role",
              "type": "uint8"
            },
            {
              "internalType": "string",
              "name": "meta",
              "type": "string"
            }
          ],
          "internalType": "struct Agent.WhitelistEntry[]",
          "name": "",
          "type": "tuple[]"
        }
      ],
      "stateMutability": "view",
      "type": "function"
    },
    {
      "inputs": [
        {
          "internalType": "address",
          "name": "wallet",
          "type": "address"
        },
        {
          "internalType": "string",
          "name": "listName",
          "type": "string"
        },
        {
          "internalType": "address",
          "name": "addressToCheck",
          "type": "address"
        }
      ],
      "name": "getWhitelistEntry",
      "outputs": [
        {
          "components": [
            {
              "internalType": "address",
              "name": "addr",
              "type": "address"
            },
            {
              "internalType": "string",
              "name": "name",
              "type": "string"
            },
            {
              "internalType": "uint8",
              "name": "role",
              "type": "uint8"
            },
            {
              "internalType": "string",
              "name": "meta",
              "type": "string"
            }
          ],
          "internalType": "struct Agent.WhitelistEntry",
          "name": "",
          "type": "tuple"
        }
      ],
      "stateMutability": "view",
      "type": "function"
    },
    {
      "inputs": [
        {
          "internalType": "address",
          "name": "requestorAddress",
          "type": "address"
        },
        {
          "internalType": "string",
          "name": "fileName",
          "type": "string"
        },
        {
          "internalType": "bool",
          "name": "approved",
          "type": "bool"
        }
      ],
      "name": "handleApproval",
      "outputs": [],
      "stateMutability": "nonpayable",
      "type": "function"
    },
    {
      "inputs": [
        {
          "internalType": "address",
          "name": "addr",
          "type": "address"
        }
      ],
      "name": "isAdministrator",
      "outputs": [
        {
          "internalType": "bool",
          "name": "",
          "type": "bool"
        }
      ],
      "stateMutability": "view",
      "type": "function"
    },
    {
      "inputs": [
        {
          "internalType": "address",
          "name": "wallet",
          "type": "address"
        },
        {
          "internalType": "string",
          "name": "listName",
          "type": "string"
        },
        {
          "internalType": "address",
          "name": "addressToCheck",
          "type": "address"
        }
      ],
      "name": "isWhitelisted",
      "outputs": [
        {
          "internalType": "bool",
          "name": "",
          "type": "bool"
        }
      ],
      "stateMutability": "view",
      "type": "function"
    },
    {
      "inputs": [
        {
          "internalType": "string",
          "name": "",
          "type": "string"
        }
      ],
      "name": "publicAttributes",
      "outputs": [
        {
          "internalType": "string",
          "name": "",
          "type": "string"
        }
      ],
      "stateMutability": "view",
      "type": "function"
    },
    {
      "inputs": [],
      "name": "read",
      "outputs": [
        {
          "internalType": "string[]",
          "name": "",
          "type": "string[]"
        }
      ],
      "stateMutability": "view",
      "type": "function"
    },
    {
      "inputs": [
        {
          "internalType": "address",
          "name": "admin",
          "type": "address"
        }
      ],
      "name": "removeAdministrator",
      "outputs": [],
      "stateMutability": "nonpayable",
      "type": "function"
    },
    {
      "inputs": [
        {
          "internalType": "string",
          "name": "listName",
          "type": "string"
        },
        {
          "internalType": "address",
          "name": "addressToRemove",
          "type": "address"
        }
      ],
      "name": "removeFromWhitelist",
      "outputs": [],
      "stateMutability": "nonpayable",
      "type": "function"
    },
    {
      "inputs": [
        {
          "internalType": "address",
          "name": "to",
          "type": "address"
        },
        {
          "internalType": "string",
          "name": "publicKey",
          "type": "string"
        },
        {
          "internalType": "string",
          "name": "data",
          "type": "string"
        },
        {
          "internalType": "string",
          "name": "messageDomain",
          "type": "string"
        },
        {
          "internalType": "string",
          "name": "ipfsHash",
          "type": "string"
        }
      ],
      "name": "sendMessage",
      "outputs": [],
      "stateMutability": "nonpayable",
      "type": "function"
    },
    {
      "inputs": [
        {
          "internalType": "string",
          "name": "key",
          "type": "string"
        },
        {
          "internalType": "string",
          "name": "value",
          "type": "string"
        }
      ],
      "name": "setPrivateAttribute",
      "outputs": [],
      "stateMutability": "nonpayable",
      "type": "function"
    },
    {
      "inputs": [
        {
          "internalType": "string",
          "name": "key",
          "type": "string"
        },
        {
          "internalType": "string",
          "name": "value",
          "type": "string"
        }
      ],
      "name": "setPublicAttribute",
      "outputs": [],
      "stateMutability": "nonpayable",
      "type": "function"
    },
    {
      "inputs": [],
      "name": "sponsor",
      "outputs": [
        {
          "internalType": "address",
          "name": "",
          "type": "address"
        }
      ],
      "stateMutability": "view",
      "type": "function"
    },
    {
      "inputs": [
        {
          "internalType": "address",
          "name": "newOwner",
          "type": "address"
        }
      ],
      "name": "transferOwnership",
      "outputs": [],
      "stateMutability": "nonpayable",
      "type": "function"
    },
    {
      "inputs": [
        {
          "internalType": "string",
          "name": "listName",
          "type": "string"
        },
        {
          "internalType": "address",
          "name": "addressToUpdate",
          "type": "address"
        },
        {
          "internalType": "string",
          "name": "name",
          "type": "string"
        },
        {
          "internalType": "uint8",
          "name": "role",
          "type": "uint8"
        },
        {
          "internalType": "string",
          "name": "meta",
          "type": "string"
        }
      ],
      "name": "updateWhitelistEntry",
      "outputs": [],
      "stateMutability": "nonpayable",
      "type": "function"
    },
    {
      "inputs": [
        {
          "internalType": "string",
          "name": "publicKey",
          "type": "string"
        },
        {
          "internalType": "string",
          "name": "data",
          "type": "string"
        }
      ],
      "name": "write",
      "outputs": [],
      "stateMutability": "nonpayable",
      "type": "function"
    }
  ],
  "bytecode": "0x60a060405234801561001057600080fd5b506040516176b93803806176b983398101604081905261002f9161012c565b60008251116100855760405162461bcd60e51b815260206004820152601660248201527f446f6d61696e2063616e6e6f7420626520656d7074790000000000000000000060448201526064015b60405180910390fd5b6001600160a01b0381166100db5760405162461bcd60e51b815260206004820152601e60248201527f53706f6e736f722063616e6e6f74206265207a65726f20616464726573730000604482015260640161007c565b60006100e78382610292565b506001600160a01b031660805250610350565b634e487b7160e01b600052604160045260246000fd5b80516001600160a01b038116811461012757600080fd5b919050565b6000806040838503121561013f57600080fd5b82516001600160401b0381111561015557600080fd5b8301601f8101851361016657600080fd5b80516001600160401b0381111561017f5761017f6100fa565b604051601f8201601f19908116603f011681016001600160401b03811182821017156101ad576101ad6100fa565b6040528181528282016020018710156101c557600080fd5b60005b828110156101e4576020818501810151838301820152016101c8565b5060006020838301015280945050505061020060208401610110565b90509250929050565b600181811c9082168061021d57607f821691505b60208210810361023d57634e487b7160e01b600052602260045260246000fd5b50919050565b601f82111561028d57806000526020600020601f840160051c8101602085101561026a5750805b601f840160051c820191505b8181101561028a5760008155600101610276565b50505b505050565b81516001600160401b038111156102ab576102ab6100fa565b6102bf816102b98454610209565b84610243565b6020601f8211600181146102f357600083156102db5750848201515b600019600385901b1c1916600184901b17845561028a565b600084815260208120601f198516915b828110156103235787850151825560209485019460019092019101610303565b50848210156103415786840151600019600387901b60f8161c191681555b50505050600190811b01905550565b60805161730f6103aa600039600081816104240152818161093f0152818161138801528181611dc10152818161322f015281816135f90152818161378201528181613f95015281816149280152614a28015261730f6000f3fe608060405234801561001057600080fd5b50600436106102485760003560e01c80637657e2931161013b578063be758306116100b8578063ca239d4b1161007c578063ca239d4b14610573578063f2fde38b14610586578063f6ee44cb14610599578063fd098d2f146105ac578063ffa1ad74146105bf57600080fd5b8063be75830614610510578063c25cfe8a14610525578063c2fb26a614610538578063c565b77214610540578063c99911761461056057600080fd5b8063956f0f8f116100ff578063956f0f8f146104a45780639d2c2c77146104b7578063aa2285a5146104ca578063b33a0af1146104dd578063bae067b3146104fd57600080fd5b80637657e2931461040c57806377c936621461041f5780637f344c161461045e578063898c2d7b146104715780638f033c851461048457600080fd5b806343b63fd5116101c957806357de26a41161018d57806357de26a4146103c357806357fca407146103cb5780635eaf27f1146103d35780635fcbb7d6146103e657806368fa8134146103f957600080fd5b806343b63fd514610357578063478aa0ed1461036a578063482055211461038a5780634caf9d0b1461039d57806353dacec6146103b057600080fd5b80631e7c0197116102105780631e7c0197146102d0578063294c9921146102e35780632a6d9034146102f857806331933916146103185780634194f5aa1461033757600080fd5b80630308761b1461024d5780630a2eb301146102625780630e26b22d1461028a57806310ae73dd1461029d5780631b204716146102b0575b600080fd5b61026061025b36600461631f565b6105e3565b005b61027561027036600461636c565b61093b565b60405190151581526020015b60405180910390f35b610260610298366004616396565b61099b565b6102606102ab366004616472565b610bb1565b6102c36102be3660046164d8565b610e9a565b6040516102819190616552565b6102606102de366004616600565b611071565b6102eb61137b565b6040516102819190616667565b61030b61030636600461636c565b6114fa565b60405161028191906166f8565b336000908152600260205260409020545b604051908152602001610281565b61034a6103453660046167fa565b6118eb565b60405161028191906168ad565b6102eb61036536600461636c565b611ba2565b61037d6103783660046164d8565b611c91565b60405161028191906168c0565b61026061039836600461693c565b611db6565b61030b6103ab36600461636c565b611f65565b61030b6103be366004616978565b6123e6565b6102eb612a0d565b6102eb612dc1565b6102606103e13660046169ab565b612e91565b6102eb6103f436600461636c565b613140565b61026061040736600461636c565b613224565b61026061041a366004616a66565b6132cc565b6104467f000000000000000000000000000000000000000000000000000000000000000081565b6040516001600160a01b039091168152602001610281565b61026061046c36600461693c565b6135ee565b61026061047f366004616600565b613777565b61049761049236600461693c565b613953565b6040516102819190616b1a565b6102756104b23660046167fa565b613a03565b6102606104c5366004616b2d565b613c3e565b6102606104d8366004616600565b613f8a565b6104f06104eb366004616bcf565b61415e565b6040516102819190616c06565b61049761050b36600461693c565b614334565b6105186143d9565b6040516102819190616c5f565b6103296105333660046164d8565b61443a565b6104976144b0565b61055361054e36600461636c565b6144bd565b6040516102819190616c97565b61026061056e36600461636c565b61491d565b61049761058136600461693c565b614a1b565b61026061059436600461636c565b614ad3565b6105536105a736600461636c565b61583f565b6102606105ba3660046169ab565b615c95565b61049760405180604001604052806005815260200164332e312e3160d81b81525081565b600082511161060d5760405162461bcd60e51b815260040161060490616d4b565b60405180910390fd5b33600090815260056020526040808220905161062a908590616d82565b9081526020016040518091039020905060005b815481101561093557826001600160a01b031682828154811061066257610662616d9e565b60009182526020909120600490910201546001600160a01b03160361092d578154829061069190600190616dca565b815481106106a1576106a1616d9e565b90600052602060002090600402018282815481106106c1576106c1616d9e565b60009182526020909120825460049092020180546001600160a01b0319166001600160a01b0390921691909117815560018082019061070290840182616e63565b50600282810154908201805460ff191660ff90921691909117905560038082019061072f90840182616e63565b509050508180548061074357610743616f42565b60008281526020812060046000199093019283020180546001600160a01b0319168155906107746001830182616007565b60028201805460ff1916905561078e600383016000616007565b505090553360009081526007602090815260408083206001600160a01b03871684529091528120905b81548110156108d95785805190602001208282815481106107da576107da616d9e565b90600052602060002090600302016000016040516107f89190616f58565b6040518091039020036108d1578154829061081590600190616dca565b8154811061082557610825616d9e565b906000526020600020906003020182828154811061084557610845616d9e565b60009182526020909120600390910201806108608382616e63565b50600182810154908201805460ff191660ff909216919091179055600291820154910155815482908061089557610895616f42565b600082815260208120600019909201916003830201906108b58282616007565b5060018101805460ff19169055600060029091015590556108d9565b6001016107b7565b50836001600160a01b0316336001600160a01b03167fb66dabb959d5f3bdb53a39aa58d0975b39199c9b188ad8bb09a1b37bb7bf5979874260405161091f929190616fcd565b60405180910390a350610935565b60010161063d565b50505050565b60007f00000000000000000000000000000000000000000000000000000000000000006001600160a01b0316826001600160a01b0316148061099557506001600160a01b0382166000908152600f602052604090205460ff165b92915050565b60008251116109e85760405162461bcd60e51b81526020600482015260196024820152784950465320686173682063616e6e6f7420626520656d70747960381b6044820152606401610604565b6001600160a01b0386166000908152600260209081526040808320815161010081018352338152928301939093528101869052606081018790526080810185905260a0810184905260c08101836001811115610a4657610a466166c0565b815242602091820152825460018082018555600094855293829020835160089092020180546001600160a01b03199081166001600160a01b039384161782559284015194810180549093169490911693909317905560408101519091906002820190610ab2908261700f565b5060608201516003820190610ac7908261700f565b5060808201516004820190610adc908261700f565b5060a08201516005820190610af1908261700f565b5060c082015160068201805460ff191660018381811115610b1457610b146166c0565b021790555060e09190910151600790910155845115610b585733600090815260036020908152604082208054600181018255908352912001610b56868261700f565b505b856001600160a01b0316336001600160a01b03167ff8978169ef1306ac0c49b6b67c280d605663d299eb03a25d6c691f3648d7b35084868542604051610ba194939291906170c5565b60405180910390a3505050505050565b6001600160a01b038316610c075760405162461bcd60e51b815260206004820181905260248201527f526571756573746f722063616e6e6f74206265207a65726f20616464726573736044820152606401610604565b6000825111610c545760405162461bcd60e51b815260206004820152601960248201527846696c65206e616d652063616e6e6f7420626520656d70747960381b6044820152606401610604565b3360009081526008602090815260408083206001600160a01b038716845290915290208054610cc55760405162461bcd60e51b815260206004820152601f60248201527f4e6f2072657175657374732066726f6d207468697320726571756573746f72006044820152606401610604565b6000805b8254811015610e2c57828181548110610ce457610ce4616d9e565b9060005260206000209060050201600301546000148015610d4257508480519060200120838281548110610d1a57610d1a616d9e565b9060005260206000209060050201600101604051610d389190616f58565b6040518091039020145b15610e245783838281548110610d5a57610d5a616d9e565b906000526020600020906005020160000160006101000a81548160ff02191690831515021790555042838281548110610d9557610d95616d9e565b906000526020600020906005020160030181905550856001600160a01b0316336001600160a01b03167f532cb0591b34f8b7dd491dae5df420200e7d868e0eac7eae638ea5d4ce9dffcc858481548110610df157610df1616d9e565b90600052602060002090600502016001018742604051610e139392919061718c565b60405180910390a360019150610e2c565b600101610cc9565b5080610e935760405162461bcd60e51b815260206004820152603060248201527f4e6f20756e70726f636573736564207265717565737420666f756e642077697460448201526f6820746869732066696c65206e616d6560801b6064820152608401610604565b5050505050565b6001600160a01b0380831660009081526008602090815260408083209385168352928152828220805484518184028101840190955280855260609493919290919084015b828210156110655760008481526020908190206040805160a0810190915260058502909101805460ff16151582526001810180549293919291840191610f2390616ddd565b80601f0160208091040260200160405190810160405280929190818152602001828054610f4f90616ddd565b8015610f9c5780601f10610f7157610100808354040283529160200191610f9c565b820191906000526020600020905b815481529060010190602001808311610f7f57829003601f168201915b50505050508152602001600282018054610fb590616ddd565b80601f0160208091040260200160405190810160405280929190818152602001828054610fe190616ddd565b801561102e5780601f106110035761010080835404028352916020019161102e565b820191906000526020600020905b81548152906001019060200180831161101157829003601f168201915b5050509183525050600382015460208083019190915260049092015460ff1615156040909101529082526001929092019101610ede565b50505050905092915050565b60008251116110c25760405162461bcd60e51b815260206004820152601a60248201527f5075626c6963206b65792063616e6e6f7420626520656d7074790000000000006044820152606401610604565b600081511161110a5760405162461bcd60e51b8152602060048201526014602482015273446174612063616e6e6f7420626520656d70747960601b6044820152606401610604565b33600090815260036020908152604082208054600181018255908352912001611133838261700f565b503360008181526002602090815260408083208151610100810183529485528483018490528151928301825283835290840191909152606083018590528154909291608083019161118390616ddd565b80601f01602080910402602001604051908101604052809291908181526020018280546111af90616ddd565b80156111fc5780601f106111d1576101008083540402835291602001916111fc565b820191906000526020600020905b8154815290600101906020018083116111df57829003601f168201915b5050509183525050602081018490526040016000815242602091820152825460018082018555600094855293829020835160089092020180546001600160a01b03199081166001600160a01b03938416178255928401519481018054909316949091169390931790556040810151909190600282019061127c908261700f565b5060608201516003820190611291908261700f565b50608082015160048201906112a6908261700f565b5060a082015160058201906112bb908261700f565b5060c082015160068201805460ff1916600183818111156112de576112de6166c0565b021790555060e082015181600701555050336001600160a01b03167fc5d820f5092964c33342d79084a41f152b1071ffc9965eb19b078805775f4ae483834260405161132c939291906171b1565b60405180910390a2604051339081907ff8978169ef1306ac0c49b6b67c280d605663d299eb03a25d6c691f3648d7b3509061136f908590600090819042906171e7565b60405180910390a35050565b6060336001600160a01b037f00000000000000000000000000000000000000000000000000000000000000001614806113c35750336000908152600f602052604090205460ff165b6114235760405162461bcd60e51b815260206004820152603e60248201526000805160206172ba83398151915260448201527f616e2072656164207072697661746520617474726962757465206b65797300006064820152608401610604565b600e805480602002602001604051908101604052809291908181526020016000905b828210156114f157838290600052602060002001805461146490616ddd565b80601f016020809104026020016040519081016040528092919081815260200182805461149090616ddd565b80156114dd5780601f106114b2576101008083540402835291602001916114dd565b820191906000526020600020905b8154815290600101906020018083116114c057829003601f168201915b505050505081526020019060010190611445565b50505050905090565b60606001600160a01b03821661155d5760405162461bcd60e51b815260206004820152602260248201527f4f746865722070617274792063616e6e6f74206265207a65726f206164647265604482015261737360f01b6064820152608401610604565b336001600160a01b038316036115c35760405162461bcd60e51b815260206004820152602560248201527f43616e6e6f742067657420636f6e766572736174696f6e207769746820796f756044820152643939b2b63360d91b6064820152608401610604565b60006115cf338461443a565b905060016000828152602001908152602001600020805480602002602001604051908101604052809291908181526020016000905b828210156118df57600084815260209081902060408051610100810182526008860290920180546001600160a01b039081168452600182015416938301939093526002830180549293929184019161165b90616ddd565b80601f016020809104026020016040519081016040528092919081815260200182805461168790616ddd565b80156116d45780601f106116a9576101008083540402835291602001916116d4565b820191906000526020600020905b8154815290600101906020018083116116b757829003601f168201915b505050505081526020016003820180546116ed90616ddd565b80601f016020809104026020016040519081016040528092919081815260200182805461171990616ddd565b80156117665780601f1061173b57610100808354040283529160200191611766565b820191906000526020600020905b81548152906001019060200180831161174957829003601f168201915b5050505050815260200160048201805461177f90616ddd565b80601f01602080910402602001604051908101604052809291908181526020018280546117ab90616ddd565b80156117f85780601f106117cd576101008083540402835291602001916117f8565b820191906000526020600020905b8154815290600101906020018083116117db57829003601f168201915b5050505050815260200160058201805461181190616ddd565b80601f016020809104026020016040519081016040528092919081815260200182805461183d90616ddd565b801561188a5780601f1061185f5761010080835404028352916020019161188a565b820191906000526020600020905b81548152906001019060200180831161186d57829003601f168201915b5050509183525050600682015460209091019060ff1660018111156118b1576118b16166c0565b60018111156118c2576118c26166c0565b815260200160078201548152505081526020019060010190611604565b50505050915050919050565b60408051608081018252600080825260606020830181905292820152818101919091526001600160a01b0384166000908152600560205260408082209051611934908690616d82565b9081526020016040518091039020805480602002602001604051908101604052809291908181526020016000905b82821015611adf57600084815260209081902060408051608081019091526004850290910180546001600160a01b0316825260018101805492939192918401916119ab90616ddd565b80601f01602080910402602001604051908101604052809291908181526020018280546119d790616ddd565b8015611a245780601f106119f957610100808354040283529160200191611a24565b820191906000526020600020905b815481529060010190602001808311611a0757829003601f168201915b5050509183525050600282015460ff166020820152600382018054604090920191611a4e90616ddd565b80601f0160208091040260200160405190810160405280929190818152602001828054611a7a90616ddd565b8015611ac75780601f10611a9c57610100808354040283529160200191611ac7565b820191906000526020600020905b815481529060010190602001808311611aaa57829003601f168201915b50505050508152505081526020019060010190611962565b50505050905060005b8151811015611b5257836001600160a01b0316828281518110611b0d57611b0d616d9e565b6020026020010151600001516001600160a01b031603611b4a57818181518110611b3957611b39616d9e565b602002602001015192505050611b9b565b600101611ae8565b5060405162461bcd60e51b815260206004820152601860248201527f41646472657373206e6f7420696e2077686974656c69737400000000000000006044820152606401610604565b9392505050565b6001600160a01b0381166000908152600660209081526040808320805482518185028101850190935280835260609492939192909184015b82821015611c86578382906000526020600020018054611bf990616ddd565b80601f0160208091040260200160405190810160405280929190818152602001828054611c2590616ddd565b8015611c725780601f10611c4757610100808354040283529160200191611c72565b820191906000526020600020905b815481529060010190602001808311611c5557829003601f168201915b505050505081526020019060010190611bda565b505050509050919050565b6001600160a01b0380831660009081526007602090815260408083209385168352928152828220805484518184028101840190955280855260609493919290919084015b828210156110655783829060005260206000209060030201604051806060016040529081600082018054611d0890616ddd565b80601f0160208091040260200160405190810160405280929190818152602001828054611d3490616ddd565b8015611d815780601f10611d5657610100808354040283529160200191611d81565b820191906000526020600020905b815481529060010190602001808311611d6457829003601f168201915b505050918352505060018281015460ff1660208084019190915260029093015460409092019190915291835292019101611cd5565b336001600160a01b037f0000000000000000000000000000000000000000000000000000000000000000161480611dfc5750336000908152600f602052604090205460ff165b611e5c5760405162461bcd60e51b815260206004820152603c60248201526000805160206172ba83398151915260448201527f616e2064656c65746520707269766174652061747472696275746573000000006064820152608401610604565b600c81604051611e6c9190616d82565b90815260200160405180910390206000611e869190616007565b60005b600e54811015611f61578180519060200120600e8281548110611eae57611eae616d9e565b90600052602060002001604051611ec59190616f58565b604051809103902003611f5957600e8054611ee290600190616dca565b81548110611ef257611ef2616d9e565b90600052602060002001600e8281548110611f0f57611f0f616d9e565b906000526020600020019081611f259190616e63565b50600e805480611f3757611f37616f42565b600190038181906000526020600020016000611f539190616007565b90555050565b600101611e89565b5050565b6001600160a01b0381166000908152600260209081526040808320805482518185028101850190935280835260609493849084015b8282101561227557600084815260209081902060408051610100810182526008860290920180546001600160a01b0390811684526001820154169383019390935260028301805492939291840191611ff190616ddd565b80601f016020809104026020016040519081016040528092919081815260200182805461201d90616ddd565b801561206a5780601f1061203f5761010080835404028352916020019161206a565b820191906000526020600020905b81548152906001019060200180831161204d57829003601f168201915b5050505050815260200160038201805461208390616ddd565b80601f01602080910402602001604051908101604052809291908181526020018280546120af90616ddd565b80156120fc5780601f106120d1576101008083540402835291602001916120fc565b820191906000526020600020905b8154815290600101906020018083116120df57829003601f168201915b5050505050815260200160048201805461211590616ddd565b80601f016020809104026020016040519081016040528092919081815260200182805461214190616ddd565b801561218e5780601f106121635761010080835404028352916020019161218e565b820191906000526020600020905b81548152906001019060200180831161217157829003601f168201915b505050505081526020016005820180546121a790616ddd565b80601f01602080910402602001604051908101604052809291908181526020018280546121d390616ddd565b80156122205780601f106121f557610100808354040283529160200191612220565b820191906000526020600020905b81548152906001019060200180831161220357829003601f168201915b5050509183525050600682015460209091019060ff166001811115612247576122476166c0565b6001811115612258576122586166c0565b815260200160078201548152505081526020019060010190611f9a565b505050509050826001600160a01b0316336001600160a01b03160361229a5792915050565b6000805b82518110156122f35760008382815181106122bb576122bb616d9e565b602002602001015160c0015160018111156122d8576122d86166c0565b036122eb57816122e78161720c565b9250505b60010161229e565b506000816001600160401b0381111561230e5761230e616260565b60405190808252806020026020018201604052801561234757816020015b612334616044565b81526020019060019003908161232c5790505b5090506000805b84518110156123db57600085828151811061236b5761236b616d9e565b602002602001015160c001516001811115612388576123886166c0565b036123d35784818151811061239f5761239f616d9e565b60200260200101518383815181106123b9576123b9616d9e565b602002602001018190525081806123cf9061720c565b9250505b60010161234e565b509095945050505050565b6001600160a01b0383166000908152600260209081526040808320805482518185028101850190935280835260609493849084015b828210156126f657600084815260209081902060408051610100810182526008860290920180546001600160a01b039081168452600182015416938301939093526002830180549293929184019161247290616ddd565b80601f016020809104026020016040519081016040528092919081815260200182805461249e90616ddd565b80156124eb5780601f106124c0576101008083540402835291602001916124eb565b820191906000526020600020905b8154815290600101906020018083116124ce57829003601f168201915b5050505050815260200160038201805461250490616ddd565b80601f016020809104026020016040519081016040528092919081815260200182805461253090616ddd565b801561257d5780601f106125525761010080835404028352916020019161257d565b820191906000526020600020905b81548152906001019060200180831161256057829003601f168201915b5050505050815260200160048201805461259690616ddd565b80601f01602080910402602001604051908101604052809291908181526020018280546125c290616ddd565b801561260f5780601f106125e45761010080835404028352916020019161260f565b820191906000526020600020905b8154815290600101906020018083116125f257829003601f168201915b5050505050815260200160058201805461262890616ddd565b80601f016020809104026020016040519081016040528092919081815260200182805461265490616ddd565b80156126a15780601f10612676576101008083540402835291602001916126a1565b820191906000526020600020905b81548152906001019060200180831161268457829003601f168201915b5050509183525050600682015460209091019060ff1660018111156126c8576126c86166c0565b60018111156126d9576126d96166c0565b81526020016007820154815250508152602001906001019061241b565b505050509050846001600160a01b0316336001600160a01b031603612830578051841061275757604080516000808252602082019092529061274e565b61273b616044565b8152602001906001900390816127335790505b50915050611b9b565b60006127638486617225565b90508151811115612772575080515b600061277e8683616dca565b6001600160401b0381111561279557612795616260565b6040519080825280602002602001820160405280156127ce57816020015b6127bb616044565b8152602001906001900390816127b35790505b509050855b82811015612825578381815181106127ed576127ed616d9e565b60200260200101518288836128029190616dca565b8151811061281257612812616d9e565b60209081029190910101526001016127d3565b509250611b9b915050565b6000805b825181101561288957600083828151811061285157612851616d9e565b602002602001015160c00151600181111561286e5761286e6166c0565b03612881578161287d8161720c565b9250505b600101612834565b508085106128cc5760408051600080825260208201909252906128c2565b6128af616044565b8152602001906001900390816128a75790505b5092505050611b9b565b83816128d88288617225565b11156128eb576128e88683616dca565b90505b6000816001600160401b0381111561290557612905616260565b60405190808252806020026020018201604052801561293e57816020015b61292b616044565b8152602001906001900390816129235790505b50905060008060005b86518110801561295657508482105b156129fe57600087828151811061296f5761296f616d9e565b602002602001015160c00151600181111561298c5761298c6166c0565b036129ec578983106129de578681815181106129aa576129aa616d9e565b60200260200101518483815181106129c4576129c4616d9e565b602002602001018190525081806129da9061720c565b9250505b826129e88161720c565b9350505b806129f68161720c565b915050612947565b50919998505050505050505050565b336000908152600260209081526040808320805482518185028101850190935280835260609493849084015b82821015612d1457600084815260209081902060408051610100810182526008860290920180546001600160a01b0390811684526001820154169383019390935260028301805492939291840191612a9090616ddd565b80601f0160208091040260200160405190810160405280929190818152602001828054612abc90616ddd565b8015612b095780601f10612ade57610100808354040283529160200191612b09565b820191906000526020600020905b815481529060010190602001808311612aec57829003601f168201915b50505050508152602001600382018054612b2290616ddd565b80601f0160208091040260200160405190810160405280929190818152602001828054612b4e90616ddd565b8015612b9b5780601f10612b7057610100808354040283529160200191612b9b565b820191906000526020600020905b815481529060010190602001808311612b7e57829003601f168201915b50505050508152602001600482018054612bb490616ddd565b80601f0160208091040260200160405190810160405280929190818152602001828054612be090616ddd565b8015612c2d5780601f10612c0257610100808354040283529160200191612c2d565b820191906000526020600020905b815481529060010190602001808311612c1057829003601f168201915b50505050508152602001600582018054612c4690616ddd565b80601f0160208091040260200160405190810160405280929190818152602001828054612c7290616ddd565b8015612cbf5780601f10612c9457610100808354040283529160200191612cbf565b820191906000526020600020905b815481529060010190602001808311612ca257829003601f168201915b5050509183525050600682015460209091019060ff166001811115612ce657612ce66166c0565b6001811115612cf757612cf76166c0565b815260200160078201548152505081526020019060010190612a39565b505050509050600081516001600160401b03811115612d3557612d35616260565b604051908082528060200260200182016040528015612d6857816020015b6060815260200190600190039081612d535790505b50905060005b8251811015612dba57828181518110612d8957612d89616d9e565b602002602001015160a00151828281518110612da757612da7616d9e565b6020908102919091010152600101612d6e565b5092915050565b6060600d805480602002602001604051908101604052809291908181526020016000905b828210156114f1578382906000526020600020018054612e0490616ddd565b80601f0160208091040260200160405190810160405280929190818152602001828054612e3090616ddd565b8015612e7d5780601f10612e5257610100808354040283529160200191612e7d565b820191906000526020600020905b815481529060010190602001808311612e6057829003601f168201915b505050505081526020019060010190612de5565b6000855111612eb25760405162461bcd60e51b815260040161060490616d4b565b60048260ff16111580612ec857508160ff1660ff145b612f2d5760405162461bcd60e51b815260206004820152603060248201527f496e76616c696420726f6c653a206d75737420626520302d34206f722032353560448201526f20286b656570206578697374696e672960801b6064820152608401610604565b336000908152600560205260408082209051612f4a908890616d82565b9081526020016040518091039020905060005b815481101561313757856001600160a01b0316828281548110612f8257612f82616d9e565b60009182526020909120600490910201546001600160a01b03160361312f5760408051808201909152600581526304b4545560dc1b6020918201528551908601207fb0837273b2da8502395a7160f0bf01f6f8b7a45d6441089eea6b5d9f33b839911461301b5784828281548110612ffc57612ffc616d9e565b90600052602060002090600402016001019081613019919061700f565b505b8360ff1660ff14613063578382828154811061303957613039616d9e565b906000526020600020906004020160020160006101000a81548160ff021916908360ff1602179055505b60408051808201909152600581526304b4545560dc1b6020918201528351908401207fb0837273b2da8502395a7160f0bf01f6f8b7a45d6441089eea6b5d9f33b83991146130dd57828282815481106130be576130be616d9e565b906000526020600020906004020160030190816130db919061700f565b505b856001600160a01b0316336001600160a01b03167fb66dabb959d5f3bdb53a39aa58d0975b39199c9b188ad8bb09a1b37bb7bf59798942604051613122929190617238565b60405180910390a3613137565b600101612f5d565b50505050505050565b6001600160a01b0381166000908152600360209081526040808320805482518185028101850190935280835260609492939192909184015b82821015611c8657838290600052602060002001805461319790616ddd565b80601f01602080910402602001604051908101604052809291908181526020018280546131c390616ddd565b80156132105780601f106131e557610100808354040283529160200191613210565b820191906000526020600020905b8154815290600101906020018083116131f357829003601f168201915b505050505081526020019060010190613178565b336001600160a01b037f000000000000000000000000000000000000000000000000000000000000000016146132ab5760405162461bcd60e51b815260206004820152602660248201527f4f6e6c792073706f6e736f722063616e2072656d6f76652061646d696e6973746044820152657261746f727360d01b6064820152608401610604565b6001600160a01b03166000908152600f60205260409020805460ff19169055565b6001600160a01b0385166133225760405162461bcd60e51b815260206004820181905260248201527f526563697069656e742063616e6e6f74206265207a65726f20616464726573736044820152606401610604565b336001600160a01b0386160361337a5760405162461bcd60e51b815260206004820152601760248201527f43616e6e6f74206d65737361676520796f757273656c660000000000000000006044820152606401610604565b60008151116133c75760405162461bcd60e51b81526020600482015260196024820152784950465320686173682063616e6e6f7420626520656d70747960381b6044820152606401610604565b60006133d3338761443a565b6000818152600160205260408120549192500361342e57336000908152600460209081526040808320805460018181018355918552838520018590556001600160a01b038a1684529083208054918201815583529120018190555b60016000828152602001908152602001600020604051806101000160405280336001600160a01b03168152602001886001600160a01b03168152602001868152602001878152602001858152602001848152602001600180811115613495576134956166c0565b815242602091820152825460018082018555600094855293829020835160089092020180546001600160a01b03199081166001600160a01b039384161782559284015194810180549093169490911693909317905560408101519091906002820190613501908261700f565b5060608201516003820190613516908261700f565b506080820151600482019061352b908261700f565b5060a08201516005820190613540908261700f565b5060c082015160068201805460ff191660018381811115613563576135636166c0565b021790555060e091909101516007909101558451156135a757336000908152600360209081526040822080546001810182559083529120016135a5868261700f565b505b856001600160a01b0316336001600160a01b03167fb6e5bea89e5044d66ff49940ba0401db7bec08daacadb6d06705264874a40fea848642604051610ba1939291906171b1565b336001600160a01b037f00000000000000000000000000000000000000000000000000000000000000001614806136345750336000908152600f602052604090205460ff165b6136945760405162461bcd60e51b815260206004820152603b60248201526000805160206172ba83398151915260448201527f616e2064656c657465207075626c6963206174747269627574657300000000006064820152608401610604565b600b816040516136a49190616d82565b908152602001604051809103902060006136be9190616007565b60005b600d54811015611f61578180519060200120600d82815481106136e6576136e6616d9e565b906000526020600020016040516136fd9190616f58565b60405180910390200361376f57600d805461371a90600190616dca565b8154811061372a5761372a616d9e565b90600052602060002001600d828154811061374757613747616d9e565b90600052602060002001908161375d9190616e63565b50600d805480611f3757611f37616f42565b6001016136c1565b336001600160a01b037f00000000000000000000000000000000000000000000000000000000000000001614806137bd5750336000908152600f602052604090205460ff165b61381d5760405162461bcd60e51b815260206004820152603860248201526000805160206172ba83398151915260448201527f616e20736574207075626c6963206174747269627574657300000000000000006064820152608401610604565b60008251116138645760405162461bcd60e51b81526020600482015260136024820152724b65792063616e6e6f7420626520656d70747960681b6044820152606401610604565b600b826040516138749190616d82565b9081526020016040518091039020805461388d90616ddd565b90506000036138d457600d80546001810182556000919091527fd7b6990105719101dabeb77144f2a3385c8033acd3af97e9423a695e81ad1eb5016138d2838261700f565b505b80600b836040516138e59190616d82565b908152602001604051809103902090816138ff919061700f565b508160405161390e9190616d82565b6040805191829003822060018352426020840152917f590120a97fea9eae0ab7f73633c407e0d9f528198b43f5aded24fc164146674491015b60405180910390a25050565b6060600b826040516139659190616d82565b9081526020016040518091039020805461397e90616ddd565b80601f01602080910402602001604051908101604052809291908181526020018280546139aa90616ddd565b80156139f75780601f106139cc576101008083540402835291602001916139f7565b820191906000526020600020905b8154815290600101906020018083116139da57829003601f168201915b50505050509050919050565b6001600160a01b0383166000908152600560205260408082209051829190613a2c908690616d82565b9081526020016040518091039020805480602002602001604051908101604052809291908181526020016000905b82821015613bd757600084815260209081902060408051608081019091526004850290910180546001600160a01b031682526001810180549293919291840191613aa390616ddd565b80601f0160208091040260200160405190810160405280929190818152602001828054613acf90616ddd565b8015613b1c5780601f10613af157610100808354040283529160200191613b1c565b820191906000526020600020905b815481529060010190602001808311613aff57829003601f168201915b5050509183525050600282015460ff166020820152600382018054604090920191613b4690616ddd565b80601f0160208091040260200160405190810160405280929190818152602001828054613b7290616ddd565b8015613bbf5780601f10613b9457610100808354040283529160200191613bbf565b820191906000526020600020905b815481529060010190602001808311613ba257829003601f168201915b50505050508152505081526020019060010190613a5a565b50505050905060005b8151811015613c3257836001600160a01b0316828281518110613c0557613c05616d9e565b6020026020010151600001516001600160a01b031603613c2a57600192505050611b9b565b600101613be0565b50600095945050505050565b6001600160a01b038416613c945760405162461bcd60e51b815260206004820152601f60248201527f417070726f7665722063616e6e6f74206265207a65726f2061646472657373006044820152606401610604565b6000835111613ce15760405162461bcd60e51b815260206004820152601960248201527846696c65206e616d652063616e6e6f7420626520656d70747960381b6044820152606401610604565b6000825111613d325760405162461bcd60e51b815260206004820152601960248201527f46696c6520686173682063616e6e6f7420626520656d707479000000000000006044820152606401610604565b6001600160a01b0384166000908152600960205260408120815b8154811015613d9c57336001600160a01b0316828281548110613d7157613d71616d9e565b6000918252602090912001546001600160a01b031603613d945760019250613d9c565b600101613d4c565b5081613ddb576001600160a01b03861660009081526009602090815260408220805460018101825590835291200180546001600160a01b031916331790555b336000908152600a60205260408120815b8154811015613e3c57886001600160a01b0316828281548110613e1157613e11616d9e565b6000918252602090912001546001600160a01b031603613e345760019250613e3c565b600101613dec565b5081613e7b57336000908152600a602090815260408220805460018101825590835291200180546001600160a01b0319166001600160a01b038a161790555b6040805160a081018252600080825260208083018b81528385018b9052606084018390526001608085018190526001600160a01b038e16845260088352858420338552835294832080548087018255908452919092208351600590920201805460ff191691151591909117815590519192839290820190613efc908261700f565b5060408201516002820190613f11908261700f565b50606082015160038201556080909101516004909101805460ff191691151591909117905560405133906001600160a01b038b16907f77b5f9c2d9c3bd8746beb63af36552109a2f92f947920ba0994acb2deb3e3b8b90613f77908c908c9042906171b1565b60405180910390a3505050505050505050565b336001600160a01b037f0000000000000000000000000000000000000000000000000000000000000000161480613fd05750336000908152600f602052604090205460ff165b6140305760405162461bcd60e51b815260206004820152603960248201526000805160206172ba83398151915260448201527f616e2073657420707269766174652061747472696275746573000000000000006064820152608401610604565b60008251116140775760405162461bcd60e51b81526020600482015260136024820152724b65792063616e6e6f7420626520656d70747960681b6044820152606401610604565b600c826040516140879190616d82565b908152602001604051809103902080546140a090616ddd565b90506000036140e757600e80546001810182556000919091527fbb7b4a454dc3493923482f07822329ed19e8244eff582cc204f8554c3620c3fd016140e5838261700f565b505b80600c836040516140f89190616d82565b90815260200160405180910390209081614112919061700f565b50816040516141219190616d82565b6040805191829003822060008352426020840152917f590120a97fea9eae0ab7f73633c407e0d9f528198b43f5aded24fc16414667449101613947565b6001600160a01b03821660009081526005602052604090819020905160609190614189908490616d82565b9081526020016040518091039020805480602002602001604051908101604052809291908181526020016000905b8282101561106557600084815260209081902060408051608081019091526004850290910180546001600160a01b03168252600181018054929391929184019161420090616ddd565b80601f016020809104026020016040519081016040528092919081815260200182805461422c90616ddd565b80156142795780601f1061424e57610100808354040283529160200191614279565b820191906000526020600020905b81548152906001019060200180831161425c57829003601f168201915b5050509183525050600282015460ff1660208201526003820180546040909201916142a390616ddd565b80601f01602080910402602001604051908101604052809291908181526020018280546142cf90616ddd565b801561431c5780601f106142f15761010080835404028352916020019161431c565b820191906000526020600020905b8154815290600101906020018083116142ff57829003601f168201915b505050505081525050815260200190600101906141b7565b8051602081830181018051600b825292820191909301209152805461435890616ddd565b80601f016020809104026020016040519081016040528092919081815260200182805461438490616ddd565b80156143d15780601f106143a6576101008083540402835291602001916143d1565b820191906000526020600020905b8154815290600101906020018083116143b457829003601f168201915b505050505081565b3360009081526004602090815260409182902080548351818402810184019094528084526060939283018282801561443057602002820191906000526020600020905b81548152602001906001019080831161441c575b5050505050905090565b6000806000836001600160a01b0316856001600160a01b03161061445f578385614462565b84845b6040516bffffffffffffffffffffffff19606084811b8216602084015283901b1660348201529193509150604801604051602081830303815290604052805190602001209250505092915050565b6000805461435890616ddd565b6001600160a01b0381166000908152600a6020908152604080832080548251818502810185019093528083526060949383018282801561452657602002820191906000526020600020905b81546001600160a01b03168152600190910190602001808311614508575b505050505090506000805b82518110156145b4576008600084838151811061455057614550616d9e565b60200260200101516001600160a01b03166001600160a01b031681526020019081526020016000206000866001600160a01b03166001600160a01b0316815260200190815260200160002080549050826145aa9190617225565b9150600101614531565b506000816001600160401b038111156145cf576145cf616260565b60405190808252806020026020018201604052801561460857816020015b6145f56160ac565b8152602001906001900390816145ed5790505b5090506000805b84518110156123db57600085828151811061462c5761462c616d9e565b6020908102919091018101516001600160a01b038082166000908152600884526040808220928d1682529184528181208054835181870281018701909452808452939550909391929091849084015b828210156148025760008481526020908190206040805160a0810190915260058502909101805460ff161515825260018101805492939192918401916146c090616ddd565b80601f01602080910402602001604051908101604052809291908181526020018280546146ec90616ddd565b80156147395780601f1061470e57610100808354040283529160200191614739565b820191906000526020600020905b81548152906001019060200180831161471c57829003601f168201915b5050505050815260200160028201805461475290616ddd565b80601f016020809104026020016040519081016040528092919081815260200182805461477e90616ddd565b80156147cb5780601f106147a0576101008083540402835291602001916147cb565b820191906000526020600020905b8154815290600101906020018083116147ae57829003601f168201915b5050509183525050600382015460208083019190915260049092015460ff161515604090910152908252600192909201910161467b565b50505050905060005b8151811015614912576040518060c00160405280846001600160a01b0316815260200183838151811061484057614840616d9e565b6020026020010151600001511515815260200183838151811061486557614865616d9e565b602002602001015160200151815260200183838151811061488857614888616d9e565b60200260200101516040015181526020018383815181106148ab576148ab616d9e565b60200260200101516060015181526020018383815181106148ce576148ce616d9e565b60200260200101516080015115158152508686815181106148f1576148f1616d9e565b602002602001018190525084806149079061720c565b95505060010161480b565b50505060010161460f565b336001600160a01b037f000000000000000000000000000000000000000000000000000000000000000016146149a15760405162461bcd60e51b815260206004820152602360248201527f4f6e6c792073706f6e736f722063616e206164642061646d696e6973747261746044820152626f727360e81b6064820152608401610604565b6001600160a01b0381166149f75760405162461bcd60e51b815260206004820152601c60248201527f41646d696e2063616e6e6f74206265207a65726f2061646472657373000000006044820152606401610604565b6001600160a01b03166000908152600f60205260409020805460ff19166001179055565b6060336001600160a01b037f0000000000000000000000000000000000000000000000000000000000000000161480614a635750336000908152600f602052604090205460ff165b614ac35760405162461bcd60e51b815260206004820152603a60248201526000805160206172ba83398151915260448201527f616e2072656164207072697661746520617474726962757465730000000000006064820152608401610604565b600c826040516139659190616d82565b6001600160a01b038116614b295760405162461bcd60e51b815260206004820181905260248201527f4e6577206f776e65722063616e6e6f74206265207a65726f20616464726573736044820152606401610604565b336001600160a01b03821603614b815760405162461bcd60e51b815260206004820152601760248201527f43616e6e6f74207472616e7366657220746f2073656c660000000000000000006044820152606401610604565b33600090815260026020526040902054151580614bac57503360009081526004602052604090205415155b614bee5760405162461bcd60e51b81526020600482015260136024820152722737903230ba30903a37903a3930b739b332b960691b6044820152606401610604565b336000908152600260205260408120905b81548110156150875760026000846001600160a01b03166001600160a01b03168152602001908152602001600020604051806101000160405280856001600160a01b03168152602001848481548110614c5a57614c5a616d9e565b6000918252602091829020600160089092020101546001600160a01b031682528554910190859085908110614c9157614c91616d9e565b90600052602060002090600802016002018054614cad90616ddd565b80601f0160208091040260200160405190810160405280929190818152602001828054614cd990616ddd565b8015614d265780601f10614cfb57610100808354040283529160200191614d26565b820191906000526020600020905b815481529060010190602001808311614d0957829003601f168201915b50505050508152602001848481548110614d4257614d42616d9e565b90600052602060002090600802016003018054614d5e90616ddd565b80601f0160208091040260200160405190810160405280929190818152602001828054614d8a90616ddd565b8015614dd75780601f10614dac57610100808354040283529160200191614dd7565b820191906000526020600020905b815481529060010190602001808311614dba57829003601f168201915b50505050508152602001848481548110614df357614df3616d9e565b90600052602060002090600802016004018054614e0f90616ddd565b80601f0160208091040260200160405190810160405280929190818152602001828054614e3b90616ddd565b8015614e885780601f10614e5d57610100808354040283529160200191614e88565b820191906000526020600020905b815481529060010190602001808311614e6b57829003601f168201915b50505050508152602001848481548110614ea457614ea4616d9e565b90600052602060002090600802016005018054614ec090616ddd565b80601f0160208091040260200160405190810160405280929190818152602001828054614eec90616ddd565b8015614f395780601f10614f0e57610100808354040283529160200191614f39565b820191906000526020600020905b815481529060010190602001808311614f1c57829003601f168201915b50505050508152602001848481548110614f5557614f55616d9e565b600091825260209091206006600890920201015460ff166001811115614f7d57614f7d6166c0565b8152602001848481548110614f9457614f94616d9e565b6000918252602080832060089283020160070154909352845460018082018755958352918390208451929091020180546001600160a01b03199081166001600160a01b03938416178255928401519481018054909316949091169390931790556040810151909190600282019061500b908261700f565b5060608201516003820190615020908261700f565b5060808201516004820190615035908261700f565b5060a0820151600582019061504a908261700f565b5060c082015160068201805460ff19166001838181111561506d5761506d6166c0565b021790555060e09190910151600790910155600101614bff565b50336000908152600360205260408120905b81548110156150fd576001600160a01b038416600090815260036020526040902082548390839081106150ce576150ce616d9e565b6000918252602080832084546001810186559484529220909201916150f4910182616e63565b50600101615099565b50336000908152600460205260408120905b81548110156151ce57600082828154811061512c5761512c616d9e565b60009182526020808320909101546001600160a01b0389168352600490915260408220909250815b8154811015615191578382828154811061517057615170616d9e565b9060005260206000200154036151895760019250615191565b600101615154565b50816151c3576001600160a01b0388166000908152600460209081526040822080546001810182559083529120018390555b50505060010161510f565b50336000908152600a602090815260408083208054825181850281018501909352808352919290919083018282801561523057602002820191906000526020600020905b81546001600160a01b03168152600190910190602001808311615212575b5050505050905060005b815181101561579757600082828151811061525757615257616d9e565b6020908102919091018101516001600160a01b0381166000908152600883526040808220338352845280822080548251818702810187019093528083529395509193909290849084015b828210156154285760008481526020908190206040805160a0810190915260058502909101805460ff161515825260018101805492939192918401916152e690616ddd565b80601f016020809104026020016040519081016040528092919081815260200182805461531290616ddd565b801561535f5780601f106153345761010080835404028352916020019161535f565b820191906000526020600020905b81548152906001019060200180831161534257829003601f168201915b5050505050815260200160028201805461537890616ddd565b80601f01602080910402602001604051908101604052809291908181526020018280546153a490616ddd565b80156153f15780601f106153c6576101008083540402835291602001916153f1565b820191906000526020600020905b8154815290600101906020018083116153d457829003601f168201915b5050509183525050600382015460208083019190915260049092015460ff16151560409091015290825260019290920191016152a1565b50505050905060005b81518110156154fd576001600160a01b038084166000908152600860209081526040808320938d16835292905220825183908390811061547357615473616d9e565b6020908102919091018101518254600180820185556000948552938390208251600590920201805460ff19169115159190911781559181015190928201906154bb908261700f565b50604082015160028201906154d0908261700f565b50606082015160038201556080909101516004909101805460ff1916911515919091179055600101615431565b506001600160a01b038216600090815260096020526040812090805b8254811015615565578a6001600160a01b031683828154811061553e5761553e616d9e565b6000918252602090912001546001600160a01b03160361555d57600191505b600101615519565b5060005b825481101561566557336001600160a01b031683828154811061558e5761558e616d9e565b6000918252602090912001546001600160a01b03160361565d57825483906155b890600190616dca565b815481106155c8576155c8616d9e565b9060005260206000200160009054906101000a90046001600160a01b03168382815481106155f8576155f8616d9e565b9060005260206000200160006101000a8154816001600160a01b0302191690836001600160a01b031602179055508280548061563657615636616f42565b600082815260209020810160001990810180546001600160a01b0319169055019055615665565b600101615569565b50806156aa576001600160a01b0384811660009081526009602090815260408220805460018101825590835291200180546001600160a01b031916918c169190911790555b6001600160a01b038a166000908152600a60205260408120815b815481101561571457866001600160a01b03168282815481106156e9576156e9616d9e565b6000918252602090912001546001600160a01b03160361570c5760019250615714565b6001016156c4565b5081615759576001600160a01b038c81166000908152600a602090815260408220805460018101825590835291200180546001600160a01b0319169188169190911790555b6001600160a01b03861660009081526008602090815260408083203384529091528120615785916160ef565b50506001909401935061523a92505050565b503360009081526002602052604081206157b091616110565b3360009081526003602052604081206157c891616131565b3360009081526004602052604081206157e09161614f565b336000908152600a602052604081206157f89161614f565b6040514281526001600160a01b0386169033907fc13a1166d81cd3b0b352a367aebab95f3a6f6bc695fdab8e9a9d335239c3861b9060200160405180910390a35050505050565b6001600160a01b03811660009081526009602090815260408083208054825181850281018501909352808352606094938301828280156158a857602002820191906000526020600020905b81546001600160a01b0316815260019091019060200180831161588a575b505050505090506000805b825181101561592c576001600160a01b038516600090815260086020526040812084519091908590849081106158eb576158eb616d9e565b60200260200101516001600160a01b03166001600160a01b0316815260200190815260200160002080549050826159229190617225565b91506001016158b3565b506000816001600160401b0381111561594757615947616260565b60405190808252806020026020018201604052801561598057816020015b61596d6160ac565b8152602001906001900390816159655790505b5090506000805b84518110156123db5760008582815181106159a4576159a4616d9e565b6020908102919091018101516001600160a01b03808b16600090815260088452604080822092841682529184528181208054835181870281018701909452808452939550909391929091849084015b82821015615b7a5760008481526020908190206040805160a0810190915260058502909101805460ff16151582526001810180549293919291840191615a3890616ddd565b80601f0160208091040260200160405190810160405280929190818152602001828054615a6490616ddd565b8015615ab15780601f10615a8657610100808354040283529160200191615ab1565b820191906000526020600020905b815481529060010190602001808311615a9457829003601f168201915b50505050508152602001600282018054615aca90616ddd565b80601f0160208091040260200160405190810160405280929190818152602001828054615af690616ddd565b8015615b435780601f10615b1857610100808354040283529160200191615b43565b820191906000526020600020905b815481529060010190602001808311615b2657829003601f168201915b5050509183525050600382015460208083019190915260049092015460ff16151560409091015290825260019290920191016159f3565b50505050905060005b8151811015615c8a576040518060c00160405280846001600160a01b03168152602001838381518110615bb857615bb8616d9e565b60200260200101516000015115158152602001838381518110615bdd57615bdd616d9e565b6020026020010151602001518152602001838381518110615c0057615c00616d9e565b6020026020010151604001518152602001838381518110615c2357615c23616d9e565b6020026020010151606001518152602001838381518110615c4657615c46616d9e565b6020026020010151608001511515815250868681518110615c6957615c69616d9e565b60200260200101819052508480615c7f9061720c565b955050600101615b83565b505050600101615987565b6000855111615cb65760405162461bcd60e51b815260040161060490616d4b565b6001600160a01b038416615d055760405162461bcd60e51b8152602060048201526016602482015275416464726573732063616e6e6f74206265207a65726f60501b6044820152606401610604565b60048260ff16111580615d1b57508160ff1660ff145b615d785760405162461bcd60e51b815260206004820152602860248201527f496e76616c696420726f6c653a206d75737420626520302d34206f72203235356044820152672028756e7365742960c01b6064820152608401610604565b336000908152600560205260408082209051615d95908890616d82565b9081526020016040518091039020905060005b8154811015615e3c57856001600160a01b0316828281548110615dcd57615dcd616d9e565b60009182526020909120600490910201546001600160a01b031603615e345760405162461bcd60e51b815260206004820152601c60248201527f4164647265737320616c726561647920696e2077686974656c697374000000006044820152606401610604565b600101615da8565b508054600003615e715733600090815260066020908152604082208054600181018255908352912001615e6f878261700f565b505b60008360ff1660ff14615e845783615e87565b60005b604080516080810182526001600160a01b03898116825260208083018a815260ff86169484019490945260608301889052865460018082018955600089815292909220845160049092020180546001600160a01b03191691909316178255925193945090928392820190615efb908261700f565b50604082015160028201805460ff191660ff90921691909117905560608201516003820190615f2a908261700f565b50503360009081526007602090815260408083206001600160a01b038c168452825280832081516060810183528d815260ff88168185015242928101929092528054600181018255908452919092208251929350600390910201908190615f91908261700f565b50602082015160018201805460ff191660ff909216919091179055604091820151600290910155516001600160a01b0388169033907fb66dabb959d5f3bdb53a39aa58d0975b39199c9b188ad8bb09a1b37bb7bf597990615ff5908c90429061727a565b60405180910390a35050505050505050565b50805461601390616ddd565b6000825580601f10616023575050565b601f0160209004906000526020600020908101906160419190616169565b50565b60405180610100016040528060006001600160a01b0316815260200160006001600160a01b03168152602001606081526020016060815260200160608152602001606081526020016000600181111561609f5761609f6166c0565b8152602001600081525090565b6040518060c0016040528060006001600160a01b031681526020016000151581526020016060815260200160608152602001600081526020016000151581525090565b50805460008255600502906000526020600020908101906160419190616182565b508054600082556008029060005260206000209081019061604191906161cb565b50805460008255906000526020600020908101906160419190616243565b508054600082559060005260206000209081019061604191905b5b8082111561617e576000815560010161616a565b5090565b8082111561617e57805460ff1916815560006161a16001830182616007565b6161af600283016000616007565b506000600382015560048101805460ff19169055600501616182565b8082111561617e5780546001600160a01b03199081168255600182018054909116905560006161fd6002830182616007565b61620b600383016000616007565b616219600483016000616007565b616227600583016000616007565b5060068101805460ff19169055600060078201556008016161cb565b8082111561617e5760006162578282616007565b50600101616243565b634e487b7160e01b600052604160045260246000fd5b600082601f83011261628757600080fd5b81356001600160401b038111156162a0576162a0616260565b604051601f8201601f19908116603f011681016001600160401b03811182821017156162ce576162ce616260565b6040528181528382016020018510156162e657600080fd5b816020850160208301376000918101602001919091529392505050565b80356001600160a01b038116811461631a57600080fd5b919050565b6000806040838503121561633257600080fd5b82356001600160401b0381111561634857600080fd5b61635485828601616276565b92505061636360208401616303565b90509250929050565b60006020828403121561637e57600080fd5b611b9b82616303565b80356002811061631a57600080fd5b60008060008060008060c087890312156163af57600080fd5b6163b887616303565b955060208701356001600160401b038111156163d357600080fd5b6163df89828a01616276565b95505060408701356001600160401b038111156163fb57600080fd5b61640789828a01616276565b94505060608701356001600160401b0381111561642357600080fd5b61642f89828a01616276565b93505060808701356001600160401b0381111561644b57600080fd5b61645789828a01616276565b92505061646660a08801616387565b90509295509295509295565b60008060006060848603121561648757600080fd5b61649084616303565b925060208401356001600160401b038111156164ab57600080fd5b6164b786828701616276565b925050604084013580151581146164cd57600080fd5b809150509250925092565b600080604083850312156164eb57600080fd5b6164f483616303565b915061636360208401616303565b60005b8381101561651d578181015183820152602001616505565b50506000910152565b6000815180845261653e816020860160208601616502565b601f01601f19169290920160200192915050565b6000602082016020835280845180835260408501915060408160051b86010192506020860160005b828110156165f457603f198786030184528151805115158652602081015160a060208801526165ac60a0880182616526565b9050604082015187820360408901526165c58282616526565b606084810151908a0152608093840151151593909801929092525050602093840193919091019060010161657a565b50929695505050505050565b6000806040838503121561661357600080fd5b82356001600160401b0381111561662957600080fd5b61663585828601616276565b92505060208301356001600160401b0381111561665157600080fd5b61665d85828601616276565b9150509250929050565b6000602082016020835280845180835260408501915060408160051b86010192506020860160005b828110156165f457603f198786030184526166ab858351616526565b9450602093840193919091019060010161668f565b634e487b7160e01b600052602160045260246000fd5b600281106166f457634e487b7160e01b600052602160045260246000fd5b9052565b6000602082016020835280845180835260408501915060408160051b86010192506020860160005b828110156165f457868503603f19018452815180516001600160a01b03168652602081015161675a60208801826001600160a01b03169052565b5060408101516101006040880152616776610100880182616526565b90506060820151878203606089015261678f8282616526565b915050608082015187820360808901526167a98282616526565b91505060a082015187820360a08901526167c38282616526565b91505060c08201516167d860c08901826166d6565b5060e09182015196909101959095526020938401939190910190600101616720565b60008060006060848603121561680f57600080fd5b61681884616303565b925060208401356001600160401b0381111561683357600080fd5b61683f86828701616276565b92505061684e60408501616303565b90509250925092565b60018060a01b038151168252600060208201516080602085015261687e6080850182616526565b905060ff6040840151166040850152606083015184820360608601526168a48282616526565b95945050505050565b602081526000611b9b6020830184616857565b6000602082016020835280845180835260408501915060408160051b86010192506020860160005b828110156165f457603f19878603018452815180516060875261690e6060880182616526565b60208381015160ff1689820152604093840151939098019290925250949384019391909101906001016168e8565b60006020828403121561694e57600080fd5b81356001600160401b0381111561696457600080fd5b61697084828501616276565b949350505050565b60008060006060848603121561698d57600080fd5b61699684616303565b95602085013595506040909401359392505050565b600080600080600060a086880312156169c357600080fd5b85356001600160401b038111156169d957600080fd5b6169e588828901616276565b9550506169f460208701616303565b935060408601356001600160401b03811115616a0f57600080fd5b616a1b88828901616276565b935050606086013560ff81168114616a3257600080fd5b915060808601356001600160401b03811115616a4d57600080fd5b616a5988828901616276565b9150509295509295909350565b600080600080600060a08688031215616a7e57600080fd5b616a8786616303565b945060208601356001600160401b03811115616aa257600080fd5b616aae88828901616276565b94505060408601356001600160401b03811115616aca57600080fd5b616ad688828901616276565b93505060608601356001600160401b03811115616af257600080fd5b616afe88828901616276565b92505060808601356001600160401b03811115616a4d57600080fd5b602081526000611b9b6020830184616526565b60008060008060808587031215616b4357600080fd5b616b4c85616303565b935060208501356001600160401b03811115616b6757600080fd5b616b7387828801616276565b93505060408501356001600160401b03811115616b8f57600080fd5b616b9b87828801616276565b92505060608501356001600160401b03811115616bb757600080fd5b616bc387828801616276565b91505092959194509250565b60008060408385031215616be257600080fd5b616beb83616303565b915060208301356001600160401b0381111561665157600080fd5b6000602082016020835280845180835260408501915060408160051b86010192506020860160005b828110156165f457603f19878603018452616c4a858351616857565b94506020938401939190910190600101616c2e565b602080825282518282018190526000918401906040840190835b818110156123db578351835260209384019390920191600101616c79565b6000602082016020835280845180835260408501915060408160051b86010192506020860160005b828110156165f457603f19878603018452815160018060a01b038151168652602081015115156020870152604081015160c06040880152616d0360c0880182616526565b905060608201518782036060890152616d1c8282616526565b608084810151908a015260a0938401511515939098019290925250506020938401939190910190600101616cbf565b60208082526019908201527f4c697374206e616d652063616e6e6f7420626520656d70747900000000000000604082015260600190565b60008251616d94818460208701616502565b9190910192915050565b634e487b7160e01b600052603260045260246000fd5b634e487b7160e01b600052601160045260246000fd5b8181038181111561099557610995616db4565b600181811c90821680616df157607f821691505b602082108103616e1157634e487b7160e01b600052602260045260246000fd5b50919050565b601f821115616e5e57806000526020600020601f840160051c81016020851015616e3e5750805b601f840160051c820191505b81811015610e935760008155600101616e4a565b505050565b818103616e6e575050565b616e788254616ddd565b6001600160401b03811115616e8f57616e8f616260565b616ea381616e9d8454616ddd565b84616e17565b6000601f821160018114616eda5760008315616ebf5750848201545b600184901b600019600386901b1c198216175b855550610e93565b600085815260209020601f19841690600086815260209020845b83811015616f145782860154825560019586019590910190602001616ef4565b5085831015616f325781850154600019600388901b60f8161c191681555b5050505050600190811b01905550565b634e487b7160e01b600052603160045260246000fd5b6000808354616f6681616ddd565b600182168015616f7d5760018114616f9257616fc2565b60ff1983168652811515820286019350616fc2565b86600052602060002060005b83811015616fba57815488820152600190910190602001616f9e565b505081860193505b509195945050505050565b606081526000616fe06060830185616526565b8281036020840152600681526572656d6f766560d01b6020820152604081019150508260408301529392505050565b81516001600160401b0381111561702857617028616260565b61703681616e9d8454616ddd565b6020601f8211600181146170685760008315616ebf575081850151600184901b600019600386901b1c19821617616ed2565b600084815260208120601f198516915b828110156170985787850151825560209485019460019092019101617078565b50848210156170b65786840151600019600387901b60f8161c191681555b50505050600190811b01905550565b6080815260006170d86080830187616526565b82810360208401526170ea8187616526565b9150506170fa60408301856166d6565b82606083015295945050505050565b6000815461711681616ddd565b808552600182168015617130576001811461714c57617183565b60ff1983166020870152602082151560051b8701019350617183565b84600052602060002060005b8381101561717a5781546020828a010152600182019150602081019050617158565b87016020019450505b50505092915050565b60608152600061719f6060830186617109565b93151560208301525060400152919050565b6060815260006171c46060830186616526565b82810360208401526171d68186616526565b915050826040830152949350505050565b6080815260006171fa6080830187616526565b82810360208401526170ea8187617109565b60006001820161721e5761721e616db4565b5060010190565b8082018082111561099557610995616db4565b60608152600061724b6060830185616526565b8281036020840152600681526575706461746560d01b6020820152604081019150508260408301529392505050565b60608152600061728d6060830185616526565b8281036020840152600381526218591960ea1b602082015260408101915050826040830152939250505056fe4f6e6c792073706f6e736f72206f722061646d696e6973747261746f72732063a2646970667358221220e20cf621d4bb3cf5f10eb2106d5481cf92075fabda8c9c407184de9812e5e29c64736f6c634300081b0033",
  "linkReferences": {},
  "deployedLinkReferences": {}
}