{
  "_format": "hh-sol-artifact-1",
  "contractName": "Agent",
  "sourceName": "contracts/agent.sol",
  "abi": [
    {
      "inputs": [
        {
          "internalType": "string",
          "name": "_domain",
          "type": "string"
        },
        {
          "internalType": "address",
          "name": "_sponsor",
          "type": "address"
        }
      ],
      "stateMutability": "nonpayable",
      "type": "constructor"
    },
    {
      "anonymous": false,
      "inputs": [
        {
          "indexed": true,
          "internalType": "address",
          "name": "approver",
          "type": "address"
        },
        {
          "indexed": true,
          "internalType": "address",
          "name": "requestor",
          "type": "address"
        },
        {
          "indexed": false,
          "internalType": "string",
          "name": "fileName",
          "type": "string"
        },
        {
          "indexed": false,
          "internalType": "bool",
          "name": "approved",
          "type": "bool"
        },
        {
          "indexed": false,
          "internalType": "uint256",
          "name": "timestamp",
          "type": "uint256"
        }
      ],
      "name": "ApprovalHandled",
      "type": "event"
    },
    {
      "anonymous": false,
      "inputs": [
        {
          "indexed": true,
          "internalType": "address",
          "name": "approver",
          "type": "address"
        },
        {
          "indexed": true,
          "internalType": "address",
          "name": "requestor",
          "type": "address"
        },
        {
          "indexed": false,
          "internalType": "string",
          "name": "fileName",
          "type": "string"
        },
        {
          "indexed": false,
          "internalType": "string",
          "name": "fileHash",
          "type": "string"
        },
        {
          "indexed": false,
          "internalType": "uint256",
          "name": "timestamp",
          "type": "uint256"
        }
      ],
      "name": "ApprovalRequested",
      "type": "event"
    },
    {
      "anonymous": false,
      "inputs": [
        {
          "indexed": true,
          "internalType": "string",
          "name": "key",
          "type": "string"
        },
        {
          "indexed": false,
          "internalType": "bool",
          "name": "isPublic",
          "type": "bool"
        },
        {
          "indexed": false,
          "internalType": "uint256",
          "name": "timestamp",
          "type": "uint256"
        }
      ],
      "name": "AttributeSet",
      "type": "event"
    },
    {
      "anonymous": false,
      "inputs": [
        {
          "indexed": true,
          "internalType": "address",
          "name": "owner",
          "type": "address"
        },
        {
          "indexed": false,
          "internalType": "string",
          "name": "publicKey",
          "type": "string"
        },
        {
          "indexed": false,
          "internalType": "string",
          "name": "data",
          "type": "string"
        },
        {
          "indexed": false,
          "internalType": "uint256",
          "name": "timestamp",
          "type": "uint256"
        }
      ],
      "name": "DataWritten",
      "type": "event"
    },
    {
      "anonymous": false,
      "inputs": [
        {
          "indexed": true,
          "internalType": "address",
          "name": "from",
          "type": "address"
        },
        {
          "indexed": true,
          "internalType": "address",
          "name": "to",
          "type": "address"
        },
        {
          "indexed": false,
          "internalType": "string",
          "name": "ipfsHash",
          "type": "string"
        },
        {
          "indexed": false,
          "internalType": "string",
          "name": "domain",
          "type": "string"
        },
        {
          "indexed": false,
          "internalType": "uint256",
          "name": "timestamp",
          "type": "uint256"
        }
      ],
      "name": "MessageSent",
      "type": "event"
    },
    {
      "anonymous": false,
      "inputs": [
        {
          "indexed": true,
          "internalType": "address",
          "name": "previousOwner",
          "type": "address"
        },
        {
          "indexed": true,
          "internalType": "address",
          "name": "newOwner",
          "type": "address"
        },
        {
          "indexed": false,
          "internalType": "uint256",
          "name": "timestamp",
          "type": "uint256"
        }
      ],
      "name": "OwnershipTransferred",
      "type": "event"
    },
    {
      "anonymous": false,
      "inputs": [
        {
          "indexed": true,
          "internalType": "address",
          "name": "from",
          "type": "address"
        },
        {
          "indexed": true,
          "internalType": "address",
          "name": "board",
          "type": "address"
        },
        {
          "indexed": false,
          "internalType": "string",
          "name": "ipfsHash",
          "type": "string"
        },
        {
          "indexed": false,
          "internalType": "string",
          "name": "domain",
          "type": "string"
        },
        {
          "indexed": false,
          "internalType": "enum Agent.Visibility",
          "name": "visibility",
          "type": "uint8"
        },
        {
          "indexed": false,
          "internalType": "uint256",
          "name": "timestamp",
          "type": "uint256"
        }
      ],
      "name": "PostCreated",
      "type": "event"
    },
    {
      "anonymous": false,
      "inputs": [
        {
          "indexed": true,
          "internalType": "address",
          "name": "owner",
          "type": "address"
        },
        {
          "indexed": false,
          "internalType": "string",
          "name": "listName",
          "type": "string"
        },
        {
          "indexed": true,
          "internalType": "address",
          "name": "addr",
          "type": "address"
        },
        {
          "indexed": false,
          "internalType": "string",
          "name": "action",
          "type": "string"
        },
        {
          "indexed": false,
          "internalType": "uint256",
          "name": "timestamp",
          "type": "uint256"
        }
      ],
      "name": "WhitelistModified",
      "type": "event"
    },
    {
      "inputs": [],
      "name": "VERSION",
      "outputs": [
        {
          "internalType": "string",
          "name": "",
          "type": "string"
        }
      ],
      "stateMutability": "view",
      "type": "function"
    },
    {
      "inputs": [
        {
          "internalType": "address",
          "name": "admin",
          "type": "address"
        }
      ],
      "name": "addAdministrator",
      "outputs": [],
      "stateMutability": "nonpayable",
      "type": "function"
    },
    {
      "inputs": [
        {
          "internalType": "string",
          "name": "listName",
          "type": "string"
        },
        {
          "internalType": "address",
          "name": "addressToAdd",
          "type": "address"
        },
        {
          "internalType": "string",
          "name": "name",
          "type": "string"
        },
        {
          "internalType": "uint8",
          "name": "role",
          "type": "uint8"
        },
        {
          "internalType": "string",
          "name": "meta",
          "type": "string"
        }
      ],
      "name": "addToWhitelist",
      "outputs": [],
      "stateMutability": "nonpayable",
      "type": "function"
    },
    {
      "inputs": [
        {
          "internalType": "address",
          "name": "approverAddress",
          "type": "address"
        },
        {
          "internalType": "string",
          "name": "fileName",
          "type": "string"
        },
        {
          "internalType": "string",
          "name": "fileHash",
          "type": "string"
        },
        {
          "internalType": "string",
          "name": "requestDomain",
          "type": "string"
        }
      ],
      "name": "createApproval",
      "outputs": [],
      "stateMutability": "nonpayable",
      "type": "function"
    },
    {
      "inputs": [
        {
          "internalType": "address",
          "name": "board",
          "type": "address"
        },
        {
          "internalType": "string",
          "name": "publicKey",
          "type": "string"
        },
        {
          "internalType": "string",
          "name": "data",
          "type": "string"
        },
        {
          "internalType": "string",
          "name": "postDomain",
          "type": "string"
        },
        {
          "internalType": "string",
          "name": "ipfsHash",
          "type": "string"
        },
        {
          "internalType": "enum Agent.Visibility",
          "name": "visibility",
          "type": "uint8"
        }
      ],
      "name": "createPost",
      "outputs": [],
      "stateMutability": "nonpayable",
      "type": "function"
    },
    {
      "inputs": [
        {
          "internalType": "string",
          "name": "key",
          "type": "string"
        }
      ],
      "name": "deletePrivateAttribute",
      "outputs": [],
      "stateMutability": "nonpayable",
      "type": "function"
    },
    {
      "inputs": [
        {
          "internalType": "string",
          "name": "key",
          "type": "string"
        }
      ],
      "name": "deletePublicAttribute",
      "outputs": [],
      "stateMutability": "nonpayable",
      "type": "function"
    },
    {
      "inputs": [],
      "name": "domain",
      "outputs": [
        {
          "internalType": "string",
          "name": "",
          "type": "string"
        }
      ],
      "stateMutability": "view",
      "type": "function"
    },
    {
      "inputs": [
        {
          "internalType": "address",
          "name": "approverAddress",
          "type": "address"
        }
      ],
      "name": "getAllApprovalsForApprover",
      "outputs": [
        {
          "components": [
            {
              "internalType": "address",
              "name": "requestor",
              "type": "address"
            },
            {
              "internalType": "bool",
              "name": "approved",
              "type": "bool"
            },
            {
              "internalType": "string",
              "name": "fileName",
              "type": "string"
            },
            {
              "internalType": "string",
              "name": "fileHash",
              "type": "string"
            },
            {
              "internalType": "uint256",
              "name": "processedAt",
              "type": "uint256"
            },
            {
              "internalType": "bool",
              "name": "exists",
              "type": "bool"
            }
          ],
          "internalType": "struct Agent.ApprovalWithRequestor[]",
          "name": "",
          "type": "tuple[]"
        }
      ],
      "stateMutability": "view",
      "type": "function"
    },
    {
      "inputs": [
        {
          "internalType": "address",
          "name": "requestorAddress",
          "type": "address"
        }
      ],
      "name": "getAllApprovalsForRequestor",
      "outputs": [
        {
          "components": [
            {
              "internalType": "address",
              "name": "requestor",
              "type": "address"
            },
            {
              "internalType": "bool",
              "name": "approved",
              "type": "bool"
            },
            {
              "internalType": "string",
              "name": "fileName",
              "type": "string"
            },
            {
              "internalType": "string",
              "name": "fileHash",
              "type": "string"
            },
            {
              "internalType": "uint256",
              "name": "processedAt",
              "type": "uint256"
            },
            {
              "internalType": "bool",
              "name": "exists",
              "type": "bool"
            }
          ],
          "internalType": "struct Agent.ApprovalWithRequestor[]",
          "name": "",
          "type": "tuple[]"
        }
      ],
      "stateMutability": "view",
      "type": "function"
    },
    {
      "inputs": [
        {
          "internalType": "address",
          "name": "approverAddress",
          "type": "address"
        },
        {
          "internalType": "address",
          "name": "requestorAddress",
          "type": "address"
        }
      ],
      "name": "getApprovalsByAddress",
      "outputs": [
        {
          "components": [
            {
              "internalType": "bool",
              "name": "approved",
              "type": "bool"
            },
            {
              "internalType": "string",
              "name": "fileName",
              "type": "string"
            },
            {
              "internalType": "string",
              "name": "fileHash",
              "type": "string"
            },
            {
              "internalType": "uint256",
              "name": "processedAt",
              "type": "uint256"
            },
            {
              "internalType": "bool",
              "name": "exists",
              "type": "bool"
            }
          ],
          "internalType": "struct Agent.ApprovalRequest[]",
          "name": "",
          "type": "tuple[]"
        }
      ],
      "stateMutability": "view",
      "type": "function"
    },
    {
      "inputs": [
        {
          "internalType": "address",
          "name": "otherParty",
          "type": "address"
        }
      ],
      "name": "getConversation",
      "outputs": [
        {
          "components": [
            {
              "internalType": "address",
              "name": "from",
              "type": "address"
            },
            {
              "internalType": "address",
              "name": "to",
              "type": "address"
            },
            {
              "internalType": "string",
              "name": "data",
              "type": "string"
            },
            {
              "internalType": "string",
              "name": "publicKey",
              "type": "string"
            },
            {
              "internalType": "string",
              "name": "domain",
              "type": "string"
            },
            {
              "internalType": "string",
              "name": "ipfsHash",
              "type": "string"
            },
            {
              "internalType": "enum Agent.Visibility",
              "name": "visibility",
              "type": "uint8"
            },
            {
              "internalType": "uint256",
              "name": "timestamp",
              "type": "uint256"
            }
          ],
          "internalType": "struct Agent.RivetItem[]",
          "name": "",
          "type": "tuple[]"
        }
      ],
      "stateMutability": "view",
      "type": "function"
    },
    {
      "inputs": [
        {
          "internalType": "address",
          "name": "addr1",
          "type": "address"
        },
        {
          "internalType": "address",
          "name": "addr2",
          "type": "address"
        }
      ],
      "name": "getConversationId",
      "outputs": [
        {
          "internalType": "bytes32",
          "name": "",
          "type": "bytes32"
        }
      ],
      "stateMutability": "pure",
      "type": "function"
    },
    {
      "inputs": [
        {
          "internalType": "address",
          "name": "wallet",
          "type": "address"
        }
      ],
      "name": "getListNames",
      "outputs": [
        {
          "internalType": "string[]",
          "name": "",
          "type": "string[]"
        }
      ],
      "stateMutability": "view",
      "type": "function"
    },
    {
      "inputs": [
        {
          "internalType": "address",
          "name": "member",
          "type": "address"
        }
      ],
      "name": "getListsForMember",
      "outputs": [
        {
          "components": [
            {
              "internalType": "string",
              "name": "listName",
              "type": "string"
            },
            {
              "internalType": "uint8",
              "name": "role",
              "type": "uint8"
            },
            {
              "internalType": "uint256",
              "name": "addedAt",
              "type": "uint256"
            }
          ],
          "internalType": "struct Agent.MembershipEntry[]",
          "name": "",
          "type": "tuple[]"
        }
      ],
      "stateMutability": "view",
      "type": "function"
    },
    {
      "inputs": [],
      "name": "getMessageCount",
      "outputs": [
        {
          "internalType": "uint256",
          "name": "",
          "type": "uint256"
        }
      ],
      "stateMutability": "view",
      "type": "function"
    },
    {
      "inputs": [
        {
          "internalType": "address",
          "name": "board",
          "type": "address"
        }
      ],
      "name": "getPosts",
      "outputs": [
        {
          "components": [
            {
              "internalType": "address",
              "name": "from",
              "type": "address"
            },
            {
              "internalType": "address",
              "name": "to",
              "type": "address"
            },
            {
              "internalType": "string",
              "name": "data",
              "type": "string"
            },
            {
              "internalType": "string",
              "name": "publicKey",
              "type": "string"
            },
            {
              "internalType": "string",
              "name": "domain",
              "type": "string"
            },
            {
              "internalType": "string",
              "name": "ipfsHash",
              "type": "string"
            },
            {
              "internalType": "enum Agent.Visibility",
              "name": "visibility",
              "type": "uint8"
            },
            {
              "internalType": "uint256",
              "name": "timestamp",
              "type": "uint256"
            }
          ],
          "internalType": "struct Agent.RivetItem[]",
          "name": "",
          "type": "tuple[]"
        }
      ],
      "stateMutability": "view",
      "type": "function"
    },
    {
      "inputs": [
        {
          "internalType": "address",
          "name": "board",
          "type": "address"
        },
        {
          "internalType": "uint256",
          "name": "offset",
          "type": "uint256"
        },
        {
          "internalType": "uint256",
          "name": "limit",
          "type": "uint256"
        }
      ],
      "name": "getPostsPaginated",
      "outputs": [
        {
          "components": [
            {
              "internalType": "address",
              "name": "from",
              "type": "address"
            },
            {
              "internalType": "address",
              "name": "to",
              "type": "address"
            },
            {
              "internalType": "string",
              "name": "data",
              "type": "string"
            },
            {
              "internalType": "string",
              "name": "publicKey",
              "type": "string"
            },
            {
              "internalType": "string",
              "name": "domain",
              "type": "string"
            },
            {
              "internalType": "string",
              "name": "ipfsHash",
              "type": "string"
            },
            {
              "internalType": "enum Agent.Visibility",
              "name": "visibility",
              "type": "uint8"
            },
            {
              "internalType": "uint256",
              "name": "timestamp",
              "type": "uint256"
            }
          ],
          "internalType": "struct Agent.RivetItem[]",
          "name": "",
          "type": "tuple[]"
        }
      ],
      "stateMutability": "view",
      "type": "function"
    },
    {
      "inputs": [
        {
          "internalType": "string",
          "name": "key",
          "type": "string"
        }
      ],
      "name": "getPrivateAttribute",
      "outputs": [
        {
          "internalType": "string",
          "name": "",
          "type": "string"
        }
      ],
      "stateMutability": "view",
      "type": "function"
    },
    {
      "inputs": [],
      "name": "getPrivateAttributeKeys",
      "outputs": [
        {
          "internalType": "string[]",
          "name": "",
          "type": "string[]"
        }
      ],
      "stateMutability": "view",
      "type": "function"
    },
    {
      "inputs": [
        {
          "internalType": "string",
          "name": "key",
          "type": "string"
        }
      ],
      "name": "getPublicAttribute",
      "outputs": [
        {
          "internalType": "string",
          "name": "",
          "type": "string"
        }
      ],
      "stateMutability": "view",
      "type": "function"
    },
    {
      "inputs": [],
      "name": "getPublicAttributeKeys",
      "outputs": [
        {
          "internalType": "string[]",
          "name": "",
          "type": "string[]"
        }
      ],
      "stateMutability": "view",
      "type": "function"
    },
    {
      "inputs": [
        {
          "internalType": "address",
          "name": "addr",
          "type": "address"
        }
      ],
      "name": "getPublicKeys",
      "outputs": [
        {
          "internalType": "string[]",
          "name": "",
          "type": "string[]"
        }
      ],
      "stateMutability": "view",
      "type": "function"
    },
    {
      "inputs": [],
      "name": "getUserConversationIds",
      "outputs": [
        {
          "internalType": "bytes32[]",
          "name": "",
          "type": "bytes32[]"
        }
      ],
      "stateMutability": "view",
      "type": "function"
    },
    {
      "inputs": [
        {
          "internalType": "address",
          "name": "wallet",
          "type": "address"
        },
        {
          "internalType": "string",
          "name": "listName",
          "type": "string"
        }
      ],
      "name": "getWhitelist",
      "outputs": [
        {
          "components": [
            {
              "internalType": "address",
              "name": "addr",
              "type": "address"
            },
            {
              "internalType": "string",
              "name": "name",
              "type": "string"
            },
            {
              "internalType": "uint8",
              "name": "role",
              "type": "uint8"
            },
            {
              "internalType": "string",
              "name": "meta",
              "type": "string"
            }
          ],
          "internalType": "struct Agent.WhitelistEntry[]",
          "name": "",
          "type": "tuple[]"
        }
      ],
      "stateMutability": "view",
      "type": "function"
    },
    {
      "inputs": [
        {
          "internalType": "address",
          "name": "wallet",
          "type": "address"
        },
        {
          "internalType": "string",
          "name": "listName",
          "type": "string"
        },
        {
          "internalType": "address",
          "name": "addressToCheck",
          "type": "address"
        }
      ],
      "name": "getWhitelistEntry",
      "outputs": [
        {
          "components": [
            {
              "internalType": "address",
              "name": "addr",
              "type": "address"
            },
            {
              "internalType": "string",
              "name": "name",
              "type": "string"
            },
            {
              "internalType": "uint8",
              "name": "role",
              "type": "uint8"
            },
            {
              "internalType": "string",
              "name": "meta",
              "type": "string"
            }
          ],
          "internalType": "struct Agent.WhitelistEntry",
          "name": "",
          "type": "tuple"
        }
      ],
      "stateMutability": "view",
      "type": "function"
    },
    {
      "inputs": [
        {
          "internalType": "address",
          "name": "requestorAddress",
          "type": "address"
        },
        {
          "internalType": "string",
          "name": "fileName",
          "type": "string"
        },
        {
          "internalType": "bool",
          "name": "approved",
          "type": "bool"
        }
      ],
      "name": "handleApproval",
      "outputs": [],
      "stateMutability": "nonpayable",
      "type": "function"
    },
    {
      "inputs": [
        {
          "internalType": "address",
          "name": "addr",
          "type": "address"
        }
      ],
      "name": "isAdministrator",
      "outputs": [
        {
          "internalType": "bool",
          "name": "",
          "type": "bool"
        }
      ],
      "stateMutability": "view",
      "type": "function"
    },
    {
      "inputs": [
        {
          "internalType": "address",
          "name": "wallet",
          "type": "address"
        },
        {
          "internalType": "string",
          "name": "listName",
          "type": "string"
        },
        {
          "internalType": "address",
          "name": "addressToCheck",
          "type": "address"
        }
      ],
      "name": "isWhitelisted",
      "outputs": [
        {
          "internalType": "bool",
          "name": "",
          "type": "bool"
        }
      ],
      "stateMutability": "view",
      "type": "function"
    },
    {
      "inputs": [
        {
          "internalType": "string",
          "name": "",
          "type": "string"
        }
      ],
      "name": "publicAttributes",
      "outputs": [
        {
          "internalType": "string",
          "name": "",
          "type": "string"
        }
      ],
      "stateMutability": "view",
      "type": "function"
    },
    {
      "inputs": [],
      "name": "read",
      "outputs": [
        {
          "internalType": "string[]",
          "name": "",
          "type": "string[]"
        }
      ],
      "stateMutability": "view",
      "type": "function"
    },
    {
      "inputs": [
        {
          "internalType": "address",
          "name": "admin",
          "type": "address"
        }
      ],
      "name": "removeAdministrator",
      "outputs": [],
      "stateMutability": "nonpayable",
      "type": "function"
    },
    {
      "inputs": [
        {
          "internalType": "string",
          "name": "listName",
          "type": "string"
        },
        {
          "internalType": "address",
          "name": "addressToRemove",
          "type": "address"
        }
      ],
      "name": "removeFromWhitelist",
      "outputs": [],
      "stateMutability": "nonpayable",
      "type": "function"
    },
    {
      "inputs": [
        {
          "internalType": "address",
          "name": "to",
          "type": "address"
        },
        {
          "internalType": "string",
          "name": "publicKey",
          "type": "string"
        },
        {
          "internalType": "string",
          "name": "data",
          "type": "string"
        },
        {
          "internalType": "string",
          "name": "messageDomain",
          "type": "string"
        },
        {
          "internalType": "string",
          "name": "ipfsHash",
          "type": "string"
        }
      ],
      "name": "sendMessage",
      "outputs": [],
      "stateMutability": "nonpayable",
      "type": "function"
    },
    {
      "inputs": [
        {
          "internalType": "string",
          "name": "key",
          "type": "string"
        },
        {
          "internalType": "string",
          "name": "value",
          "type": "string"
        }
      ],
      "name": "setPrivateAttribute",
      "outputs": [],
      "stateMutability": "nonpayable",
      "type": "function"
    },
    {
      "inputs": [
        {
          "internalType": "string",
          "name": "key",
          "type": "string"
        },
        {
          "internalType": "string",
          "name": "value",
          "type": "string"
        }
      ],
      "name": "setPublicAttribute",
      "outputs": [],
      "stateMutability": "nonpayable",
      "type": "function"
    },
    {
      "inputs": [],
      "name": "sponsor",
      "outputs": [
        {
          "internalType": "address",
          "name": "",
          "type": "address"
        }
      ],
      "stateMutability": "view",
      "type": "function"
    },
    {
      "inputs": [
        {
          "internalType": "address",
          "name": "newOwner",
          "type": "address"
        }
      ],
      "name": "transferOwnership",
      "outputs": [],
      "stateMutability": "nonpayable",
      "type": "function"
    },
    {
      "inputs": [
        {
          "internalType": "string",
          "name": "listName",
          "type": "string"
        },
        {
          "internalType": "address",
          "name": "addressToUpdate",
          "type": "address"
        },
        {
          "internalType": "string",
          "name": "name",
          "type": "string"
        },
        {
          "internalType": "uint8",
          "name": "role",
          "type": "uint8"
        },
        {
          "internalType": "string",
          "name": "meta",
          "type": "string"
        }
      ],
      "name": "updateWhitelistEntry",
      "outputs": [],
      "stateMutability": "nonpayable",
      "type": "function"
    },
    {
      "inputs": [
        {
          "internalType": "string",
          "name": "publicKey",
          "type": "string"
        },
        {
          "internalType": "string",
          "name": "data",
          "type": "string"
        }
      ],
      "name": "write",
      "outputs": [],
      "stateMutability": "nonpayable",
      "type": "function"
    }
  ],
  "bytecode": "0x60a060405234801561001057600080fd5b506040516176b53803806176b583398101604081905261002f9161012c565b60008251116100855760405162461bcd60e51b815260206004820152601660248201527f446f6d61696e2063616e6e6f7420626520656d7074790000000000000000000060448201526064015b60405180910390fd5b6001600160a01b0381166100db5760405162461bcd60e51b815260206004820152601e60248201527f53706f6e736f722063616e6e6f74206265207a65726f20616464726573730000604482015260640161007c565b60006100e78382610292565b506001600160a01b031660805250610350565b634e487b7160e01b600052604160045260246000fd5b80516001600160a01b038116811461012757600080fd5b919050565b6000806040838503121561013f57600080fd5b82516001600160401b0381111561015557600080fd5b8301601f8101851361016657600080fd5b80516001600160401b0381111561017f5761017f6100fa565b604051601f8201601f19908116603f011681016001600160401b03811182821017156101ad576101ad6100fa565b6040528181528282016020018710156101c557600080fd5b60005b828110156101e4576020818501810151838301820152016101c8565b5060006020838301015280945050505061020060208401610110565b90509250929050565b600181811c9082168061021d57607f821691505b60208210810361023d57634e487b7160e01b600052602260045260246000fd5b50919050565b601f82111561028d57806000526020600020601f840160051c8101602085101561026a5750805b601f840160051c820191505b8181101561028a5760008155600101610276565b50505b505050565b81516001600160401b038111156102ab576102ab6100fa565b6102bf816102b98454610209565b84610243565b6020601f8211600181146102f357600083156102db5750848201515b600019600385901b1c1916600184901b17845561028a565b600084815260208120601f198516915b828110156103235787850151825560209485019460019092019101610303565b50848210156103415786840151600019600387901b60f8161c191681555b50505050600190811b01905550565b60805161730b6103aa600039600081816104040152818161093f0152818161138801528181611c9c0152818161310a015281816134d40152818161365d01528181613e70015281816149240152614a24015261730b6000f3fe608060405234801561001057600080fd5b50600436106102485760003560e01c806377c936621161013b578063c25cfe8a116100b8578063ca239d4b1161007c578063ca239d4b14610573578063f2fde38b14610586578063f6ee44cb14610599578063fd098d2f146105ac578063ffa1ad74146105bf57600080fd5b8063c25cfe8a14610505578063c2fb26a614610518578063c565b77214610520578063c7967f1114610540578063c99911761461056057600080fd5b80639d2c2c77116100ff5780639d2c2c7714610497578063aa2285a5146104aa578063b33a0af1146104bd578063bae067b3146104dd578063be758306146104f057600080fd5b806377c93662146103ff5780637f344c161461043e578063898c2d7b146104515780638f033c8514610464578063956f0f8f1461048457600080fd5b806343b63fd5116101c957806357fca4071161018d57806357fca407146103ab5780635eaf27f1146103b35780635fcbb7d6146103c657806368fa8134146103d95780637657e293146103ec57600080fd5b806343b63fd514610357578063482055211461036a5780634caf9d0b1461037d57806353dacec61461039057806357de26a4146103a357600080fd5b80631e7c0197116102105780631e7c0197146102d0578063294c9921146102e35780632a6d9034146102f857806331933916146103185780634194f5aa1461033757600080fd5b80630308761b1461024d5780630a2eb301146102625780630e26b22d1461028a57806310ae73dd1461029d5780631b204716146102b0575b600080fd5b61026061025b36600461631b565b6105e3565b005b610275610270366004616368565b61093b565b60405190151581526020015b60405180910390f35b610260610298366004616392565b61099b565b6102606102ab36600461646e565b610bb1565b6102c36102be3660046164d4565b610e9a565b604051610281919061654e565b6102606102de3660046165fc565b611071565b6102eb61137b565b6040516102819190616663565b61030b610306366004616368565b6114fa565b60405161028191906166f4565b336000908152600260205260409020545b604051908152602001610281565b61034a6103453660046167f6565b6118eb565b60405161028191906168a9565b6102eb610365366004616368565b611ba2565b6102606103783660046168bc565b611c91565b61030b61038b366004616368565b611e40565b61030b61039e3660046168f8565b6122c1565b6102eb6128e8565b6102eb612c9c565b6102606103c136600461692b565b612d6c565b6102eb6103d4366004616368565b61301b565b6102606103e7366004616368565b6130ff565b6102606103fa3660046169e6565b6131a7565b6104267f000000000000000000000000000000000000000000000000000000000000000081565b6040516001600160a01b039091168152602001610281565b61026061044c3660046168bc565b6134c9565b61026061045f3660046165fc565b613652565b6104776104723660046168bc565b61382e565b6040516102819190616a9a565b6102756104923660046167f6565b6138de565b6102606104a5366004616aad565b613b19565b6102606104b83660046165fc565b613e65565b6104d06104cb366004616b4f565b614039565b6040516102819190616b86565b6104776104eb3660046168bc565b61420f565b6104f86142b4565b6040516102819190616bdf565b6103296105133660046164d4565b614315565b61047761438b565b61053361052e366004616368565b614398565b6040516102819190616c17565b61055361054e366004616368565b6147f8565b6040516102819190616ccb565b61026061056e366004616368565b614919565b6104776105813660046168bc565b614a17565b610260610594366004616368565b614acf565b6105336105a7366004616368565b61583b565b6102606105ba36600461692b565b615c91565b61047760405180604001604052806005815260200164332e312e3160d81b81525081565b600082511161060d5760405162461bcd60e51b815260040161060490616d47565b60405180910390fd5b33600090815260056020526040808220905161062a908590616d7e565b9081526020016040518091039020905060005b815481101561093557826001600160a01b031682828154811061066257610662616d9a565b60009182526020909120600490910201546001600160a01b03160361092d578154829061069190600190616dc6565b815481106106a1576106a1616d9a565b90600052602060002090600402018282815481106106c1576106c1616d9a565b60009182526020909120825460049092020180546001600160a01b0319166001600160a01b0390921691909117815560018082019061070290840182616e5f565b50600282810154908201805460ff191660ff90921691909117905560038082019061072f90840182616e5f565b509050508180548061074357610743616f3e565b60008281526020812060046000199093019283020180546001600160a01b0319168155906107746001830182616003565b60028201805460ff1916905561078e600383016000616003565b505090553360009081526007602090815260408083206001600160a01b03871684529091528120905b81548110156108d95785805190602001208282815481106107da576107da616d9a565b90600052602060002090600302016000016040516107f89190616f54565b6040518091039020036108d1578154829061081590600190616dc6565b8154811061082557610825616d9a565b906000526020600020906003020182828154811061084557610845616d9a565b60009182526020909120600390910201806108608382616e5f565b50600182810154908201805460ff191660ff909216919091179055600291820154910155815482908061089557610895616f3e565b600082815260208120600019909201916003830201906108b58282616003565b5060018101805460ff19169055600060029091015590556108d9565b6001016107b7565b50836001600160a01b0316336001600160a01b03167fb66dabb959d5f3bdb53a39aa58d0975b39199c9b188ad8bb09a1b37bb7bf5979874260405161091f929190616fc9565b60405180910390a350610935565b60010161063d565b50505050565b60007f00000000000000000000000000000000000000000000000000000000000000006001600160a01b0316826001600160a01b0316148061099557506001600160a01b0382166000908152600f602052604090205460ff165b92915050565b60008251116109e85760405162461bcd60e51b81526020600482015260196024820152784950465320686173682063616e6e6f7420626520656d70747960381b6044820152606401610604565b6001600160a01b0386166000908152600260209081526040808320815161010081018352338152928301939093528101869052606081018790526080810185905260a0810184905260c08101836001811115610a4657610a466166bc565b815242602091820152825460018082018555600094855293829020835160089092020180546001600160a01b03199081166001600160a01b039384161782559284015194810180549093169490911693909317905560408101519091906002820190610ab2908261700b565b5060608201516003820190610ac7908261700b565b5060808201516004820190610adc908261700b565b5060a08201516005820190610af1908261700b565b5060c082015160068201805460ff191660018381811115610b1457610b146166bc565b021790555060e09190910151600790910155845115610b585733600090815260036020908152604082208054600181018255908352912001610b56868261700b565b505b856001600160a01b0316336001600160a01b03167ff8978169ef1306ac0c49b6b67c280d605663d299eb03a25d6c691f3648d7b35084868542604051610ba194939291906170c1565b60405180910390a3505050505050565b6001600160a01b038316610c075760405162461bcd60e51b815260206004820181905260248201527f526571756573746f722063616e6e6f74206265207a65726f20616464726573736044820152606401610604565b6000825111610c545760405162461bcd60e51b815260206004820152601960248201527846696c65206e616d652063616e6e6f7420626520656d70747960381b6044820152606401610604565b3360009081526008602090815260408083206001600160a01b038716845290915290208054610cc55760405162461bcd60e51b815260206004820152601f60248201527f4e6f2072657175657374732066726f6d207468697320726571756573746f72006044820152606401610604565b6000805b8254811015610e2c57828181548110610ce457610ce4616d9a565b9060005260206000209060050201600301546000148015610d4257508480519060200120838281548110610d1a57610d1a616d9a565b9060005260206000209060050201600101604051610d389190616f54565b6040518091039020145b15610e245783838281548110610d5a57610d5a616d9a565b906000526020600020906005020160000160006101000a81548160ff02191690831515021790555042838281548110610d9557610d95616d9a565b906000526020600020906005020160030181905550856001600160a01b0316336001600160a01b03167f532cb0591b34f8b7dd491dae5df420200e7d868e0eac7eae638ea5d4ce9dffcc858481548110610df157610df1616d9a565b90600052602060002090600502016001018742604051610e1393929190617188565b60405180910390a360019150610e2c565b600101610cc9565b5080610e935760405162461bcd60e51b815260206004820152603060248201527f4e6f20756e70726f636573736564207265717565737420666f756e642077697460448201526f6820746869732066696c65206e616d6560801b6064820152608401610604565b5050505050565b6001600160a01b0380831660009081526008602090815260408083209385168352928152828220805484518184028101840190955280855260609493919290919084015b828210156110655760008481526020908190206040805160a0810190915260058502909101805460ff16151582526001810180549293919291840191610f2390616dd9565b80601f0160208091040260200160405190810160405280929190818152602001828054610f4f90616dd9565b8015610f9c5780601f10610f7157610100808354040283529160200191610f9c565b820191906000526020600020905b815481529060010190602001808311610f7f57829003601f168201915b50505050508152602001600282018054610fb590616dd9565b80601f0160208091040260200160405190810160405280929190818152602001828054610fe190616dd9565b801561102e5780601f106110035761010080835404028352916020019161102e565b820191906000526020600020905b81548152906001019060200180831161101157829003601f168201915b5050509183525050600382015460208083019190915260049092015460ff1615156040909101529082526001929092019101610ede565b50505050905092915050565b60008251116110c25760405162461bcd60e51b815260206004820152601a60248201527f5075626c6963206b65792063616e6e6f7420626520656d7074790000000000006044820152606401610604565b600081511161110a5760405162461bcd60e51b8152602060048201526014602482015273446174612063616e6e6f7420626520656d70747960601b6044820152606401610604565b33600090815260036020908152604082208054600181018255908352912001611133838261700b565b503360008181526002602090815260408083208151610100810183529485528483018490528151928301825283835290840191909152606083018590528154909291608083019161118390616dd9565b80601f01602080910402602001604051908101604052809291908181526020018280546111af90616dd9565b80156111fc5780601f106111d1576101008083540402835291602001916111fc565b820191906000526020600020905b8154815290600101906020018083116111df57829003601f168201915b5050509183525050602081018490526040016000815242602091820152825460018082018555600094855293829020835160089092020180546001600160a01b03199081166001600160a01b03938416178255928401519481018054909316949091169390931790556040810151909190600282019061127c908261700b565b5060608201516003820190611291908261700b565b50608082015160048201906112a6908261700b565b5060a082015160058201906112bb908261700b565b5060c082015160068201805460ff1916600183818111156112de576112de6166bc565b021790555060e082015181600701555050336001600160a01b03167fc5d820f5092964c33342d79084a41f152b1071ffc9965eb19b078805775f4ae483834260405161132c939291906171ad565b60405180910390a2604051339081907ff8978169ef1306ac0c49b6b67c280d605663d299eb03a25d6c691f3648d7b3509061136f908590600090819042906171e3565b60405180910390a35050565b6060336001600160a01b037f00000000000000000000000000000000000000000000000000000000000000001614806113c35750336000908152600f602052604090205460ff165b6114235760405162461bcd60e51b815260206004820152603e60248201526000805160206172b683398151915260448201527f616e2072656164207072697661746520617474726962757465206b65797300006064820152608401610604565b600e805480602002602001604051908101604052809291908181526020016000905b828210156114f157838290600052602060002001805461146490616dd9565b80601f016020809104026020016040519081016040528092919081815260200182805461149090616dd9565b80156114dd5780601f106114b2576101008083540402835291602001916114dd565b820191906000526020600020905b8154815290600101906020018083116114c057829003601f168201915b505050505081526020019060010190611445565b50505050905090565b60606001600160a01b03821661155d5760405162461bcd60e51b815260206004820152602260248201527f4f746865722070617274792063616e6e6f74206265207a65726f206164647265604482015261737360f01b6064820152608401610604565b336001600160a01b038316036115c35760405162461bcd60e51b815260206004820152602560248201527f43616e6e6f742067657420636f6e766572736174696f6e207769746820796f756044820152643939b2b63360d91b6064820152608401610604565b60006115cf3384614315565b905060016000828152602001908152602001600020805480602002602001604051908101604052809291908181526020016000905b828210156118df57600084815260209081902060408051610100810182526008860290920180546001600160a01b039081168452600182015416938301939093526002830180549293929184019161165b90616dd9565b80601f016020809104026020016040519081016040528092919081815260200182805461168790616dd9565b80156116d45780601f106116a9576101008083540402835291602001916116d4565b820191906000526020600020905b8154815290600101906020018083116116b757829003601f168201915b505050505081526020016003820180546116ed90616dd9565b80601f016020809104026020016040519081016040528092919081815260200182805461171990616dd9565b80156117665780601f1061173b57610100808354040283529160200191611766565b820191906000526020600020905b81548152906001019060200180831161174957829003601f168201915b5050505050815260200160048201805461177f90616dd9565b80601f01602080910402602001604051908101604052809291908181526020018280546117ab90616dd9565b80156117f85780601f106117cd576101008083540402835291602001916117f8565b820191906000526020600020905b8154815290600101906020018083116117db57829003601f168201915b5050505050815260200160058201805461181190616dd9565b80601f016020809104026020016040519081016040528092919081815260200182805461183d90616dd9565b801561188a5780601f1061185f5761010080835404028352916020019161188a565b820191906000526020600020905b81548152906001019060200180831161186d57829003601f168201915b5050509183525050600682015460209091019060ff1660018111156118b1576118b16166bc565b60018111156118c2576118c26166bc565b815260200160078201548152505081526020019060010190611604565b50505050915050919050565b60408051608081018252600080825260606020830181905292820152818101919091526001600160a01b0384166000908152600560205260408082209051611934908690616d7e565b9081526020016040518091039020805480602002602001604051908101604052809291908181526020016000905b82821015611adf57600084815260209081902060408051608081019091526004850290910180546001600160a01b0316825260018101805492939192918401916119ab90616dd9565b80601f01602080910402602001604051908101604052809291908181526020018280546119d790616dd9565b8015611a245780601f106119f957610100808354040283529160200191611a24565b820191906000526020600020905b815481529060010190602001808311611a0757829003601f168201915b5050509183525050600282015460ff166020820152600382018054604090920191611a4e90616dd9565b80601f0160208091040260200160405190810160405280929190818152602001828054611a7a90616dd9565b8015611ac75780601f10611a9c57610100808354040283529160200191611ac7565b820191906000526020600020905b815481529060010190602001808311611aaa57829003601f168201915b50505050508152505081526020019060010190611962565b50505050905060005b8151811015611b5257836001600160a01b0316828281518110611b0d57611b0d616d9a565b6020026020010151600001516001600160a01b031603611b4a57818181518110611b3957611b39616d9a565b602002602001015192505050611b9b565b600101611ae8565b5060405162461bcd60e51b815260206004820152601860248201527f41646472657373206e6f7420696e2077686974656c69737400000000000000006044820152606401610604565b9392505050565b6001600160a01b0381166000908152600660209081526040808320805482518185028101850190935280835260609492939192909184015b82821015611c86578382906000526020600020018054611bf990616dd9565b80601f0160208091040260200160405190810160405280929190818152602001828054611c2590616dd9565b8015611c725780601f10611c4757610100808354040283529160200191611c72565b820191906000526020600020905b815481529060010190602001808311611c5557829003601f168201915b505050505081526020019060010190611bda565b505050509050919050565b336001600160a01b037f0000000000000000000000000000000000000000000000000000000000000000161480611cd75750336000908152600f602052604090205460ff165b611d375760405162461bcd60e51b815260206004820152603c60248201526000805160206172b683398151915260448201527f616e2064656c65746520707269766174652061747472696275746573000000006064820152608401610604565b600c81604051611d479190616d7e565b90815260200160405180910390206000611d619190616003565b60005b600e54811015611e3c578180519060200120600e8281548110611d8957611d89616d9a565b90600052602060002001604051611da09190616f54565b604051809103902003611e3457600e8054611dbd90600190616dc6565b81548110611dcd57611dcd616d9a565b90600052602060002001600e8281548110611dea57611dea616d9a565b906000526020600020019081611e009190616e5f565b50600e805480611e1257611e12616f3e565b600190038181906000526020600020016000611e2e9190616003565b90555050565b600101611d64565b5050565b6001600160a01b0381166000908152600260209081526040808320805482518185028101850190935280835260609493849084015b8282101561215057600084815260209081902060408051610100810182526008860290920180546001600160a01b0390811684526001820154169383019390935260028301805492939291840191611ecc90616dd9565b80601f0160208091040260200160405190810160405280929190818152602001828054611ef890616dd9565b8015611f455780601f10611f1a57610100808354040283529160200191611f45565b820191906000526020600020905b815481529060010190602001808311611f2857829003601f168201915b50505050508152602001600382018054611f5e90616dd9565b80601f0160208091040260200160405190810160405280929190818152602001828054611f8a90616dd9565b8015611fd75780601f10611fac57610100808354040283529160200191611fd7565b820191906000526020600020905b815481529060010190602001808311611fba57829003601f168201915b50505050508152602001600482018054611ff090616dd9565b80601f016020809104026020016040519081016040528092919081815260200182805461201c90616dd9565b80156120695780601f1061203e57610100808354040283529160200191612069565b820191906000526020600020905b81548152906001019060200180831161204c57829003601f168201915b5050505050815260200160058201805461208290616dd9565b80601f01602080910402602001604051908101604052809291908181526020018280546120ae90616dd9565b80156120fb5780601f106120d0576101008083540402835291602001916120fb565b820191906000526020600020905b8154815290600101906020018083116120de57829003601f168201915b5050509183525050600682015460209091019060ff166001811115612122576121226166bc565b6001811115612133576121336166bc565b815260200160078201548152505081526020019060010190611e75565b505050509050826001600160a01b0316336001600160a01b0316036121755792915050565b6000805b82518110156121ce57600083828151811061219657612196616d9a565b602002602001015160c0015160018111156121b3576121b36166bc565b036121c657816121c281617208565b9250505b600101612179565b506000816001600160401b038111156121e9576121e961625c565b60405190808252806020026020018201604052801561222257816020015b61220f616040565b8152602001906001900390816122075790505b5090506000805b84518110156122b657600085828151811061224657612246616d9a565b602002602001015160c001516001811115612263576122636166bc565b036122ae5784818151811061227a5761227a616d9a565b602002602001015183838151811061229457612294616d9a565b602002602001018190525081806122aa90617208565b9250505b600101612229565b509095945050505050565b6001600160a01b0383166000908152600260209081526040808320805482518185028101850190935280835260609493849084015b828210156125d157600084815260209081902060408051610100810182526008860290920180546001600160a01b039081168452600182015416938301939093526002830180549293929184019161234d90616dd9565b80601f016020809104026020016040519081016040528092919081815260200182805461237990616dd9565b80156123c65780601f1061239b576101008083540402835291602001916123c6565b820191906000526020600020905b8154815290600101906020018083116123a957829003601f168201915b505050505081526020016003820180546123df90616dd9565b80601f016020809104026020016040519081016040528092919081815260200182805461240b90616dd9565b80156124585780601f1061242d57610100808354040283529160200191612458565b820191906000526020600020905b81548152906001019060200180831161243b57829003601f168201915b5050505050815260200160048201805461247190616dd9565b80601f016020809104026020016040519081016040528092919081815260200182805461249d90616dd9565b80156124ea5780601f106124bf576101008083540402835291602001916124ea565b820191906000526020600020905b8154815290600101906020018083116124cd57829003601f168201915b5050505050815260200160058201805461250390616dd9565b80601f016020809104026020016040519081016040528092919081815260200182805461252f90616dd9565b801561257c5780601f106125515761010080835404028352916020019161257c565b820191906000526020600020905b81548152906001019060200180831161255f57829003601f168201915b5050509183525050600682015460209091019060ff1660018111156125a3576125a36166bc565b60018111156125b4576125b46166bc565b8152602001600782015481525050815260200190600101906122f6565b505050509050846001600160a01b0316336001600160a01b03160361270b5780518410612632576040805160008082526020820190925290612629565b612616616040565b81526020019060019003908161260e5790505b50915050611b9b565b600061263e8486617221565b9050815181111561264d575080515b60006126598683616dc6565b6001600160401b038111156126705761267061625c565b6040519080825280602002602001820160405280156126a957816020015b612696616040565b81526020019060019003908161268e5790505b509050855b82811015612700578381815181106126c8576126c8616d9a565b60200260200101518288836126dd9190616dc6565b815181106126ed576126ed616d9a565b60209081029190910101526001016126ae565b509250611b9b915050565b6000805b825181101561276457600083828151811061272c5761272c616d9a565b602002602001015160c001516001811115612749576127496166bc565b0361275c578161275881617208565b9250505b60010161270f565b508085106127a757604080516000808252602082019092529061279d565b61278a616040565b8152602001906001900390816127825790505b5092505050611b9b565b83816127b38288617221565b11156127c6576127c38683616dc6565b90505b6000816001600160401b038111156127e0576127e061625c565b60405190808252806020026020018201604052801561281957816020015b612806616040565b8152602001906001900390816127fe5790505b50905060008060005b86518110801561283157508482105b156128d957600087828151811061284a5761284a616d9a565b602002602001015160c001516001811115612867576128676166bc565b036128c7578983106128b95786818151811061288557612885616d9a565b602002602001015184838151811061289f5761289f616d9a565b602002602001018190525081806128b590617208565b9250505b826128c381617208565b9350505b806128d181617208565b915050612822565b50919998505050505050505050565b336000908152600260209081526040808320805482518185028101850190935280835260609493849084015b82821015612bef57600084815260209081902060408051610100810182526008860290920180546001600160a01b039081168452600182015416938301939093526002830180549293929184019161296b90616dd9565b80601f016020809104026020016040519081016040528092919081815260200182805461299790616dd9565b80156129e45780601f106129b9576101008083540402835291602001916129e4565b820191906000526020600020905b8154815290600101906020018083116129c757829003601f168201915b505050505081526020016003820180546129fd90616dd9565b80601f0160208091040260200160405190810160405280929190818152602001828054612a2990616dd9565b8015612a765780601f10612a4b57610100808354040283529160200191612a76565b820191906000526020600020905b815481529060010190602001808311612a5957829003601f168201915b50505050508152602001600482018054612a8f90616dd9565b80601f0160208091040260200160405190810160405280929190818152602001828054612abb90616dd9565b8015612b085780601f10612add57610100808354040283529160200191612b08565b820191906000526020600020905b815481529060010190602001808311612aeb57829003601f168201915b50505050508152602001600582018054612b2190616dd9565b80601f0160208091040260200160405190810160405280929190818152602001828054612b4d90616dd9565b8015612b9a5780601f10612b6f57610100808354040283529160200191612b9a565b820191906000526020600020905b815481529060010190602001808311612b7d57829003601f168201915b5050509183525050600682015460209091019060ff166001811115612bc157612bc16166bc565b6001811115612bd257612bd26166bc565b815260200160078201548152505081526020019060010190612914565b505050509050600081516001600160401b03811115612c1057612c1061625c565b604051908082528060200260200182016040528015612c4357816020015b6060815260200190600190039081612c2e5790505b50905060005b8251811015612c9557828181518110612c6457612c64616d9a565b602002602001015160a00151828281518110612c8257612c82616d9a565b6020908102919091010152600101612c49565b5092915050565b6060600d805480602002602001604051908101604052809291908181526020016000905b828210156114f1578382906000526020600020018054612cdf90616dd9565b80601f0160208091040260200160405190810160405280929190818152602001828054612d0b90616dd9565b8015612d585780601f10612d2d57610100808354040283529160200191612d58565b820191906000526020600020905b815481529060010190602001808311612d3b57829003601f168201915b505050505081526020019060010190612cc0565b6000855111612d8d5760405162461bcd60e51b815260040161060490616d47565b60048260ff16111580612da357508160ff1660ff145b612e085760405162461bcd60e51b815260206004820152603060248201527f496e76616c696420726f6c653a206d75737420626520302d34206f722032353560448201526f20286b656570206578697374696e672960801b6064820152608401610604565b336000908152600560205260408082209051612e25908890616d7e565b9081526020016040518091039020905060005b815481101561301257856001600160a01b0316828281548110612e5d57612e5d616d9a565b60009182526020909120600490910201546001600160a01b03160361300a5760408051808201909152600581526304b4545560dc1b6020918201528551908601207fb0837273b2da8502395a7160f0bf01f6f8b7a45d6441089eea6b5d9f33b8399114612ef65784828281548110612ed757612ed7616d9a565b90600052602060002090600402016001019081612ef4919061700b565b505b8360ff1660ff14612f3e5783828281548110612f1457612f14616d9a565b906000526020600020906004020160020160006101000a81548160ff021916908360ff1602179055505b60408051808201909152600581526304b4545560dc1b6020918201528351908401207fb0837273b2da8502395a7160f0bf01f6f8b7a45d6441089eea6b5d9f33b8399114612fb85782828281548110612f9957612f99616d9a565b90600052602060002090600402016003019081612fb6919061700b565b505b856001600160a01b0316336001600160a01b03167fb66dabb959d5f3bdb53a39aa58d0975b39199c9b188ad8bb09a1b37bb7bf59798942604051612ffd929190617234565b60405180910390a3613012565b600101612e38565b50505050505050565b6001600160a01b0381166000908152600360209081526040808320805482518185028101850190935280835260609492939192909184015b82821015611c8657838290600052602060002001805461307290616dd9565b80601f016020809104026020016040519081016040528092919081815260200182805461309e90616dd9565b80156130eb5780601f106130c0576101008083540402835291602001916130eb565b820191906000526020600020905b8154815290600101906020018083116130ce57829003601f168201915b505050505081526020019060010190613053565b336001600160a01b037f000000000000000000000000000000000000000000000000000000000000000016146131865760405162461bcd60e51b815260206004820152602660248201527f4f6e6c792073706f6e736f722063616e2072656d6f76652061646d696e6973746044820152657261746f727360d01b6064820152608401610604565b6001600160a01b03166000908152600f60205260409020805460ff19169055565b6001600160a01b0385166131fd5760405162461bcd60e51b815260206004820181905260248201527f526563697069656e742063616e6e6f74206265207a65726f20616464726573736044820152606401610604565b336001600160a01b038616036132555760405162461bcd60e51b815260206004820152601760248201527f43616e6e6f74206d65737361676520796f757273656c660000000000000000006044820152606401610604565b60008151116132a25760405162461bcd60e51b81526020600482015260196024820152784950465320686173682063616e6e6f7420626520656d70747960381b6044820152606401610604565b60006132ae3387614315565b6000818152600160205260408120549192500361330957336000908152600460209081526040808320805460018181018355918552838520018590556001600160a01b038a1684529083208054918201815583529120018190555b60016000828152602001908152602001600020604051806101000160405280336001600160a01b03168152602001886001600160a01b03168152602001868152602001878152602001858152602001848152602001600180811115613370576133706166bc565b815242602091820152825460018082018555600094855293829020835160089092020180546001600160a01b03199081166001600160a01b0393841617825592840151948101805490931694909116939093179055604081015190919060028201906133dc908261700b565b50606082015160038201906133f1908261700b565b5060808201516004820190613406908261700b565b5060a0820151600582019061341b908261700b565b5060c082015160068201805460ff19166001838181111561343e5761343e6166bc565b021790555060e091909101516007909101558451156134825733600090815260036020908152604082208054600181018255908352912001613480868261700b565b505b856001600160a01b0316336001600160a01b03167fb6e5bea89e5044d66ff49940ba0401db7bec08daacadb6d06705264874a40fea848642604051610ba1939291906171ad565b336001600160a01b037f000000000000000000000000000000000000000000000000000000000000000016148061350f5750336000908152600f602052604090205460ff165b61356f5760405162461bcd60e51b815260206004820152603b60248201526000805160206172b683398151915260448201527f616e2064656c657465207075626c6963206174747269627574657300000000006064820152608401610604565b600b8160405161357f9190616d7e565b908152602001604051809103902060006135999190616003565b60005b600d54811015611e3c578180519060200120600d82815481106135c1576135c1616d9a565b906000526020600020016040516135d89190616f54565b60405180910390200361364a57600d80546135f590600190616dc6565b8154811061360557613605616d9a565b90600052602060002001600d828154811061362257613622616d9a565b9060005260206000200190816136389190616e5f565b50600d805480611e1257611e12616f3e565b60010161359c565b336001600160a01b037f00000000000000000000000000000000000000000000000000000000000000001614806136985750336000908152600f602052604090205460ff165b6136f85760405162461bcd60e51b815260206004820152603860248201526000805160206172b683398151915260448201527f616e20736574207075626c6963206174747269627574657300000000000000006064820152608401610604565b600082511161373f5760405162461bcd60e51b81526020600482015260136024820152724b65792063616e6e6f7420626520656d70747960681b6044820152606401610604565b600b8260405161374f9190616d7e565b9081526020016040518091039020805461376890616dd9565b90506000036137af57600d80546001810182556000919091527fd7b6990105719101dabeb77144f2a3385c8033acd3af97e9423a695e81ad1eb5016137ad838261700b565b505b80600b836040516137c09190616d7e565b908152602001604051809103902090816137da919061700b565b50816040516137e99190616d7e565b6040805191829003822060018352426020840152917f590120a97fea9eae0ab7f73633c407e0d9f528198b43f5aded24fc164146674491015b60405180910390a25050565b6060600b826040516138409190616d7e565b9081526020016040518091039020805461385990616dd9565b80601f016020809104026020016040519081016040528092919081815260200182805461388590616dd9565b80156138d25780601f106138a7576101008083540402835291602001916138d2565b820191906000526020600020905b8154815290600101906020018083116138b557829003601f168201915b50505050509050919050565b6001600160a01b0383166000908152600560205260408082209051829190613907908690616d7e565b9081526020016040518091039020805480602002602001604051908101604052809291908181526020016000905b82821015613ab257600084815260209081902060408051608081019091526004850290910180546001600160a01b03168252600181018054929391929184019161397e90616dd9565b80601f01602080910402602001604051908101604052809291908181526020018280546139aa90616dd9565b80156139f75780601f106139cc576101008083540402835291602001916139f7565b820191906000526020600020905b8154815290600101906020018083116139da57829003601f168201915b5050509183525050600282015460ff166020820152600382018054604090920191613a2190616dd9565b80601f0160208091040260200160405190810160405280929190818152602001828054613a4d90616dd9565b8015613a9a5780601f10613a6f57610100808354040283529160200191613a9a565b820191906000526020600020905b815481529060010190602001808311613a7d57829003601f168201915b50505050508152505081526020019060010190613935565b50505050905060005b8151811015613b0d57836001600160a01b0316828281518110613ae057613ae0616d9a565b6020026020010151600001516001600160a01b031603613b0557600192505050611b9b565b600101613abb565b50600095945050505050565b6001600160a01b038416613b6f5760405162461bcd60e51b815260206004820152601f60248201527f417070726f7665722063616e6e6f74206265207a65726f2061646472657373006044820152606401610604565b6000835111613bbc5760405162461bcd60e51b815260206004820152601960248201527846696c65206e616d652063616e6e6f7420626520656d70747960381b6044820152606401610604565b6000825111613c0d5760405162461bcd60e51b815260206004820152601960248201527f46696c6520686173682063616e6e6f7420626520656d707479000000000000006044820152606401610604565b6001600160a01b0384166000908152600960205260408120815b8154811015613c7757336001600160a01b0316828281548110613c4c57613c4c616d9a565b6000918252602090912001546001600160a01b031603613c6f5760019250613c77565b600101613c27565b5081613cb6576001600160a01b03861660009081526009602090815260408220805460018101825590835291200180546001600160a01b031916331790555b336000908152600a60205260408120815b8154811015613d1757886001600160a01b0316828281548110613cec57613cec616d9a565b6000918252602090912001546001600160a01b031603613d0f5760019250613d17565b600101613cc7565b5081613d5657336000908152600a602090815260408220805460018101825590835291200180546001600160a01b0319166001600160a01b038a161790555b6040805160a081018252600080825260208083018b81528385018b9052606084018390526001608085018190526001600160a01b038e16845260088352858420338552835294832080548087018255908452919092208351600590920201805460ff191691151591909117815590519192839290820190613dd7908261700b565b5060408201516002820190613dec908261700b565b50606082015160038201556080909101516004909101805460ff191691151591909117905560405133906001600160a01b038b16907f77b5f9c2d9c3bd8746beb63af36552109a2f92f947920ba0994acb2deb3e3b8b90613e52908c908c9042906171ad565b60405180910390a3505050505050505050565b336001600160a01b037f0000000000000000000000000000000000000000000000000000000000000000161480613eab5750336000908152600f602052604090205460ff165b613f0b5760405162461bcd60e51b815260206004820152603960248201526000805160206172b683398151915260448201527f616e2073657420707269766174652061747472696275746573000000000000006064820152608401610604565b6000825111613f525760405162461bcd60e51b81526020600482015260136024820152724b65792063616e6e6f7420626520656d70747960681b6044820152606401610604565b600c82604051613f629190616d7e565b90815260200160405180910390208054613f7b90616dd9565b9050600003613fc257600e80546001810182556000919091527fbb7b4a454dc3493923482f07822329ed19e8244eff582cc204f8554c3620c3fd01613fc0838261700b565b505b80600c83604051613fd39190616d7e565b90815260200160405180910390209081613fed919061700b565b5081604051613ffc9190616d7e565b6040805191829003822060008352426020840152917f590120a97fea9eae0ab7f73633c407e0d9f528198b43f5aded24fc16414667449101613822565b6001600160a01b03821660009081526005602052604090819020905160609190614064908490616d7e565b9081526020016040518091039020805480602002602001604051908101604052809291908181526020016000905b8282101561106557600084815260209081902060408051608081019091526004850290910180546001600160a01b0316825260018101805492939192918401916140db90616dd9565b80601f016020809104026020016040519081016040528092919081815260200182805461410790616dd9565b80156141545780601f1061412957610100808354040283529160200191614154565b820191906000526020600020905b81548152906001019060200180831161413757829003601f168201915b5050509183525050600282015460ff16602082015260038201805460409092019161417e90616dd9565b80601f01602080910402602001604051908101604052809291908181526020018280546141aa90616dd9565b80156141f75780601f106141cc576101008083540402835291602001916141f7565b820191906000526020600020905b8154815290600101906020018083116141da57829003601f168201915b50505050508152505081526020019060010190614092565b8051602081830181018051600b825292820191909301209152805461423390616dd9565b80601f016020809104026020016040519081016040528092919081815260200182805461425f90616dd9565b80156142ac5780601f10614281576101008083540402835291602001916142ac565b820191906000526020600020905b81548152906001019060200180831161428f57829003601f168201915b505050505081565b3360009081526004602090815260409182902080548351818402810184019094528084526060939283018282801561430b57602002820191906000526020600020905b8154815260200190600101908083116142f7575b5050505050905090565b6000806000836001600160a01b0316856001600160a01b03161061433a57838561433d565b84845b6040516bffffffffffffffffffffffff19606084811b8216602084015283901b1660348201529193509150604801604051602081830303815290604052805190602001209250505092915050565b6000805461423390616dd9565b6001600160a01b0381166000908152600a6020908152604080832080548251818502810185019093528083526060949383018282801561440157602002820191906000526020600020905b81546001600160a01b031681526001909101906020018083116143e3575b505050505090506000805b825181101561448f576008600084838151811061442b5761442b616d9a565b60200260200101516001600160a01b03166001600160a01b031681526020019081526020016000206000866001600160a01b03166001600160a01b0316815260200190815260200160002080549050826144859190617221565b915060010161440c565b506000816001600160401b038111156144aa576144aa61625c565b6040519080825280602002602001820160405280156144e357816020015b6144d06160a8565b8152602001906001900390816144c85790505b5090506000805b84518110156122b657600085828151811061450757614507616d9a565b6020908102919091018101516001600160a01b038082166000908152600884526040808220928d1682529184528181208054835181870281018701909452808452939550909391929091849084015b828210156146dd5760008481526020908190206040805160a0810190915260058502909101805460ff1615158252600181018054929391929184019161459b90616dd9565b80601f01602080910402602001604051908101604052809291908181526020018280546145c790616dd9565b80156146145780601f106145e957610100808354040283529160200191614614565b820191906000526020600020905b8154815290600101906020018083116145f757829003601f168201915b5050505050815260200160028201805461462d90616dd9565b80601f016020809104026020016040519081016040528092919081815260200182805461465990616dd9565b80156146a65780601f1061467b576101008083540402835291602001916146a6565b820191906000526020600020905b81548152906001019060200180831161468957829003601f168201915b5050509183525050600382015460208083019190915260049092015460ff1615156040909101529082526001929092019101614556565b50505050905060005b81518110156147ed576040518060c00160405280846001600160a01b0316815260200183838151811061471b5761471b616d9a565b6020026020010151600001511515815260200183838151811061474057614740616d9a565b602002602001015160200151815260200183838151811061476357614763616d9a565b602002602001015160400151815260200183838151811061478657614786616d9a565b60200260200101516060015181526020018383815181106147a9576147a9616d9a565b60200260200101516080015115158152508686815181106147cc576147cc616d9a565b602002602001018190525084806147e290617208565b9550506001016146e6565b5050506001016144ea565b3360009081526007602090815260408083206001600160a01b03851684528252808320805482518185028101850190935280835260609492939192909184015b82821015611c86578382906000526020600020906003020160405180606001604052908160008201805461486b90616dd9565b80601f016020809104026020016040519081016040528092919081815260200182805461489790616dd9565b80156148e45780601f106148b9576101008083540402835291602001916148e4565b820191906000526020600020905b8154815290600101906020018083116148c757829003601f168201915b505050918352505060018281015460ff1660208084019190915260029093015460409092019190915291835292019101614838565b336001600160a01b037f0000000000000000000000000000000000000000000000000000000000000000161461499d5760405162461bcd60e51b815260206004820152602360248201527f4f6e6c792073706f6e736f722063616e206164642061646d696e6973747261746044820152626f727360e81b6064820152608401610604565b6001600160a01b0381166149f35760405162461bcd60e51b815260206004820152601c60248201527f41646d696e2063616e6e6f74206265207a65726f2061646472657373000000006044820152606401610604565b6001600160a01b03166000908152600f60205260409020805460ff19166001179055565b6060336001600160a01b037f0000000000000000000000000000000000000000000000000000000000000000161480614a5f5750336000908152600f602052604090205460ff165b614abf5760405162461bcd60e51b815260206004820152603a60248201526000805160206172b683398151915260448201527f616e2072656164207072697661746520617474726962757465730000000000006064820152608401610604565b600c826040516138409190616d7e565b6001600160a01b038116614b255760405162461bcd60e51b815260206004820181905260248201527f4e6577206f776e65722063616e6e6f74206265207a65726f20616464726573736044820152606401610604565b336001600160a01b03821603614b7d5760405162461bcd60e51b815260206004820152601760248201527f43616e6e6f74207472616e7366657220746f2073656c660000000000000000006044820152606401610604565b33600090815260026020526040902054151580614ba857503360009081526004602052604090205415155b614bea5760405162461bcd60e51b81526020600482015260136024820152722737903230ba30903a37903a3930b739b332b960691b6044820152606401610604565b336000908152600260205260408120905b81548110156150835760026000846001600160a01b03166001600160a01b03168152602001908152602001600020604051806101000160405280856001600160a01b03168152602001848481548110614c5657614c56616d9a565b6000918252602091829020600160089092020101546001600160a01b031682528554910190859085908110614c8d57614c8d616d9a565b90600052602060002090600802016002018054614ca990616dd9565b80601f0160208091040260200160405190810160405280929190818152602001828054614cd590616dd9565b8015614d225780601f10614cf757610100808354040283529160200191614d22565b820191906000526020600020905b815481529060010190602001808311614d0557829003601f168201915b50505050508152602001848481548110614d3e57614d3e616d9a565b90600052602060002090600802016003018054614d5a90616dd9565b80601f0160208091040260200160405190810160405280929190818152602001828054614d8690616dd9565b8015614dd35780601f10614da857610100808354040283529160200191614dd3565b820191906000526020600020905b815481529060010190602001808311614db657829003601f168201915b50505050508152602001848481548110614def57614def616d9a565b90600052602060002090600802016004018054614e0b90616dd9565b80601f0160208091040260200160405190810160405280929190818152602001828054614e3790616dd9565b8015614e845780601f10614e5957610100808354040283529160200191614e84565b820191906000526020600020905b815481529060010190602001808311614e6757829003601f168201915b50505050508152602001848481548110614ea057614ea0616d9a565b90600052602060002090600802016005018054614ebc90616dd9565b80601f0160208091040260200160405190810160405280929190818152602001828054614ee890616dd9565b8015614f355780601f10614f0a57610100808354040283529160200191614f35565b820191906000526020600020905b815481529060010190602001808311614f1857829003601f168201915b50505050508152602001848481548110614f5157614f51616d9a565b600091825260209091206006600890920201015460ff166001811115614f7957614f796166bc565b8152602001848481548110614f9057614f90616d9a565b6000918252602080832060089283020160070154909352845460018082018755958352918390208451929091020180546001600160a01b03199081166001600160a01b039384161782559284015194810180549093169490911693909317905560408101519091906002820190615007908261700b565b506060820151600382019061501c908261700b565b5060808201516004820190615031908261700b565b5060a08201516005820190615046908261700b565b5060c082015160068201805460ff191660018381811115615069576150696166bc565b021790555060e09190910151600790910155600101614bfb565b50336000908152600360205260408120905b81548110156150f9576001600160a01b038416600090815260036020526040902082548390839081106150ca576150ca616d9a565b6000918252602080832084546001810186559484529220909201916150f0910182616e5f565b50600101615095565b50336000908152600460205260408120905b81548110156151ca57600082828154811061512857615128616d9a565b60009182526020808320909101546001600160a01b0389168352600490915260408220909250815b815481101561518d578382828154811061516c5761516c616d9a565b906000526020600020015403615185576001925061518d565b600101615150565b50816151bf576001600160a01b0388166000908152600460209081526040822080546001810182559083529120018390555b50505060010161510b565b50336000908152600a602090815260408083208054825181850281018501909352808352919290919083018282801561522c57602002820191906000526020600020905b81546001600160a01b0316815260019091019060200180831161520e575b5050505050905060005b815181101561579357600082828151811061525357615253616d9a565b6020908102919091018101516001600160a01b0381166000908152600883526040808220338352845280822080548251818702810187019093528083529395509193909290849084015b828210156154245760008481526020908190206040805160a0810190915260058502909101805460ff161515825260018101805492939192918401916152e290616dd9565b80601f016020809104026020016040519081016040528092919081815260200182805461530e90616dd9565b801561535b5780601f106153305761010080835404028352916020019161535b565b820191906000526020600020905b81548152906001019060200180831161533e57829003601f168201915b5050505050815260200160028201805461537490616dd9565b80601f01602080910402602001604051908101604052809291908181526020018280546153a090616dd9565b80156153ed5780601f106153c2576101008083540402835291602001916153ed565b820191906000526020600020905b8154815290600101906020018083116153d057829003601f168201915b5050509183525050600382015460208083019190915260049092015460ff161515604090910152908252600192909201910161529d565b50505050905060005b81518110156154f9576001600160a01b038084166000908152600860209081526040808320938d16835292905220825183908390811061546f5761546f616d9a565b6020908102919091018101518254600180820185556000948552938390208251600590920201805460ff19169115159190911781559181015190928201906154b7908261700b565b50604082015160028201906154cc908261700b565b50606082015160038201556080909101516004909101805460ff191691151591909117905560010161542d565b506001600160a01b038216600090815260096020526040812090805b8254811015615561578a6001600160a01b031683828154811061553a5761553a616d9a565b6000918252602090912001546001600160a01b03160361555957600191505b600101615515565b5060005b825481101561566157336001600160a01b031683828154811061558a5761558a616d9a565b6000918252602090912001546001600160a01b03160361565957825483906155b490600190616dc6565b815481106155c4576155c4616d9a565b9060005260206000200160009054906101000a90046001600160a01b03168382815481106155f4576155f4616d9a565b9060005260206000200160006101000a8154816001600160a01b0302191690836001600160a01b031602179055508280548061563257615632616f3e565b600082815260209020810160001990810180546001600160a01b0319169055019055615661565b600101615565565b50806156a6576001600160a01b0384811660009081526009602090815260408220805460018101825590835291200180546001600160a01b031916918c169190911790555b6001600160a01b038a166000908152600a60205260408120815b815481101561571057866001600160a01b03168282815481106156e5576156e5616d9a565b6000918252602090912001546001600160a01b0316036157085760019250615710565b6001016156c0565b5081615755576001600160a01b038c81166000908152600a602090815260408220805460018101825590835291200180546001600160a01b0319169188169190911790555b6001600160a01b03861660009081526008602090815260408083203384529091528120615781916160eb565b50506001909401935061523692505050565b503360009081526002602052604081206157ac9161610c565b3360009081526003602052604081206157c49161612d565b3360009081526004602052604081206157dc9161614b565b336000908152600a602052604081206157f49161614b565b6040514281526001600160a01b0386169033907fc13a1166d81cd3b0b352a367aebab95f3a6f6bc695fdab8e9a9d335239c3861b9060200160405180910390a35050505050565b6001600160a01b03811660009081526009602090815260408083208054825181850281018501909352808352606094938301828280156158a457602002820191906000526020600020905b81546001600160a01b03168152600190910190602001808311615886575b505050505090506000805b8251811015615928576001600160a01b038516600090815260086020526040812084519091908590849081106158e7576158e7616d9a565b60200260200101516001600160a01b03166001600160a01b03168152602001908152602001600020805490508261591e9190617221565b91506001016158af565b506000816001600160401b038111156159435761594361625c565b60405190808252806020026020018201604052801561597c57816020015b6159696160a8565b8152602001906001900390816159615790505b5090506000805b84518110156122b65760008582815181106159a0576159a0616d9a565b6020908102919091018101516001600160a01b03808b16600090815260088452604080822092841682529184528181208054835181870281018701909452808452939550909391929091849084015b82821015615b765760008481526020908190206040805160a0810190915260058502909101805460ff16151582526001810180549293919291840191615a3490616dd9565b80601f0160208091040260200160405190810160405280929190818152602001828054615a6090616dd9565b8015615aad5780601f10615a8257610100808354040283529160200191615aad565b820191906000526020600020905b815481529060010190602001808311615a9057829003601f168201915b50505050508152602001600282018054615ac690616dd9565b80601f0160208091040260200160405190810160405280929190818152602001828054615af290616dd9565b8015615b3f5780601f10615b1457610100808354040283529160200191615b3f565b820191906000526020600020905b815481529060010190602001808311615b2257829003601f168201915b5050509183525050600382015460208083019190915260049092015460ff16151560409091015290825260019290920191016159ef565b50505050905060005b8151811015615c86576040518060c00160405280846001600160a01b03168152602001838381518110615bb457615bb4616d9a565b60200260200101516000015115158152602001838381518110615bd957615bd9616d9a565b6020026020010151602001518152602001838381518110615bfc57615bfc616d9a565b6020026020010151604001518152602001838381518110615c1f57615c1f616d9a565b6020026020010151606001518152602001838381518110615c4257615c42616d9a565b6020026020010151608001511515815250868681518110615c6557615c65616d9a565b60200260200101819052508480615c7b90617208565b955050600101615b7f565b505050600101615983565b6000855111615cb25760405162461bcd60e51b815260040161060490616d47565b6001600160a01b038416615d015760405162461bcd60e51b8152602060048201526016602482015275416464726573732063616e6e6f74206265207a65726f60501b6044820152606401610604565b60048260ff16111580615d1757508160ff1660ff145b615d745760405162461bcd60e51b815260206004820152602860248201527f496e76616c696420726f6c653a206d75737420626520302d34206f72203235356044820152672028756e7365742960c01b6064820152608401610604565b336000908152600560205260408082209051615d91908890616d7e565b9081526020016040518091039020905060005b8154811015615e3857856001600160a01b0316828281548110615dc957615dc9616d9a565b60009182526020909120600490910201546001600160a01b031603615e305760405162461bcd60e51b815260206004820152601c60248201527f4164647265737320616c726561647920696e2077686974656c697374000000006044820152606401610604565b600101615da4565b508054600003615e6d5733600090815260066020908152604082208054600181018255908352912001615e6b878261700b565b505b60008360ff1660ff14615e805783615e83565b60005b604080516080810182526001600160a01b03898116825260208083018a815260ff86169484019490945260608301889052865460018082018955600089815292909220845160049092020180546001600160a01b03191691909316178255925193945090928392820190615ef7908261700b565b50604082015160028201805460ff191660ff90921691909117905560608201516003820190615f26908261700b565b50503360009081526007602090815260408083206001600160a01b038c168452825280832081516060810183528d815260ff88168185015242928101929092528054600181018255908452919092208251929350600390910201908190615f8d908261700b565b50602082015160018201805460ff191660ff909216919091179055604091820151600290910155516001600160a01b0388169033907fb66dabb959d5f3bdb53a39aa58d0975b39199c9b188ad8bb09a1b37bb7bf597990615ff1908c904290617276565b60405180910390a35050505050505050565b50805461600f90616dd9565b6000825580601f1061601f575050565b601f01602090049060005260206000209081019061603d9190616165565b50565b60405180610100016040528060006001600160a01b0316815260200160006001600160a01b03168152602001606081526020016060815260200160608152602001606081526020016000600181111561609b5761609b6166bc565b8152602001600081525090565b6040518060c0016040528060006001600160a01b031681526020016000151581526020016060815260200160608152602001600081526020016000151581525090565b508054600082556005029060005260206000209081019061603d919061617e565b508054600082556008029060005260206000209081019061603d91906161c7565b508054600082559060005260206000209081019061603d919061623f565b508054600082559060005260206000209081019061603d91905b5b8082111561617a5760008155600101616166565b5090565b8082111561617a57805460ff19168155600061619d6001830182616003565b6161ab600283016000616003565b506000600382015560048101805460ff1916905560050161617e565b8082111561617a5780546001600160a01b03199081168255600182018054909116905560006161f96002830182616003565b616207600383016000616003565b616215600483016000616003565b616223600583016000616003565b5060068101805460ff19169055600060078201556008016161c7565b8082111561617a5760006162538282616003565b5060010161623f565b634e487b7160e01b600052604160045260246000fd5b600082601f83011261628357600080fd5b81356001600160401b0381111561629c5761629c61625c565b604051601f8201601f19908116603f011681016001600160401b03811182821017156162ca576162ca61625c565b6040528181528382016020018510156162e257600080fd5b816020850160208301376000918101602001919091529392505050565b80356001600160a01b038116811461631657600080fd5b919050565b6000806040838503121561632e57600080fd5b82356001600160401b0381111561634457600080fd5b61635085828601616272565b92505061635f602084016162ff565b90509250929050565b60006020828403121561637a57600080fd5b611b9b826162ff565b80356002811061631657600080fd5b60008060008060008060c087890312156163ab57600080fd5b6163b4876162ff565b955060208701356001600160401b038111156163cf57600080fd5b6163db89828a01616272565b95505060408701356001600160401b038111156163f757600080fd5b61640389828a01616272565b94505060608701356001600160401b0381111561641f57600080fd5b61642b89828a01616272565b93505060808701356001600160401b0381111561644757600080fd5b61645389828a01616272565b92505061646260a08801616383565b90509295509295509295565b60008060006060848603121561648357600080fd5b61648c846162ff565b925060208401356001600160401b038111156164a757600080fd5b6164b386828701616272565b925050604084013580151581146164c957600080fd5b809150509250925092565b600080604083850312156164e757600080fd5b6164f0836162ff565b915061635f602084016162ff565b60005b83811015616519578181015183820152602001616501565b50506000910152565b6000815180845261653a8160208601602086016164fe565b601f01601f19169290920160200192915050565b6000602082016020835280845180835260408501915060408160051b86010192506020860160005b828110156165f057603f198786030184528151805115158652602081015160a060208801526165a860a0880182616522565b9050604082015187820360408901526165c18282616522565b606084810151908a01526080938401511515939098019290925250506020938401939190910190600101616576565b50929695505050505050565b6000806040838503121561660f57600080fd5b82356001600160401b0381111561662557600080fd5b61663185828601616272565b92505060208301356001600160401b0381111561664d57600080fd5b61665985828601616272565b9150509250929050565b6000602082016020835280845180835260408501915060408160051b86010192506020860160005b828110156165f057603f198786030184526166a7858351616522565b9450602093840193919091019060010161668b565b634e487b7160e01b600052602160045260246000fd5b600281106166f057634e487b7160e01b600052602160045260246000fd5b9052565b6000602082016020835280845180835260408501915060408160051b86010192506020860160005b828110156165f057868503603f19018452815180516001600160a01b03168652602081015161675660208801826001600160a01b03169052565b5060408101516101006040880152616772610100880182616522565b90506060820151878203606089015261678b8282616522565b915050608082015187820360808901526167a58282616522565b91505060a082015187820360a08901526167bf8282616522565b91505060c08201516167d460c08901826166d2565b5060e0918201519690910195909552602093840193919091019060010161671c565b60008060006060848603121561680b57600080fd5b616814846162ff565b925060208401356001600160401b0381111561682f57600080fd5b61683b86828701616272565b92505061684a604085016162ff565b90509250925092565b60018060a01b038151168252600060208201516080602085015261687a6080850182616522565b905060ff6040840151166040850152606083015184820360608601526168a08282616522565b95945050505050565b602081526000611b9b6020830184616853565b6000602082840312156168ce57600080fd5b81356001600160401b038111156168e457600080fd5b6168f084828501616272565b949350505050565b60008060006060848603121561690d57600080fd5b616916846162ff565b95602085013595506040909401359392505050565b600080600080600060a0868803121561694357600080fd5b85356001600160401b0381111561695957600080fd5b61696588828901616272565b955050616974602087016162ff565b935060408601356001600160401b0381111561698f57600080fd5b61699b88828901616272565b935050606086013560ff811681146169b257600080fd5b915060808601356001600160401b038111156169cd57600080fd5b6169d988828901616272565b9150509295509295909350565b600080600080600060a086880312156169fe57600080fd5b616a07866162ff565b945060208601356001600160401b03811115616a2257600080fd5b616a2e88828901616272565b94505060408601356001600160401b03811115616a4a57600080fd5b616a5688828901616272565b93505060608601356001600160401b03811115616a7257600080fd5b616a7e88828901616272565b92505060808601356001600160401b038111156169cd57600080fd5b602081526000611b9b6020830184616522565b60008060008060808587031215616ac357600080fd5b616acc856162ff565b935060208501356001600160401b03811115616ae757600080fd5b616af387828801616272565b93505060408501356001600160401b03811115616b0f57600080fd5b616b1b87828801616272565b92505060608501356001600160401b03811115616b3757600080fd5b616b4387828801616272565b91505092959194509250565b60008060408385031215616b6257600080fd5b616b6b836162ff565b915060208301356001600160401b0381111561664d57600080fd5b6000602082016020835280845180835260408501915060408160051b86010192506020860160005b828110156165f057603f19878603018452616bca858351616853565b94506020938401939190910190600101616bae565b602080825282518282018190526000918401906040840190835b818110156122b6578351835260209384019390920191600101616bf9565b6000602082016020835280845180835260408501915060408160051b86010192506020860160005b828110156165f057603f19878603018452815160018060a01b038151168652602081015115156020870152604081015160c06040880152616c8360c0880182616522565b905060608201518782036060890152616c9c8282616522565b608084810151908a015260a0938401511515939098019290925250506020938401939190910190600101616c3f565b6000602082016020835280845180835260408501915060408160051b86010192506020860160005b828110156165f057603f198786030184528151805160608752616d196060880182616522565b60208381015160ff168982015260409384015193909801929092525094938401939190910190600101616cf3565b60208082526019908201527f4c697374206e616d652063616e6e6f7420626520656d70747900000000000000604082015260600190565b60008251616d908184602087016164fe565b9190910192915050565b634e487b7160e01b600052603260045260246000fd5b634e487b7160e01b600052601160045260246000fd5b8181038181111561099557610995616db0565b600181811c90821680616ded57607f821691505b602082108103616e0d57634e487b7160e01b600052602260045260246000fd5b50919050565b601f821115616e5a57806000526020600020601f840160051c81016020851015616e3a5750805b601f840160051c820191505b81811015610e935760008155600101616e46565b505050565b818103616e6a575050565b616e748254616dd9565b6001600160401b03811115616e8b57616e8b61625c565b616e9f81616e998454616dd9565b84616e13565b6000601f821160018114616ed65760008315616ebb5750848201545b600184901b600019600386901b1c198216175b855550610e93565b600085815260209020601f19841690600086815260209020845b83811015616f105782860154825560019586019590910190602001616ef0565b5085831015616f2e5781850154600019600388901b60f8161c191681555b5050505050600190811b01905550565b634e487b7160e01b600052603160045260246000fd5b6000808354616f6281616dd9565b600182168015616f795760018114616f8e57616fbe565b60ff1983168652811515820286019350616fbe565b86600052602060002060005b83811015616fb657815488820152600190910190602001616f9a565b505081860193505b509195945050505050565b606081526000616fdc6060830185616522565b8281036020840152600681526572656d6f766560d01b6020820152604081019150508260408301529392505050565b81516001600160401b038111156170245761702461625c565b61703281616e998454616dd9565b6020601f8211600181146170645760008315616ebb575081850151600184901b600019600386901b1c19821617616ece565b600084815260208120601f198516915b828110156170945787850151825560209485019460019092019101617074565b50848210156170b25786840151600019600387901b60f8161c191681555b50505050600190811b01905550565b6080815260006170d46080830187616522565b82810360208401526170e68187616522565b9150506170f660408301856166d2565b82606083015295945050505050565b6000815461711281616dd9565b80855260018216801561712c57600181146171485761717f565b60ff1983166020870152602082151560051b870101935061717f565b84600052602060002060005b838110156171765781546020828a010152600182019150602081019050617154565b87016020019450505b50505092915050565b60608152600061719b6060830186617105565b93151560208301525060400152919050565b6060815260006171c06060830186616522565b82810360208401526171d28186616522565b915050826040830152949350505050565b6080815260006171f66080830187616522565b82810360208401526170e68187617105565b60006001820161721a5761721a616db0565b5060010190565b8082018082111561099557610995616db0565b6060815260006172476060830185616522565b8281036020840152600681526575706461746560d01b6020820152604081019150508260408301529392505050565b6060815260006172896060830185616522565b8281036020840152600381526218591960ea1b602082015260408101915050826040830152939250505056fe4f6e6c792073706f6e736f72206f722061646d696e6973747261746f72732063a26469706673582212205fe6e7b2e3dc09b0ade035da6a99202a58571228feb989b564c405a5902f5cab64736f6c634300081b0033",
  "linkReferences": {},
  "deployedLinkReferences": {}
}