{
  "_format": "hh-sol-artifact-1",
  "contractName": "Agent",
  "sourceName": "contracts/agent.sol",
  "abi": [
    {
      "inputs": [
        {
          "internalType": "string",
          "name": "_domain",
          "type": "string"
        },
        {
          "internalType": "address",
          "name": "_sponsor",
          "type": "address"
        }
      ],
      "stateMutability": "nonpayable",
      "type": "constructor"
    },
    {
      "anonymous": false,
      "inputs": [
        {
          "indexed": true,
          "internalType": "address",
          "name": "approver",
          "type": "address"
        },
        {
          "indexed": true,
          "internalType": "address",
          "name": "requestor",
          "type": "address"
        },
        {
          "indexed": false,
          "internalType": "string",
          "name": "fileName",
          "type": "string"
        },
        {
          "indexed": false,
          "internalType": "bool",
          "name": "approved",
          "type": "bool"
        },
        {
          "indexed": false,
          "internalType": "uint256",
          "name": "timestamp",
          "type": "uint256"
        }
      ],
      "name": "ApprovalHandled",
      "type": "event"
    },
    {
      "anonymous": false,
      "inputs": [
        {
          "indexed": true,
          "internalType": "address",
          "name": "approver",
          "type": "address"
        },
        {
          "indexed": true,
          "internalType": "address",
          "name": "requestor",
          "type": "address"
        },
        {
          "indexed": false,
          "internalType": "string",
          "name": "fileName",
          "type": "string"
        },
        {
          "indexed": false,
          "internalType": "string",
          "name": "fileHash",
          "type": "string"
        },
        {
          "indexed": false,
          "internalType": "uint256",
          "name": "timestamp",
          "type": "uint256"
        }
      ],
      "name": "ApprovalRequested",
      "type": "event"
    },
    {
      "anonymous": false,
      "inputs": [
        {
          "indexed": true,
          "internalType": "string",
          "name": "key",
          "type": "string"
        },
        {
          "indexed": false,
          "internalType": "bool",
          "name": "isPublic",
          "type": "bool"
        },
        {
          "indexed": false,
          "internalType": "uint256",
          "name": "timestamp",
          "type": "uint256"
        }
      ],
      "name": "AttributeSet",
      "type": "event"
    },
    {
      "anonymous": false,
      "inputs": [
        {
          "indexed": true,
          "internalType": "address",
          "name": "owner",
          "type": "address"
        },
        {
          "indexed": false,
          "internalType": "string",
          "name": "publicKey",
          "type": "string"
        },
        {
          "indexed": false,
          "internalType": "string",
          "name": "data",
          "type": "string"
        },
        {
          "indexed": false,
          "internalType": "uint256",
          "name": "timestamp",
          "type": "uint256"
        }
      ],
      "name": "DataWritten",
      "type": "event"
    },
    {
      "anonymous": false,
      "inputs": [
        {
          "indexed": true,
          "internalType": "address",
          "name": "previousOwner",
          "type": "address"
        },
        {
          "indexed": true,
          "internalType": "address",
          "name": "newOwner",
          "type": "address"
        },
        {
          "indexed": false,
          "internalType": "uint256",
          "name": "timestamp",
          "type": "uint256"
        }
      ],
      "name": "OwnershipTransferred",
      "type": "event"
    },
    {
      "anonymous": false,
      "inputs": [
        {
          "indexed": true,
          "internalType": "address",
          "name": "owner",
          "type": "address"
        },
        {
          "indexed": false,
          "internalType": "string",
          "name": "listName",
          "type": "string"
        },
        {
          "indexed": true,
          "internalType": "address",
          "name": "addr",
          "type": "address"
        },
        {
          "indexed": false,
          "internalType": "string",
          "name": "action",
          "type": "string"
        },
        {
          "indexed": false,
          "internalType": "uint256",
          "name": "timestamp",
          "type": "uint256"
        }
      ],
      "name": "WhitelistModified",
      "type": "event"
    },
    {
      "inputs": [],
      "name": "VERSION",
      "outputs": [
        {
          "internalType": "string",
          "name": "",
          "type": "string"
        }
      ],
      "stateMutability": "view",
      "type": "function"
    },
    {
      "inputs": [
        {
          "internalType": "address",
          "name": "admin",
          "type": "address"
        }
      ],
      "name": "addAdministrator",
      "outputs": [],
      "stateMutability": "nonpayable",
      "type": "function"
    },
    {
      "inputs": [
        {
          "internalType": "string",
          "name": "listName",
          "type": "string"
        },
        {
          "internalType": "address",
          "name": "addressToAdd",
          "type": "address"
        },
        {
          "internalType": "string",
          "name": "name",
          "type": "string"
        },
        {
          "internalType": "uint8",
          "name": "role",
          "type": "uint8"
        },
        {
          "internalType": "string",
          "name": "meta",
          "type": "string"
        }
      ],
      "name": "addToWhitelist",
      "outputs": [],
      "stateMutability": "nonpayable",
      "type": "function"
    },
    {
      "inputs": [
        {
          "internalType": "address",
          "name": "approverAddress",
          "type": "address"
        },
        {
          "internalType": "string",
          "name": "fileName",
          "type": "string"
        },
        {
          "internalType": "string",
          "name": "fileHash",
          "type": "string"
        },
        {
          "internalType": "string",
          "name": "requestDomain",
          "type": "string"
        }
      ],
      "name": "createApproval",
      "outputs": [],
      "stateMutability": "nonpayable",
      "type": "function"
    },
    {
      "inputs": [
        {
          "internalType": "string",
          "name": "key",
          "type": "string"
        }
      ],
      "name": "deletePrivateAttribute",
      "outputs": [],
      "stateMutability": "nonpayable",
      "type": "function"
    },
    {
      "inputs": [
        {
          "internalType": "string",
          "name": "key",
          "type": "string"
        }
      ],
      "name": "deletePublicAttribute",
      "outputs": [],
      "stateMutability": "nonpayable",
      "type": "function"
    },
    {
      "inputs": [],
      "name": "domain",
      "outputs": [
        {
          "internalType": "string",
          "name": "",
          "type": "string"
        }
      ],
      "stateMutability": "view",
      "type": "function"
    },
    {
      "inputs": [
        {
          "internalType": "address",
          "name": "approverAddress",
          "type": "address"
        }
      ],
      "name": "getAllApprovalsForApprover",
      "outputs": [
        {
          "components": [
            {
              "internalType": "address",
              "name": "requestor",
              "type": "address"
            },
            {
              "internalType": "bool",
              "name": "approved",
              "type": "bool"
            },
            {
              "internalType": "string",
              "name": "fileName",
              "type": "string"
            },
            {
              "internalType": "string",
              "name": "fileHash",
              "type": "string"
            },
            {
              "internalType": "uint256",
              "name": "processedAt",
              "type": "uint256"
            },
            {
              "internalType": "bool",
              "name": "exists",
              "type": "bool"
            }
          ],
          "internalType": "struct Agent.ApprovalWithRequestor[]",
          "name": "",
          "type": "tuple[]"
        }
      ],
      "stateMutability": "view",
      "type": "function"
    },
    {
      "inputs": [
        {
          "internalType": "address",
          "name": "requestorAddress",
          "type": "address"
        }
      ],
      "name": "getAllApprovalsForRequestor",
      "outputs": [
        {
          "components": [
            {
              "internalType": "address",
              "name": "requestor",
              "type": "address"
            },
            {
              "internalType": "bool",
              "name": "approved",
              "type": "bool"
            },
            {
              "internalType": "string",
              "name": "fileName",
              "type": "string"
            },
            {
              "internalType": "string",
              "name": "fileHash",
              "type": "string"
            },
            {
              "internalType": "uint256",
              "name": "processedAt",
              "type": "uint256"
            },
            {
              "internalType": "bool",
              "name": "exists",
              "type": "bool"
            }
          ],
          "internalType": "struct Agent.ApprovalWithRequestor[]",
          "name": "",
          "type": "tuple[]"
        }
      ],
      "stateMutability": "view",
      "type": "function"
    },
    {
      "inputs": [
        {
          "internalType": "address",
          "name": "approverAddress",
          "type": "address"
        },
        {
          "internalType": "address",
          "name": "requestorAddress",
          "type": "address"
        }
      ],
      "name": "getApprovalsByAddress",
      "outputs": [
        {
          "components": [
            {
              "internalType": "bool",
              "name": "approved",
              "type": "bool"
            },
            {
              "internalType": "string",
              "name": "fileName",
              "type": "string"
            },
            {
              "internalType": "string",
              "name": "fileHash",
              "type": "string"
            },
            {
              "internalType": "uint256",
              "name": "processedAt",
              "type": "uint256"
            },
            {
              "internalType": "bool",
              "name": "exists",
              "type": "bool"
            }
          ],
          "internalType": "struct Agent.ApprovalRequest[]",
          "name": "",
          "type": "tuple[]"
        }
      ],
      "stateMutability": "view",
      "type": "function"
    },
    {
      "inputs": [
        {
          "internalType": "address",
          "name": "wallet",
          "type": "address"
        }
      ],
      "name": "getListNames",
      "outputs": [
        {
          "internalType": "string[]",
          "name": "",
          "type": "string[]"
        }
      ],
      "stateMutability": "view",
      "type": "function"
    },
    {
      "inputs": [],
      "name": "getMessageCount",
      "outputs": [
        {
          "internalType": "uint256",
          "name": "",
          "type": "uint256"
        }
      ],
      "stateMutability": "view",
      "type": "function"
    },
    {
      "inputs": [
        {
          "internalType": "string",
          "name": "key",
          "type": "string"
        }
      ],
      "name": "getPrivateAttribute",
      "outputs": [
        {
          "internalType": "string",
          "name": "",
          "type": "string"
        }
      ],
      "stateMutability": "view",
      "type": "function"
    },
    {
      "inputs": [],
      "name": "getPrivateAttributeKeys",
      "outputs": [
        {
          "internalType": "string[]",
          "name": "",
          "type": "string[]"
        }
      ],
      "stateMutability": "view",
      "type": "function"
    },
    {
      "inputs": [
        {
          "internalType": "string",
          "name": "key",
          "type": "string"
        }
      ],
      "name": "getPublicAttribute",
      "outputs": [
        {
          "internalType": "string",
          "name": "",
          "type": "string"
        }
      ],
      "stateMutability": "view",
      "type": "function"
    },
    {
      "inputs": [],
      "name": "getPublicAttributeKeys",
      "outputs": [
        {
          "internalType": "string[]",
          "name": "",
          "type": "string[]"
        }
      ],
      "stateMutability": "view",
      "type": "function"
    },
    {
      "inputs": [
        {
          "internalType": "address",
          "name": "wallet",
          "type": "address"
        },
        {
          "internalType": "string",
          "name": "listName",
          "type": "string"
        }
      ],
      "name": "getWhitelist",
      "outputs": [
        {
          "components": [
            {
              "internalType": "address",
              "name": "addr",
              "type": "address"
            },
            {
              "internalType": "string",
              "name": "name",
              "type": "string"
            },
            {
              "internalType": "uint8",
              "name": "role",
              "type": "uint8"
            },
            {
              "internalType": "string",
              "name": "meta",
              "type": "string"
            }
          ],
          "internalType": "struct Agent.WhitelistEntry[]",
          "name": "",
          "type": "tuple[]"
        }
      ],
      "stateMutability": "view",
      "type": "function"
    },
    {
      "inputs": [
        {
          "internalType": "address",
          "name": "wallet",
          "type": "address"
        },
        {
          "internalType": "string",
          "name": "listName",
          "type": "string"
        },
        {
          "internalType": "address",
          "name": "addressToCheck",
          "type": "address"
        }
      ],
      "name": "getWhitelistEntry",
      "outputs": [
        {
          "components": [
            {
              "internalType": "address",
              "name": "addr",
              "type": "address"
            },
            {
              "internalType": "string",
              "name": "name",
              "type": "string"
            },
            {
              "internalType": "uint8",
              "name": "role",
              "type": "uint8"
            },
            {
              "internalType": "string",
              "name": "meta",
              "type": "string"
            }
          ],
          "internalType": "struct Agent.WhitelistEntry",
          "name": "",
          "type": "tuple"
        }
      ],
      "stateMutability": "view",
      "type": "function"
    },
    {
      "inputs": [
        {
          "internalType": "address",
          "name": "requestorAddress",
          "type": "address"
        },
        {
          "internalType": "string",
          "name": "fileName",
          "type": "string"
        },
        {
          "internalType": "bool",
          "name": "approved",
          "type": "bool"
        }
      ],
      "name": "handleApproval",
      "outputs": [],
      "stateMutability": "nonpayable",
      "type": "function"
    },
    {
      "inputs": [
        {
          "internalType": "address",
          "name": "addr",
          "type": "address"
        }
      ],
      "name": "isAdministrator",
      "outputs": [
        {
          "internalType": "bool",
          "name": "",
          "type": "bool"
        }
      ],
      "stateMutability": "view",
      "type": "function"
    },
    {
      "inputs": [
        {
          "internalType": "address",
          "name": "wallet",
          "type": "address"
        },
        {
          "internalType": "string",
          "name": "listName",
          "type": "string"
        },
        {
          "internalType": "address",
          "name": "addressToCheck",
          "type": "address"
        }
      ],
      "name": "isWhitelisted",
      "outputs": [
        {
          "internalType": "bool",
          "name": "",
          "type": "bool"
        }
      ],
      "stateMutability": "view",
      "type": "function"
    },
    {
      "inputs": [
        {
          "internalType": "string",
          "name": "",
          "type": "string"
        }
      ],
      "name": "publicAttributes",
      "outputs": [
        {
          "internalType": "string",
          "name": "",
          "type": "string"
        }
      ],
      "stateMutability": "view",
      "type": "function"
    },
    {
      "inputs": [],
      "name": "read",
      "outputs": [
        {
          "internalType": "string[]",
          "name": "",
          "type": "string[]"
        }
      ],
      "stateMutability": "view",
      "type": "function"
    },
    {
      "inputs": [
        {
          "internalType": "address",
          "name": "admin",
          "type": "address"
        }
      ],
      "name": "removeAdministrator",
      "outputs": [],
      "stateMutability": "nonpayable",
      "type": "function"
    },
    {
      "inputs": [
        {
          "internalType": "string",
          "name": "listName",
          "type": "string"
        },
        {
          "internalType": "address",
          "name": "addressToRemove",
          "type": "address"
        }
      ],
      "name": "removeFromWhitelist",
      "outputs": [],
      "stateMutability": "nonpayable",
      "type": "function"
    },
    {
      "inputs": [
        {
          "internalType": "string",
          "name": "key",
          "type": "string"
        },
        {
          "internalType": "string",
          "name": "value",
          "type": "string"
        }
      ],
      "name": "setPrivateAttribute",
      "outputs": [],
      "stateMutability": "nonpayable",
      "type": "function"
    },
    {
      "inputs": [
        {
          "internalType": "string",
          "name": "key",
          "type": "string"
        },
        {
          "internalType": "string",
          "name": "value",
          "type": "string"
        }
      ],
      "name": "setPublicAttribute",
      "outputs": [],
      "stateMutability": "nonpayable",
      "type": "function"
    },
    {
      "inputs": [],
      "name": "sponsor",
      "outputs": [
        {
          "internalType": "address",
          "name": "",
          "type": "address"
        }
      ],
      "stateMutability": "view",
      "type": "function"
    },
    {
      "inputs": [
        {
          "internalType": "address",
          "name": "newOwner",
          "type": "address"
        }
      ],
      "name": "transferOwnership",
      "outputs": [],
      "stateMutability": "nonpayable",
      "type": "function"
    },
    {
      "inputs": [
        {
          "internalType": "string",
          "name": "listName",
          "type": "string"
        },
        {
          "internalType": "address",
          "name": "addressToUpdate",
          "type": "address"
        },
        {
          "internalType": "string",
          "name": "name",
          "type": "string"
        },
        {
          "internalType": "uint8",
          "name": "role",
          "type": "uint8"
        },
        {
          "internalType": "string",
          "name": "meta",
          "type": "string"
        }
      ],
      "name": "updateWhitelistEntry",
      "outputs": [],
      "stateMutability": "nonpayable",
      "type": "function"
    },
    {
      "inputs": [
        {
          "internalType": "string",
          "name": "publicKey",
          "type": "string"
        },
        {
          "internalType": "string",
          "name": "data",
          "type": "string"
        }
      ],
      "name": "write",
      "outputs": [],
      "stateMutability": "nonpayable",
      "type": "function"
    }
  ],
  "bytecode": "0x60a060405234801561001057600080fd5b50604051614d83380380614d8383398101604081905261002f9161012c565b60008251116100855760405162461bcd60e51b815260206004820152601660248201527f446f6d61696e2063616e6e6f7420626520656d7074790000000000000000000060448201526064015b60405180910390fd5b6001600160a01b0381166100db5760405162461bcd60e51b815260206004820152601e60248201527f53706f6e736f722063616e6e6f74206265207a65726f20616464726573730000604482015260640161007c565b60006100e78382610292565b506001600160a01b031660805250610350565b634e487b7160e01b600052604160045260246000fd5b80516001600160a01b038116811461012757600080fd5b919050565b6000806040838503121561013f57600080fd5b82516001600160401b0381111561015557600080fd5b8301601f8101851361016657600080fd5b80516001600160401b0381111561017f5761017f6100fa565b604051601f8201601f19908116603f011681016001600160401b03811182821017156101ad576101ad6100fa565b6040528181528282016020018710156101c557600080fd5b60005b828110156101e4576020818501810151838301820152016101c8565b5060006020838301015280945050505061020060208401610110565b90509250929050565b600181811c9082168061021d57607f821691505b60208210810361023d57634e487b7160e01b600052602260045260246000fd5b50919050565b601f82111561028d57806000526020600020601f840160051c8101602085101561026a5750805b601f840160051c820191505b8181101561028a5760008155600101610276565b50505b505050565b81516001600160401b038111156102ab576102ab6100fa565b6102bf816102b98454610209565b84610243565b6020601f8211600181146102f357600083156102db5750848201515b600019600385901b1c1916600184901b17845561028a565b600084815260208120601f198516915b828110156103235787850151825560209485019460019092019101610303565b50848210156103415786840151600019600387901b60f8161c191681555b50505050600190811b01905550565b6080516149d96103aa60003960008181610321015281816106cb01528181610d290152818161124c01528181611855015281816118fd01528181611a860152818161229401528181612b5b0152612c5b01526149d96000f3fe608060405234801561001057600080fd5b50600436106101e55760003560e01c80637f344c161161010f578063c2fb26a6116100a2578063f2fde38b11610071578063f2fde38b1461045b578063f6ee44cb1461046e578063fd098d2f14610481578063ffa1ad741461049457600080fd5b8063c2fb26a61461040d578063c565b77214610415578063c999117614610435578063ca239d4b1461044857600080fd5b80639d2c2c77116100de5780639d2c2c77146103b4578063aa2285a5146103c7578063b33a0af1146103da578063bae067b3146103fa57600080fd5b80637f344c161461035b578063898c2d7b1461036e5780638f033c8514610381578063956f0f8f146103a157600080fd5b80634194f5aa1161018757806357fca4071161015657806357fca407146102ee5780635eaf27f1146102f657806368fa81341461030957806377c936621461031c57600080fd5b80634194f5aa146102a057806343b63fd5146102c057806348205521146102d357806357de26a4146102e657600080fd5b80631b204716116101c35780631b2047161461023a5780631e7c01971461025a578063294c99211461026d578063319339161461028257600080fd5b80630308761b146101ea5780630a2eb301146101ff57806310ae73dd14610227575b600080fd5b6101fd6101f8366004613e24565b6104b8565b005b61021261020d366004613e71565b6106c7565b60405190151581526020015b60405180910390f35b6101fd610235366004613e8c565b610727565b61024d610248366004613ef2565b610a10565b60405161021e9190613f6c565b6101fd61026836600461401a565b610be7565b610275610d1c565b60405161021e9190614081565b3360009081526001602052604090205460405190815260200161021e565b6102b36102ae3660046140da565b610e9b565b60405161021e919061418d565b6102756102ce366004613e71565b611152565b6101fd6102e13660046141a0565b611241565b6102756113f0565b6102756114cb565b6101fd6103043660046141dc565b61159b565b6101fd610317366004613e71565b61184a565b6103437f000000000000000000000000000000000000000000000000000000000000000081565b6040516001600160a01b03909116815260200161021e565b6101fd6103693660046141a0565b6118f2565b6101fd61037c36600461401a565b611a7b565b61039461038f3660046141a0565b611c4f565b60405161021e9190614297565b6102126103af3660046140da565b611cff565b6101fd6103c23660046142aa565b611f3a565b6101fd6103d536600461401a565b612289565b6103ed6103e836600461434c565b61245d565b60405161021e9190614383565b6103946104083660046141a0565b612633565b6103946126d8565b610428610423366004613e71565b6126e5565b60405161021e91906143dc565b6101fd610443366004613e71565b612b50565b6103946104563660046141a0565b612c4e565b6101fd610469366004613e71565b612d06565b61042861047c366004613e71565b61352d565b6101fd61048f3660046141dc565b613983565b610394604051806040016040528060058152602001640322e302e360dc1b81525081565b60008251116104e25760405162461bcd60e51b81526004016104d990614490565b60405180910390fd5b3360009081526003602052604080822090516104ff9085906144c7565b9081526020016040518091039020905060005b81548110156106c157826001600160a01b0316828281548110610537576105376144e3565b60009182526020909120600490910201546001600160a01b0316036106b957815482906105669060019061450f565b81548110610576576105766144e3565b9060005260206000209060040201828281548110610596576105966144e3565b60009182526020909120825460049092020180546001600160a01b0319166001600160a01b039092169190911781556001808201906105d7908401826145a8565b50600282810154908201805460ff191660ff909216919091179055600380820190610604908401826145a8565b509050508180548061061857610618614687565b60008281526020812060046000199093019283020180546001600160a01b0319168155906106496001830182613c0d565b60028201805460ff19169055610663600383016000613c0d565b50509055826001600160a01b0316336001600160a01b03167fb66dabb959d5f3bdb53a39aa58d0975b39199c9b188ad8bb09a1b37bb7bf597986426040516106ac92919061469d565b60405180910390a36106c1565b600101610512565b50505050565b60007f00000000000000000000000000000000000000000000000000000000000000006001600160a01b0316826001600160a01b0316148061072157506001600160a01b0382166000908152600c602052604090205460ff165b92915050565b6001600160a01b03831661077d5760405162461bcd60e51b815260206004820181905260248201527f526571756573746f722063616e6e6f74206265207a65726f206164647265737360448201526064016104d9565b60008251116107ca5760405162461bcd60e51b815260206004820152601960248201527846696c65206e616d652063616e6e6f7420626520656d70747960381b60448201526064016104d9565b3360009081526005602090815260408083206001600160a01b03871684529091529020805461083b5760405162461bcd60e51b815260206004820152601f60248201527f4e6f2072657175657374732066726f6d207468697320726571756573746f720060448201526064016104d9565b6000805b82548110156109a25782818154811061085a5761085a6144e3565b90600052602060002090600502016003015460001480156108b857508480519060200120838281548110610890576108906144e3565b90600052602060002090600502016001016040516108ae91906146df565b6040518091039020145b1561099a57838382815481106108d0576108d06144e3565b906000526020600020906005020160000160006101000a81548160ff0219169083151502179055504283828154811061090b5761090b6144e3565b906000526020600020906005020160030181905550856001600160a01b0316336001600160a01b03167f532cb0591b34f8b7dd491dae5df420200e7d868e0eac7eae638ea5d4ce9dffcc858481548110610967576109676144e3565b9060005260206000209060050201600101874260405161098993929190614754565b60405180910390a3600191506109a2565b60010161083f565b5080610a095760405162461bcd60e51b815260206004820152603060248201527f4e6f20756e70726f636573736564207265717565737420666f756e642077697460448201526f6820746869732066696c65206e616d6560801b60648201526084016104d9565b5050505050565b6001600160a01b0380831660009081526005602090815260408083209385168352928152828220805484518184028101840190955280855260609493919290919084015b82821015610bdb5760008481526020908190206040805160a0810190915260058502909101805460ff16151582526001810180549293919291840191610a9990614522565b80601f0160208091040260200160405190810160405280929190818152602001828054610ac590614522565b8015610b125780601f10610ae757610100808354040283529160200191610b12565b820191906000526020600020905b815481529060010190602001808311610af557829003601f168201915b50505050508152602001600282018054610b2b90614522565b80601f0160208091040260200160405190810160405280929190818152602001828054610b5790614522565b8015610ba45780601f10610b7957610100808354040283529160200191610ba4565b820191906000526020600020905b815481529060010190602001808311610b8757829003601f168201915b5050509183525050600382015460208083019190915260049092015460ff1615156040909101529082526001929092019101610a54565b50505050905092915050565b6000825111610c385760405162461bcd60e51b815260206004820152601a60248201527f5075626c6963206b65792063616e6e6f7420626520656d70747900000000000060448201526064016104d9565b6000815111610c805760405162461bcd60e51b8152602060048201526014602482015273446174612063616e6e6f7420626520656d70747960601b60448201526064016104d9565b336000908152600160208181526040832080549283018155835290912001610ca882826147ea565b5033600090815260026020908152604082208054600181018255908352912001610cd283826147ea565b50336001600160a01b03167fc5d820f5092964c33342d79084a41f152b1071ffc9965eb19b078805775f4ae4838342604051610d10939291906148a0565b60405180910390a25050565b6060336001600160a01b037f0000000000000000000000000000000000000000000000000000000000000000161480610d645750336000908152600c602052604090205460ff165b610dc45760405162461bcd60e51b815260206004820152603e602482015260008051602061498483398151915260448201527f616e2072656164207072697661746520617474726962757465206b657973000060648201526084016104d9565b600b805480602002602001604051908101604052809291908181526020016000905b82821015610e92578382906000526020600020018054610e0590614522565b80601f0160208091040260200160405190810160405280929190818152602001828054610e3190614522565b8015610e7e5780601f10610e5357610100808354040283529160200191610e7e565b820191906000526020600020905b815481529060010190602001808311610e6157829003601f168201915b505050505081526020019060010190610de6565b50505050905090565b60408051608081018252600080825260606020830181905292820152818101919091526001600160a01b0384166000908152600360205260408082209051610ee49086906144c7565b9081526020016040518091039020805480602002602001604051908101604052809291908181526020016000905b8282101561108f57600084815260209081902060408051608081019091526004850290910180546001600160a01b031682526001810180549293919291840191610f5b90614522565b80601f0160208091040260200160405190810160405280929190818152602001828054610f8790614522565b8015610fd45780601f10610fa957610100808354040283529160200191610fd4565b820191906000526020600020905b815481529060010190602001808311610fb757829003601f168201915b5050509183525050600282015460ff166020820152600382018054604090920191610ffe90614522565b80601f016020809104026020016040519081016040528092919081815260200182805461102a90614522565b80156110775780601f1061104c57610100808354040283529160200191611077565b820191906000526020600020905b81548152906001019060200180831161105a57829003601f168201915b50505050508152505081526020019060010190610f12565b50505050905060005b815181101561110257836001600160a01b03168282815181106110bd576110bd6144e3565b6020026020010151600001516001600160a01b0316036110fa578181815181106110e9576110e96144e3565b60200260200101519250505061114b565b600101611098565b5060405162461bcd60e51b815260206004820152601860248201527f41646472657373206e6f7420696e2077686974656c697374000000000000000060448201526064016104d9565b9392505050565b6001600160a01b0381166000908152600460209081526040808320805482518185028101850190935280835260609492939192909184015b828210156112365783829060005260206000200180546111a990614522565b80601f01602080910402602001604051908101604052809291908181526020018280546111d590614522565b80156112225780601f106111f757610100808354040283529160200191611222565b820191906000526020600020905b81548152906001019060200180831161120557829003601f168201915b50505050508152602001906001019061118a565b505050509050919050565b336001600160a01b037f00000000000000000000000000000000000000000000000000000000000000001614806112875750336000908152600c602052604090205460ff165b6112e75760405162461bcd60e51b815260206004820152603c602482015260008051602061498483398151915260448201527f616e2064656c657465207072697661746520617474726962757465730000000060648201526084016104d9565b6009816040516112f791906144c7565b908152602001604051809103902060006113119190613c0d565b60005b600b548110156113ec578180519060200120600b8281548110611339576113396144e3565b9060005260206000200160405161135091906146df565b6040518091039020036113e457600b805461136d9060019061450f565b8154811061137d5761137d6144e3565b90600052602060002001600b828154811061139a5761139a6144e3565b9060005260206000200190816113b091906145a8565b50600b8054806113c2576113c2614687565b6001900381819060005260206000200160006113de9190613c0d565b90555050565b600101611314565b5050565b336000908152600160209081526040808320805482518185028101850190935280835260609492939192909184015b82821015610e9257838290600052602060002001805461143e90614522565b80601f016020809104026020016040519081016040528092919081815260200182805461146a90614522565b80156114b75780601f1061148c576101008083540402835291602001916114b7565b820191906000526020600020905b81548152906001019060200180831161149a57829003601f168201915b50505050508152602001906001019061141f565b6060600a805480602002602001604051908101604052809291908181526020016000905b82821015610e9257838290600052602060002001805461150e90614522565b80601f016020809104026020016040519081016040528092919081815260200182805461153a90614522565b80156115875780601f1061155c57610100808354040283529160200191611587565b820191906000526020600020905b81548152906001019060200180831161156a57829003601f168201915b5050505050815260200190600101906114ef565b60008551116115bc5760405162461bcd60e51b81526004016104d990614490565b60048260ff161115806115d257508160ff1660ff145b6116375760405162461bcd60e51b815260206004820152603060248201527f496e76616c696420726f6c653a206d75737420626520302d34206f722032353560448201526f20286b656570206578697374696e672960801b60648201526084016104d9565b3360009081526003602052604080822090516116549088906144c7565b9081526020016040518091039020905060005b815481101561184157856001600160a01b031682828154811061168c5761168c6144e3565b60009182526020909120600490910201546001600160a01b0316036118395760408051808201909152600581526304b4545560dc1b6020918201528551908601207fb0837273b2da8502395a7160f0bf01f6f8b7a45d6441089eea6b5d9f33b83991146117255784828281548110611706576117066144e3565b9060005260206000209060040201600101908161172391906147ea565b505b8360ff1660ff1461176d5783828281548110611743576117436144e3565b906000526020600020906004020160020160006101000a81548160ff021916908360ff1602179055505b60408051808201909152600581526304b4545560dc1b6020918201528351908401207fb0837273b2da8502395a7160f0bf01f6f8b7a45d6441089eea6b5d9f33b83991146117e757828282815481106117c8576117c86144e3565b906000526020600020906004020160030190816117e591906147ea565b505b856001600160a01b0316336001600160a01b03167fb66dabb959d5f3bdb53a39aa58d0975b39199c9b188ad8bb09a1b37bb7bf5979894260405161182c9291906148d6565b60405180910390a3611841565b600101611667565b50505050505050565b336001600160a01b037f000000000000000000000000000000000000000000000000000000000000000016146118d15760405162461bcd60e51b815260206004820152602660248201527f4f6e6c792073706f6e736f722063616e2072656d6f76652061646d696e6973746044820152657261746f727360d01b60648201526084016104d9565b6001600160a01b03166000908152600c60205260409020805460ff19169055565b336001600160a01b037f00000000000000000000000000000000000000000000000000000000000000001614806119385750336000908152600c602052604090205460ff165b6119985760405162461bcd60e51b815260206004820152603b602482015260008051602061498483398151915260448201527f616e2064656c657465207075626c69632061747472696275746573000000000060648201526084016104d9565b6008816040516119a891906144c7565b908152602001604051809103902060006119c29190613c0d565b60005b600a548110156113ec578180519060200120600a82815481106119ea576119ea6144e3565b90600052602060002001604051611a0191906146df565b604051809103902003611a7357600a8054611a1e9060019061450f565b81548110611a2e57611a2e6144e3565b90600052602060002001600a8281548110611a4b57611a4b6144e3565b906000526020600020019081611a6191906145a8565b50600a8054806113c2576113c2614687565b6001016119c5565b336001600160a01b037f0000000000000000000000000000000000000000000000000000000000000000161480611ac15750336000908152600c602052604090205460ff165b611b215760405162461bcd60e51b8152602060048201526038602482015260008051602061498483398151915260448201527f616e20736574207075626c69632061747472696275746573000000000000000060648201526084016104d9565b6000825111611b685760405162461bcd60e51b81526020600482015260136024820152724b65792063616e6e6f7420626520656d70747960681b60448201526064016104d9565b600882604051611b7891906144c7565b90815260200160405180910390208054611b9190614522565b9050600003611bd857600a80546001810182556000919091527fc65a7bb8d6351c1cf70c95a316cc6a92839c986682d98bc35f958f4883f9d2a801611bd683826147ea565b505b80600883604051611be991906144c7565b90815260200160405180910390209081611c0391906147ea565b5081604051611c1291906144c7565b6040805191829003822060018352426020840152917f590120a97fea9eae0ab7f73633c407e0d9f528198b43f5aded24fc16414667449101610d10565b6060600882604051611c6191906144c7565b90815260200160405180910390208054611c7a90614522565b80601f0160208091040260200160405190810160405280929190818152602001828054611ca690614522565b8015611cf35780601f10611cc857610100808354040283529160200191611cf3565b820191906000526020600020905b815481529060010190602001808311611cd657829003601f168201915b50505050509050919050565b6001600160a01b0383166000908152600360205260408082209051829190611d289086906144c7565b9081526020016040518091039020805480602002602001604051908101604052809291908181526020016000905b82821015611ed357600084815260209081902060408051608081019091526004850290910180546001600160a01b031682526001810180549293919291840191611d9f90614522565b80601f0160208091040260200160405190810160405280929190818152602001828054611dcb90614522565b8015611e185780601f10611ded57610100808354040283529160200191611e18565b820191906000526020600020905b815481529060010190602001808311611dfb57829003601f168201915b5050509183525050600282015460ff166020820152600382018054604090920191611e4290614522565b80601f0160208091040260200160405190810160405280929190818152602001828054611e6e90614522565b8015611ebb5780601f10611e9057610100808354040283529160200191611ebb565b820191906000526020600020905b815481529060010190602001808311611e9e57829003601f168201915b50505050508152505081526020019060010190611d56565b50505050905060005b8151811015611f2e57836001600160a01b0316828281518110611f0157611f016144e3565b6020026020010151600001516001600160a01b031603611f265760019250505061114b565b600101611edc565b50600095945050505050565b6001600160a01b038416611f905760405162461bcd60e51b815260206004820152601f60248201527f417070726f7665722063616e6e6f74206265207a65726f20616464726573730060448201526064016104d9565b6000835111611fdd5760405162461bcd60e51b815260206004820152601960248201527846696c65206e616d652063616e6e6f7420626520656d70747960381b60448201526064016104d9565b600082511161202e5760405162461bcd60e51b815260206004820152601960248201527f46696c6520686173682063616e6e6f7420626520656d7074790000000000000060448201526064016104d9565b6001600160a01b0384166000908152600660205260408120815b815481101561209857336001600160a01b031682828154811061206d5761206d6144e3565b6000918252602090912001546001600160a01b0316036120905760019250612098565b600101612048565b50816120d7576001600160a01b03861660009081526006602090815260408220805460018101825590835291200180546001600160a01b031916331790555b336000908152600760205260408120815b815481101561213857886001600160a01b031682828154811061210d5761210d6144e3565b6000918252602090912001546001600160a01b0316036121305760019250612138565b6001016120e8565b5081612177573360009081526007602090815260408220805460018101825590835291200180546001600160a01b0319166001600160a01b038a161790555b6040805160a081018252600080825260208083018b81528385018b9052606084018390526001608085018190526001600160a01b038e168452600580845286852033865284529584208054808301825590855292909320845192909502909401805460ff191691151591909117815592519192839290918201906121fb90826147ea565b506040820151600282019061221090826147ea565b50606082015160038201556080909101516004909101805460ff191691151591909117905560405133906001600160a01b038b16907f77b5f9c2d9c3bd8746beb63af36552109a2f92f947920ba0994acb2deb3e3b8b90612276908c908c9042906148a0565b60405180910390a3505050505050505050565b336001600160a01b037f00000000000000000000000000000000000000000000000000000000000000001614806122cf5750336000908152600c602052604090205460ff165b61232f5760405162461bcd60e51b8152602060048201526039602482015260008051602061498483398151915260448201527f616e20736574207072697661746520617474726962757465730000000000000060648201526084016104d9565b60008251116123765760405162461bcd60e51b81526020600482015260136024820152724b65792063616e6e6f7420626520656d70747960681b60448201526064016104d9565b60098260405161238691906144c7565b9081526020016040518091039020805461239f90614522565b90506000036123e657600b80546001810182556000919091527f0175b7a638427703f0dbe7bb9bbf987a2551717b34e79f33b5b1008d1fa01db9016123e483826147ea565b505b806009836040516123f791906144c7565b9081526020016040518091039020908161241191906147ea565b508160405161242091906144c7565b6040805191829003822060008352426020840152917f590120a97fea9eae0ab7f73633c407e0d9f528198b43f5aded24fc16414667449101610d10565b6001600160a01b038216600090815260036020526040908190209051606091906124889084906144c7565b9081526020016040518091039020805480602002602001604051908101604052809291908181526020016000905b82821015610bdb57600084815260209081902060408051608081019091526004850290910180546001600160a01b0316825260018101805492939192918401916124ff90614522565b80601f016020809104026020016040519081016040528092919081815260200182805461252b90614522565b80156125785780601f1061254d57610100808354040283529160200191612578565b820191906000526020600020905b81548152906001019060200180831161255b57829003601f168201915b5050509183525050600282015460ff1660208201526003820180546040909201916125a290614522565b80601f01602080910402602001604051908101604052809291908181526020018280546125ce90614522565b801561261b5780601f106125f05761010080835404028352916020019161261b565b820191906000526020600020905b8154815290600101906020018083116125fe57829003601f168201915b505050505081525050815260200190600101906124b6565b80516020818301810180516008825292820191909301209152805461265790614522565b80601f016020809104026020016040519081016040528092919081815260200182805461268390614522565b80156126d05780601f106126a5576101008083540402835291602001916126d0565b820191906000526020600020905b8154815290600101906020018083116126b357829003601f168201915b505050505081565b6000805461265790614522565b6001600160a01b038116600090815260076020908152604080832080548251818502810185019093528083526060949383018282801561274e57602002820191906000526020600020905b81546001600160a01b03168152600190910190602001808311612730575b505050505090506000805b82518110156127dc5760056000848381518110612778576127786144e3565b60200260200101516001600160a01b03166001600160a01b031681526020019081526020016000206000866001600160a01b03166001600160a01b0316815260200190815260200160002080549050826127d29190614918565b9150600101612759565b506000816001600160401b038111156127f7576127f7613d65565b60405190808252806020026020018201604052801561283057816020015b61281d613c4a565b8152602001906001900390816128155790505b5090506000805b8451811015612b45576000858281518110612854576128546144e3565b6020908102919091018101516001600160a01b038082166000908152600584526040808220928d1682529184528181208054835181870281018701909452808452939550909391929091849084015b82821015612a2a5760008481526020908190206040805160a0810190915260058502909101805460ff161515825260018101805492939192918401916128e890614522565b80601f016020809104026020016040519081016040528092919081815260200182805461291490614522565b80156129615780601f1061293657610100808354040283529160200191612961565b820191906000526020600020905b81548152906001019060200180831161294457829003601f168201915b5050505050815260200160028201805461297a90614522565b80601f01602080910402602001604051908101604052809291908181526020018280546129a690614522565b80156129f35780601f106129c8576101008083540402835291602001916129f3565b820191906000526020600020905b8154815290600101906020018083116129d657829003601f168201915b5050509183525050600382015460208083019190915260049092015460ff16151560409091015290825260019290920191016128a3565b50505050905060005b8151811015612b3a576040518060c00160405280846001600160a01b03168152602001838381518110612a6857612a686144e3565b60200260200101516000015115158152602001838381518110612a8d57612a8d6144e3565b6020026020010151602001518152602001838381518110612ab057612ab06144e3565b6020026020010151604001518152602001838381518110612ad357612ad36144e3565b6020026020010151606001518152602001838381518110612af657612af66144e3565b6020026020010151608001511515815250868681518110612b1957612b196144e3565b60200260200101819052508480612b2f9061492b565b955050600101612a33565b505050600101612837565b509095945050505050565b336001600160a01b037f00000000000000000000000000000000000000000000000000000000000000001614612bd45760405162461bcd60e51b815260206004820152602360248201527f4f6e6c792073706f6e736f722063616e206164642061646d696e6973747261746044820152626f727360e81b60648201526084016104d9565b6001600160a01b038116612c2a5760405162461bcd60e51b815260206004820152601c60248201527f41646d696e2063616e6e6f74206265207a65726f20616464726573730000000060448201526064016104d9565b6001600160a01b03166000908152600c60205260409020805460ff19166001179055565b6060336001600160a01b037f0000000000000000000000000000000000000000000000000000000000000000161480612c965750336000908152600c602052604090205460ff165b612cf65760405162461bcd60e51b815260206004820152603a602482015260008051602061498483398151915260448201527f616e20726561642070726976617465206174747269627574657300000000000060648201526084016104d9565b600982604051611c6191906144c7565b6001600160a01b038116612d5c5760405162461bcd60e51b815260206004820181905260248201527f4e6577206f776e65722063616e6e6f74206265207a65726f206164647265737360448201526064016104d9565b336001600160a01b03821603612db45760405162461bcd60e51b815260206004820152601760248201527f43616e6e6f74207472616e7366657220746f2073656c6600000000000000000060448201526064016104d9565b33600090815260016020526040902054612e065760405162461bcd60e51b81526020600482015260136024820152722737903230ba30903a37903a3930b739b332b960691b60448201526064016104d9565b33600090815260016020526040812054905b81811015612ed6576001600160a01b0383166000908152600160205260408082203383529120805483908110612e5057612e506144e3565b600091825260208083208454600181018655948452922090920191612e769101826145a8565b506001600160a01b0383166000908152600260205260408082203383529120805483908110612ea757612ea76144e3565b600091825260208083208454600181018655948452922090920191612ecd9101826145a8565b50600101612e18565b5033600090815260076020908152604080832080548251818502810185019093528083529192909190830182828015612f3857602002820191906000526020600020905b81546001600160a01b03168152600190910190602001808311612f1a575b5050505050905060005b815181101561349f576000828281518110612f5f57612f5f6144e3565b6020908102919091018101516001600160a01b0381166000908152600583526040808220338352845280822080548251818702810187019093528083529395509193909290849084015b828210156131305760008481526020908190206040805160a0810190915260058502909101805460ff16151582526001810180549293919291840191612fee90614522565b80601f016020809104026020016040519081016040528092919081815260200182805461301a90614522565b80156130675780601f1061303c57610100808354040283529160200191613067565b820191906000526020600020905b81548152906001019060200180831161304a57829003601f168201915b5050505050815260200160028201805461308090614522565b80601f01602080910402602001604051908101604052809291908181526020018280546130ac90614522565b80156130f95780601f106130ce576101008083540402835291602001916130f9565b820191906000526020600020905b8154815290600101906020018083116130dc57829003601f168201915b5050509183525050600382015460208083019190915260049092015460ff1615156040909101529082526001929092019101612fa9565b50505050905060005b8151811015613205576001600160a01b038084166000908152600560209081526040808320938b16835292905220825183908390811061317b5761317b6144e3565b6020908102919091018101518254600180820185556000948552938390208251600590920201805460ff19169115159190911781559181015190928201906131c390826147ea565b50604082015160028201906131d890826147ea565b50606082015160038201556080909101516004909101805460ff1916911515919091179055600101613139565b506001600160a01b038216600090815260066020526040812090805b825481101561326d57886001600160a01b0316838281548110613246576132466144e3565b6000918252602090912001546001600160a01b03160361326557600191505b600101613221565b5060005b825481101561336d57336001600160a01b0316838281548110613296576132966144e3565b6000918252602090912001546001600160a01b03160361336557825483906132c09060019061450f565b815481106132d0576132d06144e3565b9060005260206000200160009054906101000a90046001600160a01b0316838281548110613300576133006144e3565b9060005260206000200160006101000a8154816001600160a01b0302191690836001600160a01b031602179055508280548061333e5761333e614687565b600082815260209020810160001990810180546001600160a01b031916905501905561336d565b600101613271565b50806133b2576001600160a01b0384811660009081526006602090815260408220805460018101825590835291200180546001600160a01b031916918a169190911790555b6001600160a01b0388166000908152600760205260408120815b815481101561341c57866001600160a01b03168282815481106133f1576133f16144e3565b6000918252602090912001546001600160a01b031603613414576001925061341c565b6001016133cc565b5081613461576001600160a01b038a811660009081526007602090815260408220805460018101825590835291200180546001600160a01b0319169188169190911790555b6001600160a01b0386166000908152600560209081526040808320338452909152812061348d91613c8d565b505060019094019350612f4292505050565b503360009081526001602052604081206134b891613cae565b3360009081526002602052604081206134d091613cae565b3360009081526007602052604081206134e891613ccc565b6040514281526001600160a01b0384169033907fc13a1166d81cd3b0b352a367aebab95f3a6f6bc695fdab8e9a9d335239c3861b9060200160405180910390a3505050565b6001600160a01b038116600090815260066020908152604080832080548251818502810185019093528083526060949383018282801561359657602002820191906000526020600020905b81546001600160a01b03168152600190910190602001808311613578575b505050505090506000805b825181101561361a576001600160a01b038516600090815260056020526040812084519091908590849081106135d9576135d96144e3565b60200260200101516001600160a01b03166001600160a01b0316815260200190815260200160002080549050826136109190614918565b91506001016135a1565b506000816001600160401b0381111561363557613635613d65565b60405190808252806020026020018201604052801561366e57816020015b61365b613c4a565b8152602001906001900390816136535790505b5090506000805b8451811015612b45576000858281518110613692576136926144e3565b6020908102919091018101516001600160a01b03808b16600090815260058452604080822092841682529184528181208054835181870281018701909452808452939550909391929091849084015b828210156138685760008481526020908190206040805160a0810190915260058502909101805460ff1615158252600181018054929391929184019161372690614522565b80601f016020809104026020016040519081016040528092919081815260200182805461375290614522565b801561379f5780601f106137745761010080835404028352916020019161379f565b820191906000526020600020905b81548152906001019060200180831161378257829003601f168201915b505050505081526020016002820180546137b890614522565b80601f01602080910402602001604051908101604052809291908181526020018280546137e490614522565b80156138315780601f1061380657610100808354040283529160200191613831565b820191906000526020600020905b81548152906001019060200180831161381457829003601f168201915b5050509183525050600382015460208083019190915260049092015460ff16151560409091015290825260019290920191016136e1565b50505050905060005b8151811015613978576040518060c00160405280846001600160a01b031681526020018383815181106138a6576138a66144e3565b602002602001015160000151151581526020018383815181106138cb576138cb6144e3565b60200260200101516020015181526020018383815181106138ee576138ee6144e3565b6020026020010151604001518152602001838381518110613911576139116144e3565b6020026020010151606001518152602001838381518110613934576139346144e3565b6020026020010151608001511515815250868681518110613957576139576144e3565b6020026020010181905250848061396d9061492b565b955050600101613871565b505050600101613675565b60008551116139a45760405162461bcd60e51b81526004016104d990614490565b6001600160a01b0384166139f35760405162461bcd60e51b8152602060048201526016602482015275416464726573732063616e6e6f74206265207a65726f60501b60448201526064016104d9565b60048260ff16111580613a0957508160ff1660ff145b613a665760405162461bcd60e51b815260206004820152602860248201527f496e76616c696420726f6c653a206d75737420626520302d34206f72203235356044820152672028756e7365742960c01b60648201526084016104d9565b33600090815260036020526040908190209051613a849087906144c7565b90815260405190819003602001902054600003613ac65733600090815260046020908152604082208054600181018255908352912001613ac486826147ea565b505b60006040518060800160405280866001600160a01b031681526020018581526020018460ff1660ff14613af95784613afc565b60005b60ff16815260209081018490523360009081526003909152604090819020905191925090613b2b9088906144c7565b90815260405160209181900382019020805460018082018355600092835291839020845160049092020180546001600160a01b0319166001600160a01b0390921691909117815591830151839291820190613b8690826147ea565b50604082015160028201805460ff191660ff90921691909117905560608201516003820190613bb590826147ea565b505050846001600160a01b0316336001600160a01b03167fb66dabb959d5f3bdb53a39aa58d0975b39199c9b188ad8bb09a1b37bb7bf59798842604051613bfd929190614944565b60405180910390a3505050505050565b508054613c1990614522565b6000825580601f10613c29575050565b601f016020900490600052602060002090810190613c479190613ce6565b50565b6040518060c0016040528060006001600160a01b031681526020016000151581526020016060815260200160608152602001600081526020016000151581525090565b5080546000825560050290600052602060002090810190613c479190613cff565b5080546000825590600052602060002090810190613c479190613d48565b5080546000825590600052602060002090810190613c4791905b5b80821115613cfb5760008155600101613ce7565b5090565b80821115613cfb57805460ff191681556000613d1e6001830182613c0d565b613d2c600283016000613c0d565b506000600382015560048101805460ff19169055600501613cff565b80821115613cfb576000613d5c8282613c0d565b50600101613d48565b634e487b7160e01b600052604160045260246000fd5b600082601f830112613d8c57600080fd5b81356001600160401b03811115613da557613da5613d65565b604051601f8201601f19908116603f011681016001600160401b0381118282101715613dd357613dd3613d65565b604052818152838201602001851015613deb57600080fd5b816020850160208301376000918101602001919091529392505050565b80356001600160a01b0381168114613e1f57600080fd5b919050565b60008060408385031215613e3757600080fd5b82356001600160401b03811115613e4d57600080fd5b613e5985828601613d7b565b925050613e6860208401613e08565b90509250929050565b600060208284031215613e8357600080fd5b61114b82613e08565b600080600060608486031215613ea157600080fd5b613eaa84613e08565b925060208401356001600160401b03811115613ec557600080fd5b613ed186828701613d7b565b92505060408401358015158114613ee757600080fd5b809150509250925092565b60008060408385031215613f0557600080fd5b613f0e83613e08565b9150613e6860208401613e08565b60005b83811015613f37578181015183820152602001613f1f565b50506000910152565b60008151808452613f58816020860160208601613f1c565b601f01601f19169290920160200192915050565b6000602082016020835280845180835260408501915060408160051b86010192506020860160005b8281101561400e57603f198786030184528151805115158652602081015160a06020880152613fc660a0880182613f40565b905060408201518782036040890152613fdf8282613f40565b606084810151908a01526080938401511515939098019290925250506020938401939190910190600101613f94565b50929695505050505050565b6000806040838503121561402d57600080fd5b82356001600160401b0381111561404357600080fd5b61404f85828601613d7b565b92505060208301356001600160401b0381111561406b57600080fd5b61407785828601613d7b565b9150509250929050565b6000602082016020835280845180835260408501915060408160051b86010192506020860160005b8281101561400e57603f198786030184526140c5858351613f40565b945060209384019391909101906001016140a9565b6000806000606084860312156140ef57600080fd5b6140f884613e08565b925060208401356001600160401b0381111561411357600080fd5b61411f86828701613d7b565b92505061412e60408501613e08565b90509250925092565b60018060a01b038151168252600060208201516080602085015261415e6080850182613f40565b905060ff6040840151166040850152606083015184820360608601526141848282613f40565b95945050505050565b60208152600061114b6020830184614137565b6000602082840312156141b257600080fd5b81356001600160401b038111156141c857600080fd5b6141d484828501613d7b565b949350505050565b600080600080600060a086880312156141f457600080fd5b85356001600160401b0381111561420a57600080fd5b61421688828901613d7b565b95505061422560208701613e08565b935060408601356001600160401b0381111561424057600080fd5b61424c88828901613d7b565b935050606086013560ff8116811461426357600080fd5b915060808601356001600160401b0381111561427e57600080fd5b61428a88828901613d7b565b9150509295509295909350565b60208152600061114b6020830184613f40565b600080600080608085870312156142c057600080fd5b6142c985613e08565b935060208501356001600160401b038111156142e457600080fd5b6142f087828801613d7b565b93505060408501356001600160401b0381111561430c57600080fd5b61431887828801613d7b565b92505060608501356001600160401b0381111561433457600080fd5b61434087828801613d7b565b91505092959194509250565b6000806040838503121561435f57600080fd5b61436883613e08565b915060208301356001600160401b0381111561406b57600080fd5b6000602082016020835280845180835260408501915060408160051b86010192506020860160005b8281101561400e57603f198786030184526143c7858351614137565b945060209384019391909101906001016143ab565b6000602082016020835280845180835260408501915060408160051b86010192506020860160005b8281101561400e57603f19878603018452815160018060a01b038151168652602081015115156020870152604081015160c0604088015261444860c0880182613f40565b9050606082015187820360608901526144618282613f40565b608084810151908a015260a0938401511515939098019290925250506020938401939190910190600101614404565b60208082526019908201527f4c697374206e616d652063616e6e6f7420626520656d70747900000000000000604082015260600190565b600082516144d9818460208701613f1c565b9190910192915050565b634e487b7160e01b600052603260045260246000fd5b634e487b7160e01b600052601160045260246000fd5b81810381811115610721576107216144f9565b600181811c9082168061453657607f821691505b60208210810361455657634e487b7160e01b600052602260045260246000fd5b50919050565b601f8211156145a357806000526020600020601f840160051c810160208510156145835750805b601f840160051c820191505b81811015610a09576000815560010161458f565b505050565b8181036145b3575050565b6145bd8254614522565b6001600160401b038111156145d4576145d4613d65565b6145e8816145e28454614522565b8461455c565b6000601f82116001811461461f57600083156146045750848201545b600184901b600019600386901b1c198216175b855550610a09565b600085815260209020601f19841690600086815260209020845b838110156146595782860154825560019586019590910190602001614639565b50858310156146775781850154600019600388901b60f8161c191681555b5050505050600190811b01905550565b634e487b7160e01b600052603160045260246000fd5b6060815260006146b06060830185613f40565b8281036020840152600681526572656d6f766560d01b6020820152604081019150508260408301529392505050565b60008083546146ed81614522565b600182168015614704576001811461471957614749565b60ff1983168652811515820286019350614749565b86600052602060002060005b8381101561474157815488820152600190910190602001614725565b505081860193505b509195945050505050565b60608152600080855461476681614522565b806060860152600182166000811461478557600181146147a1576147d5565b60ff1983166080870152608082151560051b87010193506147d5565b88600052602060002060005b838110156147cc578154888201608001526001909101906020016147ad565b87016080019450505b50505093151560208301525060400152919050565b81516001600160401b0381111561480357614803613d65565b614811816145e28454614522565b6020601f8211600181146148435760008315614604575081850151600184901b600019600386901b1c19821617614617565b600084815260208120601f198516915b828110156148735787850151825560209485019460019092019101614853565b50848210156148915786840151600019600387901b60f8161c191681555b50505050600190811b01905550565b6060815260006148b36060830186613f40565b82810360208401526148c58186613f40565b915050826040830152949350505050565b6060815260006148e96060830185613f40565b8281036020840152600681526575706461746560d01b6020820152604081019150508260408301529392505050565b80820180821115610721576107216144f9565b60006001820161493d5761493d6144f9565b5060010190565b6060815260006149576060830185613f40565b8281036020840152600381526218591960ea1b602082015260408101915050826040830152939250505056fe4f6e6c792073706f6e736f72206f722061646d696e6973747261746f72732063a264697066735822122096e5453a4eb64d3e677fa98a642614ef14404564dc263696eb53442fd08c342264736f6c634300081b0033",
  "linkReferences": {},
  "deployedLinkReferences": {}
}